{"abi":[{"inputs":[{"internalType":"string","name":"title","type":"string"},{"internalType":"address","name":"_manager","type":"address"},{"internalType":"string","name":"name","type":"string"}],"stateMutability":"nonpayable","type":"constructor"},{"inputs":[{"internalType":"address","name":"coopAddress","type":"address"},{"internalType":"uint256","name":"permission","type":"uint256"},{"internalType":"string","name":"name","type":"string"},{"internalType":"address[2]","name":"cooperatorAddress","type":"address[2]"}],"name":"addCooperator","outputs":[],"stateMutability":"nonpayable","type":"function"},{"inputs":[{"internalType":"uint256","name":"monthTimestamp","type":"uint256"},{"internalType":"uint256","name":"eventStartTimestamp","type":"uint256"},{"internalType":"uint256","name":"eventEndTimestamp","type":"uint256"},{"internalType":"string","name":"title","type":"string"},{"internalType":"string","name":"color","type":"string"},{"internalType":"string","name":"description","type":"string"},{"internalType":"address[2]","name":"cooperatorAddress","type":"address[2]"}],"name":"addEvent","outputs":[],"stateMutability":"nonpayable","type":"function"},{"inputs":[{"internalType":"address","name":"newManager","type":"address"}],"name":"changeManager","outputs":[],"stateMutability":"nonpayable","type":"function"},{"inputs":[{"internalType":"uint256","name":"index","type":"uint256"},{"internalType":"address","name":"cooperator","type":"address"},{"internalType":"address[2]","name":"cooperatorAddress","type":"address[2]"}],"name":"deleteCooperator","outputs":[],"stateMutability":"nonpayable","type":"function"},{"inputs":[{"internalType":"uint256","name":"monthTimestamp","type":"uint256"},{"internalType":"uint256","name":"index","type":"uint256"},{"internalType":"address[2]","name":"cooperatorAddress","type":"address[2]"}],"name":"deleteEvent","outputs":[],"stateMutability":"nonpayable","type":"function"},{"inputs":[{"internalType":"address[2]","name":"cooperatorAddress","type":"address[2]"}],"name":"getCalendarTitle","outputs":[{"internalType":"string","name":"","type":"string"}],"stateMutability":"view","type":"function"},{"inputs":[{"internalType":"address[2]","name":"cooperatorAddress","type":"address[2]"}],"name":"getCooperators","outputs":[{"internalType":"address[]","name":"_cooperators","type":"address[]"},{"internalType":"string[]","name":"names","type":"string[]"},{"internalType":"uint256[]","name":"permissions","type":"uint256[]"}],"stateMutability":"view","type":"function"},{"inputs":[{"internalType":"uint256","name":"monthTimestamp","type":"uint256"},{"internalType":"address[2]","name":"cooperatorAddress","type":"address[2]"}],"name":"getEvents","outputs":[{"internalType":"uint256[]","name":"eventStartTimestamps","type":"uint256[]"},{"internalType":"uint256[]","name":"eventEndTimestamps","type":"uint256[]"},{"internalType":"string[]","name":"titles","type":"string[]"},{"internalType":"string[]","name":"colors","type":"string[]"},{"internalType":"string[]","name":"descriptions","type":"string[]"},{"internalType":"address[]","name":"createdBys","type":"address[]"},{"internalType":"uint256[]","name":"indexes","type":"uint256[]"}],"stateMutability":"view","type":"function"},{"inputs":[],"name":"manager","outputs":[{"internalType":"address","name":"","type":"address"}],"stateMutability":"view","type":"function"},{"inputs":[{"internalType":"string","name":"title","type":"string"},{"internalType":"address[2]","name":"cooperatorAddress","type":"address[2]"}],"name":"updateCalendarTitle","outputs":[],"stateMutability":"nonpayable","type":"function"},{"inputs":[{"internalType":"address","name":"cooperator","type":"address"},{"internalType":"string","name":"name","type":"string"},{"internalType":"uint256","name":"permission","type":"uint256"},{"internalType":"address[2]","name":"cooperatorAddress","type":"address[2]"}],"name":"updateCooperator","outputs":[],"stateMutability":"nonpayable","type":"function"},{"inputs":[{"internalType":"uint256","name":"monthTimestamp","type":"uint256"},{"internalType":"uint256","name":"index","type":"uint256"},{"internalType":"uint256","name":"eventStartTimestamp","type":"uint256"},{"internalType":"uint256","name":"eventEndTimestamp","type":"uint256"},{"internalType":"string","name":"title","type":"string"},{"internalType":"string","name":"description","type":"string"},{"internalType":"string","name":"color","type":"string"},{"internalType":"address[2]","name":"cooperatorAddress","type":"address[2]"}],"name":"updateEvent","outputs":[],"stateMutability":"nonpayable","type":"function"}],"devdoc":{"kind":"dev","methods":{},"version":1},"evm":{"assembly":"    /* \"E-timetable.sol\":76:7962  contract Calendar{... */\n  mstore(0x40, 0x80)\n    /* \"E-timetable.sol\":1226:1501  constructor(string memory title, address _manager, string memory name){... */\n  callvalue\n  dup1\n  iszero\n  tag_1\n  jumpi\n  0x00\n  dup1\n  revert\ntag_1:\n  pop\n  mload(0x40)\n  sub(codesize, bytecodeSize)\n  dup1\n  bytecodeSize\n  dup4\n  codecopy\n  dup2\n  dup2\n  add\n  0x40\n  mstore\n  dup2\n  add\n  swap1\n  tag_2\n  swap2\n  swap1\n  tag_3\n  jump\t// in\ntag_2:\n    /* \"E-timetable.sol\":1317:1325  _manager */\n  dup2\n    /* \"E-timetable.sol\":1307:1314  manager */\n  0x01\n  0x00\n    /* \"E-timetable.sol\":1307:1325  manager = _manager */\n  0x0100\n  exp\n  dup2\n  sload\n  dup2\n  0xffffffffffffffffffffffffffffffffffffffff\n  mul\n  not\n  and\n  swap1\n  dup4\n  0xffffffffffffffffffffffffffffffffffffffff\n  and\n  mul\n  or\n  swap1\n  sstore\n  pop\n    /* \"E-timetable.sol\":1352:1357  title */\n  dup3\n    /* \"E-timetable.sol\":1336:1349  calendarTitle */\n  0x02\n    /* \"E-timetable.sol\":1336:1357  calendarTitle = title */\n  swap1\n  dup1\n  mload\n  swap1\n  0x20\n  add\n  swap1\n  tag_6\n  swap3\n  swap2\n  swap1\n  tag_7\n  jump\t// in\ntag_6:\n  pop\n    /* \"E-timetable.sol\":1400:1416  Permission.ADMIN */\n  0x03\n    /* \"E-timetable.sol\":1368:1388  cooperatorPermission */\n  0x04\n    /* \"E-timetable.sol\":1368:1397  cooperatorPermission[manager] */\n  0x00\n    /* \"E-timetable.sol\":1389:1396  manager */\n  0x01\n  0x00\n  swap1\n  sload\n  swap1\n  0x0100\n  exp\n  swap1\n  div\n  0xffffffffffffffffffffffffffffffffffffffff\n  and\n    /* \"E-timetable.sol\":1368:1397  cooperatorPermission[manager] */\n  0xffffffffffffffffffffffffffffffffffffffff\n  and\n  0xffffffffffffffffffffffffffffffffffffffff\n  and\n  dup2\n  mstore\n  0x20\n  add\n  swap1\n  dup2\n  mstore\n  0x20\n  add\n  0x00\n  keccak256\n  0x00\n    /* \"E-timetable.sol\":1368:1416  cooperatorPermission[manager] = Permission.ADMIN */\n  0x0100\n  exp\n  dup2\n  sload\n  dup2\n  0xff\n  mul\n  not\n  and\n  swap1\n  dup4\n  0x03\n  dup2\n  gt\n  iszero\n  tag_8\n  jumpi\n  tag_9\n  tag_10\n  jump\t// in\ntag_9:\ntag_8:\n  mul\n  or\n  swap1\n  sstore\n  pop\n    /* \"E-timetable.sol\":1427:1438  cooperators */\n  0x03\n    /* \"E-timetable.sol\":1444:1451  manager */\n  0x01\n  0x00\n  swap1\n  sload\n  swap1\n  0x0100\n  exp\n  swap1\n  div\n  0xffffffffffffffffffffffffffffffffffffffff\n  and\n    /* \"E-timetable.sol\":1427:1452  cooperators.push(manager) */\n  swap1\n  dup1\n  0x01\n  dup2\n  sload\n  add\n  dup1\n  dup3\n  sstore\n  dup1\n  swap2\n  pop\n  pop\n  0x01\n  swap1\n  sub\n  swap1\n  0x00\n  mstore\n  keccak256(0x00, 0x20)\n  add\n  0x00\n  swap1\n  swap2\n  swap1\n  swap2\n  swap1\n  swap2\n  0x0100\n  exp\n  dup2\n  sload\n  dup2\n  0xffffffffffffffffffffffffffffffffffffffff\n  mul\n  not\n  and\n  swap1\n  dup4\n  0xffffffffffffffffffffffffffffffffffffffff\n  and\n  mul\n  or\n  swap1\n  sstore\n  pop\n    /* \"E-timetable.sol\":1489:1493  name */\n  dup1\n    /* \"E-timetable.sol\":1463:1477  cooperatorName */\n  0x05\n    /* \"E-timetable.sol\":1463:1486  cooperatorName[manager] */\n  0x00\n    /* \"E-timetable.sol\":1478:1485  manager */\n  0x01\n  0x00\n  swap1\n  sload\n  swap1\n  0x0100\n  exp\n  swap1\n  div\n  0xffffffffffffffffffffffffffffffffffffffff\n  and\n    /* \"E-timetable.sol\":1463:1486  cooperatorName[manager] */\n  0xffffffffffffffffffffffffffffffffffffffff\n  and\n  0xffffffffffffffffffffffffffffffffffffffff\n  and\n  dup2\n  mstore\n  0x20\n  add\n  swap1\n  dup2\n  mstore\n  0x20\n  add\n  0x00\n  keccak256\n    /* \"E-timetable.sol\":1463:1493  cooperatorName[manager] = name */\n  swap1\n  dup1\n  mload\n  swap1\n  0x20\n  add\n  swap1\n  tag_12\n  swap3\n  swap2\n  swap1\n  tag_7\n  jump\t// in\ntag_12:\n  pop\n    /* \"E-timetable.sol\":1226:1501  constructor(string memory title, address _manager, string memory name){... */\n  pop\n  pop\n  pop\n    /* \"E-timetable.sol\":76:7962  contract Calendar{... */\n  jump(tag_13)\ntag_7:\n  dup3\n  dup1\n  sload\n  tag_14\n  swap1\n  tag_15\n  jump\t// in\ntag_14:\n  swap1\n  0x00\n  mstore\n  keccak256(0x00, 0x20)\n  swap1\n  0x1f\n  add\n  0x20\n  swap1\n  div\n  dup2\n  add\n  swap3\n  dup3\n  tag_17\n  jumpi\n  0x00\n  dup6\n  sstore\n  jump(tag_16)\ntag_17:\n  dup3\n  0x1f\n  lt\n  tag_18\n  jumpi\n  dup1\n  mload\n  not(0xff)\n  and\n  dup4\n  dup1\n  add\n  or\n  dup6\n  sstore\n  jump(tag_16)\ntag_18:\n  dup3\n  dup1\n  add\n  0x01\n  add\n  dup6\n  sstore\n  dup3\n  iszero\n  tag_16\n  jumpi\n  swap2\n  dup3\n  add\ntag_19:\n  dup3\n  dup2\n  gt\n  iszero\n  tag_20\n  jumpi\n  dup3\n  mload\n  dup3\n  sstore\n  swap2\n  0x20\n  add\n  swap2\n  swap1\n  0x01\n  add\n  swap1\n  jump(tag_19)\ntag_20:\ntag_16:\n  pop\n  swap1\n  pop\n  tag_21\n  swap2\n  swap1\n  tag_22\n  jump\t// in\ntag_21:\n  pop\n  swap1\n  jump\t// out\ntag_22:\ntag_23:\n  dup1\n  dup3\n  gt\n  iszero\n  tag_24\n  jumpi\n  0x00\n  dup2\n  0x00\n  swap1\n  sstore\n  pop\n  0x01\n  add\n  jump(tag_23)\ntag_24:\n  pop\n  swap1\n  jump\t// out\n    /* \"#utility.yul\":7:82   */\ntag_25:\n    /* \"#utility.yul\":40:46   */\n  0x00\n    /* \"#utility.yul\":73:75   */\n  0x40\n    /* \"#utility.yul\":67:76   */\n  mload\n    /* \"#utility.yul\":57:76   */\n  swap1\n  pop\n    /* \"#utility.yul\":7:82   */\n  swap1\n  jump\t// out\n    /* \"#utility.yul\":88:205   */\ntag_26:\n    /* \"#utility.yul\":197:198   */\n  0x00\n    /* \"#utility.yul\":194:195   */\n  dup1\n    /* \"#utility.yul\":187:199   */\n  revert\n    /* \"#utility.yul\":211:328   */\ntag_27:\n    /* \"#utility.yul\":320:321   */\n  0x00\n    /* \"#utility.yul\":317:318   */\n  dup1\n    /* \"#utility.yul\":310:322   */\n  revert\n    /* \"#utility.yul\":334:451   */\ntag_28:\n    /* \"#utility.yul\":443:444   */\n  0x00\n    /* \"#utility.yul\":440:441   */\n  dup1\n    /* \"#utility.yul\":433:445   */\n  revert\n    /* \"#utility.yul\":457:574   */\ntag_29:\n    /* \"#utility.yul\":566:567   */\n  0x00\n    /* \"#utility.yul\":563:564   */\n  dup1\n    /* \"#utility.yul\":556:568   */\n  revert\n    /* \"#utility.yul\":580:682   */\ntag_30:\n    /* \"#utility.yul\":621:627   */\n  0x00\n    /* \"#utility.yul\":672:674   */\n  0x1f\n    /* \"#utility.yul\":668:675   */\n  not\n    /* \"#utility.yul\":663:665   */\n  0x1f\n    /* \"#utility.yul\":656:661   */\n  dup4\n    /* \"#utility.yul\":652:666   */\n  add\n    /* \"#utility.yul\":648:676   */\n  and\n    /* \"#utility.yul\":638:676   */\n  swap1\n  pop\n    /* \"#utility.yul\":580:682   */\n  swap2\n  swap1\n  pop\n  jump\t// out\n    /* \"#utility.yul\":688:868   */\ntag_31:\n    /* \"#utility.yul\":736:813   */\n  0x4e487b7100000000000000000000000000000000000000000000000000000000\n    /* \"#utility.yul\":733:734   */\n  0x00\n    /* \"#utility.yul\":726:814   */\n  mstore\n    /* \"#utility.yul\":833:837   */\n  0x41\n    /* \"#utility.yul\":830:831   */\n  0x04\n    /* \"#utility.yul\":823:838   */\n  mstore\n    /* \"#utility.yul\":857:861   */\n  0x24\n    /* \"#utility.yul\":854:855   */\n  0x00\n    /* \"#utility.yul\":847:862   */\n  revert\n    /* \"#utility.yul\":874:1155   */\ntag_32:\n    /* \"#utility.yul\":957:984   */\n  tag_52\n    /* \"#utility.yul\":979:983   */\n  dup3\n    /* \"#utility.yul\":957:984   */\n  tag_30\n  jump\t// in\ntag_52:\n    /* \"#utility.yul\":949:955   */\n  dup2\n    /* \"#utility.yul\":945:985   */\n  add\n    /* \"#utility.yul\":1087:1093   */\n  dup2\n    /* \"#utility.yul\":1075:1085   */\n  dup2\n    /* \"#utility.yul\":1072:1094   */\n  lt\n    /* \"#utility.yul\":1051:1069   */\n  0xffffffffffffffff\n    /* \"#utility.yul\":1039:1049   */\n  dup3\n    /* \"#utility.yul\":1036:1070   */\n  gt\n    /* \"#utility.yul\":1033:1095   */\n  or\n    /* \"#utility.yul\":1030:1118   */\n  iszero\n  tag_53\n  jumpi\n    /* \"#utility.yul\":1098:1116   */\n  tag_54\n  tag_31\n  jump\t// in\ntag_54:\n    /* \"#utility.yul\":1030:1118   */\ntag_53:\n    /* \"#utility.yul\":1138:1148   */\n  dup1\n    /* \"#utility.yul\":1134:1136   */\n  0x40\n    /* \"#utility.yul\":1127:1149   */\n  mstore\n    /* \"#utility.yul\":917:1155   */\n  pop\n    /* \"#utility.yul\":874:1155   */\n  pop\n  pop\n  jump\t// out\n    /* \"#utility.yul\":1161:1290   */\ntag_33:\n    /* \"#utility.yul\":1195:1201   */\n  0x00\n    /* \"#utility.yul\":1222:1242   */\n  tag_56\n  tag_25\n  jump\t// in\ntag_56:\n    /* \"#utility.yul\":1212:1242   */\n  swap1\n  pop\n    /* \"#utility.yul\":1251:1284   */\n  tag_57\n    /* \"#utility.yul\":1279:1283   */\n  dup3\n    /* \"#utility.yul\":1271:1277   */\n  dup3\n    /* \"#utility.yul\":1251:1284   */\n  tag_32\n  jump\t// in\ntag_57:\n    /* \"#utility.yul\":1161:1290   */\n  swap2\n  swap1\n  pop\n  jump\t// out\n    /* \"#utility.yul\":1296:1604   */\ntag_34:\n    /* \"#utility.yul\":1358:1362   */\n  0x00\n    /* \"#utility.yul\":1448:1466   */\n  0xffffffffffffffff\n    /* \"#utility.yul\":1440:1446   */\n  dup3\n    /* \"#utility.yul\":1437:1467   */\n  gt\n    /* \"#utility.yul\":1434:1490   */\n  iszero\n  tag_59\n  jumpi\n    /* \"#utility.yul\":1470:1488   */\n  tag_60\n  tag_31\n  jump\t// in\ntag_60:\n    /* \"#utility.yul\":1434:1490   */\ntag_59:\n    /* \"#utility.yul\":1508:1537   */\n  tag_61\n    /* \"#utility.yul\":1530:1536   */\n  dup3\n    /* \"#utility.yul\":1508:1537   */\n  tag_30\n  jump\t// in\ntag_61:\n    /* \"#utility.yul\":1500:1537   */\n  swap1\n  pop\n    /* \"#utility.yul\":1592:1596   */\n  0x20\n    /* \"#utility.yul\":1586:1590   */\n  dup2\n    /* \"#utility.yul\":1582:1597   */\n  add\n    /* \"#utility.yul\":1574:1597   */\n  swap1\n  pop\n    /* \"#utility.yul\":1296:1604   */\n  swap2\n  swap1\n  pop\n  jump\t// out\n    /* \"#utility.yul\":1610:1917   */\ntag_35:\n    /* \"#utility.yul\":1678:1679   */\n  0x00\n    /* \"#utility.yul\":1688:1801   */\ntag_63:\n    /* \"#utility.yul\":1702:1708   */\n  dup4\n    /* \"#utility.yul\":1699:1700   */\n  dup2\n    /* \"#utility.yul\":1696:1709   */\n  lt\n    /* \"#utility.yul\":1688:1801   */\n  iszero\n  tag_65\n  jumpi\n    /* \"#utility.yul\":1787:1788   */\n  dup1\n    /* \"#utility.yul\":1782:1785   */\n  dup3\n    /* \"#utility.yul\":1778:1789   */\n  add\n    /* \"#utility.yul\":1772:1790   */\n  mload\n    /* \"#utility.yul\":1768:1769   */\n  dup2\n    /* \"#utility.yul\":1763:1766   */\n  dup5\n    /* \"#utility.yul\":1759:1770   */\n  add\n    /* \"#utility.yul\":1752:1791   */\n  mstore\n    /* \"#utility.yul\":1724:1726   */\n  0x20\n    /* \"#utility.yul\":1721:1722   */\n  dup2\n    /* \"#utility.yul\":1717:1727   */\n  add\n    /* \"#utility.yul\":1712:1727   */\n  swap1\n  pop\n    /* \"#utility.yul\":1688:1801   */\n  jump(tag_63)\ntag_65:\n    /* \"#utility.yul\":1819:1825   */\n  dup4\n    /* \"#utility.yul\":1816:1817   */\n  dup2\n    /* \"#utility.yul\":1813:1826   */\n  gt\n    /* \"#utility.yul\":1810:1911   */\n  iszero\n  tag_66\n  jumpi\n    /* \"#utility.yul\":1899:1900   */\n  0x00\n    /* \"#utility.yul\":1890:1896   */\n  dup5\n    /* \"#utility.yul\":1885:1888   */\n  dup5\n    /* \"#utility.yul\":1881:1897   */\n  add\n    /* \"#utility.yul\":1874:1901   */\n  mstore\n    /* \"#utility.yul\":1810:1911   */\ntag_66:\n    /* \"#utility.yul\":1659:1917   */\n  pop\n    /* \"#utility.yul\":1610:1917   */\n  pop\n  pop\n  pop\n  jump\t// out\n    /* \"#utility.yul\":1923:2344   */\ntag_36:\n    /* \"#utility.yul\":2012:2017   */\n  0x00\n    /* \"#utility.yul\":2037:2103   */\n  tag_68\n    /* \"#utility.yul\":2053:2102   */\n  tag_69\n    /* \"#utility.yul\":2095:2101   */\n  dup5\n    /* \"#utility.yul\":2053:2102   */\n  tag_34\n  jump\t// in\ntag_69:\n    /* \"#utility.yul\":2037:2103   */\n  tag_33\n  jump\t// in\ntag_68:\n    /* \"#utility.yul\":2028:2103   */\n  swap1\n  pop\n    /* \"#utility.yul\":2126:2132   */\n  dup3\n    /* \"#utility.yul\":2119:2124   */\n  dup2\n    /* \"#utility.yul\":2112:2133   */\n  mstore\n    /* \"#utility.yul\":2164:2168   */\n  0x20\n    /* \"#utility.yul\":2157:2162   */\n  dup2\n    /* \"#utility.yul\":2153:2169   */\n  add\n    /* \"#utility.yul\":2202:2205   */\n  dup5\n    /* \"#utility.yul\":2193:2199   */\n  dup5\n    /* \"#utility.yul\":2188:2191   */\n  dup5\n    /* \"#utility.yul\":2184:2200   */\n  add\n    /* \"#utility.yul\":2181:2206   */\n  gt\n    /* \"#utility.yul\":2178:2290   */\n  iszero\n  tag_70\n  jumpi\n    /* \"#utility.yul\":2209:2288   */\n  tag_71\n  tag_29\n  jump\t// in\ntag_71:\n    /* \"#utility.yul\":2178:2290   */\ntag_70:\n    /* \"#utility.yul\":2299:2338   */\n  tag_72\n    /* \"#utility.yul\":2331:2337   */\n  dup5\n    /* \"#utility.yul\":2326:2329   */\n  dup3\n    /* \"#utility.yul\":2321:2324   */\n  dup6\n    /* \"#utility.yul\":2299:2338   */\n  tag_35\n  jump\t// in\ntag_72:\n    /* \"#utility.yul\":2018:2344   */\n  pop\n    /* \"#utility.yul\":1923:2344   */\n  swap4\n  swap3\n  pop\n  pop\n  pop\n  jump\t// out\n    /* \"#utility.yul\":2364:2719   */\ntag_37:\n    /* \"#utility.yul\":2431:2436   */\n  0x00\n    /* \"#utility.yul\":2480:2483   */\n  dup3\n    /* \"#utility.yul\":2473:2477   */\n  0x1f\n    /* \"#utility.yul\":2465:2471   */\n  dup4\n    /* \"#utility.yul\":2461:2478   */\n  add\n    /* \"#utility.yul\":2457:2484   */\n  slt\n    /* \"#utility.yul\":2447:2569   */\n  tag_74\n  jumpi\n    /* \"#utility.yul\":2488:2567   */\n  tag_75\n  tag_28\n  jump\t// in\ntag_75:\n    /* \"#utility.yul\":2447:2569   */\ntag_74:\n    /* \"#utility.yul\":2598:2604   */\n  dup2\n    /* \"#utility.yul\":2592:2605   */\n  mload\n    /* \"#utility.yul\":2623:2713   */\n  tag_76\n    /* \"#utility.yul\":2709:2712   */\n  dup5\n    /* \"#utility.yul\":2701:2707   */\n  dup3\n    /* \"#utility.yul\":2694:2698   */\n  0x20\n    /* \"#utility.yul\":2686:2692   */\n  dup7\n    /* \"#utility.yul\":2682:2699   */\n  add\n    /* \"#utility.yul\":2623:2713   */\n  tag_36\n  jump\t// in\ntag_76:\n    /* \"#utility.yul\":2614:2713   */\n  swap2\n  pop\n    /* \"#utility.yul\":2437:2719   */\n  pop\n    /* \"#utility.yul\":2364:2719   */\n  swap3\n  swap2\n  pop\n  pop\n  jump\t// out\n    /* \"#utility.yul\":2725:2851   */\ntag_38:\n    /* \"#utility.yul\":2762:2769   */\n  0x00\n    /* \"#utility.yul\":2802:2844   */\n  0xffffffffffffffffffffffffffffffffffffffff\n    /* \"#utility.yul\":2795:2800   */\n  dup3\n    /* \"#utility.yul\":2791:2845   */\n  and\n    /* \"#utility.yul\":2780:2845   */\n  swap1\n  pop\n    /* \"#utility.yul\":2725:2851   */\n  swap2\n  swap1\n  pop\n  jump\t// out\n    /* \"#utility.yul\":2857:2953   */\ntag_39:\n    /* \"#utility.yul\":2894:2901   */\n  0x00\n    /* \"#utility.yul\":2923:2947   */\n  tag_79\n    /* \"#utility.yul\":2941:2946   */\n  dup3\n    /* \"#utility.yul\":2923:2947   */\n  tag_38\n  jump\t// in\ntag_79:\n    /* \"#utility.yul\":2912:2947   */\n  swap1\n  pop\n    /* \"#utility.yul\":2857:2953   */\n  swap2\n  swap1\n  pop\n  jump\t// out\n    /* \"#utility.yul\":2959:3081   */\ntag_40:\n    /* \"#utility.yul\":3032:3056   */\n  tag_81\n    /* \"#utility.yul\":3050:3055   */\n  dup2\n    /* \"#utility.yul\":3032:3056   */\n  tag_39\n  jump\t// in\ntag_81:\n    /* \"#utility.yul\":3025:3030   */\n  dup2\n    /* \"#utility.yul\":3022:3057   */\n  eq\n    /* \"#utility.yul\":3012:3075   */\n  tag_82\n  jumpi\n    /* \"#utility.yul\":3071:3072   */\n  0x00\n    /* \"#utility.yul\":3068:3069   */\n  dup1\n    /* \"#utility.yul\":3061:3073   */\n  revert\n    /* \"#utility.yul\":3012:3075   */\ntag_82:\n    /* \"#utility.yul\":2959:3081   */\n  pop\n  jump\t// out\n    /* \"#utility.yul\":3087:3230   */\ntag_41:\n    /* \"#utility.yul\":3144:3149   */\n  0x00\n    /* \"#utility.yul\":3175:3181   */\n  dup2\n    /* \"#utility.yul\":3169:3182   */\n  mload\n    /* \"#utility.yul\":3160:3182   */\n  swap1\n  pop\n    /* \"#utility.yul\":3191:3224   */\n  tag_84\n    /* \"#utility.yul\":3218:3223   */\n  dup2\n    /* \"#utility.yul\":3191:3224   */\n  tag_40\n  jump\t// in\ntag_84:\n    /* \"#utility.yul\":3087:3230   */\n  swap3\n  swap2\n  pop\n  pop\n  jump\t// out\n    /* \"#utility.yul\":3236:4245   */\ntag_3:\n    /* \"#utility.yul\":3344:3350   */\n  0x00\n    /* \"#utility.yul\":3352:3358   */\n  dup1\n    /* \"#utility.yul\":3360:3366   */\n  0x00\n    /* \"#utility.yul\":3409:3411   */\n  0x60\n    /* \"#utility.yul\":3397:3406   */\n  dup5\n    /* \"#utility.yul\":3388:3395   */\n  dup7\n    /* \"#utility.yul\":3384:3407   */\n  sub\n    /* \"#utility.yul\":3380:3412   */\n  slt\n    /* \"#utility.yul\":3377:3496   */\n  iszero\n  tag_86\n  jumpi\n    /* \"#utility.yul\":3415:3494   */\n  tag_87\n  tag_26\n  jump\t// in\ntag_87:\n    /* \"#utility.yul\":3377:3496   */\ntag_86:\n    /* \"#utility.yul\":3556:3557   */\n  0x00\n    /* \"#utility.yul\":3545:3554   */\n  dup5\n    /* \"#utility.yul\":3541:3558   */\n  add\n    /* \"#utility.yul\":3535:3559   */\n  mload\n    /* \"#utility.yul\":3586:3604   */\n  0xffffffffffffffff\n    /* \"#utility.yul\":3578:3584   */\n  dup2\n    /* \"#utility.yul\":3575:3605   */\n  gt\n    /* \"#utility.yul\":3572:3689   */\n  iszero\n  tag_88\n  jumpi\n    /* \"#utility.yul\":3608:3687   */\n  tag_89\n  tag_27\n  jump\t// in\ntag_89:\n    /* \"#utility.yul\":3572:3689   */\ntag_88:\n    /* \"#utility.yul\":3713:3787   */\n  tag_90\n    /* \"#utility.yul\":3779:3786   */\n  dup7\n    /* \"#utility.yul\":3770:3776   */\n  dup3\n    /* \"#utility.yul\":3759:3768   */\n  dup8\n    /* \"#utility.yul\":3755:3777   */\n  add\n    /* \"#utility.yul\":3713:3787   */\n  tag_37\n  jump\t// in\ntag_90:\n    /* \"#utility.yul\":3703:3787   */\n  swap4\n  pop\n    /* \"#utility.yul\":3506:3797   */\n  pop\n    /* \"#utility.yul\":3836:3838   */\n  0x20\n    /* \"#utility.yul\":3862:3926   */\n  tag_91\n    /* \"#utility.yul\":3918:3925   */\n  dup7\n    /* \"#utility.yul\":3909:3915   */\n  dup3\n    /* \"#utility.yul\":3898:3907   */\n  dup8\n    /* \"#utility.yul\":3894:3916   */\n  add\n    /* \"#utility.yul\":3862:3926   */\n  tag_41\n  jump\t// in\ntag_91:\n    /* \"#utility.yul\":3852:3926   */\n  swap3\n  pop\n    /* \"#utility.yul\":3807:3936   */\n  pop\n    /* \"#utility.yul\":3996:3998   */\n  0x40\n    /* \"#utility.yul\":3985:3994   */\n  dup5\n    /* \"#utility.yul\":3981:3999   */\n  add\n    /* \"#utility.yul\":3975:4000   */\n  mload\n    /* \"#utility.yul\":4027:4045   */\n  0xffffffffffffffff\n    /* \"#utility.yul\":4019:4025   */\n  dup2\n    /* \"#utility.yul\":4016:4046   */\n  gt\n    /* \"#utility.yul\":4013:4130   */\n  iszero\n  tag_92\n  jumpi\n    /* \"#utility.yul\":4049:4128   */\n  tag_93\n  tag_27\n  jump\t// in\ntag_93:\n    /* \"#utility.yul\":4013:4130   */\ntag_92:\n    /* \"#utility.yul\":4154:4228   */\n  tag_94\n    /* \"#utility.yul\":4220:4227   */\n  dup7\n    /* \"#utility.yul\":4211:4217   */\n  dup3\n    /* \"#utility.yul\":4200:4209   */\n  dup8\n    /* \"#utility.yul\":4196:4218   */\n  add\n    /* \"#utility.yul\":4154:4228   */\n  tag_37\n  jump\t// in\ntag_94:\n    /* \"#utility.yul\":4144:4228   */\n  swap2\n  pop\n    /* \"#utility.yul\":3946:4238   */\n  pop\n    /* \"#utility.yul\":3236:4245   */\n  swap3\n  pop\n  swap3\n  pop\n  swap3\n  jump\t// out\n    /* \"#utility.yul\":4251:4431   */\ntag_10:\n    /* \"#utility.yul\":4299:4376   */\n  0x4e487b7100000000000000000000000000000000000000000000000000000000\n    /* \"#utility.yul\":4296:4297   */\n  0x00\n    /* \"#utility.yul\":4289:4377   */\n  mstore\n    /* \"#utility.yul\":4396:4400   */\n  0x21\n    /* \"#utility.yul\":4393:4394   */\n  0x04\n    /* \"#utility.yul\":4386:4401   */\n  mstore\n    /* \"#utility.yul\":4420:4424   */\n  0x24\n    /* \"#utility.yul\":4417:4418   */\n  0x00\n    /* \"#utility.yul\":4410:4425   */\n  revert\n    /* \"#utility.yul\":4437:4617   */\ntag_42:\n    /* \"#utility.yul\":4485:4562   */\n  0x4e487b7100000000000000000000000000000000000000000000000000000000\n    /* \"#utility.yul\":4482:4483   */\n  0x00\n    /* \"#utility.yul\":4475:4563   */\n  mstore\n    /* \"#utility.yul\":4582:4586   */\n  0x22\n    /* \"#utility.yul\":4579:4580   */\n  0x04\n    /* \"#utility.yul\":4572:4587   */\n  mstore\n    /* \"#utility.yul\":4606:4610   */\n  0x24\n    /* \"#utility.yul\":4603:4604   */\n  0x00\n    /* \"#utility.yul\":4596:4611   */\n  revert\n    /* \"#utility.yul\":4623:4943   */\ntag_15:\n    /* \"#utility.yul\":4667:4673   */\n  0x00\n    /* \"#utility.yul\":4704:4705   */\n  0x02\n    /* \"#utility.yul\":4698:4702   */\n  dup3\n    /* \"#utility.yul\":4694:4706   */\n  div\n    /* \"#utility.yul\":4684:4706   */\n  swap1\n  pop\n    /* \"#utility.yul\":4751:4752   */\n  0x01\n    /* \"#utility.yul\":4745:4749   */\n  dup3\n    /* \"#utility.yul\":4741:4753   */\n  and\n    /* \"#utility.yul\":4772:4790   */\n  dup1\n    /* \"#utility.yul\":4762:4843   */\n  tag_98\n  jumpi\n    /* \"#utility.yul\":4828:4832   */\n  0x7f\n    /* \"#utility.yul\":4820:4826   */\n  dup3\n    /* \"#utility.yul\":4816:4833   */\n  and\n    /* \"#utility.yul\":4806:4833   */\n  swap2\n  pop\n    /* \"#utility.yul\":4762:4843   */\ntag_98:\n    /* \"#utility.yul\":4890:4892   */\n  0x20\n    /* \"#utility.yul\":4882:4888   */\n  dup3\n    /* \"#utility.yul\":4879:4893   */\n  lt\n    /* \"#utility.yul\":4859:4877   */\n  dup2\n    /* \"#utility.yul\":4856:4894   */\n  sub\n    /* \"#utility.yul\":4853:4937   */\n  tag_99\n  jumpi\n    /* \"#utility.yul\":4909:4927   */\n  tag_100\n  tag_42\n  jump\t// in\ntag_100:\n    /* \"#utility.yul\":4853:4937   */\ntag_99:\n    /* \"#utility.yul\":4674:4943   */\n  pop\n    /* \"#utility.yul\":4623:4943   */\n  swap2\n  swap1\n  pop\n  jump\t// out\n    /* \"E-timetable.sol\":76:7962  contract Calendar{... */\ntag_13:\n  dataSize(sub_0)\n  dup1\n  dataOffset(sub_0)\n  0x00\n  codecopy\n  0x00\n  return\nstop\n\nsub_0: assembly {\n        /* \"E-timetable.sol\":76:7962  contract Calendar{... */\n      mstore(0x40, 0x80)\n      callvalue\n      dup1\n      iszero\n      tag_1\n      jumpi\n      0x00\n      dup1\n      revert\n    tag_1:\n      pop\n      jumpi(tag_2, lt(calldatasize, 0x04))\n      shr(0xe0, calldataload(0x00))\n      dup1\n      0x9a342388\n      gt\n      tag_15\n      jumpi\n      dup1\n      0x9a342388\n      eq\n      tag_9\n      jumpi\n      dup1\n      0xa3fbbaae\n      eq\n      tag_10\n      jumpi\n      dup1\n      0xa4af98be\n      eq\n      tag_11\n      jumpi\n      dup1\n      0xb0a7c296\n      eq\n      tag_12\n      jumpi\n      dup1\n      0xe71a85f5\n      eq\n      tag_13\n      jumpi\n      dup1\n      0xea2fc905\n      eq\n      tag_14\n      jumpi\n      jump(tag_2)\n    tag_15:\n      dup1\n      0x10321ce2\n      eq\n      tag_3\n      jumpi\n      dup1\n      0x2ae99bcf\n      eq\n      tag_4\n      jumpi\n      dup1\n      0x439998d0\n      eq\n      tag_5\n      jumpi\n      dup1\n      0x481c6a75\n      eq\n      tag_6\n      jumpi\n      dup1\n      0x6e9c691a\n      eq\n      tag_7\n      jumpi\n      dup1\n      0x705d862a\n      eq\n      tag_8\n      jumpi\n    tag_2:\n      0x00\n      dup1\n      revert\n        /* \"E-timetable.sol\":4130:4837  function updateEvent(uint monthTimestamp, uint index, uint eventStartTimestamp, uint eventEndTimestamp, ... */\n    tag_3:\n      tag_16\n      0x04\n      dup1\n      calldatasize\n      sub\n      dup2\n      add\n      swap1\n      tag_17\n      swap2\n      swap1\n      tag_18\n      jump\t// in\n    tag_17:\n      tag_19\n      jump\t// in\n    tag_16:\n      stop\n        /* \"E-timetable.sol\":5500:5668  function updateCalendarTitle(string memory title, address[2] memory cooperatorAddress) public adminRestricted(cooperatorAddress){... */\n    tag_4:\n      tag_20\n      0x04\n      dup1\n      calldatasize\n      sub\n      dup2\n      add\n      swap1\n      tag_21\n      swap2\n      swap1\n      tag_22\n      jump\t// in\n    tag_21:\n      tag_23\n      jump\t// in\n    tag_20:\n      stop\n        /* \"E-timetable.sol\":5292:5462  function getCalendarTitle(address[2] memory cooperatorAddress) public view viewRestricted(cooperatorAddress) returns(string memory){... */\n    tag_5:\n      tag_24\n      0x04\n      dup1\n      calldatasize\n      sub\n      dup2\n      add\n      swap1\n      tag_25\n      swap2\n      swap1\n      tag_26\n      jump\t// in\n    tag_25:\n      tag_27\n      jump\t// in\n    tag_24:\n      mload(0x40)\n      tag_28\n      swap2\n      swap1\n      tag_29\n      jump\t// in\n    tag_28:\n      mload(0x40)\n      dup1\n      swap2\n      sub\n      swap1\n      return\n        /* \"E-timetable.sol\":481:503  address public manager */\n    tag_6:\n      tag_30\n      tag_31\n      jump\t// in\n    tag_30:\n      mload(0x40)\n      tag_32\n      swap2\n      swap1\n      tag_33\n      jump\t// in\n    tag_32:\n      mload(0x40)\n      dup1\n      swap2\n      sub\n      swap1\n      return\n        /* \"E-timetable.sol\":2663:4101  function getEvents(uint monthTimestamp, address[2] memory cooperatorAddress) public view viewRestricted(cooperatorAddress)... */\n    tag_7:\n      tag_34\n      0x04\n      dup1\n      calldatasize\n      sub\n      dup2\n      add\n      swap1\n      tag_35\n      swap2\n      swap1\n      tag_36\n      jump\t// in\n    tag_35:\n      tag_37\n      jump\t// in\n    tag_34:\n      mload(0x40)\n      tag_38\n      swap8\n      swap7\n      swap6\n      swap5\n      swap4\n      swap3\n      swap2\n      swap1\n      tag_39\n      jump\t// in\n    tag_38:\n      mload(0x40)\n      dup1\n      swap2\n      sub\n      swap1\n      return\n        /* \"E-timetable.sol\":1988:2636  function addEvent(uint monthTimestamp, uint eventStartTimestamp, uint eventEndTimestamp, string memory title, string memory color,... */\n    tag_8:\n      tag_40\n      0x04\n      dup1\n      calldatasize\n      sub\n      dup2\n      add\n      swap1\n      tag_41\n      swap2\n      swap1\n      tag_42\n      jump\t// in\n    tag_41:\n      tag_43\n      jump\t// in\n    tag_40:\n      stop\n        /* \"E-timetable.sol\":6529:7144  function getCooperators(address[2] memory cooperatorAddress) public view viewRestricted(cooperatorAddress) returns(address[] memory _cooperators, string[] memory names, uint[] memory permissions){... */\n    tag_9:\n      tag_44\n      0x04\n      dup1\n      calldatasize\n      sub\n      dup2\n      add\n      swap1\n      tag_45\n      swap2\n      swap1\n      tag_26\n      jump\t// in\n    tag_45:\n      tag_46\n      jump\t// in\n    tag_44:\n      mload(0x40)\n      tag_47\n      swap4\n      swap3\n      swap2\n      swap1\n      tag_48\n      jump\t// in\n    tag_47:\n      mload(0x40)\n      dup1\n      swap2\n      sub\n      swap1\n      return\n        /* \"E-timetable.sol\":5716:6069  function changeManager(address newManager) public{... */\n    tag_10:\n      tag_49\n      0x04\n      dup1\n      calldatasize\n      sub\n      dup2\n      add\n      swap1\n      tag_50\n      swap2\n      swap1\n      tag_51\n      jump\t// in\n    tag_50:\n      tag_52\n      jump\t// in\n    tag_49:\n      stop\n        /* \"E-timetable.sol\":4866:5257  function deleteEvent(uint monthTimestamp, uint index, address[2] memory cooperatorAddress) public editRestricted(cooperatorAddress){... */\n    tag_11:\n      tag_53\n      0x04\n      dup1\n      calldatasize\n      sub\n      dup2\n      add\n      swap1\n      tag_54\n      swap2\n      swap1\n      tag_55\n      jump\t// in\n    tag_54:\n      tag_56\n      jump\t// in\n    tag_53:\n      stop\n        /* \"E-timetable.sol\":7187:7560  function deleteCooperator(uint index, address cooperator, address[2] memory cooperatorAddress) public adminRestricted(cooperatorAddress){... */\n    tag_12:\n      tag_57\n      0x04\n      dup1\n      calldatasize\n      sub\n      dup2\n      add\n      swap1\n      tag_58\n      swap2\n      swap1\n      tag_59\n      jump\t// in\n    tag_58:\n      tag_60\n      jump\t// in\n    tag_57:\n      stop\n        /* \"E-timetable.sol\":6130:6497  function addCooperator(address coopAddress, uint permission, string memory name, address[2] memory cooperatorAddress) public adminRestricted(cooperatorAddress){... */\n    tag_13:\n      tag_61\n      0x04\n      dup1\n      calldatasize\n      sub\n      dup2\n      add\n      swap1\n      tag_62\n      swap2\n      swap1\n      tag_63\n      jump\t// in\n    tag_62:\n      tag_64\n      jump\t// in\n    tag_61:\n      stop\n        /* \"E-timetable.sol\":7621:7959  function updateCooperator(address cooperator, string memory name, uint permission, address[2] memory cooperatorAddress) public adminRestricted(cooperatorAddress){... */\n    tag_14:\n      tag_65\n      0x04\n      dup1\n      calldatasize\n      sub\n      dup2\n      add\n      swap1\n      tag_66\n      swap2\n      swap1\n      tag_67\n      jump\t// in\n    tag_66:\n      tag_68\n      jump\t// in\n    tag_65:\n      stop\n        /* \"E-timetable.sol\":4130:4837  function updateEvent(uint monthTimestamp, uint index, uint eventStartTimestamp, uint eventEndTimestamp, ... */\n    tag_19:\n        /* \"E-timetable.sol\":4382:4399  cooperatorAddress */\n      dup1\n        /* \"E-timetable.sol\":1109:1156  checkAccess(cooperatorAddress, Permission.EDIT) */\n      tag_70\n        /* \"E-timetable.sol\":1121:1138  cooperatorAddress */\n      dup2\n        /* \"E-timetable.sol\":1140:1155  Permission.EDIT */\n      0x02\n        /* \"E-timetable.sol\":1109:1120  checkAccess */\n      tag_71\n        /* \"E-timetable.sol\":1109:1156  checkAccess(cooperatorAddress, Permission.EDIT) */\n      jump\t// in\n    tag_70:\n        /* \"E-timetable.sol\":1101:1157  require(checkAccess(cooperatorAddress, Permission.EDIT)) */\n      tag_72\n      jumpi\n      0x00\n      dup1\n      revert\n    tag_72:\n        /* \"E-timetable.sol\":4473:4494  Event memory newEvent */\n      0x00\n        /* \"E-timetable.sol\":4497:4742  Event({... */\n      mload(0x40)\n      dup1\n      0xc0\n      add\n      0x40\n      mstore\n      dup1\n        /* \"E-timetable.sol\":4535:4554  eventStartTimestamp */\n      dup10\n        /* \"E-timetable.sol\":4497:4742  Event({... */\n      dup2\n      mstore\n      0x20\n      add\n        /* \"E-timetable.sol\":4583:4600  eventEndTimestamp */\n      dup9\n        /* \"E-timetable.sol\":4497:4742  Event({... */\n      dup2\n      mstore\n      0x20\n      add\n        /* \"E-timetable.sol\":4623:4628  title */\n      dup8\n        /* \"E-timetable.sol\":4497:4742  Event({... */\n      dup2\n      mstore\n      0x20\n      add\n        /* \"E-timetable.sol\":4650:4655  color */\n      dup6\n        /* \"E-timetable.sol\":4497:4742  Event({... */\n      dup2\n      mstore\n      0x20\n      add\n        /* \"E-timetable.sol\":4683:4694  description */\n      dup7\n        /* \"E-timetable.sol\":4497:4742  Event({... */\n      dup2\n      mstore\n      0x20\n      add\n        /* \"E-timetable.sol\":4720:4730  msg.sender */\n      caller\n        /* \"E-timetable.sol\":4497:4742  Event({... */\n      0xffffffffffffffffffffffffffffffffffffffff\n      and\n      dup2\n      mstore\n      pop\n        /* \"E-timetable.sol\":4473:4742  Event memory newEvent = Event({... */\n      swap1\n      pop\n        /* \"E-timetable.sol\":4821:4829  newEvent */\n      dup1\n        /* \"E-timetable.sol\":4789:4795  events */\n      0x00\n        /* \"E-timetable.sol\":4789:4811  events[monthTimestamp] */\n      dup1\n        /* \"E-timetable.sol\":4796:4810  monthTimestamp */\n      dup13\n        /* \"E-timetable.sol\":4789:4811  events[monthTimestamp] */\n      dup2\n      mstore\n      0x20\n      add\n      swap1\n      dup2\n      mstore\n      0x20\n      add\n      0x00\n      keccak256\n        /* \"E-timetable.sol\":4812:4817  index */\n      dup11\n        /* \"E-timetable.sol\":4789:4818  events[monthTimestamp][index] */\n      dup2\n      sload\n      dup2\n      lt\n      tag_74\n      jumpi\n      tag_75\n      tag_76\n      jump\t// in\n    tag_75:\n    tag_74:\n      swap1\n      0x00\n      mstore\n      keccak256(0x00, 0x20)\n      swap1\n      0x06\n      mul\n      add\n        /* \"E-timetable.sol\":4789:4829  events[monthTimestamp][index] = newEvent */\n      0x00\n      dup3\n      add\n      mload\n      dup2\n      0x00\n      add\n      sstore\n      0x20\n      dup3\n      add\n      mload\n      dup2\n      0x01\n      add\n      sstore\n      0x40\n      dup3\n      add\n      mload\n      dup2\n      0x02\n      add\n      swap1\n      dup1\n      mload\n      swap1\n      0x20\n      add\n      swap1\n      tag_78\n      swap3\n      swap2\n      swap1\n      tag_79\n      jump\t// in\n    tag_78:\n      pop\n      0x60\n      dup3\n      add\n      mload\n      dup2\n      0x03\n      add\n      swap1\n      dup1\n      mload\n      swap1\n      0x20\n      add\n      swap1\n      tag_80\n      swap3\n      swap2\n      swap1\n      tag_79\n      jump\t// in\n    tag_80:\n      pop\n      0x80\n      dup3\n      add\n      mload\n      dup2\n      0x04\n      add\n      swap1\n      dup1\n      mload\n      swap1\n      0x20\n      add\n      swap1\n      tag_81\n      swap3\n      swap2\n      swap1\n      tag_79\n      jump\t// in\n    tag_81:\n      pop\n      0xa0\n      dup3\n      add\n      mload\n      dup2\n      0x05\n      add\n      exp(0x0100, 0x00)\n      dup2\n      sload\n      dup2\n      0xffffffffffffffffffffffffffffffffffffffff\n      mul\n      not\n      and\n      swap1\n      dup4\n      0xffffffffffffffffffffffffffffffffffffffff\n      and\n      mul\n      or\n      swap1\n      sstore\n      pop\n      swap1\n      pop\n      pop\n        /* \"E-timetable.sol\":4400:4837  {... */\n      pop\n        /* \"E-timetable.sol\":4130:4837  function updateEvent(uint monthTimestamp, uint index, uint eventStartTimestamp, uint eventEndTimestamp, ... */\n      pop\n      pop\n      pop\n      pop\n      pop\n      pop\n      pop\n      pop\n      pop\n      jump\t// out\n        /* \"E-timetable.sol\":5500:5668  function updateCalendarTitle(string memory title, address[2] memory cooperatorAddress) public adminRestricted(cooperatorAddress){... */\n    tag_23:\n        /* \"E-timetable.sol\":5610:5627  cooperatorAddress */\n      dup1\n        /* \"E-timetable.sol\":798:846  checkAccess(cooperatorAddress, Permission.ADMIN) */\n      tag_83\n        /* \"E-timetable.sol\":810:827  cooperatorAddress */\n      dup2\n        /* \"E-timetable.sol\":829:845  Permission.ADMIN */\n      0x03\n        /* \"E-timetable.sol\":798:809  checkAccess */\n      tag_71\n        /* \"E-timetable.sol\":798:846  checkAccess(cooperatorAddress, Permission.ADMIN) */\n      jump\t// in\n    tag_83:\n        /* \"E-timetable.sol\":790:847  require(checkAccess(cooperatorAddress, Permission.ADMIN)) */\n      tag_84\n      jumpi\n      0x00\n      dup1\n      revert\n    tag_84:\n        /* \"E-timetable.sol\":5655:5660  title */\n      dup3\n        /* \"E-timetable.sol\":5639:5652  calendarTitle */\n      0x02\n        /* \"E-timetable.sol\":5639:5660  calendarTitle = title */\n      swap1\n      dup1\n      mload\n      swap1\n      0x20\n      add\n      swap1\n      tag_86\n      swap3\n      swap2\n      swap1\n      tag_79\n      jump\t// in\n    tag_86:\n      pop\n        /* \"E-timetable.sol\":5500:5668  function updateCalendarTitle(string memory title, address[2] memory cooperatorAddress) public adminRestricted(cooperatorAddress){... */\n      pop\n      pop\n      pop\n      jump\t// out\n        /* \"E-timetable.sol\":5292:5462  function getCalendarTitle(address[2] memory cooperatorAddress) public view viewRestricted(cooperatorAddress) returns(string memory){... */\n    tag_27:\n        /* \"E-timetable.sol\":5409:5422  string memory */\n      0x60\n        /* \"E-timetable.sol\":5382:5399  cooperatorAddress */\n      dup2\n        /* \"E-timetable.sol\":954:1001  checkAccess(cooperatorAddress, Permission.VIEW) */\n      tag_88\n        /* \"E-timetable.sol\":966:983  cooperatorAddress */\n      dup2\n        /* \"E-timetable.sol\":985:1000  Permission.VIEW */\n      0x01\n        /* \"E-timetable.sol\":954:965  checkAccess */\n      tag_71\n        /* \"E-timetable.sol\":954:1001  checkAccess(cooperatorAddress, Permission.VIEW) */\n      jump\t// in\n    tag_88:\n        /* \"E-timetable.sol\":946:1002  require(checkAccess(cooperatorAddress, Permission.VIEW)) */\n      tag_89\n      jumpi\n      0x00\n      dup1\n      revert\n    tag_89:\n        /* \"E-timetable.sol\":5441:5454  calendarTitle */\n      0x02\n        /* \"E-timetable.sol\":5434:5454  return calendarTitle */\n      dup1\n      sload\n      tag_91\n      swap1\n      tag_92\n      jump\t// in\n    tag_91:\n      dup1\n      0x1f\n      add\n      0x20\n      dup1\n      swap2\n      div\n      mul\n      0x20\n      add\n      mload(0x40)\n      swap1\n      dup2\n      add\n      0x40\n      mstore\n      dup1\n      swap3\n      swap2\n      swap1\n      dup2\n      dup2\n      mstore\n      0x20\n      add\n      dup3\n      dup1\n      sload\n      tag_93\n      swap1\n      tag_92\n      jump\t// in\n    tag_93:\n      dup1\n      iszero\n      tag_94\n      jumpi\n      dup1\n      0x1f\n      lt\n      tag_95\n      jumpi\n      0x0100\n      dup1\n      dup4\n      sload\n      div\n      mul\n      dup4\n      mstore\n      swap2\n      0x20\n      add\n      swap2\n      jump(tag_94)\n    tag_95:\n      dup3\n      add\n      swap2\n      swap1\n      0x00\n      mstore\n      keccak256(0x00, 0x20)\n      swap1\n    tag_96:\n      dup2\n      sload\n      dup2\n      mstore\n      swap1\n      0x01\n      add\n      swap1\n      0x20\n      add\n      dup1\n      dup4\n      gt\n      tag_96\n      jumpi\n      dup3\n      swap1\n      sub\n      0x1f\n      and\n      dup3\n      add\n      swap2\n    tag_94:\n      pop\n      pop\n      pop\n      pop\n      pop\n      swap2\n      pop\n        /* \"E-timetable.sol\":5292:5462  function getCalendarTitle(address[2] memory cooperatorAddress) public view viewRestricted(cooperatorAddress) returns(string memory){... */\n      pop\n      swap2\n      swap1\n      pop\n      jump\t// out\n        /* \"E-timetable.sol\":481:503  address public manager */\n    tag_31:\n      0x01\n      0x00\n      swap1\n      sload\n      swap1\n      0x0100\n      exp\n      swap1\n      div\n      0xffffffffffffffffffffffffffffffffffffffff\n      and\n      dup2\n      jump\t// out\n        /* \"E-timetable.sol\":2663:4101  function getEvents(uint monthTimestamp, address[2] memory cooperatorAddress) public view viewRestricted(cooperatorAddress)... */\n    tag_37:\n        /* \"E-timetable.sol\":2807:2841  uint[] memory eventStartTimestamps */\n      0x60\n        /* \"E-timetable.sol\":2843:2875  uint[] memory eventEndTimestamps */\n      dup1\n        /* \"E-timetable.sol\":2891:2913  string[] memory titles */\n      0x60\n        /* \"E-timetable.sol\":2915:2937  string[] memory colors */\n      dup1\n        /* \"E-timetable.sol\":2939:2967  string[] memory descriptions */\n      0x60\n        /* \"E-timetable.sol\":2983:3010  address[] memory createdBys */\n      dup1\n        /* \"E-timetable.sol\":3012:3033  uint[] memory indexes */\n      0x60\n        /* \"E-timetable.sol\":2767:2784  cooperatorAddress */\n      dup8\n        /* \"E-timetable.sol\":954:1001  checkAccess(cooperatorAddress, Permission.VIEW) */\n      tag_98\n        /* \"E-timetable.sol\":966:983  cooperatorAddress */\n      dup2\n        /* \"E-timetable.sol\":985:1000  Permission.VIEW */\n      0x01\n        /* \"E-timetable.sol\":954:965  checkAccess */\n      tag_71\n        /* \"E-timetable.sol\":954:1001  checkAccess(cooperatorAddress, Permission.VIEW) */\n      jump\t// in\n    tag_98:\n        /* \"E-timetable.sol\":946:1002  require(checkAccess(cooperatorAddress, Permission.VIEW)) */\n      tag_99\n      jumpi\n      0x00\n      dup1\n      revert\n    tag_99:\n        /* \"E-timetable.sol\":3099:3144  Event[] memory eventsInProvidedMonthTimestamp */\n      0x00\n        /* \"E-timetable.sol\":3147:3153  events */\n      dup1\n        /* \"E-timetable.sol\":3147:3169  events[monthTimestamp] */\n      0x00\n        /* \"E-timetable.sol\":3154:3168  monthTimestamp */\n      dup13\n        /* \"E-timetable.sol\":3147:3169  events[monthTimestamp] */\n      dup2\n      mstore\n      0x20\n      add\n      swap1\n      dup2\n      mstore\n      0x20\n      add\n      0x00\n      keccak256\n        /* \"E-timetable.sol\":3099:3169  Event[] memory eventsInProvidedMonthTimestamp = events[monthTimestamp] */\n      dup1\n      sload\n      dup1\n      0x20\n      mul\n      0x20\n      add\n      mload(0x40)\n      swap1\n      dup2\n      add\n      0x40\n      mstore\n      dup1\n      swap3\n      swap2\n      swap1\n      dup2\n      dup2\n      mstore\n      0x20\n      add\n      0x00\n      swap1\n    tag_101:\n      dup3\n      dup3\n      lt\n      iszero\n      tag_102\n      jumpi\n      dup4\n      dup3\n      swap1\n      0x00\n      mstore\n      keccak256(0x00, 0x20)\n      swap1\n      0x06\n      mul\n      add\n      mload(0x40)\n      dup1\n      0xc0\n      add\n      0x40\n      mstore\n      swap1\n      dup2\n      0x00\n      dup3\n      add\n      sload\n      dup2\n      mstore\n      0x20\n      add\n      0x01\n      dup3\n      add\n      sload\n      dup2\n      mstore\n      0x20\n      add\n      0x02\n      dup3\n      add\n      dup1\n      sload\n      tag_104\n      swap1\n      tag_92\n      jump\t// in\n    tag_104:\n      dup1\n      0x1f\n      add\n      0x20\n      dup1\n      swap2\n      div\n      mul\n      0x20\n      add\n      mload(0x40)\n      swap1\n      dup2\n      add\n      0x40\n      mstore\n      dup1\n      swap3\n      swap2\n      swap1\n      dup2\n      dup2\n      mstore\n      0x20\n      add\n      dup3\n      dup1\n      sload\n      tag_105\n      swap1\n      tag_92\n      jump\t// in\n    tag_105:\n      dup1\n      iszero\n      tag_106\n      jumpi\n      dup1\n      0x1f\n      lt\n      tag_107\n      jumpi\n      0x0100\n      dup1\n      dup4\n      sload\n      div\n      mul\n      dup4\n      mstore\n      swap2\n      0x20\n      add\n      swap2\n      jump(tag_106)\n    tag_107:\n      dup3\n      add\n      swap2\n      swap1\n      0x00\n      mstore\n      keccak256(0x00, 0x20)\n      swap1\n    tag_108:\n      dup2\n      sload\n      dup2\n      mstore\n      swap1\n      0x01\n      add\n      swap1\n      0x20\n      add\n      dup1\n      dup4\n      gt\n      tag_108\n      jumpi\n      dup3\n      swap1\n      sub\n      0x1f\n      and\n      dup3\n      add\n      swap2\n    tag_106:\n      pop\n      pop\n      pop\n      pop\n      pop\n      dup2\n      mstore\n      0x20\n      add\n      0x03\n      dup3\n      add\n      dup1\n      sload\n      tag_109\n      swap1\n      tag_92\n      jump\t// in\n    tag_109:\n      dup1\n      0x1f\n      add\n      0x20\n      dup1\n      swap2\n      div\n      mul\n      0x20\n      add\n      mload(0x40)\n      swap1\n      dup2\n      add\n      0x40\n      mstore\n      dup1\n      swap3\n      swap2\n      swap1\n      dup2\n      dup2\n      mstore\n      0x20\n      add\n      dup3\n      dup1\n      sload\n      tag_110\n      swap1\n      tag_92\n      jump\t// in\n    tag_110:\n      dup1\n      iszero\n      tag_111\n      jumpi\n      dup1\n      0x1f\n      lt\n      tag_112\n      jumpi\n      0x0100\n      dup1\n      dup4\n      sload\n      div\n      mul\n      dup4\n      mstore\n      swap2\n      0x20\n      add\n      swap2\n      jump(tag_111)\n    tag_112:\n      dup3\n      add\n      swap2\n      swap1\n      0x00\n      mstore\n      keccak256(0x00, 0x20)\n      swap1\n    tag_113:\n      dup2\n      sload\n      dup2\n      mstore\n      swap1\n      0x01\n      add\n      swap1\n      0x20\n      add\n      dup1\n      dup4\n      gt\n      tag_113\n      jumpi\n      dup3\n      swap1\n      sub\n      0x1f\n      and\n      dup3\n      add\n      swap2\n    tag_111:\n      pop\n      pop\n      pop\n      pop\n      pop\n      dup2\n      mstore\n      0x20\n      add\n      0x04\n      dup3\n      add\n      dup1\n      sload\n      tag_114\n      swap1\n      tag_92\n      jump\t// in\n    tag_114:\n      dup1\n      0x1f\n      add\n      0x20\n      dup1\n      swap2\n      div\n      mul\n      0x20\n      add\n      mload(0x40)\n      swap1\n      dup2\n      add\n      0x40\n      mstore\n      dup1\n      swap3\n      swap2\n      swap1\n      dup2\n      dup2\n      mstore\n      0x20\n      add\n      dup3\n      dup1\n      sload\n      tag_115\n      swap1\n      tag_92\n      jump\t// in\n    tag_115:\n      dup1\n      iszero\n      tag_116\n      jumpi\n      dup1\n      0x1f\n      lt\n      tag_117\n      jumpi\n      0x0100\n      dup1\n      dup4\n      sload\n      div\n      mul\n      dup4\n      mstore\n      swap2\n      0x20\n      add\n      swap2\n      jump(tag_116)\n    tag_117:\n      dup3\n      add\n      swap2\n      swap1\n      0x00\n      mstore\n      keccak256(0x00, 0x20)\n      swap1\n    tag_118:\n      dup2\n      sload\n      dup2\n      mstore\n      swap1\n      0x01\n      add\n      swap1\n      0x20\n      add\n      dup1\n      dup4\n      gt\n      tag_118\n      jumpi\n      dup3\n      swap1\n      sub\n      0x1f\n      and\n      dup3\n      add\n      swap2\n    tag_116:\n      pop\n      pop\n      pop\n      pop\n      pop\n      dup2\n      mstore\n      0x20\n      add\n      0x05\n      dup3\n      add\n      0x00\n      swap1\n      sload\n      swap1\n      0x0100\n      exp\n      swap1\n      div\n      0xffffffffffffffffffffffffffffffffffffffff\n      and\n      0xffffffffffffffffffffffffffffffffffffffff\n      and\n      0xffffffffffffffffffffffffffffffffffffffff\n      and\n      dup2\n      mstore\n      pop\n      pop\n      dup2\n      mstore\n      0x20\n      add\n      swap1\n      0x01\n      add\n      swap1\n      jump(tag_101)\n    tag_102:\n      pop\n      pop\n      pop\n      pop\n      swap1\n      pop\n        /* \"E-timetable.sol\":3216:3225  uint size */\n      0x00\n        /* \"E-timetable.sol\":3228:3258  eventsInProvidedMonthTimestamp */\n      dup2\n        /* \"E-timetable.sol\":3228:3265  eventsInProvidedMonthTimestamp.length */\n      mload\n        /* \"E-timetable.sol\":3216:3265  uint size = eventsInProvidedMonthTimestamp.length */\n      swap1\n      pop\n        /* \"E-timetable.sol\":3318:3322  size */\n      dup1\n        /* \"E-timetable.sol\":3307:3323  new uint[](size) */\n      0xffffffffffffffff\n      dup2\n      gt\n      iszero\n      tag_119\n      jumpi\n      tag_120\n      tag_121\n      jump\t// in\n    tag_120:\n    tag_119:\n      mload(0x40)\n      swap1\n      dup1\n      dup3\n      mstore\n      dup1\n      0x20\n      mul\n      0x20\n      add\n      dup3\n      add\n      0x40\n      mstore\n      dup1\n      iszero\n      tag_122\n      jumpi\n      dup2\n      0x20\n      add\n      0x20\n      dup3\n      mul\n      dup1\n      calldatasize\n      dup4\n      calldatacopy\n      dup1\n      dup3\n      add\n      swap2\n      pop\n      pop\n      swap1\n      pop\n    tag_122:\n      pop\n        /* \"E-timetable.sol\":3284:3323  eventStartTimestamps = new uint[](size) */\n      swap10\n      pop\n        /* \"E-timetable.sol\":3356:3360  size */\n      dup1\n        /* \"E-timetable.sol\":3343:3361  new string[](size) */\n      0xffffffffffffffff\n      dup2\n      gt\n      iszero\n      tag_123\n      jumpi\n      tag_124\n      tag_121\n      jump\t// in\n    tag_124:\n    tag_123:\n      mload(0x40)\n      swap1\n      dup1\n      dup3\n      mstore\n      dup1\n      0x20\n      mul\n      0x20\n      add\n      dup3\n      add\n      0x40\n      mstore\n      dup1\n      iszero\n      tag_125\n      jumpi\n      dup2\n      0x20\n      add\n    tag_126:\n      0x60\n      dup2\n      mstore\n      0x20\n      add\n      swap1\n      0x01\n      swap1\n      sub\n      swap1\n      dup2\n      tag_126\n      jumpi\n      swap1\n      pop\n    tag_125:\n      pop\n        /* \"E-timetable.sol\":3334:3361  titles = new string[](size) */\n      swap8\n      pop\n        /* \"E-timetable.sol\":3400:3404  size */\n      dup1\n        /* \"E-timetable.sol\":3387:3405  new string[](size) */\n      0xffffffffffffffff\n      dup2\n      gt\n      iszero\n      tag_127\n      jumpi\n      tag_128\n      tag_121\n      jump\t// in\n    tag_128:\n    tag_127:\n      mload(0x40)\n      swap1\n      dup1\n      dup3\n      mstore\n      dup1\n      0x20\n      mul\n      0x20\n      add\n      dup3\n      add\n      0x40\n      mstore\n      dup1\n      iszero\n      tag_129\n      jumpi\n      dup2\n      0x20\n      add\n    tag_130:\n      0x60\n      dup2\n      mstore\n      0x20\n      add\n      swap1\n      0x01\n      swap1\n      sub\n      swap1\n      dup2\n      tag_130\n      jumpi\n      swap1\n      pop\n    tag_129:\n      pop\n        /* \"E-timetable.sol\":3372:3405  descriptions = new string[](size) */\n      swap6\n      pop\n        /* \"E-timetable.sol\":3438:3442  size */\n      dup1\n        /* \"E-timetable.sol\":3425:3443  new string[](size) */\n      0xffffffffffffffff\n      dup2\n      gt\n      iszero\n      tag_131\n      jumpi\n      tag_132\n      tag_121\n      jump\t// in\n    tag_132:\n    tag_131:\n      mload(0x40)\n      swap1\n      dup1\n      dup3\n      mstore\n      dup1\n      0x20\n      mul\n      0x20\n      add\n      dup3\n      add\n      0x40\n      mstore\n      dup1\n      iszero\n      tag_133\n      jumpi\n      dup2\n      0x20\n      add\n    tag_134:\n      0x60\n      dup2\n      mstore\n      0x20\n      add\n      swap1\n      0x01\n      swap1\n      sub\n      swap1\n      dup2\n      tag_134\n      jumpi\n      swap1\n      pop\n    tag_133:\n      pop\n        /* \"E-timetable.sol\":3416:3443  colors = new string[](size) */\n      swap7\n      pop\n        /* \"E-timetable.sol\":3481:3485  size */\n      dup1\n        /* \"E-timetable.sol\":3467:3486  new address[](size) */\n      0xffffffffffffffff\n      dup2\n      gt\n      iszero\n      tag_135\n      jumpi\n      tag_136\n      tag_121\n      jump\t// in\n    tag_136:\n    tag_135:\n      mload(0x40)\n      swap1\n      dup1\n      dup3\n      mstore\n      dup1\n      0x20\n      mul\n      0x20\n      add\n      dup3\n      add\n      0x40\n      mstore\n      dup1\n      iszero\n      tag_137\n      jumpi\n      dup2\n      0x20\n      add\n      0x20\n      dup3\n      mul\n      dup1\n      calldatasize\n      dup4\n      calldatacopy\n      dup1\n      dup3\n      add\n      swap2\n      pop\n      pop\n      swap1\n      pop\n    tag_137:\n      pop\n        /* \"E-timetable.sol\":3454:3486  createdBys = new address[](size) */\n      swap5\n      pop\n        /* \"E-timetable.sol\":3518:3522  size */\n      dup1\n        /* \"E-timetable.sol\":3507:3523  new uint[](size) */\n      0xffffffffffffffff\n      dup2\n      gt\n      iszero\n      tag_138\n      jumpi\n      tag_139\n      tag_121\n      jump\t// in\n    tag_139:\n    tag_138:\n      mload(0x40)\n      swap1\n      dup1\n      dup3\n      mstore\n      dup1\n      0x20\n      mul\n      0x20\n      add\n      dup3\n      add\n      0x40\n      mstore\n      dup1\n      iszero\n      tag_140\n      jumpi\n      dup2\n      0x20\n      add\n      0x20\n      dup3\n      mul\n      dup1\n      calldatasize\n      dup4\n      calldatacopy\n      dup1\n      dup3\n      add\n      swap2\n      pop\n      pop\n      swap1\n      pop\n    tag_140:\n      pop\n        /* \"E-timetable.sol\":3497:3523  indexes = new uint[](size) */\n      swap4\n      pop\n        /* \"E-timetable.sol\":3574:3580  uint i */\n      0x00\n        /* \"E-timetable.sol\":3570:4094  for(uint i=0; i<size;i++){... */\n    tag_141:\n        /* \"E-timetable.sol\":3586:3590  size */\n      dup2\n        /* \"E-timetable.sol\":3584:3585  i */\n      dup2\n        /* \"E-timetable.sol\":3584:3590  i<size */\n      lt\n        /* \"E-timetable.sol\":3570:4094  for(uint i=0; i<size;i++){... */\n      iszero\n      tag_142\n      jumpi\n        /* \"E-timetable.sol\":3636:3666  eventsInProvidedMonthTimestamp */\n      dup3\n        /* \"E-timetable.sol\":3667:3668  i */\n      dup2\n        /* \"E-timetable.sol\":3636:3669  eventsInProvidedMonthTimestamp[i] */\n      dup2\n      mload\n      dup2\n      lt\n      tag_144\n      jumpi\n      tag_145\n      tag_76\n      jump\t// in\n    tag_145:\n    tag_144:\n      0x20\n      mul\n      0x20\n      add\n      add\n      mload\n        /* \"E-timetable.sol\":3636:3684  eventsInProvidedMonthTimestamp[i].startTimestamp */\n      0x00\n      add\n      mload\n        /* \"E-timetable.sol\":3610:3630  eventStartTimestamps */\n      dup12\n        /* \"E-timetable.sol\":3631:3632  i */\n      dup3\n        /* \"E-timetable.sol\":3610:3633  eventStartTimestamps[i] */\n      dup2\n      mload\n      dup2\n      lt\n      tag_146\n      jumpi\n      tag_147\n      tag_76\n      jump\t// in\n    tag_147:\n    tag_146:\n      0x20\n      mul\n      0x20\n      add\n      add\n        /* \"E-timetable.sol\":3610:3684  eventStartTimestamps[i] = eventsInProvidedMonthTimestamp[i].startTimestamp */\n      dup2\n      dup2\n      mstore\n      pop\n      pop\n        /* \"E-timetable.sol\":3723:3753  eventsInProvidedMonthTimestamp */\n      dup3\n        /* \"E-timetable.sol\":3754:3755  i */\n      dup2\n        /* \"E-timetable.sol\":3723:3756  eventsInProvidedMonthTimestamp[i] */\n      dup2\n      mload\n      dup2\n      lt\n      tag_148\n      jumpi\n      tag_149\n      tag_76\n      jump\t// in\n    tag_149:\n    tag_148:\n      0x20\n      mul\n      0x20\n      add\n      add\n      mload\n        /* \"E-timetable.sol\":3723:3769  eventsInProvidedMonthTimestamp[i].endTimestamp */\n      0x20\n      add\n      mload\n        /* \"E-timetable.sol\":3699:3717  eventEndTimestamps */\n      dup11\n        /* \"E-timetable.sol\":3718:3719  i */\n      dup3\n        /* \"E-timetable.sol\":3699:3720  eventEndTimestamps[i] */\n      dup2\n      mload\n      dup2\n      lt\n      tag_150\n      jumpi\n      tag_151\n      tag_76\n      jump\t// in\n    tag_151:\n    tag_150:\n      0x20\n      mul\n      0x20\n      add\n      add\n        /* \"E-timetable.sol\":3699:3769  eventEndTimestamps[i] = eventsInProvidedMonthTimestamp[i].endTimestamp */\n      dup2\n      dup2\n      mstore\n      pop\n      pop\n        /* \"E-timetable.sol\":3796:3826  eventsInProvidedMonthTimestamp */\n      dup3\n        /* \"E-timetable.sol\":3827:3828  i */\n      dup2\n        /* \"E-timetable.sol\":3796:3829  eventsInProvidedMonthTimestamp[i] */\n      dup2\n      mload\n      dup2\n      lt\n      tag_152\n      jumpi\n      tag_153\n      tag_76\n      jump\t// in\n    tag_153:\n    tag_152:\n      0x20\n      mul\n      0x20\n      add\n      add\n      mload\n        /* \"E-timetable.sol\":3796:3835  eventsInProvidedMonthTimestamp[i].title */\n      0x40\n      add\n      mload\n        /* \"E-timetable.sol\":3784:3790  titles */\n      dup10\n        /* \"E-timetable.sol\":3791:3792  i */\n      dup3\n        /* \"E-timetable.sol\":3784:3793  titles[i] */\n      dup2\n      mload\n      dup2\n      lt\n      tag_154\n      jumpi\n      tag_155\n      tag_76\n      jump\t// in\n    tag_155:\n    tag_154:\n      0x20\n      mul\n      0x20\n      add\n      add\n        /* \"E-timetable.sol\":3784:3835  titles[i] = eventsInProvidedMonthTimestamp[i].title */\n      dup2\n      swap1\n      mstore\n      pop\n        /* \"E-timetable.sol\":3868:3898  eventsInProvidedMonthTimestamp */\n      dup3\n        /* \"E-timetable.sol\":3899:3900  i */\n      dup2\n        /* \"E-timetable.sol\":3868:3901  eventsInProvidedMonthTimestamp[i] */\n      dup2\n      mload\n      dup2\n      lt\n      tag_156\n      jumpi\n      tag_157\n      tag_76\n      jump\t// in\n    tag_157:\n    tag_156:\n      0x20\n      mul\n      0x20\n      add\n      add\n      mload\n        /* \"E-timetable.sol\":3868:3913  eventsInProvidedMonthTimestamp[i].description */\n      0x80\n      add\n      mload\n        /* \"E-timetable.sol\":3850:3862  descriptions */\n      dup8\n        /* \"E-timetable.sol\":3863:3864  i */\n      dup3\n        /* \"E-timetable.sol\":3850:3865  descriptions[i] */\n      dup2\n      mload\n      dup2\n      lt\n      tag_158\n      jumpi\n      tag_159\n      tag_76\n      jump\t// in\n    tag_159:\n    tag_158:\n      0x20\n      mul\n      0x20\n      add\n      add\n        /* \"E-timetable.sol\":3850:3913  descriptions[i] = eventsInProvidedMonthTimestamp[i].description */\n      dup2\n      swap1\n      mstore\n      pop\n        /* \"E-timetable.sol\":3940:3970  eventsInProvidedMonthTimestamp */\n      dup3\n        /* \"E-timetable.sol\":3971:3972  i */\n      dup2\n        /* \"E-timetable.sol\":3940:3973  eventsInProvidedMonthTimestamp[i] */\n      dup2\n      mload\n      dup2\n      lt\n      tag_160\n      jumpi\n      tag_161\n      tag_76\n      jump\t// in\n    tag_161:\n    tag_160:\n      0x20\n      mul\n      0x20\n      add\n      add\n      mload\n        /* \"E-timetable.sol\":3940:3979  eventsInProvidedMonthTimestamp[i].color */\n      0x60\n      add\n      mload\n        /* \"E-timetable.sol\":3928:3934  colors */\n      dup9\n        /* \"E-timetable.sol\":3935:3936  i */\n      dup3\n        /* \"E-timetable.sol\":3928:3937  colors[i] */\n      dup2\n      mload\n      dup2\n      lt\n      tag_162\n      jumpi\n      tag_163\n      tag_76\n      jump\t// in\n    tag_163:\n    tag_162:\n      0x20\n      mul\n      0x20\n      add\n      add\n        /* \"E-timetable.sol\":3928:3979  colors[i] = eventsInProvidedMonthTimestamp[i].color */\n      dup2\n      swap1\n      mstore\n      pop\n        /* \"E-timetable.sol\":4010:4040  eventsInProvidedMonthTimestamp */\n      dup3\n        /* \"E-timetable.sol\":4041:4042  i */\n      dup2\n        /* \"E-timetable.sol\":4010:4043  eventsInProvidedMonthTimestamp[i] */\n      dup2\n      mload\n      dup2\n      lt\n      tag_164\n      jumpi\n      tag_165\n      tag_76\n      jump\t// in\n    tag_165:\n    tag_164:\n      0x20\n      mul\n      0x20\n      add\n      add\n      mload\n        /* \"E-timetable.sol\":4010:4053  eventsInProvidedMonthTimestamp[i].createdBy */\n      0xa0\n      add\n      mload\n        /* \"E-timetable.sol\":3994:4004  createdBys */\n      dup7\n        /* \"E-timetable.sol\":4005:4006  i */\n      dup3\n        /* \"E-timetable.sol\":3994:4007  createdBys[i] */\n      dup2\n      mload\n      dup2\n      lt\n      tag_166\n      jumpi\n      tag_167\n      tag_76\n      jump\t// in\n    tag_167:\n    tag_166:\n      0x20\n      mul\n      0x20\n      add\n      add\n        /* \"E-timetable.sol\":3994:4053  createdBys[i] = eventsInProvidedMonthTimestamp[i].createdBy */\n      swap1\n      0xffffffffffffffffffffffffffffffffffffffff\n      and\n      swap1\n      dup2\n      0xffffffffffffffffffffffffffffffffffffffff\n      and\n      dup2\n      mstore\n      pop\n      pop\n        /* \"E-timetable.sol\":4081:4082  i */\n      dup1\n        /* \"E-timetable.sol\":4068:4075  indexes */\n      dup6\n        /* \"E-timetable.sol\":4076:4077  i */\n      dup3\n        /* \"E-timetable.sol\":4068:4078  indexes[i] */\n      dup2\n      mload\n      dup2\n      lt\n      tag_168\n      jumpi\n      tag_169\n      tag_76\n      jump\t// in\n    tag_169:\n    tag_168:\n      0x20\n      mul\n      0x20\n      add\n      add\n        /* \"E-timetable.sol\":4068:4082  indexes[i] = i */\n      dup2\n      dup2\n      mstore\n      pop\n      pop\n        /* \"E-timetable.sol\":3591:3594  i++ */\n      dup1\n      dup1\n      tag_170\n      swap1\n      tag_171\n      jump\t// in\n    tag_170:\n      swap2\n      pop\n      pop\n        /* \"E-timetable.sol\":3570:4094  for(uint i=0; i<size;i++){... */\n      jump(tag_141)\n    tag_142:\n      pop\n        /* \"E-timetable.sol\":3035:4101  {... */\n      pop\n      pop\n        /* \"E-timetable.sol\":2663:4101  function getEvents(uint monthTimestamp, address[2] memory cooperatorAddress) public view viewRestricted(cooperatorAddress)... */\n      pop\n      swap3\n      swap6\n      swap9\n      swap2\n      swap5\n      swap8\n      pop\n      swap3\n      swap6\n      pop\n      jump\t// out\n        /* \"E-timetable.sol\":1988:2636  function addEvent(uint monthTimestamp, uint eventStartTimestamp, uint eventEndTimestamp, string memory title, string memory color,... */\n    tag_43:\n        /* \"E-timetable.sol\":2214:2231  cooperatorAddress */\n      dup1\n        /* \"E-timetable.sol\":1109:1156  checkAccess(cooperatorAddress, Permission.EDIT) */\n      tag_173\n        /* \"E-timetable.sol\":1121:1138  cooperatorAddress */\n      dup2\n        /* \"E-timetable.sol\":1140:1155  Permission.EDIT */\n      0x02\n        /* \"E-timetable.sol\":1109:1120  checkAccess */\n      tag_71\n        /* \"E-timetable.sol\":1109:1156  checkAccess(cooperatorAddress, Permission.EDIT) */\n      jump\t// in\n    tag_173:\n        /* \"E-timetable.sol\":1101:1157  require(checkAccess(cooperatorAddress, Permission.EDIT)) */\n      tag_174\n      jumpi\n      0x00\n      dup1\n      revert\n    tag_174:\n        /* \"E-timetable.sol\":2277:2298  Event memory newEvent */\n      0x00\n        /* \"E-timetable.sol\":2301:2546  Event({... */\n      mload(0x40)\n      dup1\n      0xc0\n      add\n      0x40\n      mstore\n      dup1\n        /* \"E-timetable.sol\":2339:2358  eventStartTimestamp */\n      dup10\n        /* \"E-timetable.sol\":2301:2546  Event({... */\n      dup2\n      mstore\n      0x20\n      add\n        /* \"E-timetable.sol\":2387:2404  eventEndTimestamp */\n      dup9\n        /* \"E-timetable.sol\":2301:2546  Event({... */\n      dup2\n      mstore\n      0x20\n      add\n        /* \"E-timetable.sol\":2427:2432  title */\n      dup8\n        /* \"E-timetable.sol\":2301:2546  Event({... */\n      dup2\n      mstore\n      0x20\n      add\n        /* \"E-timetable.sol\":2454:2459  color */\n      dup7\n        /* \"E-timetable.sol\":2301:2546  Event({... */\n      dup2\n      mstore\n      0x20\n      add\n        /* \"E-timetable.sol\":2487:2498  description */\n      dup6\n        /* \"E-timetable.sol\":2301:2546  Event({... */\n      dup2\n      mstore\n      0x20\n      add\n        /* \"E-timetable.sol\":2524:2534  msg.sender */\n      caller\n        /* \"E-timetable.sol\":2301:2546  Event({... */\n      0xffffffffffffffffffffffffffffffffffffffff\n      and\n      dup2\n      mstore\n      pop\n        /* \"E-timetable.sol\":2277:2546  Event memory newEvent = Event({... */\n      swap1\n      pop\n        /* \"E-timetable.sol\":2591:2597  events */\n      0x00\n        /* \"E-timetable.sol\":2591:2613  events[monthTimestamp] */\n      dup1\n        /* \"E-timetable.sol\":2598:2612  monthTimestamp */\n      dup11\n        /* \"E-timetable.sol\":2591:2613  events[monthTimestamp] */\n      dup2\n      mstore\n      0x20\n      add\n      swap1\n      dup2\n      mstore\n      0x20\n      add\n      0x00\n      keccak256\n        /* \"E-timetable.sol\":2619:2627  newEvent */\n      dup2\n        /* \"E-timetable.sol\":2591:2628  events[monthTimestamp].push(newEvent) */\n      swap1\n      dup1\n      0x01\n      dup2\n      sload\n      add\n      dup1\n      dup3\n      sstore\n      dup1\n      swap2\n      pop\n      pop\n      0x01\n      swap1\n      sub\n      swap1\n      0x00\n      mstore\n      keccak256(0x00, 0x20)\n      swap1\n      0x06\n      mul\n      add\n      0x00\n      swap1\n      swap2\n      swap1\n      swap2\n      swap1\n      swap2\n      pop\n      0x00\n      dup3\n      add\n      mload\n      dup2\n      0x00\n      add\n      sstore\n      0x20\n      dup3\n      add\n      mload\n      dup2\n      0x01\n      add\n      sstore\n      0x40\n      dup3\n      add\n      mload\n      dup2\n      0x02\n      add\n      swap1\n      dup1\n      mload\n      swap1\n      0x20\n      add\n      swap1\n      tag_177\n      swap3\n      swap2\n      swap1\n      tag_79\n      jump\t// in\n    tag_177:\n      pop\n      0x60\n      dup3\n      add\n      mload\n      dup2\n      0x03\n      add\n      swap1\n      dup1\n      mload\n      swap1\n      0x20\n      add\n      swap1\n      tag_178\n      swap3\n      swap2\n      swap1\n      tag_79\n      jump\t// in\n    tag_178:\n      pop\n      0x80\n      dup3\n      add\n      mload\n      dup2\n      0x04\n      add\n      swap1\n      dup1\n      mload\n      swap1\n      0x20\n      add\n      swap1\n      tag_179\n      swap3\n      swap2\n      swap1\n      tag_79\n      jump\t// in\n    tag_179:\n      pop\n      0xa0\n      dup3\n      add\n      mload\n      dup2\n      0x05\n      add\n      exp(0x0100, 0x00)\n      dup2\n      sload\n      dup2\n      0xffffffffffffffffffffffffffffffffffffffff\n      mul\n      not\n      and\n      swap1\n      dup4\n      0xffffffffffffffffffffffffffffffffffffffff\n      and\n      mul\n      or\n      swap1\n      sstore\n      pop\n      pop\n      pop\n        /* \"E-timetable.sol\":2232:2636  {... */\n      pop\n        /* \"E-timetable.sol\":1988:2636  function addEvent(uint monthTimestamp, uint eventStartTimestamp, uint eventEndTimestamp, string memory title, string memory color,... */\n      pop\n      pop\n      pop\n      pop\n      pop\n      pop\n      pop\n      pop\n      jump\t// out\n        /* \"E-timetable.sol\":6529:7144  function getCooperators(address[2] memory cooperatorAddress) public view viewRestricted(cooperatorAddress) returns(address[] memory _cooperators, string[] memory names, uint[] memory permissions){... */\n    tag_46:\n        /* \"E-timetable.sol\":6644:6673  address[] memory _cooperators */\n      0x60\n        /* \"E-timetable.sol\":6675:6696  string[] memory names */\n      dup1\n        /* \"E-timetable.sol\":6698:6723  uint[] memory permissions */\n      0x60\n        /* \"E-timetable.sol\":6617:6634  cooperatorAddress */\n      dup4\n        /* \"E-timetable.sol\":954:1001  checkAccess(cooperatorAddress, Permission.VIEW) */\n      tag_181\n        /* \"E-timetable.sol\":966:983  cooperatorAddress */\n      dup2\n        /* \"E-timetable.sol\":985:1000  Permission.VIEW */\n      0x01\n        /* \"E-timetable.sol\":954:965  checkAccess */\n      tag_71\n        /* \"E-timetable.sol\":954:1001  checkAccess(cooperatorAddress, Permission.VIEW) */\n      jump\t// in\n    tag_181:\n        /* \"E-timetable.sol\":946:1002  require(checkAccess(cooperatorAddress, Permission.VIEW)) */\n      tag_182\n      jumpi\n      0x00\n      dup1\n      revert\n    tag_182:\n        /* \"E-timetable.sol\":6769:6778  uint size */\n      0x00\n        /* \"E-timetable.sol\":6781:6792  cooperators */\n      0x03\n        /* \"E-timetable.sol\":6781:6799  cooperators.length */\n      dup1\n      sload\n      swap1\n      pop\n        /* \"E-timetable.sol\":6769:6799  uint size = cooperators.length */\n      swap1\n      pop\n        /* \"E-timetable.sol\":6825:6836  cooperators */\n      0x03\n        /* \"E-timetable.sol\":6810:6836  _cooperators = cooperators */\n      dup1\n      sload\n      dup1\n      0x20\n      mul\n      0x20\n      add\n      mload(0x40)\n      swap1\n      dup2\n      add\n      0x40\n      mstore\n      dup1\n      swap3\n      swap2\n      swap1\n      dup2\n      dup2\n      mstore\n      0x20\n      add\n      dup3\n      dup1\n      sload\n      dup1\n      iszero\n      tag_184\n      jumpi\n      0x20\n      mul\n      dup3\n      add\n      swap2\n      swap1\n      0x00\n      mstore\n      keccak256(0x00, 0x20)\n      swap1\n    tag_185:\n      dup2\n      0x00\n      swap1\n      sload\n      swap1\n      0x0100\n      exp\n      swap1\n      div\n      0xffffffffffffffffffffffffffffffffffffffff\n      and\n      0xffffffffffffffffffffffffffffffffffffffff\n      and\n      dup2\n      mstore\n      0x20\n      add\n      swap1\n      0x01\n      add\n      swap1\n      dup1\n      dup4\n      gt\n      tag_185\n      jumpi\n    tag_184:\n      pop\n      pop\n      pop\n      pop\n      pop\n      swap5\n      pop\n        /* \"E-timetable.sol\":6868:6872  size */\n      dup1\n        /* \"E-timetable.sol\":6855:6873  new string[](size) */\n      0xffffffffffffffff\n      dup2\n      gt\n      iszero\n      tag_186\n      jumpi\n      tag_187\n      tag_121\n      jump\t// in\n    tag_187:\n    tag_186:\n      mload(0x40)\n      swap1\n      dup1\n      dup3\n      mstore\n      dup1\n      0x20\n      mul\n      0x20\n      add\n      dup3\n      add\n      0x40\n      mstore\n      dup1\n      iszero\n      tag_188\n      jumpi\n      dup2\n      0x20\n      add\n    tag_189:\n      0x60\n      dup2\n      mstore\n      0x20\n      add\n      swap1\n      0x01\n      swap1\n      sub\n      swap1\n      dup2\n      tag_189\n      jumpi\n      swap1\n      pop\n    tag_188:\n      pop\n        /* \"E-timetable.sol\":6847:6873  names = new string[](size) */\n      swap4\n      pop\n        /* \"E-timetable.sol\":6909:6913  size */\n      dup1\n        /* \"E-timetable.sol\":6898:6914  new uint[](size) */\n      0xffffffffffffffff\n      dup2\n      gt\n      iszero\n      tag_190\n      jumpi\n      tag_191\n      tag_121\n      jump\t// in\n    tag_191:\n    tag_190:\n      mload(0x40)\n      swap1\n      dup1\n      dup3\n      mstore\n      dup1\n      0x20\n      mul\n      0x20\n      add\n      dup3\n      add\n      0x40\n      mstore\n      dup1\n      iszero\n      tag_192\n      jumpi\n      dup2\n      0x20\n      add\n      0x20\n      dup3\n      mul\n      dup1\n      calldatasize\n      dup4\n      calldatacopy\n      dup1\n      dup3\n      add\n      swap2\n      pop\n      pop\n      swap1\n      pop\n    tag_192:\n      pop\n        /* \"E-timetable.sol\":6884:6914  permissions = new uint[](size) */\n      swap3\n      pop\n        /* \"E-timetable.sol\":6965:6971  uint i */\n      0x00\n        /* \"E-timetable.sol\":6961:7127  for(uint i=0;i<size;i++){... */\n    tag_193:\n        /* \"E-timetable.sol\":6976:6980  size */\n      dup2\n        /* \"E-timetable.sol\":6974:6975  i */\n      dup2\n        /* \"E-timetable.sol\":6974:6980  i<size */\n      lt\n        /* \"E-timetable.sol\":6961:7127  for(uint i=0;i<size;i++){... */\n      iszero\n      tag_194\n      jumpi\n        /* \"E-timetable.sol\":7011:7025  cooperatorName */\n      0x05\n        /* \"E-timetable.sol\":7011:7041  cooperatorName[cooperators[i]] */\n      0x00\n        /* \"E-timetable.sol\":7026:7037  cooperators */\n      0x03\n        /* \"E-timetable.sol\":7038:7039  i */\n      dup4\n        /* \"E-timetable.sol\":7026:7040  cooperators[i] */\n      dup2\n      sload\n      dup2\n      lt\n      tag_196\n      jumpi\n      tag_197\n      tag_76\n      jump\t// in\n    tag_197:\n    tag_196:\n      swap1\n      0x00\n      mstore\n      keccak256(0x00, 0x20)\n      add\n      0x00\n      swap1\n      sload\n      swap1\n      0x0100\n      exp\n      swap1\n      div\n      0xffffffffffffffffffffffffffffffffffffffff\n      and\n        /* \"E-timetable.sol\":7011:7041  cooperatorName[cooperators[i]] */\n      0xffffffffffffffffffffffffffffffffffffffff\n      and\n      0xffffffffffffffffffffffffffffffffffffffff\n      and\n      dup2\n      mstore\n      0x20\n      add\n      swap1\n      dup2\n      mstore\n      0x20\n      add\n      0x00\n      keccak256\n        /* \"E-timetable.sol\":7000:7041  names[i] = cooperatorName[cooperators[i]] */\n      dup1\n      sload\n      tag_199\n      swap1\n      tag_92\n      jump\t// in\n    tag_199:\n      dup1\n      0x1f\n      add\n      0x20\n      dup1\n      swap2\n      div\n      mul\n      0x20\n      add\n      mload(0x40)\n      swap1\n      dup2\n      add\n      0x40\n      mstore\n      dup1\n      swap3\n      swap2\n      swap1\n      dup2\n      dup2\n      mstore\n      0x20\n      add\n      dup3\n      dup1\n      sload\n      tag_200\n      swap1\n      tag_92\n      jump\t// in\n    tag_200:\n      dup1\n      iszero\n      tag_201\n      jumpi\n      dup1\n      0x1f\n      lt\n      tag_202\n      jumpi\n      0x0100\n      dup1\n      dup4\n      sload\n      div\n      mul\n      dup4\n      mstore\n      swap2\n      0x20\n      add\n      swap2\n      jump(tag_201)\n    tag_202:\n      dup3\n      add\n      swap2\n      swap1\n      0x00\n      mstore\n      keccak256(0x00, 0x20)\n      swap1\n    tag_203:\n      dup2\n      sload\n      dup2\n      mstore\n      swap1\n      0x01\n      add\n      swap1\n      0x20\n      add\n      dup1\n      dup4\n      gt\n      tag_203\n      jumpi\n      dup3\n      swap1\n      sub\n      0x1f\n      and\n      dup3\n      add\n      swap2\n    tag_201:\n      pop\n      pop\n      pop\n      pop\n      pop\n        /* \"E-timetable.sol\":7000:7005  names */\n      dup6\n        /* \"E-timetable.sol\":7006:7007  i */\n      dup3\n        /* \"E-timetable.sol\":7000:7008  names[i] */\n      dup2\n      mload\n      dup2\n      lt\n      tag_204\n      jumpi\n      tag_205\n      tag_76\n      jump\t// in\n    tag_205:\n    tag_204:\n      0x20\n      mul\n      0x20\n      add\n      add\n        /* \"E-timetable.sol\":7000:7041  names[i] = cooperatorName[cooperators[i]] */\n      dup2\n      swap1\n      mstore\n      pop\n        /* \"E-timetable.sol\":7078:7098  cooperatorPermission */\n      0x04\n        /* \"E-timetable.sol\":7078:7114  cooperatorPermission[cooperators[i]] */\n      0x00\n        /* \"E-timetable.sol\":7099:7110  cooperators */\n      0x03\n        /* \"E-timetable.sol\":7111:7112  i */\n      dup4\n        /* \"E-timetable.sol\":7099:7113  cooperators[i] */\n      dup2\n      sload\n      dup2\n      lt\n      tag_206\n      jumpi\n      tag_207\n      tag_76\n      jump\t// in\n    tag_207:\n    tag_206:\n      swap1\n      0x00\n      mstore\n      keccak256(0x00, 0x20)\n      add\n      0x00\n      swap1\n      sload\n      swap1\n      0x0100\n      exp\n      swap1\n      div\n      0xffffffffffffffffffffffffffffffffffffffff\n      and\n        /* \"E-timetable.sol\":7078:7114  cooperatorPermission[cooperators[i]] */\n      0xffffffffffffffffffffffffffffffffffffffff\n      and\n      0xffffffffffffffffffffffffffffffffffffffff\n      and\n      dup2\n      mstore\n      0x20\n      add\n      swap1\n      dup2\n      mstore\n      0x20\n      add\n      0x00\n      keccak256\n      0x00\n      swap1\n      sload\n      swap1\n      0x0100\n      exp\n      swap1\n      div\n      0xff\n      and\n        /* \"E-timetable.sol\":7073:7115  uint(cooperatorPermission[cooperators[i]]) */\n      0x03\n      dup2\n      gt\n      iszero\n      tag_209\n      jumpi\n      tag_210\n      tag_211\n      jump\t// in\n    tag_210:\n    tag_209:\n        /* \"E-timetable.sol\":7056:7067  permissions */\n      dup5\n        /* \"E-timetable.sol\":7068:7069  i */\n      dup3\n        /* \"E-timetable.sol\":7056:7070  permissions[i] */\n      dup2\n      mload\n      dup2\n      lt\n      tag_212\n      jumpi\n      tag_213\n      tag_76\n      jump\t// in\n    tag_213:\n    tag_212:\n      0x20\n      mul\n      0x20\n      add\n      add\n        /* \"E-timetable.sol\":7056:7115  permissions[i] = uint(cooperatorPermission[cooperators[i]]) */\n      dup2\n      dup2\n      mstore\n      pop\n      pop\n        /* \"E-timetable.sol\":6981:6984  i++ */\n      dup1\n      dup1\n      tag_214\n      swap1\n      tag_171\n      jump\t// in\n    tag_214:\n      swap2\n      pop\n      pop\n        /* \"E-timetable.sol\":6961:7127  for(uint i=0;i<size;i++){... */\n      jump(tag_193)\n    tag_194:\n      pop\n        /* \"E-timetable.sol\":6724:7144  {... */\n      pop\n        /* \"E-timetable.sol\":6529:7144  function getCooperators(address[2] memory cooperatorAddress) public view viewRestricted(cooperatorAddress) returns(address[] memory _cooperators, string[] memory names, uint[] memory permissions){... */\n      pop\n      swap2\n      swap4\n      swap1\n      swap3\n      pop\n      jump\t// out\n        /* \"E-timetable.sol\":5716:6069  function changeManager(address newManager) public{... */\n    tag_52:\n        /* \"E-timetable.sol\":5834:5841  manager */\n      0x01\n      0x00\n      swap1\n      sload\n      swap1\n      0x0100\n      exp\n      swap1\n      div\n      0xffffffffffffffffffffffffffffffffffffffff\n      and\n        /* \"E-timetable.sol\":5820:5841  msg.sender == manager */\n      0xffffffffffffffffffffffffffffffffffffffff\n      and\n        /* \"E-timetable.sol\":5820:5830  msg.sender */\n      caller\n        /* \"E-timetable.sol\":5820:5841  msg.sender == manager */\n      0xffffffffffffffffffffffffffffffffffffffff\n      and\n      eq\n        /* \"E-timetable.sol\":5812:5842  require(msg.sender == manager) */\n      tag_216\n      jumpi\n      0x00\n      dup1\n      revert\n    tag_216:\n        /* \"E-timetable.sol\":5900:5910  newManager */\n      dup1\n        /* \"E-timetable.sol\":5890:5897  manager */\n      0x01\n      0x00\n        /* \"E-timetable.sol\":5890:5910  manager = newManager */\n      0x0100\n      exp\n      dup2\n      sload\n      dup2\n      0xffffffffffffffffffffffffffffffffffffffff\n      mul\n      not\n      and\n      swap1\n      dup4\n      0xffffffffffffffffffffffffffffffffffffffff\n      and\n      mul\n      or\n      swap1\n      sstore\n      pop\n        /* \"E-timetable.sol\":5998:6014  Permission.ADMIN */\n      0x03\n        /* \"E-timetable.sol\":5963:5983  cooperatorPermission */\n      0x04\n        /* \"E-timetable.sol\":5963:5995  cooperatorPermission[newManager] */\n      0x00\n        /* \"E-timetable.sol\":5984:5994  newManager */\n      dup4\n        /* \"E-timetable.sol\":5963:5995  cooperatorPermission[newManager] */\n      0xffffffffffffffffffffffffffffffffffffffff\n      and\n      0xffffffffffffffffffffffffffffffffffffffff\n      and\n      dup2\n      mstore\n      0x20\n      add\n      swap1\n      dup2\n      mstore\n      0x20\n      add\n      0x00\n      keccak256\n      0x00\n        /* \"E-timetable.sol\":5963:6014  cooperatorPermission[newManager] = Permission.ADMIN */\n      0x0100\n      exp\n      dup2\n      sload\n      dup2\n      0xff\n      mul\n      not\n      and\n      swap1\n      dup4\n      0x03\n      dup2\n      gt\n      iszero\n      tag_217\n      jumpi\n      tag_218\n      tag_211\n      jump\t// in\n    tag_218:\n    tag_217:\n      mul\n      or\n      swap1\n      sstore\n      pop\n        /* \"E-timetable.sol\":5716:6069  function changeManager(address newManager) public{... */\n      pop\n      jump\t// out\n        /* \"E-timetable.sol\":4866:5257  function deleteEvent(uint monthTimestamp, uint index, address[2] memory cooperatorAddress) public editRestricted(cooperatorAddress){... */\n    tag_56:\n        /* \"E-timetable.sol\":4979:4996  cooperatorAddress */\n      dup1\n        /* \"E-timetable.sol\":1109:1156  checkAccess(cooperatorAddress, Permission.EDIT) */\n      tag_220\n        /* \"E-timetable.sol\":1121:1138  cooperatorAddress */\n      dup2\n        /* \"E-timetable.sol\":1140:1155  Permission.EDIT */\n      0x02\n        /* \"E-timetable.sol\":1109:1120  checkAccess */\n      tag_71\n        /* \"E-timetable.sol\":1109:1156  checkAccess(cooperatorAddress, Permission.EDIT) */\n      jump\t// in\n    tag_220:\n        /* \"E-timetable.sol\":1101:1157  require(checkAccess(cooperatorAddress, Permission.EDIT)) */\n      tag_221\n      jumpi\n      0x00\n      dup1\n      revert\n    tag_221:\n        /* \"E-timetable.sol\":5058:5087  Event[] storage eventsInMonth */\n      0x00\n        /* \"E-timetable.sol\":5090:5096  events */\n      dup1\n        /* \"E-timetable.sol\":5090:5112  events[monthTimestamp] */\n      0x00\n        /* \"E-timetable.sol\":5097:5111  monthTimestamp */\n      dup7\n        /* \"E-timetable.sol\":5090:5112  events[monthTimestamp] */\n      dup2\n      mstore\n      0x20\n      add\n      swap1\n      dup2\n      mstore\n      0x20\n      add\n      0x00\n      keccak256\n        /* \"E-timetable.sol\":5058:5112  Event[] storage eventsInMonth = events[monthTimestamp] */\n      swap1\n      pop\n        /* \"E-timetable.sol\":5182:5195  eventsInMonth */\n      dup1\n        /* \"E-timetable.sol\":5217:5218  1 */\n      0x01\n        /* \"E-timetable.sol\":5196:5209  eventsInMonth */\n      dup3\n        /* \"E-timetable.sol\":5196:5216  eventsInMonth.length */\n      dup1\n      sload\n      swap1\n      pop\n        /* \"E-timetable.sol\":5196:5218  eventsInMonth.length-1 */\n      tag_223\n      swap2\n      swap1\n      tag_224\n      jump\t// in\n    tag_223:\n        /* \"E-timetable.sol\":5182:5219  eventsInMonth[eventsInMonth.length-1] */\n      dup2\n      sload\n      dup2\n      lt\n      tag_225\n      jumpi\n      tag_226\n      tag_76\n      jump\t// in\n    tag_226:\n    tag_225:\n      swap1\n      0x00\n      mstore\n      keccak256(0x00, 0x20)\n      swap1\n      0x06\n      mul\n      add\n        /* \"E-timetable.sol\":5159:5172  eventsInMonth */\n      dup2\n        /* \"E-timetable.sol\":5173:5178  index */\n      dup6\n        /* \"E-timetable.sol\":5159:5179  eventsInMonth[index] */\n      dup2\n      sload\n      dup2\n      lt\n      tag_228\n      jumpi\n      tag_229\n      tag_76\n      jump\t// in\n    tag_229:\n    tag_228:\n      swap1\n      0x00\n      mstore\n      keccak256(0x00, 0x20)\n      swap1\n      0x06\n      mul\n      add\n        /* \"E-timetable.sol\":5159:5219  eventsInMonth[index] = eventsInMonth[eventsInMonth.length-1] */\n      0x00\n      dup3\n      add\n      sload\n      dup2\n      0x00\n      add\n      sstore\n      0x01\n      dup3\n      add\n      sload\n      dup2\n      0x01\n      add\n      sstore\n      0x02\n      dup3\n      add\n      dup2\n      0x02\n      add\n      swap1\n      dup1\n      sload\n      tag_231\n      swap1\n      tag_92\n      jump\t// in\n    tag_231:\n      tag_232\n      swap3\n      swap2\n      swap1\n      tag_233\n      jump\t// in\n    tag_232:\n      pop\n      0x03\n      dup3\n      add\n      dup2\n      0x03\n      add\n      swap1\n      dup1\n      sload\n      tag_234\n      swap1\n      tag_92\n      jump\t// in\n    tag_234:\n      tag_235\n      swap3\n      swap2\n      swap1\n      tag_233\n      jump\t// in\n    tag_235:\n      pop\n      0x04\n      dup3\n      add\n      dup2\n      0x04\n      add\n      swap1\n      dup1\n      sload\n      tag_236\n      swap1\n      tag_92\n      jump\t// in\n    tag_236:\n      tag_237\n      swap3\n      swap2\n      swap1\n      tag_233\n      jump\t// in\n    tag_237:\n      pop\n      0x05\n      dup3\n      add\n      0x00\n      swap1\n      sload\n      swap1\n      0x0100\n      exp\n      swap1\n      div\n      0xffffffffffffffffffffffffffffffffffffffff\n      and\n      dup2\n      0x05\n      add\n      exp(0x0100, 0x00)\n      dup2\n      sload\n      dup2\n      0xffffffffffffffffffffffffffffffffffffffff\n      mul\n      not\n      and\n      swap1\n      dup4\n      0xffffffffffffffffffffffffffffffffffffffff\n      and\n      mul\n      or\n      swap1\n      sstore\n      pop\n      swap1\n      pop\n      pop\n        /* \"E-timetable.sol\":5230:5243  eventsInMonth */\n      dup1\n        /* \"E-timetable.sol\":5230:5249  eventsInMonth.pop() */\n      dup1\n      sload\n      dup1\n      tag_238\n      jumpi\n      tag_239\n      tag_240\n      jump\t// in\n    tag_239:\n    tag_238:\n      0x01\n      swap1\n      sub\n      dup2\n      dup2\n      swap1\n      0x00\n      mstore\n      keccak256(0x00, 0x20)\n      swap1\n      0x06\n      mul\n      add\n      0x00\n      dup1\n      dup3\n      add\n      0x00\n      swap1\n      sstore\n      0x01\n      dup3\n      add\n      0x00\n      swap1\n      sstore\n      0x02\n      dup3\n      add\n      0x00\n      tag_242\n      swap2\n      swap1\n      tag_243\n      jump\t// in\n    tag_242:\n      0x03\n      dup3\n      add\n      0x00\n      tag_244\n      swap2\n      swap1\n      tag_243\n      jump\t// in\n    tag_244:\n      0x04\n      dup3\n      add\n      0x00\n      tag_245\n      swap2\n      swap1\n      tag_243\n      jump\t// in\n    tag_245:\n      0x05\n      dup3\n      add\n      exp(0x0100, 0x00)\n      dup2\n      sload\n      swap1\n      0xffffffffffffffffffffffffffffffffffffffff\n      mul\n      not\n      and\n      swap1\n      sstore\n      pop\n      pop\n      swap1\n      sstore\n        /* \"E-timetable.sol\":4997:5257  {... */\n      pop\n        /* \"E-timetable.sol\":4866:5257  function deleteEvent(uint monthTimestamp, uint index, address[2] memory cooperatorAddress) public editRestricted(cooperatorAddress){... */\n      pop\n      pop\n      pop\n      pop\n      jump\t// out\n        /* \"E-timetable.sol\":7187:7560  function deleteCooperator(uint index, address cooperator, address[2] memory cooperatorAddress) public adminRestricted(cooperatorAddress){... */\n    tag_60:\n        /* \"E-timetable.sol\":7305:7322  cooperatorAddress */\n      dup1\n        /* \"E-timetable.sol\":798:846  checkAccess(cooperatorAddress, Permission.ADMIN) */\n      tag_247\n        /* \"E-timetable.sol\":810:827  cooperatorAddress */\n      dup2\n        /* \"E-timetable.sol\":829:845  Permission.ADMIN */\n      0x03\n        /* \"E-timetable.sol\":798:809  checkAccess */\n      tag_71\n        /* \"E-timetable.sol\":798:846  checkAccess(cooperatorAddress, Permission.ADMIN) */\n      jump\t// in\n    tag_247:\n        /* \"E-timetable.sol\":790:847  require(checkAccess(cooperatorAddress, Permission.ADMIN)) */\n      tag_248\n      jumpi\n      0x00\n      dup1\n      revert\n    tag_248:\n        /* \"E-timetable.sol\":7383:7403  cooperatorPermission */\n      0x04\n        /* \"E-timetable.sol\":7383:7415  cooperatorPermission[cooperator] */\n      0x00\n        /* \"E-timetable.sol\":7404:7414  cooperator */\n      dup5\n        /* \"E-timetable.sol\":7383:7415  cooperatorPermission[cooperator] */\n      0xffffffffffffffffffffffffffffffffffffffff\n      and\n      0xffffffffffffffffffffffffffffffffffffffff\n      and\n      dup2\n      mstore\n      0x20\n      add\n      swap1\n      dup2\n      mstore\n      0x20\n      add\n      0x00\n      keccak256\n      0x00\n        /* \"E-timetable.sol\":7376:7415  delete cooperatorPermission[cooperator] */\n      0x0100\n      exp\n      dup2\n      sload\n      swap1\n      0xff\n      mul\n      not\n      and\n      swap1\n      sstore\n        /* \"E-timetable.sol\":7433:7447  cooperatorName */\n      0x05\n        /* \"E-timetable.sol\":7433:7459  cooperatorName[cooperator] */\n      0x00\n        /* \"E-timetable.sol\":7448:7458  cooperator */\n      dup5\n        /* \"E-timetable.sol\":7433:7459  cooperatorName[cooperator] */\n      0xffffffffffffffffffffffffffffffffffffffff\n      and\n      0xffffffffffffffffffffffffffffffffffffffff\n      and\n      dup2\n      mstore\n      0x20\n      add\n      swap1\n      dup2\n      mstore\n      0x20\n      add\n      0x00\n      keccak256\n      0x00\n        /* \"E-timetable.sol\":7426:7459  delete cooperatorName[cooperator] */\n      tag_250\n      swap2\n      swap1\n      tag_243\n      jump\t// in\n    tag_250:\n        /* \"E-timetable.sol\":7491:7502  cooperators */\n      0x03\n        /* \"E-timetable.sol\":7522:7523  1 */\n      0x01\n        /* \"E-timetable.sol\":7503:7514  cooperators */\n      0x03\n        /* \"E-timetable.sol\":7503:7521  cooperators.length */\n      dup1\n      sload\n      swap1\n      pop\n        /* \"E-timetable.sol\":7503:7523  cooperators.length-1 */\n      tag_251\n      swap2\n      swap1\n      tag_224\n      jump\t// in\n    tag_251:\n        /* \"E-timetable.sol\":7491:7524  cooperators[cooperators.length-1] */\n      dup2\n      sload\n      dup2\n      lt\n      tag_252\n      jumpi\n      tag_253\n      tag_76\n      jump\t// in\n    tag_253:\n    tag_252:\n      swap1\n      0x00\n      mstore\n      keccak256(0x00, 0x20)\n      add\n      0x00\n      swap1\n      sload\n      swap1\n      0x0100\n      exp\n      swap1\n      div\n      0xffffffffffffffffffffffffffffffffffffffff\n      and\n        /* \"E-timetable.sol\":7470:7481  cooperators */\n      0x03\n        /* \"E-timetable.sol\":7482:7487  index */\n      dup6\n        /* \"E-timetable.sol\":7470:7488  cooperators[index] */\n      dup2\n      sload\n      dup2\n      lt\n      tag_255\n      jumpi\n      tag_256\n      tag_76\n      jump\t// in\n    tag_256:\n    tag_255:\n      swap1\n      0x00\n      mstore\n      keccak256(0x00, 0x20)\n      add\n      0x00\n        /* \"E-timetable.sol\":7470:7524  cooperators[index] = cooperators[cooperators.length-1] */\n      0x0100\n      exp\n      dup2\n      sload\n      dup2\n      0xffffffffffffffffffffffffffffffffffffffff\n      mul\n      not\n      and\n      swap1\n      dup4\n      0xffffffffffffffffffffffffffffffffffffffff\n      and\n      mul\n      or\n      swap1\n      sstore\n      pop\n        /* \"E-timetable.sol\":7535:7546  cooperators */\n      0x03\n        /* \"E-timetable.sol\":7535:7552  cooperators.pop() */\n      dup1\n      sload\n      dup1\n      tag_258\n      jumpi\n      tag_259\n      tag_240\n      jump\t// in\n    tag_259:\n    tag_258:\n      0x01\n      swap1\n      sub\n      dup2\n      dup2\n      swap1\n      0x00\n      mstore\n      keccak256(0x00, 0x20)\n      add\n      exp(0x0100, 0x00)\n      dup2\n      sload\n      swap1\n      0xffffffffffffffffffffffffffffffffffffffff\n      mul\n      not\n      and\n      swap1\n      sstore\n      swap1\n      sstore\n        /* \"E-timetable.sol\":7187:7560  function deleteCooperator(uint index, address cooperator, address[2] memory cooperatorAddress) public adminRestricted(cooperatorAddress){... */\n      pop\n      pop\n      pop\n      pop\n      jump\t// out\n        /* \"E-timetable.sol\":6130:6497  function addCooperator(address coopAddress, uint permission, string memory name, address[2] memory cooperatorAddress) public adminRestricted(cooperatorAddress){... */\n    tag_64:\n        /* \"E-timetable.sol\":6271:6288  cooperatorAddress */\n      dup1\n        /* \"E-timetable.sol\":798:846  checkAccess(cooperatorAddress, Permission.ADMIN) */\n      tag_262\n        /* \"E-timetable.sol\":810:827  cooperatorAddress */\n      dup2\n        /* \"E-timetable.sol\":829:845  Permission.ADMIN */\n      0x03\n        /* \"E-timetable.sol\":798:809  checkAccess */\n      tag_71\n        /* \"E-timetable.sol\":798:846  checkAccess(cooperatorAddress, Permission.ADMIN) */\n      jump\t// in\n    tag_262:\n        /* \"E-timetable.sol\":790:847  require(checkAccess(cooperatorAddress, Permission.ADMIN)) */\n      tag_263\n      jumpi\n      0x00\n      dup1\n      revert\n    tag_263:\n        /* \"E-timetable.sol\":6346:6357  cooperators */\n      0x03\n        /* \"E-timetable.sol\":6363:6374  coopAddress */\n      dup6\n        /* \"E-timetable.sol\":6346:6375  cooperators.push(coopAddress) */\n      swap1\n      dup1\n      0x01\n      dup2\n      sload\n      add\n      dup1\n      dup3\n      sstore\n      dup1\n      swap2\n      pop\n      pop\n      0x01\n      swap1\n      sub\n      swap1\n      0x00\n      mstore\n      keccak256(0x00, 0x20)\n      add\n      0x00\n      swap1\n      swap2\n      swap1\n      swap2\n      swap1\n      swap2\n      0x0100\n      exp\n      dup2\n      sload\n      dup2\n      0xffffffffffffffffffffffffffffffffffffffff\n      mul\n      not\n      and\n      swap1\n      dup4\n      0xffffffffffffffffffffffffffffffffffffffff\n      and\n      mul\n      or\n      swap1\n      sstore\n      pop\n        /* \"E-timetable.sol\":6433:6443  permission */\n      dup4\n        /* \"E-timetable.sol\":6422:6444  Permission(permission) */\n      0x03\n      dup2\n      gt\n      iszero\n      tag_266\n      jumpi\n      tag_267\n      tag_211\n      jump\t// in\n    tag_267:\n    tag_266:\n        /* \"E-timetable.sol\":6386:6406  cooperatorPermission */\n      0x04\n        /* \"E-timetable.sol\":6386:6419  cooperatorPermission[coopAddress] */\n      0x00\n        /* \"E-timetable.sol\":6407:6418  coopAddress */\n      dup8\n        /* \"E-timetable.sol\":6386:6419  cooperatorPermission[coopAddress] */\n      0xffffffffffffffffffffffffffffffffffffffff\n      and\n      0xffffffffffffffffffffffffffffffffffffffff\n      and\n      dup2\n      mstore\n      0x20\n      add\n      swap1\n      dup2\n      mstore\n      0x20\n      add\n      0x00\n      keccak256\n      0x00\n        /* \"E-timetable.sol\":6386:6444  cooperatorPermission[coopAddress] = Permission(permission) */\n      0x0100\n      exp\n      dup2\n      sload\n      dup2\n      0xff\n      mul\n      not\n      and\n      swap1\n      dup4\n      0x03\n      dup2\n      gt\n      iszero\n      tag_268\n      jumpi\n      tag_269\n      tag_211\n      jump\t// in\n    tag_269:\n    tag_268:\n      mul\n      or\n      swap1\n      sstore\n      pop\n        /* \"E-timetable.sol\":6485:6489  name */\n      dup3\n        /* \"E-timetable.sol\":6455:6469  cooperatorName */\n      0x05\n        /* \"E-timetable.sol\":6455:6482  cooperatorName[coopAddress] */\n      0x00\n        /* \"E-timetable.sol\":6470:6481  coopAddress */\n      dup8\n        /* \"E-timetable.sol\":6455:6482  cooperatorName[coopAddress] */\n      0xffffffffffffffffffffffffffffffffffffffff\n      and\n      0xffffffffffffffffffffffffffffffffffffffff\n      and\n      dup2\n      mstore\n      0x20\n      add\n      swap1\n      dup2\n      mstore\n      0x20\n      add\n      0x00\n      keccak256\n        /* \"E-timetable.sol\":6455:6489  cooperatorName[coopAddress] = name */\n      swap1\n      dup1\n      mload\n      swap1\n      0x20\n      add\n      swap1\n      tag_270\n      swap3\n      swap2\n      swap1\n      tag_79\n      jump\t// in\n    tag_270:\n      pop\n        /* \"E-timetable.sol\":6130:6497  function addCooperator(address coopAddress, uint permission, string memory name, address[2] memory cooperatorAddress) public adminRestricted(cooperatorAddress){... */\n      pop\n      pop\n      pop\n      pop\n      pop\n      jump\t// out\n        /* \"E-timetable.sol\":7621:7959  function updateCooperator(address cooperator, string memory name, uint permission, address[2] memory cooperatorAddress) public adminRestricted(cooperatorAddress){... */\n    tag_68:\n        /* \"E-timetable.sol\":7764:7781  cooperatorAddress */\n      dup1\n        /* \"E-timetable.sol\":798:846  checkAccess(cooperatorAddress, Permission.ADMIN) */\n      tag_272\n        /* \"E-timetable.sol\":810:827  cooperatorAddress */\n      dup2\n        /* \"E-timetable.sol\":829:845  Permission.ADMIN */\n      0x03\n        /* \"E-timetable.sol\":798:809  checkAccess */\n      tag_71\n        /* \"E-timetable.sol\":798:846  checkAccess(cooperatorAddress, Permission.ADMIN) */\n      jump\t// in\n    tag_272:\n        /* \"E-timetable.sol\":790:847  require(checkAccess(cooperatorAddress, Permission.ADMIN)) */\n      tag_273\n      jumpi\n      0x00\n      dup1\n      revert\n    tag_273:\n        /* \"E-timetable.sol\":7879:7883  name */\n      dup4\n        /* \"E-timetable.sol\":7850:7864  cooperatorName */\n      0x05\n        /* \"E-timetable.sol\":7850:7876  cooperatorName[cooperator] */\n      0x00\n        /* \"E-timetable.sol\":7865:7875  cooperator */\n      dup8\n        /* \"E-timetable.sol\":7850:7876  cooperatorName[cooperator] */\n      0xffffffffffffffffffffffffffffffffffffffff\n      and\n      0xffffffffffffffffffffffffffffffffffffffff\n      and\n      dup2\n      mstore\n      0x20\n      add\n      swap1\n      dup2\n      mstore\n      0x20\n      add\n      0x00\n      keccak256\n        /* \"E-timetable.sol\":7850:7883  cooperatorName[cooperator] = name */\n      swap1\n      dup1\n      mload\n      swap1\n      0x20\n      add\n      swap1\n      tag_275\n      swap3\n      swap2\n      swap1\n      tag_79\n      jump\t// in\n    tag_275:\n      pop\n        /* \"E-timetable.sol\":7940:7950  permission */\n      dup3\n        /* \"E-timetable.sol\":7929:7951  Permission(permission) */\n      0x03\n      dup2\n      gt\n      iszero\n      tag_276\n      jumpi\n      tag_277\n      tag_211\n      jump\t// in\n    tag_277:\n    tag_276:\n        /* \"E-timetable.sol\":7894:7914  cooperatorPermission */\n      0x04\n        /* \"E-timetable.sol\":7894:7926  cooperatorPermission[cooperator] */\n      0x00\n        /* \"E-timetable.sol\":7915:7925  cooperator */\n      dup8\n        /* \"E-timetable.sol\":7894:7926  cooperatorPermission[cooperator] */\n      0xffffffffffffffffffffffffffffffffffffffff\n      and\n      0xffffffffffffffffffffffffffffffffffffffff\n      and\n      dup2\n      mstore\n      0x20\n      add\n      swap1\n      dup2\n      mstore\n      0x20\n      add\n      0x00\n      keccak256\n      0x00\n        /* \"E-timetable.sol\":7894:7951  cooperatorPermission[cooperator] = Permission(permission) */\n      0x0100\n      exp\n      dup2\n      sload\n      dup2\n      0xff\n      mul\n      not\n      and\n      swap1\n      dup4\n      0x03\n      dup2\n      gt\n      iszero\n      tag_278\n      jumpi\n      tag_279\n      tag_211\n      jump\t// in\n    tag_279:\n    tag_278:\n      mul\n      or\n      swap1\n      sstore\n      pop\n        /* \"E-timetable.sol\":7621:7959  function updateCooperator(address cooperator, string memory name, uint permission, address[2] memory cooperatorAddress) public adminRestricted(cooperatorAddress){... */\n      pop\n      pop\n      pop\n      pop\n      pop\n      jump\t// out\n        /* \"E-timetable.sol\":1555:1959  function checkAccess(address[2] memory addresses, Permission permission) ... */\n    tag_71:\n        /* \"E-timetable.sol\":1660:1664  bool */\n      0x00\n        /* \"E-timetable.sol\":1717:1727  permission */\n      dup2\n        /* \"E-timetable.sol\":1679:1727  cooperatorPermission[addresses[0]] >= permission */\n      0x03\n      dup2\n      gt\n      iszero\n      tag_281\n      jumpi\n      tag_282\n      tag_211\n      jump\t// in\n    tag_282:\n    tag_281:\n        /* \"E-timetable.sol\":1679:1699  cooperatorPermission */\n      0x04\n        /* \"E-timetable.sol\":1679:1713  cooperatorPermission[addresses[0]] */\n      0x00\n        /* \"E-timetable.sol\":1700:1709  addresses */\n      dup6\n        /* \"E-timetable.sol\":1710:1711  0 */\n      0x00\n        /* \"E-timetable.sol\":1700:1712  addresses[0] */\n      0x02\n      dup2\n      lt\n      tag_283\n      jumpi\n      tag_284\n      tag_76\n      jump\t// in\n    tag_284:\n    tag_283:\n      0x20\n      mul\n      add\n      mload\n        /* \"E-timetable.sol\":1679:1713  cooperatorPermission[addresses[0]] */\n      0xffffffffffffffffffffffffffffffffffffffff\n      and\n      0xffffffffffffffffffffffffffffffffffffffff\n      and\n      dup2\n      mstore\n      0x20\n      add\n      swap1\n      dup2\n      mstore\n      0x20\n      add\n      0x00\n      keccak256\n      0x00\n      swap1\n      sload\n      swap1\n      0x0100\n      exp\n      swap1\n      div\n      0xff\n      and\n        /* \"E-timetable.sol\":1679:1727  cooperatorPermission[addresses[0]] >= permission */\n      0x03\n      dup2\n      gt\n      iszero\n      tag_285\n      jumpi\n      tag_286\n      tag_211\n      jump\t// in\n    tag_286:\n    tag_285:\n      lt\n      iszero\n        /* \"E-timetable.sol\":1679:1793  cooperatorPermission[addresses[0]] >= permission || ... */\n      dup1\n      tag_287\n      jumpi\n      pop\n        /* \"E-timetable.sol\":1783:1793  permission */\n      dup2\n        /* \"E-timetable.sol\":1745:1793  cooperatorPermission[addresses[1]] >= permission */\n      0x03\n      dup2\n      gt\n      iszero\n      tag_288\n      jumpi\n      tag_289\n      tag_211\n      jump\t// in\n    tag_289:\n    tag_288:\n        /* \"E-timetable.sol\":1745:1765  cooperatorPermission */\n      0x04\n        /* \"E-timetable.sol\":1745:1779  cooperatorPermission[addresses[1]] */\n      0x00\n        /* \"E-timetable.sol\":1766:1775  addresses */\n      dup6\n        /* \"E-timetable.sol\":1776:1777  1 */\n      0x01\n        /* \"E-timetable.sol\":1766:1778  addresses[1] */\n      0x02\n      dup2\n      lt\n      tag_290\n      jumpi\n      tag_291\n      tag_76\n      jump\t// in\n    tag_291:\n    tag_290:\n      0x20\n      mul\n      add\n      mload\n        /* \"E-timetable.sol\":1745:1779  cooperatorPermission[addresses[1]] */\n      0xffffffffffffffffffffffffffffffffffffffff\n      and\n      0xffffffffffffffffffffffffffffffffffffffff\n      and\n      dup2\n      mstore\n      0x20\n      add\n      swap1\n      dup2\n      mstore\n      0x20\n      add\n      0x00\n      keccak256\n      0x00\n      swap1\n      sload\n      swap1\n      0x0100\n      exp\n      swap1\n      div\n      0xff\n      and\n        /* \"E-timetable.sol\":1745:1793  cooperatorPermission[addresses[1]] >= permission */\n      0x03\n      dup2\n      gt\n      iszero\n      tag_292\n      jumpi\n      tag_293\n      tag_211\n      jump\t// in\n    tag_293:\n    tag_292:\n      lt\n      iszero\n        /* \"E-timetable.sol\":1679:1793  cooperatorPermission[addresses[0]] >= permission || ... */\n    tag_287:\n        /* \"E-timetable.sol\":1676:1893  if(cooperatorPermission[addresses[0]] >= permission || ... */\n      iszero\n      tag_294\n      jumpi\n        /* \"E-timetable.sol\":1877:1881  true */\n      0x01\n        /* \"E-timetable.sol\":1870:1881  return true */\n      swap1\n      pop\n      jump(tag_280)\n        /* \"E-timetable.sol\":1676:1893  if(cooperatorPermission[addresses[0]] >= permission || ... */\n    tag_294:\n        /* \"E-timetable.sol\":1946:1951  false */\n      0x00\n        /* \"E-timetable.sol\":1939:1951  return false */\n      swap1\n      pop\n        /* \"E-timetable.sol\":1555:1959  function checkAccess(address[2] memory addresses, Permission permission) ... */\n    tag_280:\n      swap3\n      swap2\n      pop\n      pop\n      jump\t// out\n    tag_79:\n      dup3\n      dup1\n      sload\n      tag_295\n      swap1\n      tag_92\n      jump\t// in\n    tag_295:\n      swap1\n      0x00\n      mstore\n      keccak256(0x00, 0x20)\n      swap1\n      0x1f\n      add\n      0x20\n      swap1\n      div\n      dup2\n      add\n      swap3\n      dup3\n      tag_297\n      jumpi\n      0x00\n      dup6\n      sstore\n      jump(tag_296)\n    tag_297:\n      dup3\n      0x1f\n      lt\n      tag_298\n      jumpi\n      dup1\n      mload\n      not(0xff)\n      and\n      dup4\n      dup1\n      add\n      or\n      dup6\n      sstore\n      jump(tag_296)\n    tag_298:\n      dup3\n      dup1\n      add\n      0x01\n      add\n      dup6\n      sstore\n      dup3\n      iszero\n      tag_296\n      jumpi\n      swap2\n      dup3\n      add\n    tag_299:\n      dup3\n      dup2\n      gt\n      iszero\n      tag_300\n      jumpi\n      dup3\n      mload\n      dup3\n      sstore\n      swap2\n      0x20\n      add\n      swap2\n      swap1\n      0x01\n      add\n      swap1\n      jump(tag_299)\n    tag_300:\n    tag_296:\n      pop\n      swap1\n      pop\n      tag_301\n      swap2\n      swap1\n      tag_302\n      jump\t// in\n    tag_301:\n      pop\n      swap1\n      jump\t// out\n    tag_233:\n      dup3\n      dup1\n      sload\n      tag_303\n      swap1\n      tag_92\n      jump\t// in\n    tag_303:\n      swap1\n      0x00\n      mstore\n      keccak256(0x00, 0x20)\n      swap1\n      0x1f\n      add\n      0x20\n      swap1\n      div\n      dup2\n      add\n      swap3\n      dup3\n      tag_305\n      jumpi\n      0x00\n      dup6\n      sstore\n      jump(tag_304)\n    tag_305:\n      dup3\n      0x1f\n      lt\n      tag_306\n      jumpi\n      dup1\n      sload\n      dup6\n      sstore\n      jump(tag_304)\n    tag_306:\n      dup3\n      dup1\n      add\n      0x01\n      add\n      dup6\n      sstore\n      dup3\n      iszero\n      tag_304\n      jumpi\n      0x00\n      mstore\n      keccak256(0x00, 0x20)\n      swap2\n      0x1f\n      add\n      0x20\n      swap1\n      div\n      dup3\n      add\n    tag_307:\n      dup3\n      dup2\n      gt\n      iszero\n      tag_308\n      jumpi\n      dup3\n      sload\n      dup3\n      sstore\n      swap2\n      0x01\n      add\n      swap2\n      swap1\n      0x01\n      add\n      swap1\n      jump(tag_307)\n    tag_308:\n    tag_304:\n      pop\n      swap1\n      pop\n      tag_309\n      swap2\n      swap1\n      tag_302\n      jump\t// in\n    tag_309:\n      pop\n      swap1\n      jump\t// out\n    tag_243:\n      pop\n      dup1\n      sload\n      tag_310\n      swap1\n      tag_92\n      jump\t// in\n    tag_310:\n      0x00\n      dup3\n      sstore\n      dup1\n      0x1f\n      lt\n      tag_312\n      jumpi\n      pop\n      jump(tag_311)\n    tag_312:\n      0x1f\n      add\n      0x20\n      swap1\n      div\n      swap1\n      0x00\n      mstore\n      keccak256(0x00, 0x20)\n      swap1\n      dup2\n      add\n      swap1\n      tag_313\n      swap2\n      swap1\n      tag_302\n      jump\t// in\n    tag_313:\n    tag_311:\n      pop\n      jump\t// out\n    tag_302:\n    tag_314:\n      dup1\n      dup3\n      gt\n      iszero\n      tag_315\n      jumpi\n      0x00\n      dup2\n      0x00\n      swap1\n      sstore\n      pop\n      0x01\n      add\n      jump(tag_314)\n    tag_315:\n      pop\n      swap1\n      jump\t// out\n        /* \"#utility.yul\":7:82   */\n    tag_316:\n        /* \"#utility.yul\":40:46   */\n      0x00\n        /* \"#utility.yul\":73:75   */\n      0x40\n        /* \"#utility.yul\":67:76   */\n      mload\n        /* \"#utility.yul\":57:76   */\n      swap1\n      pop\n        /* \"#utility.yul\":7:82   */\n      swap1\n      jump\t// out\n        /* \"#utility.yul\":88:205   */\n    tag_317:\n        /* \"#utility.yul\":197:198   */\n      0x00\n        /* \"#utility.yul\":194:195   */\n      dup1\n        /* \"#utility.yul\":187:199   */\n      revert\n        /* \"#utility.yul\":211:328   */\n    tag_318:\n        /* \"#utility.yul\":320:321   */\n      0x00\n        /* \"#utility.yul\":317:318   */\n      dup1\n        /* \"#utility.yul\":310:322   */\n      revert\n        /* \"#utility.yul\":334:411   */\n    tag_319:\n        /* \"#utility.yul\":371:378   */\n      0x00\n        /* \"#utility.yul\":400:405   */\n      dup2\n        /* \"#utility.yul\":389:405   */\n      swap1\n      pop\n        /* \"#utility.yul\":334:411   */\n      swap2\n      swap1\n      pop\n      jump\t// out\n        /* \"#utility.yul\":417:539   */\n    tag_320:\n        /* \"#utility.yul\":490:514   */\n      tag_374\n        /* \"#utility.yul\":508:513   */\n      dup2\n        /* \"#utility.yul\":490:514   */\n      tag_319\n      jump\t// in\n    tag_374:\n        /* \"#utility.yul\":483:488   */\n      dup2\n        /* \"#utility.yul\":480:515   */\n      eq\n        /* \"#utility.yul\":470:533   */\n      tag_375\n      jumpi\n        /* \"#utility.yul\":529:530   */\n      0x00\n        /* \"#utility.yul\":526:527   */\n      dup1\n        /* \"#utility.yul\":519:531   */\n      revert\n        /* \"#utility.yul\":470:533   */\n    tag_375:\n        /* \"#utility.yul\":417:539   */\n      pop\n      jump\t// out\n        /* \"#utility.yul\":545:684   */\n    tag_321:\n        /* \"#utility.yul\":591:596   */\n      0x00\n        /* \"#utility.yul\":629:635   */\n      dup2\n        /* \"#utility.yul\":616:636   */\n      calldataload\n        /* \"#utility.yul\":607:636   */\n      swap1\n      pop\n        /* \"#utility.yul\":645:678   */\n      tag_377\n        /* \"#utility.yul\":672:677   */\n      dup2\n        /* \"#utility.yul\":645:678   */\n      tag_320\n      jump\t// in\n    tag_377:\n        /* \"#utility.yul\":545:684   */\n      swap3\n      swap2\n      pop\n      pop\n      jump\t// out\n        /* \"#utility.yul\":690:807   */\n    tag_322:\n        /* \"#utility.yul\":799:800   */\n      0x00\n        /* \"#utility.yul\":796:797   */\n      dup1\n        /* \"#utility.yul\":789:801   */\n      revert\n        /* \"#utility.yul\":813:930   */\n    tag_323:\n        /* \"#utility.yul\":922:923   */\n      0x00\n        /* \"#utility.yul\":919:920   */\n      dup1\n        /* \"#utility.yul\":912:924   */\n      revert\n        /* \"#utility.yul\":936:1038   */\n    tag_324:\n        /* \"#utility.yul\":977:983   */\n      0x00\n        /* \"#utility.yul\":1028:1030   */\n      0x1f\n        /* \"#utility.yul\":1024:1031   */\n      not\n        /* \"#utility.yul\":1019:1021   */\n      0x1f\n        /* \"#utility.yul\":1012:1017   */\n      dup4\n        /* \"#utility.yul\":1008:1022   */\n      add\n        /* \"#utility.yul\":1004:1032   */\n      and\n        /* \"#utility.yul\":994:1032   */\n      swap1\n      pop\n        /* \"#utility.yul\":936:1038   */\n      swap2\n      swap1\n      pop\n      jump\t// out\n        /* \"#utility.yul\":1044:1224   */\n    tag_121:\n        /* \"#utility.yul\":1092:1169   */\n      0x4e487b7100000000000000000000000000000000000000000000000000000000\n        /* \"#utility.yul\":1089:1090   */\n      0x00\n        /* \"#utility.yul\":1082:1170   */\n      mstore\n        /* \"#utility.yul\":1189:1193   */\n      0x41\n        /* \"#utility.yul\":1186:1187   */\n      0x04\n        /* \"#utility.yul\":1179:1194   */\n      mstore\n        /* \"#utility.yul\":1213:1217   */\n      0x24\n        /* \"#utility.yul\":1210:1211   */\n      0x00\n        /* \"#utility.yul\":1203:1218   */\n      revert\n        /* \"#utility.yul\":1230:1511   */\n    tag_325:\n        /* \"#utility.yul\":1313:1340   */\n      tag_383\n        /* \"#utility.yul\":1335:1339   */\n      dup3\n        /* \"#utility.yul\":1313:1340   */\n      tag_324\n      jump\t// in\n    tag_383:\n        /* \"#utility.yul\":1305:1311   */\n      dup2\n        /* \"#utility.yul\":1301:1341   */\n      add\n        /* \"#utility.yul\":1443:1449   */\n      dup2\n        /* \"#utility.yul\":1431:1441   */\n      dup2\n        /* \"#utility.yul\":1428:1450   */\n      lt\n        /* \"#utility.yul\":1407:1425   */\n      0xffffffffffffffff\n        /* \"#utility.yul\":1395:1405   */\n      dup3\n        /* \"#utility.yul\":1392:1426   */\n      gt\n        /* \"#utility.yul\":1389:1451   */\n      or\n        /* \"#utility.yul\":1386:1474   */\n      iszero\n      tag_384\n      jumpi\n        /* \"#utility.yul\":1454:1472   */\n      tag_385\n      tag_121\n      jump\t// in\n    tag_385:\n        /* \"#utility.yul\":1386:1474   */\n    tag_384:\n        /* \"#utility.yul\":1494:1504   */\n      dup1\n        /* \"#utility.yul\":1490:1492   */\n      0x40\n        /* \"#utility.yul\":1483:1505   */\n      mstore\n        /* \"#utility.yul\":1273:1511   */\n      pop\n        /* \"#utility.yul\":1230:1511   */\n      pop\n      pop\n      jump\t// out\n        /* \"#utility.yul\":1517:1646   */\n    tag_326:\n        /* \"#utility.yul\":1551:1557   */\n      0x00\n        /* \"#utility.yul\":1578:1598   */\n      tag_387\n      tag_316\n      jump\t// in\n    tag_387:\n        /* \"#utility.yul\":1568:1598   */\n      swap1\n      pop\n        /* \"#utility.yul\":1607:1640   */\n      tag_388\n        /* \"#utility.yul\":1635:1639   */\n      dup3\n        /* \"#utility.yul\":1627:1633   */\n      dup3\n        /* \"#utility.yul\":1607:1640   */\n      tag_325\n      jump\t// in\n    tag_388:\n        /* \"#utility.yul\":1517:1646   */\n      swap2\n      swap1\n      pop\n      jump\t// out\n        /* \"#utility.yul\":1652:1960   */\n    tag_327:\n        /* \"#utility.yul\":1714:1718   */\n      0x00\n        /* \"#utility.yul\":1804:1822   */\n      0xffffffffffffffff\n        /* \"#utility.yul\":1796:1802   */\n      dup3\n        /* \"#utility.yul\":1793:1823   */\n      gt\n        /* \"#utility.yul\":1790:1846   */\n      iszero\n      tag_390\n      jumpi\n        /* \"#utility.yul\":1826:1844   */\n      tag_391\n      tag_121\n      jump\t// in\n    tag_391:\n        /* \"#utility.yul\":1790:1846   */\n    tag_390:\n        /* \"#utility.yul\":1864:1893   */\n      tag_392\n        /* \"#utility.yul\":1886:1892   */\n      dup3\n        /* \"#utility.yul\":1864:1893   */\n      tag_324\n      jump\t// in\n    tag_392:\n        /* \"#utility.yul\":1856:1893   */\n      swap1\n      pop\n        /* \"#utility.yul\":1948:1952   */\n      0x20\n        /* \"#utility.yul\":1942:1946   */\n      dup2\n        /* \"#utility.yul\":1938:1953   */\n      add\n        /* \"#utility.yul\":1930:1953   */\n      swap1\n      pop\n        /* \"#utility.yul\":1652:1960   */\n      swap2\n      swap1\n      pop\n      jump\t// out\n        /* \"#utility.yul\":1966:2120   */\n    tag_328:\n        /* \"#utility.yul\":2050:2056   */\n      dup3\n        /* \"#utility.yul\":2045:2048   */\n      dup2\n        /* \"#utility.yul\":2040:2043   */\n      dup4\n        /* \"#utility.yul\":2027:2057   */\n      calldatacopy\n        /* \"#utility.yul\":2112:2113   */\n      0x00\n        /* \"#utility.yul\":2103:2109   */\n      dup4\n        /* \"#utility.yul\":2098:2101   */\n      dup4\n        /* \"#utility.yul\":2094:2110   */\n      add\n        /* \"#utility.yul\":2087:2114   */\n      mstore\n        /* \"#utility.yul\":1966:2120   */\n      pop\n      pop\n      pop\n      jump\t// out\n        /* \"#utility.yul\":2126:2538   */\n    tag_329:\n        /* \"#utility.yul\":2204:2209   */\n      0x00\n        /* \"#utility.yul\":2229:2295   */\n      tag_395\n        /* \"#utility.yul\":2245:2294   */\n      tag_396\n        /* \"#utility.yul\":2287:2293   */\n      dup5\n        /* \"#utility.yul\":2245:2294   */\n      tag_327\n      jump\t// in\n    tag_396:\n        /* \"#utility.yul\":2229:2295   */\n      tag_326\n      jump\t// in\n    tag_395:\n        /* \"#utility.yul\":2220:2295   */\n      swap1\n      pop\n        /* \"#utility.yul\":2318:2324   */\n      dup3\n        /* \"#utility.yul\":2311:2316   */\n      dup2\n        /* \"#utility.yul\":2304:2325   */\n      mstore\n        /* \"#utility.yul\":2356:2360   */\n      0x20\n        /* \"#utility.yul\":2349:2354   */\n      dup2\n        /* \"#utility.yul\":2345:2361   */\n      add\n        /* \"#utility.yul\":2394:2397   */\n      dup5\n        /* \"#utility.yul\":2385:2391   */\n      dup5\n        /* \"#utility.yul\":2380:2383   */\n      dup5\n        /* \"#utility.yul\":2376:2392   */\n      add\n        /* \"#utility.yul\":2373:2398   */\n      gt\n        /* \"#utility.yul\":2370:2482   */\n      iszero\n      tag_397\n      jumpi\n        /* \"#utility.yul\":2401:2480   */\n      tag_398\n      tag_323\n      jump\t// in\n    tag_398:\n        /* \"#utility.yul\":2370:2482   */\n    tag_397:\n        /* \"#utility.yul\":2491:2532   */\n      tag_399\n        /* \"#utility.yul\":2525:2531   */\n      dup5\n        /* \"#utility.yul\":2520:2523   */\n      dup3\n        /* \"#utility.yul\":2515:2518   */\n      dup6\n        /* \"#utility.yul\":2491:2532   */\n      tag_328\n      jump\t// in\n    tag_399:\n        /* \"#utility.yul\":2210:2538   */\n      pop\n        /* \"#utility.yul\":2126:2538   */\n      swap4\n      swap3\n      pop\n      pop\n      pop\n      jump\t// out\n        /* \"#utility.yul\":2558:2898   */\n    tag_330:\n        /* \"#utility.yul\":2614:2619   */\n      0x00\n        /* \"#utility.yul\":2663:2666   */\n      dup3\n        /* \"#utility.yul\":2656:2660   */\n      0x1f\n        /* \"#utility.yul\":2648:2654   */\n      dup4\n        /* \"#utility.yul\":2644:2661   */\n      add\n        /* \"#utility.yul\":2640:2667   */\n      slt\n        /* \"#utility.yul\":2630:2752   */\n      tag_401\n      jumpi\n        /* \"#utility.yul\":2671:2750   */\n      tag_402\n      tag_322\n      jump\t// in\n    tag_402:\n        /* \"#utility.yul\":2630:2752   */\n    tag_401:\n        /* \"#utility.yul\":2788:2794   */\n      dup2\n        /* \"#utility.yul\":2775:2795   */\n      calldataload\n        /* \"#utility.yul\":2813:2892   */\n      tag_403\n        /* \"#utility.yul\":2888:2891   */\n      dup5\n        /* \"#utility.yul\":2880:2886   */\n      dup3\n        /* \"#utility.yul\":2873:2877   */\n      0x20\n        /* \"#utility.yul\":2865:2871   */\n      dup7\n        /* \"#utility.yul\":2861:2878   */\n      add\n        /* \"#utility.yul\":2813:2892   */\n      tag_329\n      jump\t// in\n    tag_403:\n        /* \"#utility.yul\":2804:2892   */\n      swap2\n      pop\n        /* \"#utility.yul\":2620:2898   */\n      pop\n        /* \"#utility.yul\":2558:2898   */\n      swap3\n      swap2\n      pop\n      pop\n      jump\t// out\n        /* \"#utility.yul\":2904:3153   */\n    tag_331:\n        /* \"#utility.yul\":2979:2983   */\n      0x00\n        /* \"#utility.yul\":3069:3087   */\n      0xffffffffffffffff\n        /* \"#utility.yul\":3061:3067   */\n      dup3\n        /* \"#utility.yul\":3058:3088   */\n      gt\n        /* \"#utility.yul\":3055:3111   */\n      iszero\n      tag_405\n      jumpi\n        /* \"#utility.yul\":3091:3109   */\n      tag_406\n      tag_121\n      jump\t// in\n    tag_406:\n        /* \"#utility.yul\":3055:3111   */\n    tag_405:\n        /* \"#utility.yul\":3141:3145   */\n      0x20\n        /* \"#utility.yul\":3133:3139   */\n      dup3\n        /* \"#utility.yul\":3129:3146   */\n      mul\n        /* \"#utility.yul\":3121:3146   */\n      swap1\n      pop\n        /* \"#utility.yul\":2904:3153   */\n      swap2\n      swap1\n      pop\n      jump\t// out\n        /* \"#utility.yul\":3159:3276   */\n    tag_332:\n        /* \"#utility.yul\":3268:3269   */\n      0x00\n        /* \"#utility.yul\":3265:3266   */\n      dup1\n        /* \"#utility.yul\":3258:3270   */\n      revert\n        /* \"#utility.yul\":3282:3408   */\n    tag_333:\n        /* \"#utility.yul\":3319:3326   */\n      0x00\n        /* \"#utility.yul\":3359:3401   */\n      0xffffffffffffffffffffffffffffffffffffffff\n        /* \"#utility.yul\":3352:3357   */\n      dup3\n        /* \"#utility.yul\":3348:3402   */\n      and\n        /* \"#utility.yul\":3337:3402   */\n      swap1\n      pop\n        /* \"#utility.yul\":3282:3408   */\n      swap2\n      swap1\n      pop\n      jump\t// out\n        /* \"#utility.yul\":3414:3510   */\n    tag_334:\n        /* \"#utility.yul\":3451:3458   */\n      0x00\n        /* \"#utility.yul\":3480:3504   */\n      tag_410\n        /* \"#utility.yul\":3498:3503   */\n      dup3\n        /* \"#utility.yul\":3480:3504   */\n      tag_333\n      jump\t// in\n    tag_410:\n        /* \"#utility.yul\":3469:3504   */\n      swap1\n      pop\n        /* \"#utility.yul\":3414:3510   */\n      swap2\n      swap1\n      pop\n      jump\t// out\n        /* \"#utility.yul\":3516:3638   */\n    tag_335:\n        /* \"#utility.yul\":3589:3613   */\n      tag_412\n        /* \"#utility.yul\":3607:3612   */\n      dup2\n        /* \"#utility.yul\":3589:3613   */\n      tag_334\n      jump\t// in\n    tag_412:\n        /* \"#utility.yul\":3582:3587   */\n      dup2\n        /* \"#utility.yul\":3579:3614   */\n      eq\n        /* \"#utility.yul\":3569:3632   */\n      tag_413\n      jumpi\n        /* \"#utility.yul\":3628:3629   */\n      0x00\n        /* \"#utility.yul\":3625:3626   */\n      dup1\n        /* \"#utility.yul\":3618:3630   */\n      revert\n        /* \"#utility.yul\":3569:3632   */\n    tag_413:\n        /* \"#utility.yul\":3516:3638   */\n      pop\n      jump\t// out\n        /* \"#utility.yul\":3644:3783   */\n    tag_336:\n        /* \"#utility.yul\":3690:3695   */\n      0x00\n        /* \"#utility.yul\":3728:3734   */\n      dup2\n        /* \"#utility.yul\":3715:3735   */\n      calldataload\n        /* \"#utility.yul\":3706:3735   */\n      swap1\n      pop\n        /* \"#utility.yul\":3744:3777   */\n      tag_415\n        /* \"#utility.yul\":3771:3776   */\n      dup2\n        /* \"#utility.yul\":3744:3777   */\n      tag_335\n      jump\t// in\n    tag_415:\n        /* \"#utility.yul\":3644:3783   */\n      swap3\n      swap2\n      pop\n      pop\n      jump\t// out\n        /* \"#utility.yul\":3807:4450   */\n    tag_337:\n        /* \"#utility.yul\":3901:3906   */\n      0x00\n        /* \"#utility.yul\":3926:4005   */\n      tag_417\n        /* \"#utility.yul\":3942:4004   */\n      tag_418\n        /* \"#utility.yul\":3997:4003   */\n      dup5\n        /* \"#utility.yul\":3942:4004   */\n      tag_331\n      jump\t// in\n    tag_418:\n        /* \"#utility.yul\":3926:4005   */\n      tag_326\n      jump\t// in\n    tag_417:\n        /* \"#utility.yul\":3917:4005   */\n      swap1\n      pop\n        /* \"#utility.yul\":4025:4030   */\n      dup1\n        /* \"#utility.yul\":4078:4082   */\n      0x20\n        /* \"#utility.yul\":4070:4076   */\n      dup5\n        /* \"#utility.yul\":4066:4083   */\n      mul\n        /* \"#utility.yul\":4058:4064   */\n      dup4\n        /* \"#utility.yul\":4054:4084   */\n      add\n        /* \"#utility.yul\":4107:4110   */\n      dup6\n        /* \"#utility.yul\":4099:4105   */\n      dup2\n        /* \"#utility.yul\":4096:4111   */\n      gt\n        /* \"#utility.yul\":4093:4215   */\n      iszero\n      tag_419\n      jumpi\n        /* \"#utility.yul\":4126:4205   */\n      tag_420\n      tag_332\n      jump\t// in\n    tag_420:\n        /* \"#utility.yul\":4093:4215   */\n    tag_419:\n        /* \"#utility.yul\":4241:4247   */\n      dup4\n        /* \"#utility.yul\":4224:4444   */\n    tag_421:\n        /* \"#utility.yul\":4258:4264   */\n      dup2\n        /* \"#utility.yul\":4253:4256   */\n      dup2\n        /* \"#utility.yul\":4250:4265   */\n      lt\n        /* \"#utility.yul\":4224:4444   */\n      iszero\n      tag_423\n      jumpi\n        /* \"#utility.yul\":4333:4336   */\n      dup1\n        /* \"#utility.yul\":4362:4399   */\n      tag_424\n        /* \"#utility.yul\":4395:4398   */\n      dup9\n        /* \"#utility.yul\":4383:4393   */\n      dup3\n        /* \"#utility.yul\":4362:4399   */\n      tag_336\n      jump\t// in\n    tag_424:\n        /* \"#utility.yul\":4357:4360   */\n      dup5\n        /* \"#utility.yul\":4350:4400   */\n      mstore\n        /* \"#utility.yul\":4429:4433   */\n      0x20\n        /* \"#utility.yul\":4424:4427   */\n      dup5\n        /* \"#utility.yul\":4420:4434   */\n      add\n        /* \"#utility.yul\":4413:4434   */\n      swap4\n      pop\n        /* \"#utility.yul\":4300:4444   */\n      pop\n        /* \"#utility.yul\":4284:4288   */\n      0x20\n        /* \"#utility.yul\":4279:4282   */\n      dup2\n        /* \"#utility.yul\":4275:4289   */\n      add\n        /* \"#utility.yul\":4268:4289   */\n      swap1\n      pop\n        /* \"#utility.yul\":4224:4444   */\n      jump(tag_421)\n    tag_423:\n        /* \"#utility.yul\":4228:4249   */\n      pop\n        /* \"#utility.yul\":3907:4450   */\n      pop\n      pop\n        /* \"#utility.yul\":3807:4450   */\n      swap4\n      swap3\n      pop\n      pop\n      pop\n      jump\t// out\n        /* \"#utility.yul\":4474:4813   */\n    tag_338:\n        /* \"#utility.yul\":4543:4548   */\n      0x00\n        /* \"#utility.yul\":4592:4595   */\n      dup3\n        /* \"#utility.yul\":4585:4589   */\n      0x1f\n        /* \"#utility.yul\":4577:4583   */\n      dup4\n        /* \"#utility.yul\":4573:4590   */\n      add\n        /* \"#utility.yul\":4569:4596   */\n      slt\n        /* \"#utility.yul\":4559:4681   */\n      tag_426\n      jumpi\n        /* \"#utility.yul\":4600:4679   */\n      tag_427\n      tag_322\n      jump\t// in\n    tag_427:\n        /* \"#utility.yul\":4559:4681   */\n    tag_426:\n        /* \"#utility.yul\":4704:4708   */\n      0x02\n        /* \"#utility.yul\":4726:4807   */\n      tag_428\n        /* \"#utility.yul\":4803:4806   */\n      dup5\n        /* \"#utility.yul\":4795:4801   */\n      dup3\n        /* \"#utility.yul\":4787:4793   */\n      dup6\n        /* \"#utility.yul\":4726:4807   */\n      tag_337\n      jump\t// in\n    tag_428:\n        /* \"#utility.yul\":4717:4807   */\n      swap2\n      pop\n        /* \"#utility.yul\":4549:4813   */\n      pop\n        /* \"#utility.yul\":4474:4813   */\n      swap3\n      swap2\n      pop\n      pop\n      jump\t// out\n        /* \"#utility.yul\":4819:6754   */\n    tag_18:\n        /* \"#utility.yul\":4994:5000   */\n      0x00\n        /* \"#utility.yul\":5002:5008   */\n      dup1\n        /* \"#utility.yul\":5010:5016   */\n      0x00\n        /* \"#utility.yul\":5018:5024   */\n      dup1\n        /* \"#utility.yul\":5026:5032   */\n      0x00\n        /* \"#utility.yul\":5034:5040   */\n      dup1\n        /* \"#utility.yul\":5042:5048   */\n      0x00\n        /* \"#utility.yul\":5050:5056   */\n      dup1\n        /* \"#utility.yul\":5099:5102   */\n      0x0120\n        /* \"#utility.yul\":5087:5096   */\n      dup10\n        /* \"#utility.yul\":5078:5085   */\n      dup12\n        /* \"#utility.yul\":5074:5097   */\n      sub\n        /* \"#utility.yul\":5070:5103   */\n      slt\n        /* \"#utility.yul\":5067:5187   */\n      iszero\n      tag_430\n      jumpi\n        /* \"#utility.yul\":5106:5185   */\n      tag_431\n      tag_317\n      jump\t// in\n    tag_431:\n        /* \"#utility.yul\":5067:5187   */\n    tag_430:\n        /* \"#utility.yul\":5226:5227   */\n      0x00\n        /* \"#utility.yul\":5251:5304   */\n      tag_432\n        /* \"#utility.yul\":5296:5303   */\n      dup12\n        /* \"#utility.yul\":5287:5293   */\n      dup3\n        /* \"#utility.yul\":5276:5285   */\n      dup13\n        /* \"#utility.yul\":5272:5294   */\n      add\n        /* \"#utility.yul\":5251:5304   */\n      tag_321\n      jump\t// in\n    tag_432:\n        /* \"#utility.yul\":5241:5304   */\n      swap9\n      pop\n        /* \"#utility.yul\":5197:5314   */\n      pop\n        /* \"#utility.yul\":5353:5355   */\n      0x20\n        /* \"#utility.yul\":5379:5432   */\n      tag_433\n        /* \"#utility.yul\":5424:5431   */\n      dup12\n        /* \"#utility.yul\":5415:5421   */\n      dup3\n        /* \"#utility.yul\":5404:5413   */\n      dup13\n        /* \"#utility.yul\":5400:5422   */\n      add\n        /* \"#utility.yul\":5379:5432   */\n      tag_321\n      jump\t// in\n    tag_433:\n        /* \"#utility.yul\":5369:5432   */\n      swap8\n      pop\n        /* \"#utility.yul\":5324:5442   */\n      pop\n        /* \"#utility.yul\":5481:5483   */\n      0x40\n        /* \"#utility.yul\":5507:5560   */\n      tag_434\n        /* \"#utility.yul\":5552:5559   */\n      dup12\n        /* \"#utility.yul\":5543:5549   */\n      dup3\n        /* \"#utility.yul\":5532:5541   */\n      dup13\n        /* \"#utility.yul\":5528:5550   */\n      add\n        /* \"#utility.yul\":5507:5560   */\n      tag_321\n      jump\t// in\n    tag_434:\n        /* \"#utility.yul\":5497:5560   */\n      swap7\n      pop\n        /* \"#utility.yul\":5452:5570   */\n      pop\n        /* \"#utility.yul\":5609:5611   */\n      0x60\n        /* \"#utility.yul\":5635:5688   */\n      tag_435\n        /* \"#utility.yul\":5680:5687   */\n      dup12\n        /* \"#utility.yul\":5671:5677   */\n      dup3\n        /* \"#utility.yul\":5660:5669   */\n      dup13\n        /* \"#utility.yul\":5656:5678   */\n      add\n        /* \"#utility.yul\":5635:5688   */\n      tag_321\n      jump\t// in\n    tag_435:\n        /* \"#utility.yul\":5625:5688   */\n      swap6\n      pop\n        /* \"#utility.yul\":5580:5698   */\n      pop\n        /* \"#utility.yul\":5765:5768   */\n      0x80\n        /* \"#utility.yul\":5754:5763   */\n      dup10\n        /* \"#utility.yul\":5750:5769   */\n      add\n        /* \"#utility.yul\":5737:5770   */\n      calldataload\n        /* \"#utility.yul\":5797:5815   */\n      0xffffffffffffffff\n        /* \"#utility.yul\":5789:5795   */\n      dup2\n        /* \"#utility.yul\":5786:5816   */\n      gt\n        /* \"#utility.yul\":5783:5900   */\n      iszero\n      tag_436\n      jumpi\n        /* \"#utility.yul\":5819:5898   */\n      tag_437\n      tag_318\n      jump\t// in\n    tag_437:\n        /* \"#utility.yul\":5783:5900   */\n    tag_436:\n        /* \"#utility.yul\":5924:5987   */\n      tag_438\n        /* \"#utility.yul\":5979:5986   */\n      dup12\n        /* \"#utility.yul\":5970:5976   */\n      dup3\n        /* \"#utility.yul\":5959:5968   */\n      dup13\n        /* \"#utility.yul\":5955:5977   */\n      add\n        /* \"#utility.yul\":5924:5987   */\n      tag_330\n      jump\t// in\n    tag_438:\n        /* \"#utility.yul\":5914:5987   */\n      swap5\n      pop\n        /* \"#utility.yul\":5708:5997   */\n      pop\n        /* \"#utility.yul\":6064:6067   */\n      0xa0\n        /* \"#utility.yul\":6053:6062   */\n      dup10\n        /* \"#utility.yul\":6049:6068   */\n      add\n        /* \"#utility.yul\":6036:6069   */\n      calldataload\n        /* \"#utility.yul\":6096:6114   */\n      0xffffffffffffffff\n        /* \"#utility.yul\":6088:6094   */\n      dup2\n        /* \"#utility.yul\":6085:6115   */\n      gt\n        /* \"#utility.yul\":6082:6199   */\n      iszero\n      tag_439\n      jumpi\n        /* \"#utility.yul\":6118:6197   */\n      tag_440\n      tag_318\n      jump\t// in\n    tag_440:\n        /* \"#utility.yul\":6082:6199   */\n    tag_439:\n        /* \"#utility.yul\":6223:6286   */\n      tag_441\n        /* \"#utility.yul\":6278:6285   */\n      dup12\n        /* \"#utility.yul\":6269:6275   */\n      dup3\n        /* \"#utility.yul\":6258:6267   */\n      dup13\n        /* \"#utility.yul\":6254:6276   */\n      add\n        /* \"#utility.yul\":6223:6286   */\n      tag_330\n      jump\t// in\n    tag_441:\n        /* \"#utility.yul\":6213:6286   */\n      swap4\n      pop\n        /* \"#utility.yul\":6007:6296   */\n      pop\n        /* \"#utility.yul\":6363:6366   */\n      0xc0\n        /* \"#utility.yul\":6352:6361   */\n      dup10\n        /* \"#utility.yul\":6348:6367   */\n      add\n        /* \"#utility.yul\":6335:6368   */\n      calldataload\n        /* \"#utility.yul\":6395:6413   */\n      0xffffffffffffffff\n        /* \"#utility.yul\":6387:6393   */\n      dup2\n        /* \"#utility.yul\":6384:6414   */\n      gt\n        /* \"#utility.yul\":6381:6498   */\n      iszero\n      tag_442\n      jumpi\n        /* \"#utility.yul\":6417:6496   */\n      tag_443\n      tag_318\n      jump\t// in\n    tag_443:\n        /* \"#utility.yul\":6381:6498   */\n    tag_442:\n        /* \"#utility.yul\":6522:6585   */\n      tag_444\n        /* \"#utility.yul\":6577:6584   */\n      dup12\n        /* \"#utility.yul\":6568:6574   */\n      dup3\n        /* \"#utility.yul\":6557:6566   */\n      dup13\n        /* \"#utility.yul\":6553:6575   */\n      add\n        /* \"#utility.yul\":6522:6585   */\n      tag_330\n      jump\t// in\n    tag_444:\n        /* \"#utility.yul\":6512:6585   */\n      swap3\n      pop\n        /* \"#utility.yul\":6306:6595   */\n      pop\n        /* \"#utility.yul\":6634:6637   */\n      0xe0\n        /* \"#utility.yul\":6661:6737   */\n      tag_445\n        /* \"#utility.yul\":6729:6736   */\n      dup12\n        /* \"#utility.yul\":6720:6726   */\n      dup3\n        /* \"#utility.yul\":6709:6718   */\n      dup13\n        /* \"#utility.yul\":6705:6727   */\n      add\n        /* \"#utility.yul\":6661:6737   */\n      tag_338\n      jump\t// in\n    tag_445:\n        /* \"#utility.yul\":6651:6737   */\n      swap2\n      pop\n        /* \"#utility.yul\":6605:6747   */\n      pop\n        /* \"#utility.yul\":4819:6754   */\n      swap3\n      swap6\n      swap9\n      pop\n      swap3\n      swap6\n      swap9\n      swap1\n      swap4\n      swap7\n      pop\n      jump\t// out\n        /* \"#utility.yul\":6760:7460   */\n    tag_22:\n        /* \"#utility.yul\":6861:6867   */\n      0x00\n        /* \"#utility.yul\":6869:6875   */\n      dup1\n        /* \"#utility.yul\":6918:6920   */\n      0x60\n        /* \"#utility.yul\":6906:6915   */\n      dup4\n        /* \"#utility.yul\":6897:6904   */\n      dup6\n        /* \"#utility.yul\":6893:6916   */\n      sub\n        /* \"#utility.yul\":6889:6921   */\n      slt\n        /* \"#utility.yul\":6886:7005   */\n      iszero\n      tag_447\n      jumpi\n        /* \"#utility.yul\":6924:7003   */\n      tag_448\n      tag_317\n      jump\t// in\n    tag_448:\n        /* \"#utility.yul\":6886:7005   */\n    tag_447:\n        /* \"#utility.yul\":7072:7073   */\n      0x00\n        /* \"#utility.yul\":7061:7070   */\n      dup4\n        /* \"#utility.yul\":7057:7074   */\n      add\n        /* \"#utility.yul\":7044:7075   */\n      calldataload\n        /* \"#utility.yul\":7102:7120   */\n      0xffffffffffffffff\n        /* \"#utility.yul\":7094:7100   */\n      dup2\n        /* \"#utility.yul\":7091:7121   */\n      gt\n        /* \"#utility.yul\":7088:7205   */\n      iszero\n      tag_449\n      jumpi\n        /* \"#utility.yul\":7124:7203   */\n      tag_450\n      tag_318\n      jump\t// in\n    tag_450:\n        /* \"#utility.yul\":7088:7205   */\n    tag_449:\n        /* \"#utility.yul\":7229:7292   */\n      tag_451\n        /* \"#utility.yul\":7284:7291   */\n      dup6\n        /* \"#utility.yul\":7275:7281   */\n      dup3\n        /* \"#utility.yul\":7264:7273   */\n      dup7\n        /* \"#utility.yul\":7260:7282   */\n      add\n        /* \"#utility.yul\":7229:7292   */\n      tag_330\n      jump\t// in\n    tag_451:\n        /* \"#utility.yul\":7219:7292   */\n      swap3\n      pop\n        /* \"#utility.yul\":7015:7302   */\n      pop\n        /* \"#utility.yul\":7341:7343   */\n      0x20\n        /* \"#utility.yul\":7367:7443   */\n      tag_452\n        /* \"#utility.yul\":7435:7442   */\n      dup6\n        /* \"#utility.yul\":7426:7432   */\n      dup3\n        /* \"#utility.yul\":7415:7424   */\n      dup7\n        /* \"#utility.yul\":7411:7433   */\n      add\n        /* \"#utility.yul\":7367:7443   */\n      tag_338\n      jump\t// in\n    tag_452:\n        /* \"#utility.yul\":7357:7443   */\n      swap2\n      pop\n        /* \"#utility.yul\":7312:7453   */\n      pop\n        /* \"#utility.yul\":6760:7460   */\n      swap3\n      pop\n      swap3\n      swap1\n      pop\n      jump\t// out\n        /* \"#utility.yul\":7466:7841   */\n    tag_26:\n        /* \"#utility.yul\":7548:7554   */\n      0x00\n        /* \"#utility.yul\":7597:7599   */\n      0x40\n        /* \"#utility.yul\":7585:7594   */\n      dup3\n        /* \"#utility.yul\":7576:7583   */\n      dup5\n        /* \"#utility.yul\":7572:7595   */\n      sub\n        /* \"#utility.yul\":7568:7600   */\n      slt\n        /* \"#utility.yul\":7565:7684   */\n      iszero\n      tag_454\n      jumpi\n        /* \"#utility.yul\":7603:7682   */\n      tag_455\n      tag_317\n      jump\t// in\n    tag_455:\n        /* \"#utility.yul\":7565:7684   */\n    tag_454:\n        /* \"#utility.yul\":7723:7724   */\n      0x00\n        /* \"#utility.yul\":7748:7824   */\n      tag_456\n        /* \"#utility.yul\":7816:7823   */\n      dup5\n        /* \"#utility.yul\":7807:7813   */\n      dup3\n        /* \"#utility.yul\":7796:7805   */\n      dup6\n        /* \"#utility.yul\":7792:7814   */\n      add\n        /* \"#utility.yul\":7748:7824   */\n      tag_338\n      jump\t// in\n    tag_456:\n        /* \"#utility.yul\":7738:7824   */\n      swap2\n      pop\n        /* \"#utility.yul\":7694:7834   */\n      pop\n        /* \"#utility.yul\":7466:7841   */\n      swap3\n      swap2\n      pop\n      pop\n      jump\t// out\n        /* \"#utility.yul\":7847:7946   */\n    tag_339:\n        /* \"#utility.yul\":7899:7905   */\n      0x00\n        /* \"#utility.yul\":7933:7938   */\n      dup2\n        /* \"#utility.yul\":7927:7939   */\n      mload\n        /* \"#utility.yul\":7917:7939   */\n      swap1\n      pop\n        /* \"#utility.yul\":7847:7946   */\n      swap2\n      swap1\n      pop\n      jump\t// out\n        /* \"#utility.yul\":7952:8121   */\n    tag_340:\n        /* \"#utility.yul\":8036:8047   */\n      0x00\n        /* \"#utility.yul\":8070:8076   */\n      dup3\n        /* \"#utility.yul\":8065:8068   */\n      dup3\n        /* \"#utility.yul\":8058:8077   */\n      mstore\n        /* \"#utility.yul\":8110:8114   */\n      0x20\n        /* \"#utility.yul\":8105:8108   */\n      dup3\n        /* \"#utility.yul\":8101:8115   */\n      add\n        /* \"#utility.yul\":8086:8115   */\n      swap1\n      pop\n        /* \"#utility.yul\":7952:8121   */\n      swap3\n      swap2\n      pop\n      pop\n      jump\t// out\n        /* \"#utility.yul\":8127:8434   */\n    tag_341:\n        /* \"#utility.yul\":8195:8196   */\n      0x00\n        /* \"#utility.yul\":8205:8318   */\n    tag_460:\n        /* \"#utility.yul\":8219:8225   */\n      dup4\n        /* \"#utility.yul\":8216:8217   */\n      dup2\n        /* \"#utility.yul\":8213:8226   */\n      lt\n        /* \"#utility.yul\":8205:8318   */\n      iszero\n      tag_462\n      jumpi\n        /* \"#utility.yul\":8304:8305   */\n      dup1\n        /* \"#utility.yul\":8299:8302   */\n      dup3\n        /* \"#utility.yul\":8295:8306   */\n      add\n        /* \"#utility.yul\":8289:8307   */\n      mload\n        /* \"#utility.yul\":8285:8286   */\n      dup2\n        /* \"#utility.yul\":8280:8283   */\n      dup5\n        /* \"#utility.yul\":8276:8287   */\n      add\n        /* \"#utility.yul\":8269:8308   */\n      mstore\n        /* \"#utility.yul\":8241:8243   */\n      0x20\n        /* \"#utility.yul\":8238:8239   */\n      dup2\n        /* \"#utility.yul\":8234:8244   */\n      add\n        /* \"#utility.yul\":8229:8244   */\n      swap1\n      pop\n        /* \"#utility.yul\":8205:8318   */\n      jump(tag_460)\n    tag_462:\n        /* \"#utility.yul\":8336:8342   */\n      dup4\n        /* \"#utility.yul\":8333:8334   */\n      dup2\n        /* \"#utility.yul\":8330:8343   */\n      gt\n        /* \"#utility.yul\":8327:8428   */\n      iszero\n      tag_463\n      jumpi\n        /* \"#utility.yul\":8416:8417   */\n      0x00\n        /* \"#utility.yul\":8407:8413   */\n      dup5\n        /* \"#utility.yul\":8402:8405   */\n      dup5\n        /* \"#utility.yul\":8398:8414   */\n      add\n        /* \"#utility.yul\":8391:8418   */\n      mstore\n        /* \"#utility.yul\":8327:8428   */\n    tag_463:\n        /* \"#utility.yul\":8176:8434   */\n      pop\n        /* \"#utility.yul\":8127:8434   */\n      pop\n      pop\n      pop\n      jump\t// out\n        /* \"#utility.yul\":8440:8804   */\n    tag_342:\n        /* \"#utility.yul\":8528:8531   */\n      0x00\n        /* \"#utility.yul\":8556:8595   */\n      tag_465\n        /* \"#utility.yul\":8589:8594   */\n      dup3\n        /* \"#utility.yul\":8556:8595   */\n      tag_339\n      jump\t// in\n    tag_465:\n        /* \"#utility.yul\":8611:8682   */\n      tag_466\n        /* \"#utility.yul\":8675:8681   */\n      dup2\n        /* \"#utility.yul\":8670:8673   */\n      dup6\n        /* \"#utility.yul\":8611:8682   */\n      tag_340\n      jump\t// in\n    tag_466:\n        /* \"#utility.yul\":8604:8682   */\n      swap4\n      pop\n        /* \"#utility.yul\":8691:8743   */\n      tag_467\n        /* \"#utility.yul\":8736:8742   */\n      dup2\n        /* \"#utility.yul\":8731:8734   */\n      dup6\n        /* \"#utility.yul\":8724:8728   */\n      0x20\n        /* \"#utility.yul\":8717:8722   */\n      dup7\n        /* \"#utility.yul\":8713:8729   */\n      add\n        /* \"#utility.yul\":8691:8743   */\n      tag_341\n      jump\t// in\n    tag_467:\n        /* \"#utility.yul\":8768:8797   */\n      tag_468\n        /* \"#utility.yul\":8790:8796   */\n      dup2\n        /* \"#utility.yul\":8768:8797   */\n      tag_324\n      jump\t// in\n    tag_468:\n        /* \"#utility.yul\":8763:8766   */\n      dup5\n        /* \"#utility.yul\":8759:8798   */\n      add\n        /* \"#utility.yul\":8752:8798   */\n      swap2\n      pop\n        /* \"#utility.yul\":8532:8804   */\n      pop\n        /* \"#utility.yul\":8440:8804   */\n      swap3\n      swap2\n      pop\n      pop\n      jump\t// out\n        /* \"#utility.yul\":8810:9123   */\n    tag_29:\n        /* \"#utility.yul\":8923:8927   */\n      0x00\n        /* \"#utility.yul\":8961:8963   */\n      0x20\n        /* \"#utility.yul\":8950:8959   */\n      dup3\n        /* \"#utility.yul\":8946:8964   */\n      add\n        /* \"#utility.yul\":8938:8964   */\n      swap1\n      pop\n        /* \"#utility.yul\":9010:9019   */\n      dup2\n        /* \"#utility.yul\":9004:9008   */\n      dup2\n        /* \"#utility.yul\":9000:9020   */\n      sub\n        /* \"#utility.yul\":8996:8997   */\n      0x00\n        /* \"#utility.yul\":8985:8994   */\n      dup4\n        /* \"#utility.yul\":8981:8998   */\n      add\n        /* \"#utility.yul\":8974:9021   */\n      mstore\n        /* \"#utility.yul\":9038:9116   */\n      tag_470\n        /* \"#utility.yul\":9111:9115   */\n      dup2\n        /* \"#utility.yul\":9102:9108   */\n      dup5\n        /* \"#utility.yul\":9038:9116   */\n      tag_342\n      jump\t// in\n    tag_470:\n        /* \"#utility.yul\":9030:9116   */\n      swap1\n      pop\n        /* \"#utility.yul\":8810:9123   */\n      swap3\n      swap2\n      pop\n      pop\n      jump\t// out\n        /* \"#utility.yul\":9129:9247   */\n    tag_343:\n        /* \"#utility.yul\":9216:9240   */\n      tag_472\n        /* \"#utility.yul\":9234:9239   */\n      dup2\n        /* \"#utility.yul\":9216:9240   */\n      tag_334\n      jump\t// in\n    tag_472:\n        /* \"#utility.yul\":9211:9214   */\n      dup3\n        /* \"#utility.yul\":9204:9241   */\n      mstore\n        /* \"#utility.yul\":9129:9247   */\n      pop\n      pop\n      jump\t// out\n        /* \"#utility.yul\":9253:9475   */\n    tag_33:\n        /* \"#utility.yul\":9346:9350   */\n      0x00\n        /* \"#utility.yul\":9384:9386   */\n      0x20\n        /* \"#utility.yul\":9373:9382   */\n      dup3\n        /* \"#utility.yul\":9369:9387   */\n      add\n        /* \"#utility.yul\":9361:9387   */\n      swap1\n      pop\n        /* \"#utility.yul\":9397:9468   */\n      tag_474\n        /* \"#utility.yul\":9465:9466   */\n      0x00\n        /* \"#utility.yul\":9454:9463   */\n      dup4\n        /* \"#utility.yul\":9450:9467   */\n      add\n        /* \"#utility.yul\":9441:9447   */\n      dup5\n        /* \"#utility.yul\":9397:9468   */\n      tag_343\n      jump\t// in\n    tag_474:\n        /* \"#utility.yul\":9253:9475   */\n      swap3\n      swap2\n      pop\n      pop\n      jump\t// out\n        /* \"#utility.yul\":9481:10001   */\n    tag_36:\n        /* \"#utility.yul\":9572:9578   */\n      0x00\n        /* \"#utility.yul\":9580:9586   */\n      dup1\n        /* \"#utility.yul\":9629:9631   */\n      0x60\n        /* \"#utility.yul\":9617:9626   */\n      dup4\n        /* \"#utility.yul\":9608:9615   */\n      dup6\n        /* \"#utility.yul\":9604:9627   */\n      sub\n        /* \"#utility.yul\":9600:9632   */\n      slt\n        /* \"#utility.yul\":9597:9716   */\n      iszero\n      tag_476\n      jumpi\n        /* \"#utility.yul\":9635:9714   */\n      tag_477\n      tag_317\n      jump\t// in\n    tag_477:\n        /* \"#utility.yul\":9597:9716   */\n    tag_476:\n        /* \"#utility.yul\":9755:9756   */\n      0x00\n        /* \"#utility.yul\":9780:9833   */\n      tag_478\n        /* \"#utility.yul\":9825:9832   */\n      dup6\n        /* \"#utility.yul\":9816:9822   */\n      dup3\n        /* \"#utility.yul\":9805:9814   */\n      dup7\n        /* \"#utility.yul\":9801:9823   */\n      add\n        /* \"#utility.yul\":9780:9833   */\n      tag_321\n      jump\t// in\n    tag_478:\n        /* \"#utility.yul\":9770:9833   */\n      swap3\n      pop\n        /* \"#utility.yul\":9726:9843   */\n      pop\n        /* \"#utility.yul\":9882:9884   */\n      0x20\n        /* \"#utility.yul\":9908:9984   */\n      tag_479\n        /* \"#utility.yul\":9976:9983   */\n      dup6\n        /* \"#utility.yul\":9967:9973   */\n      dup3\n        /* \"#utility.yul\":9956:9965   */\n      dup7\n        /* \"#utility.yul\":9952:9974   */\n      add\n        /* \"#utility.yul\":9908:9984   */\n      tag_338\n      jump\t// in\n    tag_479:\n        /* \"#utility.yul\":9898:9984   */\n      swap2\n      pop\n        /* \"#utility.yul\":9853:9994   */\n      pop\n        /* \"#utility.yul\":9481:10001   */\n      swap3\n      pop\n      swap3\n      swap1\n      pop\n      jump\t// out\n        /* \"#utility.yul\":10007:10121   */\n    tag_344:\n        /* \"#utility.yul\":10074:10080   */\n      0x00\n        /* \"#utility.yul\":10108:10113   */\n      dup2\n        /* \"#utility.yul\":10102:10114   */\n      mload\n        /* \"#utility.yul\":10092:10114   */\n      swap1\n      pop\n        /* \"#utility.yul\":10007:10121   */\n      swap2\n      swap1\n      pop\n      jump\t// out\n        /* \"#utility.yul\":10127:10311   */\n    tag_345:\n        /* \"#utility.yul\":10226:10237   */\n      0x00\n        /* \"#utility.yul\":10260:10266   */\n      dup3\n        /* \"#utility.yul\":10255:10258   */\n      dup3\n        /* \"#utility.yul\":10248:10267   */\n      mstore\n        /* \"#utility.yul\":10300:10304   */\n      0x20\n        /* \"#utility.yul\":10295:10298   */\n      dup3\n        /* \"#utility.yul\":10291:10305   */\n      add\n        /* \"#utility.yul\":10276:10305   */\n      swap1\n      pop\n        /* \"#utility.yul\":10127:10311   */\n      swap3\n      swap2\n      pop\n      pop\n      jump\t// out\n        /* \"#utility.yul\":10317:10449   */\n    tag_346:\n        /* \"#utility.yul\":10384:10388   */\n      0x00\n        /* \"#utility.yul\":10407:10410   */\n      dup2\n        /* \"#utility.yul\":10399:10410   */\n      swap1\n      pop\n        /* \"#utility.yul\":10437:10441   */\n      0x20\n        /* \"#utility.yul\":10432:10435   */\n      dup3\n        /* \"#utility.yul\":10428:10442   */\n      add\n        /* \"#utility.yul\":10420:10442   */\n      swap1\n      pop\n        /* \"#utility.yul\":10317:10449   */\n      swap2\n      swap1\n      pop\n      jump\t// out\n        /* \"#utility.yul\":10455:10563   */\n    tag_347:\n        /* \"#utility.yul\":10532:10556   */\n      tag_484\n        /* \"#utility.yul\":10550:10555   */\n      dup2\n        /* \"#utility.yul\":10532:10556   */\n      tag_319\n      jump\t// in\n    tag_484:\n        /* \"#utility.yul\":10527:10530   */\n      dup3\n        /* \"#utility.yul\":10520:10557   */\n      mstore\n        /* \"#utility.yul\":10455:10563   */\n      pop\n      pop\n      jump\t// out\n        /* \"#utility.yul\":10569:10748   */\n    tag_348:\n        /* \"#utility.yul\":10638:10648   */\n      0x00\n        /* \"#utility.yul\":10659:10705   */\n      tag_486\n        /* \"#utility.yul\":10701:10704   */\n      dup4\n        /* \"#utility.yul\":10693:10699   */\n      dup4\n        /* \"#utility.yul\":10659:10705   */\n      tag_347\n      jump\t// in\n    tag_486:\n        /* \"#utility.yul\":10737:10741   */\n      0x20\n        /* \"#utility.yul\":10732:10735   */\n      dup4\n        /* \"#utility.yul\":10728:10742   */\n      add\n        /* \"#utility.yul\":10714:10742   */\n      swap1\n      pop\n        /* \"#utility.yul\":10569:10748   */\n      swap3\n      swap2\n      pop\n      pop\n      jump\t// out\n        /* \"#utility.yul\":10754:10867   */\n    tag_349:\n        /* \"#utility.yul\":10824:10828   */\n      0x00\n        /* \"#utility.yul\":10856:10860   */\n      0x20\n        /* \"#utility.yul\":10851:10854   */\n      dup3\n        /* \"#utility.yul\":10847:10861   */\n      add\n        /* \"#utility.yul\":10839:10861   */\n      swap1\n      pop\n        /* \"#utility.yul\":10754:10867   */\n      swap2\n      swap1\n      pop\n      jump\t// out\n        /* \"#utility.yul\":10903:11635   */\n    tag_350:\n        /* \"#utility.yul\":11022:11025   */\n      0x00\n        /* \"#utility.yul\":11051:11105   */\n      tag_489\n        /* \"#utility.yul\":11099:11104   */\n      dup3\n        /* \"#utility.yul\":11051:11105   */\n      tag_344\n      jump\t// in\n    tag_489:\n        /* \"#utility.yul\":11121:11207   */\n      tag_490\n        /* \"#utility.yul\":11200:11206   */\n      dup2\n        /* \"#utility.yul\":11195:11198   */\n      dup6\n        /* \"#utility.yul\":11121:11207   */\n      tag_345\n      jump\t// in\n    tag_490:\n        /* \"#utility.yul\":11114:11207   */\n      swap4\n      pop\n        /* \"#utility.yul\":11231:11287   */\n      tag_491\n        /* \"#utility.yul\":11281:11286   */\n      dup4\n        /* \"#utility.yul\":11231:11287   */\n      tag_346\n      jump\t// in\n    tag_491:\n        /* \"#utility.yul\":11310:11317   */\n      dup1\n        /* \"#utility.yul\":11341:11342   */\n      0x00\n        /* \"#utility.yul\":11326:11610   */\n    tag_492:\n        /* \"#utility.yul\":11351:11357   */\n      dup4\n        /* \"#utility.yul\":11348:11349   */\n      dup2\n        /* \"#utility.yul\":11345:11358   */\n      lt\n        /* \"#utility.yul\":11326:11610   */\n      iszero\n      tag_494\n      jumpi\n        /* \"#utility.yul\":11427:11433   */\n      dup2\n        /* \"#utility.yul\":11421:11434   */\n      mload\n        /* \"#utility.yul\":11454:11517   */\n      tag_495\n        /* \"#utility.yul\":11513:11516   */\n      dup9\n        /* \"#utility.yul\":11498:11511   */\n      dup3\n        /* \"#utility.yul\":11454:11517   */\n      tag_348\n      jump\t// in\n    tag_495:\n        /* \"#utility.yul\":11447:11517   */\n      swap8\n      pop\n        /* \"#utility.yul\":11540:11600   */\n      tag_496\n        /* \"#utility.yul\":11593:11599   */\n      dup4\n        /* \"#utility.yul\":11540:11600   */\n      tag_349\n      jump\t// in\n    tag_496:\n        /* \"#utility.yul\":11530:11600   */\n      swap3\n      pop\n        /* \"#utility.yul\":11386:11610   */\n      pop\n        /* \"#utility.yul\":11373:11374   */\n      0x01\n        /* \"#utility.yul\":11370:11371   */\n      dup2\n        /* \"#utility.yul\":11366:11375   */\n      add\n        /* \"#utility.yul\":11361:11375   */\n      swap1\n      pop\n        /* \"#utility.yul\":11326:11610   */\n      jump(tag_492)\n    tag_494:\n        /* \"#utility.yul\":11330:11344   */\n      pop\n        /* \"#utility.yul\":11626:11629   */\n      dup6\n        /* \"#utility.yul\":11619:11629   */\n      swap4\n      pop\n        /* \"#utility.yul\":11027:11635   */\n      pop\n      pop\n      pop\n        /* \"#utility.yul\":10903:11635   */\n      swap3\n      swap2\n      pop\n      pop\n      jump\t// out\n        /* \"#utility.yul\":11641:11765   */\n    tag_351:\n        /* \"#utility.yul\":11718:11724   */\n      0x00\n        /* \"#utility.yul\":11752:11757   */\n      dup2\n        /* \"#utility.yul\":11746:11758   */\n      mload\n        /* \"#utility.yul\":11736:11758   */\n      swap1\n      pop\n        /* \"#utility.yul\":11641:11765   */\n      swap2\n      swap1\n      pop\n      jump\t// out\n        /* \"#utility.yul\":11771:11965   */\n    tag_352:\n        /* \"#utility.yul\":11880:11891   */\n      0x00\n        /* \"#utility.yul\":11914:11920   */\n      dup3\n        /* \"#utility.yul\":11909:11912   */\n      dup3\n        /* \"#utility.yul\":11902:11921   */\n      mstore\n        /* \"#utility.yul\":11954:11958   */\n      0x20\n        /* \"#utility.yul\":11949:11952   */\n      dup3\n        /* \"#utility.yul\":11945:11959   */\n      add\n        /* \"#utility.yul\":11930:11959   */\n      swap1\n      pop\n        /* \"#utility.yul\":11771:11965   */\n      swap3\n      swap2\n      pop\n      pop\n      jump\t// out\n        /* \"#utility.yul\":11971:12113   */\n    tag_353:\n        /* \"#utility.yul\":12048:12052   */\n      0x00\n        /* \"#utility.yul\":12071:12074   */\n      dup2\n        /* \"#utility.yul\":12063:12074   */\n      swap1\n      pop\n        /* \"#utility.yul\":12101:12105   */\n      0x20\n        /* \"#utility.yul\":12096:12099   */\n      dup3\n        /* \"#utility.yul\":12092:12106   */\n      add\n        /* \"#utility.yul\":12084:12106   */\n      swap1\n      pop\n        /* \"#utility.yul\":11971:12113   */\n      swap2\n      swap1\n      pop\n      jump\t// out\n        /* \"#utility.yul\":12119:12278   */\n    tag_354:\n        /* \"#utility.yul\":12193:12204   */\n      0x00\n        /* \"#utility.yul\":12227:12233   */\n      dup3\n        /* \"#utility.yul\":12222:12225   */\n      dup3\n        /* \"#utility.yul\":12215:12234   */\n      mstore\n        /* \"#utility.yul\":12267:12271   */\n      0x20\n        /* \"#utility.yul\":12262:12265   */\n      dup3\n        /* \"#utility.yul\":12258:12272   */\n      add\n        /* \"#utility.yul\":12243:12272   */\n      swap1\n      pop\n        /* \"#utility.yul\":12119:12278   */\n      swap3\n      swap2\n      pop\n      pop\n      jump\t// out\n        /* \"#utility.yul\":12284:12628   */\n    tag_355:\n        /* \"#utility.yul\":12362:12365   */\n      0x00\n        /* \"#utility.yul\":12390:12429   */\n      tag_502\n        /* \"#utility.yul\":12423:12428   */\n      dup3\n        /* \"#utility.yul\":12390:12429   */\n      tag_339\n      jump\t// in\n    tag_502:\n        /* \"#utility.yul\":12445:12506   */\n      tag_503\n        /* \"#utility.yul\":12499:12505   */\n      dup2\n        /* \"#utility.yul\":12494:12497   */\n      dup6\n        /* \"#utility.yul\":12445:12506   */\n      tag_354\n      jump\t// in\n    tag_503:\n        /* \"#utility.yul\":12438:12506   */\n      swap4\n      pop\n        /* \"#utility.yul\":12515:12567   */\n      tag_504\n        /* \"#utility.yul\":12560:12566   */\n      dup2\n        /* \"#utility.yul\":12555:12558   */\n      dup6\n        /* \"#utility.yul\":12548:12552   */\n      0x20\n        /* \"#utility.yul\":12541:12546   */\n      dup7\n        /* \"#utility.yul\":12537:12553   */\n      add\n        /* \"#utility.yul\":12515:12567   */\n      tag_341\n      jump\t// in\n    tag_504:\n        /* \"#utility.yul\":12592:12621   */\n      tag_505\n        /* \"#utility.yul\":12614:12620   */\n      dup2\n        /* \"#utility.yul\":12592:12621   */\n      tag_324\n      jump\t// in\n    tag_505:\n        /* \"#utility.yul\":12587:12590   */\n      dup5\n        /* \"#utility.yul\":12583:12622   */\n      add\n        /* \"#utility.yul\":12576:12622   */\n      swap2\n      pop\n        /* \"#utility.yul\":12366:12628   */\n      pop\n        /* \"#utility.yul\":12284:12628   */\n      swap3\n      swap2\n      pop\n      pop\n      jump\t// out\n        /* \"#utility.yul\":12634:12830   */\n    tag_356:\n        /* \"#utility.yul\":12723:12733   */\n      0x00\n        /* \"#utility.yul\":12758:12824   */\n      tag_507\n        /* \"#utility.yul\":12820:12823   */\n      dup4\n        /* \"#utility.yul\":12812:12818   */\n      dup4\n        /* \"#utility.yul\":12758:12824   */\n      tag_355\n      jump\t// in\n    tag_507:\n        /* \"#utility.yul\":12744:12824   */\n      swap1\n      pop\n        /* \"#utility.yul\":12634:12830   */\n      swap3\n      swap2\n      pop\n      pop\n      jump\t// out\n        /* \"#utility.yul\":12836:12959   */\n    tag_357:\n        /* \"#utility.yul\":12916:12920   */\n      0x00\n        /* \"#utility.yul\":12948:12952   */\n      0x20\n        /* \"#utility.yul\":12943:12946   */\n      dup3\n        /* \"#utility.yul\":12939:12953   */\n      add\n        /* \"#utility.yul\":12931:12953   */\n      swap1\n      pop\n        /* \"#utility.yul\":12836:12959   */\n      swap2\n      swap1\n      pop\n      jump\t// out\n        /* \"#utility.yul\":12993:13984   */\n    tag_358:\n        /* \"#utility.yul\":13132:13135   */\n      0x00\n        /* \"#utility.yul\":13161:13225   */\n      tag_510\n        /* \"#utility.yul\":13219:13224   */\n      dup3\n        /* \"#utility.yul\":13161:13225   */\n      tag_351\n      jump\t// in\n    tag_510:\n        /* \"#utility.yul\":13241:13337   */\n      tag_511\n        /* \"#utility.yul\":13330:13336   */\n      dup2\n        /* \"#utility.yul\":13325:13328   */\n      dup6\n        /* \"#utility.yul\":13241:13337   */\n      tag_352\n      jump\t// in\n    tag_511:\n        /* \"#utility.yul\":13234:13337   */\n      swap4\n      pop\n        /* \"#utility.yul\":13363:13366   */\n      dup4\n        /* \"#utility.yul\":13408:13412   */\n      0x20\n        /* \"#utility.yul\":13400:13406   */\n      dup3\n        /* \"#utility.yul\":13396:13413   */\n      mul\n        /* \"#utility.yul\":13391:13394   */\n      dup6\n        /* \"#utility.yul\":13387:13414   */\n      add\n        /* \"#utility.yul\":13438:13504   */\n      tag_512\n        /* \"#utility.yul\":13498:13503   */\n      dup6\n        /* \"#utility.yul\":13438:13504   */\n      tag_353\n      jump\t// in\n    tag_512:\n        /* \"#utility.yul\":13527:13534   */\n      dup1\n        /* \"#utility.yul\":13558:13559   */\n      0x00\n        /* \"#utility.yul\":13543:13939   */\n    tag_513:\n        /* \"#utility.yul\":13568:13574   */\n      dup6\n        /* \"#utility.yul\":13565:13566   */\n      dup2\n        /* \"#utility.yul\":13562:13575   */\n      lt\n        /* \"#utility.yul\":13543:13939   */\n      iszero\n      tag_515\n      jumpi\n        /* \"#utility.yul\":13639:13648   */\n      dup5\n        /* \"#utility.yul\":13633:13637   */\n      dup5\n        /* \"#utility.yul\":13629:13649   */\n      sub\n        /* \"#utility.yul\":13624:13627   */\n      dup10\n        /* \"#utility.yul\":13617:13650   */\n      mstore\n        /* \"#utility.yul\":13690:13696   */\n      dup2\n        /* \"#utility.yul\":13684:13697   */\n      mload\n        /* \"#utility.yul\":13718:13802   */\n      tag_516\n        /* \"#utility.yul\":13797:13801   */\n      dup6\n        /* \"#utility.yul\":13782:13795   */\n      dup3\n        /* \"#utility.yul\":13718:13802   */\n      tag_356\n      jump\t// in\n    tag_516:\n        /* \"#utility.yul\":13710:13802   */\n      swap5\n      pop\n        /* \"#utility.yul\":13825:13895   */\n      tag_517\n        /* \"#utility.yul\":13888:13894   */\n      dup4\n        /* \"#utility.yul\":13825:13895   */\n      tag_357\n      jump\t// in\n    tag_517:\n        /* \"#utility.yul\":13815:13895   */\n      swap3\n      pop\n        /* \"#utility.yul\":13924:13928   */\n      0x20\n        /* \"#utility.yul\":13919:13922   */\n      dup11\n        /* \"#utility.yul\":13915:13929   */\n      add\n        /* \"#utility.yul\":13908:13929   */\n      swap10\n      pop\n        /* \"#utility.yul\":13603:13939   */\n      pop\n        /* \"#utility.yul\":13590:13591   */\n      0x01\n        /* \"#utility.yul\":13587:13588   */\n      dup2\n        /* \"#utility.yul\":13583:13592   */\n      add\n        /* \"#utility.yul\":13578:13592   */\n      swap1\n      pop\n        /* \"#utility.yul\":13543:13939   */\n      jump(tag_513)\n    tag_515:\n        /* \"#utility.yul\":13547:13561   */\n      pop\n        /* \"#utility.yul\":13955:13959   */\n      dup3\n        /* \"#utility.yul\":13948:13959   */\n      swap8\n      pop\n        /* \"#utility.yul\":13975:13978   */\n      dup8\n        /* \"#utility.yul\":13968:13978   */\n      swap6\n      pop\n        /* \"#utility.yul\":13137:13984   */\n      pop\n      pop\n      pop\n      pop\n      pop\n        /* \"#utility.yul\":12993:13984   */\n      swap3\n      swap2\n      pop\n      pop\n      jump\t// out\n        /* \"#utility.yul\":13990:14104   */\n    tag_359:\n        /* \"#utility.yul\":14057:14063   */\n      0x00\n        /* \"#utility.yul\":14091:14096   */\n      dup2\n        /* \"#utility.yul\":14085:14097   */\n      mload\n        /* \"#utility.yul\":14075:14097   */\n      swap1\n      pop\n        /* \"#utility.yul\":13990:14104   */\n      swap2\n      swap1\n      pop\n      jump\t// out\n        /* \"#utility.yul\":14110:14294   */\n    tag_360:\n        /* \"#utility.yul\":14209:14220   */\n      0x00\n        /* \"#utility.yul\":14243:14249   */\n      dup3\n        /* \"#utility.yul\":14238:14241   */\n      dup3\n        /* \"#utility.yul\":14231:14250   */\n      mstore\n        /* \"#utility.yul\":14283:14287   */\n      0x20\n        /* \"#utility.yul\":14278:14281   */\n      dup3\n        /* \"#utility.yul\":14274:14288   */\n      add\n        /* \"#utility.yul\":14259:14288   */\n      swap1\n      pop\n        /* \"#utility.yul\":14110:14294   */\n      swap3\n      swap2\n      pop\n      pop\n      jump\t// out\n        /* \"#utility.yul\":14300:14432   */\n    tag_361:\n        /* \"#utility.yul\":14367:14371   */\n      0x00\n        /* \"#utility.yul\":14390:14393   */\n      dup2\n        /* \"#utility.yul\":14382:14393   */\n      swap1\n      pop\n        /* \"#utility.yul\":14420:14424   */\n      0x20\n        /* \"#utility.yul\":14415:14418   */\n      dup3\n        /* \"#utility.yul\":14411:14425   */\n      add\n        /* \"#utility.yul\":14403:14425   */\n      swap1\n      pop\n        /* \"#utility.yul\":14300:14432   */\n      swap2\n      swap1\n      pop\n      jump\t// out\n        /* \"#utility.yul\":14438:14546   */\n    tag_362:\n        /* \"#utility.yul\":14515:14539   */\n      tag_522\n        /* \"#utility.yul\":14533:14538   */\n      dup2\n        /* \"#utility.yul\":14515:14539   */\n      tag_334\n      jump\t// in\n    tag_522:\n        /* \"#utility.yul\":14510:14513   */\n      dup3\n        /* \"#utility.yul\":14503:14540   */\n      mstore\n        /* \"#utility.yul\":14438:14546   */\n      pop\n      pop\n      jump\t// out\n        /* \"#utility.yul\":14552:14731   */\n    tag_363:\n        /* \"#utility.yul\":14621:14631   */\n      0x00\n        /* \"#utility.yul\":14642:14688   */\n      tag_524\n        /* \"#utility.yul\":14684:14687   */\n      dup4\n        /* \"#utility.yul\":14676:14682   */\n      dup4\n        /* \"#utility.yul\":14642:14688   */\n      tag_362\n      jump\t// in\n    tag_524:\n        /* \"#utility.yul\":14720:14724   */\n      0x20\n        /* \"#utility.yul\":14715:14718   */\n      dup4\n        /* \"#utility.yul\":14711:14725   */\n      add\n        /* \"#utility.yul\":14697:14725   */\n      swap1\n      pop\n        /* \"#utility.yul\":14552:14731   */\n      swap3\n      swap2\n      pop\n      pop\n      jump\t// out\n        /* \"#utility.yul\":14737:14850   */\n    tag_364:\n        /* \"#utility.yul\":14807:14811   */\n      0x00\n        /* \"#utility.yul\":14839:14843   */\n      0x20\n        /* \"#utility.yul\":14834:14837   */\n      dup3\n        /* \"#utility.yul\":14830:14844   */\n      add\n        /* \"#utility.yul\":14822:14844   */\n      swap1\n      pop\n        /* \"#utility.yul\":14737:14850   */\n      swap2\n      swap1\n      pop\n      jump\t// out\n        /* \"#utility.yul\":14886:15618   */\n    tag_365:\n        /* \"#utility.yul\":15005:15008   */\n      0x00\n        /* \"#utility.yul\":15034:15088   */\n      tag_527\n        /* \"#utility.yul\":15082:15087   */\n      dup3\n        /* \"#utility.yul\":15034:15088   */\n      tag_359\n      jump\t// in\n    tag_527:\n        /* \"#utility.yul\":15104:15190   */\n      tag_528\n        /* \"#utility.yul\":15183:15189   */\n      dup2\n        /* \"#utility.yul\":15178:15181   */\n      dup6\n        /* \"#utility.yul\":15104:15190   */\n      tag_360\n      jump\t// in\n    tag_528:\n        /* \"#utility.yul\":15097:15190   */\n      swap4\n      pop\n        /* \"#utility.yul\":15214:15270   */\n      tag_529\n        /* \"#utility.yul\":15264:15269   */\n      dup4\n        /* \"#utility.yul\":15214:15270   */\n      tag_361\n      jump\t// in\n    tag_529:\n        /* \"#utility.yul\":15293:15300   */\n      dup1\n        /* \"#utility.yul\":15324:15325   */\n      0x00\n        /* \"#utility.yul\":15309:15593   */\n    tag_530:\n        /* \"#utility.yul\":15334:15340   */\n      dup4\n        /* \"#utility.yul\":15331:15332   */\n      dup2\n        /* \"#utility.yul\":15328:15341   */\n      lt\n        /* \"#utility.yul\":15309:15593   */\n      iszero\n      tag_532\n      jumpi\n        /* \"#utility.yul\":15410:15416   */\n      dup2\n        /* \"#utility.yul\":15404:15417   */\n      mload\n        /* \"#utility.yul\":15437:15500   */\n      tag_533\n        /* \"#utility.yul\":15496:15499   */\n      dup9\n        /* \"#utility.yul\":15481:15494   */\n      dup3\n        /* \"#utility.yul\":15437:15500   */\n      tag_363\n      jump\t// in\n    tag_533:\n        /* \"#utility.yul\":15430:15500   */\n      swap8\n      pop\n        /* \"#utility.yul\":15523:15583   */\n      tag_534\n        /* \"#utility.yul\":15576:15582   */\n      dup4\n        /* \"#utility.yul\":15523:15583   */\n      tag_364\n      jump\t// in\n    tag_534:\n        /* \"#utility.yul\":15513:15583   */\n      swap3\n      pop\n        /* \"#utility.yul\":15369:15593   */\n      pop\n        /* \"#utility.yul\":15356:15357   */\n      0x01\n        /* \"#utility.yul\":15353:15354   */\n      dup2\n        /* \"#utility.yul\":15349:15358   */\n      add\n        /* \"#utility.yul\":15344:15358   */\n      swap1\n      pop\n        /* \"#utility.yul\":15309:15593   */\n      jump(tag_530)\n    tag_532:\n        /* \"#utility.yul\":15313:15327   */\n      pop\n        /* \"#utility.yul\":15609:15612   */\n      dup6\n        /* \"#utility.yul\":15602:15612   */\n      swap4\n      pop\n        /* \"#utility.yul\":15010:15618   */\n      pop\n      pop\n      pop\n        /* \"#utility.yul\":14886:15618   */\n      swap3\n      swap2\n      pop\n      pop\n      jump\t// out\n        /* \"#utility.yul\":15624:17687   */\n    tag_39:\n        /* \"#utility.yul\":16295:16299   */\n      0x00\n        /* \"#utility.yul\":16333:16336   */\n      0xe0\n        /* \"#utility.yul\":16322:16331   */\n      dup3\n        /* \"#utility.yul\":16318:16337   */\n      add\n        /* \"#utility.yul\":16310:16337   */\n      swap1\n      pop\n        /* \"#utility.yul\":16383:16392   */\n      dup2\n        /* \"#utility.yul\":16377:16381   */\n      dup2\n        /* \"#utility.yul\":16373:16393   */\n      sub\n        /* \"#utility.yul\":16369:16370   */\n      0x00\n        /* \"#utility.yul\":16358:16367   */\n      dup4\n        /* \"#utility.yul\":16354:16371   */\n      add\n        /* \"#utility.yul\":16347:16394   */\n      mstore\n        /* \"#utility.yul\":16411:16519   */\n      tag_536\n        /* \"#utility.yul\":16514:16518   */\n      dup2\n        /* \"#utility.yul\":16505:16511   */\n      dup11\n        /* \"#utility.yul\":16411:16519   */\n      tag_350\n      jump\t// in\n    tag_536:\n        /* \"#utility.yul\":16403:16519   */\n      swap1\n      pop\n        /* \"#utility.yul\":16566:16575   */\n      dup2\n        /* \"#utility.yul\":16560:16564   */\n      dup2\n        /* \"#utility.yul\":16556:16576   */\n      sub\n        /* \"#utility.yul\":16551:16553   */\n      0x20\n        /* \"#utility.yul\":16540:16549   */\n      dup4\n        /* \"#utility.yul\":16536:16554   */\n      add\n        /* \"#utility.yul\":16529:16577   */\n      mstore\n        /* \"#utility.yul\":16594:16702   */\n      tag_537\n        /* \"#utility.yul\":16697:16701   */\n      dup2\n        /* \"#utility.yul\":16688:16694   */\n      dup10\n        /* \"#utility.yul\":16594:16702   */\n      tag_350\n      jump\t// in\n    tag_537:\n        /* \"#utility.yul\":16586:16702   */\n      swap1\n      pop\n        /* \"#utility.yul\":16749:16758   */\n      dup2\n        /* \"#utility.yul\":16743:16747   */\n      dup2\n        /* \"#utility.yul\":16739:16759   */\n      sub\n        /* \"#utility.yul\":16734:16736   */\n      0x40\n        /* \"#utility.yul\":16723:16732   */\n      dup4\n        /* \"#utility.yul\":16719:16737   */\n      add\n        /* \"#utility.yul\":16712:16760   */\n      mstore\n        /* \"#utility.yul\":16777:16905   */\n      tag_538\n        /* \"#utility.yul\":16900:16904   */\n      dup2\n        /* \"#utility.yul\":16891:16897   */\n      dup9\n        /* \"#utility.yul\":16777:16905   */\n      tag_358\n      jump\t// in\n    tag_538:\n        /* \"#utility.yul\":16769:16905   */\n      swap1\n      pop\n        /* \"#utility.yul\":16952:16961   */\n      dup2\n        /* \"#utility.yul\":16946:16950   */\n      dup2\n        /* \"#utility.yul\":16942:16962   */\n      sub\n        /* \"#utility.yul\":16937:16939   */\n      0x60\n        /* \"#utility.yul\":16926:16935   */\n      dup4\n        /* \"#utility.yul\":16922:16940   */\n      add\n        /* \"#utility.yul\":16915:16963   */\n      mstore\n        /* \"#utility.yul\":16980:17108   */\n      tag_539\n        /* \"#utility.yul\":17103:17107   */\n      dup2\n        /* \"#utility.yul\":17094:17100   */\n      dup8\n        /* \"#utility.yul\":16980:17108   */\n      tag_358\n      jump\t// in\n    tag_539:\n        /* \"#utility.yul\":16972:17108   */\n      swap1\n      pop\n        /* \"#utility.yul\":17156:17165   */\n      dup2\n        /* \"#utility.yul\":17150:17154   */\n      dup2\n        /* \"#utility.yul\":17146:17166   */\n      sub\n        /* \"#utility.yul\":17140:17143   */\n      0x80\n        /* \"#utility.yul\":17129:17138   */\n      dup4\n        /* \"#utility.yul\":17125:17144   */\n      add\n        /* \"#utility.yul\":17118:17167   */\n      mstore\n        /* \"#utility.yul\":17184:17312   */\n      tag_540\n        /* \"#utility.yul\":17307:17311   */\n      dup2\n        /* \"#utility.yul\":17298:17304   */\n      dup7\n        /* \"#utility.yul\":17184:17312   */\n      tag_358\n      jump\t// in\n    tag_540:\n        /* \"#utility.yul\":17176:17312   */\n      swap1\n      pop\n        /* \"#utility.yul\":17360:17369   */\n      dup2\n        /* \"#utility.yul\":17354:17358   */\n      dup2\n        /* \"#utility.yul\":17350:17370   */\n      sub\n        /* \"#utility.yul\":17344:17347   */\n      0xa0\n        /* \"#utility.yul\":17333:17342   */\n      dup4\n        /* \"#utility.yul\":17329:17348   */\n      add\n        /* \"#utility.yul\":17322:17371   */\n      mstore\n        /* \"#utility.yul\":17388:17496   */\n      tag_541\n        /* \"#utility.yul\":17491:17495   */\n      dup2\n        /* \"#utility.yul\":17482:17488   */\n      dup6\n        /* \"#utility.yul\":17388:17496   */\n      tag_365\n      jump\t// in\n    tag_541:\n        /* \"#utility.yul\":17380:17496   */\n      swap1\n      pop\n        /* \"#utility.yul\":17544:17553   */\n      dup2\n        /* \"#utility.yul\":17538:17542   */\n      dup2\n        /* \"#utility.yul\":17534:17554   */\n      sub\n        /* \"#utility.yul\":17528:17531   */\n      0xc0\n        /* \"#utility.yul\":17517:17526   */\n      dup4\n        /* \"#utility.yul\":17513:17532   */\n      add\n        /* \"#utility.yul\":17506:17555   */\n      mstore\n        /* \"#utility.yul\":17572:17680   */\n      tag_542\n        /* \"#utility.yul\":17675:17679   */\n      dup2\n        /* \"#utility.yul\":17666:17672   */\n      dup5\n        /* \"#utility.yul\":17572:17680   */\n      tag_350\n      jump\t// in\n    tag_542:\n        /* \"#utility.yul\":17564:17680   */\n      swap1\n      pop\n        /* \"#utility.yul\":15624:17687   */\n      swap9\n      swap8\n      pop\n      pop\n      pop\n      pop\n      pop\n      pop\n      pop\n      pop\n      jump\t// out\n        /* \"#utility.yul\":17693:19482   */\n    tag_42:\n        /* \"#utility.yul\":17859:17865   */\n      0x00\n        /* \"#utility.yul\":17867:17873   */\n      dup1\n        /* \"#utility.yul\":17875:17881   */\n      0x00\n        /* \"#utility.yul\":17883:17889   */\n      dup1\n        /* \"#utility.yul\":17891:17897   */\n      0x00\n        /* \"#utility.yul\":17899:17905   */\n      dup1\n        /* \"#utility.yul\":17907:17913   */\n      0x00\n        /* \"#utility.yul\":17956:17959   */\n      0x0100\n        /* \"#utility.yul\":17944:17953   */\n      dup9\n        /* \"#utility.yul\":17935:17942   */\n      dup11\n        /* \"#utility.yul\":17931:17954   */\n      sub\n        /* \"#utility.yul\":17927:17960   */\n      slt\n        /* \"#utility.yul\":17924:18044   */\n      iszero\n      tag_544\n      jumpi\n        /* \"#utility.yul\":17963:18042   */\n      tag_545\n      tag_317\n      jump\t// in\n    tag_545:\n        /* \"#utility.yul\":17924:18044   */\n    tag_544:\n        /* \"#utility.yul\":18083:18084   */\n      0x00\n        /* \"#utility.yul\":18108:18161   */\n      tag_546\n        /* \"#utility.yul\":18153:18160   */\n      dup11\n        /* \"#utility.yul\":18144:18150   */\n      dup3\n        /* \"#utility.yul\":18133:18142   */\n      dup12\n        /* \"#utility.yul\":18129:18151   */\n      add\n        /* \"#utility.yul\":18108:18161   */\n      tag_321\n      jump\t// in\n    tag_546:\n        /* \"#utility.yul\":18098:18161   */\n      swap8\n      pop\n        /* \"#utility.yul\":18054:18171   */\n      pop\n        /* \"#utility.yul\":18210:18212   */\n      0x20\n        /* \"#utility.yul\":18236:18289   */\n      tag_547\n        /* \"#utility.yul\":18281:18288   */\n      dup11\n        /* \"#utility.yul\":18272:18278   */\n      dup3\n        /* \"#utility.yul\":18261:18270   */\n      dup12\n        /* \"#utility.yul\":18257:18279   */\n      add\n        /* \"#utility.yul\":18236:18289   */\n      tag_321\n      jump\t// in\n    tag_547:\n        /* \"#utility.yul\":18226:18289   */\n      swap7\n      pop\n        /* \"#utility.yul\":18181:18299   */\n      pop\n        /* \"#utility.yul\":18338:18340   */\n      0x40\n        /* \"#utility.yul\":18364:18417   */\n      tag_548\n        /* \"#utility.yul\":18409:18416   */\n      dup11\n        /* \"#utility.yul\":18400:18406   */\n      dup3\n        /* \"#utility.yul\":18389:18398   */\n      dup12\n        /* \"#utility.yul\":18385:18407   */\n      add\n        /* \"#utility.yul\":18364:18417   */\n      tag_321\n      jump\t// in\n    tag_548:\n        /* \"#utility.yul\":18354:18417   */\n      swap6\n      pop\n        /* \"#utility.yul\":18309:18427   */\n      pop\n        /* \"#utility.yul\":18494:18496   */\n      0x60\n        /* \"#utility.yul\":18483:18492   */\n      dup9\n        /* \"#utility.yul\":18479:18497   */\n      add\n        /* \"#utility.yul\":18466:18498   */\n      calldataload\n        /* \"#utility.yul\":18525:18543   */\n      0xffffffffffffffff\n        /* \"#utility.yul\":18517:18523   */\n      dup2\n        /* \"#utility.yul\":18514:18544   */\n      gt\n        /* \"#utility.yul\":18511:18628   */\n      iszero\n      tag_549\n      jumpi\n        /* \"#utility.yul\":18547:18626   */\n      tag_550\n      tag_318\n      jump\t// in\n    tag_550:\n        /* \"#utility.yul\":18511:18628   */\n    tag_549:\n        /* \"#utility.yul\":18652:18715   */\n      tag_551\n        /* \"#utility.yul\":18707:18714   */\n      dup11\n        /* \"#utility.yul\":18698:18704   */\n      dup3\n        /* \"#utility.yul\":18687:18696   */\n      dup12\n        /* \"#utility.yul\":18683:18705   */\n      add\n        /* \"#utility.yul\":18652:18715   */\n      tag_330\n      jump\t// in\n    tag_551:\n        /* \"#utility.yul\":18642:18715   */\n      swap5\n      pop\n        /* \"#utility.yul\":18437:18725   */\n      pop\n        /* \"#utility.yul\":18792:18795   */\n      0x80\n        /* \"#utility.yul\":18781:18790   */\n      dup9\n        /* \"#utility.yul\":18777:18796   */\n      add\n        /* \"#utility.yul\":18764:18797   */\n      calldataload\n        /* \"#utility.yul\":18824:18842   */\n      0xffffffffffffffff\n        /* \"#utility.yul\":18816:18822   */\n      dup2\n        /* \"#utility.yul\":18813:18843   */\n      gt\n        /* \"#utility.yul\":18810:18927   */\n      iszero\n      tag_552\n      jumpi\n        /* \"#utility.yul\":18846:18925   */\n      tag_553\n      tag_318\n      jump\t// in\n    tag_553:\n        /* \"#utility.yul\":18810:18927   */\n    tag_552:\n        /* \"#utility.yul\":18951:19014   */\n      tag_554\n        /* \"#utility.yul\":19006:19013   */\n      dup11\n        /* \"#utility.yul\":18997:19003   */\n      dup3\n        /* \"#utility.yul\":18986:18995   */\n      dup12\n        /* \"#utility.yul\":18982:19004   */\n      add\n        /* \"#utility.yul\":18951:19014   */\n      tag_330\n      jump\t// in\n    tag_554:\n        /* \"#utility.yul\":18941:19014   */\n      swap4\n      pop\n        /* \"#utility.yul\":18735:19024   */\n      pop\n        /* \"#utility.yul\":19091:19094   */\n      0xa0\n        /* \"#utility.yul\":19080:19089   */\n      dup9\n        /* \"#utility.yul\":19076:19095   */\n      add\n        /* \"#utility.yul\":19063:19096   */\n      calldataload\n        /* \"#utility.yul\":19123:19141   */\n      0xffffffffffffffff\n        /* \"#utility.yul\":19115:19121   */\n      dup2\n        /* \"#utility.yul\":19112:19142   */\n      gt\n        /* \"#utility.yul\":19109:19226   */\n      iszero\n      tag_555\n      jumpi\n        /* \"#utility.yul\":19145:19224   */\n      tag_556\n      tag_318\n      jump\t// in\n    tag_556:\n        /* \"#utility.yul\":19109:19226   */\n    tag_555:\n        /* \"#utility.yul\":19250:19313   */\n      tag_557\n        /* \"#utility.yul\":19305:19312   */\n      dup11\n        /* \"#utility.yul\":19296:19302   */\n      dup3\n        /* \"#utility.yul\":19285:19294   */\n      dup12\n        /* \"#utility.yul\":19281:19303   */\n      add\n        /* \"#utility.yul\":19250:19313   */\n      tag_330\n      jump\t// in\n    tag_557:\n        /* \"#utility.yul\":19240:19313   */\n      swap3\n      pop\n        /* \"#utility.yul\":19034:19323   */\n      pop\n        /* \"#utility.yul\":19362:19365   */\n      0xc0\n        /* \"#utility.yul\":19389:19465   */\n      tag_558\n        /* \"#utility.yul\":19457:19464   */\n      dup11\n        /* \"#utility.yul\":19448:19454   */\n      dup3\n        /* \"#utility.yul\":19437:19446   */\n      dup12\n        /* \"#utility.yul\":19433:19455   */\n      add\n        /* \"#utility.yul\":19389:19465   */\n      tag_338\n      jump\t// in\n    tag_558:\n        /* \"#utility.yul\":19379:19465   */\n      swap2\n      pop\n        /* \"#utility.yul\":19333:19475   */\n      pop\n        /* \"#utility.yul\":17693:19482   */\n      swap3\n      swap6\n      swap9\n      swap2\n      swap5\n      swap8\n      pop\n      swap3\n      swap6\n      pop\n      jump\t// out\n        /* \"#utility.yul\":19488:20423   */\n    tag_48:\n        /* \"#utility.yul\":19807:19811   */\n      0x00\n        /* \"#utility.yul\":19845:19847   */\n      0x60\n        /* \"#utility.yul\":19834:19843   */\n      dup3\n        /* \"#utility.yul\":19830:19848   */\n      add\n        /* \"#utility.yul\":19822:19848   */\n      swap1\n      pop\n        /* \"#utility.yul\":19894:19903   */\n      dup2\n        /* \"#utility.yul\":19888:19892   */\n      dup2\n        /* \"#utility.yul\":19884:19904   */\n      sub\n        /* \"#utility.yul\":19880:19881   */\n      0x00\n        /* \"#utility.yul\":19869:19878   */\n      dup4\n        /* \"#utility.yul\":19865:19882   */\n      add\n        /* \"#utility.yul\":19858:19905   */\n      mstore\n        /* \"#utility.yul\":19922:20030   */\n      tag_560\n        /* \"#utility.yul\":20025:20029   */\n      dup2\n        /* \"#utility.yul\":20016:20022   */\n      dup7\n        /* \"#utility.yul\":19922:20030   */\n      tag_365\n      jump\t// in\n    tag_560:\n        /* \"#utility.yul\":19914:20030   */\n      swap1\n      pop\n        /* \"#utility.yul\":20077:20086   */\n      dup2\n        /* \"#utility.yul\":20071:20075   */\n      dup2\n        /* \"#utility.yul\":20067:20087   */\n      sub\n        /* \"#utility.yul\":20062:20064   */\n      0x20\n        /* \"#utility.yul\":20051:20060   */\n      dup4\n        /* \"#utility.yul\":20047:20065   */\n      add\n        /* \"#utility.yul\":20040:20088   */\n      mstore\n        /* \"#utility.yul\":20105:20233   */\n      tag_561\n        /* \"#utility.yul\":20228:20232   */\n      dup2\n        /* \"#utility.yul\":20219:20225   */\n      dup6\n        /* \"#utility.yul\":20105:20233   */\n      tag_358\n      jump\t// in\n    tag_561:\n        /* \"#utility.yul\":20097:20233   */\n      swap1\n      pop\n        /* \"#utility.yul\":20280:20289   */\n      dup2\n        /* \"#utility.yul\":20274:20278   */\n      dup2\n        /* \"#utility.yul\":20270:20290   */\n      sub\n        /* \"#utility.yul\":20265:20267   */\n      0x40\n        /* \"#utility.yul\":20254:20263   */\n      dup4\n        /* \"#utility.yul\":20250:20268   */\n      add\n        /* \"#utility.yul\":20243:20291   */\n      mstore\n        /* \"#utility.yul\":20308:20416   */\n      tag_562\n        /* \"#utility.yul\":20411:20415   */\n      dup2\n        /* \"#utility.yul\":20402:20408   */\n      dup5\n        /* \"#utility.yul\":20308:20416   */\n      tag_350\n      jump\t// in\n    tag_562:\n        /* \"#utility.yul\":20300:20416   */\n      swap1\n      pop\n        /* \"#utility.yul\":19488:20423   */\n      swap5\n      swap4\n      pop\n      pop\n      pop\n      pop\n      jump\t// out\n        /* \"#utility.yul\":20429:20758   */\n    tag_51:\n        /* \"#utility.yul\":20488:20494   */\n      0x00\n        /* \"#utility.yul\":20537:20539   */\n      0x20\n        /* \"#utility.yul\":20525:20534   */\n      dup3\n        /* \"#utility.yul\":20516:20523   */\n      dup5\n        /* \"#utility.yul\":20512:20535   */\n      sub\n        /* \"#utility.yul\":20508:20540   */\n      slt\n        /* \"#utility.yul\":20505:20624   */\n      iszero\n      tag_564\n      jumpi\n        /* \"#utility.yul\":20543:20622   */\n      tag_565\n      tag_317\n      jump\t// in\n    tag_565:\n        /* \"#utility.yul\":20505:20624   */\n    tag_564:\n        /* \"#utility.yul\":20663:20664   */\n      0x00\n        /* \"#utility.yul\":20688:20741   */\n      tag_566\n        /* \"#utility.yul\":20733:20740   */\n      dup5\n        /* \"#utility.yul\":20724:20730   */\n      dup3\n        /* \"#utility.yul\":20713:20722   */\n      dup6\n        /* \"#utility.yul\":20709:20731   */\n      add\n        /* \"#utility.yul\":20688:20741   */\n      tag_336\n      jump\t// in\n    tag_566:\n        /* \"#utility.yul\":20678:20741   */\n      swap2\n      pop\n        /* \"#utility.yul\":20634:20751   */\n      pop\n        /* \"#utility.yul\":20429:20758   */\n      swap3\n      swap2\n      pop\n      pop\n      jump\t// out\n        /* \"#utility.yul\":20764:21430   */\n    tag_55:\n        /* \"#utility.yul\":20864:20870   */\n      0x00\n        /* \"#utility.yul\":20872:20878   */\n      dup1\n        /* \"#utility.yul\":20880:20886   */\n      0x00\n        /* \"#utility.yul\":20929:20932   */\n      0x80\n        /* \"#utility.yul\":20917:20926   */\n      dup5\n        /* \"#utility.yul\":20908:20915   */\n      dup7\n        /* \"#utility.yul\":20904:20927   */\n      sub\n        /* \"#utility.yul\":20900:20933   */\n      slt\n        /* \"#utility.yul\":20897:21017   */\n      iszero\n      tag_568\n      jumpi\n        /* \"#utility.yul\":20936:21015   */\n      tag_569\n      tag_317\n      jump\t// in\n    tag_569:\n        /* \"#utility.yul\":20897:21017   */\n    tag_568:\n        /* \"#utility.yul\":21056:21057   */\n      0x00\n        /* \"#utility.yul\":21081:21134   */\n      tag_570\n        /* \"#utility.yul\":21126:21133   */\n      dup7\n        /* \"#utility.yul\":21117:21123   */\n      dup3\n        /* \"#utility.yul\":21106:21115   */\n      dup8\n        /* \"#utility.yul\":21102:21124   */\n      add\n        /* \"#utility.yul\":21081:21134   */\n      tag_321\n      jump\t// in\n    tag_570:\n        /* \"#utility.yul\":21071:21134   */\n      swap4\n      pop\n        /* \"#utility.yul\":21027:21144   */\n      pop\n        /* \"#utility.yul\":21183:21185   */\n      0x20\n        /* \"#utility.yul\":21209:21262   */\n      tag_571\n        /* \"#utility.yul\":21254:21261   */\n      dup7\n        /* \"#utility.yul\":21245:21251   */\n      dup3\n        /* \"#utility.yul\":21234:21243   */\n      dup8\n        /* \"#utility.yul\":21230:21252   */\n      add\n        /* \"#utility.yul\":21209:21262   */\n      tag_321\n      jump\t// in\n    tag_571:\n        /* \"#utility.yul\":21199:21262   */\n      swap3\n      pop\n        /* \"#utility.yul\":21154:21272   */\n      pop\n        /* \"#utility.yul\":21311:21313   */\n      0x40\n        /* \"#utility.yul\":21337:21413   */\n      tag_572\n        /* \"#utility.yul\":21405:21412   */\n      dup7\n        /* \"#utility.yul\":21396:21402   */\n      dup3\n        /* \"#utility.yul\":21385:21394   */\n      dup8\n        /* \"#utility.yul\":21381:21403   */\n      add\n        /* \"#utility.yul\":21337:21413   */\n      tag_338\n      jump\t// in\n    tag_572:\n        /* \"#utility.yul\":21327:21413   */\n      swap2\n      pop\n        /* \"#utility.yul\":21282:21423   */\n      pop\n        /* \"#utility.yul\":20764:21430   */\n      swap3\n      pop\n      swap3\n      pop\n      swap3\n      jump\t// out\n        /* \"#utility.yul\":21436:22102   */\n    tag_59:\n        /* \"#utility.yul\":21536:21542   */\n      0x00\n        /* \"#utility.yul\":21544:21550   */\n      dup1\n        /* \"#utility.yul\":21552:21558   */\n      0x00\n        /* \"#utility.yul\":21601:21604   */\n      0x80\n        /* \"#utility.yul\":21589:21598   */\n      dup5\n        /* \"#utility.yul\":21580:21587   */\n      dup7\n        /* \"#utility.yul\":21576:21599   */\n      sub\n        /* \"#utility.yul\":21572:21605   */\n      slt\n        /* \"#utility.yul\":21569:21689   */\n      iszero\n      tag_574\n      jumpi\n        /* \"#utility.yul\":21608:21687   */\n      tag_575\n      tag_317\n      jump\t// in\n    tag_575:\n        /* \"#utility.yul\":21569:21689   */\n    tag_574:\n        /* \"#utility.yul\":21728:21729   */\n      0x00\n        /* \"#utility.yul\":21753:21806   */\n      tag_576\n        /* \"#utility.yul\":21798:21805   */\n      dup7\n        /* \"#utility.yul\":21789:21795   */\n      dup3\n        /* \"#utility.yul\":21778:21787   */\n      dup8\n        /* \"#utility.yul\":21774:21796   */\n      add\n        /* \"#utility.yul\":21753:21806   */\n      tag_321\n      jump\t// in\n    tag_576:\n        /* \"#utility.yul\":21743:21806   */\n      swap4\n      pop\n        /* \"#utility.yul\":21699:21816   */\n      pop\n        /* \"#utility.yul\":21855:21857   */\n      0x20\n        /* \"#utility.yul\":21881:21934   */\n      tag_577\n        /* \"#utility.yul\":21926:21933   */\n      dup7\n        /* \"#utility.yul\":21917:21923   */\n      dup3\n        /* \"#utility.yul\":21906:21915   */\n      dup8\n        /* \"#utility.yul\":21902:21924   */\n      add\n        /* \"#utility.yul\":21881:21934   */\n      tag_336\n      jump\t// in\n    tag_577:\n        /* \"#utility.yul\":21871:21934   */\n      swap3\n      pop\n        /* \"#utility.yul\":21826:21944   */\n      pop\n        /* \"#utility.yul\":21983:21985   */\n      0x40\n        /* \"#utility.yul\":22009:22085   */\n      tag_578\n        /* \"#utility.yul\":22077:22084   */\n      dup7\n        /* \"#utility.yul\":22068:22074   */\n      dup3\n        /* \"#utility.yul\":22057:22066   */\n      dup8\n        /* \"#utility.yul\":22053:22075   */\n      add\n        /* \"#utility.yul\":22009:22085   */\n      tag_338\n      jump\t// in\n    tag_578:\n        /* \"#utility.yul\":21999:22085   */\n      swap2\n      pop\n        /* \"#utility.yul\":21954:22095   */\n      pop\n        /* \"#utility.yul\":21436:22102   */\n      swap3\n      pop\n      swap3\n      pop\n      swap3\n      jump\t// out\n        /* \"#utility.yul\":22108:23099   */\n    tag_63:\n        /* \"#utility.yul\":22227:22233   */\n      0x00\n        /* \"#utility.yul\":22235:22241   */\n      dup1\n        /* \"#utility.yul\":22243:22249   */\n      0x00\n        /* \"#utility.yul\":22251:22257   */\n      dup1\n        /* \"#utility.yul\":22300:22303   */\n      0xa0\n        /* \"#utility.yul\":22288:22297   */\n      dup6\n        /* \"#utility.yul\":22279:22286   */\n      dup8\n        /* \"#utility.yul\":22275:22298   */\n      sub\n        /* \"#utility.yul\":22271:22304   */\n      slt\n        /* \"#utility.yul\":22268:22388   */\n      iszero\n      tag_580\n      jumpi\n        /* \"#utility.yul\":22307:22386   */\n      tag_581\n      tag_317\n      jump\t// in\n    tag_581:\n        /* \"#utility.yul\":22268:22388   */\n    tag_580:\n        /* \"#utility.yul\":22427:22428   */\n      0x00\n        /* \"#utility.yul\":22452:22505   */\n      tag_582\n        /* \"#utility.yul\":22497:22504   */\n      dup8\n        /* \"#utility.yul\":22488:22494   */\n      dup3\n        /* \"#utility.yul\":22477:22486   */\n      dup9\n        /* \"#utility.yul\":22473:22495   */\n      add\n        /* \"#utility.yul\":22452:22505   */\n      tag_336\n      jump\t// in\n    tag_582:\n        /* \"#utility.yul\":22442:22505   */\n      swap5\n      pop\n        /* \"#utility.yul\":22398:22515   */\n      pop\n        /* \"#utility.yul\":22554:22556   */\n      0x20\n        /* \"#utility.yul\":22580:22633   */\n      tag_583\n        /* \"#utility.yul\":22625:22632   */\n      dup8\n        /* \"#utility.yul\":22616:22622   */\n      dup3\n        /* \"#utility.yul\":22605:22614   */\n      dup9\n        /* \"#utility.yul\":22601:22623   */\n      add\n        /* \"#utility.yul\":22580:22633   */\n      tag_321\n      jump\t// in\n    tag_583:\n        /* \"#utility.yul\":22570:22633   */\n      swap4\n      pop\n        /* \"#utility.yul\":22525:22643   */\n      pop\n        /* \"#utility.yul\":22710:22712   */\n      0x40\n        /* \"#utility.yul\":22699:22708   */\n      dup6\n        /* \"#utility.yul\":22695:22713   */\n      add\n        /* \"#utility.yul\":22682:22714   */\n      calldataload\n        /* \"#utility.yul\":22741:22759   */\n      0xffffffffffffffff\n        /* \"#utility.yul\":22733:22739   */\n      dup2\n        /* \"#utility.yul\":22730:22760   */\n      gt\n        /* \"#utility.yul\":22727:22844   */\n      iszero\n      tag_584\n      jumpi\n        /* \"#utility.yul\":22763:22842   */\n      tag_585\n      tag_318\n      jump\t// in\n    tag_585:\n        /* \"#utility.yul\":22727:22844   */\n    tag_584:\n        /* \"#utility.yul\":22868:22931   */\n      tag_586\n        /* \"#utility.yul\":22923:22930   */\n      dup8\n        /* \"#utility.yul\":22914:22920   */\n      dup3\n        /* \"#utility.yul\":22903:22912   */\n      dup9\n        /* \"#utility.yul\":22899:22921   */\n      add\n        /* \"#utility.yul\":22868:22931   */\n      tag_330\n      jump\t// in\n    tag_586:\n        /* \"#utility.yul\":22858:22931   */\n      swap3\n      pop\n        /* \"#utility.yul\":22653:22941   */\n      pop\n        /* \"#utility.yul\":22980:22982   */\n      0x60\n        /* \"#utility.yul\":23006:23082   */\n      tag_587\n        /* \"#utility.yul\":23074:23081   */\n      dup8\n        /* \"#utility.yul\":23065:23071   */\n      dup3\n        /* \"#utility.yul\":23054:23063   */\n      dup9\n        /* \"#utility.yul\":23050:23072   */\n      add\n        /* \"#utility.yul\":23006:23082   */\n      tag_338\n      jump\t// in\n    tag_587:\n        /* \"#utility.yul\":22996:23082   */\n      swap2\n      pop\n        /* \"#utility.yul\":22951:23092   */\n      pop\n        /* \"#utility.yul\":22108:23099   */\n      swap3\n      swap6\n      swap2\n      swap5\n      pop\n      swap3\n      pop\n      jump\t// out\n        /* \"#utility.yul\":23105:24096   */\n    tag_67:\n        /* \"#utility.yul\":23224:23230   */\n      0x00\n        /* \"#utility.yul\":23232:23238   */\n      dup1\n        /* \"#utility.yul\":23240:23246   */\n      0x00\n        /* \"#utility.yul\":23248:23254   */\n      dup1\n        /* \"#utility.yul\":23297:23300   */\n      0xa0\n        /* \"#utility.yul\":23285:23294   */\n      dup6\n        /* \"#utility.yul\":23276:23283   */\n      dup8\n        /* \"#utility.yul\":23272:23295   */\n      sub\n        /* \"#utility.yul\":23268:23301   */\n      slt\n        /* \"#utility.yul\":23265:23385   */\n      iszero\n      tag_589\n      jumpi\n        /* \"#utility.yul\":23304:23383   */\n      tag_590\n      tag_317\n      jump\t// in\n    tag_590:\n        /* \"#utility.yul\":23265:23385   */\n    tag_589:\n        /* \"#utility.yul\":23424:23425   */\n      0x00\n        /* \"#utility.yul\":23449:23502   */\n      tag_591\n        /* \"#utility.yul\":23494:23501   */\n      dup8\n        /* \"#utility.yul\":23485:23491   */\n      dup3\n        /* \"#utility.yul\":23474:23483   */\n      dup9\n        /* \"#utility.yul\":23470:23492   */\n      add\n        /* \"#utility.yul\":23449:23502   */\n      tag_336\n      jump\t// in\n    tag_591:\n        /* \"#utility.yul\":23439:23502   */\n      swap5\n      pop\n        /* \"#utility.yul\":23395:23512   */\n      pop\n        /* \"#utility.yul\":23579:23581   */\n      0x20\n        /* \"#utility.yul\":23568:23577   */\n      dup6\n        /* \"#utility.yul\":23564:23582   */\n      add\n        /* \"#utility.yul\":23551:23583   */\n      calldataload\n        /* \"#utility.yul\":23610:23628   */\n      0xffffffffffffffff\n        /* \"#utility.yul\":23602:23608   */\n      dup2\n        /* \"#utility.yul\":23599:23629   */\n      gt\n        /* \"#utility.yul\":23596:23713   */\n      iszero\n      tag_592\n      jumpi\n        /* \"#utility.yul\":23632:23711   */\n      tag_593\n      tag_318\n      jump\t// in\n    tag_593:\n        /* \"#utility.yul\":23596:23713   */\n    tag_592:\n        /* \"#utility.yul\":23737:23800   */\n      tag_594\n        /* \"#utility.yul\":23792:23799   */\n      dup8\n        /* \"#utility.yul\":23783:23789   */\n      dup3\n        /* \"#utility.yul\":23772:23781   */\n      dup9\n        /* \"#utility.yul\":23768:23790   */\n      add\n        /* \"#utility.yul\":23737:23800   */\n      tag_330\n      jump\t// in\n    tag_594:\n        /* \"#utility.yul\":23727:23800   */\n      swap4\n      pop\n        /* \"#utility.yul\":23522:23810   */\n      pop\n        /* \"#utility.yul\":23849:23851   */\n      0x40\n        /* \"#utility.yul\":23875:23928   */\n      tag_595\n        /* \"#utility.yul\":23920:23927   */\n      dup8\n        /* \"#utility.yul\":23911:23917   */\n      dup3\n        /* \"#utility.yul\":23900:23909   */\n      dup9\n        /* \"#utility.yul\":23896:23918   */\n      add\n        /* \"#utility.yul\":23875:23928   */\n      tag_321\n      jump\t// in\n    tag_595:\n        /* \"#utility.yul\":23865:23928   */\n      swap3\n      pop\n        /* \"#utility.yul\":23820:23938   */\n      pop\n        /* \"#utility.yul\":23977:23979   */\n      0x60\n        /* \"#utility.yul\":24003:24079   */\n      tag_596\n        /* \"#utility.yul\":24071:24078   */\n      dup8\n        /* \"#utility.yul\":24062:24068   */\n      dup3\n        /* \"#utility.yul\":24051:24060   */\n      dup9\n        /* \"#utility.yul\":24047:24069   */\n      add\n        /* \"#utility.yul\":24003:24079   */\n      tag_338\n      jump\t// in\n    tag_596:\n        /* \"#utility.yul\":23993:24079   */\n      swap2\n      pop\n        /* \"#utility.yul\":23948:24089   */\n      pop\n        /* \"#utility.yul\":23105:24096   */\n      swap3\n      swap6\n      swap2\n      swap5\n      pop\n      swap3\n      pop\n      jump\t// out\n        /* \"#utility.yul\":24102:24282   */\n    tag_76:\n        /* \"#utility.yul\":24150:24227   */\n      0x4e487b7100000000000000000000000000000000000000000000000000000000\n        /* \"#utility.yul\":24147:24148   */\n      0x00\n        /* \"#utility.yul\":24140:24228   */\n      mstore\n        /* \"#utility.yul\":24247:24251   */\n      0x32\n        /* \"#utility.yul\":24244:24245   */\n      0x04\n        /* \"#utility.yul\":24237:24252   */\n      mstore\n        /* \"#utility.yul\":24271:24275   */\n      0x24\n        /* \"#utility.yul\":24268:24269   */\n      0x00\n        /* \"#utility.yul\":24261:24276   */\n      revert\n        /* \"#utility.yul\":24288:24468   */\n    tag_366:\n        /* \"#utility.yul\":24336:24413   */\n      0x4e487b7100000000000000000000000000000000000000000000000000000000\n        /* \"#utility.yul\":24333:24334   */\n      0x00\n        /* \"#utility.yul\":24326:24414   */\n      mstore\n        /* \"#utility.yul\":24433:24437   */\n      0x22\n        /* \"#utility.yul\":24430:24431   */\n      0x04\n        /* \"#utility.yul\":24423:24438   */\n      mstore\n        /* \"#utility.yul\":24457:24461   */\n      0x24\n        /* \"#utility.yul\":24454:24455   */\n      0x00\n        /* \"#utility.yul\":24447:24462   */\n      revert\n        /* \"#utility.yul\":24474:24794   */\n    tag_92:\n        /* \"#utility.yul\":24518:24524   */\n      0x00\n        /* \"#utility.yul\":24555:24556   */\n      0x02\n        /* \"#utility.yul\":24549:24553   */\n      dup3\n        /* \"#utility.yul\":24545:24557   */\n      div\n        /* \"#utility.yul\":24535:24557   */\n      swap1\n      pop\n        /* \"#utility.yul\":24602:24603   */\n      0x01\n        /* \"#utility.yul\":24596:24600   */\n      dup3\n        /* \"#utility.yul\":24592:24604   */\n      and\n        /* \"#utility.yul\":24623:24641   */\n      dup1\n        /* \"#utility.yul\":24613:24694   */\n      tag_600\n      jumpi\n        /* \"#utility.yul\":24679:24683   */\n      0x7f\n        /* \"#utility.yul\":24671:24677   */\n      dup3\n        /* \"#utility.yul\":24667:24684   */\n      and\n        /* \"#utility.yul\":24657:24684   */\n      swap2\n      pop\n        /* \"#utility.yul\":24613:24694   */\n    tag_600:\n        /* \"#utility.yul\":24741:24743   */\n      0x20\n        /* \"#utility.yul\":24733:24739   */\n      dup3\n        /* \"#utility.yul\":24730:24744   */\n      lt\n        /* \"#utility.yul\":24710:24728   */\n      dup2\n        /* \"#utility.yul\":24707:24745   */\n      sub\n        /* \"#utility.yul\":24704:24788   */\n      tag_601\n      jumpi\n        /* \"#utility.yul\":24760:24778   */\n      tag_602\n      tag_366\n      jump\t// in\n    tag_602:\n        /* \"#utility.yul\":24704:24788   */\n    tag_601:\n        /* \"#utility.yul\":24525:24794   */\n      pop\n        /* \"#utility.yul\":24474:24794   */\n      swap2\n      swap1\n      pop\n      jump\t// out\n        /* \"#utility.yul\":24800:24980   */\n    tag_367:\n        /* \"#utility.yul\":24848:24925   */\n      0x4e487b7100000000000000000000000000000000000000000000000000000000\n        /* \"#utility.yul\":24845:24846   */\n      0x00\n        /* \"#utility.yul\":24838:24926   */\n      mstore\n        /* \"#utility.yul\":24945:24949   */\n      0x11\n        /* \"#utility.yul\":24942:24943   */\n      0x04\n        /* \"#utility.yul\":24935:24950   */\n      mstore\n        /* \"#utility.yul\":24969:24973   */\n      0x24\n        /* \"#utility.yul\":24966:24967   */\n      0x00\n        /* \"#utility.yul\":24959:24974   */\n      revert\n        /* \"#utility.yul\":24986:25219   */\n    tag_171:\n        /* \"#utility.yul\":25025:25028   */\n      0x00\n        /* \"#utility.yul\":25048:25072   */\n      tag_605\n        /* \"#utility.yul\":25066:25071   */\n      dup3\n        /* \"#utility.yul\":25048:25072   */\n      tag_319\n      jump\t// in\n    tag_605:\n        /* \"#utility.yul\":25039:25072   */\n      swap2\n      pop\n        /* \"#utility.yul\":25094:25160   */\n      0xffffffffffffffffffffffffffffffffffffffffffffffffffffffffffffffff\n        /* \"#utility.yul\":25087:25092   */\n      dup3\n        /* \"#utility.yul\":25084:25161   */\n      sub\n        /* \"#utility.yul\":25081:25184   */\n      tag_606\n      jumpi\n        /* \"#utility.yul\":25164:25182   */\n      tag_607\n      tag_367\n      jump\t// in\n    tag_607:\n        /* \"#utility.yul\":25081:25184   */\n    tag_606:\n        /* \"#utility.yul\":25211:25212   */\n      0x01\n        /* \"#utility.yul\":25204:25209   */\n      dup3\n        /* \"#utility.yul\":25200:25213   */\n      add\n        /* \"#utility.yul\":25193:25213   */\n      swap1\n      pop\n        /* \"#utility.yul\":24986:25219   */\n      swap2\n      swap1\n      pop\n      jump\t// out\n        /* \"#utility.yul\":25225:25405   */\n    tag_211:\n        /* \"#utility.yul\":25273:25350   */\n      0x4e487b7100000000000000000000000000000000000000000000000000000000\n        /* \"#utility.yul\":25270:25271   */\n      0x00\n        /* \"#utility.yul\":25263:25351   */\n      mstore\n        /* \"#utility.yul\":25370:25374   */\n      0x21\n        /* \"#utility.yul\":25367:25368   */\n      0x04\n        /* \"#utility.yul\":25360:25375   */\n      mstore\n        /* \"#utility.yul\":25394:25398   */\n      0x24\n        /* \"#utility.yul\":25391:25392   */\n      0x00\n        /* \"#utility.yul\":25384:25399   */\n      revert\n        /* \"#utility.yul\":25411:25602   */\n    tag_224:\n        /* \"#utility.yul\":25451:25455   */\n      0x00\n        /* \"#utility.yul\":25471:25491   */\n      tag_610\n        /* \"#utility.yul\":25489:25490   */\n      dup3\n        /* \"#utility.yul\":25471:25491   */\n      tag_319\n      jump\t// in\n    tag_610:\n        /* \"#utility.yul\":25466:25491   */\n      swap2\n      pop\n        /* \"#utility.yul\":25505:25525   */\n      tag_611\n        /* \"#utility.yul\":25523:25524   */\n      dup4\n        /* \"#utility.yul\":25505:25525   */\n      tag_319\n      jump\t// in\n    tag_611:\n        /* \"#utility.yul\":25500:25525   */\n      swap3\n      pop\n        /* \"#utility.yul\":25544:25545   */\n      dup3\n        /* \"#utility.yul\":25541:25542   */\n      dup3\n        /* \"#utility.yul\":25538:25546   */\n      lt\n        /* \"#utility.yul\":25535:25569   */\n      iszero\n      tag_612\n      jumpi\n        /* \"#utility.yul\":25549:25567   */\n      tag_613\n      tag_367\n      jump\t// in\n    tag_613:\n        /* \"#utility.yul\":25535:25569   */\n    tag_612:\n        /* \"#utility.yul\":25594:25595   */\n      dup3\n        /* \"#utility.yul\":25591:25592   */\n      dup3\n        /* \"#utility.yul\":25587:25596   */\n      sub\n        /* \"#utility.yul\":25579:25596   */\n      swap1\n      pop\n        /* \"#utility.yul\":25411:25602   */\n      swap3\n      swap2\n      pop\n      pop\n      jump\t// out\n        /* \"#utility.yul\":25608:25788   */\n    tag_240:\n        /* \"#utility.yul\":25656:25733   */\n      0x4e487b7100000000000000000000000000000000000000000000000000000000\n        /* \"#utility.yul\":25653:25654   */\n      0x00\n        /* \"#utility.yul\":25646:25734   */\n      mstore\n        /* \"#utility.yul\":25753:25757   */\n      0x31\n        /* \"#utility.yul\":25750:25751   */\n      0x04\n        /* \"#utility.yul\":25743:25758   */\n      mstore\n        /* \"#utility.yul\":25777:25781   */\n      0x24\n        /* \"#utility.yul\":25774:25775   */\n      0x00\n        /* \"#utility.yul\":25767:25782   */\n      revert\n\n    auxdata: 0xa2646970667358221220f2874204bb202da5d0fd3e350a881ff884777acc453b8c657da7437d0bd49d8464736f6c634300080d0033\n}\n","bytecode":{"linkReferences":{},"object":"60806040523480156200001157600080fd5b5060405162002ca738038062002ca78339818101604052810190620000379190620004d6565b81600160006101000a81548173ffffffffffffffffffffffffffffffffffffffff021916908373ffffffffffffffffffffffffffffffffffffffff16021790555082600290805190602001906200009092919062000224565b50600360046000600160009054906101000a900473ffffffffffffffffffffffffffffffffffffffff1673ffffffffffffffffffffffffffffffffffffffff1673ffffffffffffffffffffffffffffffffffffffff16815260200190815260200160002060006101000a81548160ff0219169083600381111562000119576200011862000570565b5b02179055506003600160009054906101000a900473ffffffffffffffffffffffffffffffffffffffff169080600181540180825580915050600190039060005260206000200160009091909190916101000a81548173ffffffffffffffffffffffffffffffffffffffff021916908373ffffffffffffffffffffffffffffffffffffffff1602179055508060056000600160009054906101000a900473ffffffffffffffffffffffffffffffffffffffff1673ffffffffffffffffffffffffffffffffffffffff1673ffffffffffffffffffffffffffffffffffffffff16815260200190815260200160002090805190602001906200021a92919062000224565b5050505062000603565b8280546200023290620005ce565b90600052602060002090601f016020900481019282620002565760008555620002a2565b82601f106200027157805160ff1916838001178555620002a2565b82800160010185558215620002a2579182015b82811115620002a157825182559160200191906001019062000284565b5b509050620002b19190620002b5565b5090565b5b80821115620002d0576000816000905550600101620002b6565b5090565b6000604051905090565b600080fd5b600080fd5b600080fd5b600080fd5b6000601f19601f8301169050919050565b7f4e487b7100000000000000000000000000000000000000000000000000000000600052604160045260246000fd5b6200033d82620002f2565b810181811067ffffffffffffffff821117156200035f576200035e62000303565b5b80604052505050565b600062000374620002d4565b905062000382828262000332565b919050565b600067ffffffffffffffff821115620003a557620003a462000303565b5b620003b082620002f2565b9050602081019050919050565b60005b83811015620003dd578082015181840152602081019050620003c0565b83811115620003ed576000848401525b50505050565b60006200040a620004048462000387565b62000368565b905082815260208101848484011115620004295762000428620002ed565b5b62000436848285620003bd565b509392505050565b600082601f830112620004565762000455620002e8565b5b815162000468848260208601620003f3565b91505092915050565b600073ffffffffffffffffffffffffffffffffffffffff82169050919050565b60006200049e8262000471565b9050919050565b620004b08162000491565b8114620004bc57600080fd5b50565b600081519050620004d081620004a5565b92915050565b600080600060608486031215620004f257620004f1620002de565b5b600084015167ffffffffffffffff811115620005135762000512620002e3565b5b62000521868287016200043e565b93505060206200053486828701620004bf565b925050604084015167ffffffffffffffff811115620005585762000557620002e3565b5b62000566868287016200043e565b9150509250925092565b7f4e487b7100000000000000000000000000000000000000000000000000000000600052602160045260246000fd5b7f4e487b7100000000000000000000000000000000000000000000000000000000600052602260045260246000fd5b60006002820490506001821680620005e757607f821691505b602082108103620005fd57620005fc6200059f565b5b50919050565b61269480620006136000396000f3fe608060405234801561001057600080fd5b50600436106100b45760003560e01c80639a342388116100715780639a34238814610191578063a3fbbaae146101c3578063a4af98be146101df578063b0a7c296146101fb578063e71a85f514610217578063ea2fc90514610233576100b4565b806310321ce2146100b95780632ae99bcf146100d5578063439998d0146100f1578063481c6a75146101215780636e9c691a1461013f578063705d862a14610175575b600080fd5b6100d360048036038101906100ce9190611bdb565b61024f565b005b6100ef60048036038101906100ea9190611ce5565b61039f565b005b61010b60048036038101906101069190611d41565b6103d0565b6040516101189190611df6565b60405180910390f35b61012961047a565b6040516101369190611e27565b60405180910390f35b61015960048036038101906101549190611e42565b6104a0565b60405161016c979695949392919061210a565b60405180910390f35b61018f600480360381019061018a91906121aa565b610b10565b005b6101ab60048036038101906101a69190611d41565b610c67565b6040516101ba939291906122a1565b60405180910390f35b6101dd60048036038101906101d891906122ed565b610fb7565b005b6101f960048036038101906101f4919061231a565b6110bd565b005b6102156004803603810190610210919061236d565b6112b0565b005b610231600480360381019061022c91906123c0565b611458565b005b61024d60048036038101906102489190612443565b6115a4565b005b8061025b81600261168d565b61026457600080fd5b60006040518060c001604052808981526020018881526020018781526020018581526020018681526020013373ffffffffffffffffffffffffffffffffffffffff168152509050806000808c81526020019081526020016000208a815481106102d0576102cf6124c6565b5b90600052602060002090600602016000820151816000015560208201518160010155604082015181600201908051906020019061030e9291906117c7565b50606082015181600301908051906020019061032b9291906117c7565b5060808201518160040190805190602001906103489291906117c7565b5060a08201518160050160006101000a81548173ffffffffffffffffffffffffffffffffffffffff021916908373ffffffffffffffffffffffffffffffffffffffff16021790555090505050505050505050505050565b806103ab81600361168d565b6103b457600080fd5b82600290805190602001906103ca9291906117c7565b50505050565b6060816103de81600161168d565b6103e757600080fd5b600280546103f490612524565b80601f016020809104026020016040519081016040528092919081815260200182805461042090612524565b801561046d5780601f106104425761010080835404028352916020019161046d565b820191906000526020600020905b81548152906001019060200180831161045057829003601f168201915b5050505050915050919050565b600160009054906101000a900473ffffffffffffffffffffffffffffffffffffffff1681565b6060806060806060806060876104b781600161168d565b6104c057600080fd5b60008060008c8152602001908152602001600020805480602002602001604051908101604052809291908181526020016000905b8282101561074657838290600052602060002090600602016040518060c0016040529081600082015481526020016001820154815260200160028201805461053b90612524565b80601f016020809104026020016040519081016040528092919081815260200182805461056790612524565b80156105b45780601f10610589576101008083540402835291602001916105b4565b820191906000526020600020905b81548152906001019060200180831161059757829003601f168201915b505050505081526020016003820180546105cd90612524565b80601f01602080910402602001604051908101604052809291908181526020018280546105f990612524565b80156106465780601f1061061b57610100808354040283529160200191610646565b820191906000526020600020905b81548152906001019060200180831161062957829003601f168201915b5050505050815260200160048201805461065f90612524565b80601f016020809104026020016040519081016040528092919081815260200182805461068b90612524565b80156106d85780601f106106ad576101008083540402835291602001916106d8565b820191906000526020600020905b8154815290600101906020018083116106bb57829003601f168201915b505050505081526020016005820160009054906101000a900473ffffffffffffffffffffffffffffffffffffffff1673ffffffffffffffffffffffffffffffffffffffff1673ffffffffffffffffffffffffffffffffffffffff1681525050815260200190600101906104f4565b5050505090506000815190508067ffffffffffffffff81111561076c5761076b61199c565b5b60405190808252806020026020018201604052801561079a5781602001602082028036833780820191505090505b5099508067ffffffffffffffff8111156107b7576107b661199c565b5b6040519080825280602002602001820160405280156107ea57816020015b60608152602001906001900390816107d55790505b5097508067ffffffffffffffff8111156108075761080661199c565b5b60405190808252806020026020018201604052801561083a57816020015b60608152602001906001900390816108255790505b5095508067ffffffffffffffff8111156108575761085661199c565b5b60405190808252806020026020018201604052801561088a57816020015b60608152602001906001900390816108755790505b5096508067ffffffffffffffff8111156108a7576108a661199c565b5b6040519080825280602002602001820160405280156108d55781602001602082028036833780820191505090505b5094508067ffffffffffffffff8111156108f2576108f161199c565b5b6040519080825280602002602001820160405280156109205781602001602082028036833780820191505090505b50935060005b81811015610b0057828181518110610941576109406124c6565b5b6020026020010151600001518b82815181106109605761095f6124c6565b5b60200260200101818152505082818151811061097f5761097e6124c6565b5b6020026020010151602001518a828151811061099e5761099d6124c6565b5b6020026020010181815250508281815181106109bd576109bc6124c6565b5b6020026020010151604001518982815181106109dc576109db6124c6565b5b60200260200101819052508281815181106109fa576109f96124c6565b5b602002602001015160800151878281518110610a1957610a186124c6565b5b6020026020010181905250828181518110610a3757610a366124c6565b5b602002602001015160600151888281518110610a5657610a556124c6565b5b6020026020010181905250828181518110610a7457610a736124c6565b5b602002602001015160a00151868281518110610a9357610a926124c6565b5b602002602001019073ffffffffffffffffffffffffffffffffffffffff16908173ffffffffffffffffffffffffffffffffffffffff168152505080858281518110610ae157610ae06124c6565b5b6020026020010181815250508080610af890612584565b915050610926565b5050505092959891949750929550565b80610b1c81600261168d565b610b2557600080fd5b60006040518060c001604052808981526020018881526020018781526020018681526020018581526020013373ffffffffffffffffffffffffffffffffffffffff1681525090506000808a815260200190815260200160002081908060018154018082558091505060019003906000526020600020906006020160009091909190915060008201518160000155602082015181600101556040820151816002019080519060200190610bd89291906117c7565b506060820151816003019080519060200190610bf59291906117c7565b506080820151816004019080519060200190610c129291906117c7565b5060a08201518160050160006101000a81548173ffffffffffffffffffffffffffffffffffffffff021916908373ffffffffffffffffffffffffffffffffffffffff1602179055505050505050505050505050565b606080606083610c7881600161168d565b610c8157600080fd5b600060038054905090506003805480602002602001604051908101604052809291908181526020018280548015610d0d57602002820191906000526020600020905b8160009054906101000a900473ffffffffffffffffffffffffffffffffffffffff1673ffffffffffffffffffffffffffffffffffffffff1681526020019060010190808311610cc3575b505050505094508067ffffffffffffffff811115610d2e57610d2d61199c565b5b604051908082528060200260200182016040528015610d6157816020015b6060815260200190600190039081610d4c5790505b5093508067ffffffffffffffff811115610d7e57610d7d61199c565b5b604051908082528060200260200182016040528015610dac5781602001602082028036833780820191505090505b50925060005b81811015610fad576005600060038381548110610dd257610dd16124c6565b5b9060005260206000200160009054906101000a900473ffffffffffffffffffffffffffffffffffffffff1673ffffffffffffffffffffffffffffffffffffffff1673ffffffffffffffffffffffffffffffffffffffff1681526020019081526020016000208054610e4290612524565b80601f0160208091040260200160405190810160405280929190818152602001828054610e6e90612524565b8015610ebb5780601f10610e9057610100808354040283529160200191610ebb565b820191906000526020600020905b815481529060010190602001808311610e9e57829003601f168201915b5050505050858281518110610ed357610ed26124c6565b5b60200260200101819052506004600060038381548110610ef657610ef56124c6565b5b9060005260206000200160009054906101000a900473ffffffffffffffffffffffffffffffffffffffff1673ffffffffffffffffffffffffffffffffffffffff1673ffffffffffffffffffffffffffffffffffffffff16815260200190815260200160002060009054906101000a900460ff166003811115610f7b57610f7a6125cc565b5b848281518110610f8e57610f8d6124c6565b5b6020026020010181815250508080610fa590612584565b915050610db2565b5050509193909250565b600160009054906101000a900473ffffffffffffffffffffffffffffffffffffffff1673ffffffffffffffffffffffffffffffffffffffff163373ffffffffffffffffffffffffffffffffffffffff161461101157600080fd5b80600160006101000a81548173ffffffffffffffffffffffffffffffffffffffff021916908373ffffffffffffffffffffffffffffffffffffffff1602179055506003600460008373ffffffffffffffffffffffffffffffffffffffff1673ffffffffffffffffffffffffffffffffffffffff16815260200190815260200160002060006101000a81548160ff021916908360038111156110b5576110b46125cc565b5b021790555050565b806110c981600261168d565b6110d257600080fd5b6000806000868152602001908152602001600020905080600182805490506110fa91906125fb565b8154811061110b5761110a6124c6565b5b906000526020600020906006020181858154811061112c5761112b6124c6565b5b90600052602060002090600602016000820154816000015560018201548160010155600282018160020190805461116290612524565b61116d92919061184d565b50600382018160030190805461118290612524565b61118d92919061184d565b5060048201816004019080546111a290612524565b6111ad92919061184d565b506005820160009054906101000a900473ffffffffffffffffffffffffffffffffffffffff168160050160006101000a81548173ffffffffffffffffffffffffffffffffffffffff021916908373ffffffffffffffffffffffffffffffffffffffff160217905550905050808054806112295761122861262f565b5b6001900381819060005260206000209060060201600080820160009055600182016000905560028201600061125e91906118da565b60038201600061126e91906118da565b60048201600061127e91906118da565b6005820160006101000a81549073ffffffffffffffffffffffffffffffffffffffff0219169055505090555050505050565b806112bc81600361168d565b6112c557600080fd5b600460008473ffffffffffffffffffffffffffffffffffffffff1673ffffffffffffffffffffffffffffffffffffffff16815260200190815260200160002060006101000a81549060ff0219169055600560008473ffffffffffffffffffffffffffffffffffffffff1673ffffffffffffffffffffffffffffffffffffffff168152602001908152602001600020600061135f91906118da565b6003600160038054905061137391906125fb565b81548110611384576113836124c6565b5b9060005260206000200160009054906101000a900473ffffffffffffffffffffffffffffffffffffffff16600385815481106113c3576113c26124c6565b5b9060005260206000200160006101000a81548173ffffffffffffffffffffffffffffffffffffffff021916908373ffffffffffffffffffffffffffffffffffffffff160217905550600380548061141d5761141c61262f565b5b6001900381819060005260206000200160006101000a81549073ffffffffffffffffffffffffffffffffffffffff0219169055905550505050565b8061146481600361168d565b61146d57600080fd5b6003859080600181540180825580915050600190039060005260206000200160009091909190916101000a81548173ffffffffffffffffffffffffffffffffffffffff021916908373ffffffffffffffffffffffffffffffffffffffff1602179055508360038111156114e3576114e26125cc565b5b600460008773ffffffffffffffffffffffffffffffffffffffff1673ffffffffffffffffffffffffffffffffffffffff16815260200190815260200160002060006101000a81548160ff02191690836003811115611544576115436125cc565b5b021790555082600560008773ffffffffffffffffffffffffffffffffffffffff1673ffffffffffffffffffffffffffffffffffffffff168152602001908152602001600020908051906020019061159c9291906117c7565b505050505050565b806115b081600361168d565b6115b957600080fd5b83600560008773ffffffffffffffffffffffffffffffffffffffff1673ffffffffffffffffffffffffffffffffffffffff168152602001908152602001600020908051906020019061160c9291906117c7565b508260038111156116205761161f6125cc565b5b600460008773ffffffffffffffffffffffffffffffffffffffff1673ffffffffffffffffffffffffffffffffffffffff16815260200190815260200160002060006101000a81548160ff02191690836003811115611681576116806125cc565b5b02179055505050505050565b60008160038111156116a2576116a16125cc565b5b60046000856000600281106116ba576116b96124c6565b5b602002015173ffffffffffffffffffffffffffffffffffffffff1673ffffffffffffffffffffffffffffffffffffffff16815260200190815260200160002060009054906101000a900460ff166003811115611719576117186125cc565b5b1015806117ae5750816003811115611734576117336125cc565b5b600460008560016002811061174c5761174b6124c6565b5b602002015173ffffffffffffffffffffffffffffffffffffffff1673ffffffffffffffffffffffffffffffffffffffff16815260200190815260200160002060009054906101000a900460ff1660038111156117ab576117aa6125cc565b5b10155b156117bc57600190506117c1565b600090505b92915050565b8280546117d390612524565b90600052602060002090601f0160209004810192826117f5576000855561183c565b82601f1061180e57805160ff191683800117855561183c565b8280016001018555821561183c579182015b8281111561183b578251825591602001919060010190611820565b5b509050611849919061191a565b5090565b82805461185990612524565b90600052602060002090601f01602090048101928261187b57600085556118c9565b82601f1061188c57805485556118c9565b828001600101855582156118c957600052602060002091601f016020900482015b828111156118c85782548255916001019190600101906118ad565b5b5090506118d6919061191a565b5090565b5080546118e690612524565b6000825580601f106118f85750611917565b601f016020900490600052602060002090810190611916919061191a565b5b50565b5b8082111561193357600081600090555060010161191b565b5090565b6000604051905090565b600080fd5b600080fd5b6000819050919050565b61195e8161194b565b811461196957600080fd5b50565b60008135905061197b81611955565b92915050565b600080fd5b600080fd5b6000601f19601f8301169050919050565b7f4e487b7100000000000000000000000000000000000000000000000000000000600052604160045260246000fd5b6119d48261198b565b810181811067ffffffffffffffff821117156119f3576119f261199c565b5b80604052505050565b6000611a06611937565b9050611a1282826119cb565b919050565b600067ffffffffffffffff821115611a3257611a3161199c565b5b611a3b8261198b565b9050602081019050919050565b82818337600083830152505050565b6000611a6a611a6584611a17565b6119fc565b905082815260208101848484011115611a8657611a85611986565b5b611a91848285611a48565b509392505050565b600082601f830112611aae57611aad611981565b5b8135611abe848260208601611a57565b91505092915050565b600067ffffffffffffffff821115611ae257611ae161199c565b5b602082029050919050565b600080fd5b600073ffffffffffffffffffffffffffffffffffffffff82169050919050565b6000611b1d82611af2565b9050919050565b611b2d81611b12565b8114611b3857600080fd5b50565b600081359050611b4a81611b24565b92915050565b6000611b63611b5e84611ac7565b6119fc565b90508060208402830185811115611b7d57611b7c611aed565b5b835b81811015611ba65780611b928882611b3b565b845260208401935050602081019050611b7f565b5050509392505050565b600082601f830112611bc557611bc4611981565b5b6002611bd2848285611b50565b91505092915050565b600080600080600080600080610120898b031215611bfc57611bfb611941565b5b6000611c0a8b828c0161196c565b9850506020611c1b8b828c0161196c565b9750506040611c2c8b828c0161196c565b9650506060611c3d8b828c0161196c565b955050608089013567ffffffffffffffff811115611c5e57611c5d611946565b5b611c6a8b828c01611a99565b94505060a089013567ffffffffffffffff811115611c8b57611c8a611946565b5b611c978b828c01611a99565b93505060c089013567ffffffffffffffff811115611cb857611cb7611946565b5b611cc48b828c01611a99565b92505060e0611cd58b828c01611bb0565b9150509295985092959890939650565b60008060608385031215611cfc57611cfb611941565b5b600083013567ffffffffffffffff811115611d1a57611d19611946565b5b611d2685828601611a99565b9250506020611d3785828601611bb0565b9150509250929050565b600060408284031215611d5757611d56611941565b5b6000611d6584828501611bb0565b91505092915050565b600081519050919050565b600082825260208201905092915050565b60005b83811015611da8578082015181840152602081019050611d8d565b83811115611db7576000848401525b50505050565b6000611dc882611d6e565b611dd28185611d79565b9350611de2818560208601611d8a565b611deb8161198b565b840191505092915050565b60006020820190508181036000830152611e108184611dbd565b905092915050565b611e2181611b12565b82525050565b6000602082019050611e3c6000830184611e18565b92915050565b60008060608385031215611e5957611e58611941565b5b6000611e678582860161196c565b9250506020611e7885828601611bb0565b9150509250929050565b600081519050919050565b600082825260208201905092915050565b6000819050602082019050919050565b611eb78161194b565b82525050565b6000611ec98383611eae565b60208301905092915050565b6000602082019050919050565b6000611eed82611e82565b611ef78185611e8d565b9350611f0283611e9e565b8060005b83811015611f33578151611f1a8882611ebd565b9750611f2583611ed5565b925050600181019050611f06565b5085935050505092915050565b600081519050919050565b600082825260208201905092915050565b6000819050602082019050919050565b600082825260208201905092915050565b6000611f8882611d6e565b611f928185611f6c565b9350611fa2818560208601611d8a565b611fab8161198b565b840191505092915050565b6000611fc28383611f7d565b905092915050565b6000602082019050919050565b6000611fe282611f40565b611fec8185611f4b565b935083602082028501611ffe85611f5c565b8060005b8581101561203a578484038952815161201b8582611fb6565b945061202683611fca565b925060208a01995050600181019050612002565b50829750879550505050505092915050565b600081519050919050565b600082825260208201905092915050565b6000819050602082019050919050565b61208181611b12565b82525050565b60006120938383612078565b60208301905092915050565b6000602082019050919050565b60006120b78261204c565b6120c18185612057565b93506120cc83612068565b8060005b838110156120fd5781516120e48882612087565b97506120ef8361209f565b9250506001810190506120d0565b5085935050505092915050565b600060e0820190508181036000830152612124818a611ee2565b905081810360208301526121388189611ee2565b9050818103604083015261214c8188611fd7565b905081810360608301526121608187611fd7565b905081810360808301526121748186611fd7565b905081810360a083015261218881856120ac565b905081810360c083015261219c8184611ee2565b905098975050505050505050565b6000806000806000806000610100888a0312156121ca576121c9611941565b5b60006121d88a828b0161196c565b97505060206121e98a828b0161196c565b96505060406121fa8a828b0161196c565b955050606088013567ffffffffffffffff81111561221b5761221a611946565b5b6122278a828b01611a99565b945050608088013567ffffffffffffffff81111561224857612247611946565b5b6122548a828b01611a99565b93505060a088013567ffffffffffffffff81111561227557612274611946565b5b6122818a828b01611a99565b92505060c06122928a828b01611bb0565b91505092959891949750929550565b600060608201905081810360008301526122bb81866120ac565b905081810360208301526122cf8185611fd7565b905081810360408301526122e38184611ee2565b9050949350505050565b60006020828403121561230357612302611941565b5b600061231184828501611b3b565b91505092915050565b60008060006080848603121561233357612332611941565b5b60006123418682870161196c565b93505060206123528682870161196c565b925050604061236386828701611bb0565b9150509250925092565b60008060006080848603121561238657612385611941565b5b60006123948682870161196c565b93505060206123a586828701611b3b565b92505060406123b686828701611bb0565b9150509250925092565b60008060008060a085870312156123da576123d9611941565b5b60006123e887828801611b3b565b94505060206123f98782880161196c565b935050604085013567ffffffffffffffff81111561241a57612419611946565b5b61242687828801611a99565b925050606061243787828801611bb0565b91505092959194509250565b60008060008060a0858703121561245d5761245c611941565b5b600061246b87828801611b3b565b945050602085013567ffffffffffffffff81111561248c5761248b611946565b5b61249887828801611a99565b93505060406124a98782880161196c565b92505060606124ba87828801611bb0565b91505092959194509250565b7f4e487b7100000000000000000000000000000000000000000000000000000000600052603260045260246000fd5b7f4e487b7100000000000000000000000000000000000000000000000000000000600052602260045260246000fd5b6000600282049050600182168061253c57607f821691505b60208210810361254f5761254e6124f5565b5b50919050565b7f4e487b7100000000000000000000000000000000000000000000000000000000600052601160045260246000fd5b600061258f8261194b565b91507fffffffffffffffffffffffffffffffffffffffffffffffffffffffffffffffff82036125c1576125c0612555565b5b600182019050919050565b7f4e487b7100000000000000000000000000000000000000000000000000000000600052602160045260246000fd5b60006126068261194b565b91506126118361194b565b92508282101561262457612623612555565b5b828203905092915050565b7f4e487b7100000000000000000000000000000000000000000000000000000000600052603160045260246000fdfea2646970667358221220f2874204bb202da5d0fd3e350a881ff884777acc453b8c657da7437d0bd49d8464736f6c634300080d0033","opcodes":"PUSH1 0x80 PUSH1 0x40 MSTORE CALLVALUE DUP1 ISZERO PUSH3 0x11 JUMPI PUSH1 0x0 DUP1 REVERT JUMPDEST POP PUSH1 0x40 MLOAD PUSH3 0x2CA7 CODESIZE SUB DUP1 PUSH3 0x2CA7 DUP4 CODECOPY DUP2 DUP2 ADD PUSH1 0x40 MSTORE DUP2 ADD SWAP1 PUSH3 0x37 SWAP2 SWAP1 PUSH3 0x4D6 JUMP JUMPDEST DUP2 PUSH1 0x1 PUSH1 0x0 PUSH2 0x100 EXP DUP2 SLOAD DUP2 PUSH20 0xFFFFFFFFFFFFFFFFFFFFFFFFFFFFFFFFFFFFFFFF MUL NOT AND SWAP1 DUP4 PUSH20 0xFFFFFFFFFFFFFFFFFFFFFFFFFFFFFFFFFFFFFFFF AND MUL OR SWAP1 SSTORE POP DUP3 PUSH1 0x2 SWAP1 DUP1 MLOAD SWAP1 PUSH1 0x20 ADD SWAP1 PUSH3 0x90 SWAP3 SWAP2 SWAP1 PUSH3 0x224 JUMP JUMPDEST POP PUSH1 0x3 PUSH1 0x4 PUSH1 0x0 PUSH1 0x1 PUSH1 0x0 SWAP1 SLOAD SWAP1 PUSH2 0x100 EXP SWAP1 DIV PUSH20 0xFFFFFFFFFFFFFFFFFFFFFFFFFFFFFFFFFFFFFFFF AND PUSH20 0xFFFFFFFFFFFFFFFFFFFFFFFFFFFFFFFFFFFFFFFF AND PUSH20 0xFFFFFFFFFFFFFFFFFFFFFFFFFFFFFFFFFFFFFFFF AND DUP2 MSTORE PUSH1 0x20 ADD SWAP1 DUP2 MSTORE PUSH1 0x20 ADD PUSH1 0x0 KECCAK256 PUSH1 0x0 PUSH2 0x100 EXP DUP2 SLOAD DUP2 PUSH1 0xFF MUL NOT AND SWAP1 DUP4 PUSH1 0x3 DUP2 GT ISZERO PUSH3 0x119 JUMPI PUSH3 0x118 PUSH3 0x570 JUMP JUMPDEST JUMPDEST MUL OR SWAP1 SSTORE POP PUSH1 0x3 PUSH1 0x1 PUSH1 0x0 SWAP1 SLOAD SWAP1 PUSH2 0x100 EXP SWAP1 DIV PUSH20 0xFFFFFFFFFFFFFFFFFFFFFFFFFFFFFFFFFFFFFFFF AND SWAP1 DUP1 PUSH1 0x1 DUP2 SLOAD ADD DUP1 DUP3 SSTORE DUP1 SWAP2 POP POP PUSH1 0x1 SWAP1 SUB SWAP1 PUSH1 0x0 MSTORE PUSH1 0x20 PUSH1 0x0 KECCAK256 ADD PUSH1 0x0 SWAP1 SWAP2 SWAP1 SWAP2 SWAP1 SWAP2 PUSH2 0x100 EXP DUP2 SLOAD DUP2 PUSH20 0xFFFFFFFFFFFFFFFFFFFFFFFFFFFFFFFFFFFFFFFF MUL NOT AND SWAP1 DUP4 PUSH20 0xFFFFFFFFFFFFFFFFFFFFFFFFFFFFFFFFFFFFFFFF AND MUL OR SWAP1 SSTORE POP DUP1 PUSH1 0x5 PUSH1 0x0 PUSH1 0x1 PUSH1 0x0 SWAP1 SLOAD SWAP1 PUSH2 0x100 EXP SWAP1 DIV PUSH20 0xFFFFFFFFFFFFFFFFFFFFFFFFFFFFFFFFFFFFFFFF AND PUSH20 0xFFFFFFFFFFFFFFFFFFFFFFFFFFFFFFFFFFFFFFFF AND PUSH20 0xFFFFFFFFFFFFFFFFFFFFFFFFFFFFFFFFFFFFFFFF AND DUP2 MSTORE PUSH1 0x20 ADD SWAP1 DUP2 MSTORE PUSH1 0x20 ADD PUSH1 0x0 KECCAK256 SWAP1 DUP1 MLOAD SWAP1 PUSH1 0x20 ADD SWAP1 PUSH3 0x21A SWAP3 SWAP2 SWAP1 PUSH3 0x224 JUMP JUMPDEST POP POP POP POP PUSH3 0x603 JUMP JUMPDEST DUP3 DUP1 SLOAD PUSH3 0x232 SWAP1 PUSH3 0x5CE JUMP JUMPDEST SWAP1 PUSH1 0x0 MSTORE PUSH1 0x20 PUSH1 0x0 KECCAK256 SWAP1 PUSH1 0x1F ADD PUSH1 0x20 SWAP1 DIV DUP2 ADD SWAP3 DUP3 PUSH3 0x256 JUMPI PUSH1 0x0 DUP6 SSTORE PUSH3 0x2A2 JUMP JUMPDEST DUP3 PUSH1 0x1F LT PUSH3 0x271 JUMPI DUP1 MLOAD PUSH1 0xFF NOT AND DUP4 DUP1 ADD OR DUP6 SSTORE PUSH3 0x2A2 JUMP JUMPDEST DUP3 DUP1 ADD PUSH1 0x1 ADD DUP6 SSTORE DUP3 ISZERO PUSH3 0x2A2 JUMPI SWAP2 DUP3 ADD JUMPDEST DUP3 DUP2 GT ISZERO PUSH3 0x2A1 JUMPI DUP3 MLOAD DUP3 SSTORE SWAP2 PUSH1 0x20 ADD SWAP2 SWAP1 PUSH1 0x1 ADD SWAP1 PUSH3 0x284 JUMP JUMPDEST JUMPDEST POP SWAP1 POP PUSH3 0x2B1 SWAP2 SWAP1 PUSH3 0x2B5 JUMP JUMPDEST POP SWAP1 JUMP JUMPDEST JUMPDEST DUP1 DUP3 GT ISZERO PUSH3 0x2D0 JUMPI PUSH1 0x0 DUP2 PUSH1 0x0 SWAP1 SSTORE POP PUSH1 0x1 ADD PUSH3 0x2B6 JUMP JUMPDEST POP SWAP1 JUMP JUMPDEST PUSH1 0x0 PUSH1 0x40 MLOAD SWAP1 POP SWAP1 JUMP JUMPDEST PUSH1 0x0 DUP1 REVERT JUMPDEST PUSH1 0x0 DUP1 REVERT JUMPDEST PUSH1 0x0 DUP1 REVERT JUMPDEST PUSH1 0x0 DUP1 REVERT JUMPDEST PUSH1 0x0 PUSH1 0x1F NOT PUSH1 0x1F DUP4 ADD AND SWAP1 POP SWAP2 SWAP1 POP JUMP JUMPDEST PUSH32 0x4E487B7100000000000000000000000000000000000000000000000000000000 PUSH1 0x0 MSTORE PUSH1 0x41 PUSH1 0x4 MSTORE PUSH1 0x24 PUSH1 0x0 REVERT JUMPDEST PUSH3 0x33D DUP3 PUSH3 0x2F2 JUMP JUMPDEST DUP2 ADD DUP2 DUP2 LT PUSH8 0xFFFFFFFFFFFFFFFF DUP3 GT OR ISZERO PUSH3 0x35F JUMPI PUSH3 0x35E PUSH3 0x303 JUMP JUMPDEST JUMPDEST DUP1 PUSH1 0x40 MSTORE POP POP POP JUMP JUMPDEST PUSH1 0x0 PUSH3 0x374 PUSH3 0x2D4 JUMP JUMPDEST SWAP1 POP PUSH3 0x382 DUP3 DUP3 PUSH3 0x332 JUMP JUMPDEST SWAP2 SWAP1 POP JUMP JUMPDEST PUSH1 0x0 PUSH8 0xFFFFFFFFFFFFFFFF DUP3 GT ISZERO PUSH3 0x3A5 JUMPI PUSH3 0x3A4 PUSH3 0x303 JUMP JUMPDEST JUMPDEST PUSH3 0x3B0 DUP3 PUSH3 0x2F2 JUMP JUMPDEST SWAP1 POP PUSH1 0x20 DUP2 ADD SWAP1 POP SWAP2 SWAP1 POP JUMP JUMPDEST PUSH1 0x0 JUMPDEST DUP4 DUP2 LT ISZERO PUSH3 0x3DD JUMPI DUP1 DUP3 ADD MLOAD DUP2 DUP5 ADD MSTORE PUSH1 0x20 DUP2 ADD SWAP1 POP PUSH3 0x3C0 JUMP JUMPDEST DUP4 DUP2 GT ISZERO PUSH3 0x3ED JUMPI PUSH1 0x0 DUP5 DUP5 ADD MSTORE JUMPDEST POP POP POP POP JUMP JUMPDEST PUSH1 0x0 PUSH3 0x40A PUSH3 0x404 DUP5 PUSH3 0x387 JUMP JUMPDEST PUSH3 0x368 JUMP JUMPDEST SWAP1 POP DUP3 DUP2 MSTORE PUSH1 0x20 DUP2 ADD DUP5 DUP5 DUP5 ADD GT ISZERO PUSH3 0x429 JUMPI PUSH3 0x428 PUSH3 0x2ED JUMP JUMPDEST JUMPDEST PUSH3 0x436 DUP5 DUP3 DUP6 PUSH3 0x3BD JUMP JUMPDEST POP SWAP4 SWAP3 POP POP POP JUMP JUMPDEST PUSH1 0x0 DUP3 PUSH1 0x1F DUP4 ADD SLT PUSH3 0x456 JUMPI PUSH3 0x455 PUSH3 0x2E8 JUMP JUMPDEST JUMPDEST DUP2 MLOAD PUSH3 0x468 DUP5 DUP3 PUSH1 0x20 DUP7 ADD PUSH3 0x3F3 JUMP JUMPDEST SWAP2 POP POP SWAP3 SWAP2 POP POP JUMP JUMPDEST PUSH1 0x0 PUSH20 0xFFFFFFFFFFFFFFFFFFFFFFFFFFFFFFFFFFFFFFFF DUP3 AND SWAP1 POP SWAP2 SWAP1 POP JUMP JUMPDEST PUSH1 0x0 PUSH3 0x49E DUP3 PUSH3 0x471 JUMP JUMPDEST SWAP1 POP SWAP2 SWAP1 POP JUMP JUMPDEST PUSH3 0x4B0 DUP2 PUSH3 0x491 JUMP JUMPDEST DUP2 EQ PUSH3 0x4BC JUMPI PUSH1 0x0 DUP1 REVERT JUMPDEST POP JUMP JUMPDEST PUSH1 0x0 DUP2 MLOAD SWAP1 POP PUSH3 0x4D0 DUP2 PUSH3 0x4A5 JUMP JUMPDEST SWAP3 SWAP2 POP POP JUMP JUMPDEST PUSH1 0x0 DUP1 PUSH1 0x0 PUSH1 0x60 DUP5 DUP7 SUB SLT ISZERO PUSH3 0x4F2 JUMPI PUSH3 0x4F1 PUSH3 0x2DE JUMP JUMPDEST JUMPDEST PUSH1 0x0 DUP5 ADD MLOAD PUSH8 0xFFFFFFFFFFFFFFFF DUP2 GT ISZERO PUSH3 0x513 JUMPI PUSH3 0x512 PUSH3 0x2E3 JUMP JUMPDEST JUMPDEST PUSH3 0x521 DUP7 DUP3 DUP8 ADD PUSH3 0x43E JUMP JUMPDEST SWAP4 POP POP PUSH1 0x20 PUSH3 0x534 DUP7 DUP3 DUP8 ADD PUSH3 0x4BF JUMP JUMPDEST SWAP3 POP POP PUSH1 0x40 DUP5 ADD MLOAD PUSH8 0xFFFFFFFFFFFFFFFF DUP2 GT ISZERO PUSH3 0x558 JUMPI PUSH3 0x557 PUSH3 0x2E3 JUMP JUMPDEST JUMPDEST PUSH3 0x566 DUP7 DUP3 DUP8 ADD PUSH3 0x43E JUMP JUMPDEST SWAP2 POP POP SWAP3 POP SWAP3 POP SWAP3 JUMP JUMPDEST PUSH32 0x4E487B7100000000000000000000000000000000000000000000000000000000 PUSH1 0x0 MSTORE PUSH1 0x21 PUSH1 0x4 MSTORE PUSH1 0x24 PUSH1 0x0 REVERT JUMPDEST PUSH32 0x4E487B7100000000000000000000000000000000000000000000000000000000 PUSH1 0x0 MSTORE PUSH1 0x22 PUSH1 0x4 MSTORE PUSH1 0x24 PUSH1 0x0 REVERT JUMPDEST PUSH1 0x0 PUSH1 0x2 DUP3 DIV SWAP1 POP PUSH1 0x1 DUP3 AND DUP1 PUSH3 0x5E7 JUMPI PUSH1 0x7F DUP3 AND SWAP2 POP JUMPDEST PUSH1 0x20 DUP3 LT DUP2 SUB PUSH3 0x5FD JUMPI PUSH3 0x5FC PUSH3 0x59F JUMP JUMPDEST JUMPDEST POP SWAP2 SWAP1 POP JUMP JUMPDEST PUSH2 0x2694 DUP1 PUSH3 0x613 PUSH1 0x0 CODECOPY PUSH1 0x0 RETURN INVALID PUSH1 0x80 PUSH1 0x40 MSTORE CALLVALUE DUP1 ISZERO PUSH2 0x10 JUMPI PUSH1 0x0 DUP1 REVERT JUMPDEST POP PUSH1 0x4 CALLDATASIZE LT PUSH2 0xB4 JUMPI PUSH1 0x0 CALLDATALOAD PUSH1 0xE0 SHR DUP1 PUSH4 0x9A342388 GT PUSH2 0x71 JUMPI DUP1 PUSH4 0x9A342388 EQ PUSH2 0x191 JUMPI DUP1 PUSH4 0xA3FBBAAE EQ PUSH2 0x1C3 JUMPI DUP1 PUSH4 0xA4AF98BE EQ PUSH2 0x1DF JUMPI DUP1 PUSH4 0xB0A7C296 EQ PUSH2 0x1FB JUMPI DUP1 PUSH4 0xE71A85F5 EQ PUSH2 0x217 JUMPI DUP1 PUSH4 0xEA2FC905 EQ PUSH2 0x233 JUMPI PUSH2 0xB4 JUMP JUMPDEST DUP1 PUSH4 0x10321CE2 EQ PUSH2 0xB9 JUMPI DUP1 PUSH4 0x2AE99BCF EQ PUSH2 0xD5 JUMPI DUP1 PUSH4 0x439998D0 EQ PUSH2 0xF1 JUMPI DUP1 PUSH4 0x481C6A75 EQ PUSH2 0x121 JUMPI DUP1 PUSH4 0x6E9C691A EQ PUSH2 0x13F JUMPI DUP1 PUSH4 0x705D862A EQ PUSH2 0x175 JUMPI JUMPDEST PUSH1 0x0 DUP1 REVERT JUMPDEST PUSH2 0xD3 PUSH1 0x4 DUP1 CALLDATASIZE SUB DUP2 ADD SWAP1 PUSH2 0xCE SWAP2 SWAP1 PUSH2 0x1BDB JUMP JUMPDEST PUSH2 0x24F JUMP JUMPDEST STOP JUMPDEST PUSH2 0xEF PUSH1 0x4 DUP1 CALLDATASIZE SUB DUP2 ADD SWAP1 PUSH2 0xEA SWAP2 SWAP1 PUSH2 0x1CE5 JUMP JUMPDEST PUSH2 0x39F JUMP JUMPDEST STOP JUMPDEST PUSH2 0x10B PUSH1 0x4 DUP1 CALLDATASIZE SUB DUP2 ADD SWAP1 PUSH2 0x106 SWAP2 SWAP1 PUSH2 0x1D41 JUMP JUMPDEST PUSH2 0x3D0 JUMP JUMPDEST PUSH1 0x40 MLOAD PUSH2 0x118 SWAP2 SWAP1 PUSH2 0x1DF6 JUMP JUMPDEST PUSH1 0x40 MLOAD DUP1 SWAP2 SUB SWAP1 RETURN JUMPDEST PUSH2 0x129 PUSH2 0x47A JUMP JUMPDEST PUSH1 0x40 MLOAD PUSH2 0x136 SWAP2 SWAP1 PUSH2 0x1E27 JUMP JUMPDEST PUSH1 0x40 MLOAD DUP1 SWAP2 SUB SWAP1 RETURN JUMPDEST PUSH2 0x159 PUSH1 0x4 DUP1 CALLDATASIZE SUB DUP2 ADD SWAP1 PUSH2 0x154 SWAP2 SWAP1 PUSH2 0x1E42 JUMP JUMPDEST PUSH2 0x4A0 JUMP JUMPDEST PUSH1 0x40 MLOAD PUSH2 0x16C SWAP8 SWAP7 SWAP6 SWAP5 SWAP4 SWAP3 SWAP2 SWAP1 PUSH2 0x210A JUMP JUMPDEST PUSH1 0x40 MLOAD DUP1 SWAP2 SUB SWAP1 RETURN JUMPDEST PUSH2 0x18F PUSH1 0x4 DUP1 CALLDATASIZE SUB DUP2 ADD SWAP1 PUSH2 0x18A SWAP2 SWAP1 PUSH2 0x21AA JUMP JUMPDEST PUSH2 0xB10 JUMP JUMPDEST STOP JUMPDEST PUSH2 0x1AB PUSH1 0x4 DUP1 CALLDATASIZE SUB DUP2 ADD SWAP1 PUSH2 0x1A6 SWAP2 SWAP1 PUSH2 0x1D41 JUMP JUMPDEST PUSH2 0xC67 JUMP JUMPDEST PUSH1 0x40 MLOAD PUSH2 0x1BA SWAP4 SWAP3 SWAP2 SWAP1 PUSH2 0x22A1 JUMP JUMPDEST PUSH1 0x40 MLOAD DUP1 SWAP2 SUB SWAP1 RETURN JUMPDEST PUSH2 0x1DD PUSH1 0x4 DUP1 CALLDATASIZE SUB DUP2 ADD SWAP1 PUSH2 0x1D8 SWAP2 SWAP1 PUSH2 0x22ED JUMP JUMPDEST PUSH2 0xFB7 JUMP JUMPDEST STOP JUMPDEST PUSH2 0x1F9 PUSH1 0x4 DUP1 CALLDATASIZE SUB DUP2 ADD SWAP1 PUSH2 0x1F4 SWAP2 SWAP1 PUSH2 0x231A JUMP JUMPDEST PUSH2 0x10BD JUMP JUMPDEST STOP JUMPDEST PUSH2 0x215 PUSH1 0x4 DUP1 CALLDATASIZE SUB DUP2 ADD SWAP1 PUSH2 0x210 SWAP2 SWAP1 PUSH2 0x236D JUMP JUMPDEST PUSH2 0x12B0 JUMP JUMPDEST STOP JUMPDEST PUSH2 0x231 PUSH1 0x4 DUP1 CALLDATASIZE SUB DUP2 ADD SWAP1 PUSH2 0x22C SWAP2 SWAP1 PUSH2 0x23C0 JUMP JUMPDEST PUSH2 0x1458 JUMP JUMPDEST STOP JUMPDEST PUSH2 0x24D PUSH1 0x4 DUP1 CALLDATASIZE SUB DUP2 ADD SWAP1 PUSH2 0x248 SWAP2 SWAP1 PUSH2 0x2443 JUMP JUMPDEST PUSH2 0x15A4 JUMP JUMPDEST STOP JUMPDEST DUP1 PUSH2 0x25B DUP2 PUSH1 0x2 PUSH2 0x168D JUMP JUMPDEST PUSH2 0x264 JUMPI PUSH1 0x0 DUP1 REVERT JUMPDEST PUSH1 0x0 PUSH1 0x40 MLOAD DUP1 PUSH1 0xC0 ADD PUSH1 0x40 MSTORE DUP1 DUP10 DUP2 MSTORE PUSH1 0x20 ADD DUP9 DUP2 MSTORE PUSH1 0x20 ADD DUP8 DUP2 MSTORE PUSH1 0x20 ADD DUP6 DUP2 MSTORE PUSH1 0x20 ADD DUP7 DUP2 MSTORE PUSH1 0x20 ADD CALLER PUSH20 0xFFFFFFFFFFFFFFFFFFFFFFFFFFFFFFFFFFFFFFFF AND DUP2 MSTORE POP SWAP1 POP DUP1 PUSH1 0x0 DUP1 DUP13 DUP2 MSTORE PUSH1 0x20 ADD SWAP1 DUP2 MSTORE PUSH1 0x20 ADD PUSH1 0x0 KECCAK256 DUP11 DUP2 SLOAD DUP2 LT PUSH2 0x2D0 JUMPI PUSH2 0x2CF PUSH2 0x24C6 JUMP JUMPDEST JUMPDEST SWAP1 PUSH1 0x0 MSTORE PUSH1 0x20 PUSH1 0x0 KECCAK256 SWAP1 PUSH1 0x6 MUL ADD PUSH1 0x0 DUP3 ADD MLOAD DUP2 PUSH1 0x0 ADD SSTORE PUSH1 0x20 DUP3 ADD MLOAD DUP2 PUSH1 0x1 ADD SSTORE PUSH1 0x40 DUP3 ADD MLOAD DUP2 PUSH1 0x2 ADD SWAP1 DUP1 MLOAD SWAP1 PUSH1 0x20 ADD SWAP1 PUSH2 0x30E SWAP3 SWAP2 SWAP1 PUSH2 0x17C7 JUMP JUMPDEST POP PUSH1 0x60 DUP3 ADD MLOAD DUP2 PUSH1 0x3 ADD SWAP1 DUP1 MLOAD SWAP1 PUSH1 0x20 ADD SWAP1 PUSH2 0x32B SWAP3 SWAP2 SWAP1 PUSH2 0x17C7 JUMP JUMPDEST POP PUSH1 0x80 DUP3 ADD MLOAD DUP2 PUSH1 0x4 ADD SWAP1 DUP1 MLOAD SWAP1 PUSH1 0x20 ADD SWAP1 PUSH2 0x348 SWAP3 SWAP2 SWAP1 PUSH2 0x17C7 JUMP JUMPDEST POP PUSH1 0xA0 DUP3 ADD MLOAD DUP2 PUSH1 0x5 ADD PUSH1 0x0 PUSH2 0x100 EXP DUP2 SLOAD DUP2 PUSH20 0xFFFFFFFFFFFFFFFFFFFFFFFFFFFFFFFFFFFFFFFF MUL NOT AND SWAP1 DUP4 PUSH20 0xFFFFFFFFFFFFFFFFFFFFFFFFFFFFFFFFFFFFFFFF AND MUL OR SWAP1 SSTORE POP SWAP1 POP POP POP POP POP POP POP POP POP POP POP POP JUMP JUMPDEST DUP1 PUSH2 0x3AB DUP2 PUSH1 0x3 PUSH2 0x168D JUMP JUMPDEST PUSH2 0x3B4 JUMPI PUSH1 0x0 DUP1 REVERT JUMPDEST DUP3 PUSH1 0x2 SWAP1 DUP1 MLOAD SWAP1 PUSH1 0x20 ADD SWAP1 PUSH2 0x3CA SWAP3 SWAP2 SWAP1 PUSH2 0x17C7 JUMP JUMPDEST POP POP POP POP JUMP JUMPDEST PUSH1 0x60 DUP2 PUSH2 0x3DE DUP2 PUSH1 0x1 PUSH2 0x168D JUMP JUMPDEST PUSH2 0x3E7 JUMPI PUSH1 0x0 DUP1 REVERT JUMPDEST PUSH1 0x2 DUP1 SLOAD PUSH2 0x3F4 SWAP1 PUSH2 0x2524 JUMP JUMPDEST DUP1 PUSH1 0x1F ADD PUSH1 0x20 DUP1 SWAP2 DIV MUL PUSH1 0x20 ADD PUSH1 0x40 MLOAD SWAP1 DUP2 ADD PUSH1 0x40 MSTORE DUP1 SWAP3 SWAP2 SWAP1 DUP2 DUP2 MSTORE PUSH1 0x20 ADD DUP3 DUP1 SLOAD PUSH2 0x420 SWAP1 PUSH2 0x2524 JUMP JUMPDEST DUP1 ISZERO PUSH2 0x46D JUMPI DUP1 PUSH1 0x1F LT PUSH2 0x442 JUMPI PUSH2 0x100 DUP1 DUP4 SLOAD DIV MUL DUP4 MSTORE SWAP2 PUSH1 0x20 ADD SWAP2 PUSH2 0x46D JUMP JUMPDEST DUP3 ADD SWAP2 SWAP1 PUSH1 0x0 MSTORE PUSH1 0x20 PUSH1 0x0 KECCAK256 SWAP1 JUMPDEST DUP2 SLOAD DUP2 MSTORE SWAP1 PUSH1 0x1 ADD SWAP1 PUSH1 0x20 ADD DUP1 DUP4 GT PUSH2 0x450 JUMPI DUP3 SWAP1 SUB PUSH1 0x1F AND DUP3 ADD SWAP2 JUMPDEST POP POP POP POP POP SWAP2 POP POP SWAP2 SWAP1 POP JUMP JUMPDEST PUSH1 0x1 PUSH1 0x0 SWAP1 SLOAD SWAP1 PUSH2 0x100 EXP SWAP1 DIV PUSH20 0xFFFFFFFFFFFFFFFFFFFFFFFFFFFFFFFFFFFFFFFF AND DUP2 JUMP JUMPDEST PUSH1 0x60 DUP1 PUSH1 0x60 DUP1 PUSH1 0x60 DUP1 PUSH1 0x60 DUP8 PUSH2 0x4B7 DUP2 PUSH1 0x1 PUSH2 0x168D JUMP JUMPDEST PUSH2 0x4C0 JUMPI PUSH1 0x0 DUP1 REVERT JUMPDEST PUSH1 0x0 DUP1 PUSH1 0x0 DUP13 DUP2 MSTORE PUSH1 0x20 ADD SWAP1 DUP2 MSTORE PUSH1 0x20 ADD PUSH1 0x0 KECCAK256 DUP1 SLOAD DUP1 PUSH1 0x20 MUL PUSH1 0x20 ADD PUSH1 0x40 MLOAD SWAP1 DUP2 ADD PUSH1 0x40 MSTORE DUP1 SWAP3 SWAP2 SWAP1 DUP2 DUP2 MSTORE PUSH1 0x20 ADD PUSH1 0x0 SWAP1 JUMPDEST DUP3 DUP3 LT ISZERO PUSH2 0x746 JUMPI DUP4 DUP3 SWAP1 PUSH1 0x0 MSTORE PUSH1 0x20 PUSH1 0x0 KECCAK256 SWAP1 PUSH1 0x6 MUL ADD PUSH1 0x40 MLOAD DUP1 PUSH1 0xC0 ADD PUSH1 0x40 MSTORE SWAP1 DUP2 PUSH1 0x0 DUP3 ADD SLOAD DUP2 MSTORE PUSH1 0x20 ADD PUSH1 0x1 DUP3 ADD SLOAD DUP2 MSTORE PUSH1 0x20 ADD PUSH1 0x2 DUP3 ADD DUP1 SLOAD PUSH2 0x53B SWAP1 PUSH2 0x2524 JUMP JUMPDEST DUP1 PUSH1 0x1F ADD PUSH1 0x20 DUP1 SWAP2 DIV MUL PUSH1 0x20 ADD PUSH1 0x40 MLOAD SWAP1 DUP2 ADD PUSH1 0x40 MSTORE DUP1 SWAP3 SWAP2 SWAP1 DUP2 DUP2 MSTORE PUSH1 0x20 ADD DUP3 DUP1 SLOAD PUSH2 0x567 SWAP1 PUSH2 0x2524 JUMP JUMPDEST DUP1 ISZERO PUSH2 0x5B4 JUMPI DUP1 PUSH1 0x1F LT PUSH2 0x589 JUMPI PUSH2 0x100 DUP1 DUP4 SLOAD DIV MUL DUP4 MSTORE SWAP2 PUSH1 0x20 ADD SWAP2 PUSH2 0x5B4 JUMP JUMPDEST DUP3 ADD SWAP2 SWAP1 PUSH1 0x0 MSTORE PUSH1 0x20 PUSH1 0x0 KECCAK256 SWAP1 JUMPDEST DUP2 SLOAD DUP2 MSTORE SWAP1 PUSH1 0x1 ADD SWAP1 PUSH1 0x20 ADD DUP1 DUP4 GT PUSH2 0x597 JUMPI DUP3 SWAP1 SUB PUSH1 0x1F AND DUP3 ADD SWAP2 JUMPDEST POP POP POP POP POP DUP2 MSTORE PUSH1 0x20 ADD PUSH1 0x3 DUP3 ADD DUP1 SLOAD PUSH2 0x5CD SWAP1 PUSH2 0x2524 JUMP JUMPDEST DUP1 PUSH1 0x1F ADD PUSH1 0x20 DUP1 SWAP2 DIV MUL PUSH1 0x20 ADD PUSH1 0x40 MLOAD SWAP1 DUP2 ADD PUSH1 0x40 MSTORE DUP1 SWAP3 SWAP2 SWAP1 DUP2 DUP2 MSTORE PUSH1 0x20 ADD DUP3 DUP1 SLOAD PUSH2 0x5F9 SWAP1 PUSH2 0x2524 JUMP JUMPDEST DUP1 ISZERO PUSH2 0x646 JUMPI DUP1 PUSH1 0x1F LT PUSH2 0x61B JUMPI PUSH2 0x100 DUP1 DUP4 SLOAD DIV MUL DUP4 MSTORE SWAP2 PUSH1 0x20 ADD SWAP2 PUSH2 0x646 JUMP JUMPDEST DUP3 ADD SWAP2 SWAP1 PUSH1 0x0 MSTORE PUSH1 0x20 PUSH1 0x0 KECCAK256 SWAP1 JUMPDEST DUP2 SLOAD DUP2 MSTORE SWAP1 PUSH1 0x1 ADD SWAP1 PUSH1 0x20 ADD DUP1 DUP4 GT PUSH2 0x629 JUMPI DUP3 SWAP1 SUB PUSH1 0x1F AND DUP3 ADD SWAP2 JUMPDEST POP POP POP POP POP DUP2 MSTORE PUSH1 0x20 ADD PUSH1 0x4 DUP3 ADD DUP1 SLOAD PUSH2 0x65F SWAP1 PUSH2 0x2524 JUMP JUMPDEST DUP1 PUSH1 0x1F ADD PUSH1 0x20 DUP1 SWAP2 DIV MUL PUSH1 0x20 ADD PUSH1 0x40 MLOAD SWAP1 DUP2 ADD PUSH1 0x40 MSTORE DUP1 SWAP3 SWAP2 SWAP1 DUP2 DUP2 MSTORE PUSH1 0x20 ADD DUP3 DUP1 SLOAD PUSH2 0x68B SWAP1 PUSH2 0x2524 JUMP JUMPDEST DUP1 ISZERO PUSH2 0x6D8 JUMPI DUP1 PUSH1 0x1F LT PUSH2 0x6AD JUMPI PUSH2 0x100 DUP1 DUP4 SLOAD DIV MUL DUP4 MSTORE SWAP2 PUSH1 0x20 ADD SWAP2 PUSH2 0x6D8 JUMP JUMPDEST DUP3 ADD SWAP2 SWAP1 PUSH1 0x0 MSTORE PUSH1 0x20 PUSH1 0x0 KECCAK256 SWAP1 JUMPDEST DUP2 SLOAD DUP2 MSTORE SWAP1 PUSH1 0x1 ADD SWAP1 PUSH1 0x20 ADD DUP1 DUP4 GT PUSH2 0x6BB JUMPI DUP3 SWAP1 SUB PUSH1 0x1F AND DUP3 ADD SWAP2 JUMPDEST POP POP POP POP POP DUP2 MSTORE PUSH1 0x20 ADD PUSH1 0x5 DUP3 ADD PUSH1 0x0 SWAP1 SLOAD SWAP1 PUSH2 0x100 EXP SWAP1 DIV PUSH20 0xFFFFFFFFFFFFFFFFFFFFFFFFFFFFFFFFFFFFFFFF AND PUSH20 0xFFFFFFFFFFFFFFFFFFFFFFFFFFFFFFFFFFFFFFFF AND PUSH20 0xFFFFFFFFFFFFFFFFFFFFFFFFFFFFFFFFFFFFFFFF AND DUP2 MSTORE POP POP DUP2 MSTORE PUSH1 0x20 ADD SWAP1 PUSH1 0x1 ADD SWAP1 PUSH2 0x4F4 JUMP JUMPDEST POP POP POP POP SWAP1 POP PUSH1 0x0 DUP2 MLOAD SWAP1 POP DUP1 PUSH8 0xFFFFFFFFFFFFFFFF DUP2 GT ISZERO PUSH2 0x76C JUMPI PUSH2 0x76B PUSH2 0x199C JUMP JUMPDEST JUMPDEST PUSH1 0x40 MLOAD SWAP1 DUP1 DUP3 MSTORE DUP1 PUSH1 0x20 MUL PUSH1 0x20 ADD DUP3 ADD PUSH1 0x40 MSTORE DUP1 ISZERO PUSH2 0x79A JUMPI DUP2 PUSH1 0x20 ADD PUSH1 0x20 DUP3 MUL DUP1 CALLDATASIZE DUP4 CALLDATACOPY DUP1 DUP3 ADD SWAP2 POP POP SWAP1 POP JUMPDEST POP SWAP10 POP DUP1 PUSH8 0xFFFFFFFFFFFFFFFF DUP2 GT ISZERO PUSH2 0x7B7 JUMPI PUSH2 0x7B6 PUSH2 0x199C JUMP JUMPDEST JUMPDEST PUSH1 0x40 MLOAD SWAP1 DUP1 DUP3 MSTORE DUP1 PUSH1 0x20 MUL PUSH1 0x20 ADD DUP3 ADD PUSH1 0x40 MSTORE DUP1 ISZERO PUSH2 0x7EA JUMPI DUP2 PUSH1 0x20 ADD JUMPDEST PUSH1 0x60 DUP2 MSTORE PUSH1 0x20 ADD SWAP1 PUSH1 0x1 SWAP1 SUB SWAP1 DUP2 PUSH2 0x7D5 JUMPI SWAP1 POP JUMPDEST POP SWAP8 POP DUP1 PUSH8 0xFFFFFFFFFFFFFFFF DUP2 GT ISZERO PUSH2 0x807 JUMPI PUSH2 0x806 PUSH2 0x199C JUMP JUMPDEST JUMPDEST PUSH1 0x40 MLOAD SWAP1 DUP1 DUP3 MSTORE DUP1 PUSH1 0x20 MUL PUSH1 0x20 ADD DUP3 ADD PUSH1 0x40 MSTORE DUP1 ISZERO PUSH2 0x83A JUMPI DUP2 PUSH1 0x20 ADD JUMPDEST PUSH1 0x60 DUP2 MSTORE PUSH1 0x20 ADD SWAP1 PUSH1 0x1 SWAP1 SUB SWAP1 DUP2 PUSH2 0x825 JUMPI SWAP1 POP JUMPDEST POP SWAP6 POP DUP1 PUSH8 0xFFFFFFFFFFFFFFFF DUP2 GT ISZERO PUSH2 0x857 JUMPI PUSH2 0x856 PUSH2 0x199C JUMP JUMPDEST JUMPDEST PUSH1 0x40 MLOAD SWAP1 DUP1 DUP3 MSTORE DUP1 PUSH1 0x20 MUL PUSH1 0x20 ADD DUP3 ADD PUSH1 0x40 MSTORE DUP1 ISZERO PUSH2 0x88A JUMPI DUP2 PUSH1 0x20 ADD JUMPDEST PUSH1 0x60 DUP2 MSTORE PUSH1 0x20 ADD SWAP1 PUSH1 0x1 SWAP1 SUB SWAP1 DUP2 PUSH2 0x875 JUMPI SWAP1 POP JUMPDEST POP SWAP7 POP DUP1 PUSH8 0xFFFFFFFFFFFFFFFF DUP2 GT ISZERO PUSH2 0x8A7 JUMPI PUSH2 0x8A6 PUSH2 0x199C JUMP JUMPDEST JUMPDEST PUSH1 0x40 MLOAD SWAP1 DUP1 DUP3 MSTORE DUP1 PUSH1 0x20 MUL PUSH1 0x20 ADD DUP3 ADD PUSH1 0x40 MSTORE DUP1 ISZERO PUSH2 0x8D5 JUMPI DUP2 PUSH1 0x20 ADD PUSH1 0x20 DUP3 MUL DUP1 CALLDATASIZE DUP4 CALLDATACOPY DUP1 DUP3 ADD SWAP2 POP POP SWAP1 POP JUMPDEST POP SWAP5 POP DUP1 PUSH8 0xFFFFFFFFFFFFFFFF DUP2 GT ISZERO PUSH2 0x8F2 JUMPI PUSH2 0x8F1 PUSH2 0x199C JUMP JUMPDEST JUMPDEST PUSH1 0x40 MLOAD SWAP1 DUP1 DUP3 MSTORE DUP1 PUSH1 0x20 MUL PUSH1 0x20 ADD DUP3 ADD PUSH1 0x40 MSTORE DUP1 ISZERO PUSH2 0x920 JUMPI DUP2 PUSH1 0x20 ADD PUSH1 0x20 DUP3 MUL DUP1 CALLDATASIZE DUP4 CALLDATACOPY DUP1 DUP3 ADD SWAP2 POP POP SWAP1 POP JUMPDEST POP SWAP4 POP PUSH1 0x0 JUMPDEST DUP2 DUP2 LT ISZERO PUSH2 0xB00 JUMPI DUP3 DUP2 DUP2 MLOAD DUP2 LT PUSH2 0x941 JUMPI PUSH2 0x940 PUSH2 0x24C6 JUMP JUMPDEST JUMPDEST PUSH1 0x20 MUL PUSH1 0x20 ADD ADD MLOAD PUSH1 0x0 ADD MLOAD DUP12 DUP3 DUP2 MLOAD DUP2 LT PUSH2 0x960 JUMPI PUSH2 0x95F PUSH2 0x24C6 JUMP JUMPDEST JUMPDEST PUSH1 0x20 MUL PUSH1 0x20 ADD ADD DUP2 DUP2 MSTORE POP POP DUP3 DUP2 DUP2 MLOAD DUP2 LT PUSH2 0x97F JUMPI PUSH2 0x97E PUSH2 0x24C6 JUMP JUMPDEST JUMPDEST PUSH1 0x20 MUL PUSH1 0x20 ADD ADD MLOAD PUSH1 0x20 ADD MLOAD DUP11 DUP3 DUP2 MLOAD DUP2 LT PUSH2 0x99E JUMPI PUSH2 0x99D PUSH2 0x24C6 JUMP JUMPDEST JUMPDEST PUSH1 0x20 MUL PUSH1 0x20 ADD ADD DUP2 DUP2 MSTORE POP POP DUP3 DUP2 DUP2 MLOAD DUP2 LT PUSH2 0x9BD JUMPI PUSH2 0x9BC PUSH2 0x24C6 JUMP JUMPDEST JUMPDEST PUSH1 0x20 MUL PUSH1 0x20 ADD ADD MLOAD PUSH1 0x40 ADD MLOAD DUP10 DUP3 DUP2 MLOAD DUP2 LT PUSH2 0x9DC JUMPI PUSH2 0x9DB PUSH2 0x24C6 JUMP JUMPDEST JUMPDEST PUSH1 0x20 MUL PUSH1 0x20 ADD ADD DUP2 SWAP1 MSTORE POP DUP3 DUP2 DUP2 MLOAD DUP2 LT PUSH2 0x9FA JUMPI PUSH2 0x9F9 PUSH2 0x24C6 JUMP JUMPDEST JUMPDEST PUSH1 0x20 MUL PUSH1 0x20 ADD ADD MLOAD PUSH1 0x80 ADD MLOAD DUP8 DUP3 DUP2 MLOAD DUP2 LT PUSH2 0xA19 JUMPI PUSH2 0xA18 PUSH2 0x24C6 JUMP JUMPDEST JUMPDEST PUSH1 0x20 MUL PUSH1 0x20 ADD ADD DUP2 SWAP1 MSTORE POP DUP3 DUP2 DUP2 MLOAD DUP2 LT PUSH2 0xA37 JUMPI PUSH2 0xA36 PUSH2 0x24C6 JUMP JUMPDEST JUMPDEST PUSH1 0x20 MUL PUSH1 0x20 ADD ADD MLOAD PUSH1 0x60 ADD MLOAD DUP9 DUP3 DUP2 MLOAD DUP2 LT PUSH2 0xA56 JUMPI PUSH2 0xA55 PUSH2 0x24C6 JUMP JUMPDEST JUMPDEST PUSH1 0x20 MUL PUSH1 0x20 ADD ADD DUP2 SWAP1 MSTORE POP DUP3 DUP2 DUP2 MLOAD DUP2 LT PUSH2 0xA74 JUMPI PUSH2 0xA73 PUSH2 0x24C6 JUMP JUMPDEST JUMPDEST PUSH1 0x20 MUL PUSH1 0x20 ADD ADD MLOAD PUSH1 0xA0 ADD MLOAD DUP7 DUP3 DUP2 MLOAD DUP2 LT PUSH2 0xA93 JUMPI PUSH2 0xA92 PUSH2 0x24C6 JUMP JUMPDEST JUMPDEST PUSH1 0x20 MUL PUSH1 0x20 ADD ADD SWAP1 PUSH20 0xFFFFFFFFFFFFFFFFFFFFFFFFFFFFFFFFFFFFFFFF AND SWAP1 DUP2 PUSH20 0xFFFFFFFFFFFFFFFFFFFFFFFFFFFFFFFFFFFFFFFF AND DUP2 MSTORE POP POP DUP1 DUP6 DUP3 DUP2 MLOAD DUP2 LT PUSH2 0xAE1 JUMPI PUSH2 0xAE0 PUSH2 0x24C6 JUMP JUMPDEST JUMPDEST PUSH1 0x20 MUL PUSH1 0x20 ADD ADD DUP2 DUP2 MSTORE POP POP DUP1 DUP1 PUSH2 0xAF8 SWAP1 PUSH2 0x2584 JUMP JUMPDEST SWAP2 POP POP PUSH2 0x926 JUMP JUMPDEST POP POP POP POP SWAP3 SWAP6 SWAP9 SWAP2 SWAP5 SWAP8 POP SWAP3 SWAP6 POP JUMP JUMPDEST DUP1 PUSH2 0xB1C DUP2 PUSH1 0x2 PUSH2 0x168D JUMP JUMPDEST PUSH2 0xB25 JUMPI PUSH1 0x0 DUP1 REVERT JUMPDEST PUSH1 0x0 PUSH1 0x40 MLOAD DUP1 PUSH1 0xC0 ADD PUSH1 0x40 MSTORE DUP1 DUP10 DUP2 MSTORE PUSH1 0x20 ADD DUP9 DUP2 MSTORE PUSH1 0x20 ADD DUP8 DUP2 MSTORE PUSH1 0x20 ADD DUP7 DUP2 MSTORE PUSH1 0x20 ADD DUP6 DUP2 MSTORE PUSH1 0x20 ADD CALLER PUSH20 0xFFFFFFFFFFFFFFFFFFFFFFFFFFFFFFFFFFFFFFFF AND DUP2 MSTORE POP SWAP1 POP PUSH1 0x0 DUP1 DUP11 DUP2 MSTORE PUSH1 0x20 ADD SWAP1 DUP2 MSTORE PUSH1 0x20 ADD PUSH1 0x0 KECCAK256 DUP2 SWAP1 DUP1 PUSH1 0x1 DUP2 SLOAD ADD DUP1 DUP3 SSTORE DUP1 SWAP2 POP POP PUSH1 0x1 SWAP1 SUB SWAP1 PUSH1 0x0 MSTORE PUSH1 0x20 PUSH1 0x0 KECCAK256 SWAP1 PUSH1 0x6 MUL ADD PUSH1 0x0 SWAP1 SWAP2 SWAP1 SWAP2 SWAP1 SWAP2 POP PUSH1 0x0 DUP3 ADD MLOAD DUP2 PUSH1 0x0 ADD SSTORE PUSH1 0x20 DUP3 ADD MLOAD DUP2 PUSH1 0x1 ADD SSTORE PUSH1 0x40 DUP3 ADD MLOAD DUP2 PUSH1 0x2 ADD SWAP1 DUP1 MLOAD SWAP1 PUSH1 0x20 ADD SWAP1 PUSH2 0xBD8 SWAP3 SWAP2 SWAP1 PUSH2 0x17C7 JUMP JUMPDEST POP PUSH1 0x60 DUP3 ADD MLOAD DUP2 PUSH1 0x3 ADD SWAP1 DUP1 MLOAD SWAP1 PUSH1 0x20 ADD SWAP1 PUSH2 0xBF5 SWAP3 SWAP2 SWAP1 PUSH2 0x17C7 JUMP JUMPDEST POP PUSH1 0x80 DUP3 ADD MLOAD DUP2 PUSH1 0x4 ADD SWAP1 DUP1 MLOAD SWAP1 PUSH1 0x20 ADD SWAP1 PUSH2 0xC12 SWAP3 SWAP2 SWAP1 PUSH2 0x17C7 JUMP JUMPDEST POP PUSH1 0xA0 DUP3 ADD MLOAD DUP2 PUSH1 0x5 ADD PUSH1 0x0 PUSH2 0x100 EXP DUP2 SLOAD DUP2 PUSH20 0xFFFFFFFFFFFFFFFFFFFFFFFFFFFFFFFFFFFFFFFF MUL NOT AND SWAP1 DUP4 PUSH20 0xFFFFFFFFFFFFFFFFFFFFFFFFFFFFFFFFFFFFFFFF AND MUL OR SWAP1 SSTORE POP POP POP POP POP POP POP POP POP POP POP POP JUMP JUMPDEST PUSH1 0x60 DUP1 PUSH1 0x60 DUP4 PUSH2 0xC78 DUP2 PUSH1 0x1 PUSH2 0x168D JUMP JUMPDEST PUSH2 0xC81 JUMPI PUSH1 0x0 DUP1 REVERT JUMPDEST PUSH1 0x0 PUSH1 0x3 DUP1 SLOAD SWAP1 POP SWAP1 POP PUSH1 0x3 DUP1 SLOAD DUP1 PUSH1 0x20 MUL PUSH1 0x20 ADD PUSH1 0x40 MLOAD SWAP1 DUP2 ADD PUSH1 0x40 MSTORE DUP1 SWAP3 SWAP2 SWAP1 DUP2 DUP2 MSTORE PUSH1 0x20 ADD DUP3 DUP1 SLOAD DUP1 ISZERO PUSH2 0xD0D JUMPI PUSH1 0x20 MUL DUP3 ADD SWAP2 SWAP1 PUSH1 0x0 MSTORE PUSH1 0x20 PUSH1 0x0 KECCAK256 SWAP1 JUMPDEST DUP2 PUSH1 0x0 SWAP1 SLOAD SWAP1 PUSH2 0x100 EXP SWAP1 DIV PUSH20 0xFFFFFFFFFFFFFFFFFFFFFFFFFFFFFFFFFFFFFFFF AND PUSH20 0xFFFFFFFFFFFFFFFFFFFFFFFFFFFFFFFFFFFFFFFF AND DUP2 MSTORE PUSH1 0x20 ADD SWAP1 PUSH1 0x1 ADD SWAP1 DUP1 DUP4 GT PUSH2 0xCC3 JUMPI JUMPDEST POP POP POP POP POP SWAP5 POP DUP1 PUSH8 0xFFFFFFFFFFFFFFFF DUP2 GT ISZERO PUSH2 0xD2E JUMPI PUSH2 0xD2D PUSH2 0x199C JUMP JUMPDEST JUMPDEST PUSH1 0x40 MLOAD SWAP1 DUP1 DUP3 MSTORE DUP1 PUSH1 0x20 MUL PUSH1 0x20 ADD DUP3 ADD PUSH1 0x40 MSTORE DUP1 ISZERO PUSH2 0xD61 JUMPI DUP2 PUSH1 0x20 ADD JUMPDEST PUSH1 0x60 DUP2 MSTORE PUSH1 0x20 ADD SWAP1 PUSH1 0x1 SWAP1 SUB SWAP1 DUP2 PUSH2 0xD4C JUMPI SWAP1 POP JUMPDEST POP SWAP4 POP DUP1 PUSH8 0xFFFFFFFFFFFFFFFF DUP2 GT ISZERO PUSH2 0xD7E JUMPI PUSH2 0xD7D PUSH2 0x199C JUMP JUMPDEST JUMPDEST PUSH1 0x40 MLOAD SWAP1 DUP1 DUP3 MSTORE DUP1 PUSH1 0x20 MUL PUSH1 0x20 ADD DUP3 ADD PUSH1 0x40 MSTORE DUP1 ISZERO PUSH2 0xDAC JUMPI DUP2 PUSH1 0x20 ADD PUSH1 0x20 DUP3 MUL DUP1 CALLDATASIZE DUP4 CALLDATACOPY DUP1 DUP3 ADD SWAP2 POP POP SWAP1 POP JUMPDEST POP SWAP3 POP PUSH1 0x0 JUMPDEST DUP2 DUP2 LT ISZERO PUSH2 0xFAD JUMPI PUSH1 0x5 PUSH1 0x0 PUSH1 0x3 DUP4 DUP2 SLOAD DUP2 LT PUSH2 0xDD2 JUMPI PUSH2 0xDD1 PUSH2 0x24C6 JUMP JUMPDEST JUMPDEST SWAP1 PUSH1 0x0 MSTORE PUSH1 0x20 PUSH1 0x0 KECCAK256 ADD PUSH1 0x0 SWAP1 SLOAD SWAP1 PUSH2 0x100 EXP SWAP1 DIV PUSH20 0xFFFFFFFFFFFFFFFFFFFFFFFFFFFFFFFFFFFFFFFF AND PUSH20 0xFFFFFFFFFFFFFFFFFFFFFFFFFFFFFFFFFFFFFFFF AND PUSH20 0xFFFFFFFFFFFFFFFFFFFFFFFFFFFFFFFFFFFFFFFF AND DUP2 MSTORE PUSH1 0x20 ADD SWAP1 DUP2 MSTORE PUSH1 0x20 ADD PUSH1 0x0 KECCAK256 DUP1 SLOAD PUSH2 0xE42 SWAP1 PUSH2 0x2524 JUMP JUMPDEST DUP1 PUSH1 0x1F ADD PUSH1 0x20 DUP1 SWAP2 DIV MUL PUSH1 0x20 ADD PUSH1 0x40 MLOAD SWAP1 DUP2 ADD PUSH1 0x40 MSTORE DUP1 SWAP3 SWAP2 SWAP1 DUP2 DUP2 MSTORE PUSH1 0x20 ADD DUP3 DUP1 SLOAD PUSH2 0xE6E SWAP1 PUSH2 0x2524 JUMP JUMPDEST DUP1 ISZERO PUSH2 0xEBB JUMPI DUP1 PUSH1 0x1F LT PUSH2 0xE90 JUMPI PUSH2 0x100 DUP1 DUP4 SLOAD DIV MUL DUP4 MSTORE SWAP2 PUSH1 0x20 ADD SWAP2 PUSH2 0xEBB JUMP JUMPDEST DUP3 ADD SWAP2 SWAP1 PUSH1 0x0 MSTORE PUSH1 0x20 PUSH1 0x0 KECCAK256 SWAP1 JUMPDEST DUP2 SLOAD DUP2 MSTORE SWAP1 PUSH1 0x1 ADD SWAP1 PUSH1 0x20 ADD DUP1 DUP4 GT PUSH2 0xE9E JUMPI DUP3 SWAP1 SUB PUSH1 0x1F AND DUP3 ADD SWAP2 JUMPDEST POP POP POP POP POP DUP6 DUP3 DUP2 MLOAD DUP2 LT PUSH2 0xED3 JUMPI PUSH2 0xED2 PUSH2 0x24C6 JUMP JUMPDEST JUMPDEST PUSH1 0x20 MUL PUSH1 0x20 ADD ADD DUP2 SWAP1 MSTORE POP PUSH1 0x4 PUSH1 0x0 PUSH1 0x3 DUP4 DUP2 SLOAD DUP2 LT PUSH2 0xEF6 JUMPI PUSH2 0xEF5 PUSH2 0x24C6 JUMP JUMPDEST JUMPDEST SWAP1 PUSH1 0x0 MSTORE PUSH1 0x20 PUSH1 0x0 KECCAK256 ADD PUSH1 0x0 SWAP1 SLOAD SWAP1 PUSH2 0x100 EXP SWAP1 DIV PUSH20 0xFFFFFFFFFFFFFFFFFFFFFFFFFFFFFFFFFFFFFFFF AND PUSH20 0xFFFFFFFFFFFFFFFFFFFFFFFFFFFFFFFFFFFFFFFF AND PUSH20 0xFFFFFFFFFFFFFFFFFFFFFFFFFFFFFFFFFFFFFFFF AND DUP2 MSTORE PUSH1 0x20 ADD SWAP1 DUP2 MSTORE PUSH1 0x20 ADD PUSH1 0x0 KECCAK256 PUSH1 0x0 SWAP1 SLOAD SWAP1 PUSH2 0x100 EXP SWAP1 DIV PUSH1 0xFF AND PUSH1 0x3 DUP2 GT ISZERO PUSH2 0xF7B JUMPI PUSH2 0xF7A PUSH2 0x25CC JUMP JUMPDEST JUMPDEST DUP5 DUP3 DUP2 MLOAD DUP2 LT PUSH2 0xF8E JUMPI PUSH2 0xF8D PUSH2 0x24C6 JUMP JUMPDEST JUMPDEST PUSH1 0x20 MUL PUSH1 0x20 ADD ADD DUP2 DUP2 MSTORE POP POP DUP1 DUP1 PUSH2 0xFA5 SWAP1 PUSH2 0x2584 JUMP JUMPDEST SWAP2 POP POP PUSH2 0xDB2 JUMP JUMPDEST POP POP POP SWAP2 SWAP4 SWAP1 SWAP3 POP JUMP JUMPDEST PUSH1 0x1 PUSH1 0x0 SWAP1 SLOAD SWAP1 PUSH2 0x100 EXP SWAP1 DIV PUSH20 0xFFFFFFFFFFFFFFFFFFFFFFFFFFFFFFFFFFFFFFFF AND PUSH20 0xFFFFFFFFFFFFFFFFFFFFFFFFFFFFFFFFFFFFFFFF AND CALLER PUSH20 0xFFFFFFFFFFFFFFFFFFFFFFFFFFFFFFFFFFFFFFFF AND EQ PUSH2 0x1011 JUMPI PUSH1 0x0 DUP1 REVERT JUMPDEST DUP1 PUSH1 0x1 PUSH1 0x0 PUSH2 0x100 EXP DUP2 SLOAD DUP2 PUSH20 0xFFFFFFFFFFFFFFFFFFFFFFFFFFFFFFFFFFFFFFFF MUL NOT AND SWAP1 DUP4 PUSH20 0xFFFFFFFFFFFFFFFFFFFFFFFFFFFFFFFFFFFFFFFF AND MUL OR SWAP1 SSTORE POP PUSH1 0x3 PUSH1 0x4 PUSH1 0x0 DUP4 PUSH20 0xFFFFFFFFFFFFFFFFFFFFFFFFFFFFFFFFFFFFFFFF AND PUSH20 0xFFFFFFFFFFFFFFFFFFFFFFFFFFFFFFFFFFFFFFFF AND DUP2 MSTORE PUSH1 0x20 ADD SWAP1 DUP2 MSTORE PUSH1 0x20 ADD PUSH1 0x0 KECCAK256 PUSH1 0x0 PUSH2 0x100 EXP DUP2 SLOAD DUP2 PUSH1 0xFF MUL NOT AND SWAP1 DUP4 PUSH1 0x3 DUP2 GT ISZERO PUSH2 0x10B5 JUMPI PUSH2 0x10B4 PUSH2 0x25CC JUMP JUMPDEST JUMPDEST MUL OR SWAP1 SSTORE POP POP JUMP JUMPDEST DUP1 PUSH2 0x10C9 DUP2 PUSH1 0x2 PUSH2 0x168D JUMP JUMPDEST PUSH2 0x10D2 JUMPI PUSH1 0x0 DUP1 REVERT JUMPDEST PUSH1 0x0 DUP1 PUSH1 0x0 DUP7 DUP2 MSTORE PUSH1 0x20 ADD SWAP1 DUP2 MSTORE PUSH1 0x20 ADD PUSH1 0x0 KECCAK256 SWAP1 POP DUP1 PUSH1 0x1 DUP3 DUP1 SLOAD SWAP1 POP PUSH2 0x10FA SWAP2 SWAP1 PUSH2 0x25FB JUMP JUMPDEST DUP2 SLOAD DUP2 LT PUSH2 0x110B JUMPI PUSH2 0x110A PUSH2 0x24C6 JUMP JUMPDEST JUMPDEST SWAP1 PUSH1 0x0 MSTORE PUSH1 0x20 PUSH1 0x0 KECCAK256 SWAP1 PUSH1 0x6 MUL ADD DUP2 DUP6 DUP2 SLOAD DUP2 LT PUSH2 0x112C JUMPI PUSH2 0x112B PUSH2 0x24C6 JUMP JUMPDEST JUMPDEST SWAP1 PUSH1 0x0 MSTORE PUSH1 0x20 PUSH1 0x0 KECCAK256 SWAP1 PUSH1 0x6 MUL ADD PUSH1 0x0 DUP3 ADD SLOAD DUP2 PUSH1 0x0 ADD SSTORE PUSH1 0x1 DUP3 ADD SLOAD DUP2 PUSH1 0x1 ADD SSTORE PUSH1 0x2 DUP3 ADD DUP2 PUSH1 0x2 ADD SWAP1 DUP1 SLOAD PUSH2 0x1162 SWAP1 PUSH2 0x2524 JUMP JUMPDEST PUSH2 0x116D SWAP3 SWAP2 SWAP1 PUSH2 0x184D JUMP JUMPDEST POP PUSH1 0x3 DUP3 ADD DUP2 PUSH1 0x3 ADD SWAP1 DUP1 SLOAD PUSH2 0x1182 SWAP1 PUSH2 0x2524 JUMP JUMPDEST PUSH2 0x118D SWAP3 SWAP2 SWAP1 PUSH2 0x184D JUMP JUMPDEST POP PUSH1 0x4 DUP3 ADD DUP2 PUSH1 0x4 ADD SWAP1 DUP1 SLOAD PUSH2 0x11A2 SWAP1 PUSH2 0x2524 JUMP JUMPDEST PUSH2 0x11AD SWAP3 SWAP2 SWAP1 PUSH2 0x184D JUMP JUMPDEST POP PUSH1 0x5 DUP3 ADD PUSH1 0x0 SWAP1 SLOAD SWAP1 PUSH2 0x100 EXP SWAP1 DIV PUSH20 0xFFFFFFFFFFFFFFFFFFFFFFFFFFFFFFFFFFFFFFFF AND DUP2 PUSH1 0x5 ADD PUSH1 0x0 PUSH2 0x100 EXP DUP2 SLOAD DUP2 PUSH20 0xFFFFFFFFFFFFFFFFFFFFFFFFFFFFFFFFFFFFFFFF MUL NOT AND SWAP1 DUP4 PUSH20 0xFFFFFFFFFFFFFFFFFFFFFFFFFFFFFFFFFFFFFFFF AND MUL OR SWAP1 SSTORE POP SWAP1 POP POP DUP1 DUP1 SLOAD DUP1 PUSH2 0x1229 JUMPI PUSH2 0x1228 PUSH2 0x262F JUMP JUMPDEST JUMPDEST PUSH1 0x1 SWAP1 SUB DUP2 DUP2 SWAP1 PUSH1 0x0 MSTORE PUSH1 0x20 PUSH1 0x0 KECCAK256 SWAP1 PUSH1 0x6 MUL ADD PUSH1 0x0 DUP1 DUP3 ADD PUSH1 0x0 SWAP1 SSTORE PUSH1 0x1 DUP3 ADD PUSH1 0x0 SWAP1 SSTORE PUSH1 0x2 DUP3 ADD PUSH1 0x0 PUSH2 0x125E SWAP2 SWAP1 PUSH2 0x18DA JUMP JUMPDEST PUSH1 0x3 DUP3 ADD PUSH1 0x0 PUSH2 0x126E SWAP2 SWAP1 PUSH2 0x18DA JUMP JUMPDEST PUSH1 0x4 DUP3 ADD PUSH1 0x0 PUSH2 0x127E SWAP2 SWAP1 PUSH2 0x18DA JUMP JUMPDEST PUSH1 0x5 DUP3 ADD PUSH1 0x0 PUSH2 0x100 EXP DUP2 SLOAD SWAP1 PUSH20 0xFFFFFFFFFFFFFFFFFFFFFFFFFFFFFFFFFFFFFFFF MUL NOT AND SWAP1 SSTORE POP POP SWAP1 SSTORE POP POP POP POP POP JUMP JUMPDEST DUP1 PUSH2 0x12BC DUP2 PUSH1 0x3 PUSH2 0x168D JUMP JUMPDEST PUSH2 0x12C5 JUMPI PUSH1 0x0 DUP1 REVERT JUMPDEST PUSH1 0x4 PUSH1 0x0 DUP5 PUSH20 0xFFFFFFFFFFFFFFFFFFFFFFFFFFFFFFFFFFFFFFFF AND PUSH20 0xFFFFFFFFFFFFFFFFFFFFFFFFFFFFFFFFFFFFFFFF AND DUP2 MSTORE PUSH1 0x20 ADD SWAP1 DUP2 MSTORE PUSH1 0x20 ADD PUSH1 0x0 KECCAK256 PUSH1 0x0 PUSH2 0x100 EXP DUP2 SLOAD SWAP1 PUSH1 0xFF MUL NOT AND SWAP1 SSTORE PUSH1 0x5 PUSH1 0x0 DUP5 PUSH20 0xFFFFFFFFFFFFFFFFFFFFFFFFFFFFFFFFFFFFFFFF AND PUSH20 0xFFFFFFFFFFFFFFFFFFFFFFFFFFFFFFFFFFFFFFFF AND DUP2 MSTORE PUSH1 0x20 ADD SWAP1 DUP2 MSTORE PUSH1 0x20 ADD PUSH1 0x0 KECCAK256 PUSH1 0x0 PUSH2 0x135F SWAP2 SWAP1 PUSH2 0x18DA JUMP JUMPDEST PUSH1 0x3 PUSH1 0x1 PUSH1 0x3 DUP1 SLOAD SWAP1 POP PUSH2 0x1373 SWAP2 SWAP1 PUSH2 0x25FB JUMP JUMPDEST DUP2 SLOAD DUP2 LT PUSH2 0x1384 JUMPI PUSH2 0x1383 PUSH2 0x24C6 JUMP JUMPDEST JUMPDEST SWAP1 PUSH1 0x0 MSTORE PUSH1 0x20 PUSH1 0x0 KECCAK256 ADD PUSH1 0x0 SWAP1 SLOAD SWAP1 PUSH2 0x100 EXP SWAP1 DIV PUSH20 0xFFFFFFFFFFFFFFFFFFFFFFFFFFFFFFFFFFFFFFFF AND PUSH1 0x3 DUP6 DUP2 SLOAD DUP2 LT PUSH2 0x13C3 JUMPI PUSH2 0x13C2 PUSH2 0x24C6 JUMP JUMPDEST JUMPDEST SWAP1 PUSH1 0x0 MSTORE PUSH1 0x20 PUSH1 0x0 KECCAK256 ADD PUSH1 0x0 PUSH2 0x100 EXP DUP2 SLOAD DUP2 PUSH20 0xFFFFFFFFFFFFFFFFFFFFFFFFFFFFFFFFFFFFFFFF MUL NOT AND SWAP1 DUP4 PUSH20 0xFFFFFFFFFFFFFFFFFFFFFFFFFFFFFFFFFFFFFFFF AND MUL OR SWAP1 SSTORE POP PUSH1 0x3 DUP1 SLOAD DUP1 PUSH2 0x141D JUMPI PUSH2 0x141C PUSH2 0x262F JUMP JUMPDEST JUMPDEST PUSH1 0x1 SWAP1 SUB DUP2 DUP2 SWAP1 PUSH1 0x0 MSTORE PUSH1 0x20 PUSH1 0x0 KECCAK256 ADD PUSH1 0x0 PUSH2 0x100 EXP DUP2 SLOAD SWAP1 PUSH20 0xFFFFFFFFFFFFFFFFFFFFFFFFFFFFFFFFFFFFFFFF MUL NOT AND SWAP1 SSTORE SWAP1 SSTORE POP POP POP POP JUMP JUMPDEST DUP1 PUSH2 0x1464 DUP2 PUSH1 0x3 PUSH2 0x168D JUMP JUMPDEST PUSH2 0x146D JUMPI PUSH1 0x0 DUP1 REVERT JUMPDEST PUSH1 0x3 DUP6 SWAP1 DUP1 PUSH1 0x1 DUP2 SLOAD ADD DUP1 DUP3 SSTORE DUP1 SWAP2 POP POP PUSH1 0x1 SWAP1 SUB SWAP1 PUSH1 0x0 MSTORE PUSH1 0x20 PUSH1 0x0 KECCAK256 ADD PUSH1 0x0 SWAP1 SWAP2 SWAP1 SWAP2 SWAP1 SWAP2 PUSH2 0x100 EXP DUP2 SLOAD DUP2 PUSH20 0xFFFFFFFFFFFFFFFFFFFFFFFFFFFFFFFFFFFFFFFF MUL NOT AND SWAP1 DUP4 PUSH20 0xFFFFFFFFFFFFFFFFFFFFFFFFFFFFFFFFFFFFFFFF AND MUL OR SWAP1 SSTORE POP DUP4 PUSH1 0x3 DUP2 GT ISZERO PUSH2 0x14E3 JUMPI PUSH2 0x14E2 PUSH2 0x25CC JUMP JUMPDEST JUMPDEST PUSH1 0x4 PUSH1 0x0 DUP8 PUSH20 0xFFFFFFFFFFFFFFFFFFFFFFFFFFFFFFFFFFFFFFFF AND PUSH20 0xFFFFFFFFFFFFFFFFFFFFFFFFFFFFFFFFFFFFFFFF AND DUP2 MSTORE PUSH1 0x20 ADD SWAP1 DUP2 MSTORE PUSH1 0x20 ADD PUSH1 0x0 KECCAK256 PUSH1 0x0 PUSH2 0x100 EXP DUP2 SLOAD DUP2 PUSH1 0xFF MUL NOT AND SWAP1 DUP4 PUSH1 0x3 DUP2 GT ISZERO PUSH2 0x1544 JUMPI PUSH2 0x1543 PUSH2 0x25CC JUMP JUMPDEST JUMPDEST MUL OR SWAP1 SSTORE POP DUP3 PUSH1 0x5 PUSH1 0x0 DUP8 PUSH20 0xFFFFFFFFFFFFFFFFFFFFFFFFFFFFFFFFFFFFFFFF AND PUSH20 0xFFFFFFFFFFFFFFFFFFFFFFFFFFFFFFFFFFFFFFFF AND DUP2 MSTORE PUSH1 0x20 ADD SWAP1 DUP2 MSTORE PUSH1 0x20 ADD PUSH1 0x0 KECCAK256 SWAP1 DUP1 MLOAD SWAP1 PUSH1 0x20 ADD SWAP1 PUSH2 0x159C SWAP3 SWAP2 SWAP1 PUSH2 0x17C7 JUMP JUMPDEST POP POP POP POP POP POP JUMP JUMPDEST DUP1 PUSH2 0x15B0 DUP2 PUSH1 0x3 PUSH2 0x168D JUMP JUMPDEST PUSH2 0x15B9 JUMPI PUSH1 0x0 DUP1 REVERT JUMPDEST DUP4 PUSH1 0x5 PUSH1 0x0 DUP8 PUSH20 0xFFFFFFFFFFFFFFFFFFFFFFFFFFFFFFFFFFFFFFFF AND PUSH20 0xFFFFFFFFFFFFFFFFFFFFFFFFFFFFFFFFFFFFFFFF AND DUP2 MSTORE PUSH1 0x20 ADD SWAP1 DUP2 MSTORE PUSH1 0x20 ADD PUSH1 0x0 KECCAK256 SWAP1 DUP1 MLOAD SWAP1 PUSH1 0x20 ADD SWAP1 PUSH2 0x160C SWAP3 SWAP2 SWAP1 PUSH2 0x17C7 JUMP JUMPDEST POP DUP3 PUSH1 0x3 DUP2 GT ISZERO PUSH2 0x1620 JUMPI PUSH2 0x161F PUSH2 0x25CC JUMP JUMPDEST JUMPDEST PUSH1 0x4 PUSH1 0x0 DUP8 PUSH20 0xFFFFFFFFFFFFFFFFFFFFFFFFFFFFFFFFFFFFFFFF AND PUSH20 0xFFFFFFFFFFFFFFFFFFFFFFFFFFFFFFFFFFFFFFFF AND DUP2 MSTORE PUSH1 0x20 ADD SWAP1 DUP2 MSTORE PUSH1 0x20 ADD PUSH1 0x0 KECCAK256 PUSH1 0x0 PUSH2 0x100 EXP DUP2 SLOAD DUP2 PUSH1 0xFF MUL NOT AND SWAP1 DUP4 PUSH1 0x3 DUP2 GT ISZERO PUSH2 0x1681 JUMPI PUSH2 0x1680 PUSH2 0x25CC JUMP JUMPDEST JUMPDEST MUL OR SWAP1 SSTORE POP POP POP POP POP POP JUMP JUMPDEST PUSH1 0x0 DUP2 PUSH1 0x3 DUP2 GT ISZERO PUSH2 0x16A2 JUMPI PUSH2 0x16A1 PUSH2 0x25CC JUMP JUMPDEST JUMPDEST PUSH1 0x4 PUSH1 0x0 DUP6 PUSH1 0x0 PUSH1 0x2 DUP2 LT PUSH2 0x16BA JUMPI PUSH2 0x16B9 PUSH2 0x24C6 JUMP JUMPDEST JUMPDEST PUSH1 0x20 MUL ADD MLOAD PUSH20 0xFFFFFFFFFFFFFFFFFFFFFFFFFFFFFFFFFFFFFFFF AND PUSH20 0xFFFFFFFFFFFFFFFFFFFFFFFFFFFFFFFFFFFFFFFF AND DUP2 MSTORE PUSH1 0x20 ADD SWAP1 DUP2 MSTORE PUSH1 0x20 ADD PUSH1 0x0 KECCAK256 PUSH1 0x0 SWAP1 SLOAD SWAP1 PUSH2 0x100 EXP SWAP1 DIV PUSH1 0xFF AND PUSH1 0x3 DUP2 GT ISZERO PUSH2 0x1719 JUMPI PUSH2 0x1718 PUSH2 0x25CC JUMP JUMPDEST JUMPDEST LT ISZERO DUP1 PUSH2 0x17AE JUMPI POP DUP2 PUSH1 0x3 DUP2 GT ISZERO PUSH2 0x1734 JUMPI PUSH2 0x1733 PUSH2 0x25CC JUMP JUMPDEST JUMPDEST PUSH1 0x4 PUSH1 0x0 DUP6 PUSH1 0x1 PUSH1 0x2 DUP2 LT PUSH2 0x174C JUMPI PUSH2 0x174B PUSH2 0x24C6 JUMP JUMPDEST JUMPDEST PUSH1 0x20 MUL ADD MLOAD PUSH20 0xFFFFFFFFFFFFFFFFFFFFFFFFFFFFFFFFFFFFFFFF AND PUSH20 0xFFFFFFFFFFFFFFFFFFFFFFFFFFFFFFFFFFFFFFFF AND DUP2 MSTORE PUSH1 0x20 ADD SWAP1 DUP2 MSTORE PUSH1 0x20 ADD PUSH1 0x0 KECCAK256 PUSH1 0x0 SWAP1 SLOAD SWAP1 PUSH2 0x100 EXP SWAP1 DIV PUSH1 0xFF AND PUSH1 0x3 DUP2 GT ISZERO PUSH2 0x17AB JUMPI PUSH2 0x17AA PUSH2 0x25CC JUMP JUMPDEST JUMPDEST LT ISZERO JUMPDEST ISZERO PUSH2 0x17BC JUMPI PUSH1 0x1 SWAP1 POP PUSH2 0x17C1 JUMP JUMPDEST PUSH1 0x0 SWAP1 POP JUMPDEST SWAP3 SWAP2 POP POP JUMP JUMPDEST DUP3 DUP1 SLOAD PUSH2 0x17D3 SWAP1 PUSH2 0x2524 JUMP JUMPDEST SWAP1 PUSH1 0x0 MSTORE PUSH1 0x20 PUSH1 0x0 KECCAK256 SWAP1 PUSH1 0x1F ADD PUSH1 0x20 SWAP1 DIV DUP2 ADD SWAP3 DUP3 PUSH2 0x17F5 JUMPI PUSH1 0x0 DUP6 SSTORE PUSH2 0x183C JUMP JUMPDEST DUP3 PUSH1 0x1F LT PUSH2 0x180E JUMPI DUP1 MLOAD PUSH1 0xFF NOT AND DUP4 DUP1 ADD OR DUP6 SSTORE PUSH2 0x183C JUMP JUMPDEST DUP3 DUP1 ADD PUSH1 0x1 ADD DUP6 SSTORE DUP3 ISZERO PUSH2 0x183C JUMPI SWAP2 DUP3 ADD JUMPDEST DUP3 DUP2 GT ISZERO PUSH2 0x183B JUMPI DUP3 MLOAD DUP3 SSTORE SWAP2 PUSH1 0x20 ADD SWAP2 SWAP1 PUSH1 0x1 ADD SWAP1 PUSH2 0x1820 JUMP JUMPDEST JUMPDEST POP SWAP1 POP PUSH2 0x1849 SWAP2 SWAP1 PUSH2 0x191A JUMP JUMPDEST POP SWAP1 JUMP JUMPDEST DUP3 DUP1 SLOAD PUSH2 0x1859 SWAP1 PUSH2 0x2524 JUMP JUMPDEST SWAP1 PUSH1 0x0 MSTORE PUSH1 0x20 PUSH1 0x0 KECCAK256 SWAP1 PUSH1 0x1F ADD PUSH1 0x20 SWAP1 DIV DUP2 ADD SWAP3 DUP3 PUSH2 0x187B JUMPI PUSH1 0x0 DUP6 SSTORE PUSH2 0x18C9 JUMP JUMPDEST DUP3 PUSH1 0x1F LT PUSH2 0x188C JUMPI DUP1 SLOAD DUP6 SSTORE PUSH2 0x18C9 JUMP JUMPDEST DUP3 DUP1 ADD PUSH1 0x1 ADD DUP6 SSTORE DUP3 ISZERO PUSH2 0x18C9 JUMPI PUSH1 0x0 MSTORE PUSH1 0x20 PUSH1 0x0 KECCAK256 SWAP2 PUSH1 0x1F ADD PUSH1 0x20 SWAP1 DIV DUP3 ADD JUMPDEST DUP3 DUP2 GT ISZERO PUSH2 0x18C8 JUMPI DUP3 SLOAD DUP3 SSTORE SWAP2 PUSH1 0x1 ADD SWAP2 SWAP1 PUSH1 0x1 ADD SWAP1 PUSH2 0x18AD JUMP JUMPDEST JUMPDEST POP SWAP1 POP PUSH2 0x18D6 SWAP2 SWAP1 PUSH2 0x191A JUMP JUMPDEST POP SWAP1 JUMP JUMPDEST POP DUP1 SLOAD PUSH2 0x18E6 SWAP1 PUSH2 0x2524 JUMP JUMPDEST PUSH1 0x0 DUP3 SSTORE DUP1 PUSH1 0x1F LT PUSH2 0x18F8 JUMPI POP PUSH2 0x1917 JUMP JUMPDEST PUSH1 0x1F ADD PUSH1 0x20 SWAP1 DIV SWAP1 PUSH1 0x0 MSTORE PUSH1 0x20 PUSH1 0x0 KECCAK256 SWAP1 DUP2 ADD SWAP1 PUSH2 0x1916 SWAP2 SWAP1 PUSH2 0x191A JUMP JUMPDEST JUMPDEST POP JUMP JUMPDEST JUMPDEST DUP1 DUP3 GT ISZERO PUSH2 0x1933 JUMPI PUSH1 0x0 DUP2 PUSH1 0x0 SWAP1 SSTORE POP PUSH1 0x1 ADD PUSH2 0x191B JUMP JUMPDEST POP SWAP1 JUMP JUMPDEST PUSH1 0x0 PUSH1 0x40 MLOAD SWAP1 POP SWAP1 JUMP JUMPDEST PUSH1 0x0 DUP1 REVERT JUMPDEST PUSH1 0x0 DUP1 REVERT JUMPDEST PUSH1 0x0 DUP2 SWAP1 POP SWAP2 SWAP1 POP JUMP JUMPDEST PUSH2 0x195E DUP2 PUSH2 0x194B JUMP JUMPDEST DUP2 EQ PUSH2 0x1969 JUMPI PUSH1 0x0 DUP1 REVERT JUMPDEST POP JUMP JUMPDEST PUSH1 0x0 DUP2 CALLDATALOAD SWAP1 POP PUSH2 0x197B DUP2 PUSH2 0x1955 JUMP JUMPDEST SWAP3 SWAP2 POP POP JUMP JUMPDEST PUSH1 0x0 DUP1 REVERT JUMPDEST PUSH1 0x0 DUP1 REVERT JUMPDEST PUSH1 0x0 PUSH1 0x1F NOT PUSH1 0x1F DUP4 ADD AND SWAP1 POP SWAP2 SWAP1 POP JUMP JUMPDEST PUSH32 0x4E487B7100000000000000000000000000000000000000000000000000000000 PUSH1 0x0 MSTORE PUSH1 0x41 PUSH1 0x4 MSTORE PUSH1 0x24 PUSH1 0x0 REVERT JUMPDEST PUSH2 0x19D4 DUP3 PUSH2 0x198B JUMP JUMPDEST DUP2 ADD DUP2 DUP2 LT PUSH8 0xFFFFFFFFFFFFFFFF DUP3 GT OR ISZERO PUSH2 0x19F3 JUMPI PUSH2 0x19F2 PUSH2 0x199C JUMP JUMPDEST JUMPDEST DUP1 PUSH1 0x40 MSTORE POP POP POP JUMP JUMPDEST PUSH1 0x0 PUSH2 0x1A06 PUSH2 0x1937 JUMP JUMPDEST SWAP1 POP PUSH2 0x1A12 DUP3 DUP3 PUSH2 0x19CB JUMP JUMPDEST SWAP2 SWAP1 POP JUMP JUMPDEST PUSH1 0x0 PUSH8 0xFFFFFFFFFFFFFFFF DUP3 GT ISZERO PUSH2 0x1A32 JUMPI PUSH2 0x1A31 PUSH2 0x199C JUMP JUMPDEST JUMPDEST PUSH2 0x1A3B DUP3 PUSH2 0x198B JUMP JUMPDEST SWAP1 POP PUSH1 0x20 DUP2 ADD SWAP1 POP SWAP2 SWAP1 POP JUMP JUMPDEST DUP3 DUP2 DUP4 CALLDATACOPY PUSH1 0x0 DUP4 DUP4 ADD MSTORE POP POP POP JUMP JUMPDEST PUSH1 0x0 PUSH2 0x1A6A PUSH2 0x1A65 DUP5 PUSH2 0x1A17 JUMP JUMPDEST PUSH2 0x19FC JUMP JUMPDEST SWAP1 POP DUP3 DUP2 MSTORE PUSH1 0x20 DUP2 ADD DUP5 DUP5 DUP5 ADD GT ISZERO PUSH2 0x1A86 JUMPI PUSH2 0x1A85 PUSH2 0x1986 JUMP JUMPDEST JUMPDEST PUSH2 0x1A91 DUP5 DUP3 DUP6 PUSH2 0x1A48 JUMP JUMPDEST POP SWAP4 SWAP3 POP POP POP JUMP JUMPDEST PUSH1 0x0 DUP3 PUSH1 0x1F DUP4 ADD SLT PUSH2 0x1AAE JUMPI PUSH2 0x1AAD PUSH2 0x1981 JUMP JUMPDEST JUMPDEST DUP2 CALLDATALOAD PUSH2 0x1ABE DUP5 DUP3 PUSH1 0x20 DUP7 ADD PUSH2 0x1A57 JUMP JUMPDEST SWAP2 POP POP SWAP3 SWAP2 POP POP JUMP JUMPDEST PUSH1 0x0 PUSH8 0xFFFFFFFFFFFFFFFF DUP3 GT ISZERO PUSH2 0x1AE2 JUMPI PUSH2 0x1AE1 PUSH2 0x199C JUMP JUMPDEST JUMPDEST PUSH1 0x20 DUP3 MUL SWAP1 POP SWAP2 SWAP1 POP JUMP JUMPDEST PUSH1 0x0 DUP1 REVERT JUMPDEST PUSH1 0x0 PUSH20 0xFFFFFFFFFFFFFFFFFFFFFFFFFFFFFFFFFFFFFFFF DUP3 AND SWAP1 POP SWAP2 SWAP1 POP JUMP JUMPDEST PUSH1 0x0 PUSH2 0x1B1D DUP3 PUSH2 0x1AF2 JUMP JUMPDEST SWAP1 POP SWAP2 SWAP1 POP JUMP JUMPDEST PUSH2 0x1B2D DUP2 PUSH2 0x1B12 JUMP JUMPDEST DUP2 EQ PUSH2 0x1B38 JUMPI PUSH1 0x0 DUP1 REVERT JUMPDEST POP JUMP JUMPDEST PUSH1 0x0 DUP2 CALLDATALOAD SWAP1 POP PUSH2 0x1B4A DUP2 PUSH2 0x1B24 JUMP JUMPDEST SWAP3 SWAP2 POP POP JUMP JUMPDEST PUSH1 0x0 PUSH2 0x1B63 PUSH2 0x1B5E DUP5 PUSH2 0x1AC7 JUMP JUMPDEST PUSH2 0x19FC JUMP JUMPDEST SWAP1 POP DUP1 PUSH1 0x20 DUP5 MUL DUP4 ADD DUP6 DUP2 GT ISZERO PUSH2 0x1B7D JUMPI PUSH2 0x1B7C PUSH2 0x1AED JUMP JUMPDEST JUMPDEST DUP4 JUMPDEST DUP2 DUP2 LT ISZERO PUSH2 0x1BA6 JUMPI DUP1 PUSH2 0x1B92 DUP9 DUP3 PUSH2 0x1B3B JUMP JUMPDEST DUP5 MSTORE PUSH1 0x20 DUP5 ADD SWAP4 POP POP PUSH1 0x20 DUP2 ADD SWAP1 POP PUSH2 0x1B7F JUMP JUMPDEST POP POP POP SWAP4 SWAP3 POP POP POP JUMP JUMPDEST PUSH1 0x0 DUP3 PUSH1 0x1F DUP4 ADD SLT PUSH2 0x1BC5 JUMPI PUSH2 0x1BC4 PUSH2 0x1981 JUMP JUMPDEST JUMPDEST PUSH1 0x2 PUSH2 0x1BD2 DUP5 DUP3 DUP6 PUSH2 0x1B50 JUMP JUMPDEST SWAP2 POP POP SWAP3 SWAP2 POP POP JUMP JUMPDEST PUSH1 0x0 DUP1 PUSH1 0x0 DUP1 PUSH1 0x0 DUP1 PUSH1 0x0 DUP1 PUSH2 0x120 DUP10 DUP12 SUB SLT ISZERO PUSH2 0x1BFC JUMPI PUSH2 0x1BFB PUSH2 0x1941 JUMP JUMPDEST JUMPDEST PUSH1 0x0 PUSH2 0x1C0A DUP12 DUP3 DUP13 ADD PUSH2 0x196C JUMP JUMPDEST SWAP9 POP POP PUSH1 0x20 PUSH2 0x1C1B DUP12 DUP3 DUP13 ADD PUSH2 0x196C JUMP JUMPDEST SWAP8 POP POP PUSH1 0x40 PUSH2 0x1C2C DUP12 DUP3 DUP13 ADD PUSH2 0x196C JUMP JUMPDEST SWAP7 POP POP PUSH1 0x60 PUSH2 0x1C3D DUP12 DUP3 DUP13 ADD PUSH2 0x196C JUMP JUMPDEST SWAP6 POP POP PUSH1 0x80 DUP10 ADD CALLDATALOAD PUSH8 0xFFFFFFFFFFFFFFFF DUP2 GT ISZERO PUSH2 0x1C5E JUMPI PUSH2 0x1C5D PUSH2 0x1946 JUMP JUMPDEST JUMPDEST PUSH2 0x1C6A DUP12 DUP3 DUP13 ADD PUSH2 0x1A99 JUMP JUMPDEST SWAP5 POP POP PUSH1 0xA0 DUP10 ADD CALLDATALOAD PUSH8 0xFFFFFFFFFFFFFFFF DUP2 GT ISZERO PUSH2 0x1C8B JUMPI PUSH2 0x1C8A PUSH2 0x1946 JUMP JUMPDEST JUMPDEST PUSH2 0x1C97 DUP12 DUP3 DUP13 ADD PUSH2 0x1A99 JUMP JUMPDEST SWAP4 POP POP PUSH1 0xC0 DUP10 ADD CALLDATALOAD PUSH8 0xFFFFFFFFFFFFFFFF DUP2 GT ISZERO PUSH2 0x1CB8 JUMPI PUSH2 0x1CB7 PUSH2 0x1946 JUMP JUMPDEST JUMPDEST PUSH2 0x1CC4 DUP12 DUP3 DUP13 ADD PUSH2 0x1A99 JUMP JUMPDEST SWAP3 POP POP PUSH1 0xE0 PUSH2 0x1CD5 DUP12 DUP3 DUP13 ADD PUSH2 0x1BB0 JUMP JUMPDEST SWAP2 POP POP SWAP3 SWAP6 SWAP9 POP SWAP3 SWAP6 SWAP9 SWAP1 SWAP4 SWAP7 POP JUMP JUMPDEST PUSH1 0x0 DUP1 PUSH1 0x60 DUP4 DUP6 SUB SLT ISZERO PUSH2 0x1CFC JUMPI PUSH2 0x1CFB PUSH2 0x1941 JUMP JUMPDEST JUMPDEST PUSH1 0x0 DUP4 ADD CALLDATALOAD PUSH8 0xFFFFFFFFFFFFFFFF DUP2 GT ISZERO PUSH2 0x1D1A JUMPI PUSH2 0x1D19 PUSH2 0x1946 JUMP JUMPDEST JUMPDEST PUSH2 0x1D26 DUP6 DUP3 DUP7 ADD PUSH2 0x1A99 JUMP JUMPDEST SWAP3 POP POP PUSH1 0x20 PUSH2 0x1D37 DUP6 DUP3 DUP7 ADD PUSH2 0x1BB0 JUMP JUMPDEST SWAP2 POP POP SWAP3 POP SWAP3 SWAP1 POP JUMP JUMPDEST PUSH1 0x0 PUSH1 0x40 DUP3 DUP5 SUB SLT ISZERO PUSH2 0x1D57 JUMPI PUSH2 0x1D56 PUSH2 0x1941 JUMP JUMPDEST JUMPDEST PUSH1 0x0 PUSH2 0x1D65 DUP5 DUP3 DUP6 ADD PUSH2 0x1BB0 JUMP JUMPDEST SWAP2 POP POP SWAP3 SWAP2 POP POP JUMP JUMPDEST PUSH1 0x0 DUP2 MLOAD SWAP1 POP SWAP2 SWAP1 POP JUMP JUMPDEST PUSH1 0x0 DUP3 DUP3 MSTORE PUSH1 0x20 DUP3 ADD SWAP1 POP SWAP3 SWAP2 POP POP JUMP JUMPDEST PUSH1 0x0 JUMPDEST DUP4 DUP2 LT ISZERO PUSH2 0x1DA8 JUMPI DUP1 DUP3 ADD MLOAD DUP2 DUP5 ADD MSTORE PUSH1 0x20 DUP2 ADD SWAP1 POP PUSH2 0x1D8D JUMP JUMPDEST DUP4 DUP2 GT ISZERO PUSH2 0x1DB7 JUMPI PUSH1 0x0 DUP5 DUP5 ADD MSTORE JUMPDEST POP POP POP POP JUMP JUMPDEST PUSH1 0x0 PUSH2 0x1DC8 DUP3 PUSH2 0x1D6E JUMP JUMPDEST PUSH2 0x1DD2 DUP2 DUP6 PUSH2 0x1D79 JUMP JUMPDEST SWAP4 POP PUSH2 0x1DE2 DUP2 DUP6 PUSH1 0x20 DUP7 ADD PUSH2 0x1D8A JUMP JUMPDEST PUSH2 0x1DEB DUP2 PUSH2 0x198B JUMP JUMPDEST DUP5 ADD SWAP2 POP POP SWAP3 SWAP2 POP POP JUMP JUMPDEST PUSH1 0x0 PUSH1 0x20 DUP3 ADD SWAP1 POP DUP2 DUP2 SUB PUSH1 0x0 DUP4 ADD MSTORE PUSH2 0x1E10 DUP2 DUP5 PUSH2 0x1DBD JUMP JUMPDEST SWAP1 POP SWAP3 SWAP2 POP POP JUMP JUMPDEST PUSH2 0x1E21 DUP2 PUSH2 0x1B12 JUMP JUMPDEST DUP3 MSTORE POP POP JUMP JUMPDEST PUSH1 0x0 PUSH1 0x20 DUP3 ADD SWAP1 POP PUSH2 0x1E3C PUSH1 0x0 DUP4 ADD DUP5 PUSH2 0x1E18 JUMP JUMPDEST SWAP3 SWAP2 POP POP JUMP JUMPDEST PUSH1 0x0 DUP1 PUSH1 0x60 DUP4 DUP6 SUB SLT ISZERO PUSH2 0x1E59 JUMPI PUSH2 0x1E58 PUSH2 0x1941 JUMP JUMPDEST JUMPDEST PUSH1 0x0 PUSH2 0x1E67 DUP6 DUP3 DUP7 ADD PUSH2 0x196C JUMP JUMPDEST SWAP3 POP POP PUSH1 0x20 PUSH2 0x1E78 DUP6 DUP3 DUP7 ADD PUSH2 0x1BB0 JUMP JUMPDEST SWAP2 POP POP SWAP3 POP SWAP3 SWAP1 POP JUMP JUMPDEST PUSH1 0x0 DUP2 MLOAD SWAP1 POP SWAP2 SWAP1 POP JUMP JUMPDEST PUSH1 0x0 DUP3 DUP3 MSTORE PUSH1 0x20 DUP3 ADD SWAP1 POP SWAP3 SWAP2 POP POP JUMP JUMPDEST PUSH1 0x0 DUP2 SWAP1 POP PUSH1 0x20 DUP3 ADD SWAP1 POP SWAP2 SWAP1 POP JUMP JUMPDEST PUSH2 0x1EB7 DUP2 PUSH2 0x194B JUMP JUMPDEST DUP3 MSTORE POP POP JUMP JUMPDEST PUSH1 0x0 PUSH2 0x1EC9 DUP4 DUP4 PUSH2 0x1EAE JUMP JUMPDEST PUSH1 0x20 DUP4 ADD SWAP1 POP SWAP3 SWAP2 POP POP JUMP JUMPDEST PUSH1 0x0 PUSH1 0x20 DUP3 ADD SWAP1 POP SWAP2 SWAP1 POP JUMP JUMPDEST PUSH1 0x0 PUSH2 0x1EED DUP3 PUSH2 0x1E82 JUMP JUMPDEST PUSH2 0x1EF7 DUP2 DUP6 PUSH2 0x1E8D JUMP JUMPDEST SWAP4 POP PUSH2 0x1F02 DUP4 PUSH2 0x1E9E JUMP JUMPDEST DUP1 PUSH1 0x0 JUMPDEST DUP4 DUP2 LT ISZERO PUSH2 0x1F33 JUMPI DUP2 MLOAD PUSH2 0x1F1A DUP9 DUP3 PUSH2 0x1EBD JUMP JUMPDEST SWAP8 POP PUSH2 0x1F25 DUP4 PUSH2 0x1ED5 JUMP JUMPDEST SWAP3 POP POP PUSH1 0x1 DUP2 ADD SWAP1 POP PUSH2 0x1F06 JUMP JUMPDEST POP DUP6 SWAP4 POP POP POP POP SWAP3 SWAP2 POP POP JUMP JUMPDEST PUSH1 0x0 DUP2 MLOAD SWAP1 POP SWAP2 SWAP1 POP JUMP JUMPDEST PUSH1 0x0 DUP3 DUP3 MSTORE PUSH1 0x20 DUP3 ADD SWAP1 POP SWAP3 SWAP2 POP POP JUMP JUMPDEST PUSH1 0x0 DUP2 SWAP1 POP PUSH1 0x20 DUP3 ADD SWAP1 POP SWAP2 SWAP1 POP JUMP JUMPDEST PUSH1 0x0 DUP3 DUP3 MSTORE PUSH1 0x20 DUP3 ADD SWAP1 POP SWAP3 SWAP2 POP POP JUMP JUMPDEST PUSH1 0x0 PUSH2 0x1F88 DUP3 PUSH2 0x1D6E JUMP JUMPDEST PUSH2 0x1F92 DUP2 DUP6 PUSH2 0x1F6C JUMP JUMPDEST SWAP4 POP PUSH2 0x1FA2 DUP2 DUP6 PUSH1 0x20 DUP7 ADD PUSH2 0x1D8A JUMP JUMPDEST PUSH2 0x1FAB DUP2 PUSH2 0x198B JUMP JUMPDEST DUP5 ADD SWAP2 POP POP SWAP3 SWAP2 POP POP JUMP JUMPDEST PUSH1 0x0 PUSH2 0x1FC2 DUP4 DUP4 PUSH2 0x1F7D JUMP JUMPDEST SWAP1 POP SWAP3 SWAP2 POP POP JUMP JUMPDEST PUSH1 0x0 PUSH1 0x20 DUP3 ADD SWAP1 POP SWAP2 SWAP1 POP JUMP JUMPDEST PUSH1 0x0 PUSH2 0x1FE2 DUP3 PUSH2 0x1F40 JUMP JUMPDEST PUSH2 0x1FEC DUP2 DUP6 PUSH2 0x1F4B JUMP JUMPDEST SWAP4 POP DUP4 PUSH1 0x20 DUP3 MUL DUP6 ADD PUSH2 0x1FFE DUP6 PUSH2 0x1F5C JUMP JUMPDEST DUP1 PUSH1 0x0 JUMPDEST DUP6 DUP2 LT ISZERO PUSH2 0x203A JUMPI DUP5 DUP5 SUB DUP10 MSTORE DUP2 MLOAD PUSH2 0x201B DUP6 DUP3 PUSH2 0x1FB6 JUMP JUMPDEST SWAP5 POP PUSH2 0x2026 DUP4 PUSH2 0x1FCA JUMP JUMPDEST SWAP3 POP PUSH1 0x20 DUP11 ADD SWAP10 POP POP PUSH1 0x1 DUP2 ADD SWAP1 POP PUSH2 0x2002 JUMP JUMPDEST POP DUP3 SWAP8 POP DUP8 SWAP6 POP POP POP POP POP POP SWAP3 SWAP2 POP POP JUMP JUMPDEST PUSH1 0x0 DUP2 MLOAD SWAP1 POP SWAP2 SWAP1 POP JUMP JUMPDEST PUSH1 0x0 DUP3 DUP3 MSTORE PUSH1 0x20 DUP3 ADD SWAP1 POP SWAP3 SWAP2 POP POP JUMP JUMPDEST PUSH1 0x0 DUP2 SWAP1 POP PUSH1 0x20 DUP3 ADD SWAP1 POP SWAP2 SWAP1 POP JUMP JUMPDEST PUSH2 0x2081 DUP2 PUSH2 0x1B12 JUMP JUMPDEST DUP3 MSTORE POP POP JUMP JUMPDEST PUSH1 0x0 PUSH2 0x2093 DUP4 DUP4 PUSH2 0x2078 JUMP JUMPDEST PUSH1 0x20 DUP4 ADD SWAP1 POP SWAP3 SWAP2 POP POP JUMP JUMPDEST PUSH1 0x0 PUSH1 0x20 DUP3 ADD SWAP1 POP SWAP2 SWAP1 POP JUMP JUMPDEST PUSH1 0x0 PUSH2 0x20B7 DUP3 PUSH2 0x204C JUMP JUMPDEST PUSH2 0x20C1 DUP2 DUP6 PUSH2 0x2057 JUMP JUMPDEST SWAP4 POP PUSH2 0x20CC DUP4 PUSH2 0x2068 JUMP JUMPDEST DUP1 PUSH1 0x0 JUMPDEST DUP4 DUP2 LT ISZERO PUSH2 0x20FD JUMPI DUP2 MLOAD PUSH2 0x20E4 DUP9 DUP3 PUSH2 0x2087 JUMP JUMPDEST SWAP8 POP PUSH2 0x20EF DUP4 PUSH2 0x209F JUMP JUMPDEST SWAP3 POP POP PUSH1 0x1 DUP2 ADD SWAP1 POP PUSH2 0x20D0 JUMP JUMPDEST POP DUP6 SWAP4 POP POP POP POP SWAP3 SWAP2 POP POP JUMP JUMPDEST PUSH1 0x0 PUSH1 0xE0 DUP3 ADD SWAP1 POP DUP2 DUP2 SUB PUSH1 0x0 DUP4 ADD MSTORE PUSH2 0x2124 DUP2 DUP11 PUSH2 0x1EE2 JUMP JUMPDEST SWAP1 POP DUP2 DUP2 SUB PUSH1 0x20 DUP4 ADD MSTORE PUSH2 0x2138 DUP2 DUP10 PUSH2 0x1EE2 JUMP JUMPDEST SWAP1 POP DUP2 DUP2 SUB PUSH1 0x40 DUP4 ADD MSTORE PUSH2 0x214C DUP2 DUP9 PUSH2 0x1FD7 JUMP JUMPDEST SWAP1 POP DUP2 DUP2 SUB PUSH1 0x60 DUP4 ADD MSTORE PUSH2 0x2160 DUP2 DUP8 PUSH2 0x1FD7 JUMP JUMPDEST SWAP1 POP DUP2 DUP2 SUB PUSH1 0x80 DUP4 ADD MSTORE PUSH2 0x2174 DUP2 DUP7 PUSH2 0x1FD7 JUMP JUMPDEST SWAP1 POP DUP2 DUP2 SUB PUSH1 0xA0 DUP4 ADD MSTORE PUSH2 0x2188 DUP2 DUP6 PUSH2 0x20AC JUMP JUMPDEST SWAP1 POP DUP2 DUP2 SUB PUSH1 0xC0 DUP4 ADD MSTORE PUSH2 0x219C DUP2 DUP5 PUSH2 0x1EE2 JUMP JUMPDEST SWAP1 POP SWAP9 SWAP8 POP POP POP POP POP POP POP POP JUMP JUMPDEST PUSH1 0x0 DUP1 PUSH1 0x0 DUP1 PUSH1 0x0 DUP1 PUSH1 0x0 PUSH2 0x100 DUP9 DUP11 SUB SLT ISZERO PUSH2 0x21CA JUMPI PUSH2 0x21C9 PUSH2 0x1941 JUMP JUMPDEST JUMPDEST PUSH1 0x0 PUSH2 0x21D8 DUP11 DUP3 DUP12 ADD PUSH2 0x196C JUMP JUMPDEST SWAP8 POP POP PUSH1 0x20 PUSH2 0x21E9 DUP11 DUP3 DUP12 ADD PUSH2 0x196C JUMP JUMPDEST SWAP7 POP POP PUSH1 0x40 PUSH2 0x21FA DUP11 DUP3 DUP12 ADD PUSH2 0x196C JUMP JUMPDEST SWAP6 POP POP PUSH1 0x60 DUP9 ADD CALLDATALOAD PUSH8 0xFFFFFFFFFFFFFFFF DUP2 GT ISZERO PUSH2 0x221B JUMPI PUSH2 0x221A PUSH2 0x1946 JUMP JUMPDEST JUMPDEST PUSH2 0x2227 DUP11 DUP3 DUP12 ADD PUSH2 0x1A99 JUMP JUMPDEST SWAP5 POP POP PUSH1 0x80 DUP9 ADD CALLDATALOAD PUSH8 0xFFFFFFFFFFFFFFFF DUP2 GT ISZERO PUSH2 0x2248 JUMPI PUSH2 0x2247 PUSH2 0x1946 JUMP JUMPDEST JUMPDEST PUSH2 0x2254 DUP11 DUP3 DUP12 ADD PUSH2 0x1A99 JUMP JUMPDEST SWAP4 POP POP PUSH1 0xA0 DUP9 ADD CALLDATALOAD PUSH8 0xFFFFFFFFFFFFFFFF DUP2 GT ISZERO PUSH2 0x2275 JUMPI PUSH2 0x2274 PUSH2 0x1946 JUMP JUMPDEST JUMPDEST PUSH2 0x2281 DUP11 DUP3 DUP12 ADD PUSH2 0x1A99 JUMP JUMPDEST SWAP3 POP POP PUSH1 0xC0 PUSH2 0x2292 DUP11 DUP3 DUP12 ADD PUSH2 0x1BB0 JUMP JUMPDEST SWAP2 POP POP SWAP3 SWAP6 SWAP9 SWAP2 SWAP5 SWAP8 POP SWAP3 SWAP6 POP JUMP JUMPDEST PUSH1 0x0 PUSH1 0x60 DUP3 ADD SWAP1 POP DUP2 DUP2 SUB PUSH1 0x0 DUP4 ADD MSTORE PUSH2 0x22BB DUP2 DUP7 PUSH2 0x20AC JUMP JUMPDEST SWAP1 POP DUP2 DUP2 SUB PUSH1 0x20 DUP4 ADD MSTORE PUSH2 0x22CF DUP2 DUP6 PUSH2 0x1FD7 JUMP JUMPDEST SWAP1 POP DUP2 DUP2 SUB PUSH1 0x40 DUP4 ADD MSTORE PUSH2 0x22E3 DUP2 DUP5 PUSH2 0x1EE2 JUMP JUMPDEST SWAP1 POP SWAP5 SWAP4 POP POP POP POP JUMP JUMPDEST PUSH1 0x0 PUSH1 0x20 DUP3 DUP5 SUB SLT ISZERO PUSH2 0x2303 JUMPI PUSH2 0x2302 PUSH2 0x1941 JUMP JUMPDEST JUMPDEST PUSH1 0x0 PUSH2 0x2311 DUP5 DUP3 DUP6 ADD PUSH2 0x1B3B JUMP JUMPDEST SWAP2 POP POP SWAP3 SWAP2 POP POP JUMP JUMPDEST PUSH1 0x0 DUP1 PUSH1 0x0 PUSH1 0x80 DUP5 DUP7 SUB SLT ISZERO PUSH2 0x2333 JUMPI PUSH2 0x2332 PUSH2 0x1941 JUMP JUMPDEST JUMPDEST PUSH1 0x0 PUSH2 0x2341 DUP7 DUP3 DUP8 ADD PUSH2 0x196C JUMP JUMPDEST SWAP4 POP POP PUSH1 0x20 PUSH2 0x2352 DUP7 DUP3 DUP8 ADD PUSH2 0x196C JUMP JUMPDEST SWAP3 POP POP PUSH1 0x40 PUSH2 0x2363 DUP7 DUP3 DUP8 ADD PUSH2 0x1BB0 JUMP JUMPDEST SWAP2 POP POP SWAP3 POP SWAP3 POP SWAP3 JUMP JUMPDEST PUSH1 0x0 DUP1 PUSH1 0x0 PUSH1 0x80 DUP5 DUP7 SUB SLT ISZERO PUSH2 0x2386 JUMPI PUSH2 0x2385 PUSH2 0x1941 JUMP JUMPDEST JUMPDEST PUSH1 0x0 PUSH2 0x2394 DUP7 DUP3 DUP8 ADD PUSH2 0x196C JUMP JUMPDEST SWAP4 POP POP PUSH1 0x20 PUSH2 0x23A5 DUP7 DUP3 DUP8 ADD PUSH2 0x1B3B JUMP JUMPDEST SWAP3 POP POP PUSH1 0x40 PUSH2 0x23B6 DUP7 DUP3 DUP8 ADD PUSH2 0x1BB0 JUMP JUMPDEST SWAP2 POP POP SWAP3 POP SWAP3 POP SWAP3 JUMP JUMPDEST PUSH1 0x0 DUP1 PUSH1 0x0 DUP1 PUSH1 0xA0 DUP6 DUP8 SUB SLT ISZERO PUSH2 0x23DA JUMPI PUSH2 0x23D9 PUSH2 0x1941 JUMP JUMPDEST JUMPDEST PUSH1 0x0 PUSH2 0x23E8 DUP8 DUP3 DUP9 ADD PUSH2 0x1B3B JUMP JUMPDEST SWAP5 POP POP PUSH1 0x20 PUSH2 0x23F9 DUP8 DUP3 DUP9 ADD PUSH2 0x196C JUMP JUMPDEST SWAP4 POP POP PUSH1 0x40 DUP6 ADD CALLDATALOAD PUSH8 0xFFFFFFFFFFFFFFFF DUP2 GT ISZERO PUSH2 0x241A JUMPI PUSH2 0x2419 PUSH2 0x1946 JUMP JUMPDEST JUMPDEST PUSH2 0x2426 DUP8 DUP3 DUP9 ADD PUSH2 0x1A99 JUMP JUMPDEST SWAP3 POP POP PUSH1 0x60 PUSH2 0x2437 DUP8 DUP3 DUP9 ADD PUSH2 0x1BB0 JUMP JUMPDEST SWAP2 POP POP SWAP3 SWAP6 SWAP2 SWAP5 POP SWAP3 POP JUMP JUMPDEST PUSH1 0x0 DUP1 PUSH1 0x0 DUP1 PUSH1 0xA0 DUP6 DUP8 SUB SLT ISZERO PUSH2 0x245D JUMPI PUSH2 0x245C PUSH2 0x1941 JUMP JUMPDEST JUMPDEST PUSH1 0x0 PUSH2 0x246B DUP8 DUP3 DUP9 ADD PUSH2 0x1B3B JUMP JUMPDEST SWAP5 POP POP PUSH1 0x20 DUP6 ADD CALLDATALOAD PUSH8 0xFFFFFFFFFFFFFFFF DUP2 GT ISZERO PUSH2 0x248C JUMPI PUSH2 0x248B PUSH2 0x1946 JUMP JUMPDEST JUMPDEST PUSH2 0x2498 DUP8 DUP3 DUP9 ADD PUSH2 0x1A99 JUMP JUMPDEST SWAP4 POP POP PUSH1 0x40 PUSH2 0x24A9 DUP8 DUP3 DUP9 ADD PUSH2 0x196C JUMP JUMPDEST SWAP3 POP POP PUSH1 0x60 PUSH2 0x24BA DUP8 DUP3 DUP9 ADD PUSH2 0x1BB0 JUMP JUMPDEST SWAP2 POP POP SWAP3 SWAP6 SWAP2 SWAP5 POP SWAP3 POP JUMP JUMPDEST PUSH32 0x4E487B7100000000000000000000000000000000000000000000000000000000 PUSH1 0x0 MSTORE PUSH1 0x32 PUSH1 0x4 MSTORE PUSH1 0x24 PUSH1 0x0 REVERT JUMPDEST PUSH32 0x4E487B7100000000000000000000000000000000000000000000000000000000 PUSH1 0x0 MSTORE PUSH1 0x22 PUSH1 0x4 MSTORE PUSH1 0x24 PUSH1 0x0 REVERT JUMPDEST PUSH1 0x0 PUSH1 0x2 DUP3 DIV SWAP1 POP PUSH1 0x1 DUP3 AND DUP1 PUSH2 0x253C JUMPI PUSH1 0x7F DUP3 AND SWAP2 POP JUMPDEST PUSH1 0x20 DUP3 LT DUP2 SUB PUSH2 0x254F JUMPI PUSH2 0x254E PUSH2 0x24F5 JUMP JUMPDEST JUMPDEST POP SWAP2 SWAP1 POP JUMP JUMPDEST PUSH32 0x4E487B7100000000000000000000000000000000000000000000000000000000 PUSH1 0x0 MSTORE PUSH1 0x11 PUSH1 0x4 MSTORE PUSH1 0x24 PUSH1 0x0 REVERT JUMPDEST PUSH1 0x0 PUSH2 0x258F DUP3 PUSH2 0x194B JUMP JUMPDEST SWAP2 POP PUSH32 0xFFFFFFFFFFFFFFFFFFFFFFFFFFFFFFFFFFFFFFFFFFFFFFFFFFFFFFFFFFFFFFFF DUP3 SUB PUSH2 0x25C1 JUMPI PUSH2 0x25C0 PUSH2 0x2555 JUMP JUMPDEST JUMPDEST PUSH1 0x1 DUP3 ADD SWAP1 POP SWAP2 SWAP1 POP JUMP JUMPDEST PUSH32 0x4E487B7100000000000000000000000000000000000000000000000000000000 PUSH1 0x0 MSTORE PUSH1 0x21 PUSH1 0x4 MSTORE PUSH1 0x24 PUSH1 0x0 REVERT JUMPDEST PUSH1 0x0 PUSH2 0x2606 DUP3 PUSH2 0x194B JUMP JUMPDEST SWAP2 POP PUSH2 0x2611 DUP4 PUSH2 0x194B JUMP JUMPDEST SWAP3 POP DUP3 DUP3 LT ISZERO PUSH2 0x2624 JUMPI PUSH2 0x2623 PUSH2 0x2555 JUMP JUMPDEST JUMPDEST DUP3 DUP3 SUB SWAP1 POP SWAP3 SWAP2 POP POP JUMP JUMPDEST PUSH32 0x4E487B7100000000000000000000000000000000000000000000000000000000 PUSH1 0x0 MSTORE PUSH1 0x31 PUSH1 0x4 MSTORE PUSH1 0x24 PUSH1 0x0 REVERT INVALID LOG2 PUSH5 0x6970667358 0x22 SLT KECCAK256 CALLCODE DUP8 TIMESTAMP DIV 0xBB KECCAK256 0x2D 0xA5 0xD0 REVERT RETURNDATACOPY CALLDATALOAD EXP DUP9 0x1F 0xF8 DUP5 PUSH24 0x7ACC453B8C657DA7437D0BD49D8464736F6C634300080D00 CALLER "},"gasEstimates":{"creation":{"codeDepositCost":"1975200","executionCost":"infinite","totalCost":"infinite"},"external":{"addCooperator(address,uint256,string,address[2])":"infinite","addEvent(uint256,uint256,uint256,string,string,string,address[2])":"infinite","changeManager(address)":"51291","deleteCooperator(uint256,address,address[2])":"infinite","deleteEvent(uint256,uint256,address[2])":"infinite","getCalendarTitle(address[2])":"infinite","getCooperators(address[2])":"infinite","getEvents(uint256,address[2])":"infinite","manager()":"2581","updateCalendarTitle(string,address[2])":"infinite","updateCooperator(address,string,uint256,address[2])":"infinite","updateEvent(uint256,uint256,uint256,uint256,string,string,string,address[2])":"infinite"},"internal":{"checkAccess(address[2] memory,enum Calendar.Permission)":"infinite"}},"methodIdentifiers":{"addCooperator(address,uint256,string,address[2])":"e71a85f5","addEvent(uint256,uint256,uint256,string,string,string,address[2])":"705d862a","changeManager(address)":"a3fbbaae","deleteCooperator(uint256,address,address[2])":"b0a7c296","deleteEvent(uint256,uint256,address[2])":"a4af98be","getCalendarTitle(address[2])":"439998d0","getCooperators(address[2])":"9a342388","getEvents(uint256,address[2])":"6e9c691a","manager()":"481c6a75","updateCalendarTitle(string,address[2])":"2ae99bcf","updateCooperator(address,string,uint256,address[2])":"ea2fc905","updateEvent(uint256,uint256,uint256,uint256,string,string,string,address[2])":"10321ce2"}},"storageLayout":{"storage":[{"astId":25,"contract":"E-timetable.sol:Calendar","label":"events","offset":0,"slot":"0","type":"t_mapping(t_uint256,t_array(t_struct(Event)14_storage)dyn_storage)"},{"astId":27,"contract":"E-timetable.sol:Calendar","label":"manager","offset":0,"slot":"1","type":"t_address"},{"astId":29,"contract":"E-timetable.sol:Calendar","label":"calendarTitle","offset":0,"slot":"2","type":"t_string_storage"},{"astId":32,"contract":"E-timetable.sol:Calendar","label":"cooperators","offset":0,"slot":"3","type":"t_array(t_address)dyn_storage"},{"astId":37,"contract":"E-timetable.sol:Calendar","label":"cooperatorPermission","offset":0,"slot":"4","type":"t_mapping(t_address,t_enum(Permission)19)"},{"astId":41,"contract":"E-timetable.sol:Calendar","label":"cooperatorName","offset":0,"slot":"5","type":"t_mapping(t_address,t_string_storage)"}],"types":{"t_address":{"encoding":"inplace","label":"address","numberOfBytes":"20"},"t_array(t_address)dyn_storage":{"base":"t_address","encoding":"dynamic_array","label":"address[]","numberOfBytes":"32"},"t_array(t_struct(Event)14_storage)dyn_storage":{"base":"t_struct(Event)14_storage","encoding":"dynamic_array","label":"struct Calendar.Event[]","numberOfBytes":"32"},"t_enum(Permission)19":{"encoding":"inplace","label":"enum Calendar.Permission","numberOfBytes":"1"},"t_mapping(t_address,t_enum(Permission)19)":{"encoding":"mapping","key":"t_address","label":"mapping(address => enum Calendar.Permission)","numberOfBytes":"32","value":"t_enum(Permission)19"},"t_mapping(t_address,t_string_storage)":{"encoding":"mapping","key":"t_address","label":"mapping(address => string)","numberOfBytes":"32","value":"t_string_storage"},"t_mapping(t_uint256,t_array(t_struct(Event)14_storage)dyn_storage)":{"encoding":"mapping","key":"t_uint256","label":"mapping(uint256 => struct Calendar.Event[])","numberOfBytes":"32","value":"t_array(t_struct(Event)14_storage)dyn_storage"},"t_string_storage":{"encoding":"bytes","label":"string","numberOfBytes":"32"},"t_struct(Event)14_storage":{"encoding":"inplace","label":"struct Calendar.Event","members":[{"astId":3,"contract":"E-timetable.sol:Calendar","label":"startTimestamp","offset":0,"slot":"0","type":"t_uint256"},{"astId":5,"contract":"E-timetable.sol:Calendar","label":"endTimestamp","offset":0,"slot":"1","type":"t_uint256"},{"astId":7,"contract":"E-timetable.sol:Calendar","label":"title","offset":0,"slot":"2","type":"t_string_storage"},{"astId":9,"contract":"E-timetable.sol:Calendar","label":"color","offset":0,"slot":"3","type":"t_string_storage"},{"astId":11,"contract":"E-timetable.sol:Calendar","label":"description","offset":0,"slot":"4","type":"t_string_storage"},{"astId":13,"contract":"E-timetable.sol:Calendar","label":"createdBy","offset":0,"slot":"5","type":"t_address"}],"numberOfBytes":"192"},"t_uint256":{"encoding":"inplace","label":"uint256","numberOfBytes":"32"}}},"userdoc":{"kind":"user","methods":{},"version":1}}