{"abi":[{"inputs":[{"internalType":"string","name":"gname","type":"string"},{"internalType":"string","name":"mname","type":"string"},{"internalType":"address","name":"_manager","type":"address"}],"stateMutability":"nonpayable","type":"constructor"},{"inputs":[{"internalType":"address","name":"memberAddress","type":"address"},{"internalType":"string","name":"name","type":"string"},{"internalType":"uint256","name":"permission","type":"uint256"}],"name":"addMember","outputs":[],"stateMutability":"nonpayable","type":"function"},{"inputs":[{"internalType":"address","name":"newManager","type":"address"}],"name":"changeManager","outputs":[],"stateMutability":"nonpayable","type":"function"},{"inputs":[{"internalType":"uint256","name":"index","type":"uint256"},{"internalType":"address","name":"memberAddress","type":"address"}],"name":"deleteMember","outputs":[],"stateMutability":"nonpayable","type":"function"},{"inputs":[],"name":"getGroupName","outputs":[{"internalType":"string","name":"","type":"string"}],"stateMutability":"view","type":"function"},{"inputs":[],"name":"getMembers","outputs":[{"internalType":"address[]","name":"membersAddress","type":"address[]"},{"internalType":"string[]","name":"names","type":"string[]"},{"internalType":"uint256[]","name":"permissions","type":"uint256[]"}],"stateMutability":"view","type":"function"},{"inputs":[],"name":"manager","outputs":[{"internalType":"address","name":"","type":"address"}],"stateMutability":"view","type":"function"},{"inputs":[{"internalType":"string","name":"name","type":"string"}],"name":"updateGroupName","outputs":[],"stateMutability":"nonpayable","type":"function"},{"inputs":[{"internalType":"address","name":"memberAddress","type":"address"},{"internalType":"string","name":"name","type":"string"},{"internalType":"uint256","name":"permission","type":"uint256"}],"name":"updateMember","outputs":[],"stateMutability":"nonpayable","type":"function"}],"devdoc":{"kind":"dev","methods":{},"version":1},"evm":{"assembly":"    /* \"E-timetable.sol\":9970:12925  contract Group{... */\n  mstore(0x40, 0x80)\n    /* \"E-timetable.sol\":10570:10801  constructor(string memory gname, string memory mname, address _manager){... */\n  callvalue\n  dup1\n  iszero\n  tag_1\n  jumpi\n  0x00\n  dup1\n  revert\ntag_1:\n  pop\n  mload(0x40)\n  sub(codesize, bytecodeSize)\n  dup1\n  bytecodeSize\n  dup4\n  codecopy\n  dup2\n  dup2\n  add\n  0x40\n  mstore\n  dup2\n  add\n  swap1\n  tag_2\n  swap2\n  swap1\n  tag_3\n  jump\t// in\ntag_2:\n    /* \"E-timetable.sol\":10662:10670  _manager */\n  dup1\n    /* \"E-timetable.sol\":10652:10659  manager */\n  0x02\n  0x00\n    /* \"E-timetable.sol\":10652:10670  manager = _manager */\n  0x0100\n  exp\n  dup2\n  sload\n  dup2\n  0xffffffffffffffffffffffffffffffffffffffff\n  mul\n  not\n  and\n  swap1\n  dup4\n  0xffffffffffffffffffffffffffffffffffffffff\n  and\n  mul\n  or\n  swap1\n  sstore\n  pop\n    /* \"E-timetable.sol\":10693:10698  gname */\n  dup3\n    /* \"E-timetable.sol\":10681:10690  groupName */\n  0x00\n    /* \"E-timetable.sol\":10681:10698  groupName = gname */\n  swap1\n  dup1\n  mload\n  swap1\n  0x20\n  add\n  swap1\n  tag_6\n  swap3\n  swap2\n  swap1\n  tag_7\n  jump\t// in\ntag_6:\n  pop\n    /* \"E-timetable.sol\":10732:10737  mname */\n  dup2\n    /* \"E-timetable.sol\":10709:10719  memberName */\n  0x04\n    /* \"E-timetable.sol\":10709:10729  memberName[_manager] */\n  0x00\n    /* \"E-timetable.sol\":10720:10728  _manager */\n  dup4\n    /* \"E-timetable.sol\":10709:10729  memberName[_manager] */\n  0xffffffffffffffffffffffffffffffffffffffff\n  and\n  0xffffffffffffffffffffffffffffffffffffffff\n  and\n  dup2\n  mstore\n  0x20\n  add\n  swap1\n  dup2\n  mstore\n  0x20\n  add\n  0x00\n  keccak256\n    /* \"E-timetable.sol\":10709:10737  memberName[_manager] = mname */\n  swap1\n  dup1\n  mload\n  swap1\n  0x20\n  add\n  swap1\n  tag_8\n  swap3\n  swap2\n  swap1\n  tag_7\n  jump\t// in\ntag_8:\n  pop\n    /* \"E-timetable.sol\":10777:10793  Permission.ADMIN */\n  0x02\n    /* \"E-timetable.sol\":10748:10764  memberPermission */\n  0x03\n    /* \"E-timetable.sol\":10748:10774  memberPermission[_manager] */\n  0x00\n    /* \"E-timetable.sol\":10765:10773  _manager */\n  dup4\n    /* \"E-timetable.sol\":10748:10774  memberPermission[_manager] */\n  0xffffffffffffffffffffffffffffffffffffffff\n  and\n  0xffffffffffffffffffffffffffffffffffffffff\n  and\n  dup2\n  mstore\n  0x20\n  add\n  swap1\n  dup2\n  mstore\n  0x20\n  add\n  0x00\n  keccak256\n  0x00\n    /* \"E-timetable.sol\":10748:10793  memberPermission[_manager] = Permission.ADMIN */\n  0x0100\n  exp\n  dup2\n  sload\n  dup2\n  0xff\n  mul\n  not\n  and\n  swap1\n  dup4\n  0x02\n  dup2\n  gt\n  iszero\n  tag_9\n  jumpi\n  tag_10\n  tag_11\n  jump\t// in\ntag_10:\ntag_9:\n  mul\n  or\n  swap1\n  sstore\n  pop\n    /* \"E-timetable.sol\":10570:10801  constructor(string memory gname, string memory mname, address _manager){... */\n  pop\n  pop\n  pop\n    /* \"E-timetable.sol\":9970:12925  contract Group{... */\n  jump(tag_12)\ntag_7:\n  dup3\n  dup1\n  sload\n  tag_13\n  swap1\n  tag_14\n  jump\t// in\ntag_13:\n  swap1\n  0x00\n  mstore\n  keccak256(0x00, 0x20)\n  swap1\n  0x1f\n  add\n  0x20\n  swap1\n  div\n  dup2\n  add\n  swap3\n  dup3\n  tag_16\n  jumpi\n  0x00\n  dup6\n  sstore\n  jump(tag_15)\ntag_16:\n  dup3\n  0x1f\n  lt\n  tag_17\n  jumpi\n  dup1\n  mload\n  not(0xff)\n  and\n  dup4\n  dup1\n  add\n  or\n  dup6\n  sstore\n  jump(tag_15)\ntag_17:\n  dup3\n  dup1\n  add\n  0x01\n  add\n  dup6\n  sstore\n  dup3\n  iszero\n  tag_15\n  jumpi\n  swap2\n  dup3\n  add\ntag_18:\n  dup3\n  dup2\n  gt\n  iszero\n  tag_19\n  jumpi\n  dup3\n  mload\n  dup3\n  sstore\n  swap2\n  0x20\n  add\n  swap2\n  swap1\n  0x01\n  add\n  swap1\n  jump(tag_18)\ntag_19:\ntag_15:\n  pop\n  swap1\n  pop\n  tag_20\n  swap2\n  swap1\n  tag_21\n  jump\t// in\ntag_20:\n  pop\n  swap1\n  jump\t// out\ntag_21:\ntag_22:\n  dup1\n  dup3\n  gt\n  iszero\n  tag_23\n  jumpi\n  0x00\n  dup2\n  0x00\n  swap1\n  sstore\n  pop\n  0x01\n  add\n  jump(tag_22)\ntag_23:\n  pop\n  swap1\n  jump\t// out\n    /* \"#utility.yul\":7:82   */\ntag_24:\n    /* \"#utility.yul\":40:46   */\n  0x00\n    /* \"#utility.yul\":73:75   */\n  0x40\n    /* \"#utility.yul\":67:76   */\n  mload\n    /* \"#utility.yul\":57:76   */\n  swap1\n  pop\n    /* \"#utility.yul\":7:82   */\n  swap1\n  jump\t// out\n    /* \"#utility.yul\":88:205   */\ntag_25:\n    /* \"#utility.yul\":197:198   */\n  0x00\n    /* \"#utility.yul\":194:195   */\n  dup1\n    /* \"#utility.yul\":187:199   */\n  revert\n    /* \"#utility.yul\":211:328   */\ntag_26:\n    /* \"#utility.yul\":320:321   */\n  0x00\n    /* \"#utility.yul\":317:318   */\n  dup1\n    /* \"#utility.yul\":310:322   */\n  revert\n    /* \"#utility.yul\":334:451   */\ntag_27:\n    /* \"#utility.yul\":443:444   */\n  0x00\n    /* \"#utility.yul\":440:441   */\n  dup1\n    /* \"#utility.yul\":433:445   */\n  revert\n    /* \"#utility.yul\":457:574   */\ntag_28:\n    /* \"#utility.yul\":566:567   */\n  0x00\n    /* \"#utility.yul\":563:564   */\n  dup1\n    /* \"#utility.yul\":556:568   */\n  revert\n    /* \"#utility.yul\":580:682   */\ntag_29:\n    /* \"#utility.yul\":621:627   */\n  0x00\n    /* \"#utility.yul\":672:674   */\n  0x1f\n    /* \"#utility.yul\":668:675   */\n  not\n    /* \"#utility.yul\":663:665   */\n  0x1f\n    /* \"#utility.yul\":656:661   */\n  dup4\n    /* \"#utility.yul\":652:666   */\n  add\n    /* \"#utility.yul\":648:676   */\n  and\n    /* \"#utility.yul\":638:676   */\n  swap1\n  pop\n    /* \"#utility.yul\":580:682   */\n  swap2\n  swap1\n  pop\n  jump\t// out\n    /* \"#utility.yul\":688:868   */\ntag_30:\n    /* \"#utility.yul\":736:813   */\n  0x4e487b7100000000000000000000000000000000000000000000000000000000\n    /* \"#utility.yul\":733:734   */\n  0x00\n    /* \"#utility.yul\":726:814   */\n  mstore\n    /* \"#utility.yul\":833:837   */\n  0x41\n    /* \"#utility.yul\":830:831   */\n  0x04\n    /* \"#utility.yul\":823:838   */\n  mstore\n    /* \"#utility.yul\":857:861   */\n  0x24\n    /* \"#utility.yul\":854:855   */\n  0x00\n    /* \"#utility.yul\":847:862   */\n  revert\n    /* \"#utility.yul\":874:1155   */\ntag_31:\n    /* \"#utility.yul\":957:984   */\n  tag_51\n    /* \"#utility.yul\":979:983   */\n  dup3\n    /* \"#utility.yul\":957:984   */\n  tag_29\n  jump\t// in\ntag_51:\n    /* \"#utility.yul\":949:955   */\n  dup2\n    /* \"#utility.yul\":945:985   */\n  add\n    /* \"#utility.yul\":1087:1093   */\n  dup2\n    /* \"#utility.yul\":1075:1085   */\n  dup2\n    /* \"#utility.yul\":1072:1094   */\n  lt\n    /* \"#utility.yul\":1051:1069   */\n  0xffffffffffffffff\n    /* \"#utility.yul\":1039:1049   */\n  dup3\n    /* \"#utility.yul\":1036:1070   */\n  gt\n    /* \"#utility.yul\":1033:1095   */\n  or\n    /* \"#utility.yul\":1030:1118   */\n  iszero\n  tag_52\n  jumpi\n    /* \"#utility.yul\":1098:1116   */\n  tag_53\n  tag_30\n  jump\t// in\ntag_53:\n    /* \"#utility.yul\":1030:1118   */\ntag_52:\n    /* \"#utility.yul\":1138:1148   */\n  dup1\n    /* \"#utility.yul\":1134:1136   */\n  0x40\n    /* \"#utility.yul\":1127:1149   */\n  mstore\n    /* \"#utility.yul\":917:1155   */\n  pop\n    /* \"#utility.yul\":874:1155   */\n  pop\n  pop\n  jump\t// out\n    /* \"#utility.yul\":1161:1290   */\ntag_32:\n    /* \"#utility.yul\":1195:1201   */\n  0x00\n    /* \"#utility.yul\":1222:1242   */\n  tag_55\n  tag_24\n  jump\t// in\ntag_55:\n    /* \"#utility.yul\":1212:1242   */\n  swap1\n  pop\n    /* \"#utility.yul\":1251:1284   */\n  tag_56\n    /* \"#utility.yul\":1279:1283   */\n  dup3\n    /* \"#utility.yul\":1271:1277   */\n  dup3\n    /* \"#utility.yul\":1251:1284   */\n  tag_31\n  jump\t// in\ntag_56:\n    /* \"#utility.yul\":1161:1290   */\n  swap2\n  swap1\n  pop\n  jump\t// out\n    /* \"#utility.yul\":1296:1604   */\ntag_33:\n    /* \"#utility.yul\":1358:1362   */\n  0x00\n    /* \"#utility.yul\":1448:1466   */\n  0xffffffffffffffff\n    /* \"#utility.yul\":1440:1446   */\n  dup3\n    /* \"#utility.yul\":1437:1467   */\n  gt\n    /* \"#utility.yul\":1434:1490   */\n  iszero\n  tag_58\n  jumpi\n    /* \"#utility.yul\":1470:1488   */\n  tag_59\n  tag_30\n  jump\t// in\ntag_59:\n    /* \"#utility.yul\":1434:1490   */\ntag_58:\n    /* \"#utility.yul\":1508:1537   */\n  tag_60\n    /* \"#utility.yul\":1530:1536   */\n  dup3\n    /* \"#utility.yul\":1508:1537   */\n  tag_29\n  jump\t// in\ntag_60:\n    /* \"#utility.yul\":1500:1537   */\n  swap1\n  pop\n    /* \"#utility.yul\":1592:1596   */\n  0x20\n    /* \"#utility.yul\":1586:1590   */\n  dup2\n    /* \"#utility.yul\":1582:1597   */\n  add\n    /* \"#utility.yul\":1574:1597   */\n  swap1\n  pop\n    /* \"#utility.yul\":1296:1604   */\n  swap2\n  swap1\n  pop\n  jump\t// out\n    /* \"#utility.yul\":1610:1917   */\ntag_34:\n    /* \"#utility.yul\":1678:1679   */\n  0x00\n    /* \"#utility.yul\":1688:1801   */\ntag_62:\n    /* \"#utility.yul\":1702:1708   */\n  dup4\n    /* \"#utility.yul\":1699:1700   */\n  dup2\n    /* \"#utility.yul\":1696:1709   */\n  lt\n    /* \"#utility.yul\":1688:1801   */\n  iszero\n  tag_64\n  jumpi\n    /* \"#utility.yul\":1787:1788   */\n  dup1\n    /* \"#utility.yul\":1782:1785   */\n  dup3\n    /* \"#utility.yul\":1778:1789   */\n  add\n    /* \"#utility.yul\":1772:1790   */\n  mload\n    /* \"#utility.yul\":1768:1769   */\n  dup2\n    /* \"#utility.yul\":1763:1766   */\n  dup5\n    /* \"#utility.yul\":1759:1770   */\n  add\n    /* \"#utility.yul\":1752:1791   */\n  mstore\n    /* \"#utility.yul\":1724:1726   */\n  0x20\n    /* \"#utility.yul\":1721:1722   */\n  dup2\n    /* \"#utility.yul\":1717:1727   */\n  add\n    /* \"#utility.yul\":1712:1727   */\n  swap1\n  pop\n    /* \"#utility.yul\":1688:1801   */\n  jump(tag_62)\ntag_64:\n    /* \"#utility.yul\":1819:1825   */\n  dup4\n    /* \"#utility.yul\":1816:1817   */\n  dup2\n    /* \"#utility.yul\":1813:1826   */\n  gt\n    /* \"#utility.yul\":1810:1911   */\n  iszero\n  tag_65\n  jumpi\n    /* \"#utility.yul\":1899:1900   */\n  0x00\n    /* \"#utility.yul\":1890:1896   */\n  dup5\n    /* \"#utility.yul\":1885:1888   */\n  dup5\n    /* \"#utility.yul\":1881:1897   */\n  add\n    /* \"#utility.yul\":1874:1901   */\n  mstore\n    /* \"#utility.yul\":1810:1911   */\ntag_65:\n    /* \"#utility.yul\":1659:1917   */\n  pop\n    /* \"#utility.yul\":1610:1917   */\n  pop\n  pop\n  pop\n  jump\t// out\n    /* \"#utility.yul\":1923:2344   */\ntag_35:\n    /* \"#utility.yul\":2012:2017   */\n  0x00\n    /* \"#utility.yul\":2037:2103   */\n  tag_67\n    /* \"#utility.yul\":2053:2102   */\n  tag_68\n    /* \"#utility.yul\":2095:2101   */\n  dup5\n    /* \"#utility.yul\":2053:2102   */\n  tag_33\n  jump\t// in\ntag_68:\n    /* \"#utility.yul\":2037:2103   */\n  tag_32\n  jump\t// in\ntag_67:\n    /* \"#utility.yul\":2028:2103   */\n  swap1\n  pop\n    /* \"#utility.yul\":2126:2132   */\n  dup3\n    /* \"#utility.yul\":2119:2124   */\n  dup2\n    /* \"#utility.yul\":2112:2133   */\n  mstore\n    /* \"#utility.yul\":2164:2168   */\n  0x20\n    /* \"#utility.yul\":2157:2162   */\n  dup2\n    /* \"#utility.yul\":2153:2169   */\n  add\n    /* \"#utility.yul\":2202:2205   */\n  dup5\n    /* \"#utility.yul\":2193:2199   */\n  dup5\n    /* \"#utility.yul\":2188:2191   */\n  dup5\n    /* \"#utility.yul\":2184:2200   */\n  add\n    /* \"#utility.yul\":2181:2206   */\n  gt\n    /* \"#utility.yul\":2178:2290   */\n  iszero\n  tag_69\n  jumpi\n    /* \"#utility.yul\":2209:2288   */\n  tag_70\n  tag_28\n  jump\t// in\ntag_70:\n    /* \"#utility.yul\":2178:2290   */\ntag_69:\n    /* \"#utility.yul\":2299:2338   */\n  tag_71\n    /* \"#utility.yul\":2331:2337   */\n  dup5\n    /* \"#utility.yul\":2326:2329   */\n  dup3\n    /* \"#utility.yul\":2321:2324   */\n  dup6\n    /* \"#utility.yul\":2299:2338   */\n  tag_34\n  jump\t// in\ntag_71:\n    /* \"#utility.yul\":2018:2344   */\n  pop\n    /* \"#utility.yul\":1923:2344   */\n  swap4\n  swap3\n  pop\n  pop\n  pop\n  jump\t// out\n    /* \"#utility.yul\":2364:2719   */\ntag_36:\n    /* \"#utility.yul\":2431:2436   */\n  0x00\n    /* \"#utility.yul\":2480:2483   */\n  dup3\n    /* \"#utility.yul\":2473:2477   */\n  0x1f\n    /* \"#utility.yul\":2465:2471   */\n  dup4\n    /* \"#utility.yul\":2461:2478   */\n  add\n    /* \"#utility.yul\":2457:2484   */\n  slt\n    /* \"#utility.yul\":2447:2569   */\n  tag_73\n  jumpi\n    /* \"#utility.yul\":2488:2567   */\n  tag_74\n  tag_27\n  jump\t// in\ntag_74:\n    /* \"#utility.yul\":2447:2569   */\ntag_73:\n    /* \"#utility.yul\":2598:2604   */\n  dup2\n    /* \"#utility.yul\":2592:2605   */\n  mload\n    /* \"#utility.yul\":2623:2713   */\n  tag_75\n    /* \"#utility.yul\":2709:2712   */\n  dup5\n    /* \"#utility.yul\":2701:2707   */\n  dup3\n    /* \"#utility.yul\":2694:2698   */\n  0x20\n    /* \"#utility.yul\":2686:2692   */\n  dup7\n    /* \"#utility.yul\":2682:2699   */\n  add\n    /* \"#utility.yul\":2623:2713   */\n  tag_35\n  jump\t// in\ntag_75:\n    /* \"#utility.yul\":2614:2713   */\n  swap2\n  pop\n    /* \"#utility.yul\":2437:2719   */\n  pop\n    /* \"#utility.yul\":2364:2719   */\n  swap3\n  swap2\n  pop\n  pop\n  jump\t// out\n    /* \"#utility.yul\":2725:2851   */\ntag_37:\n    /* \"#utility.yul\":2762:2769   */\n  0x00\n    /* \"#utility.yul\":2802:2844   */\n  0xffffffffffffffffffffffffffffffffffffffff\n    /* \"#utility.yul\":2795:2800   */\n  dup3\n    /* \"#utility.yul\":2791:2845   */\n  and\n    /* \"#utility.yul\":2780:2845   */\n  swap1\n  pop\n    /* \"#utility.yul\":2725:2851   */\n  swap2\n  swap1\n  pop\n  jump\t// out\n    /* \"#utility.yul\":2857:2953   */\ntag_38:\n    /* \"#utility.yul\":2894:2901   */\n  0x00\n    /* \"#utility.yul\":2923:2947   */\n  tag_78\n    /* \"#utility.yul\":2941:2946   */\n  dup3\n    /* \"#utility.yul\":2923:2947   */\n  tag_37\n  jump\t// in\ntag_78:\n    /* \"#utility.yul\":2912:2947   */\n  swap1\n  pop\n    /* \"#utility.yul\":2857:2953   */\n  swap2\n  swap1\n  pop\n  jump\t// out\n    /* \"#utility.yul\":2959:3081   */\ntag_39:\n    /* \"#utility.yul\":3032:3056   */\n  tag_80\n    /* \"#utility.yul\":3050:3055   */\n  dup2\n    /* \"#utility.yul\":3032:3056   */\n  tag_38\n  jump\t// in\ntag_80:\n    /* \"#utility.yul\":3025:3030   */\n  dup2\n    /* \"#utility.yul\":3022:3057   */\n  eq\n    /* \"#utility.yul\":3012:3075   */\n  tag_81\n  jumpi\n    /* \"#utility.yul\":3071:3072   */\n  0x00\n    /* \"#utility.yul\":3068:3069   */\n  dup1\n    /* \"#utility.yul\":3061:3073   */\n  revert\n    /* \"#utility.yul\":3012:3075   */\ntag_81:\n    /* \"#utility.yul\":2959:3081   */\n  pop\n  jump\t// out\n    /* \"#utility.yul\":3087:3230   */\ntag_40:\n    /* \"#utility.yul\":3144:3149   */\n  0x00\n    /* \"#utility.yul\":3175:3181   */\n  dup2\n    /* \"#utility.yul\":3169:3182   */\n  mload\n    /* \"#utility.yul\":3160:3182   */\n  swap1\n  pop\n    /* \"#utility.yul\":3191:3224   */\n  tag_83\n    /* \"#utility.yul\":3218:3223   */\n  dup2\n    /* \"#utility.yul\":3191:3224   */\n  tag_39\n  jump\t// in\ntag_83:\n    /* \"#utility.yul\":3087:3230   */\n  swap3\n  swap2\n  pop\n  pop\n  jump\t// out\n    /* \"#utility.yul\":3236:4245   */\ntag_3:\n    /* \"#utility.yul\":3344:3350   */\n  0x00\n    /* \"#utility.yul\":3352:3358   */\n  dup1\n    /* \"#utility.yul\":3360:3366   */\n  0x00\n    /* \"#utility.yul\":3409:3411   */\n  0x60\n    /* \"#utility.yul\":3397:3406   */\n  dup5\n    /* \"#utility.yul\":3388:3395   */\n  dup7\n    /* \"#utility.yul\":3384:3407   */\n  sub\n    /* \"#utility.yul\":3380:3412   */\n  slt\n    /* \"#utility.yul\":3377:3496   */\n  iszero\n  tag_85\n  jumpi\n    /* \"#utility.yul\":3415:3494   */\n  tag_86\n  tag_25\n  jump\t// in\ntag_86:\n    /* \"#utility.yul\":3377:3496   */\ntag_85:\n    /* \"#utility.yul\":3556:3557   */\n  0x00\n    /* \"#utility.yul\":3545:3554   */\n  dup5\n    /* \"#utility.yul\":3541:3558   */\n  add\n    /* \"#utility.yul\":3535:3559   */\n  mload\n    /* \"#utility.yul\":3586:3604   */\n  0xffffffffffffffff\n    /* \"#utility.yul\":3578:3584   */\n  dup2\n    /* \"#utility.yul\":3575:3605   */\n  gt\n    /* \"#utility.yul\":3572:3689   */\n  iszero\n  tag_87\n  jumpi\n    /* \"#utility.yul\":3608:3687   */\n  tag_88\n  tag_26\n  jump\t// in\ntag_88:\n    /* \"#utility.yul\":3572:3689   */\ntag_87:\n    /* \"#utility.yul\":3713:3787   */\n  tag_89\n    /* \"#utility.yul\":3779:3786   */\n  dup7\n    /* \"#utility.yul\":3770:3776   */\n  dup3\n    /* \"#utility.yul\":3759:3768   */\n  dup8\n    /* \"#utility.yul\":3755:3777   */\n  add\n    /* \"#utility.yul\":3713:3787   */\n  tag_36\n  jump\t// in\ntag_89:\n    /* \"#utility.yul\":3703:3787   */\n  swap4\n  pop\n    /* \"#utility.yul\":3506:3797   */\n  pop\n    /* \"#utility.yul\":3857:3859   */\n  0x20\n    /* \"#utility.yul\":3846:3855   */\n  dup5\n    /* \"#utility.yul\":3842:3860   */\n  add\n    /* \"#utility.yul\":3836:3861   */\n  mload\n    /* \"#utility.yul\":3888:3906   */\n  0xffffffffffffffff\n    /* \"#utility.yul\":3880:3886   */\n  dup2\n    /* \"#utility.yul\":3877:3907   */\n  gt\n    /* \"#utility.yul\":3874:3991   */\n  iszero\n  tag_90\n  jumpi\n    /* \"#utility.yul\":3910:3989   */\n  tag_91\n  tag_26\n  jump\t// in\ntag_91:\n    /* \"#utility.yul\":3874:3991   */\ntag_90:\n    /* \"#utility.yul\":4015:4089   */\n  tag_92\n    /* \"#utility.yul\":4081:4088   */\n  dup7\n    /* \"#utility.yul\":4072:4078   */\n  dup3\n    /* \"#utility.yul\":4061:4070   */\n  dup8\n    /* \"#utility.yul\":4057:4079   */\n  add\n    /* \"#utility.yul\":4015:4089   */\n  tag_36\n  jump\t// in\ntag_92:\n    /* \"#utility.yul\":4005:4089   */\n  swap3\n  pop\n    /* \"#utility.yul\":3807:4099   */\n  pop\n    /* \"#utility.yul\":4138:4140   */\n  0x40\n    /* \"#utility.yul\":4164:4228   */\n  tag_93\n    /* \"#utility.yul\":4220:4227   */\n  dup7\n    /* \"#utility.yul\":4211:4217   */\n  dup3\n    /* \"#utility.yul\":4200:4209   */\n  dup8\n    /* \"#utility.yul\":4196:4218   */\n  add\n    /* \"#utility.yul\":4164:4228   */\n  tag_40\n  jump\t// in\ntag_93:\n    /* \"#utility.yul\":4154:4228   */\n  swap2\n  pop\n    /* \"#utility.yul\":4109:4238   */\n  pop\n    /* \"#utility.yul\":3236:4245   */\n  swap3\n  pop\n  swap3\n  pop\n  swap3\n  jump\t// out\n    /* \"#utility.yul\":4251:4431   */\ntag_11:\n    /* \"#utility.yul\":4299:4376   */\n  0x4e487b7100000000000000000000000000000000000000000000000000000000\n    /* \"#utility.yul\":4296:4297   */\n  0x00\n    /* \"#utility.yul\":4289:4377   */\n  mstore\n    /* \"#utility.yul\":4396:4400   */\n  0x21\n    /* \"#utility.yul\":4393:4394   */\n  0x04\n    /* \"#utility.yul\":4386:4401   */\n  mstore\n    /* \"#utility.yul\":4420:4424   */\n  0x24\n    /* \"#utility.yul\":4417:4418   */\n  0x00\n    /* \"#utility.yul\":4410:4425   */\n  revert\n    /* \"#utility.yul\":4437:4617   */\ntag_41:\n    /* \"#utility.yul\":4485:4562   */\n  0x4e487b7100000000000000000000000000000000000000000000000000000000\n    /* \"#utility.yul\":4482:4483   */\n  0x00\n    /* \"#utility.yul\":4475:4563   */\n  mstore\n    /* \"#utility.yul\":4582:4586   */\n  0x22\n    /* \"#utility.yul\":4579:4580   */\n  0x04\n    /* \"#utility.yul\":4572:4587   */\n  mstore\n    /* \"#utility.yul\":4606:4610   */\n  0x24\n    /* \"#utility.yul\":4603:4604   */\n  0x00\n    /* \"#utility.yul\":4596:4611   */\n  revert\n    /* \"#utility.yul\":4623:4943   */\ntag_14:\n    /* \"#utility.yul\":4667:4673   */\n  0x00\n    /* \"#utility.yul\":4704:4705   */\n  0x02\n    /* \"#utility.yul\":4698:4702   */\n  dup3\n    /* \"#utility.yul\":4694:4706   */\n  div\n    /* \"#utility.yul\":4684:4706   */\n  swap1\n  pop\n    /* \"#utility.yul\":4751:4752   */\n  0x01\n    /* \"#utility.yul\":4745:4749   */\n  dup3\n    /* \"#utility.yul\":4741:4753   */\n  and\n    /* \"#utility.yul\":4772:4790   */\n  dup1\n    /* \"#utility.yul\":4762:4843   */\n  tag_97\n  jumpi\n    /* \"#utility.yul\":4828:4832   */\n  0x7f\n    /* \"#utility.yul\":4820:4826   */\n  dup3\n    /* \"#utility.yul\":4816:4833   */\n  and\n    /* \"#utility.yul\":4806:4833   */\n  swap2\n  pop\n    /* \"#utility.yul\":4762:4843   */\ntag_97:\n    /* \"#utility.yul\":4890:4892   */\n  0x20\n    /* \"#utility.yul\":4882:4888   */\n  dup3\n    /* \"#utility.yul\":4879:4893   */\n  lt\n    /* \"#utility.yul\":4859:4877   */\n  dup2\n    /* \"#utility.yul\":4856:4894   */\n  sub\n    /* \"#utility.yul\":4853:4937   */\n  tag_98\n  jumpi\n    /* \"#utility.yul\":4909:4927   */\n  tag_99\n  tag_41\n  jump\t// in\ntag_99:\n    /* \"#utility.yul\":4853:4937   */\ntag_98:\n    /* \"#utility.yul\":4674:4943   */\n  pop\n    /* \"#utility.yul\":4623:4943   */\n  swap2\n  swap1\n  pop\n  jump\t// out\n    /* \"E-timetable.sol\":9970:12925  contract Group{... */\ntag_12:\n  dataSize(sub_0)\n  dup1\n  dataOffset(sub_0)\n  0x00\n  codecopy\n  0x00\n  return\nstop\n\nsub_0: assembly {\n        /* \"E-timetable.sol\":9970:12925  contract Group{... */\n      mstore(0x40, 0x80)\n      callvalue\n      dup1\n      iszero\n      tag_1\n      jumpi\n      0x00\n      dup1\n      revert\n    tag_1:\n      pop\n      jumpi(tag_2, lt(calldatasize, 0x04))\n      shr(0xe0, calldataload(0x00))\n      dup1\n      0x9a8bf4e0\n      gt\n      tag_11\n      jumpi\n      dup1\n      0x9a8bf4e0\n      eq\n      tag_7\n      jumpi\n      dup1\n      0x9eab5253\n      eq\n      tag_8\n      jumpi\n      dup1\n      0xa3fbbaae\n      eq\n      tag_9\n      jumpi\n      dup1\n      0xae026d95\n      eq\n      tag_10\n      jumpi\n      jump(tag_2)\n    tag_11:\n      dup1\n      0x1b760719\n      eq\n      tag_3\n      jumpi\n      dup1\n      0x481c6a75\n      eq\n      tag_4\n      jumpi\n      dup1\n      0x7debf5c6\n      eq\n      tag_5\n      jumpi\n      dup1\n      0x843c608d\n      eq\n      tag_6\n      jumpi\n    tag_2:\n      0x00\n      dup1\n      revert\n        /* \"E-timetable.sol\":10828:11085  function addMember(address memberAddress, string memory name, uint permission) public adminRestricted{... */\n    tag_3:\n      tag_12\n      0x04\n      dup1\n      calldatasize\n      sub\n      dup2\n      add\n      swap1\n      tag_13\n      swap2\n      swap1\n      tag_14\n      jump\t// in\n    tag_13:\n      tag_15\n      jump\t// in\n    tag_12:\n      stop\n        /* \"E-timetable.sol\":10148:10170  address public manager */\n    tag_4:\n      tag_16\n      tag_17\n      jump\t// in\n    tag_16:\n      mload(0x40)\n      tag_18\n      swap2\n      swap1\n      tag_19\n      jump\t// in\n    tag_18:\n      mload(0x40)\n      dup1\n      swap2\n      sub\n      swap1\n      return\n        /* \"E-timetable.sol\":11686:11908  function updateMember(address memberAddress, string memory name, uint permission) public adminRestricted{... */\n    tag_5:\n      tag_20\n      0x04\n      dup1\n      calldatasize\n      sub\n      dup2\n      add\n      swap1\n      tag_21\n      swap2\n      swap1\n      tag_14\n      jump\t// in\n    tag_21:\n      tag_22\n      jump\t// in\n    tag_20:\n      stop\n        /* \"E-timetable.sol\":12287:12395  function getGroupName() public view viewRestricted returns(string memory){... */\n    tag_6:\n      tag_23\n      tag_24\n      jump\t// in\n    tag_23:\n      mload(0x40)\n      tag_25\n      swap2\n      swap1\n      tag_26\n      jump\t// in\n    tag_25:\n      mload(0x40)\n      dup1\n      swap2\n      sub\n      swap1\n      return\n        /* \"E-timetable.sol\":11958:12256  function deleteMember(uint index, address memberAddress) public adminRestricted{... */\n    tag_7:\n      tag_27\n      0x04\n      dup1\n      calldatasize\n      sub\n      dup2\n      add\n      swap1\n      tag_28\n      swap2\n      swap1\n      tag_29\n      jump\t// in\n    tag_28:\n      tag_30\n      jump\t// in\n    tag_27:\n      stop\n        /* \"E-timetable.sol\":11117:11644  function getMembers() public view viewRestricted returns(address[] memory membersAddress, string[] memory names, uint[] memory permissions){... */\n    tag_8:\n      tag_31\n      tag_32\n      jump\t// in\n    tag_31:\n      mload(0x40)\n      tag_33\n      swap4\n      swap3\n      swap2\n      swap1\n      tag_34\n      jump\t// in\n    tag_33:\n      mload(0x40)\n      dup1\n      swap2\n      sub\n      swap1\n      return\n        /* \"E-timetable.sol\":12573:12922  function changeManager(address newManager) public{... */\n    tag_9:\n      tag_35\n      0x04\n      dup1\n      calldatasize\n      sub\n      dup2\n      add\n      swap1\n      tag_36\n      swap2\n      swap1\n      tag_37\n      jump\t// in\n    tag_36:\n      tag_38\n      jump\t// in\n    tag_35:\n      stop\n        /* \"E-timetable.sol\":12429:12531  function updateGroupName(string memory name) public adminRestricted{... */\n    tag_10:\n      tag_39\n      0x04\n      dup1\n      calldatasize\n      sub\n      dup2\n      add\n      swap1\n      tag_40\n      swap2\n      swap1\n      tag_41\n      jump\t// in\n    tag_40:\n      tag_42\n      jump\t// in\n    tag_39:\n      stop\n        /* \"E-timetable.sol\":10828:11085  function addMember(address memberAddress, string memory name, uint permission) public adminRestricted{... */\n    tag_15:\n        /* \"E-timetable.sol\":10367:10383  Permission.ADMIN */\n      0x02\n        /* \"E-timetable.sol\":10335:10383  memberPermission[msg.sender] >= Permission.ADMIN */\n      dup1\n      dup2\n      gt\n      iszero\n      tag_44\n      jumpi\n      tag_45\n      tag_46\n      jump\t// in\n    tag_45:\n    tag_44:\n        /* \"E-timetable.sol\":10335:10351  memberPermission */\n      0x03\n        /* \"E-timetable.sol\":10335:10363  memberPermission[msg.sender] */\n      0x00\n        /* \"E-timetable.sol\":10352:10362  msg.sender */\n      caller\n        /* \"E-timetable.sol\":10335:10363  memberPermission[msg.sender] */\n      0xffffffffffffffffffffffffffffffffffffffff\n      and\n      0xffffffffffffffffffffffffffffffffffffffff\n      and\n      dup2\n      mstore\n      0x20\n      add\n      swap1\n      dup2\n      mstore\n      0x20\n      add\n      0x00\n      keccak256\n      0x00\n      swap1\n      sload\n      swap1\n      0x0100\n      exp\n      swap1\n      div\n      0xff\n      and\n        /* \"E-timetable.sol\":10335:10383  memberPermission[msg.sender] >= Permission.ADMIN */\n      0x02\n      dup2\n      gt\n      iszero\n      tag_47\n      jumpi\n      tag_48\n      tag_46\n      jump\t// in\n    tag_48:\n    tag_47:\n      lt\n      iszero\n        /* \"E-timetable.sol\":10327:10384  require(memberPermission[msg.sender] >= Permission.ADMIN) */\n      tag_49\n      jumpi\n      0x00\n      dup1\n      revert\n    tag_49:\n        /* \"E-timetable.sol\":10940:10947  members */\n      0x01\n        /* \"E-timetable.sol\":10953:10966  memberAddress */\n      dup4\n        /* \"E-timetable.sol\":10940:10967  members.push(memberAddress) */\n      swap1\n      dup1\n      0x01\n      dup2\n      sload\n      add\n      dup1\n      dup3\n      sstore\n      dup1\n      swap2\n      pop\n      pop\n      0x01\n      swap1\n      sub\n      swap1\n      0x00\n      mstore\n      keccak256(0x00, 0x20)\n      add\n      0x00\n      swap1\n      swap2\n      swap1\n      swap2\n      swap1\n      swap2\n      0x0100\n      exp\n      dup2\n      sload\n      dup2\n      0xffffffffffffffffffffffffffffffffffffffff\n      mul\n      not\n      and\n      swap1\n      dup4\n      0xffffffffffffffffffffffffffffffffffffffff\n      and\n      mul\n      or\n      swap1\n      sstore\n      pop\n        /* \"E-timetable.sol\":11023:11033  permission */\n      dup1\n        /* \"E-timetable.sol\":11012:11034  Permission(permission) */\n      0x02\n      dup2\n      gt\n      iszero\n      tag_52\n      jumpi\n      tag_53\n      tag_46\n      jump\t// in\n    tag_53:\n    tag_52:\n        /* \"E-timetable.sol\":10978:10994  memberPermission */\n      0x03\n        /* \"E-timetable.sol\":10978:11009  memberPermission[memberAddress] */\n      0x00\n        /* \"E-timetable.sol\":10995:11008  memberAddress */\n      dup6\n        /* \"E-timetable.sol\":10978:11009  memberPermission[memberAddress] */\n      0xffffffffffffffffffffffffffffffffffffffff\n      and\n      0xffffffffffffffffffffffffffffffffffffffff\n      and\n      dup2\n      mstore\n      0x20\n      add\n      swap1\n      dup2\n      mstore\n      0x20\n      add\n      0x00\n      keccak256\n      0x00\n        /* \"E-timetable.sol\":10978:11034  memberPermission[memberAddress] = Permission(permission) */\n      0x0100\n      exp\n      dup2\n      sload\n      dup2\n      0xff\n      mul\n      not\n      and\n      swap1\n      dup4\n      0x02\n      dup2\n      gt\n      iszero\n      tag_54\n      jumpi\n      tag_55\n      tag_46\n      jump\t// in\n    tag_55:\n    tag_54:\n      mul\n      or\n      swap1\n      sstore\n      pop\n        /* \"E-timetable.sol\":11073:11077  name */\n      dup2\n        /* \"E-timetable.sol\":11045:11055  memberName */\n      0x04\n        /* \"E-timetable.sol\":11045:11070  memberName[memberAddress] */\n      0x00\n        /* \"E-timetable.sol\":11056:11069  memberAddress */\n      dup6\n        /* \"E-timetable.sol\":11045:11070  memberName[memberAddress] */\n      0xffffffffffffffffffffffffffffffffffffffff\n      and\n      0xffffffffffffffffffffffffffffffffffffffff\n      and\n      dup2\n      mstore\n      0x20\n      add\n      swap1\n      dup2\n      mstore\n      0x20\n      add\n      0x00\n      keccak256\n        /* \"E-timetable.sol\":11045:11077  memberName[memberAddress] = name */\n      swap1\n      dup1\n      mload\n      swap1\n      0x20\n      add\n      swap1\n      tag_56\n      swap3\n      swap2\n      swap1\n      tag_57\n      jump\t// in\n    tag_56:\n      pop\n        /* \"E-timetable.sol\":10828:11085  function addMember(address memberAddress, string memory name, uint permission) public adminRestricted{... */\n      pop\n      pop\n      pop\n      jump\t// out\n        /* \"E-timetable.sol\":10148:10170  address public manager */\n    tag_17:\n      0x02\n      0x00\n      swap1\n      sload\n      swap1\n      0x0100\n      exp\n      swap1\n      div\n      0xffffffffffffffffffffffffffffffffffffffff\n      and\n      dup2\n      jump\t// out\n        /* \"E-timetable.sol\":11686:11908  function updateMember(address memberAddress, string memory name, uint permission) public adminRestricted{... */\n    tag_22:\n        /* \"E-timetable.sol\":10367:10383  Permission.ADMIN */\n      0x02\n        /* \"E-timetable.sol\":10335:10383  memberPermission[msg.sender] >= Permission.ADMIN */\n      dup1\n      dup2\n      gt\n      iszero\n      tag_59\n      jumpi\n      tag_60\n      tag_46\n      jump\t// in\n    tag_60:\n    tag_59:\n        /* \"E-timetable.sol\":10335:10351  memberPermission */\n      0x03\n        /* \"E-timetable.sol\":10335:10363  memberPermission[msg.sender] */\n      0x00\n        /* \"E-timetable.sol\":10352:10362  msg.sender */\n      caller\n        /* \"E-timetable.sol\":10335:10363  memberPermission[msg.sender] */\n      0xffffffffffffffffffffffffffffffffffffffff\n      and\n      0xffffffffffffffffffffffffffffffffffffffff\n      and\n      dup2\n      mstore\n      0x20\n      add\n      swap1\n      dup2\n      mstore\n      0x20\n      add\n      0x00\n      keccak256\n      0x00\n      swap1\n      sload\n      swap1\n      0x0100\n      exp\n      swap1\n      div\n      0xff\n      and\n        /* \"E-timetable.sol\":10335:10383  memberPermission[msg.sender] >= Permission.ADMIN */\n      0x02\n      dup2\n      gt\n      iszero\n      tag_61\n      jumpi\n      tag_62\n      tag_46\n      jump\t// in\n    tag_62:\n    tag_61:\n      lt\n      iszero\n        /* \"E-timetable.sol\":10327:10384  require(memberPermission[msg.sender] >= Permission.ADMIN) */\n      tag_63\n      jumpi\n      0x00\n      dup1\n      revert\n    tag_63:\n        /* \"E-timetable.sol\":11829:11833  name */\n      dup2\n        /* \"E-timetable.sol\":11801:11811  memberName */\n      0x04\n        /* \"E-timetable.sol\":11801:11826  memberName[memberAddress] */\n      0x00\n        /* \"E-timetable.sol\":11812:11825  memberAddress */\n      dup6\n        /* \"E-timetable.sol\":11801:11826  memberName[memberAddress] */\n      0xffffffffffffffffffffffffffffffffffffffff\n      and\n      0xffffffffffffffffffffffffffffffffffffffff\n      and\n      dup2\n      mstore\n      0x20\n      add\n      swap1\n      dup2\n      mstore\n      0x20\n      add\n      0x00\n      keccak256\n        /* \"E-timetable.sol\":11801:11833  memberName[memberAddress] = name */\n      swap1\n      dup1\n      mload\n      swap1\n      0x20\n      add\n      swap1\n      tag_65\n      swap3\n      swap2\n      swap1\n      tag_57\n      jump\t// in\n    tag_65:\n      pop\n        /* \"E-timetable.sol\":11889:11899  permission */\n      dup1\n        /* \"E-timetable.sol\":11878:11900  Permission(permission) */\n      0x02\n      dup2\n      gt\n      iszero\n      tag_66\n      jumpi\n      tag_67\n      tag_46\n      jump\t// in\n    tag_67:\n    tag_66:\n        /* \"E-timetable.sol\":11844:11860  memberPermission */\n      0x03\n        /* \"E-timetable.sol\":11844:11875  memberPermission[memberAddress] */\n      0x00\n        /* \"E-timetable.sol\":11861:11874  memberAddress */\n      dup6\n        /* \"E-timetable.sol\":11844:11875  memberPermission[memberAddress] */\n      0xffffffffffffffffffffffffffffffffffffffff\n      and\n      0xffffffffffffffffffffffffffffffffffffffff\n      and\n      dup2\n      mstore\n      0x20\n      add\n      swap1\n      dup2\n      mstore\n      0x20\n      add\n      0x00\n      keccak256\n      0x00\n        /* \"E-timetable.sol\":11844:11900  memberPermission[memberAddress] = Permission(permission) */\n      0x0100\n      exp\n      dup2\n      sload\n      dup2\n      0xff\n      mul\n      not\n      and\n      swap1\n      dup4\n      0x02\n      dup2\n      gt\n      iszero\n      tag_68\n      jumpi\n      tag_69\n      tag_46\n      jump\t// in\n    tag_69:\n    tag_68:\n      mul\n      or\n      swap1\n      sstore\n      pop\n        /* \"E-timetable.sol\":11686:11908  function updateMember(address memberAddress, string memory name, uint permission) public adminRestricted{... */\n      pop\n      pop\n      pop\n      jump\t// out\n        /* \"E-timetable.sol\":12287:12395  function getGroupName() public view viewRestricted returns(string memory){... */\n    tag_24:\n        /* \"E-timetable.sol\":12346:12359  string memory */\n      0x60\n        /* \"E-timetable.sol\":10488:10503  Permission.VIEW */\n      0x01\n        /* \"E-timetable.sol\":10456:10503  memberPermission[msg.sender] >= Permission.VIEW */\n      0x02\n      dup2\n      gt\n      iszero\n      tag_71\n      jumpi\n      tag_72\n      tag_46\n      jump\t// in\n    tag_72:\n    tag_71:\n        /* \"E-timetable.sol\":10456:10472  memberPermission */\n      0x03\n        /* \"E-timetable.sol\":10456:10484  memberPermission[msg.sender] */\n      0x00\n        /* \"E-timetable.sol\":10473:10483  msg.sender */\n      caller\n        /* \"E-timetable.sol\":10456:10484  memberPermission[msg.sender] */\n      0xffffffffffffffffffffffffffffffffffffffff\n      and\n      0xffffffffffffffffffffffffffffffffffffffff\n      and\n      dup2\n      mstore\n      0x20\n      add\n      swap1\n      dup2\n      mstore\n      0x20\n      add\n      0x00\n      keccak256\n      0x00\n      swap1\n      sload\n      swap1\n      0x0100\n      exp\n      swap1\n      div\n      0xff\n      and\n        /* \"E-timetable.sol\":10456:10503  memberPermission[msg.sender] >= Permission.VIEW */\n      0x02\n      dup2\n      gt\n      iszero\n      tag_73\n      jumpi\n      tag_74\n      tag_46\n      jump\t// in\n    tag_74:\n    tag_73:\n      lt\n      iszero\n        /* \"E-timetable.sol\":10448:10504  require(memberPermission[msg.sender] >= Permission.VIEW) */\n      tag_75\n      jumpi\n      0x00\n      dup1\n      revert\n    tag_75:\n        /* \"E-timetable.sol\":12378:12387  groupName */\n      0x00\n        /* \"E-timetable.sol\":12371:12387  return groupName */\n      dup1\n      sload\n      tag_77\n      swap1\n      tag_78\n      jump\t// in\n    tag_77:\n      dup1\n      0x1f\n      add\n      0x20\n      dup1\n      swap2\n      div\n      mul\n      0x20\n      add\n      mload(0x40)\n      swap1\n      dup2\n      add\n      0x40\n      mstore\n      dup1\n      swap3\n      swap2\n      swap1\n      dup2\n      dup2\n      mstore\n      0x20\n      add\n      dup3\n      dup1\n      sload\n      tag_79\n      swap1\n      tag_78\n      jump\t// in\n    tag_79:\n      dup1\n      iszero\n      tag_80\n      jumpi\n      dup1\n      0x1f\n      lt\n      tag_81\n      jumpi\n      0x0100\n      dup1\n      dup4\n      sload\n      div\n      mul\n      dup4\n      mstore\n      swap2\n      0x20\n      add\n      swap2\n      jump(tag_80)\n    tag_81:\n      dup3\n      add\n      swap2\n      swap1\n      0x00\n      mstore\n      keccak256(0x00, 0x20)\n      swap1\n    tag_82:\n      dup2\n      sload\n      dup2\n      mstore\n      swap1\n      0x01\n      add\n      swap1\n      0x20\n      add\n      dup1\n      dup4\n      gt\n      tag_82\n      jumpi\n      dup3\n      swap1\n      sub\n      0x1f\n      and\n      dup3\n      add\n      swap2\n    tag_80:\n      pop\n      pop\n      pop\n      pop\n      pop\n      swap1\n      pop\n        /* \"E-timetable.sol\":12287:12395  function getGroupName() public view viewRestricted returns(string memory){... */\n      swap1\n      jump\t// out\n        /* \"E-timetable.sol\":11958:12256  function deleteMember(uint index, address memberAddress) public adminRestricted{... */\n    tag_30:\n        /* \"E-timetable.sol\":10367:10383  Permission.ADMIN */\n      0x02\n        /* \"E-timetable.sol\":10335:10383  memberPermission[msg.sender] >= Permission.ADMIN */\n      dup1\n      dup2\n      gt\n      iszero\n      tag_84\n      jumpi\n      tag_85\n      tag_46\n      jump\t// in\n    tag_85:\n    tag_84:\n        /* \"E-timetable.sol\":10335:10351  memberPermission */\n      0x03\n        /* \"E-timetable.sol\":10335:10363  memberPermission[msg.sender] */\n      0x00\n        /* \"E-timetable.sol\":10352:10362  msg.sender */\n      caller\n        /* \"E-timetable.sol\":10335:10363  memberPermission[msg.sender] */\n      0xffffffffffffffffffffffffffffffffffffffff\n      and\n      0xffffffffffffffffffffffffffffffffffffffff\n      and\n      dup2\n      mstore\n      0x20\n      add\n      swap1\n      dup2\n      mstore\n      0x20\n      add\n      0x00\n      keccak256\n      0x00\n      swap1\n      sload\n      swap1\n      0x0100\n      exp\n      swap1\n      div\n      0xff\n      and\n        /* \"E-timetable.sol\":10335:10383  memberPermission[msg.sender] >= Permission.ADMIN */\n      0x02\n      dup2\n      gt\n      iszero\n      tag_86\n      jumpi\n      tag_87\n      tag_46\n      jump\t// in\n    tag_87:\n    tag_86:\n      lt\n      iszero\n        /* \"E-timetable.sol\":10327:10384  require(memberPermission[msg.sender] >= Permission.ADMIN) */\n      tag_88\n      jumpi\n      0x00\n      dup1\n      revert\n    tag_88:\n        /* \"E-timetable.sol\":12097:12113  memberPermission */\n      0x03\n        /* \"E-timetable.sol\":12097:12128  memberPermission[memberAddress] */\n      0x00\n        /* \"E-timetable.sol\":12114:12127  memberAddress */\n      dup3\n        /* \"E-timetable.sol\":12097:12128  memberPermission[memberAddress] */\n      0xffffffffffffffffffffffffffffffffffffffff\n      and\n      0xffffffffffffffffffffffffffffffffffffffff\n      and\n      dup2\n      mstore\n      0x20\n      add\n      swap1\n      dup2\n      mstore\n      0x20\n      add\n      0x00\n      keccak256\n      0x00\n        /* \"E-timetable.sol\":12090:12128  delete memberPermission[memberAddress] */\n      0x0100\n      exp\n      dup2\n      sload\n      swap1\n      0xff\n      mul\n      not\n      and\n      swap1\n      sstore\n        /* \"E-timetable.sol\":12146:12156  memberName */\n      0x04\n        /* \"E-timetable.sol\":12146:12171  memberName[memberAddress] */\n      0x00\n        /* \"E-timetable.sol\":12157:12170  memberAddress */\n      dup3\n        /* \"E-timetable.sol\":12146:12171  memberName[memberAddress] */\n      0xffffffffffffffffffffffffffffffffffffffff\n      and\n      0xffffffffffffffffffffffffffffffffffffffff\n      and\n      dup2\n      mstore\n      0x20\n      add\n      swap1\n      dup2\n      mstore\n      0x20\n      add\n      0x00\n      keccak256\n      0x00\n        /* \"E-timetable.sol\":12139:12171  delete memberName[memberAddress] */\n      tag_90\n      swap2\n      swap1\n      tag_91\n      jump\t// in\n    tag_90:\n        /* \"E-timetable.sol\":12199:12206  members */\n      0x01\n        /* \"E-timetable.sol\":12222:12223  1 */\n      dup1\n        /* \"E-timetable.sol\":12207:12214  members */\n      dup1\n        /* \"E-timetable.sol\":12207:12221  members.length */\n      dup1\n      sload\n      swap1\n      pop\n        /* \"E-timetable.sol\":12207:12223  members.length-1 */\n      tag_92\n      swap2\n      swap1\n      tag_93\n      jump\t// in\n    tag_92:\n        /* \"E-timetable.sol\":12199:12224  members[members.length-1] */\n      dup2\n      sload\n      dup2\n      lt\n      tag_94\n      jumpi\n      tag_95\n      tag_96\n      jump\t// in\n    tag_95:\n    tag_94:\n      swap1\n      0x00\n      mstore\n      keccak256(0x00, 0x20)\n      add\n      0x00\n      swap1\n      sload\n      swap1\n      0x0100\n      exp\n      swap1\n      div\n      0xffffffffffffffffffffffffffffffffffffffff\n      and\n        /* \"E-timetable.sol\":12182:12189  members */\n      0x01\n        /* \"E-timetable.sol\":12190:12195  index */\n      dup4\n        /* \"E-timetable.sol\":12182:12196  members[index] */\n      dup2\n      sload\n      dup2\n      lt\n      tag_98\n      jumpi\n      tag_99\n      tag_96\n      jump\t// in\n    tag_99:\n    tag_98:\n      swap1\n      0x00\n      mstore\n      keccak256(0x00, 0x20)\n      add\n      0x00\n        /* \"E-timetable.sol\":12182:12224  members[index] = members[members.length-1] */\n      0x0100\n      exp\n      dup2\n      sload\n      dup2\n      0xffffffffffffffffffffffffffffffffffffffff\n      mul\n      not\n      and\n      swap1\n      dup4\n      0xffffffffffffffffffffffffffffffffffffffff\n      and\n      mul\n      or\n      swap1\n      sstore\n      pop\n        /* \"E-timetable.sol\":12235:12242  members */\n      0x01\n        /* \"E-timetable.sol\":12235:12248  members.pop() */\n      dup1\n      sload\n      dup1\n      tag_101\n      jumpi\n      tag_102\n      tag_103\n      jump\t// in\n    tag_102:\n    tag_101:\n      0x01\n      swap1\n      sub\n      dup2\n      dup2\n      swap1\n      0x00\n      mstore\n      keccak256(0x00, 0x20)\n      add\n      exp(0x0100, 0x00)\n      dup2\n      sload\n      swap1\n      0xffffffffffffffffffffffffffffffffffffffff\n      mul\n      not\n      and\n      swap1\n      sstore\n      swap1\n      sstore\n        /* \"E-timetable.sol\":11958:12256  function deleteMember(uint index, address memberAddress) public adminRestricted{... */\n      pop\n      pop\n      jump\t// out\n        /* \"E-timetable.sol\":11117:11644  function getMembers() public view viewRestricted returns(address[] memory membersAddress, string[] memory names, uint[] memory permissions){... */\n    tag_32:\n        /* \"E-timetable.sol\":11174:11205  address[] memory membersAddress */\n      0x60\n        /* \"E-timetable.sol\":11207:11228  string[] memory names */\n      dup1\n        /* \"E-timetable.sol\":11230:11255  uint[] memory permissions */\n      0x60\n        /* \"E-timetable.sol\":10488:10503  Permission.VIEW */\n      0x01\n        /* \"E-timetable.sol\":10456:10503  memberPermission[msg.sender] >= Permission.VIEW */\n      0x02\n      dup2\n      gt\n      iszero\n      tag_106\n      jumpi\n      tag_107\n      tag_46\n      jump\t// in\n    tag_107:\n    tag_106:\n        /* \"E-timetable.sol\":10456:10472  memberPermission */\n      0x03\n        /* \"E-timetable.sol\":10456:10484  memberPermission[msg.sender] */\n      0x00\n        /* \"E-timetable.sol\":10473:10483  msg.sender */\n      caller\n        /* \"E-timetable.sol\":10456:10484  memberPermission[msg.sender] */\n      0xffffffffffffffffffffffffffffffffffffffff\n      and\n      0xffffffffffffffffffffffffffffffffffffffff\n      and\n      dup2\n      mstore\n      0x20\n      add\n      swap1\n      dup2\n      mstore\n      0x20\n      add\n      0x00\n      keccak256\n      0x00\n      swap1\n      sload\n      swap1\n      0x0100\n      exp\n      swap1\n      div\n      0xff\n      and\n        /* \"E-timetable.sol\":10456:10503  memberPermission[msg.sender] >= Permission.VIEW */\n      0x02\n      dup2\n      gt\n      iszero\n      tag_108\n      jumpi\n      tag_109\n      tag_46\n      jump\t// in\n    tag_109:\n    tag_108:\n      lt\n      iszero\n        /* \"E-timetable.sol\":10448:10504  require(memberPermission[msg.sender] >= Permission.VIEW) */\n      tag_110\n      jumpi\n      0x00\n      dup1\n      revert\n    tag_110:\n        /* \"E-timetable.sol\":11301:11310  uint size */\n      0x00\n        /* \"E-timetable.sol\":11313:11320  members */\n      0x01\n        /* \"E-timetable.sol\":11313:11327  members.length */\n      dup1\n      sload\n      swap1\n      pop\n        /* \"E-timetable.sol\":11301:11327  uint size = members.length */\n      swap1\n      pop\n        /* \"E-timetable.sol\":11355:11362  members */\n      0x01\n        /* \"E-timetable.sol\":11338:11362  membersAddress = members */\n      dup1\n      sload\n      dup1\n      0x20\n      mul\n      0x20\n      add\n      mload(0x40)\n      swap1\n      dup2\n      add\n      0x40\n      mstore\n      dup1\n      swap3\n      swap2\n      swap1\n      dup2\n      dup2\n      mstore\n      0x20\n      add\n      dup3\n      dup1\n      sload\n      dup1\n      iszero\n      tag_112\n      jumpi\n      0x20\n      mul\n      dup3\n      add\n      swap2\n      swap1\n      0x00\n      mstore\n      keccak256(0x00, 0x20)\n      swap1\n    tag_113:\n      dup2\n      0x00\n      swap1\n      sload\n      swap1\n      0x0100\n      exp\n      swap1\n      div\n      0xffffffffffffffffffffffffffffffffffffffff\n      and\n      0xffffffffffffffffffffffffffffffffffffffff\n      and\n      dup2\n      mstore\n      0x20\n      add\n      swap1\n      0x01\n      add\n      swap1\n      dup1\n      dup4\n      gt\n      tag_113\n      jumpi\n    tag_112:\n      pop\n      pop\n      pop\n      pop\n      pop\n      swap4\n      pop\n        /* \"E-timetable.sol\":11394:11398  size */\n      dup1\n        /* \"E-timetable.sol\":11381:11399  new string[](size) */\n      0xffffffffffffffff\n      dup2\n      gt\n      iszero\n      tag_114\n      jumpi\n      tag_115\n      tag_116\n      jump\t// in\n    tag_115:\n    tag_114:\n      mload(0x40)\n      swap1\n      dup1\n      dup3\n      mstore\n      dup1\n      0x20\n      mul\n      0x20\n      add\n      dup3\n      add\n      0x40\n      mstore\n      dup1\n      iszero\n      tag_117\n      jumpi\n      dup2\n      0x20\n      add\n    tag_118:\n      0x60\n      dup2\n      mstore\n      0x20\n      add\n      swap1\n      0x01\n      swap1\n      sub\n      swap1\n      dup2\n      tag_118\n      jumpi\n      swap1\n      pop\n    tag_117:\n      pop\n        /* \"E-timetable.sol\":11373:11399  names = new string[](size) */\n      swap3\n      pop\n        /* \"E-timetable.sol\":11435:11439  size */\n      dup1\n        /* \"E-timetable.sol\":11424:11440  new uint[](size) */\n      0xffffffffffffffff\n      dup2\n      gt\n      iszero\n      tag_119\n      jumpi\n      tag_120\n      tag_116\n      jump\t// in\n    tag_120:\n    tag_119:\n      mload(0x40)\n      swap1\n      dup1\n      dup3\n      mstore\n      dup1\n      0x20\n      mul\n      0x20\n      add\n      dup3\n      add\n      0x40\n      mstore\n      dup1\n      iszero\n      tag_121\n      jumpi\n      dup2\n      0x20\n      add\n      0x20\n      dup3\n      mul\n      dup1\n      calldatasize\n      dup4\n      calldatacopy\n      dup1\n      dup3\n      add\n      swap2\n      pop\n      pop\n      swap1\n      pop\n    tag_121:\n      pop\n        /* \"E-timetable.sol\":11410:11440  permissions = new uint[](size) */\n      swap2\n      pop\n        /* \"E-timetable.sol\":11491:11497  uint i */\n      0x00\n        /* \"E-timetable.sol\":11487:11637  for(uint i=0;i<size;i++){... */\n    tag_122:\n        /* \"E-timetable.sol\":11502:11506  size */\n      dup2\n        /* \"E-timetable.sol\":11500:11501  i */\n      dup2\n        /* \"E-timetable.sol\":11500:11506  i<size */\n      lt\n        /* \"E-timetable.sol\":11487:11637  for(uint i=0;i<size;i++){... */\n      iszero\n      tag_123\n      jumpi\n        /* \"E-timetable.sol\":11537:11547  memberName */\n      0x04\n        /* \"E-timetable.sol\":11537:11559  memberName[members[i]] */\n      0x00\n        /* \"E-timetable.sol\":11548:11555  members */\n      0x01\n        /* \"E-timetable.sol\":11556:11557  i */\n      dup4\n        /* \"E-timetable.sol\":11548:11558  members[i] */\n      dup2\n      sload\n      dup2\n      lt\n      tag_125\n      jumpi\n      tag_126\n      tag_96\n      jump\t// in\n    tag_126:\n    tag_125:\n      swap1\n      0x00\n      mstore\n      keccak256(0x00, 0x20)\n      add\n      0x00\n      swap1\n      sload\n      swap1\n      0x0100\n      exp\n      swap1\n      div\n      0xffffffffffffffffffffffffffffffffffffffff\n      and\n        /* \"E-timetable.sol\":11537:11559  memberName[members[i]] */\n      0xffffffffffffffffffffffffffffffffffffffff\n      and\n      0xffffffffffffffffffffffffffffffffffffffff\n      and\n      dup2\n      mstore\n      0x20\n      add\n      swap1\n      dup2\n      mstore\n      0x20\n      add\n      0x00\n      keccak256\n        /* \"E-timetable.sol\":11526:11559  names[i] = memberName[members[i]] */\n      dup1\n      sload\n      tag_128\n      swap1\n      tag_78\n      jump\t// in\n    tag_128:\n      dup1\n      0x1f\n      add\n      0x20\n      dup1\n      swap2\n      div\n      mul\n      0x20\n      add\n      mload(0x40)\n      swap1\n      dup2\n      add\n      0x40\n      mstore\n      dup1\n      swap3\n      swap2\n      swap1\n      dup2\n      dup2\n      mstore\n      0x20\n      add\n      dup3\n      dup1\n      sload\n      tag_129\n      swap1\n      tag_78\n      jump\t// in\n    tag_129:\n      dup1\n      iszero\n      tag_130\n      jumpi\n      dup1\n      0x1f\n      lt\n      tag_131\n      jumpi\n      0x0100\n      dup1\n      dup4\n      sload\n      div\n      mul\n      dup4\n      mstore\n      swap2\n      0x20\n      add\n      swap2\n      jump(tag_130)\n    tag_131:\n      dup3\n      add\n      swap2\n      swap1\n      0x00\n      mstore\n      keccak256(0x00, 0x20)\n      swap1\n    tag_132:\n      dup2\n      sload\n      dup2\n      mstore\n      swap1\n      0x01\n      add\n      swap1\n      0x20\n      add\n      dup1\n      dup4\n      gt\n      tag_132\n      jumpi\n      dup3\n      swap1\n      sub\n      0x1f\n      and\n      dup3\n      add\n      swap2\n    tag_130:\n      pop\n      pop\n      pop\n      pop\n      pop\n        /* \"E-timetable.sol\":11526:11531  names */\n      dup5\n        /* \"E-timetable.sol\":11532:11533  i */\n      dup3\n        /* \"E-timetable.sol\":11526:11534  names[i] */\n      dup2\n      mload\n      dup2\n      lt\n      tag_133\n      jumpi\n      tag_134\n      tag_96\n      jump\t// in\n    tag_134:\n    tag_133:\n      0x20\n      mul\n      0x20\n      add\n      add\n        /* \"E-timetable.sol\":11526:11559  names[i] = memberName[members[i]] */\n      dup2\n      swap1\n      mstore\n      pop\n        /* \"E-timetable.sol\":11596:11612  memberPermission */\n      0x03\n        /* \"E-timetable.sol\":11596:11624  memberPermission[members[i]] */\n      0x00\n        /* \"E-timetable.sol\":11613:11620  members */\n      0x01\n        /* \"E-timetable.sol\":11621:11622  i */\n      dup4\n        /* \"E-timetable.sol\":11613:11623  members[i] */\n      dup2\n      sload\n      dup2\n      lt\n      tag_135\n      jumpi\n      tag_136\n      tag_96\n      jump\t// in\n    tag_136:\n    tag_135:\n      swap1\n      0x00\n      mstore\n      keccak256(0x00, 0x20)\n      add\n      0x00\n      swap1\n      sload\n      swap1\n      0x0100\n      exp\n      swap1\n      div\n      0xffffffffffffffffffffffffffffffffffffffff\n      and\n        /* \"E-timetable.sol\":11596:11624  memberPermission[members[i]] */\n      0xffffffffffffffffffffffffffffffffffffffff\n      and\n      0xffffffffffffffffffffffffffffffffffffffff\n      and\n      dup2\n      mstore\n      0x20\n      add\n      swap1\n      dup2\n      mstore\n      0x20\n      add\n      0x00\n      keccak256\n      0x00\n      swap1\n      sload\n      swap1\n      0x0100\n      exp\n      swap1\n      div\n      0xff\n      and\n        /* \"E-timetable.sol\":11591:11625  uint(memberPermission[members[i]]) */\n      0x02\n      dup2\n      gt\n      iszero\n      tag_138\n      jumpi\n      tag_139\n      tag_46\n      jump\t// in\n    tag_139:\n    tag_138:\n        /* \"E-timetable.sol\":11574:11585  permissions */\n      dup4\n        /* \"E-timetable.sol\":11586:11587  i */\n      dup3\n        /* \"E-timetable.sol\":11574:11588  permissions[i] */\n      dup2\n      mload\n      dup2\n      lt\n      tag_140\n      jumpi\n      tag_141\n      tag_96\n      jump\t// in\n    tag_141:\n    tag_140:\n      0x20\n      mul\n      0x20\n      add\n      add\n        /* \"E-timetable.sol\":11574:11625  permissions[i] = uint(memberPermission[members[i]]) */\n      dup2\n      dup2\n      mstore\n      pop\n      pop\n        /* \"E-timetable.sol\":11507:11510  i++ */\n      dup1\n      dup1\n      tag_142\n      swap1\n      tag_143\n      jump\t// in\n    tag_142:\n      swap2\n      pop\n      pop\n        /* \"E-timetable.sol\":11487:11637  for(uint i=0;i<size;i++){... */\n      jump(tag_122)\n    tag_123:\n      pop\n        /* \"E-timetable.sol\":11256:11644  {... */\n      pop\n        /* \"E-timetable.sol\":11117:11644  function getMembers() public view viewRestricted returns(address[] memory membersAddress, string[] memory names, uint[] memory permissions){... */\n      swap1\n      swap2\n      swap3\n      jump\t// out\n        /* \"E-timetable.sol\":12573:12922  function changeManager(address newManager) public{... */\n    tag_38:\n        /* \"E-timetable.sol\":12691:12698  manager */\n      0x02\n      0x00\n      swap1\n      sload\n      swap1\n      0x0100\n      exp\n      swap1\n      div\n      0xffffffffffffffffffffffffffffffffffffffff\n      and\n        /* \"E-timetable.sol\":12677:12698  msg.sender == manager */\n      0xffffffffffffffffffffffffffffffffffffffff\n      and\n        /* \"E-timetable.sol\":12677:12687  msg.sender */\n      caller\n        /* \"E-timetable.sol\":12677:12698  msg.sender == manager */\n      0xffffffffffffffffffffffffffffffffffffffff\n      and\n      eq\n        /* \"E-timetable.sol\":12669:12699  require(msg.sender == manager) */\n      tag_145\n      jumpi\n      0x00\n      dup1\n      revert\n    tag_145:\n        /* \"E-timetable.sol\":12757:12767  newManager */\n      dup1\n        /* \"E-timetable.sol\":12747:12754  manager */\n      0x02\n      0x00\n        /* \"E-timetable.sol\":12747:12767  manager = newManager */\n      0x0100\n      exp\n      dup2\n      sload\n      dup2\n      0xffffffffffffffffffffffffffffffffffffffff\n      mul\n      not\n      and\n      swap1\n      dup4\n      0xffffffffffffffffffffffffffffffffffffffff\n      and\n      mul\n      or\n      swap1\n      sstore\n      pop\n        /* \"E-timetable.sol\":12851:12867  Permission.ADMIN */\n      0x02\n        /* \"E-timetable.sol\":12820:12836  memberPermission */\n      0x03\n        /* \"E-timetable.sol\":12820:12848  memberPermission[newManager] */\n      0x00\n        /* \"E-timetable.sol\":12837:12847  newManager */\n      dup4\n        /* \"E-timetable.sol\":12820:12848  memberPermission[newManager] */\n      0xffffffffffffffffffffffffffffffffffffffff\n      and\n      0xffffffffffffffffffffffffffffffffffffffff\n      and\n      dup2\n      mstore\n      0x20\n      add\n      swap1\n      dup2\n      mstore\n      0x20\n      add\n      0x00\n      keccak256\n      0x00\n        /* \"E-timetable.sol\":12820:12867  memberPermission[newManager] = Permission.ADMIN */\n      0x0100\n      exp\n      dup2\n      sload\n      dup2\n      0xff\n      mul\n      not\n      and\n      swap1\n      dup4\n      0x02\n      dup2\n      gt\n      iszero\n      tag_146\n      jumpi\n      tag_147\n      tag_46\n      jump\t// in\n    tag_147:\n    tag_146:\n      mul\n      or\n      swap1\n      sstore\n      pop\n        /* \"E-timetable.sol\":12573:12922  function changeManager(address newManager) public{... */\n      pop\n      jump\t// out\n        /* \"E-timetable.sol\":12429:12531  function updateGroupName(string memory name) public adminRestricted{... */\n    tag_42:\n        /* \"E-timetable.sol\":10367:10383  Permission.ADMIN */\n      0x02\n        /* \"E-timetable.sol\":10335:10383  memberPermission[msg.sender] >= Permission.ADMIN */\n      dup1\n      dup2\n      gt\n      iszero\n      tag_149\n      jumpi\n      tag_150\n      tag_46\n      jump\t// in\n    tag_150:\n    tag_149:\n        /* \"E-timetable.sol\":10335:10351  memberPermission */\n      0x03\n        /* \"E-timetable.sol\":10335:10363  memberPermission[msg.sender] */\n      0x00\n        /* \"E-timetable.sol\":10352:10362  msg.sender */\n      caller\n        /* \"E-timetable.sol\":10335:10363  memberPermission[msg.sender] */\n      0xffffffffffffffffffffffffffffffffffffffff\n      and\n      0xffffffffffffffffffffffffffffffffffffffff\n      and\n      dup2\n      mstore\n      0x20\n      add\n      swap1\n      dup2\n      mstore\n      0x20\n      add\n      0x00\n      keccak256\n      0x00\n      swap1\n      sload\n      swap1\n      0x0100\n      exp\n      swap1\n      div\n      0xff\n      and\n        /* \"E-timetable.sol\":10335:10383  memberPermission[msg.sender] >= Permission.ADMIN */\n      0x02\n      dup2\n      gt\n      iszero\n      tag_151\n      jumpi\n      tag_152\n      tag_46\n      jump\t// in\n    tag_152:\n    tag_151:\n      lt\n      iszero\n        /* \"E-timetable.sol\":10327:10384  require(memberPermission[msg.sender] >= Permission.ADMIN) */\n      tag_153\n      jumpi\n      0x00\n      dup1\n      revert\n    tag_153:\n        /* \"E-timetable.sol\":12519:12523  name */\n      dup1\n        /* \"E-timetable.sol\":12507:12516  groupName */\n      0x00\n        /* \"E-timetable.sol\":12507:12523  groupName = name */\n      swap1\n      dup1\n      mload\n      swap1\n      0x20\n      add\n      swap1\n      tag_155\n      swap3\n      swap2\n      swap1\n      tag_57\n      jump\t// in\n    tag_155:\n      pop\n        /* \"E-timetable.sol\":12429:12531  function updateGroupName(string memory name) public adminRestricted{... */\n      pop\n      jump\t// out\n    tag_57:\n      dup3\n      dup1\n      sload\n      tag_156\n      swap1\n      tag_78\n      jump\t// in\n    tag_156:\n      swap1\n      0x00\n      mstore\n      keccak256(0x00, 0x20)\n      swap1\n      0x1f\n      add\n      0x20\n      swap1\n      div\n      dup2\n      add\n      swap3\n      dup3\n      tag_158\n      jumpi\n      0x00\n      dup6\n      sstore\n      jump(tag_157)\n    tag_158:\n      dup3\n      0x1f\n      lt\n      tag_159\n      jumpi\n      dup1\n      mload\n      not(0xff)\n      and\n      dup4\n      dup1\n      add\n      or\n      dup6\n      sstore\n      jump(tag_157)\n    tag_159:\n      dup3\n      dup1\n      add\n      0x01\n      add\n      dup6\n      sstore\n      dup3\n      iszero\n      tag_157\n      jumpi\n      swap2\n      dup3\n      add\n    tag_160:\n      dup3\n      dup2\n      gt\n      iszero\n      tag_161\n      jumpi\n      dup3\n      mload\n      dup3\n      sstore\n      swap2\n      0x20\n      add\n      swap2\n      swap1\n      0x01\n      add\n      swap1\n      jump(tag_160)\n    tag_161:\n    tag_157:\n      pop\n      swap1\n      pop\n      tag_162\n      swap2\n      swap1\n      tag_163\n      jump\t// in\n    tag_162:\n      pop\n      swap1\n      jump\t// out\n    tag_91:\n      pop\n      dup1\n      sload\n      tag_164\n      swap1\n      tag_78\n      jump\t// in\n    tag_164:\n      0x00\n      dup3\n      sstore\n      dup1\n      0x1f\n      lt\n      tag_166\n      jumpi\n      pop\n      jump(tag_165)\n    tag_166:\n      0x1f\n      add\n      0x20\n      swap1\n      div\n      swap1\n      0x00\n      mstore\n      keccak256(0x00, 0x20)\n      swap1\n      dup2\n      add\n      swap1\n      tag_167\n      swap2\n      swap1\n      tag_163\n      jump\t// in\n    tag_167:\n    tag_165:\n      pop\n      jump\t// out\n    tag_163:\n    tag_168:\n      dup1\n      dup3\n      gt\n      iszero\n      tag_169\n      jumpi\n      0x00\n      dup2\n      0x00\n      swap1\n      sstore\n      pop\n      0x01\n      add\n      jump(tag_168)\n    tag_169:\n      pop\n      swap1\n      jump\t// out\n        /* \"#utility.yul\":7:82   */\n    tag_170:\n        /* \"#utility.yul\":40:46   */\n      0x00\n        /* \"#utility.yul\":73:75   */\n      0x40\n        /* \"#utility.yul\":67:76   */\n      mload\n        /* \"#utility.yul\":57:76   */\n      swap1\n      pop\n        /* \"#utility.yul\":7:82   */\n      swap1\n      jump\t// out\n        /* \"#utility.yul\":88:205   */\n    tag_171:\n        /* \"#utility.yul\":197:198   */\n      0x00\n        /* \"#utility.yul\":194:195   */\n      dup1\n        /* \"#utility.yul\":187:199   */\n      revert\n        /* \"#utility.yul\":211:328   */\n    tag_172:\n        /* \"#utility.yul\":320:321   */\n      0x00\n        /* \"#utility.yul\":317:318   */\n      dup1\n        /* \"#utility.yul\":310:322   */\n      revert\n        /* \"#utility.yul\":334:460   */\n    tag_173:\n        /* \"#utility.yul\":371:378   */\n      0x00\n        /* \"#utility.yul\":411:453   */\n      0xffffffffffffffffffffffffffffffffffffffff\n        /* \"#utility.yul\":404:409   */\n      dup3\n        /* \"#utility.yul\":400:454   */\n      and\n        /* \"#utility.yul\":389:454   */\n      swap1\n      pop\n        /* \"#utility.yul\":334:460   */\n      swap2\n      swap1\n      pop\n      jump\t// out\n        /* \"#utility.yul\":466:562   */\n    tag_174:\n        /* \"#utility.yul\":503:510   */\n      0x00\n        /* \"#utility.yul\":532:556   */\n      tag_224\n        /* \"#utility.yul\":550:555   */\n      dup3\n        /* \"#utility.yul\":532:556   */\n      tag_173\n      jump\t// in\n    tag_224:\n        /* \"#utility.yul\":521:556   */\n      swap1\n      pop\n        /* \"#utility.yul\":466:562   */\n      swap2\n      swap1\n      pop\n      jump\t// out\n        /* \"#utility.yul\":568:690   */\n    tag_175:\n        /* \"#utility.yul\":641:665   */\n      tag_226\n        /* \"#utility.yul\":659:664   */\n      dup2\n        /* \"#utility.yul\":641:665   */\n      tag_174\n      jump\t// in\n    tag_226:\n        /* \"#utility.yul\":634:639   */\n      dup2\n        /* \"#utility.yul\":631:666   */\n      eq\n        /* \"#utility.yul\":621:684   */\n      tag_227\n      jumpi\n        /* \"#utility.yul\":680:681   */\n      0x00\n        /* \"#utility.yul\":677:678   */\n      dup1\n        /* \"#utility.yul\":670:682   */\n      revert\n        /* \"#utility.yul\":621:684   */\n    tag_227:\n        /* \"#utility.yul\":568:690   */\n      pop\n      jump\t// out\n        /* \"#utility.yul\":696:835   */\n    tag_176:\n        /* \"#utility.yul\":742:747   */\n      0x00\n        /* \"#utility.yul\":780:786   */\n      dup2\n        /* \"#utility.yul\":767:787   */\n      calldataload\n        /* \"#utility.yul\":758:787   */\n      swap1\n      pop\n        /* \"#utility.yul\":796:829   */\n      tag_229\n        /* \"#utility.yul\":823:828   */\n      dup2\n        /* \"#utility.yul\":796:829   */\n      tag_175\n      jump\t// in\n    tag_229:\n        /* \"#utility.yul\":696:835   */\n      swap3\n      swap2\n      pop\n      pop\n      jump\t// out\n        /* \"#utility.yul\":841:958   */\n    tag_177:\n        /* \"#utility.yul\":950:951   */\n      0x00\n        /* \"#utility.yul\":947:948   */\n      dup1\n        /* \"#utility.yul\":940:952   */\n      revert\n        /* \"#utility.yul\":964:1081   */\n    tag_178:\n        /* \"#utility.yul\":1073:1074   */\n      0x00\n        /* \"#utility.yul\":1070:1071   */\n      dup1\n        /* \"#utility.yul\":1063:1075   */\n      revert\n        /* \"#utility.yul\":1087:1189   */\n    tag_179:\n        /* \"#utility.yul\":1128:1134   */\n      0x00\n        /* \"#utility.yul\":1179:1181   */\n      0x1f\n        /* \"#utility.yul\":1175:1182   */\n      not\n        /* \"#utility.yul\":1170:1172   */\n      0x1f\n        /* \"#utility.yul\":1163:1168   */\n      dup4\n        /* \"#utility.yul\":1159:1173   */\n      add\n        /* \"#utility.yul\":1155:1183   */\n      and\n        /* \"#utility.yul\":1145:1183   */\n      swap1\n      pop\n        /* \"#utility.yul\":1087:1189   */\n      swap2\n      swap1\n      pop\n      jump\t// out\n        /* \"#utility.yul\":1195:1375   */\n    tag_116:\n        /* \"#utility.yul\":1243:1320   */\n      0x4e487b7100000000000000000000000000000000000000000000000000000000\n        /* \"#utility.yul\":1240:1241   */\n      0x00\n        /* \"#utility.yul\":1233:1321   */\n      mstore\n        /* \"#utility.yul\":1340:1344   */\n      0x41\n        /* \"#utility.yul\":1337:1338   */\n      0x04\n        /* \"#utility.yul\":1330:1345   */\n      mstore\n        /* \"#utility.yul\":1364:1368   */\n      0x24\n        /* \"#utility.yul\":1361:1362   */\n      0x00\n        /* \"#utility.yul\":1354:1369   */\n      revert\n        /* \"#utility.yul\":1381:1662   */\n    tag_180:\n        /* \"#utility.yul\":1464:1491   */\n      tag_235\n        /* \"#utility.yul\":1486:1490   */\n      dup3\n        /* \"#utility.yul\":1464:1491   */\n      tag_179\n      jump\t// in\n    tag_235:\n        /* \"#utility.yul\":1456:1462   */\n      dup2\n        /* \"#utility.yul\":1452:1492   */\n      add\n        /* \"#utility.yul\":1594:1600   */\n      dup2\n        /* \"#utility.yul\":1582:1592   */\n      dup2\n        /* \"#utility.yul\":1579:1601   */\n      lt\n        /* \"#utility.yul\":1558:1576   */\n      0xffffffffffffffff\n        /* \"#utility.yul\":1546:1556   */\n      dup3\n        /* \"#utility.yul\":1543:1577   */\n      gt\n        /* \"#utility.yul\":1540:1602   */\n      or\n        /* \"#utility.yul\":1537:1625   */\n      iszero\n      tag_236\n      jumpi\n        /* \"#utility.yul\":1605:1623   */\n      tag_237\n      tag_116\n      jump\t// in\n    tag_237:\n        /* \"#utility.yul\":1537:1625   */\n    tag_236:\n        /* \"#utility.yul\":1645:1655   */\n      dup1\n        /* \"#utility.yul\":1641:1643   */\n      0x40\n        /* \"#utility.yul\":1634:1656   */\n      mstore\n        /* \"#utility.yul\":1424:1662   */\n      pop\n        /* \"#utility.yul\":1381:1662   */\n      pop\n      pop\n      jump\t// out\n        /* \"#utility.yul\":1668:1797   */\n    tag_181:\n        /* \"#utility.yul\":1702:1708   */\n      0x00\n        /* \"#utility.yul\":1729:1749   */\n      tag_239\n      tag_170\n      jump\t// in\n    tag_239:\n        /* \"#utility.yul\":1719:1749   */\n      swap1\n      pop\n        /* \"#utility.yul\":1758:1791   */\n      tag_240\n        /* \"#utility.yul\":1786:1790   */\n      dup3\n        /* \"#utility.yul\":1778:1784   */\n      dup3\n        /* \"#utility.yul\":1758:1791   */\n      tag_180\n      jump\t// in\n    tag_240:\n        /* \"#utility.yul\":1668:1797   */\n      swap2\n      swap1\n      pop\n      jump\t// out\n        /* \"#utility.yul\":1803:2111   */\n    tag_182:\n        /* \"#utility.yul\":1865:1869   */\n      0x00\n        /* \"#utility.yul\":1955:1973   */\n      0xffffffffffffffff\n        /* \"#utility.yul\":1947:1953   */\n      dup3\n        /* \"#utility.yul\":1944:1974   */\n      gt\n        /* \"#utility.yul\":1941:1997   */\n      iszero\n      tag_242\n      jumpi\n        /* \"#utility.yul\":1977:1995   */\n      tag_243\n      tag_116\n      jump\t// in\n    tag_243:\n        /* \"#utility.yul\":1941:1997   */\n    tag_242:\n        /* \"#utility.yul\":2015:2044   */\n      tag_244\n        /* \"#utility.yul\":2037:2043   */\n      dup3\n        /* \"#utility.yul\":2015:2044   */\n      tag_179\n      jump\t// in\n    tag_244:\n        /* \"#utility.yul\":2007:2044   */\n      swap1\n      pop\n        /* \"#utility.yul\":2099:2103   */\n      0x20\n        /* \"#utility.yul\":2093:2097   */\n      dup2\n        /* \"#utility.yul\":2089:2104   */\n      add\n        /* \"#utility.yul\":2081:2104   */\n      swap1\n      pop\n        /* \"#utility.yul\":1803:2111   */\n      swap2\n      swap1\n      pop\n      jump\t// out\n        /* \"#utility.yul\":2117:2271   */\n    tag_183:\n        /* \"#utility.yul\":2201:2207   */\n      dup3\n        /* \"#utility.yul\":2196:2199   */\n      dup2\n        /* \"#utility.yul\":2191:2194   */\n      dup4\n        /* \"#utility.yul\":2178:2208   */\n      calldatacopy\n        /* \"#utility.yul\":2263:2264   */\n      0x00\n        /* \"#utility.yul\":2254:2260   */\n      dup4\n        /* \"#utility.yul\":2249:2252   */\n      dup4\n        /* \"#utility.yul\":2245:2261   */\n      add\n        /* \"#utility.yul\":2238:2265   */\n      mstore\n        /* \"#utility.yul\":2117:2271   */\n      pop\n      pop\n      pop\n      jump\t// out\n        /* \"#utility.yul\":2277:2689   */\n    tag_184:\n        /* \"#utility.yul\":2355:2360   */\n      0x00\n        /* \"#utility.yul\":2380:2446   */\n      tag_247\n        /* \"#utility.yul\":2396:2445   */\n      tag_248\n        /* \"#utility.yul\":2438:2444   */\n      dup5\n        /* \"#utility.yul\":2396:2445   */\n      tag_182\n      jump\t// in\n    tag_248:\n        /* \"#utility.yul\":2380:2446   */\n      tag_181\n      jump\t// in\n    tag_247:\n        /* \"#utility.yul\":2371:2446   */\n      swap1\n      pop\n        /* \"#utility.yul\":2469:2475   */\n      dup3\n        /* \"#utility.yul\":2462:2467   */\n      dup2\n        /* \"#utility.yul\":2455:2476   */\n      mstore\n        /* \"#utility.yul\":2507:2511   */\n      0x20\n        /* \"#utility.yul\":2500:2505   */\n      dup2\n        /* \"#utility.yul\":2496:2512   */\n      add\n        /* \"#utility.yul\":2545:2548   */\n      dup5\n        /* \"#utility.yul\":2536:2542   */\n      dup5\n        /* \"#utility.yul\":2531:2534   */\n      dup5\n        /* \"#utility.yul\":2527:2543   */\n      add\n        /* \"#utility.yul\":2524:2549   */\n      gt\n        /* \"#utility.yul\":2521:2633   */\n      iszero\n      tag_249\n      jumpi\n        /* \"#utility.yul\":2552:2631   */\n      tag_250\n      tag_178\n      jump\t// in\n    tag_250:\n        /* \"#utility.yul\":2521:2633   */\n    tag_249:\n        /* \"#utility.yul\":2642:2683   */\n      tag_251\n        /* \"#utility.yul\":2676:2682   */\n      dup5\n        /* \"#utility.yul\":2671:2674   */\n      dup3\n        /* \"#utility.yul\":2666:2669   */\n      dup6\n        /* \"#utility.yul\":2642:2683   */\n      tag_183\n      jump\t// in\n    tag_251:\n        /* \"#utility.yul\":2361:2689   */\n      pop\n        /* \"#utility.yul\":2277:2689   */\n      swap4\n      swap3\n      pop\n      pop\n      pop\n      jump\t// out\n        /* \"#utility.yul\":2709:3049   */\n    tag_185:\n        /* \"#utility.yul\":2765:2770   */\n      0x00\n        /* \"#utility.yul\":2814:2817   */\n      dup3\n        /* \"#utility.yul\":2807:2811   */\n      0x1f\n        /* \"#utility.yul\":2799:2805   */\n      dup4\n        /* \"#utility.yul\":2795:2812   */\n      add\n        /* \"#utility.yul\":2791:2818   */\n      slt\n        /* \"#utility.yul\":2781:2903   */\n      tag_253\n      jumpi\n        /* \"#utility.yul\":2822:2901   */\n      tag_254\n      tag_177\n      jump\t// in\n    tag_254:\n        /* \"#utility.yul\":2781:2903   */\n    tag_253:\n        /* \"#utility.yul\":2939:2945   */\n      dup2\n        /* \"#utility.yul\":2926:2946   */\n      calldataload\n        /* \"#utility.yul\":2964:3043   */\n      tag_255\n        /* \"#utility.yul\":3039:3042   */\n      dup5\n        /* \"#utility.yul\":3031:3037   */\n      dup3\n        /* \"#utility.yul\":3024:3028   */\n      0x20\n        /* \"#utility.yul\":3016:3022   */\n      dup7\n        /* \"#utility.yul\":3012:3029   */\n      add\n        /* \"#utility.yul\":2964:3043   */\n      tag_184\n      jump\t// in\n    tag_255:\n        /* \"#utility.yul\":2955:3043   */\n      swap2\n      pop\n        /* \"#utility.yul\":2771:3049   */\n      pop\n        /* \"#utility.yul\":2709:3049   */\n      swap3\n      swap2\n      pop\n      pop\n      jump\t// out\n        /* \"#utility.yul\":3055:3132   */\n    tag_186:\n        /* \"#utility.yul\":3092:3099   */\n      0x00\n        /* \"#utility.yul\":3121:3126   */\n      dup2\n        /* \"#utility.yul\":3110:3126   */\n      swap1\n      pop\n        /* \"#utility.yul\":3055:3132   */\n      swap2\n      swap1\n      pop\n      jump\t// out\n        /* \"#utility.yul\":3138:3260   */\n    tag_187:\n        /* \"#utility.yul\":3211:3235   */\n      tag_258\n        /* \"#utility.yul\":3229:3234   */\n      dup2\n        /* \"#utility.yul\":3211:3235   */\n      tag_186\n      jump\t// in\n    tag_258:\n        /* \"#utility.yul\":3204:3209   */\n      dup2\n        /* \"#utility.yul\":3201:3236   */\n      eq\n        /* \"#utility.yul\":3191:3254   */\n      tag_259\n      jumpi\n        /* \"#utility.yul\":3250:3251   */\n      0x00\n        /* \"#utility.yul\":3247:3248   */\n      dup1\n        /* \"#utility.yul\":3240:3252   */\n      revert\n        /* \"#utility.yul\":3191:3254   */\n    tag_259:\n        /* \"#utility.yul\":3138:3260   */\n      pop\n      jump\t// out\n        /* \"#utility.yul\":3266:3405   */\n    tag_188:\n        /* \"#utility.yul\":3312:3317   */\n      0x00\n        /* \"#utility.yul\":3350:3356   */\n      dup2\n        /* \"#utility.yul\":3337:3357   */\n      calldataload\n        /* \"#utility.yul\":3328:3357   */\n      swap1\n      pop\n        /* \"#utility.yul\":3366:3399   */\n      tag_261\n        /* \"#utility.yul\":3393:3398   */\n      dup2\n        /* \"#utility.yul\":3366:3399   */\n      tag_187\n      jump\t// in\n    tag_261:\n        /* \"#utility.yul\":3266:3405   */\n      swap3\n      swap2\n      pop\n      pop\n      jump\t// out\n        /* \"#utility.yul\":3411:4210   */\n    tag_14:\n        /* \"#utility.yul\":3498:3504   */\n      0x00\n        /* \"#utility.yul\":3506:3512   */\n      dup1\n        /* \"#utility.yul\":3514:3520   */\n      0x00\n        /* \"#utility.yul\":3563:3565   */\n      0x60\n        /* \"#utility.yul\":3551:3560   */\n      dup5\n        /* \"#utility.yul\":3542:3549   */\n      dup7\n        /* \"#utility.yul\":3538:3561   */\n      sub\n        /* \"#utility.yul\":3534:3566   */\n      slt\n        /* \"#utility.yul\":3531:3650   */\n      iszero\n      tag_263\n      jumpi\n        /* \"#utility.yul\":3569:3648   */\n      tag_264\n      tag_171\n      jump\t// in\n    tag_264:\n        /* \"#utility.yul\":3531:3650   */\n    tag_263:\n        /* \"#utility.yul\":3689:3690   */\n      0x00\n        /* \"#utility.yul\":3714:3767   */\n      tag_265\n        /* \"#utility.yul\":3759:3766   */\n      dup7\n        /* \"#utility.yul\":3750:3756   */\n      dup3\n        /* \"#utility.yul\":3739:3748   */\n      dup8\n        /* \"#utility.yul\":3735:3757   */\n      add\n        /* \"#utility.yul\":3714:3767   */\n      tag_176\n      jump\t// in\n    tag_265:\n        /* \"#utility.yul\":3704:3767   */\n      swap4\n      pop\n        /* \"#utility.yul\":3660:3777   */\n      pop\n        /* \"#utility.yul\":3844:3846   */\n      0x20\n        /* \"#utility.yul\":3833:3842   */\n      dup5\n        /* \"#utility.yul\":3829:3847   */\n      add\n        /* \"#utility.yul\":3816:3848   */\n      calldataload\n        /* \"#utility.yul\":3875:3893   */\n      0xffffffffffffffff\n        /* \"#utility.yul\":3867:3873   */\n      dup2\n        /* \"#utility.yul\":3864:3894   */\n      gt\n        /* \"#utility.yul\":3861:3978   */\n      iszero\n      tag_266\n      jumpi\n        /* \"#utility.yul\":3897:3976   */\n      tag_267\n      tag_172\n      jump\t// in\n    tag_267:\n        /* \"#utility.yul\":3861:3978   */\n    tag_266:\n        /* \"#utility.yul\":4002:4065   */\n      tag_268\n        /* \"#utility.yul\":4057:4064   */\n      dup7\n        /* \"#utility.yul\":4048:4054   */\n      dup3\n        /* \"#utility.yul\":4037:4046   */\n      dup8\n        /* \"#utility.yul\":4033:4055   */\n      add\n        /* \"#utility.yul\":4002:4065   */\n      tag_185\n      jump\t// in\n    tag_268:\n        /* \"#utility.yul\":3992:4065   */\n      swap3\n      pop\n        /* \"#utility.yul\":3787:4075   */\n      pop\n        /* \"#utility.yul\":4114:4116   */\n      0x40\n        /* \"#utility.yul\":4140:4193   */\n      tag_269\n        /* \"#utility.yul\":4185:4192   */\n      dup7\n        /* \"#utility.yul\":4176:4182   */\n      dup3\n        /* \"#utility.yul\":4165:4174   */\n      dup8\n        /* \"#utility.yul\":4161:4183   */\n      add\n        /* \"#utility.yul\":4140:4193   */\n      tag_188\n      jump\t// in\n    tag_269:\n        /* \"#utility.yul\":4130:4193   */\n      swap2\n      pop\n        /* \"#utility.yul\":4085:4203   */\n      pop\n        /* \"#utility.yul\":3411:4210   */\n      swap3\n      pop\n      swap3\n      pop\n      swap3\n      jump\t// out\n        /* \"#utility.yul\":4216:4334   */\n    tag_189:\n        /* \"#utility.yul\":4303:4327   */\n      tag_271\n        /* \"#utility.yul\":4321:4326   */\n      dup2\n        /* \"#utility.yul\":4303:4327   */\n      tag_174\n      jump\t// in\n    tag_271:\n        /* \"#utility.yul\":4298:4301   */\n      dup3\n        /* \"#utility.yul\":4291:4328   */\n      mstore\n        /* \"#utility.yul\":4216:4334   */\n      pop\n      pop\n      jump\t// out\n        /* \"#utility.yul\":4340:4562   */\n    tag_19:\n        /* \"#utility.yul\":4433:4437   */\n      0x00\n        /* \"#utility.yul\":4471:4473   */\n      0x20\n        /* \"#utility.yul\":4460:4469   */\n      dup3\n        /* \"#utility.yul\":4456:4474   */\n      add\n        /* \"#utility.yul\":4448:4474   */\n      swap1\n      pop\n        /* \"#utility.yul\":4484:4555   */\n      tag_273\n        /* \"#utility.yul\":4552:4553   */\n      0x00\n        /* \"#utility.yul\":4541:4550   */\n      dup4\n        /* \"#utility.yul\":4537:4554   */\n      add\n        /* \"#utility.yul\":4528:4534   */\n      dup5\n        /* \"#utility.yul\":4484:4555   */\n      tag_189\n      jump\t// in\n    tag_273:\n        /* \"#utility.yul\":4340:4562   */\n      swap3\n      swap2\n      pop\n      pop\n      jump\t// out\n        /* \"#utility.yul\":4568:4667   */\n    tag_190:\n        /* \"#utility.yul\":4620:4626   */\n      0x00\n        /* \"#utility.yul\":4654:4659   */\n      dup2\n        /* \"#utility.yul\":4648:4660   */\n      mload\n        /* \"#utility.yul\":4638:4660   */\n      swap1\n      pop\n        /* \"#utility.yul\":4568:4667   */\n      swap2\n      swap1\n      pop\n      jump\t// out\n        /* \"#utility.yul\":4673:4842   */\n    tag_191:\n        /* \"#utility.yul\":4757:4768   */\n      0x00\n        /* \"#utility.yul\":4791:4797   */\n      dup3\n        /* \"#utility.yul\":4786:4789   */\n      dup3\n        /* \"#utility.yul\":4779:4798   */\n      mstore\n        /* \"#utility.yul\":4831:4835   */\n      0x20\n        /* \"#utility.yul\":4826:4829   */\n      dup3\n        /* \"#utility.yul\":4822:4836   */\n      add\n        /* \"#utility.yul\":4807:4836   */\n      swap1\n      pop\n        /* \"#utility.yul\":4673:4842   */\n      swap3\n      swap2\n      pop\n      pop\n      jump\t// out\n        /* \"#utility.yul\":4848:5155   */\n    tag_192:\n        /* \"#utility.yul\":4916:4917   */\n      0x00\n        /* \"#utility.yul\":4926:5039   */\n    tag_277:\n        /* \"#utility.yul\":4940:4946   */\n      dup4\n        /* \"#utility.yul\":4937:4938   */\n      dup2\n        /* \"#utility.yul\":4934:4947   */\n      lt\n        /* \"#utility.yul\":4926:5039   */\n      iszero\n      tag_279\n      jumpi\n        /* \"#utility.yul\":5025:5026   */\n      dup1\n        /* \"#utility.yul\":5020:5023   */\n      dup3\n        /* \"#utility.yul\":5016:5027   */\n      add\n        /* \"#utility.yul\":5010:5028   */\n      mload\n        /* \"#utility.yul\":5006:5007   */\n      dup2\n        /* \"#utility.yul\":5001:5004   */\n      dup5\n        /* \"#utility.yul\":4997:5008   */\n      add\n        /* \"#utility.yul\":4990:5029   */\n      mstore\n        /* \"#utility.yul\":4962:4964   */\n      0x20\n        /* \"#utility.yul\":4959:4960   */\n      dup2\n        /* \"#utility.yul\":4955:4965   */\n      add\n        /* \"#utility.yul\":4950:4965   */\n      swap1\n      pop\n        /* \"#utility.yul\":4926:5039   */\n      jump(tag_277)\n    tag_279:\n        /* \"#utility.yul\":5057:5063   */\n      dup4\n        /* \"#utility.yul\":5054:5055   */\n      dup2\n        /* \"#utility.yul\":5051:5064   */\n      gt\n        /* \"#utility.yul\":5048:5149   */\n      iszero\n      tag_280\n      jumpi\n        /* \"#utility.yul\":5137:5138   */\n      0x00\n        /* \"#utility.yul\":5128:5134   */\n      dup5\n        /* \"#utility.yul\":5123:5126   */\n      dup5\n        /* \"#utility.yul\":5119:5135   */\n      add\n        /* \"#utility.yul\":5112:5139   */\n      mstore\n        /* \"#utility.yul\":5048:5149   */\n    tag_280:\n        /* \"#utility.yul\":4897:5155   */\n      pop\n        /* \"#utility.yul\":4848:5155   */\n      pop\n      pop\n      pop\n      jump\t// out\n        /* \"#utility.yul\":5161:5525   */\n    tag_193:\n        /* \"#utility.yul\":5249:5252   */\n      0x00\n        /* \"#utility.yul\":5277:5316   */\n      tag_282\n        /* \"#utility.yul\":5310:5315   */\n      dup3\n        /* \"#utility.yul\":5277:5316   */\n      tag_190\n      jump\t// in\n    tag_282:\n        /* \"#utility.yul\":5332:5403   */\n      tag_283\n        /* \"#utility.yul\":5396:5402   */\n      dup2\n        /* \"#utility.yul\":5391:5394   */\n      dup6\n        /* \"#utility.yul\":5332:5403   */\n      tag_191\n      jump\t// in\n    tag_283:\n        /* \"#utility.yul\":5325:5403   */\n      swap4\n      pop\n        /* \"#utility.yul\":5412:5464   */\n      tag_284\n        /* \"#utility.yul\":5457:5463   */\n      dup2\n        /* \"#utility.yul\":5452:5455   */\n      dup6\n        /* \"#utility.yul\":5445:5449   */\n      0x20\n        /* \"#utility.yul\":5438:5443   */\n      dup7\n        /* \"#utility.yul\":5434:5450   */\n      add\n        /* \"#utility.yul\":5412:5464   */\n      tag_192\n      jump\t// in\n    tag_284:\n        /* \"#utility.yul\":5489:5518   */\n      tag_285\n        /* \"#utility.yul\":5511:5517   */\n      dup2\n        /* \"#utility.yul\":5489:5518   */\n      tag_179\n      jump\t// in\n    tag_285:\n        /* \"#utility.yul\":5484:5487   */\n      dup5\n        /* \"#utility.yul\":5480:5519   */\n      add\n        /* \"#utility.yul\":5473:5519   */\n      swap2\n      pop\n        /* \"#utility.yul\":5253:5525   */\n      pop\n        /* \"#utility.yul\":5161:5525   */\n      swap3\n      swap2\n      pop\n      pop\n      jump\t// out\n        /* \"#utility.yul\":5531:5844   */\n    tag_26:\n        /* \"#utility.yul\":5644:5648   */\n      0x00\n        /* \"#utility.yul\":5682:5684   */\n      0x20\n        /* \"#utility.yul\":5671:5680   */\n      dup3\n        /* \"#utility.yul\":5667:5685   */\n      add\n        /* \"#utility.yul\":5659:5685   */\n      swap1\n      pop\n        /* \"#utility.yul\":5731:5740   */\n      dup2\n        /* \"#utility.yul\":5725:5729   */\n      dup2\n        /* \"#utility.yul\":5721:5741   */\n      sub\n        /* \"#utility.yul\":5717:5718   */\n      0x00\n        /* \"#utility.yul\":5706:5715   */\n      dup4\n        /* \"#utility.yul\":5702:5719   */\n      add\n        /* \"#utility.yul\":5695:5742   */\n      mstore\n        /* \"#utility.yul\":5759:5837   */\n      tag_287\n        /* \"#utility.yul\":5832:5836   */\n      dup2\n        /* \"#utility.yul\":5823:5829   */\n      dup5\n        /* \"#utility.yul\":5759:5837   */\n      tag_193\n      jump\t// in\n    tag_287:\n        /* \"#utility.yul\":5751:5837   */\n      swap1\n      pop\n        /* \"#utility.yul\":5531:5844   */\n      swap3\n      swap2\n      pop\n      pop\n      jump\t// out\n        /* \"#utility.yul\":5850:6324   */\n    tag_29:\n        /* \"#utility.yul\":5918:5924   */\n      0x00\n        /* \"#utility.yul\":5926:5932   */\n      dup1\n        /* \"#utility.yul\":5975:5977   */\n      0x40\n        /* \"#utility.yul\":5963:5972   */\n      dup4\n        /* \"#utility.yul\":5954:5961   */\n      dup6\n        /* \"#utility.yul\":5950:5973   */\n      sub\n        /* \"#utility.yul\":5946:5978   */\n      slt\n        /* \"#utility.yul\":5943:6062   */\n      iszero\n      tag_289\n      jumpi\n        /* \"#utility.yul\":5981:6060   */\n      tag_290\n      tag_171\n      jump\t// in\n    tag_290:\n        /* \"#utility.yul\":5943:6062   */\n    tag_289:\n        /* \"#utility.yul\":6101:6102   */\n      0x00\n        /* \"#utility.yul\":6126:6179   */\n      tag_291\n        /* \"#utility.yul\":6171:6178   */\n      dup6\n        /* \"#utility.yul\":6162:6168   */\n      dup3\n        /* \"#utility.yul\":6151:6160   */\n      dup7\n        /* \"#utility.yul\":6147:6169   */\n      add\n        /* \"#utility.yul\":6126:6179   */\n      tag_188\n      jump\t// in\n    tag_291:\n        /* \"#utility.yul\":6116:6179   */\n      swap3\n      pop\n        /* \"#utility.yul\":6072:6189   */\n      pop\n        /* \"#utility.yul\":6228:6230   */\n      0x20\n        /* \"#utility.yul\":6254:6307   */\n      tag_292\n        /* \"#utility.yul\":6299:6306   */\n      dup6\n        /* \"#utility.yul\":6290:6296   */\n      dup3\n        /* \"#utility.yul\":6279:6288   */\n      dup7\n        /* \"#utility.yul\":6275:6297   */\n      add\n        /* \"#utility.yul\":6254:6307   */\n      tag_176\n      jump\t// in\n    tag_292:\n        /* \"#utility.yul\":6244:6307   */\n      swap2\n      pop\n        /* \"#utility.yul\":6199:6317   */\n      pop\n        /* \"#utility.yul\":5850:6324   */\n      swap3\n      pop\n      swap3\n      swap1\n      pop\n      jump\t// out\n        /* \"#utility.yul\":6330:6444   */\n    tag_194:\n        /* \"#utility.yul\":6397:6403   */\n      0x00\n        /* \"#utility.yul\":6431:6436   */\n      dup2\n        /* \"#utility.yul\":6425:6437   */\n      mload\n        /* \"#utility.yul\":6415:6437   */\n      swap1\n      pop\n        /* \"#utility.yul\":6330:6444   */\n      swap2\n      swap1\n      pop\n      jump\t// out\n        /* \"#utility.yul\":6450:6634   */\n    tag_195:\n        /* \"#utility.yul\":6549:6560   */\n      0x00\n        /* \"#utility.yul\":6583:6589   */\n      dup3\n        /* \"#utility.yul\":6578:6581   */\n      dup3\n        /* \"#utility.yul\":6571:6590   */\n      mstore\n        /* \"#utility.yul\":6623:6627   */\n      0x20\n        /* \"#utility.yul\":6618:6621   */\n      dup3\n        /* \"#utility.yul\":6614:6628   */\n      add\n        /* \"#utility.yul\":6599:6628   */\n      swap1\n      pop\n        /* \"#utility.yul\":6450:6634   */\n      swap3\n      swap2\n      pop\n      pop\n      jump\t// out\n        /* \"#utility.yul\":6640:6772   */\n    tag_196:\n        /* \"#utility.yul\":6707:6711   */\n      0x00\n        /* \"#utility.yul\":6730:6733   */\n      dup2\n        /* \"#utility.yul\":6722:6733   */\n      swap1\n      pop\n        /* \"#utility.yul\":6760:6764   */\n      0x20\n        /* \"#utility.yul\":6755:6758   */\n      dup3\n        /* \"#utility.yul\":6751:6765   */\n      add\n        /* \"#utility.yul\":6743:6765   */\n      swap1\n      pop\n        /* \"#utility.yul\":6640:6772   */\n      swap2\n      swap1\n      pop\n      jump\t// out\n        /* \"#utility.yul\":6778:6886   */\n    tag_197:\n        /* \"#utility.yul\":6855:6879   */\n      tag_297\n        /* \"#utility.yul\":6873:6878   */\n      dup2\n        /* \"#utility.yul\":6855:6879   */\n      tag_174\n      jump\t// in\n    tag_297:\n        /* \"#utility.yul\":6850:6853   */\n      dup3\n        /* \"#utility.yul\":6843:6880   */\n      mstore\n        /* \"#utility.yul\":6778:6886   */\n      pop\n      pop\n      jump\t// out\n        /* \"#utility.yul\":6892:7071   */\n    tag_198:\n        /* \"#utility.yul\":6961:6971   */\n      0x00\n        /* \"#utility.yul\":6982:7028   */\n      tag_299\n        /* \"#utility.yul\":7024:7027   */\n      dup4\n        /* \"#utility.yul\":7016:7022   */\n      dup4\n        /* \"#utility.yul\":6982:7028   */\n      tag_197\n      jump\t// in\n    tag_299:\n        /* \"#utility.yul\":7060:7064   */\n      0x20\n        /* \"#utility.yul\":7055:7058   */\n      dup4\n        /* \"#utility.yul\":7051:7065   */\n      add\n        /* \"#utility.yul\":7037:7065   */\n      swap1\n      pop\n        /* \"#utility.yul\":6892:7071   */\n      swap3\n      swap2\n      pop\n      pop\n      jump\t// out\n        /* \"#utility.yul\":7077:7190   */\n    tag_199:\n        /* \"#utility.yul\":7147:7151   */\n      0x00\n        /* \"#utility.yul\":7179:7183   */\n      0x20\n        /* \"#utility.yul\":7174:7177   */\n      dup3\n        /* \"#utility.yul\":7170:7184   */\n      add\n        /* \"#utility.yul\":7162:7184   */\n      swap1\n      pop\n        /* \"#utility.yul\":7077:7190   */\n      swap2\n      swap1\n      pop\n      jump\t// out\n        /* \"#utility.yul\":7226:7958   */\n    tag_200:\n        /* \"#utility.yul\":7345:7348   */\n      0x00\n        /* \"#utility.yul\":7374:7428   */\n      tag_302\n        /* \"#utility.yul\":7422:7427   */\n      dup3\n        /* \"#utility.yul\":7374:7428   */\n      tag_194\n      jump\t// in\n    tag_302:\n        /* \"#utility.yul\":7444:7530   */\n      tag_303\n        /* \"#utility.yul\":7523:7529   */\n      dup2\n        /* \"#utility.yul\":7518:7521   */\n      dup6\n        /* \"#utility.yul\":7444:7530   */\n      tag_195\n      jump\t// in\n    tag_303:\n        /* \"#utility.yul\":7437:7530   */\n      swap4\n      pop\n        /* \"#utility.yul\":7554:7610   */\n      tag_304\n        /* \"#utility.yul\":7604:7609   */\n      dup4\n        /* \"#utility.yul\":7554:7610   */\n      tag_196\n      jump\t// in\n    tag_304:\n        /* \"#utility.yul\":7633:7640   */\n      dup1\n        /* \"#utility.yul\":7664:7665   */\n      0x00\n        /* \"#utility.yul\":7649:7933   */\n    tag_305:\n        /* \"#utility.yul\":7674:7680   */\n      dup4\n        /* \"#utility.yul\":7671:7672   */\n      dup2\n        /* \"#utility.yul\":7668:7681   */\n      lt\n        /* \"#utility.yul\":7649:7933   */\n      iszero\n      tag_307\n      jumpi\n        /* \"#utility.yul\":7750:7756   */\n      dup2\n        /* \"#utility.yul\":7744:7757   */\n      mload\n        /* \"#utility.yul\":7777:7840   */\n      tag_308\n        /* \"#utility.yul\":7836:7839   */\n      dup9\n        /* \"#utility.yul\":7821:7834   */\n      dup3\n        /* \"#utility.yul\":7777:7840   */\n      tag_198\n      jump\t// in\n    tag_308:\n        /* \"#utility.yul\":7770:7840   */\n      swap8\n      pop\n        /* \"#utility.yul\":7863:7923   */\n      tag_309\n        /* \"#utility.yul\":7916:7922   */\n      dup4\n        /* \"#utility.yul\":7863:7923   */\n      tag_199\n      jump\t// in\n    tag_309:\n        /* \"#utility.yul\":7853:7923   */\n      swap3\n      pop\n        /* \"#utility.yul\":7709:7933   */\n      pop\n        /* \"#utility.yul\":7696:7697   */\n      0x01\n        /* \"#utility.yul\":7693:7694   */\n      dup2\n        /* \"#utility.yul\":7689:7698   */\n      add\n        /* \"#utility.yul\":7684:7698   */\n      swap1\n      pop\n        /* \"#utility.yul\":7649:7933   */\n      jump(tag_305)\n    tag_307:\n        /* \"#utility.yul\":7653:7667   */\n      pop\n        /* \"#utility.yul\":7949:7952   */\n      dup6\n        /* \"#utility.yul\":7942:7952   */\n      swap4\n      pop\n        /* \"#utility.yul\":7350:7958   */\n      pop\n      pop\n      pop\n        /* \"#utility.yul\":7226:7958   */\n      swap3\n      swap2\n      pop\n      pop\n      jump\t// out\n        /* \"#utility.yul\":7964:8088   */\n    tag_201:\n        /* \"#utility.yul\":8041:8047   */\n      0x00\n        /* \"#utility.yul\":8075:8080   */\n      dup2\n        /* \"#utility.yul\":8069:8081   */\n      mload\n        /* \"#utility.yul\":8059:8081   */\n      swap1\n      pop\n        /* \"#utility.yul\":7964:8088   */\n      swap2\n      swap1\n      pop\n      jump\t// out\n        /* \"#utility.yul\":8094:8288   */\n    tag_202:\n        /* \"#utility.yul\":8203:8214   */\n      0x00\n        /* \"#utility.yul\":8237:8243   */\n      dup3\n        /* \"#utility.yul\":8232:8235   */\n      dup3\n        /* \"#utility.yul\":8225:8244   */\n      mstore\n        /* \"#utility.yul\":8277:8281   */\n      0x20\n        /* \"#utility.yul\":8272:8275   */\n      dup3\n        /* \"#utility.yul\":8268:8282   */\n      add\n        /* \"#utility.yul\":8253:8282   */\n      swap1\n      pop\n        /* \"#utility.yul\":8094:8288   */\n      swap3\n      swap2\n      pop\n      pop\n      jump\t// out\n        /* \"#utility.yul\":8294:8436   */\n    tag_203:\n        /* \"#utility.yul\":8371:8375   */\n      0x00\n        /* \"#utility.yul\":8394:8397   */\n      dup2\n        /* \"#utility.yul\":8386:8397   */\n      swap1\n      pop\n        /* \"#utility.yul\":8424:8428   */\n      0x20\n        /* \"#utility.yul\":8419:8422   */\n      dup3\n        /* \"#utility.yul\":8415:8429   */\n      add\n        /* \"#utility.yul\":8407:8429   */\n      swap1\n      pop\n        /* \"#utility.yul\":8294:8436   */\n      swap2\n      swap1\n      pop\n      jump\t// out\n        /* \"#utility.yul\":8442:8601   */\n    tag_204:\n        /* \"#utility.yul\":8516:8527   */\n      0x00\n        /* \"#utility.yul\":8550:8556   */\n      dup3\n        /* \"#utility.yul\":8545:8548   */\n      dup3\n        /* \"#utility.yul\":8538:8557   */\n      mstore\n        /* \"#utility.yul\":8590:8594   */\n      0x20\n        /* \"#utility.yul\":8585:8588   */\n      dup3\n        /* \"#utility.yul\":8581:8595   */\n      add\n        /* \"#utility.yul\":8566:8595   */\n      swap1\n      pop\n        /* \"#utility.yul\":8442:8601   */\n      swap3\n      swap2\n      pop\n      pop\n      jump\t// out\n        /* \"#utility.yul\":8607:8951   */\n    tag_205:\n        /* \"#utility.yul\":8685:8688   */\n      0x00\n        /* \"#utility.yul\":8713:8752   */\n      tag_315\n        /* \"#utility.yul\":8746:8751   */\n      dup3\n        /* \"#utility.yul\":8713:8752   */\n      tag_190\n      jump\t// in\n    tag_315:\n        /* \"#utility.yul\":8768:8829   */\n      tag_316\n        /* \"#utility.yul\":8822:8828   */\n      dup2\n        /* \"#utility.yul\":8817:8820   */\n      dup6\n        /* \"#utility.yul\":8768:8829   */\n      tag_204\n      jump\t// in\n    tag_316:\n        /* \"#utility.yul\":8761:8829   */\n      swap4\n      pop\n        /* \"#utility.yul\":8838:8890   */\n      tag_317\n        /* \"#utility.yul\":8883:8889   */\n      dup2\n        /* \"#utility.yul\":8878:8881   */\n      dup6\n        /* \"#utility.yul\":8871:8875   */\n      0x20\n        /* \"#utility.yul\":8864:8869   */\n      dup7\n        /* \"#utility.yul\":8860:8876   */\n      add\n        /* \"#utility.yul\":8838:8890   */\n      tag_192\n      jump\t// in\n    tag_317:\n        /* \"#utility.yul\":8915:8944   */\n      tag_318\n        /* \"#utility.yul\":8937:8943   */\n      dup2\n        /* \"#utility.yul\":8915:8944   */\n      tag_179\n      jump\t// in\n    tag_318:\n        /* \"#utility.yul\":8910:8913   */\n      dup5\n        /* \"#utility.yul\":8906:8945   */\n      add\n        /* \"#utility.yul\":8899:8945   */\n      swap2\n      pop\n        /* \"#utility.yul\":8689:8951   */\n      pop\n        /* \"#utility.yul\":8607:8951   */\n      swap3\n      swap2\n      pop\n      pop\n      jump\t// out\n        /* \"#utility.yul\":8957:9153   */\n    tag_206:\n        /* \"#utility.yul\":9046:9056   */\n      0x00\n        /* \"#utility.yul\":9081:9147   */\n      tag_320\n        /* \"#utility.yul\":9143:9146   */\n      dup4\n        /* \"#utility.yul\":9135:9141   */\n      dup4\n        /* \"#utility.yul\":9081:9147   */\n      tag_205\n      jump\t// in\n    tag_320:\n        /* \"#utility.yul\":9067:9147   */\n      swap1\n      pop\n        /* \"#utility.yul\":8957:9153   */\n      swap3\n      swap2\n      pop\n      pop\n      jump\t// out\n        /* \"#utility.yul\":9159:9282   */\n    tag_207:\n        /* \"#utility.yul\":9239:9243   */\n      0x00\n        /* \"#utility.yul\":9271:9275   */\n      0x20\n        /* \"#utility.yul\":9266:9269   */\n      dup3\n        /* \"#utility.yul\":9262:9276   */\n      add\n        /* \"#utility.yul\":9254:9276   */\n      swap1\n      pop\n        /* \"#utility.yul\":9159:9282   */\n      swap2\n      swap1\n      pop\n      jump\t// out\n        /* \"#utility.yul\":9316:10307   */\n    tag_208:\n        /* \"#utility.yul\":9455:9458   */\n      0x00\n        /* \"#utility.yul\":9484:9548   */\n      tag_323\n        /* \"#utility.yul\":9542:9547   */\n      dup3\n        /* \"#utility.yul\":9484:9548   */\n      tag_201\n      jump\t// in\n    tag_323:\n        /* \"#utility.yul\":9564:9660   */\n      tag_324\n        /* \"#utility.yul\":9653:9659   */\n      dup2\n        /* \"#utility.yul\":9648:9651   */\n      dup6\n        /* \"#utility.yul\":9564:9660   */\n      tag_202\n      jump\t// in\n    tag_324:\n        /* \"#utility.yul\":9557:9660   */\n      swap4\n      pop\n        /* \"#utility.yul\":9686:9689   */\n      dup4\n        /* \"#utility.yul\":9731:9735   */\n      0x20\n        /* \"#utility.yul\":9723:9729   */\n      dup3\n        /* \"#utility.yul\":9719:9736   */\n      mul\n        /* \"#utility.yul\":9714:9717   */\n      dup6\n        /* \"#utility.yul\":9710:9737   */\n      add\n        /* \"#utility.yul\":9761:9827   */\n      tag_325\n        /* \"#utility.yul\":9821:9826   */\n      dup6\n        /* \"#utility.yul\":9761:9827   */\n      tag_203\n      jump\t// in\n    tag_325:\n        /* \"#utility.yul\":9850:9857   */\n      dup1\n        /* \"#utility.yul\":9881:9882   */\n      0x00\n        /* \"#utility.yul\":9866:10262   */\n    tag_326:\n        /* \"#utility.yul\":9891:9897   */\n      dup6\n        /* \"#utility.yul\":9888:9889   */\n      dup2\n        /* \"#utility.yul\":9885:9898   */\n      lt\n        /* \"#utility.yul\":9866:10262   */\n      iszero\n      tag_328\n      jumpi\n        /* \"#utility.yul\":9962:9971   */\n      dup5\n        /* \"#utility.yul\":9956:9960   */\n      dup5\n        /* \"#utility.yul\":9952:9972   */\n      sub\n        /* \"#utility.yul\":9947:9950   */\n      dup10\n        /* \"#utility.yul\":9940:9973   */\n      mstore\n        /* \"#utility.yul\":10013:10019   */\n      dup2\n        /* \"#utility.yul\":10007:10020   */\n      mload\n        /* \"#utility.yul\":10041:10125   */\n      tag_329\n        /* \"#utility.yul\":10120:10124   */\n      dup6\n        /* \"#utility.yul\":10105:10118   */\n      dup3\n        /* \"#utility.yul\":10041:10125   */\n      tag_206\n      jump\t// in\n    tag_329:\n        /* \"#utility.yul\":10033:10125   */\n      swap5\n      pop\n        /* \"#utility.yul\":10148:10218   */\n      tag_330\n        /* \"#utility.yul\":10211:10217   */\n      dup4\n        /* \"#utility.yul\":10148:10218   */\n      tag_207\n      jump\t// in\n    tag_330:\n        /* \"#utility.yul\":10138:10218   */\n      swap3\n      pop\n        /* \"#utility.yul\":10247:10251   */\n      0x20\n        /* \"#utility.yul\":10242:10245   */\n      dup11\n        /* \"#utility.yul\":10238:10252   */\n      add\n        /* \"#utility.yul\":10231:10252   */\n      swap10\n      pop\n        /* \"#utility.yul\":9926:10262   */\n      pop\n        /* \"#utility.yul\":9913:9914   */\n      0x01\n        /* \"#utility.yul\":9910:9911   */\n      dup2\n        /* \"#utility.yul\":9906:9915   */\n      add\n        /* \"#utility.yul\":9901:9915   */\n      swap1\n      pop\n        /* \"#utility.yul\":9866:10262   */\n      jump(tag_326)\n    tag_328:\n        /* \"#utility.yul\":9870:9884   */\n      pop\n        /* \"#utility.yul\":10278:10282   */\n      dup3\n        /* \"#utility.yul\":10271:10282   */\n      swap8\n      pop\n        /* \"#utility.yul\":10298:10301   */\n      dup8\n        /* \"#utility.yul\":10291:10301   */\n      swap6\n      pop\n        /* \"#utility.yul\":9460:10307   */\n      pop\n      pop\n      pop\n      pop\n      pop\n        /* \"#utility.yul\":9316:10307   */\n      swap3\n      swap2\n      pop\n      pop\n      jump\t// out\n        /* \"#utility.yul\":10313:10427   */\n    tag_209:\n        /* \"#utility.yul\":10380:10386   */\n      0x00\n        /* \"#utility.yul\":10414:10419   */\n      dup2\n        /* \"#utility.yul\":10408:10420   */\n      mload\n        /* \"#utility.yul\":10398:10420   */\n      swap1\n      pop\n        /* \"#utility.yul\":10313:10427   */\n      swap2\n      swap1\n      pop\n      jump\t// out\n        /* \"#utility.yul\":10433:10617   */\n    tag_210:\n        /* \"#utility.yul\":10532:10543   */\n      0x00\n        /* \"#utility.yul\":10566:10572   */\n      dup3\n        /* \"#utility.yul\":10561:10564   */\n      dup3\n        /* \"#utility.yul\":10554:10573   */\n      mstore\n        /* \"#utility.yul\":10606:10610   */\n      0x20\n        /* \"#utility.yul\":10601:10604   */\n      dup3\n        /* \"#utility.yul\":10597:10611   */\n      add\n        /* \"#utility.yul\":10582:10611   */\n      swap1\n      pop\n        /* \"#utility.yul\":10433:10617   */\n      swap3\n      swap2\n      pop\n      pop\n      jump\t// out\n        /* \"#utility.yul\":10623:10755   */\n    tag_211:\n        /* \"#utility.yul\":10690:10694   */\n      0x00\n        /* \"#utility.yul\":10713:10716   */\n      dup2\n        /* \"#utility.yul\":10705:10716   */\n      swap1\n      pop\n        /* \"#utility.yul\":10743:10747   */\n      0x20\n        /* \"#utility.yul\":10738:10741   */\n      dup3\n        /* \"#utility.yul\":10734:10748   */\n      add\n        /* \"#utility.yul\":10726:10748   */\n      swap1\n      pop\n        /* \"#utility.yul\":10623:10755   */\n      swap2\n      swap1\n      pop\n      jump\t// out\n        /* \"#utility.yul\":10761:10869   */\n    tag_212:\n        /* \"#utility.yul\":10838:10862   */\n      tag_335\n        /* \"#utility.yul\":10856:10861   */\n      dup2\n        /* \"#utility.yul\":10838:10862   */\n      tag_186\n      jump\t// in\n    tag_335:\n        /* \"#utility.yul\":10833:10836   */\n      dup3\n        /* \"#utility.yul\":10826:10863   */\n      mstore\n        /* \"#utility.yul\":10761:10869   */\n      pop\n      pop\n      jump\t// out\n        /* \"#utility.yul\":10875:11054   */\n    tag_213:\n        /* \"#utility.yul\":10944:10954   */\n      0x00\n        /* \"#utility.yul\":10965:11011   */\n      tag_337\n        /* \"#utility.yul\":11007:11010   */\n      dup4\n        /* \"#utility.yul\":10999:11005   */\n      dup4\n        /* \"#utility.yul\":10965:11011   */\n      tag_212\n      jump\t// in\n    tag_337:\n        /* \"#utility.yul\":11043:11047   */\n      0x20\n        /* \"#utility.yul\":11038:11041   */\n      dup4\n        /* \"#utility.yul\":11034:11048   */\n      add\n        /* \"#utility.yul\":11020:11048   */\n      swap1\n      pop\n        /* \"#utility.yul\":10875:11054   */\n      swap3\n      swap2\n      pop\n      pop\n      jump\t// out\n        /* \"#utility.yul\":11060:11173   */\n    tag_214:\n        /* \"#utility.yul\":11130:11134   */\n      0x00\n        /* \"#utility.yul\":11162:11166   */\n      0x20\n        /* \"#utility.yul\":11157:11160   */\n      dup3\n        /* \"#utility.yul\":11153:11167   */\n      add\n        /* \"#utility.yul\":11145:11167   */\n      swap1\n      pop\n        /* \"#utility.yul\":11060:11173   */\n      swap2\n      swap1\n      pop\n      jump\t// out\n        /* \"#utility.yul\":11209:11941   */\n    tag_215:\n        /* \"#utility.yul\":11328:11331   */\n      0x00\n        /* \"#utility.yul\":11357:11411   */\n      tag_340\n        /* \"#utility.yul\":11405:11410   */\n      dup3\n        /* \"#utility.yul\":11357:11411   */\n      tag_209\n      jump\t// in\n    tag_340:\n        /* \"#utility.yul\":11427:11513   */\n      tag_341\n        /* \"#utility.yul\":11506:11512   */\n      dup2\n        /* \"#utility.yul\":11501:11504   */\n      dup6\n        /* \"#utility.yul\":11427:11513   */\n      tag_210\n      jump\t// in\n    tag_341:\n        /* \"#utility.yul\":11420:11513   */\n      swap4\n      pop\n        /* \"#utility.yul\":11537:11593   */\n      tag_342\n        /* \"#utility.yul\":11587:11592   */\n      dup4\n        /* \"#utility.yul\":11537:11593   */\n      tag_211\n      jump\t// in\n    tag_342:\n        /* \"#utility.yul\":11616:11623   */\n      dup1\n        /* \"#utility.yul\":11647:11648   */\n      0x00\n        /* \"#utility.yul\":11632:11916   */\n    tag_343:\n        /* \"#utility.yul\":11657:11663   */\n      dup4\n        /* \"#utility.yul\":11654:11655   */\n      dup2\n        /* \"#utility.yul\":11651:11664   */\n      lt\n        /* \"#utility.yul\":11632:11916   */\n      iszero\n      tag_345\n      jumpi\n        /* \"#utility.yul\":11733:11739   */\n      dup2\n        /* \"#utility.yul\":11727:11740   */\n      mload\n        /* \"#utility.yul\":11760:11823   */\n      tag_346\n        /* \"#utility.yul\":11819:11822   */\n      dup9\n        /* \"#utility.yul\":11804:11817   */\n      dup3\n        /* \"#utility.yul\":11760:11823   */\n      tag_213\n      jump\t// in\n    tag_346:\n        /* \"#utility.yul\":11753:11823   */\n      swap8\n      pop\n        /* \"#utility.yul\":11846:11906   */\n      tag_347\n        /* \"#utility.yul\":11899:11905   */\n      dup4\n        /* \"#utility.yul\":11846:11906   */\n      tag_214\n      jump\t// in\n    tag_347:\n        /* \"#utility.yul\":11836:11906   */\n      swap3\n      pop\n        /* \"#utility.yul\":11692:11916   */\n      pop\n        /* \"#utility.yul\":11679:11680   */\n      0x01\n        /* \"#utility.yul\":11676:11677   */\n      dup2\n        /* \"#utility.yul\":11672:11681   */\n      add\n        /* \"#utility.yul\":11667:11681   */\n      swap1\n      pop\n        /* \"#utility.yul\":11632:11916   */\n      jump(tag_343)\n    tag_345:\n        /* \"#utility.yul\":11636:11650   */\n      pop\n        /* \"#utility.yul\":11932:11935   */\n      dup6\n        /* \"#utility.yul\":11925:11935   */\n      swap4\n      pop\n        /* \"#utility.yul\":11333:11941   */\n      pop\n      pop\n      pop\n        /* \"#utility.yul\":11209:11941   */\n      swap3\n      swap2\n      pop\n      pop\n      jump\t// out\n        /* \"#utility.yul\":11947:12882   */\n    tag_34:\n        /* \"#utility.yul\":12266:12270   */\n      0x00\n        /* \"#utility.yul\":12304:12306   */\n      0x60\n        /* \"#utility.yul\":12293:12302   */\n      dup3\n        /* \"#utility.yul\":12289:12307   */\n      add\n        /* \"#utility.yul\":12281:12307   */\n      swap1\n      pop\n        /* \"#utility.yul\":12353:12362   */\n      dup2\n        /* \"#utility.yul\":12347:12351   */\n      dup2\n        /* \"#utility.yul\":12343:12363   */\n      sub\n        /* \"#utility.yul\":12339:12340   */\n      0x00\n        /* \"#utility.yul\":12328:12337   */\n      dup4\n        /* \"#utility.yul\":12324:12341   */\n      add\n        /* \"#utility.yul\":12317:12364   */\n      mstore\n        /* \"#utility.yul\":12381:12489   */\n      tag_349\n        /* \"#utility.yul\":12484:12488   */\n      dup2\n        /* \"#utility.yul\":12475:12481   */\n      dup7\n        /* \"#utility.yul\":12381:12489   */\n      tag_200\n      jump\t// in\n    tag_349:\n        /* \"#utility.yul\":12373:12489   */\n      swap1\n      pop\n        /* \"#utility.yul\":12536:12545   */\n      dup2\n        /* \"#utility.yul\":12530:12534   */\n      dup2\n        /* \"#utility.yul\":12526:12546   */\n      sub\n        /* \"#utility.yul\":12521:12523   */\n      0x20\n        /* \"#utility.yul\":12510:12519   */\n      dup4\n        /* \"#utility.yul\":12506:12524   */\n      add\n        /* \"#utility.yul\":12499:12547   */\n      mstore\n        /* \"#utility.yul\":12564:12692   */\n      tag_350\n        /* \"#utility.yul\":12687:12691   */\n      dup2\n        /* \"#utility.yul\":12678:12684   */\n      dup6\n        /* \"#utility.yul\":12564:12692   */\n      tag_208\n      jump\t// in\n    tag_350:\n        /* \"#utility.yul\":12556:12692   */\n      swap1\n      pop\n        /* \"#utility.yul\":12739:12748   */\n      dup2\n        /* \"#utility.yul\":12733:12737   */\n      dup2\n        /* \"#utility.yul\":12729:12749   */\n      sub\n        /* \"#utility.yul\":12724:12726   */\n      0x40\n        /* \"#utility.yul\":12713:12722   */\n      dup4\n        /* \"#utility.yul\":12709:12727   */\n      add\n        /* \"#utility.yul\":12702:12750   */\n      mstore\n        /* \"#utility.yul\":12767:12875   */\n      tag_351\n        /* \"#utility.yul\":12870:12874   */\n      dup2\n        /* \"#utility.yul\":12861:12867   */\n      dup5\n        /* \"#utility.yul\":12767:12875   */\n      tag_215\n      jump\t// in\n    tag_351:\n        /* \"#utility.yul\":12759:12875   */\n      swap1\n      pop\n        /* \"#utility.yul\":11947:12882   */\n      swap5\n      swap4\n      pop\n      pop\n      pop\n      pop\n      jump\t// out\n        /* \"#utility.yul\":12888:13217   */\n    tag_37:\n        /* \"#utility.yul\":12947:12953   */\n      0x00\n        /* \"#utility.yul\":12996:12998   */\n      0x20\n        /* \"#utility.yul\":12984:12993   */\n      dup3\n        /* \"#utility.yul\":12975:12982   */\n      dup5\n        /* \"#utility.yul\":12971:12994   */\n      sub\n        /* \"#utility.yul\":12967:12999   */\n      slt\n        /* \"#utility.yul\":12964:13083   */\n      iszero\n      tag_353\n      jumpi\n        /* \"#utility.yul\":13002:13081   */\n      tag_354\n      tag_171\n      jump\t// in\n    tag_354:\n        /* \"#utility.yul\":12964:13083   */\n    tag_353:\n        /* \"#utility.yul\":13122:13123   */\n      0x00\n        /* \"#utility.yul\":13147:13200   */\n      tag_355\n        /* \"#utility.yul\":13192:13199   */\n      dup5\n        /* \"#utility.yul\":13183:13189   */\n      dup3\n        /* \"#utility.yul\":13172:13181   */\n      dup6\n        /* \"#utility.yul\":13168:13190   */\n      add\n        /* \"#utility.yul\":13147:13200   */\n      tag_176\n      jump\t// in\n    tag_355:\n        /* \"#utility.yul\":13137:13200   */\n      swap2\n      pop\n        /* \"#utility.yul\":13093:13210   */\n      pop\n        /* \"#utility.yul\":12888:13217   */\n      swap3\n      swap2\n      pop\n      pop\n      jump\t// out\n        /* \"#utility.yul\":13223:13732   */\n    tag_41:\n        /* \"#utility.yul\":13292:13298   */\n      0x00\n        /* \"#utility.yul\":13341:13343   */\n      0x20\n        /* \"#utility.yul\":13329:13338   */\n      dup3\n        /* \"#utility.yul\":13320:13327   */\n      dup5\n        /* \"#utility.yul\":13316:13339   */\n      sub\n        /* \"#utility.yul\":13312:13344   */\n      slt\n        /* \"#utility.yul\":13309:13428   */\n      iszero\n      tag_357\n      jumpi\n        /* \"#utility.yul\":13347:13426   */\n      tag_358\n      tag_171\n      jump\t// in\n    tag_358:\n        /* \"#utility.yul\":13309:13428   */\n    tag_357:\n        /* \"#utility.yul\":13495:13496   */\n      0x00\n        /* \"#utility.yul\":13484:13493   */\n      dup3\n        /* \"#utility.yul\":13480:13497   */\n      add\n        /* \"#utility.yul\":13467:13498   */\n      calldataload\n        /* \"#utility.yul\":13525:13543   */\n      0xffffffffffffffff\n        /* \"#utility.yul\":13517:13523   */\n      dup2\n        /* \"#utility.yul\":13514:13544   */\n      gt\n        /* \"#utility.yul\":13511:13628   */\n      iszero\n      tag_359\n      jumpi\n        /* \"#utility.yul\":13547:13626   */\n      tag_360\n      tag_172\n      jump\t// in\n    tag_360:\n        /* \"#utility.yul\":13511:13628   */\n    tag_359:\n        /* \"#utility.yul\":13652:13715   */\n      tag_361\n        /* \"#utility.yul\":13707:13714   */\n      dup5\n        /* \"#utility.yul\":13698:13704   */\n      dup3\n        /* \"#utility.yul\":13687:13696   */\n      dup6\n        /* \"#utility.yul\":13683:13705   */\n      add\n        /* \"#utility.yul\":13652:13715   */\n      tag_185\n      jump\t// in\n    tag_361:\n        /* \"#utility.yul\":13642:13715   */\n      swap2\n      pop\n        /* \"#utility.yul\":13438:13725   */\n      pop\n        /* \"#utility.yul\":13223:13732   */\n      swap3\n      swap2\n      pop\n      pop\n      jump\t// out\n        /* \"#utility.yul\":13738:13918   */\n    tag_46:\n        /* \"#utility.yul\":13786:13863   */\n      0x4e487b7100000000000000000000000000000000000000000000000000000000\n        /* \"#utility.yul\":13783:13784   */\n      0x00\n        /* \"#utility.yul\":13776:13864   */\n      mstore\n        /* \"#utility.yul\":13883:13887   */\n      0x21\n        /* \"#utility.yul\":13880:13881   */\n      0x04\n        /* \"#utility.yul\":13873:13888   */\n      mstore\n        /* \"#utility.yul\":13907:13911   */\n      0x24\n        /* \"#utility.yul\":13904:13905   */\n      0x00\n        /* \"#utility.yul\":13897:13912   */\n      revert\n        /* \"#utility.yul\":13924:14104   */\n    tag_216:\n        /* \"#utility.yul\":13972:14049   */\n      0x4e487b7100000000000000000000000000000000000000000000000000000000\n        /* \"#utility.yul\":13969:13970   */\n      0x00\n        /* \"#utility.yul\":13962:14050   */\n      mstore\n        /* \"#utility.yul\":14069:14073   */\n      0x22\n        /* \"#utility.yul\":14066:14067   */\n      0x04\n        /* \"#utility.yul\":14059:14074   */\n      mstore\n        /* \"#utility.yul\":14093:14097   */\n      0x24\n        /* \"#utility.yul\":14090:14091   */\n      0x00\n        /* \"#utility.yul\":14083:14098   */\n      revert\n        /* \"#utility.yul\":14110:14430   */\n    tag_78:\n        /* \"#utility.yul\":14154:14160   */\n      0x00\n        /* \"#utility.yul\":14191:14192   */\n      0x02\n        /* \"#utility.yul\":14185:14189   */\n      dup3\n        /* \"#utility.yul\":14181:14193   */\n      div\n        /* \"#utility.yul\":14171:14193   */\n      swap1\n      pop\n        /* \"#utility.yul\":14238:14239   */\n      0x01\n        /* \"#utility.yul\":14232:14236   */\n      dup3\n        /* \"#utility.yul\":14228:14240   */\n      and\n        /* \"#utility.yul\":14259:14277   */\n      dup1\n        /* \"#utility.yul\":14249:14330   */\n      tag_365\n      jumpi\n        /* \"#utility.yul\":14315:14319   */\n      0x7f\n        /* \"#utility.yul\":14307:14313   */\n      dup3\n        /* \"#utility.yul\":14303:14320   */\n      and\n        /* \"#utility.yul\":14293:14320   */\n      swap2\n      pop\n        /* \"#utility.yul\":14249:14330   */\n    tag_365:\n        /* \"#utility.yul\":14377:14379   */\n      0x20\n        /* \"#utility.yul\":14369:14375   */\n      dup3\n        /* \"#utility.yul\":14366:14380   */\n      lt\n        /* \"#utility.yul\":14346:14364   */\n      dup2\n        /* \"#utility.yul\":14343:14381   */\n      sub\n        /* \"#utility.yul\":14340:14424   */\n      tag_366\n      jumpi\n        /* \"#utility.yul\":14396:14414   */\n      tag_367\n      tag_216\n      jump\t// in\n    tag_367:\n        /* \"#utility.yul\":14340:14424   */\n    tag_366:\n        /* \"#utility.yul\":14161:14430   */\n      pop\n        /* \"#utility.yul\":14110:14430   */\n      swap2\n      swap1\n      pop\n      jump\t// out\n        /* \"#utility.yul\":14436:14616   */\n    tag_217:\n        /* \"#utility.yul\":14484:14561   */\n      0x4e487b7100000000000000000000000000000000000000000000000000000000\n        /* \"#utility.yul\":14481:14482   */\n      0x00\n        /* \"#utility.yul\":14474:14562   */\n      mstore\n        /* \"#utility.yul\":14581:14585   */\n      0x11\n        /* \"#utility.yul\":14578:14579   */\n      0x04\n        /* \"#utility.yul\":14571:14586   */\n      mstore\n        /* \"#utility.yul\":14605:14609   */\n      0x24\n        /* \"#utility.yul\":14602:14603   */\n      0x00\n        /* \"#utility.yul\":14595:14610   */\n      revert\n        /* \"#utility.yul\":14622:14813   */\n    tag_93:\n        /* \"#utility.yul\":14662:14666   */\n      0x00\n        /* \"#utility.yul\":14682:14702   */\n      tag_370\n        /* \"#utility.yul\":14700:14701   */\n      dup3\n        /* \"#utility.yul\":14682:14702   */\n      tag_186\n      jump\t// in\n    tag_370:\n        /* \"#utility.yul\":14677:14702   */\n      swap2\n      pop\n        /* \"#utility.yul\":14716:14736   */\n      tag_371\n        /* \"#utility.yul\":14734:14735   */\n      dup4\n        /* \"#utility.yul\":14716:14736   */\n      tag_186\n      jump\t// in\n    tag_371:\n        /* \"#utility.yul\":14711:14736   */\n      swap3\n      pop\n        /* \"#utility.yul\":14755:14756   */\n      dup3\n        /* \"#utility.yul\":14752:14753   */\n      dup3\n        /* \"#utility.yul\":14749:14757   */\n      lt\n        /* \"#utility.yul\":14746:14780   */\n      iszero\n      tag_372\n      jumpi\n        /* \"#utility.yul\":14760:14778   */\n      tag_373\n      tag_217\n      jump\t// in\n    tag_373:\n        /* \"#utility.yul\":14746:14780   */\n    tag_372:\n        /* \"#utility.yul\":14805:14806   */\n      dup3\n        /* \"#utility.yul\":14802:14803   */\n      dup3\n        /* \"#utility.yul\":14798:14807   */\n      sub\n        /* \"#utility.yul\":14790:14807   */\n      swap1\n      pop\n        /* \"#utility.yul\":14622:14813   */\n      swap3\n      swap2\n      pop\n      pop\n      jump\t// out\n        /* \"#utility.yul\":14819:14999   */\n    tag_96:\n        /* \"#utility.yul\":14867:14944   */\n      0x4e487b7100000000000000000000000000000000000000000000000000000000\n        /* \"#utility.yul\":14864:14865   */\n      0x00\n        /* \"#utility.yul\":14857:14945   */\n      mstore\n        /* \"#utility.yul\":14964:14968   */\n      0x32\n        /* \"#utility.yul\":14961:14962   */\n      0x04\n        /* \"#utility.yul\":14954:14969   */\n      mstore\n        /* \"#utility.yul\":14988:14992   */\n      0x24\n        /* \"#utility.yul\":14985:14986   */\n      0x00\n        /* \"#utility.yul\":14978:14993   */\n      revert\n        /* \"#utility.yul\":15005:15185   */\n    tag_103:\n        /* \"#utility.yul\":15053:15130   */\n      0x4e487b7100000000000000000000000000000000000000000000000000000000\n        /* \"#utility.yul\":15050:15051   */\n      0x00\n        /* \"#utility.yul\":15043:15131   */\n      mstore\n        /* \"#utility.yul\":15150:15154   */\n      0x31\n        /* \"#utility.yul\":15147:15148   */\n      0x04\n        /* \"#utility.yul\":15140:15155   */\n      mstore\n        /* \"#utility.yul\":15174:15178   */\n      0x24\n        /* \"#utility.yul\":15171:15172   */\n      0x00\n        /* \"#utility.yul\":15164:15179   */\n      revert\n        /* \"#utility.yul\":15191:15424   */\n    tag_143:\n        /* \"#utility.yul\":15230:15233   */\n      0x00\n        /* \"#utility.yul\":15253:15277   */\n      tag_377\n        /* \"#utility.yul\":15271:15276   */\n      dup3\n        /* \"#utility.yul\":15253:15277   */\n      tag_186\n      jump\t// in\n    tag_377:\n        /* \"#utility.yul\":15244:15277   */\n      swap2\n      pop\n        /* \"#utility.yul\":15299:15365   */\n      0xffffffffffffffffffffffffffffffffffffffffffffffffffffffffffffffff\n        /* \"#utility.yul\":15292:15297   */\n      dup3\n        /* \"#utility.yul\":15289:15366   */\n      sub\n        /* \"#utility.yul\":15286:15389   */\n      tag_378\n      jumpi\n        /* \"#utility.yul\":15369:15387   */\n      tag_379\n      tag_217\n      jump\t// in\n    tag_379:\n        /* \"#utility.yul\":15286:15389   */\n    tag_378:\n        /* \"#utility.yul\":15416:15417   */\n      0x01\n        /* \"#utility.yul\":15409:15414   */\n      dup3\n        /* \"#utility.yul\":15405:15418   */\n      add\n        /* \"#utility.yul\":15398:15418   */\n      swap1\n      pop\n        /* \"#utility.yul\":15191:15424   */\n      swap2\n      swap1\n      pop\n      jump\t// out\n\n    auxdata: 0xa2646970667358221220b7441280ad07f5e92ebcc47217054c014598eaecf3faab25151b4a3eca67fb1164736f6c634300080d0033\n}\n","bytecode":{"linkReferences":{},"object":"60806040523480156200001157600080fd5b5060405162001bc138038062001bc183398181016040528101906200003791906200040d565b80600260006101000a81548173ffffffffffffffffffffffffffffffffffffffff021916908373ffffffffffffffffffffffffffffffffffffffff1602179055508260009080519060200190620000909291906200015b565b5081600460008373ffffffffffffffffffffffffffffffffffffffff1673ffffffffffffffffffffffffffffffffffffffff1681526020019081526020016000209080519060200190620000e69291906200015b565b506002600360008373ffffffffffffffffffffffffffffffffffffffff1673ffffffffffffffffffffffffffffffffffffffff16815260200190815260200160002060006101000a81548160ff021916908360028111156200014d576200014c620004a7565b5b02179055505050506200053a565b828054620001699062000505565b90600052602060002090601f0160209004810192826200018d5760008555620001d9565b82601f10620001a857805160ff1916838001178555620001d9565b82800160010185558215620001d9579182015b82811115620001d8578251825591602001919060010190620001bb565b5b509050620001e89190620001ec565b5090565b5b8082111562000207576000816000905550600101620001ed565b5090565b6000604051905090565b600080fd5b600080fd5b600080fd5b600080fd5b6000601f19601f8301169050919050565b7f4e487b7100000000000000000000000000000000000000000000000000000000600052604160045260246000fd5b620002748262000229565b810181811067ffffffffffffffff821117156200029657620002956200023a565b5b80604052505050565b6000620002ab6200020b565b9050620002b9828262000269565b919050565b600067ffffffffffffffff821115620002dc57620002db6200023a565b5b620002e78262000229565b9050602081019050919050565b60005b8381101562000314578082015181840152602081019050620002f7565b8381111562000324576000848401525b50505050565b6000620003416200033b84620002be565b6200029f565b90508281526020810184848401111562000360576200035f62000224565b5b6200036d848285620002f4565b509392505050565b600082601f8301126200038d576200038c6200021f565b5b81516200039f8482602086016200032a565b91505092915050565b600073ffffffffffffffffffffffffffffffffffffffff82169050919050565b6000620003d582620003a8565b9050919050565b620003e781620003c8565b8114620003f357600080fd5b50565b6000815190506200040781620003dc565b92915050565b60008060006060848603121562000429576200042862000215565b5b600084015167ffffffffffffffff8111156200044a57620004496200021a565b5b620004588682870162000375565b935050602084015167ffffffffffffffff8111156200047c576200047b6200021a565b5b6200048a8682870162000375565b92505060406200049d86828701620003f6565b9150509250925092565b7f4e487b7100000000000000000000000000000000000000000000000000000000600052602160045260246000fd5b7f4e487b7100000000000000000000000000000000000000000000000000000000600052602260045260246000fd5b600060028204905060018216806200051e57607f821691505b602082108103620005345762000533620004d6565b5b50919050565b611677806200054a6000396000f3fe608060405234801561001057600080fd5b50600436106100885760003560e01c80639a8bf4e01161005b5780639a8bf4e0146101015780639eab52531461011d578063a3fbbaae1461013d578063ae026d951461015957610088565b80631b7607191461008d578063481c6a75146100a95780637debf5c6146100c7578063843c608d146100e3575b600080fd5b6100a760048036038101906100a29190610fdc565b610175565b005b6100b1610327565b6040516100be919061105a565b60405180910390f35b6100e160048036038101906100dc9190610fdc565b61034d565b005b6100eb61049c565b6040516100f891906110fd565b60405180910390f35b61011b6004803603810190610116919061111f565b6105ac565b005b6101256107b8565b604051610134939291906113e7565b60405180910390f35b61015760048036038101906101529190611433565b610b6e565b005b610173600480360381019061016e9190611460565b610c74565b005b600280811115610188576101876114a9565b5b600360003373ffffffffffffffffffffffffffffffffffffffff1673ffffffffffffffffffffffffffffffffffffffff16815260200190815260200160002060009054906101000a900460ff1660028111156101e7576101e66114a9565b5b10156101f257600080fd5b6001839080600181540180825580915050600190039060005260206000200160009091909190916101000a81548173ffffffffffffffffffffffffffffffffffffffff021916908373ffffffffffffffffffffffffffffffffffffffff160217905550806002811115610268576102676114a9565b5b600360008573ffffffffffffffffffffffffffffffffffffffff1673ffffffffffffffffffffffffffffffffffffffff16815260200190815260200160002060006101000a81548160ff021916908360028111156102c9576102c86114a9565b5b021790555081600460008573ffffffffffffffffffffffffffffffffffffffff1673ffffffffffffffffffffffffffffffffffffffff1681526020019081526020016000209080519060200190610321929190610d0b565b50505050565b600260009054906101000a900473ffffffffffffffffffffffffffffffffffffffff1681565b6002808111156103605761035f6114a9565b5b600360003373ffffffffffffffffffffffffffffffffffffffff1673ffffffffffffffffffffffffffffffffffffffff16815260200190815260200160002060009054906101000a900460ff1660028111156103bf576103be6114a9565b5b10156103ca57600080fd5b81600460008573ffffffffffffffffffffffffffffffffffffffff1673ffffffffffffffffffffffffffffffffffffffff168152602001908152602001600020908051906020019061041d929190610d0b565b50806002811115610431576104306114a9565b5b600360008573ffffffffffffffffffffffffffffffffffffffff1673ffffffffffffffffffffffffffffffffffffffff16815260200190815260200160002060006101000a81548160ff02191690836002811115610492576104916114a9565b5b0217905550505050565b6060600160028111156104b2576104b16114a9565b5b600360003373ffffffffffffffffffffffffffffffffffffffff1673ffffffffffffffffffffffffffffffffffffffff16815260200190815260200160002060009054906101000a900460ff166002811115610511576105106114a9565b5b101561051c57600080fd5b6000805461052990611507565b80601f016020809104026020016040519081016040528092919081815260200182805461055590611507565b80156105a25780601f10610577576101008083540402835291602001916105a2565b820191906000526020600020905b81548152906001019060200180831161058557829003601f168201915b5050505050905090565b6002808111156105bf576105be6114a9565b5b600360003373ffffffffffffffffffffffffffffffffffffffff1673ffffffffffffffffffffffffffffffffffffffff16815260200190815260200160002060009054906101000a900460ff16600281111561061e5761061d6114a9565b5b101561062957600080fd5b600360008273ffffffffffffffffffffffffffffffffffffffff1673ffffffffffffffffffffffffffffffffffffffff16815260200190815260200160002060006101000a81549060ff0219169055600460008273ffffffffffffffffffffffffffffffffffffffff1673ffffffffffffffffffffffffffffffffffffffff16815260200190815260200160002060006106c39190610d91565b60018080805490506106d59190611567565b815481106106e6576106e561159b565b5b9060005260206000200160009054906101000a900473ffffffffffffffffffffffffffffffffffffffff16600183815481106107255761072461159b565b5b9060005260206000200160006101000a81548173ffffffffffffffffffffffffffffffffffffffff021916908373ffffffffffffffffffffffffffffffffffffffff160217905550600180548061077f5761077e6115ca565b5b6001900381819060005260206000200160006101000a81549073ffffffffffffffffffffffffffffffffffffffff021916905590555050565b6060806060600160028111156107d1576107d06114a9565b5b600360003373ffffffffffffffffffffffffffffffffffffffff1673ffffffffffffffffffffffffffffffffffffffff16815260200190815260200160002060009054906101000a900460ff1660028111156108305761082f6114a9565b5b101561083b57600080fd5b6000600180549050905060018054806020026020016040519081016040528092919081815260200182805480156108c757602002820191906000526020600020905b8160009054906101000a900473ffffffffffffffffffffffffffffffffffffffff1673ffffffffffffffffffffffffffffffffffffffff168152602001906001019080831161087d575b505050505093508067ffffffffffffffff8111156108e8576108e7610e7b565b5b60405190808252806020026020018201604052801561091b57816020015b60608152602001906001900390816109065790505b5092508067ffffffffffffffff81111561093857610937610e7b565b5b6040519080825280602002602001820160405280156109665781602001602082028036833780820191505090505b50915060005b81811015610b6757600460006001838154811061098c5761098b61159b565b5b9060005260206000200160009054906101000a900473ffffffffffffffffffffffffffffffffffffffff1673ffffffffffffffffffffffffffffffffffffffff1673ffffffffffffffffffffffffffffffffffffffff16815260200190815260200160002080546109fc90611507565b80601f0160208091040260200160405190810160405280929190818152602001828054610a2890611507565b8015610a755780601f10610a4a57610100808354040283529160200191610a75565b820191906000526020600020905b815481529060010190602001808311610a5857829003601f168201915b5050505050848281518110610a8d57610a8c61159b565b5b60200260200101819052506003600060018381548110610ab057610aaf61159b565b5b9060005260206000200160009054906101000a900473ffffffffffffffffffffffffffffffffffffffff1673ffffffffffffffffffffffffffffffffffffffff1673ffffffffffffffffffffffffffffffffffffffff16815260200190815260200160002060009054906101000a900460ff166002811115610b3557610b346114a9565b5b838281518110610b4857610b4761159b565b5b6020026020010181815250508080610b5f906115f9565b91505061096c565b5050909192565b600260009054906101000a900473ffffffffffffffffffffffffffffffffffffffff1673ffffffffffffffffffffffffffffffffffffffff163373ffffffffffffffffffffffffffffffffffffffff1614610bc857600080fd5b80600260006101000a81548173ffffffffffffffffffffffffffffffffffffffff021916908373ffffffffffffffffffffffffffffffffffffffff1602179055506002600360008373ffffffffffffffffffffffffffffffffffffffff1673ffffffffffffffffffffffffffffffffffffffff16815260200190815260200160002060006101000a81548160ff02191690836002811115610c6c57610c6b6114a9565b5b021790555050565b600280811115610c8757610c866114a9565b5b600360003373ffffffffffffffffffffffffffffffffffffffff1673ffffffffffffffffffffffffffffffffffffffff16815260200190815260200160002060009054906101000a900460ff166002811115610ce657610ce56114a9565b5b1015610cf157600080fd5b8060009080519060200190610d07929190610d0b565b5050565b828054610d1790611507565b90600052602060002090601f016020900481019282610d395760008555610d80565b82601f10610d5257805160ff1916838001178555610d80565b82800160010185558215610d80579182015b82811115610d7f578251825591602001919060010190610d64565b5b509050610d8d9190610dd1565b5090565b508054610d9d90611507565b6000825580601f10610daf5750610dce565b601f016020900490600052602060002090810190610dcd9190610dd1565b5b50565b5b80821115610dea576000816000905550600101610dd2565b5090565b6000604051905090565b600080fd5b600080fd5b600073ffffffffffffffffffffffffffffffffffffffff82169050919050565b6000610e2d82610e02565b9050919050565b610e3d81610e22565b8114610e4857600080fd5b50565b600081359050610e5a81610e34565b92915050565b600080fd5b600080fd5b6000601f19601f8301169050919050565b7f4e487b7100000000000000000000000000000000000000000000000000000000600052604160045260246000fd5b610eb382610e6a565b810181811067ffffffffffffffff82111715610ed257610ed1610e7b565b5b80604052505050565b6000610ee5610dee565b9050610ef18282610eaa565b919050565b600067ffffffffffffffff821115610f1157610f10610e7b565b5b610f1a82610e6a565b9050602081019050919050565b82818337600083830152505050565b6000610f49610f4484610ef6565b610edb565b905082815260208101848484011115610f6557610f64610e65565b5b610f70848285610f27565b509392505050565b600082601f830112610f8d57610f8c610e60565b5b8135610f9d848260208601610f36565b91505092915050565b6000819050919050565b610fb981610fa6565b8114610fc457600080fd5b50565b600081359050610fd681610fb0565b92915050565b600080600060608486031215610ff557610ff4610df8565b5b600061100386828701610e4b565b935050602084013567ffffffffffffffff81111561102457611023610dfd565b5b61103086828701610f78565b925050604061104186828701610fc7565b9150509250925092565b61105481610e22565b82525050565b600060208201905061106f600083018461104b565b92915050565b600081519050919050565b600082825260208201905092915050565b60005b838110156110af578082015181840152602081019050611094565b838111156110be576000848401525b50505050565b60006110cf82611075565b6110d98185611080565b93506110e9818560208601611091565b6110f281610e6a565b840191505092915050565b6000602082019050818103600083015261111781846110c4565b905092915050565b6000806040838503121561113657611135610df8565b5b600061114485828601610fc7565b925050602061115585828601610e4b565b9150509250929050565b600081519050919050565b600082825260208201905092915050565b6000819050602082019050919050565b61119481610e22565b82525050565b60006111a6838361118b565b60208301905092915050565b6000602082019050919050565b60006111ca8261115f565b6111d4818561116a565b93506111df8361117b565b8060005b838110156112105781516111f7888261119a565b9750611202836111b2565b9250506001810190506111e3565b5085935050505092915050565b600081519050919050565b600082825260208201905092915050565b6000819050602082019050919050565b600082825260208201905092915050565b600061126582611075565b61126f8185611249565b935061127f818560208601611091565b61128881610e6a565b840191505092915050565b600061129f838361125a565b905092915050565b6000602082019050919050565b60006112bf8261121d565b6112c98185611228565b9350836020820285016112db85611239565b8060005b8581101561131757848403895281516112f88582611293565b9450611303836112a7565b925060208a019950506001810190506112df565b50829750879550505050505092915050565b600081519050919050565b600082825260208201905092915050565b6000819050602082019050919050565b61135e81610fa6565b82525050565b60006113708383611355565b60208301905092915050565b6000602082019050919050565b600061139482611329565b61139e8185611334565b93506113a983611345565b8060005b838110156113da5781516113c18882611364565b97506113cc8361137c565b9250506001810190506113ad565b5085935050505092915050565b6000606082019050818103600083015261140181866111bf565b9050818103602083015261141581856112b4565b905081810360408301526114298184611389565b9050949350505050565b60006020828403121561144957611448610df8565b5b600061145784828501610e4b565b91505092915050565b60006020828403121561147657611475610df8565b5b600082013567ffffffffffffffff81111561149457611493610dfd565b5b6114a084828501610f78565b91505092915050565b7f4e487b7100000000000000000000000000000000000000000000000000000000600052602160045260246000fd5b7f4e487b7100000000000000000000000000000000000000000000000000000000600052602260045260246000fd5b6000600282049050600182168061151f57607f821691505b602082108103611532576115316114d8565b5b50919050565b7f4e487b7100000000000000000000000000000000000000000000000000000000600052601160045260246000fd5b600061157282610fa6565b915061157d83610fa6565b9250828210156115905761158f611538565b5b828203905092915050565b7f4e487b7100000000000000000000000000000000000000000000000000000000600052603260045260246000fd5b7f4e487b7100000000000000000000000000000000000000000000000000000000600052603160045260246000fd5b600061160482610fa6565b91507fffffffffffffffffffffffffffffffffffffffffffffffffffffffffffffffff820361163657611635611538565b5b60018201905091905056fea2646970667358221220b7441280ad07f5e92ebcc47217054c014598eaecf3faab25151b4a3eca67fb1164736f6c634300080d0033","opcodes":"PUSH1 0x80 PUSH1 0x40 MSTORE CALLVALUE DUP1 ISZERO PUSH3 0x11 JUMPI PUSH1 0x0 DUP1 REVERT JUMPDEST POP PUSH1 0x40 MLOAD PUSH3 0x1BC1 CODESIZE SUB DUP1 PUSH3 0x1BC1 DUP4 CODECOPY DUP2 DUP2 ADD PUSH1 0x40 MSTORE DUP2 ADD SWAP1 PUSH3 0x37 SWAP2 SWAP1 PUSH3 0x40D JUMP JUMPDEST DUP1 PUSH1 0x2 PUSH1 0x0 PUSH2 0x100 EXP DUP2 SLOAD DUP2 PUSH20 0xFFFFFFFFFFFFFFFFFFFFFFFFFFFFFFFFFFFFFFFF MUL NOT AND SWAP1 DUP4 PUSH20 0xFFFFFFFFFFFFFFFFFFFFFFFFFFFFFFFFFFFFFFFF AND MUL OR SWAP1 SSTORE POP DUP3 PUSH1 0x0 SWAP1 DUP1 MLOAD SWAP1 PUSH1 0x20 ADD SWAP1 PUSH3 0x90 SWAP3 SWAP2 SWAP1 PUSH3 0x15B JUMP JUMPDEST POP DUP2 PUSH1 0x4 PUSH1 0x0 DUP4 PUSH20 0xFFFFFFFFFFFFFFFFFFFFFFFFFFFFFFFFFFFFFFFF AND PUSH20 0xFFFFFFFFFFFFFFFFFFFFFFFFFFFFFFFFFFFFFFFF AND DUP2 MSTORE PUSH1 0x20 ADD SWAP1 DUP2 MSTORE PUSH1 0x20 ADD PUSH1 0x0 KECCAK256 SWAP1 DUP1 MLOAD SWAP1 PUSH1 0x20 ADD SWAP1 PUSH3 0xE6 SWAP3 SWAP2 SWAP1 PUSH3 0x15B JUMP JUMPDEST POP PUSH1 0x2 PUSH1 0x3 PUSH1 0x0 DUP4 PUSH20 0xFFFFFFFFFFFFFFFFFFFFFFFFFFFFFFFFFFFFFFFF AND PUSH20 0xFFFFFFFFFFFFFFFFFFFFFFFFFFFFFFFFFFFFFFFF AND DUP2 MSTORE PUSH1 0x20 ADD SWAP1 DUP2 MSTORE PUSH1 0x20 ADD PUSH1 0x0 KECCAK256 PUSH1 0x0 PUSH2 0x100 EXP DUP2 SLOAD DUP2 PUSH1 0xFF MUL NOT AND SWAP1 DUP4 PUSH1 0x2 DUP2 GT ISZERO PUSH3 0x14D JUMPI PUSH3 0x14C PUSH3 0x4A7 JUMP JUMPDEST JUMPDEST MUL OR SWAP1 SSTORE POP POP POP POP PUSH3 0x53A JUMP JUMPDEST DUP3 DUP1 SLOAD PUSH3 0x169 SWAP1 PUSH3 0x505 JUMP JUMPDEST SWAP1 PUSH1 0x0 MSTORE PUSH1 0x20 PUSH1 0x0 KECCAK256 SWAP1 PUSH1 0x1F ADD PUSH1 0x20 SWAP1 DIV DUP2 ADD SWAP3 DUP3 PUSH3 0x18D JUMPI PUSH1 0x0 DUP6 SSTORE PUSH3 0x1D9 JUMP JUMPDEST DUP3 PUSH1 0x1F LT PUSH3 0x1A8 JUMPI DUP1 MLOAD PUSH1 0xFF NOT AND DUP4 DUP1 ADD OR DUP6 SSTORE PUSH3 0x1D9 JUMP JUMPDEST DUP3 DUP1 ADD PUSH1 0x1 ADD DUP6 SSTORE DUP3 ISZERO PUSH3 0x1D9 JUMPI SWAP2 DUP3 ADD JUMPDEST DUP3 DUP2 GT ISZERO PUSH3 0x1D8 JUMPI DUP3 MLOAD DUP3 SSTORE SWAP2 PUSH1 0x20 ADD SWAP2 SWAP1 PUSH1 0x1 ADD SWAP1 PUSH3 0x1BB JUMP JUMPDEST JUMPDEST POP SWAP1 POP PUSH3 0x1E8 SWAP2 SWAP1 PUSH3 0x1EC JUMP JUMPDEST POP SWAP1 JUMP JUMPDEST JUMPDEST DUP1 DUP3 GT ISZERO PUSH3 0x207 JUMPI PUSH1 0x0 DUP2 PUSH1 0x0 SWAP1 SSTORE POP PUSH1 0x1 ADD PUSH3 0x1ED JUMP JUMPDEST POP SWAP1 JUMP JUMPDEST PUSH1 0x0 PUSH1 0x40 MLOAD SWAP1 POP SWAP1 JUMP JUMPDEST PUSH1 0x0 DUP1 REVERT JUMPDEST PUSH1 0x0 DUP1 REVERT JUMPDEST PUSH1 0x0 DUP1 REVERT JUMPDEST PUSH1 0x0 DUP1 REVERT JUMPDEST PUSH1 0x0 PUSH1 0x1F NOT PUSH1 0x1F DUP4 ADD AND SWAP1 POP SWAP2 SWAP1 POP JUMP JUMPDEST PUSH32 0x4E487B7100000000000000000000000000000000000000000000000000000000 PUSH1 0x0 MSTORE PUSH1 0x41 PUSH1 0x4 MSTORE PUSH1 0x24 PUSH1 0x0 REVERT JUMPDEST PUSH3 0x274 DUP3 PUSH3 0x229 JUMP JUMPDEST DUP2 ADD DUP2 DUP2 LT PUSH8 0xFFFFFFFFFFFFFFFF DUP3 GT OR ISZERO PUSH3 0x296 JUMPI PUSH3 0x295 PUSH3 0x23A JUMP JUMPDEST JUMPDEST DUP1 PUSH1 0x40 MSTORE POP POP POP JUMP JUMPDEST PUSH1 0x0 PUSH3 0x2AB PUSH3 0x20B JUMP JUMPDEST SWAP1 POP PUSH3 0x2B9 DUP3 DUP3 PUSH3 0x269 JUMP JUMPDEST SWAP2 SWAP1 POP JUMP JUMPDEST PUSH1 0x0 PUSH8 0xFFFFFFFFFFFFFFFF DUP3 GT ISZERO PUSH3 0x2DC JUMPI PUSH3 0x2DB PUSH3 0x23A JUMP JUMPDEST JUMPDEST PUSH3 0x2E7 DUP3 PUSH3 0x229 JUMP JUMPDEST SWAP1 POP PUSH1 0x20 DUP2 ADD SWAP1 POP SWAP2 SWAP1 POP JUMP JUMPDEST PUSH1 0x0 JUMPDEST DUP4 DUP2 LT ISZERO PUSH3 0x314 JUMPI DUP1 DUP3 ADD MLOAD DUP2 DUP5 ADD MSTORE PUSH1 0x20 DUP2 ADD SWAP1 POP PUSH3 0x2F7 JUMP JUMPDEST DUP4 DUP2 GT ISZERO PUSH3 0x324 JUMPI PUSH1 0x0 DUP5 DUP5 ADD MSTORE JUMPDEST POP POP POP POP JUMP JUMPDEST PUSH1 0x0 PUSH3 0x341 PUSH3 0x33B DUP5 PUSH3 0x2BE JUMP JUMPDEST PUSH3 0x29F JUMP JUMPDEST SWAP1 POP DUP3 DUP2 MSTORE PUSH1 0x20 DUP2 ADD DUP5 DUP5 DUP5 ADD GT ISZERO PUSH3 0x360 JUMPI PUSH3 0x35F PUSH3 0x224 JUMP JUMPDEST JUMPDEST PUSH3 0x36D DUP5 DUP3 DUP6 PUSH3 0x2F4 JUMP JUMPDEST POP SWAP4 SWAP3 POP POP POP JUMP JUMPDEST PUSH1 0x0 DUP3 PUSH1 0x1F DUP4 ADD SLT PUSH3 0x38D JUMPI PUSH3 0x38C PUSH3 0x21F JUMP JUMPDEST JUMPDEST DUP2 MLOAD PUSH3 0x39F DUP5 DUP3 PUSH1 0x20 DUP7 ADD PUSH3 0x32A JUMP JUMPDEST SWAP2 POP POP SWAP3 SWAP2 POP POP JUMP JUMPDEST PUSH1 0x0 PUSH20 0xFFFFFFFFFFFFFFFFFFFFFFFFFFFFFFFFFFFFFFFF DUP3 AND SWAP1 POP SWAP2 SWAP1 POP JUMP JUMPDEST PUSH1 0x0 PUSH3 0x3D5 DUP3 PUSH3 0x3A8 JUMP JUMPDEST SWAP1 POP SWAP2 SWAP1 POP JUMP JUMPDEST PUSH3 0x3E7 DUP2 PUSH3 0x3C8 JUMP JUMPDEST DUP2 EQ PUSH3 0x3F3 JUMPI PUSH1 0x0 DUP1 REVERT JUMPDEST POP JUMP JUMPDEST PUSH1 0x0 DUP2 MLOAD SWAP1 POP PUSH3 0x407 DUP2 PUSH3 0x3DC JUMP JUMPDEST SWAP3 SWAP2 POP POP JUMP JUMPDEST PUSH1 0x0 DUP1 PUSH1 0x0 PUSH1 0x60 DUP5 DUP7 SUB SLT ISZERO PUSH3 0x429 JUMPI PUSH3 0x428 PUSH3 0x215 JUMP JUMPDEST JUMPDEST PUSH1 0x0 DUP5 ADD MLOAD PUSH8 0xFFFFFFFFFFFFFFFF DUP2 GT ISZERO PUSH3 0x44A JUMPI PUSH3 0x449 PUSH3 0x21A JUMP JUMPDEST JUMPDEST PUSH3 0x458 DUP7 DUP3 DUP8 ADD PUSH3 0x375 JUMP JUMPDEST SWAP4 POP POP PUSH1 0x20 DUP5 ADD MLOAD PUSH8 0xFFFFFFFFFFFFFFFF DUP2 GT ISZERO PUSH3 0x47C JUMPI PUSH3 0x47B PUSH3 0x21A JUMP JUMPDEST JUMPDEST PUSH3 0x48A DUP7 DUP3 DUP8 ADD PUSH3 0x375 JUMP JUMPDEST SWAP3 POP POP PUSH1 0x40 PUSH3 0x49D DUP7 DUP3 DUP8 ADD PUSH3 0x3F6 JUMP JUMPDEST SWAP2 POP POP SWAP3 POP SWAP3 POP SWAP3 JUMP JUMPDEST PUSH32 0x4E487B7100000000000000000000000000000000000000000000000000000000 PUSH1 0x0 MSTORE PUSH1 0x21 PUSH1 0x4 MSTORE PUSH1 0x24 PUSH1 0x0 REVERT JUMPDEST PUSH32 0x4E487B7100000000000000000000000000000000000000000000000000000000 PUSH1 0x0 MSTORE PUSH1 0x22 PUSH1 0x4 MSTORE PUSH1 0x24 PUSH1 0x0 REVERT JUMPDEST PUSH1 0x0 PUSH1 0x2 DUP3 DIV SWAP1 POP PUSH1 0x1 DUP3 AND DUP1 PUSH3 0x51E JUMPI PUSH1 0x7F DUP3 AND SWAP2 POP JUMPDEST PUSH1 0x20 DUP3 LT DUP2 SUB PUSH3 0x534 JUMPI PUSH3 0x533 PUSH3 0x4D6 JUMP JUMPDEST JUMPDEST POP SWAP2 SWAP1 POP JUMP JUMPDEST PUSH2 0x1677 DUP1 PUSH3 0x54A PUSH1 0x0 CODECOPY PUSH1 0x0 RETURN INVALID PUSH1 0x80 PUSH1 0x40 MSTORE CALLVALUE DUP1 ISZERO PUSH2 0x10 JUMPI PUSH1 0x0 DUP1 REVERT JUMPDEST POP PUSH1 0x4 CALLDATASIZE LT PUSH2 0x88 JUMPI PUSH1 0x0 CALLDATALOAD PUSH1 0xE0 SHR DUP1 PUSH4 0x9A8BF4E0 GT PUSH2 0x5B JUMPI DUP1 PUSH4 0x9A8BF4E0 EQ PUSH2 0x101 JUMPI DUP1 PUSH4 0x9EAB5253 EQ PUSH2 0x11D JUMPI DUP1 PUSH4 0xA3FBBAAE EQ PUSH2 0x13D JUMPI DUP1 PUSH4 0xAE026D95 EQ PUSH2 0x159 JUMPI PUSH2 0x88 JUMP JUMPDEST DUP1 PUSH4 0x1B760719 EQ PUSH2 0x8D JUMPI DUP1 PUSH4 0x481C6A75 EQ PUSH2 0xA9 JUMPI DUP1 PUSH4 0x7DEBF5C6 EQ PUSH2 0xC7 JUMPI DUP1 PUSH4 0x843C608D EQ PUSH2 0xE3 JUMPI JUMPDEST PUSH1 0x0 DUP1 REVERT JUMPDEST PUSH2 0xA7 PUSH1 0x4 DUP1 CALLDATASIZE SUB DUP2 ADD SWAP1 PUSH2 0xA2 SWAP2 SWAP1 PUSH2 0xFDC JUMP JUMPDEST PUSH2 0x175 JUMP JUMPDEST STOP JUMPDEST PUSH2 0xB1 PUSH2 0x327 JUMP JUMPDEST PUSH1 0x40 MLOAD PUSH2 0xBE SWAP2 SWAP1 PUSH2 0x105A JUMP JUMPDEST PUSH1 0x40 MLOAD DUP1 SWAP2 SUB SWAP1 RETURN JUMPDEST PUSH2 0xE1 PUSH1 0x4 DUP1 CALLDATASIZE SUB DUP2 ADD SWAP1 PUSH2 0xDC SWAP2 SWAP1 PUSH2 0xFDC JUMP JUMPDEST PUSH2 0x34D JUMP JUMPDEST STOP JUMPDEST PUSH2 0xEB PUSH2 0x49C JUMP JUMPDEST PUSH1 0x40 MLOAD PUSH2 0xF8 SWAP2 SWAP1 PUSH2 0x10FD JUMP JUMPDEST PUSH1 0x40 MLOAD DUP1 SWAP2 SUB SWAP1 RETURN JUMPDEST PUSH2 0x11B PUSH1 0x4 DUP1 CALLDATASIZE SUB DUP2 ADD SWAP1 PUSH2 0x116 SWAP2 SWAP1 PUSH2 0x111F JUMP JUMPDEST PUSH2 0x5AC JUMP JUMPDEST STOP JUMPDEST PUSH2 0x125 PUSH2 0x7B8 JUMP JUMPDEST PUSH1 0x40 MLOAD PUSH2 0x134 SWAP4 SWAP3 SWAP2 SWAP1 PUSH2 0x13E7 JUMP JUMPDEST PUSH1 0x40 MLOAD DUP1 SWAP2 SUB SWAP1 RETURN JUMPDEST PUSH2 0x157 PUSH1 0x4 DUP1 CALLDATASIZE SUB DUP2 ADD SWAP1 PUSH2 0x152 SWAP2 SWAP1 PUSH2 0x1433 JUMP JUMPDEST PUSH2 0xB6E JUMP JUMPDEST STOP JUMPDEST PUSH2 0x173 PUSH1 0x4 DUP1 CALLDATASIZE SUB DUP2 ADD SWAP1 PUSH2 0x16E SWAP2 SWAP1 PUSH2 0x1460 JUMP JUMPDEST PUSH2 0xC74 JUMP JUMPDEST STOP JUMPDEST PUSH1 0x2 DUP1 DUP2 GT ISZERO PUSH2 0x188 JUMPI PUSH2 0x187 PUSH2 0x14A9 JUMP JUMPDEST JUMPDEST PUSH1 0x3 PUSH1 0x0 CALLER PUSH20 0xFFFFFFFFFFFFFFFFFFFFFFFFFFFFFFFFFFFFFFFF AND PUSH20 0xFFFFFFFFFFFFFFFFFFFFFFFFFFFFFFFFFFFFFFFF AND DUP2 MSTORE PUSH1 0x20 ADD SWAP1 DUP2 MSTORE PUSH1 0x20 ADD PUSH1 0x0 KECCAK256 PUSH1 0x0 SWAP1 SLOAD SWAP1 PUSH2 0x100 EXP SWAP1 DIV PUSH1 0xFF AND PUSH1 0x2 DUP2 GT ISZERO PUSH2 0x1E7 JUMPI PUSH2 0x1E6 PUSH2 0x14A9 JUMP JUMPDEST JUMPDEST LT ISZERO PUSH2 0x1F2 JUMPI PUSH1 0x0 DUP1 REVERT JUMPDEST PUSH1 0x1 DUP4 SWAP1 DUP1 PUSH1 0x1 DUP2 SLOAD ADD DUP1 DUP3 SSTORE DUP1 SWAP2 POP POP PUSH1 0x1 SWAP1 SUB SWAP1 PUSH1 0x0 MSTORE PUSH1 0x20 PUSH1 0x0 KECCAK256 ADD PUSH1 0x0 SWAP1 SWAP2 SWAP1 SWAP2 SWAP1 SWAP2 PUSH2 0x100 EXP DUP2 SLOAD DUP2 PUSH20 0xFFFFFFFFFFFFFFFFFFFFFFFFFFFFFFFFFFFFFFFF MUL NOT AND SWAP1 DUP4 PUSH20 0xFFFFFFFFFFFFFFFFFFFFFFFFFFFFFFFFFFFFFFFF AND MUL OR SWAP1 SSTORE POP DUP1 PUSH1 0x2 DUP2 GT ISZERO PUSH2 0x268 JUMPI PUSH2 0x267 PUSH2 0x14A9 JUMP JUMPDEST JUMPDEST PUSH1 0x3 PUSH1 0x0 DUP6 PUSH20 0xFFFFFFFFFFFFFFFFFFFFFFFFFFFFFFFFFFFFFFFF AND PUSH20 0xFFFFFFFFFFFFFFFFFFFFFFFFFFFFFFFFFFFFFFFF AND DUP2 MSTORE PUSH1 0x20 ADD SWAP1 DUP2 MSTORE PUSH1 0x20 ADD PUSH1 0x0 KECCAK256 PUSH1 0x0 PUSH2 0x100 EXP DUP2 SLOAD DUP2 PUSH1 0xFF MUL NOT AND SWAP1 DUP4 PUSH1 0x2 DUP2 GT ISZERO PUSH2 0x2C9 JUMPI PUSH2 0x2C8 PUSH2 0x14A9 JUMP JUMPDEST JUMPDEST MUL OR SWAP1 SSTORE POP DUP2 PUSH1 0x4 PUSH1 0x0 DUP6 PUSH20 0xFFFFFFFFFFFFFFFFFFFFFFFFFFFFFFFFFFFFFFFF AND PUSH20 0xFFFFFFFFFFFFFFFFFFFFFFFFFFFFFFFFFFFFFFFF AND DUP2 MSTORE PUSH1 0x20 ADD SWAP1 DUP2 MSTORE PUSH1 0x20 ADD PUSH1 0x0 KECCAK256 SWAP1 DUP1 MLOAD SWAP1 PUSH1 0x20 ADD SWAP1 PUSH2 0x321 SWAP3 SWAP2 SWAP1 PUSH2 0xD0B JUMP JUMPDEST POP POP POP POP JUMP JUMPDEST PUSH1 0x2 PUSH1 0x0 SWAP1 SLOAD SWAP1 PUSH2 0x100 EXP SWAP1 DIV PUSH20 0xFFFFFFFFFFFFFFFFFFFFFFFFFFFFFFFFFFFFFFFF AND DUP2 JUMP JUMPDEST PUSH1 0x2 DUP1 DUP2 GT ISZERO PUSH2 0x360 JUMPI PUSH2 0x35F PUSH2 0x14A9 JUMP JUMPDEST JUMPDEST PUSH1 0x3 PUSH1 0x0 CALLER PUSH20 0xFFFFFFFFFFFFFFFFFFFFFFFFFFFFFFFFFFFFFFFF AND PUSH20 0xFFFFFFFFFFFFFFFFFFFFFFFFFFFFFFFFFFFFFFFF AND DUP2 MSTORE PUSH1 0x20 ADD SWAP1 DUP2 MSTORE PUSH1 0x20 ADD PUSH1 0x0 KECCAK256 PUSH1 0x0 SWAP1 SLOAD SWAP1 PUSH2 0x100 EXP SWAP1 DIV PUSH1 0xFF AND PUSH1 0x2 DUP2 GT ISZERO PUSH2 0x3BF JUMPI PUSH2 0x3BE PUSH2 0x14A9 JUMP JUMPDEST JUMPDEST LT ISZERO PUSH2 0x3CA JUMPI PUSH1 0x0 DUP1 REVERT JUMPDEST DUP2 PUSH1 0x4 PUSH1 0x0 DUP6 PUSH20 0xFFFFFFFFFFFFFFFFFFFFFFFFFFFFFFFFFFFFFFFF AND PUSH20 0xFFFFFFFFFFFFFFFFFFFFFFFFFFFFFFFFFFFFFFFF AND DUP2 MSTORE PUSH1 0x20 ADD SWAP1 DUP2 MSTORE PUSH1 0x20 ADD PUSH1 0x0 KECCAK256 SWAP1 DUP1 MLOAD SWAP1 PUSH1 0x20 ADD SWAP1 PUSH2 0x41D SWAP3 SWAP2 SWAP1 PUSH2 0xD0B JUMP JUMPDEST POP DUP1 PUSH1 0x2 DUP2 GT ISZERO PUSH2 0x431 JUMPI PUSH2 0x430 PUSH2 0x14A9 JUMP JUMPDEST JUMPDEST PUSH1 0x3 PUSH1 0x0 DUP6 PUSH20 0xFFFFFFFFFFFFFFFFFFFFFFFFFFFFFFFFFFFFFFFF AND PUSH20 0xFFFFFFFFFFFFFFFFFFFFFFFFFFFFFFFFFFFFFFFF AND DUP2 MSTORE PUSH1 0x20 ADD SWAP1 DUP2 MSTORE PUSH1 0x20 ADD PUSH1 0x0 KECCAK256 PUSH1 0x0 PUSH2 0x100 EXP DUP2 SLOAD DUP2 PUSH1 0xFF MUL NOT AND SWAP1 DUP4 PUSH1 0x2 DUP2 GT ISZERO PUSH2 0x492 JUMPI PUSH2 0x491 PUSH2 0x14A9 JUMP JUMPDEST JUMPDEST MUL OR SWAP1 SSTORE POP POP POP POP JUMP JUMPDEST PUSH1 0x60 PUSH1 0x1 PUSH1 0x2 DUP2 GT ISZERO PUSH2 0x4B2 JUMPI PUSH2 0x4B1 PUSH2 0x14A9 JUMP JUMPDEST JUMPDEST PUSH1 0x3 PUSH1 0x0 CALLER PUSH20 0xFFFFFFFFFFFFFFFFFFFFFFFFFFFFFFFFFFFFFFFF AND PUSH20 0xFFFFFFFFFFFFFFFFFFFFFFFFFFFFFFFFFFFFFFFF AND DUP2 MSTORE PUSH1 0x20 ADD SWAP1 DUP2 MSTORE PUSH1 0x20 ADD PUSH1 0x0 KECCAK256 PUSH1 0x0 SWAP1 SLOAD SWAP1 PUSH2 0x100 EXP SWAP1 DIV PUSH1 0xFF AND PUSH1 0x2 DUP2 GT ISZERO PUSH2 0x511 JUMPI PUSH2 0x510 PUSH2 0x14A9 JUMP JUMPDEST JUMPDEST LT ISZERO PUSH2 0x51C JUMPI PUSH1 0x0 DUP1 REVERT JUMPDEST PUSH1 0x0 DUP1 SLOAD PUSH2 0x529 SWAP1 PUSH2 0x1507 JUMP JUMPDEST DUP1 PUSH1 0x1F ADD PUSH1 0x20 DUP1 SWAP2 DIV MUL PUSH1 0x20 ADD PUSH1 0x40 MLOAD SWAP1 DUP2 ADD PUSH1 0x40 MSTORE DUP1 SWAP3 SWAP2 SWAP1 DUP2 DUP2 MSTORE PUSH1 0x20 ADD DUP3 DUP1 SLOAD PUSH2 0x555 SWAP1 PUSH2 0x1507 JUMP JUMPDEST DUP1 ISZERO PUSH2 0x5A2 JUMPI DUP1 PUSH1 0x1F LT PUSH2 0x577 JUMPI PUSH2 0x100 DUP1 DUP4 SLOAD DIV MUL DUP4 MSTORE SWAP2 PUSH1 0x20 ADD SWAP2 PUSH2 0x5A2 JUMP JUMPDEST DUP3 ADD SWAP2 SWAP1 PUSH1 0x0 MSTORE PUSH1 0x20 PUSH1 0x0 KECCAK256 SWAP1 JUMPDEST DUP2 SLOAD DUP2 MSTORE SWAP1 PUSH1 0x1 ADD SWAP1 PUSH1 0x20 ADD DUP1 DUP4 GT PUSH2 0x585 JUMPI DUP3 SWAP1 SUB PUSH1 0x1F AND DUP3 ADD SWAP2 JUMPDEST POP POP POP POP POP SWAP1 POP SWAP1 JUMP JUMPDEST PUSH1 0x2 DUP1 DUP2 GT ISZERO PUSH2 0x5BF JUMPI PUSH2 0x5BE PUSH2 0x14A9 JUMP JUMPDEST JUMPDEST PUSH1 0x3 PUSH1 0x0 CALLER PUSH20 0xFFFFFFFFFFFFFFFFFFFFFFFFFFFFFFFFFFFFFFFF AND PUSH20 0xFFFFFFFFFFFFFFFFFFFFFFFFFFFFFFFFFFFFFFFF AND DUP2 MSTORE PUSH1 0x20 ADD SWAP1 DUP2 MSTORE PUSH1 0x20 ADD PUSH1 0x0 KECCAK256 PUSH1 0x0 SWAP1 SLOAD SWAP1 PUSH2 0x100 EXP SWAP1 DIV PUSH1 0xFF AND PUSH1 0x2 DUP2 GT ISZERO PUSH2 0x61E JUMPI PUSH2 0x61D PUSH2 0x14A9 JUMP JUMPDEST JUMPDEST LT ISZERO PUSH2 0x629 JUMPI PUSH1 0x0 DUP1 REVERT JUMPDEST PUSH1 0x3 PUSH1 0x0 DUP3 PUSH20 0xFFFFFFFFFFFFFFFFFFFFFFFFFFFFFFFFFFFFFFFF AND PUSH20 0xFFFFFFFFFFFFFFFFFFFFFFFFFFFFFFFFFFFFFFFF AND DUP2 MSTORE PUSH1 0x20 ADD SWAP1 DUP2 MSTORE PUSH1 0x20 ADD PUSH1 0x0 KECCAK256 PUSH1 0x0 PUSH2 0x100 EXP DUP2 SLOAD SWAP1 PUSH1 0xFF MUL NOT AND SWAP1 SSTORE PUSH1 0x4 PUSH1 0x0 DUP3 PUSH20 0xFFFFFFFFFFFFFFFFFFFFFFFFFFFFFFFFFFFFFFFF AND PUSH20 0xFFFFFFFFFFFFFFFFFFFFFFFFFFFFFFFFFFFFFFFF AND DUP2 MSTORE PUSH1 0x20 ADD SWAP1 DUP2 MSTORE PUSH1 0x20 ADD PUSH1 0x0 KECCAK256 PUSH1 0x0 PUSH2 0x6C3 SWAP2 SWAP1 PUSH2 0xD91 JUMP JUMPDEST PUSH1 0x1 DUP1 DUP1 DUP1 SLOAD SWAP1 POP PUSH2 0x6D5 SWAP2 SWAP1 PUSH2 0x1567 JUMP JUMPDEST DUP2 SLOAD DUP2 LT PUSH2 0x6E6 JUMPI PUSH2 0x6E5 PUSH2 0x159B JUMP JUMPDEST JUMPDEST SWAP1 PUSH1 0x0 MSTORE PUSH1 0x20 PUSH1 0x0 KECCAK256 ADD PUSH1 0x0 SWAP1 SLOAD SWAP1 PUSH2 0x100 EXP SWAP1 DIV PUSH20 0xFFFFFFFFFFFFFFFFFFFFFFFFFFFFFFFFFFFFFFFF AND PUSH1 0x1 DUP4 DUP2 SLOAD DUP2 LT PUSH2 0x725 JUMPI PUSH2 0x724 PUSH2 0x159B JUMP JUMPDEST JUMPDEST SWAP1 PUSH1 0x0 MSTORE PUSH1 0x20 PUSH1 0x0 KECCAK256 ADD PUSH1 0x0 PUSH2 0x100 EXP DUP2 SLOAD DUP2 PUSH20 0xFFFFFFFFFFFFFFFFFFFFFFFFFFFFFFFFFFFFFFFF MUL NOT AND SWAP1 DUP4 PUSH20 0xFFFFFFFFFFFFFFFFFFFFFFFFFFFFFFFFFFFFFFFF AND MUL OR SWAP1 SSTORE POP PUSH1 0x1 DUP1 SLOAD DUP1 PUSH2 0x77F JUMPI PUSH2 0x77E PUSH2 0x15CA JUMP JUMPDEST JUMPDEST PUSH1 0x1 SWAP1 SUB DUP2 DUP2 SWAP1 PUSH1 0x0 MSTORE PUSH1 0x20 PUSH1 0x0 KECCAK256 ADD PUSH1 0x0 PUSH2 0x100 EXP DUP2 SLOAD SWAP1 PUSH20 0xFFFFFFFFFFFFFFFFFFFFFFFFFFFFFFFFFFFFFFFF MUL NOT AND SWAP1 SSTORE SWAP1 SSTORE POP POP JUMP JUMPDEST PUSH1 0x60 DUP1 PUSH1 0x60 PUSH1 0x1 PUSH1 0x2 DUP2 GT ISZERO PUSH2 0x7D1 JUMPI PUSH2 0x7D0 PUSH2 0x14A9 JUMP JUMPDEST JUMPDEST PUSH1 0x3 PUSH1 0x0 CALLER PUSH20 0xFFFFFFFFFFFFFFFFFFFFFFFFFFFFFFFFFFFFFFFF AND PUSH20 0xFFFFFFFFFFFFFFFFFFFFFFFFFFFFFFFFFFFFFFFF AND DUP2 MSTORE PUSH1 0x20 ADD SWAP1 DUP2 MSTORE PUSH1 0x20 ADD PUSH1 0x0 KECCAK256 PUSH1 0x0 SWAP1 SLOAD SWAP1 PUSH2 0x100 EXP SWAP1 DIV PUSH1 0xFF AND PUSH1 0x2 DUP2 GT ISZERO PUSH2 0x830 JUMPI PUSH2 0x82F PUSH2 0x14A9 JUMP JUMPDEST JUMPDEST LT ISZERO PUSH2 0x83B JUMPI PUSH1 0x0 DUP1 REVERT JUMPDEST PUSH1 0x0 PUSH1 0x1 DUP1 SLOAD SWAP1 POP SWAP1 POP PUSH1 0x1 DUP1 SLOAD DUP1 PUSH1 0x20 MUL PUSH1 0x20 ADD PUSH1 0x40 MLOAD SWAP1 DUP2 ADD PUSH1 0x40 MSTORE DUP1 SWAP3 SWAP2 SWAP1 DUP2 DUP2 MSTORE PUSH1 0x20 ADD DUP3 DUP1 SLOAD DUP1 ISZERO PUSH2 0x8C7 JUMPI PUSH1 0x20 MUL DUP3 ADD SWAP2 SWAP1 PUSH1 0x0 MSTORE PUSH1 0x20 PUSH1 0x0 KECCAK256 SWAP1 JUMPDEST DUP2 PUSH1 0x0 SWAP1 SLOAD SWAP1 PUSH2 0x100 EXP SWAP1 DIV PUSH20 0xFFFFFFFFFFFFFFFFFFFFFFFFFFFFFFFFFFFFFFFF AND PUSH20 0xFFFFFFFFFFFFFFFFFFFFFFFFFFFFFFFFFFFFFFFF AND DUP2 MSTORE PUSH1 0x20 ADD SWAP1 PUSH1 0x1 ADD SWAP1 DUP1 DUP4 GT PUSH2 0x87D JUMPI JUMPDEST POP POP POP POP POP SWAP4 POP DUP1 PUSH8 0xFFFFFFFFFFFFFFFF DUP2 GT ISZERO PUSH2 0x8E8 JUMPI PUSH2 0x8E7 PUSH2 0xE7B JUMP JUMPDEST JUMPDEST PUSH1 0x40 MLOAD SWAP1 DUP1 DUP3 MSTORE DUP1 PUSH1 0x20 MUL PUSH1 0x20 ADD DUP3 ADD PUSH1 0x40 MSTORE DUP1 ISZERO PUSH2 0x91B JUMPI DUP2 PUSH1 0x20 ADD JUMPDEST PUSH1 0x60 DUP2 MSTORE PUSH1 0x20 ADD SWAP1 PUSH1 0x1 SWAP1 SUB SWAP1 DUP2 PUSH2 0x906 JUMPI SWAP1 POP JUMPDEST POP SWAP3 POP DUP1 PUSH8 0xFFFFFFFFFFFFFFFF DUP2 GT ISZERO PUSH2 0x938 JUMPI PUSH2 0x937 PUSH2 0xE7B JUMP JUMPDEST JUMPDEST PUSH1 0x40 MLOAD SWAP1 DUP1 DUP3 MSTORE DUP1 PUSH1 0x20 MUL PUSH1 0x20 ADD DUP3 ADD PUSH1 0x40 MSTORE DUP1 ISZERO PUSH2 0x966 JUMPI DUP2 PUSH1 0x20 ADD PUSH1 0x20 DUP3 MUL DUP1 CALLDATASIZE DUP4 CALLDATACOPY DUP1 DUP3 ADD SWAP2 POP POP SWAP1 POP JUMPDEST POP SWAP2 POP PUSH1 0x0 JUMPDEST DUP2 DUP2 LT ISZERO PUSH2 0xB67 JUMPI PUSH1 0x4 PUSH1 0x0 PUSH1 0x1 DUP4 DUP2 SLOAD DUP2 LT PUSH2 0x98C JUMPI PUSH2 0x98B PUSH2 0x159B JUMP JUMPDEST JUMPDEST SWAP1 PUSH1 0x0 MSTORE PUSH1 0x20 PUSH1 0x0 KECCAK256 ADD PUSH1 0x0 SWAP1 SLOAD SWAP1 PUSH2 0x100 EXP SWAP1 DIV PUSH20 0xFFFFFFFFFFFFFFFFFFFFFFFFFFFFFFFFFFFFFFFF AND PUSH20 0xFFFFFFFFFFFFFFFFFFFFFFFFFFFFFFFFFFFFFFFF AND PUSH20 0xFFFFFFFFFFFFFFFFFFFFFFFFFFFFFFFFFFFFFFFF AND DUP2 MSTORE PUSH1 0x20 ADD SWAP1 DUP2 MSTORE PUSH1 0x20 ADD PUSH1 0x0 KECCAK256 DUP1 SLOAD PUSH2 0x9FC SWAP1 PUSH2 0x1507 JUMP JUMPDEST DUP1 PUSH1 0x1F ADD PUSH1 0x20 DUP1 SWAP2 DIV MUL PUSH1 0x20 ADD PUSH1 0x40 MLOAD SWAP1 DUP2 ADD PUSH1 0x40 MSTORE DUP1 SWAP3 SWAP2 SWAP1 DUP2 DUP2 MSTORE PUSH1 0x20 ADD DUP3 DUP1 SLOAD PUSH2 0xA28 SWAP1 PUSH2 0x1507 JUMP JUMPDEST DUP1 ISZERO PUSH2 0xA75 JUMPI DUP1 PUSH1 0x1F LT PUSH2 0xA4A JUMPI PUSH2 0x100 DUP1 DUP4 SLOAD DIV MUL DUP4 MSTORE SWAP2 PUSH1 0x20 ADD SWAP2 PUSH2 0xA75 JUMP JUMPDEST DUP3 ADD SWAP2 SWAP1 PUSH1 0x0 MSTORE PUSH1 0x20 PUSH1 0x0 KECCAK256 SWAP1 JUMPDEST DUP2 SLOAD DUP2 MSTORE SWAP1 PUSH1 0x1 ADD SWAP1 PUSH1 0x20 ADD DUP1 DUP4 GT PUSH2 0xA58 JUMPI DUP3 SWAP1 SUB PUSH1 0x1F AND DUP3 ADD SWAP2 JUMPDEST POP POP POP POP POP DUP5 DUP3 DUP2 MLOAD DUP2 LT PUSH2 0xA8D JUMPI PUSH2 0xA8C PUSH2 0x159B JUMP JUMPDEST JUMPDEST PUSH1 0x20 MUL PUSH1 0x20 ADD ADD DUP2 SWAP1 MSTORE POP PUSH1 0x3 PUSH1 0x0 PUSH1 0x1 DUP4 DUP2 SLOAD DUP2 LT PUSH2 0xAB0 JUMPI PUSH2 0xAAF PUSH2 0x159B JUMP JUMPDEST JUMPDEST SWAP1 PUSH1 0x0 MSTORE PUSH1 0x20 PUSH1 0x0 KECCAK256 ADD PUSH1 0x0 SWAP1 SLOAD SWAP1 PUSH2 0x100 EXP SWAP1 DIV PUSH20 0xFFFFFFFFFFFFFFFFFFFFFFFFFFFFFFFFFFFFFFFF AND PUSH20 0xFFFFFFFFFFFFFFFFFFFFFFFFFFFFFFFFFFFFFFFF AND PUSH20 0xFFFFFFFFFFFFFFFFFFFFFFFFFFFFFFFFFFFFFFFF AND DUP2 MSTORE PUSH1 0x20 ADD SWAP1 DUP2 MSTORE PUSH1 0x20 ADD PUSH1 0x0 KECCAK256 PUSH1 0x0 SWAP1 SLOAD SWAP1 PUSH2 0x100 EXP SWAP1 DIV PUSH1 0xFF AND PUSH1 0x2 DUP2 GT ISZERO PUSH2 0xB35 JUMPI PUSH2 0xB34 PUSH2 0x14A9 JUMP JUMPDEST JUMPDEST DUP4 DUP3 DUP2 MLOAD DUP2 LT PUSH2 0xB48 JUMPI PUSH2 0xB47 PUSH2 0x159B JUMP JUMPDEST JUMPDEST PUSH1 0x20 MUL PUSH1 0x20 ADD ADD DUP2 DUP2 MSTORE POP POP DUP1 DUP1 PUSH2 0xB5F SWAP1 PUSH2 0x15F9 JUMP JUMPDEST SWAP2 POP POP PUSH2 0x96C JUMP JUMPDEST POP POP SWAP1 SWAP2 SWAP3 JUMP JUMPDEST PUSH1 0x2 PUSH1 0x0 SWAP1 SLOAD SWAP1 PUSH2 0x100 EXP SWAP1 DIV PUSH20 0xFFFFFFFFFFFFFFFFFFFFFFFFFFFFFFFFFFFFFFFF AND PUSH20 0xFFFFFFFFFFFFFFFFFFFFFFFFFFFFFFFFFFFFFFFF AND CALLER PUSH20 0xFFFFFFFFFFFFFFFFFFFFFFFFFFFFFFFFFFFFFFFF AND EQ PUSH2 0xBC8 JUMPI PUSH1 0x0 DUP1 REVERT JUMPDEST DUP1 PUSH1 0x2 PUSH1 0x0 PUSH2 0x100 EXP DUP2 SLOAD DUP2 PUSH20 0xFFFFFFFFFFFFFFFFFFFFFFFFFFFFFFFFFFFFFFFF MUL NOT AND SWAP1 DUP4 PUSH20 0xFFFFFFFFFFFFFFFFFFFFFFFFFFFFFFFFFFFFFFFF AND MUL OR SWAP1 SSTORE POP PUSH1 0x2 PUSH1 0x3 PUSH1 0x0 DUP4 PUSH20 0xFFFFFFFFFFFFFFFFFFFFFFFFFFFFFFFFFFFFFFFF AND PUSH20 0xFFFFFFFFFFFFFFFFFFFFFFFFFFFFFFFFFFFFFFFF AND DUP2 MSTORE PUSH1 0x20 ADD SWAP1 DUP2 MSTORE PUSH1 0x20 ADD PUSH1 0x0 KECCAK256 PUSH1 0x0 PUSH2 0x100 EXP DUP2 SLOAD DUP2 PUSH1 0xFF MUL NOT AND SWAP1 DUP4 PUSH1 0x2 DUP2 GT ISZERO PUSH2 0xC6C JUMPI PUSH2 0xC6B PUSH2 0x14A9 JUMP JUMPDEST JUMPDEST MUL OR SWAP1 SSTORE POP POP JUMP JUMPDEST PUSH1 0x2 DUP1 DUP2 GT ISZERO PUSH2 0xC87 JUMPI PUSH2 0xC86 PUSH2 0x14A9 JUMP JUMPDEST JUMPDEST PUSH1 0x3 PUSH1 0x0 CALLER PUSH20 0xFFFFFFFFFFFFFFFFFFFFFFFFFFFFFFFFFFFFFFFF AND PUSH20 0xFFFFFFFFFFFFFFFFFFFFFFFFFFFFFFFFFFFFFFFF AND DUP2 MSTORE PUSH1 0x20 ADD SWAP1 DUP2 MSTORE PUSH1 0x20 ADD PUSH1 0x0 KECCAK256 PUSH1 0x0 SWAP1 SLOAD SWAP1 PUSH2 0x100 EXP SWAP1 DIV PUSH1 0xFF AND PUSH1 0x2 DUP2 GT ISZERO PUSH2 0xCE6 JUMPI PUSH2 0xCE5 PUSH2 0x14A9 JUMP JUMPDEST JUMPDEST LT ISZERO PUSH2 0xCF1 JUMPI PUSH1 0x0 DUP1 REVERT JUMPDEST DUP1 PUSH1 0x0 SWAP1 DUP1 MLOAD SWAP1 PUSH1 0x20 ADD SWAP1 PUSH2 0xD07 SWAP3 SWAP2 SWAP1 PUSH2 0xD0B JUMP JUMPDEST POP POP JUMP JUMPDEST DUP3 DUP1 SLOAD PUSH2 0xD17 SWAP1 PUSH2 0x1507 JUMP JUMPDEST SWAP1 PUSH1 0x0 MSTORE PUSH1 0x20 PUSH1 0x0 KECCAK256 SWAP1 PUSH1 0x1F ADD PUSH1 0x20 SWAP1 DIV DUP2 ADD SWAP3 DUP3 PUSH2 0xD39 JUMPI PUSH1 0x0 DUP6 SSTORE PUSH2 0xD80 JUMP JUMPDEST DUP3 PUSH1 0x1F LT PUSH2 0xD52 JUMPI DUP1 MLOAD PUSH1 0xFF NOT AND DUP4 DUP1 ADD OR DUP6 SSTORE PUSH2 0xD80 JUMP JUMPDEST DUP3 DUP1 ADD PUSH1 0x1 ADD DUP6 SSTORE DUP3 ISZERO PUSH2 0xD80 JUMPI SWAP2 DUP3 ADD JUMPDEST DUP3 DUP2 GT ISZERO PUSH2 0xD7F JUMPI DUP3 MLOAD DUP3 SSTORE SWAP2 PUSH1 0x20 ADD SWAP2 SWAP1 PUSH1 0x1 ADD SWAP1 PUSH2 0xD64 JUMP JUMPDEST JUMPDEST POP SWAP1 POP PUSH2 0xD8D SWAP2 SWAP1 PUSH2 0xDD1 JUMP JUMPDEST POP SWAP1 JUMP JUMPDEST POP DUP1 SLOAD PUSH2 0xD9D SWAP1 PUSH2 0x1507 JUMP JUMPDEST PUSH1 0x0 DUP3 SSTORE DUP1 PUSH1 0x1F LT PUSH2 0xDAF JUMPI POP PUSH2 0xDCE JUMP JUMPDEST PUSH1 0x1F ADD PUSH1 0x20 SWAP1 DIV SWAP1 PUSH1 0x0 MSTORE PUSH1 0x20 PUSH1 0x0 KECCAK256 SWAP1 DUP2 ADD SWAP1 PUSH2 0xDCD SWAP2 SWAP1 PUSH2 0xDD1 JUMP JUMPDEST JUMPDEST POP JUMP JUMPDEST JUMPDEST DUP1 DUP3 GT ISZERO PUSH2 0xDEA JUMPI PUSH1 0x0 DUP2 PUSH1 0x0 SWAP1 SSTORE POP PUSH1 0x1 ADD PUSH2 0xDD2 JUMP JUMPDEST POP SWAP1 JUMP JUMPDEST PUSH1 0x0 PUSH1 0x40 MLOAD SWAP1 POP SWAP1 JUMP JUMPDEST PUSH1 0x0 DUP1 REVERT JUMPDEST PUSH1 0x0 DUP1 REVERT JUMPDEST PUSH1 0x0 PUSH20 0xFFFFFFFFFFFFFFFFFFFFFFFFFFFFFFFFFFFFFFFF DUP3 AND SWAP1 POP SWAP2 SWAP1 POP JUMP JUMPDEST PUSH1 0x0 PUSH2 0xE2D DUP3 PUSH2 0xE02 JUMP JUMPDEST SWAP1 POP SWAP2 SWAP1 POP JUMP JUMPDEST PUSH2 0xE3D DUP2 PUSH2 0xE22 JUMP JUMPDEST DUP2 EQ PUSH2 0xE48 JUMPI PUSH1 0x0 DUP1 REVERT JUMPDEST POP JUMP JUMPDEST PUSH1 0x0 DUP2 CALLDATALOAD SWAP1 POP PUSH2 0xE5A DUP2 PUSH2 0xE34 JUMP JUMPDEST SWAP3 SWAP2 POP POP JUMP JUMPDEST PUSH1 0x0 DUP1 REVERT JUMPDEST PUSH1 0x0 DUP1 REVERT JUMPDEST PUSH1 0x0 PUSH1 0x1F NOT PUSH1 0x1F DUP4 ADD AND SWAP1 POP SWAP2 SWAP1 POP JUMP JUMPDEST PUSH32 0x4E487B7100000000000000000000000000000000000000000000000000000000 PUSH1 0x0 MSTORE PUSH1 0x41 PUSH1 0x4 MSTORE PUSH1 0x24 PUSH1 0x0 REVERT JUMPDEST PUSH2 0xEB3 DUP3 PUSH2 0xE6A JUMP JUMPDEST DUP2 ADD DUP2 DUP2 LT PUSH8 0xFFFFFFFFFFFFFFFF DUP3 GT OR ISZERO PUSH2 0xED2 JUMPI PUSH2 0xED1 PUSH2 0xE7B JUMP JUMPDEST JUMPDEST DUP1 PUSH1 0x40 MSTORE POP POP POP JUMP JUMPDEST PUSH1 0x0 PUSH2 0xEE5 PUSH2 0xDEE JUMP JUMPDEST SWAP1 POP PUSH2 0xEF1 DUP3 DUP3 PUSH2 0xEAA JUMP JUMPDEST SWAP2 SWAP1 POP JUMP JUMPDEST PUSH1 0x0 PUSH8 0xFFFFFFFFFFFFFFFF DUP3 GT ISZERO PUSH2 0xF11 JUMPI PUSH2 0xF10 PUSH2 0xE7B JUMP JUMPDEST JUMPDEST PUSH2 0xF1A DUP3 PUSH2 0xE6A JUMP JUMPDEST SWAP1 POP PUSH1 0x20 DUP2 ADD SWAP1 POP SWAP2 SWAP1 POP JUMP JUMPDEST DUP3 DUP2 DUP4 CALLDATACOPY PUSH1 0x0 DUP4 DUP4 ADD MSTORE POP POP POP JUMP JUMPDEST PUSH1 0x0 PUSH2 0xF49 PUSH2 0xF44 DUP5 PUSH2 0xEF6 JUMP JUMPDEST PUSH2 0xEDB JUMP JUMPDEST SWAP1 POP DUP3 DUP2 MSTORE PUSH1 0x20 DUP2 ADD DUP5 DUP5 DUP5 ADD GT ISZERO PUSH2 0xF65 JUMPI PUSH2 0xF64 PUSH2 0xE65 JUMP JUMPDEST JUMPDEST PUSH2 0xF70 DUP5 DUP3 DUP6 PUSH2 0xF27 JUMP JUMPDEST POP SWAP4 SWAP3 POP POP POP JUMP JUMPDEST PUSH1 0x0 DUP3 PUSH1 0x1F DUP4 ADD SLT PUSH2 0xF8D JUMPI PUSH2 0xF8C PUSH2 0xE60 JUMP JUMPDEST JUMPDEST DUP2 CALLDATALOAD PUSH2 0xF9D DUP5 DUP3 PUSH1 0x20 DUP7 ADD PUSH2 0xF36 JUMP JUMPDEST SWAP2 POP POP SWAP3 SWAP2 POP POP JUMP JUMPDEST PUSH1 0x0 DUP2 SWAP1 POP SWAP2 SWAP1 POP JUMP JUMPDEST PUSH2 0xFB9 DUP2 PUSH2 0xFA6 JUMP JUMPDEST DUP2 EQ PUSH2 0xFC4 JUMPI PUSH1 0x0 DUP1 REVERT JUMPDEST POP JUMP JUMPDEST PUSH1 0x0 DUP2 CALLDATALOAD SWAP1 POP PUSH2 0xFD6 DUP2 PUSH2 0xFB0 JUMP JUMPDEST SWAP3 SWAP2 POP POP JUMP JUMPDEST PUSH1 0x0 DUP1 PUSH1 0x0 PUSH1 0x60 DUP5 DUP7 SUB SLT ISZERO PUSH2 0xFF5 JUMPI PUSH2 0xFF4 PUSH2 0xDF8 JUMP JUMPDEST JUMPDEST PUSH1 0x0 PUSH2 0x1003 DUP7 DUP3 DUP8 ADD PUSH2 0xE4B JUMP JUMPDEST SWAP4 POP POP PUSH1 0x20 DUP5 ADD CALLDATALOAD PUSH8 0xFFFFFFFFFFFFFFFF DUP2 GT ISZERO PUSH2 0x1024 JUMPI PUSH2 0x1023 PUSH2 0xDFD JUMP JUMPDEST JUMPDEST PUSH2 0x1030 DUP7 DUP3 DUP8 ADD PUSH2 0xF78 JUMP JUMPDEST SWAP3 POP POP PUSH1 0x40 PUSH2 0x1041 DUP7 DUP3 DUP8 ADD PUSH2 0xFC7 JUMP JUMPDEST SWAP2 POP POP SWAP3 POP SWAP3 POP SWAP3 JUMP JUMPDEST PUSH2 0x1054 DUP2 PUSH2 0xE22 JUMP JUMPDEST DUP3 MSTORE POP POP JUMP JUMPDEST PUSH1 0x0 PUSH1 0x20 DUP3 ADD SWAP1 POP PUSH2 0x106F PUSH1 0x0 DUP4 ADD DUP5 PUSH2 0x104B JUMP JUMPDEST SWAP3 SWAP2 POP POP JUMP JUMPDEST PUSH1 0x0 DUP2 MLOAD SWAP1 POP SWAP2 SWAP1 POP JUMP JUMPDEST PUSH1 0x0 DUP3 DUP3 MSTORE PUSH1 0x20 DUP3 ADD SWAP1 POP SWAP3 SWAP2 POP POP JUMP JUMPDEST PUSH1 0x0 JUMPDEST DUP4 DUP2 LT ISZERO PUSH2 0x10AF JUMPI DUP1 DUP3 ADD MLOAD DUP2 DUP5 ADD MSTORE PUSH1 0x20 DUP2 ADD SWAP1 POP PUSH2 0x1094 JUMP JUMPDEST DUP4 DUP2 GT ISZERO PUSH2 0x10BE JUMPI PUSH1 0x0 DUP5 DUP5 ADD MSTORE JUMPDEST POP POP POP POP JUMP JUMPDEST PUSH1 0x0 PUSH2 0x10CF DUP3 PUSH2 0x1075 JUMP JUMPDEST PUSH2 0x10D9 DUP2 DUP6 PUSH2 0x1080 JUMP JUMPDEST SWAP4 POP PUSH2 0x10E9 DUP2 DUP6 PUSH1 0x20 DUP7 ADD PUSH2 0x1091 JUMP JUMPDEST PUSH2 0x10F2 DUP2 PUSH2 0xE6A JUMP JUMPDEST DUP5 ADD SWAP2 POP POP SWAP3 SWAP2 POP POP JUMP JUMPDEST PUSH1 0x0 PUSH1 0x20 DUP3 ADD SWAP1 POP DUP2 DUP2 SUB PUSH1 0x0 DUP4 ADD MSTORE PUSH2 0x1117 DUP2 DUP5 PUSH2 0x10C4 JUMP JUMPDEST SWAP1 POP SWAP3 SWAP2 POP POP JUMP JUMPDEST PUSH1 0x0 DUP1 PUSH1 0x40 DUP4 DUP6 SUB SLT ISZERO PUSH2 0x1136 JUMPI PUSH2 0x1135 PUSH2 0xDF8 JUMP JUMPDEST JUMPDEST PUSH1 0x0 PUSH2 0x1144 DUP6 DUP3 DUP7 ADD PUSH2 0xFC7 JUMP JUMPDEST SWAP3 POP POP PUSH1 0x20 PUSH2 0x1155 DUP6 DUP3 DUP7 ADD PUSH2 0xE4B JUMP JUMPDEST SWAP2 POP POP SWAP3 POP SWAP3 SWAP1 POP JUMP JUMPDEST PUSH1 0x0 DUP2 MLOAD SWAP1 POP SWAP2 SWAP1 POP JUMP JUMPDEST PUSH1 0x0 DUP3 DUP3 MSTORE PUSH1 0x20 DUP3 ADD SWAP1 POP SWAP3 SWAP2 POP POP JUMP JUMPDEST PUSH1 0x0 DUP2 SWAP1 POP PUSH1 0x20 DUP3 ADD SWAP1 POP SWAP2 SWAP1 POP JUMP JUMPDEST PUSH2 0x1194 DUP2 PUSH2 0xE22 JUMP JUMPDEST DUP3 MSTORE POP POP JUMP JUMPDEST PUSH1 0x0 PUSH2 0x11A6 DUP4 DUP4 PUSH2 0x118B JUMP JUMPDEST PUSH1 0x20 DUP4 ADD SWAP1 POP SWAP3 SWAP2 POP POP JUMP JUMPDEST PUSH1 0x0 PUSH1 0x20 DUP3 ADD SWAP1 POP SWAP2 SWAP1 POP JUMP JUMPDEST PUSH1 0x0 PUSH2 0x11CA DUP3 PUSH2 0x115F JUMP JUMPDEST PUSH2 0x11D4 DUP2 DUP6 PUSH2 0x116A JUMP JUMPDEST SWAP4 POP PUSH2 0x11DF DUP4 PUSH2 0x117B JUMP JUMPDEST DUP1 PUSH1 0x0 JUMPDEST DUP4 DUP2 LT ISZERO PUSH2 0x1210 JUMPI DUP2 MLOAD PUSH2 0x11F7 DUP9 DUP3 PUSH2 0x119A JUMP JUMPDEST SWAP8 POP PUSH2 0x1202 DUP4 PUSH2 0x11B2 JUMP JUMPDEST SWAP3 POP POP PUSH1 0x1 DUP2 ADD SWAP1 POP PUSH2 0x11E3 JUMP JUMPDEST POP DUP6 SWAP4 POP POP POP POP SWAP3 SWAP2 POP POP JUMP JUMPDEST PUSH1 0x0 DUP2 MLOAD SWAP1 POP SWAP2 SWAP1 POP JUMP JUMPDEST PUSH1 0x0 DUP3 DUP3 MSTORE PUSH1 0x20 DUP3 ADD SWAP1 POP SWAP3 SWAP2 POP POP JUMP JUMPDEST PUSH1 0x0 DUP2 SWAP1 POP PUSH1 0x20 DUP3 ADD SWAP1 POP SWAP2 SWAP1 POP JUMP JUMPDEST PUSH1 0x0 DUP3 DUP3 MSTORE PUSH1 0x20 DUP3 ADD SWAP1 POP SWAP3 SWAP2 POP POP JUMP JUMPDEST PUSH1 0x0 PUSH2 0x1265 DUP3 PUSH2 0x1075 JUMP JUMPDEST PUSH2 0x126F DUP2 DUP6 PUSH2 0x1249 JUMP JUMPDEST SWAP4 POP PUSH2 0x127F DUP2 DUP6 PUSH1 0x20 DUP7 ADD PUSH2 0x1091 JUMP JUMPDEST PUSH2 0x1288 DUP2 PUSH2 0xE6A JUMP JUMPDEST DUP5 ADD SWAP2 POP POP SWAP3 SWAP2 POP POP JUMP JUMPDEST PUSH1 0x0 PUSH2 0x129F DUP4 DUP4 PUSH2 0x125A JUMP JUMPDEST SWAP1 POP SWAP3 SWAP2 POP POP JUMP JUMPDEST PUSH1 0x0 PUSH1 0x20 DUP3 ADD SWAP1 POP SWAP2 SWAP1 POP JUMP JUMPDEST PUSH1 0x0 PUSH2 0x12BF DUP3 PUSH2 0x121D JUMP JUMPDEST PUSH2 0x12C9 DUP2 DUP6 PUSH2 0x1228 JUMP JUMPDEST SWAP4 POP DUP4 PUSH1 0x20 DUP3 MUL DUP6 ADD PUSH2 0x12DB DUP6 PUSH2 0x1239 JUMP JUMPDEST DUP1 PUSH1 0x0 JUMPDEST DUP6 DUP2 LT ISZERO PUSH2 0x1317 JUMPI DUP5 DUP5 SUB DUP10 MSTORE DUP2 MLOAD PUSH2 0x12F8 DUP6 DUP3 PUSH2 0x1293 JUMP JUMPDEST SWAP5 POP PUSH2 0x1303 DUP4 PUSH2 0x12A7 JUMP JUMPDEST SWAP3 POP PUSH1 0x20 DUP11 ADD SWAP10 POP POP PUSH1 0x1 DUP2 ADD SWAP1 POP PUSH2 0x12DF JUMP JUMPDEST POP DUP3 SWAP8 POP DUP8 SWAP6 POP POP POP POP POP POP SWAP3 SWAP2 POP POP JUMP JUMPDEST PUSH1 0x0 DUP2 MLOAD SWAP1 POP SWAP2 SWAP1 POP JUMP JUMPDEST PUSH1 0x0 DUP3 DUP3 MSTORE PUSH1 0x20 DUP3 ADD SWAP1 POP SWAP3 SWAP2 POP POP JUMP JUMPDEST PUSH1 0x0 DUP2 SWAP1 POP PUSH1 0x20 DUP3 ADD SWAP1 POP SWAP2 SWAP1 POP JUMP JUMPDEST PUSH2 0x135E DUP2 PUSH2 0xFA6 JUMP JUMPDEST DUP3 MSTORE POP POP JUMP JUMPDEST PUSH1 0x0 PUSH2 0x1370 DUP4 DUP4 PUSH2 0x1355 JUMP JUMPDEST PUSH1 0x20 DUP4 ADD SWAP1 POP SWAP3 SWAP2 POP POP JUMP JUMPDEST PUSH1 0x0 PUSH1 0x20 DUP3 ADD SWAP1 POP SWAP2 SWAP1 POP JUMP JUMPDEST PUSH1 0x0 PUSH2 0x1394 DUP3 PUSH2 0x1329 JUMP JUMPDEST PUSH2 0x139E DUP2 DUP6 PUSH2 0x1334 JUMP JUMPDEST SWAP4 POP PUSH2 0x13A9 DUP4 PUSH2 0x1345 JUMP JUMPDEST DUP1 PUSH1 0x0 JUMPDEST DUP4 DUP2 LT ISZERO PUSH2 0x13DA JUMPI DUP2 MLOAD PUSH2 0x13C1 DUP9 DUP3 PUSH2 0x1364 JUMP JUMPDEST SWAP8 POP PUSH2 0x13CC DUP4 PUSH2 0x137C JUMP JUMPDEST SWAP3 POP POP PUSH1 0x1 DUP2 ADD SWAP1 POP PUSH2 0x13AD JUMP JUMPDEST POP DUP6 SWAP4 POP POP POP POP SWAP3 SWAP2 POP POP JUMP JUMPDEST PUSH1 0x0 PUSH1 0x60 DUP3 ADD SWAP1 POP DUP2 DUP2 SUB PUSH1 0x0 DUP4 ADD MSTORE PUSH2 0x1401 DUP2 DUP7 PUSH2 0x11BF JUMP JUMPDEST SWAP1 POP DUP2 DUP2 SUB PUSH1 0x20 DUP4 ADD MSTORE PUSH2 0x1415 DUP2 DUP6 PUSH2 0x12B4 JUMP JUMPDEST SWAP1 POP DUP2 DUP2 SUB PUSH1 0x40 DUP4 ADD MSTORE PUSH2 0x1429 DUP2 DUP5 PUSH2 0x1389 JUMP JUMPDEST SWAP1 POP SWAP5 SWAP4 POP POP POP POP JUMP JUMPDEST PUSH1 0x0 PUSH1 0x20 DUP3 DUP5 SUB SLT ISZERO PUSH2 0x1449 JUMPI PUSH2 0x1448 PUSH2 0xDF8 JUMP JUMPDEST JUMPDEST PUSH1 0x0 PUSH2 0x1457 DUP5 DUP3 DUP6 ADD PUSH2 0xE4B JUMP JUMPDEST SWAP2 POP POP SWAP3 SWAP2 POP POP JUMP JUMPDEST PUSH1 0x0 PUSH1 0x20 DUP3 DUP5 SUB SLT ISZERO PUSH2 0x1476 JUMPI PUSH2 0x1475 PUSH2 0xDF8 JUMP JUMPDEST JUMPDEST PUSH1 0x0 DUP3 ADD CALLDATALOAD PUSH8 0xFFFFFFFFFFFFFFFF DUP2 GT ISZERO PUSH2 0x1494 JUMPI PUSH2 0x1493 PUSH2 0xDFD JUMP JUMPDEST JUMPDEST PUSH2 0x14A0 DUP5 DUP3 DUP6 ADD PUSH2 0xF78 JUMP JUMPDEST SWAP2 POP POP SWAP3 SWAP2 POP POP JUMP JUMPDEST PUSH32 0x4E487B7100000000000000000000000000000000000000000000000000000000 PUSH1 0x0 MSTORE PUSH1 0x21 PUSH1 0x4 MSTORE PUSH1 0x24 PUSH1 0x0 REVERT JUMPDEST PUSH32 0x4E487B7100000000000000000000000000000000000000000000000000000000 PUSH1 0x0 MSTORE PUSH1 0x22 PUSH1 0x4 MSTORE PUSH1 0x24 PUSH1 0x0 REVERT JUMPDEST PUSH1 0x0 PUSH1 0x2 DUP3 DIV SWAP1 POP PUSH1 0x1 DUP3 AND DUP1 PUSH2 0x151F JUMPI PUSH1 0x7F DUP3 AND SWAP2 POP JUMPDEST PUSH1 0x20 DUP3 LT DUP2 SUB PUSH2 0x1532 JUMPI PUSH2 0x1531 PUSH2 0x14D8 JUMP JUMPDEST JUMPDEST POP SWAP2 SWAP1 POP JUMP JUMPDEST PUSH32 0x4E487B7100000000000000000000000000000000000000000000000000000000 PUSH1 0x0 MSTORE PUSH1 0x11 PUSH1 0x4 MSTORE PUSH1 0x24 PUSH1 0x0 REVERT JUMPDEST PUSH1 0x0 PUSH2 0x1572 DUP3 PUSH2 0xFA6 JUMP JUMPDEST SWAP2 POP PUSH2 0x157D DUP4 PUSH2 0xFA6 JUMP JUMPDEST SWAP3 POP DUP3 DUP3 LT ISZERO PUSH2 0x1590 JUMPI PUSH2 0x158F PUSH2 0x1538 JUMP JUMPDEST JUMPDEST DUP3 DUP3 SUB SWAP1 POP SWAP3 SWAP2 POP POP JUMP JUMPDEST PUSH32 0x4E487B7100000000000000000000000000000000000000000000000000000000 PUSH1 0x0 MSTORE PUSH1 0x32 PUSH1 0x4 MSTORE PUSH1 0x24 PUSH1 0x0 REVERT JUMPDEST PUSH32 0x4E487B7100000000000000000000000000000000000000000000000000000000 PUSH1 0x0 MSTORE PUSH1 0x31 PUSH1 0x4 MSTORE PUSH1 0x24 PUSH1 0x0 REVERT JUMPDEST PUSH1 0x0 PUSH2 0x1604 DUP3 PUSH2 0xFA6 JUMP JUMPDEST SWAP2 POP PUSH32 0xFFFFFFFFFFFFFFFFFFFFFFFFFFFFFFFFFFFFFFFFFFFFFFFFFFFFFFFFFFFFFFFF DUP3 SUB PUSH2 0x1636 JUMPI PUSH2 0x1635 PUSH2 0x1538 JUMP JUMPDEST JUMPDEST PUSH1 0x1 DUP3 ADD SWAP1 POP SWAP2 SWAP1 POP JUMP INVALID LOG2 PUSH5 0x6970667358 0x22 SLT KECCAK256 0xB7 DIFFICULTY SLT DUP1 0xAD SMOD CREATE2 0xE9 0x2E 0xBC 0xC4 PUSH19 0x17054C014598EAECF3FAAB25151B4A3ECA67FB GT PUSH5 0x736F6C6343 STOP ADDMOD 0xD STOP CALLER "},"gasEstimates":{"creation":{"codeDepositCost":"1150200","executionCost":"infinite","totalCost":"infinite"},"external":{"addMember(address,string,uint256)":"infinite","changeManager(address)":"51313","deleteMember(uint256,address)":"infinite","getGroupName()":"infinite","getMembers()":"infinite","manager()":"2537","updateGroupName(string)":"infinite","updateMember(address,string,uint256)":"infinite"}},"methodIdentifiers":{"addMember(address,string,uint256)":"1b760719","changeManager(address)":"a3fbbaae","deleteMember(uint256,address)":"9a8bf4e0","getGroupName()":"843c608d","getMembers()":"9eab5253","manager()":"481c6a75","updateGroupName(string)":"ae026d95","updateMember(address,string,uint256)":"7debf5c6"}},"storageLayout":{"storage":[{"astId":866,"contract":"E-timetable.sol:Group","label":"groupName","offset":0,"slot":"0","type":"t_string_storage"},{"astId":869,"contract":"E-timetable.sol:Group","label":"members","offset":0,"slot":"1","type":"t_array(t_address)dyn_storage"},{"astId":871,"contract":"E-timetable.sol:Group","label":"manager","offset":0,"slot":"2","type":"t_address"},{"astId":876,"contract":"E-timetable.sol:Group","label":"memberPermission","offset":0,"slot":"3","type":"t_mapping(t_address,t_enum(Permission)864)"},{"astId":880,"contract":"E-timetable.sol:Group","label":"memberName","offset":0,"slot":"4","type":"t_mapping(t_address,t_string_storage)"}],"types":{"t_address":{"encoding":"inplace","label":"address","numberOfBytes":"20"},"t_array(t_address)dyn_storage":{"base":"t_address","encoding":"dynamic_array","label":"address[]","numberOfBytes":"32"},"t_enum(Permission)864":{"encoding":"inplace","label":"enum Group.Permission","numberOfBytes":"1"},"t_mapping(t_address,t_enum(Permission)864)":{"encoding":"mapping","key":"t_address","label":"mapping(address => enum Group.Permission)","numberOfBytes":"32","value":"t_enum(Permission)864"},"t_mapping(t_address,t_string_storage)":{"encoding":"mapping","key":"t_address","label":"mapping(address => string)","numberOfBytes":"32","value":"t_string_storage"},"t_string_storage":{"encoding":"bytes","label":"string","numberOfBytes":"32"}}},"userdoc":{"kind":"user","methods":{},"version":1}}