{"abi":[{"inputs":[{"internalType":"string","name":"title","type":"string"},{"internalType":"address","name":"_manager","type":"address"},{"internalType":"string","name":"name","type":"string"}],"stateMutability":"nonpayable","type":"constructor"},{"inputs":[{"internalType":"address","name":"cooperator","type":"address"},{"internalType":"uint256","name":"permission","type":"uint256"},{"internalType":"string","name":"name","type":"string"},{"internalType":"address[]","name":"cooperatorAddress","type":"address[]"}],"name":"addCooperator","outputs":[],"stateMutability":"nonpayable","type":"function"},{"inputs":[{"internalType":"uint256","name":"monthTimestamp","type":"uint256"},{"internalType":"uint256","name":"eventStartTimestamp","type":"uint256"},{"internalType":"uint256","name":"eventEndTimestamp","type":"uint256"},{"internalType":"string","name":"title","type":"string"},{"internalType":"string","name":"description","type":"string"},{"internalType":"address[]","name":"cooperatorAddress","type":"address[]"}],"name":"addEvent","outputs":[],"stateMutability":"nonpayable","type":"function"},{"inputs":[{"internalType":"address","name":"newManager","type":"address"}],"name":"changeManager","outputs":[],"stateMutability":"nonpayable","type":"function"},{"inputs":[{"internalType":"uint256","name":"index","type":"uint256"},{"internalType":"address","name":"cooperator","type":"address"},{"internalType":"address[]","name":"cooperatorAddress","type":"address[]"}],"name":"deleteCooperator","outputs":[],"stateMutability":"nonpayable","type":"function"},{"inputs":[{"internalType":"uint256","name":"monthTimestamp","type":"uint256"},{"internalType":"uint256","name":"index","type":"uint256"},{"internalType":"address[]","name":"cooperatorAddress","type":"address[]"}],"name":"deleteEvent","outputs":[],"stateMutability":"nonpayable","type":"function"},{"inputs":[{"internalType":"address[]","name":"cooperatorAddress","type":"address[]"}],"name":"getCalendarTitle","outputs":[{"internalType":"string","name":"","type":"string"}],"stateMutability":"view","type":"function"},{"inputs":[{"internalType":"address[]","name":"cooperatorAddress","type":"address[]"}],"name":"getCooperators","outputs":[{"internalType":"address[]","name":"_cooperators","type":"address[]"},{"internalType":"string[]","name":"names","type":"string[]"},{"internalType":"uint256[]","name":"permissions","type":"uint256[]"}],"stateMutability":"view","type":"function"},{"inputs":[{"internalType":"uint256","name":"monthTimestamp","type":"uint256"},{"internalType":"address[]","name":"cooperatorAddress","type":"address[]"}],"name":"getEvents","outputs":[{"internalType":"uint256[]","name":"eventStartTimestamps","type":"uint256[]"},{"internalType":"uint256[]","name":"eventEndTimestamps","type":"uint256[]"},{"internalType":"string[]","name":"titles","type":"string[]"},{"internalType":"string[]","name":"descriptions","type":"string[]"},{"internalType":"uint256[]","name":"indexes","type":"uint256[]"}],"stateMutability":"view","type":"function"},{"inputs":[],"name":"manager","outputs":[{"internalType":"address","name":"","type":"address"}],"stateMutability":"view","type":"function"},{"inputs":[{"internalType":"string","name":"title","type":"string"},{"internalType":"address[]","name":"cooperatorAddress","type":"address[]"}],"name":"updateCalendarTitle","outputs":[],"stateMutability":"nonpayable","type":"function"},{"inputs":[{"internalType":"address","name":"cooperator","type":"address"},{"internalType":"string","name":"name","type":"string"},{"internalType":"uint256","name":"permission","type":"uint256"},{"internalType":"address[]","name":"cooperatorAddress","type":"address[]"}],"name":"updateCooperator","outputs":[],"stateMutability":"nonpayable","type":"function"},{"inputs":[{"internalType":"uint256","name":"monthTimestamp","type":"uint256"},{"internalType":"uint256","name":"index","type":"uint256"},{"internalType":"uint256","name":"eventStartTimestamp","type":"uint256"},{"internalType":"uint256","name":"eventEndTimestamp","type":"uint256"},{"internalType":"string","name":"title","type":"string"},{"internalType":"string","name":"description","type":"string"},{"internalType":"address[]","name":"cooperatorAddress","type":"address[]"}],"name":"updateEvent","outputs":[],"stateMutability":"nonpayable","type":"function"}],"devdoc":{"kind":"dev","methods":{},"version":1},"evm":{"assembly":"    /* \"E-timetable.sol\":76:7592  contract Calendar{... */\n  mstore(0x40, 0x80)\n    /* \"E-timetable.sol\":1159:1434  constructor(string memory title, address _manager, string memory name){... */\n  callvalue\n  dup1\n  iszero\n  tag_1\n  jumpi\n  0x00\n  dup1\n  revert\ntag_1:\n  pop\n  mload(0x40)\n  sub(codesize, bytecodeSize)\n  dup1\n  bytecodeSize\n  dup4\n  codecopy\n  dup2\n  dup2\n  add\n  0x40\n  mstore\n  dup2\n  add\n  swap1\n  tag_2\n  swap2\n  swap1\n  tag_3\n  jump\t// in\ntag_2:\n    /* \"E-timetable.sol\":1250:1258  _manager */\n  dup2\n    /* \"E-timetable.sol\":1240:1247  manager */\n  0x01\n  0x00\n    /* \"E-timetable.sol\":1240:1258  manager = _manager */\n  0x0100\n  exp\n  dup2\n  sload\n  dup2\n  0xffffffffffffffffffffffffffffffffffffffff\n  mul\n  not\n  and\n  swap1\n  dup4\n  0xffffffffffffffffffffffffffffffffffffffff\n  and\n  mul\n  or\n  swap1\n  sstore\n  pop\n    /* \"E-timetable.sol\":1285:1290  title */\n  dup3\n    /* \"E-timetable.sol\":1269:1282  calendarTitle */\n  0x02\n    /* \"E-timetable.sol\":1269:1290  calendarTitle = title */\n  swap1\n  dup1\n  mload\n  swap1\n  0x20\n  add\n  swap1\n  tag_6\n  swap3\n  swap2\n  swap1\n  tag_7\n  jump\t// in\ntag_6:\n  pop\n    /* \"E-timetable.sol\":1333:1349  Permission.ADMIN */\n  0x03\n    /* \"E-timetable.sol\":1301:1321  cooperatorPermission */\n  0x04\n    /* \"E-timetable.sol\":1301:1330  cooperatorPermission[manager] */\n  0x00\n    /* \"E-timetable.sol\":1322:1329  manager */\n  0x01\n  0x00\n  swap1\n  sload\n  swap1\n  0x0100\n  exp\n  swap1\n  div\n  0xffffffffffffffffffffffffffffffffffffffff\n  and\n    /* \"E-timetable.sol\":1301:1330  cooperatorPermission[manager] */\n  0xffffffffffffffffffffffffffffffffffffffff\n  and\n  0xffffffffffffffffffffffffffffffffffffffff\n  and\n  dup2\n  mstore\n  0x20\n  add\n  swap1\n  dup2\n  mstore\n  0x20\n  add\n  0x00\n  keccak256\n  0x00\n    /* \"E-timetable.sol\":1301:1349  cooperatorPermission[manager] = Permission.ADMIN */\n  0x0100\n  exp\n  dup2\n  sload\n  dup2\n  0xff\n  mul\n  not\n  and\n  swap1\n  dup4\n  0x03\n  dup2\n  gt\n  iszero\n  tag_8\n  jumpi\n  tag_9\n  tag_10\n  jump\t// in\ntag_9:\ntag_8:\n  mul\n  or\n  swap1\n  sstore\n  pop\n    /* \"E-timetable.sol\":1360:1371  cooperators */\n  0x03\n    /* \"E-timetable.sol\":1377:1384  manager */\n  0x01\n  0x00\n  swap1\n  sload\n  swap1\n  0x0100\n  exp\n  swap1\n  div\n  0xffffffffffffffffffffffffffffffffffffffff\n  and\n    /* \"E-timetable.sol\":1360:1385  cooperators.push(manager) */\n  swap1\n  dup1\n  0x01\n  dup2\n  sload\n  add\n  dup1\n  dup3\n  sstore\n  dup1\n  swap2\n  pop\n  pop\n  0x01\n  swap1\n  sub\n  swap1\n  0x00\n  mstore\n  keccak256(0x00, 0x20)\n  add\n  0x00\n  swap1\n  swap2\n  swap1\n  swap2\n  swap1\n  swap2\n  0x0100\n  exp\n  dup2\n  sload\n  dup2\n  0xffffffffffffffffffffffffffffffffffffffff\n  mul\n  not\n  and\n  swap1\n  dup4\n  0xffffffffffffffffffffffffffffffffffffffff\n  and\n  mul\n  or\n  swap1\n  sstore\n  pop\n    /* \"E-timetable.sol\":1422:1426  name */\n  dup1\n    /* \"E-timetable.sol\":1396:1410  cooperatorName */\n  0x05\n    /* \"E-timetable.sol\":1396:1419  cooperatorName[manager] */\n  0x00\n    /* \"E-timetable.sol\":1411:1418  manager */\n  0x01\n  0x00\n  swap1\n  sload\n  swap1\n  0x0100\n  exp\n  swap1\n  div\n  0xffffffffffffffffffffffffffffffffffffffff\n  and\n    /* \"E-timetable.sol\":1396:1419  cooperatorName[manager] */\n  0xffffffffffffffffffffffffffffffffffffffff\n  and\n  0xffffffffffffffffffffffffffffffffffffffff\n  and\n  dup2\n  mstore\n  0x20\n  add\n  swap1\n  dup2\n  mstore\n  0x20\n  add\n  0x00\n  keccak256\n    /* \"E-timetable.sol\":1396:1426  cooperatorName[manager] = name */\n  swap1\n  dup1\n  mload\n  swap1\n  0x20\n  add\n  swap1\n  tag_12\n  swap3\n  swap2\n  swap1\n  tag_7\n  jump\t// in\ntag_12:\n  pop\n    /* \"E-timetable.sol\":1159:1434  constructor(string memory title, address _manager, string memory name){... */\n  pop\n  pop\n  pop\n    /* \"E-timetable.sol\":76:7592  contract Calendar{... */\n  jump(tag_13)\ntag_7:\n  dup3\n  dup1\n  sload\n  tag_14\n  swap1\n  tag_15\n  jump\t// in\ntag_14:\n  swap1\n  0x00\n  mstore\n  keccak256(0x00, 0x20)\n  swap1\n  0x1f\n  add\n  0x20\n  swap1\n  div\n  dup2\n  add\n  swap3\n  dup3\n  tag_17\n  jumpi\n  0x00\n  dup6\n  sstore\n  jump(tag_16)\ntag_17:\n  dup3\n  0x1f\n  lt\n  tag_18\n  jumpi\n  dup1\n  mload\n  not(0xff)\n  and\n  dup4\n  dup1\n  add\n  or\n  dup6\n  sstore\n  jump(tag_16)\ntag_18:\n  dup3\n  dup1\n  add\n  0x01\n  add\n  dup6\n  sstore\n  dup3\n  iszero\n  tag_16\n  jumpi\n  swap2\n  dup3\n  add\ntag_19:\n  dup3\n  dup2\n  gt\n  iszero\n  tag_20\n  jumpi\n  dup3\n  mload\n  dup3\n  sstore\n  swap2\n  0x20\n  add\n  swap2\n  swap1\n  0x01\n  add\n  swap1\n  jump(tag_19)\ntag_20:\ntag_16:\n  pop\n  swap1\n  pop\n  tag_21\n  swap2\n  swap1\n  tag_22\n  jump\t// in\ntag_21:\n  pop\n  swap1\n  jump\t// out\ntag_22:\ntag_23:\n  dup1\n  dup3\n  gt\n  iszero\n  tag_24\n  jumpi\n  0x00\n  dup2\n  0x00\n  swap1\n  sstore\n  pop\n  0x01\n  add\n  jump(tag_23)\ntag_24:\n  pop\n  swap1\n  jump\t// out\n    /* \"#utility.yul\":7:82   */\ntag_25:\n    /* \"#utility.yul\":40:46   */\n  0x00\n    /* \"#utility.yul\":73:75   */\n  0x40\n    /* \"#utility.yul\":67:76   */\n  mload\n    /* \"#utility.yul\":57:76   */\n  swap1\n  pop\n    /* \"#utility.yul\":7:82   */\n  swap1\n  jump\t// out\n    /* \"#utility.yul\":88:205   */\ntag_26:\n    /* \"#utility.yul\":197:198   */\n  0x00\n    /* \"#utility.yul\":194:195   */\n  dup1\n    /* \"#utility.yul\":187:199   */\n  revert\n    /* \"#utility.yul\":211:328   */\ntag_27:\n    /* \"#utility.yul\":320:321   */\n  0x00\n    /* \"#utility.yul\":317:318   */\n  dup1\n    /* \"#utility.yul\":310:322   */\n  revert\n    /* \"#utility.yul\":334:451   */\ntag_28:\n    /* \"#utility.yul\":443:444   */\n  0x00\n    /* \"#utility.yul\":440:441   */\n  dup1\n    /* \"#utility.yul\":433:445   */\n  revert\n    /* \"#utility.yul\":457:574   */\ntag_29:\n    /* \"#utility.yul\":566:567   */\n  0x00\n    /* \"#utility.yul\":563:564   */\n  dup1\n    /* \"#utility.yul\":556:568   */\n  revert\n    /* \"#utility.yul\":580:682   */\ntag_30:\n    /* \"#utility.yul\":621:627   */\n  0x00\n    /* \"#utility.yul\":672:674   */\n  0x1f\n    /* \"#utility.yul\":668:675   */\n  not\n    /* \"#utility.yul\":663:665   */\n  0x1f\n    /* \"#utility.yul\":656:661   */\n  dup4\n    /* \"#utility.yul\":652:666   */\n  add\n    /* \"#utility.yul\":648:676   */\n  and\n    /* \"#utility.yul\":638:676   */\n  swap1\n  pop\n    /* \"#utility.yul\":580:682   */\n  swap2\n  swap1\n  pop\n  jump\t// out\n    /* \"#utility.yul\":688:868   */\ntag_31:\n    /* \"#utility.yul\":736:813   */\n  0x4e487b7100000000000000000000000000000000000000000000000000000000\n    /* \"#utility.yul\":733:734   */\n  0x00\n    /* \"#utility.yul\":726:814   */\n  mstore\n    /* \"#utility.yul\":833:837   */\n  0x41\n    /* \"#utility.yul\":830:831   */\n  0x04\n    /* \"#utility.yul\":823:838   */\n  mstore\n    /* \"#utility.yul\":857:861   */\n  0x24\n    /* \"#utility.yul\":854:855   */\n  0x00\n    /* \"#utility.yul\":847:862   */\n  revert\n    /* \"#utility.yul\":874:1155   */\ntag_32:\n    /* \"#utility.yul\":957:984   */\n  tag_52\n    /* \"#utility.yul\":979:983   */\n  dup3\n    /* \"#utility.yul\":957:984   */\n  tag_30\n  jump\t// in\ntag_52:\n    /* \"#utility.yul\":949:955   */\n  dup2\n    /* \"#utility.yul\":945:985   */\n  add\n    /* \"#utility.yul\":1087:1093   */\n  dup2\n    /* \"#utility.yul\":1075:1085   */\n  dup2\n    /* \"#utility.yul\":1072:1094   */\n  lt\n    /* \"#utility.yul\":1051:1069   */\n  0xffffffffffffffff\n    /* \"#utility.yul\":1039:1049   */\n  dup3\n    /* \"#utility.yul\":1036:1070   */\n  gt\n    /* \"#utility.yul\":1033:1095   */\n  or\n    /* \"#utility.yul\":1030:1118   */\n  iszero\n  tag_53\n  jumpi\n    /* \"#utility.yul\":1098:1116   */\n  tag_54\n  tag_31\n  jump\t// in\ntag_54:\n    /* \"#utility.yul\":1030:1118   */\ntag_53:\n    /* \"#utility.yul\":1138:1148   */\n  dup1\n    /* \"#utility.yul\":1134:1136   */\n  0x40\n    /* \"#utility.yul\":1127:1149   */\n  mstore\n    /* \"#utility.yul\":917:1155   */\n  pop\n    /* \"#utility.yul\":874:1155   */\n  pop\n  pop\n  jump\t// out\n    /* \"#utility.yul\":1161:1290   */\ntag_33:\n    /* \"#utility.yul\":1195:1201   */\n  0x00\n    /* \"#utility.yul\":1222:1242   */\n  tag_56\n  tag_25\n  jump\t// in\ntag_56:\n    /* \"#utility.yul\":1212:1242   */\n  swap1\n  pop\n    /* \"#utility.yul\":1251:1284   */\n  tag_57\n    /* \"#utility.yul\":1279:1283   */\n  dup3\n    /* \"#utility.yul\":1271:1277   */\n  dup3\n    /* \"#utility.yul\":1251:1284   */\n  tag_32\n  jump\t// in\ntag_57:\n    /* \"#utility.yul\":1161:1290   */\n  swap2\n  swap1\n  pop\n  jump\t// out\n    /* \"#utility.yul\":1296:1604   */\ntag_34:\n    /* \"#utility.yul\":1358:1362   */\n  0x00\n    /* \"#utility.yul\":1448:1466   */\n  0xffffffffffffffff\n    /* \"#utility.yul\":1440:1446   */\n  dup3\n    /* \"#utility.yul\":1437:1467   */\n  gt\n    /* \"#utility.yul\":1434:1490   */\n  iszero\n  tag_59\n  jumpi\n    /* \"#utility.yul\":1470:1488   */\n  tag_60\n  tag_31\n  jump\t// in\ntag_60:\n    /* \"#utility.yul\":1434:1490   */\ntag_59:\n    /* \"#utility.yul\":1508:1537   */\n  tag_61\n    /* \"#utility.yul\":1530:1536   */\n  dup3\n    /* \"#utility.yul\":1508:1537   */\n  tag_30\n  jump\t// in\ntag_61:\n    /* \"#utility.yul\":1500:1537   */\n  swap1\n  pop\n    /* \"#utility.yul\":1592:1596   */\n  0x20\n    /* \"#utility.yul\":1586:1590   */\n  dup2\n    /* \"#utility.yul\":1582:1597   */\n  add\n    /* \"#utility.yul\":1574:1597   */\n  swap1\n  pop\n    /* \"#utility.yul\":1296:1604   */\n  swap2\n  swap1\n  pop\n  jump\t// out\n    /* \"#utility.yul\":1610:1917   */\ntag_35:\n    /* \"#utility.yul\":1678:1679   */\n  0x00\n    /* \"#utility.yul\":1688:1801   */\ntag_63:\n    /* \"#utility.yul\":1702:1708   */\n  dup4\n    /* \"#utility.yul\":1699:1700   */\n  dup2\n    /* \"#utility.yul\":1696:1709   */\n  lt\n    /* \"#utility.yul\":1688:1801   */\n  iszero\n  tag_65\n  jumpi\n    /* \"#utility.yul\":1787:1788   */\n  dup1\n    /* \"#utility.yul\":1782:1785   */\n  dup3\n    /* \"#utility.yul\":1778:1789   */\n  add\n    /* \"#utility.yul\":1772:1790   */\n  mload\n    /* \"#utility.yul\":1768:1769   */\n  dup2\n    /* \"#utility.yul\":1763:1766   */\n  dup5\n    /* \"#utility.yul\":1759:1770   */\n  add\n    /* \"#utility.yul\":1752:1791   */\n  mstore\n    /* \"#utility.yul\":1724:1726   */\n  0x20\n    /* \"#utility.yul\":1721:1722   */\n  dup2\n    /* \"#utility.yul\":1717:1727   */\n  add\n    /* \"#utility.yul\":1712:1727   */\n  swap1\n  pop\n    /* \"#utility.yul\":1688:1801   */\n  jump(tag_63)\ntag_65:\n    /* \"#utility.yul\":1819:1825   */\n  dup4\n    /* \"#utility.yul\":1816:1817   */\n  dup2\n    /* \"#utility.yul\":1813:1826   */\n  gt\n    /* \"#utility.yul\":1810:1911   */\n  iszero\n  tag_66\n  jumpi\n    /* \"#utility.yul\":1899:1900   */\n  0x00\n    /* \"#utility.yul\":1890:1896   */\n  dup5\n    /* \"#utility.yul\":1885:1888   */\n  dup5\n    /* \"#utility.yul\":1881:1897   */\n  add\n    /* \"#utility.yul\":1874:1901   */\n  mstore\n    /* \"#utility.yul\":1810:1911   */\ntag_66:\n    /* \"#utility.yul\":1659:1917   */\n  pop\n    /* \"#utility.yul\":1610:1917   */\n  pop\n  pop\n  pop\n  jump\t// out\n    /* \"#utility.yul\":1923:2344   */\ntag_36:\n    /* \"#utility.yul\":2012:2017   */\n  0x00\n    /* \"#utility.yul\":2037:2103   */\n  tag_68\n    /* \"#utility.yul\":2053:2102   */\n  tag_69\n    /* \"#utility.yul\":2095:2101   */\n  dup5\n    /* \"#utility.yul\":2053:2102   */\n  tag_34\n  jump\t// in\ntag_69:\n    /* \"#utility.yul\":2037:2103   */\n  tag_33\n  jump\t// in\ntag_68:\n    /* \"#utility.yul\":2028:2103   */\n  swap1\n  pop\n    /* \"#utility.yul\":2126:2132   */\n  dup3\n    /* \"#utility.yul\":2119:2124   */\n  dup2\n    /* \"#utility.yul\":2112:2133   */\n  mstore\n    /* \"#utility.yul\":2164:2168   */\n  0x20\n    /* \"#utility.yul\":2157:2162   */\n  dup2\n    /* \"#utility.yul\":2153:2169   */\n  add\n    /* \"#utility.yul\":2202:2205   */\n  dup5\n    /* \"#utility.yul\":2193:2199   */\n  dup5\n    /* \"#utility.yul\":2188:2191   */\n  dup5\n    /* \"#utility.yul\":2184:2200   */\n  add\n    /* \"#utility.yul\":2181:2206   */\n  gt\n    /* \"#utility.yul\":2178:2290   */\n  iszero\n  tag_70\n  jumpi\n    /* \"#utility.yul\":2209:2288   */\n  tag_71\n  tag_29\n  jump\t// in\ntag_71:\n    /* \"#utility.yul\":2178:2290   */\ntag_70:\n    /* \"#utility.yul\":2299:2338   */\n  tag_72\n    /* \"#utility.yul\":2331:2337   */\n  dup5\n    /* \"#utility.yul\":2326:2329   */\n  dup3\n    /* \"#utility.yul\":2321:2324   */\n  dup6\n    /* \"#utility.yul\":2299:2338   */\n  tag_35\n  jump\t// in\ntag_72:\n    /* \"#utility.yul\":2018:2344   */\n  pop\n    /* \"#utility.yul\":1923:2344   */\n  swap4\n  swap3\n  pop\n  pop\n  pop\n  jump\t// out\n    /* \"#utility.yul\":2364:2719   */\ntag_37:\n    /* \"#utility.yul\":2431:2436   */\n  0x00\n    /* \"#utility.yul\":2480:2483   */\n  dup3\n    /* \"#utility.yul\":2473:2477   */\n  0x1f\n    /* \"#utility.yul\":2465:2471   */\n  dup4\n    /* \"#utility.yul\":2461:2478   */\n  add\n    /* \"#utility.yul\":2457:2484   */\n  slt\n    /* \"#utility.yul\":2447:2569   */\n  tag_74\n  jumpi\n    /* \"#utility.yul\":2488:2567   */\n  tag_75\n  tag_28\n  jump\t// in\ntag_75:\n    /* \"#utility.yul\":2447:2569   */\ntag_74:\n    /* \"#utility.yul\":2598:2604   */\n  dup2\n    /* \"#utility.yul\":2592:2605   */\n  mload\n    /* \"#utility.yul\":2623:2713   */\n  tag_76\n    /* \"#utility.yul\":2709:2712   */\n  dup5\n    /* \"#utility.yul\":2701:2707   */\n  dup3\n    /* \"#utility.yul\":2694:2698   */\n  0x20\n    /* \"#utility.yul\":2686:2692   */\n  dup7\n    /* \"#utility.yul\":2682:2699   */\n  add\n    /* \"#utility.yul\":2623:2713   */\n  tag_36\n  jump\t// in\ntag_76:\n    /* \"#utility.yul\":2614:2713   */\n  swap2\n  pop\n    /* \"#utility.yul\":2437:2719   */\n  pop\n    /* \"#utility.yul\":2364:2719   */\n  swap3\n  swap2\n  pop\n  pop\n  jump\t// out\n    /* \"#utility.yul\":2725:2851   */\ntag_38:\n    /* \"#utility.yul\":2762:2769   */\n  0x00\n    /* \"#utility.yul\":2802:2844   */\n  0xffffffffffffffffffffffffffffffffffffffff\n    /* \"#utility.yul\":2795:2800   */\n  dup3\n    /* \"#utility.yul\":2791:2845   */\n  and\n    /* \"#utility.yul\":2780:2845   */\n  swap1\n  pop\n    /* \"#utility.yul\":2725:2851   */\n  swap2\n  swap1\n  pop\n  jump\t// out\n    /* \"#utility.yul\":2857:2953   */\ntag_39:\n    /* \"#utility.yul\":2894:2901   */\n  0x00\n    /* \"#utility.yul\":2923:2947   */\n  tag_79\n    /* \"#utility.yul\":2941:2946   */\n  dup3\n    /* \"#utility.yul\":2923:2947   */\n  tag_38\n  jump\t// in\ntag_79:\n    /* \"#utility.yul\":2912:2947   */\n  swap1\n  pop\n    /* \"#utility.yul\":2857:2953   */\n  swap2\n  swap1\n  pop\n  jump\t// out\n    /* \"#utility.yul\":2959:3081   */\ntag_40:\n    /* \"#utility.yul\":3032:3056   */\n  tag_81\n    /* \"#utility.yul\":3050:3055   */\n  dup2\n    /* \"#utility.yul\":3032:3056   */\n  tag_39\n  jump\t// in\ntag_81:\n    /* \"#utility.yul\":3025:3030   */\n  dup2\n    /* \"#utility.yul\":3022:3057   */\n  eq\n    /* \"#utility.yul\":3012:3075   */\n  tag_82\n  jumpi\n    /* \"#utility.yul\":3071:3072   */\n  0x00\n    /* \"#utility.yul\":3068:3069   */\n  dup1\n    /* \"#utility.yul\":3061:3073   */\n  revert\n    /* \"#utility.yul\":3012:3075   */\ntag_82:\n    /* \"#utility.yul\":2959:3081   */\n  pop\n  jump\t// out\n    /* \"#utility.yul\":3087:3230   */\ntag_41:\n    /* \"#utility.yul\":3144:3149   */\n  0x00\n    /* \"#utility.yul\":3175:3181   */\n  dup2\n    /* \"#utility.yul\":3169:3182   */\n  mload\n    /* \"#utility.yul\":3160:3182   */\n  swap1\n  pop\n    /* \"#utility.yul\":3191:3224   */\n  tag_84\n    /* \"#utility.yul\":3218:3223   */\n  dup2\n    /* \"#utility.yul\":3191:3224   */\n  tag_40\n  jump\t// in\ntag_84:\n    /* \"#utility.yul\":3087:3230   */\n  swap3\n  swap2\n  pop\n  pop\n  jump\t// out\n    /* \"#utility.yul\":3236:4245   */\ntag_3:\n    /* \"#utility.yul\":3344:3350   */\n  0x00\n    /* \"#utility.yul\":3352:3358   */\n  dup1\n    /* \"#utility.yul\":3360:3366   */\n  0x00\n    /* \"#utility.yul\":3409:3411   */\n  0x60\n    /* \"#utility.yul\":3397:3406   */\n  dup5\n    /* \"#utility.yul\":3388:3395   */\n  dup7\n    /* \"#utility.yul\":3384:3407   */\n  sub\n    /* \"#utility.yul\":3380:3412   */\n  slt\n    /* \"#utility.yul\":3377:3496   */\n  iszero\n  tag_86\n  jumpi\n    /* \"#utility.yul\":3415:3494   */\n  tag_87\n  tag_26\n  jump\t// in\ntag_87:\n    /* \"#utility.yul\":3377:3496   */\ntag_86:\n    /* \"#utility.yul\":3556:3557   */\n  0x00\n    /* \"#utility.yul\":3545:3554   */\n  dup5\n    /* \"#utility.yul\":3541:3558   */\n  add\n    /* \"#utility.yul\":3535:3559   */\n  mload\n    /* \"#utility.yul\":3586:3604   */\n  0xffffffffffffffff\n    /* \"#utility.yul\":3578:3584   */\n  dup2\n    /* \"#utility.yul\":3575:3605   */\n  gt\n    /* \"#utility.yul\":3572:3689   */\n  iszero\n  tag_88\n  jumpi\n    /* \"#utility.yul\":3608:3687   */\n  tag_89\n  tag_27\n  jump\t// in\ntag_89:\n    /* \"#utility.yul\":3572:3689   */\ntag_88:\n    /* \"#utility.yul\":3713:3787   */\n  tag_90\n    /* \"#utility.yul\":3779:3786   */\n  dup7\n    /* \"#utility.yul\":3770:3776   */\n  dup3\n    /* \"#utility.yul\":3759:3768   */\n  dup8\n    /* \"#utility.yul\":3755:3777   */\n  add\n    /* \"#utility.yul\":3713:3787   */\n  tag_37\n  jump\t// in\ntag_90:\n    /* \"#utility.yul\":3703:3787   */\n  swap4\n  pop\n    /* \"#utility.yul\":3506:3797   */\n  pop\n    /* \"#utility.yul\":3836:3838   */\n  0x20\n    /* \"#utility.yul\":3862:3926   */\n  tag_91\n    /* \"#utility.yul\":3918:3925   */\n  dup7\n    /* \"#utility.yul\":3909:3915   */\n  dup3\n    /* \"#utility.yul\":3898:3907   */\n  dup8\n    /* \"#utility.yul\":3894:3916   */\n  add\n    /* \"#utility.yul\":3862:3926   */\n  tag_41\n  jump\t// in\ntag_91:\n    /* \"#utility.yul\":3852:3926   */\n  swap3\n  pop\n    /* \"#utility.yul\":3807:3936   */\n  pop\n    /* \"#utility.yul\":3996:3998   */\n  0x40\n    /* \"#utility.yul\":3985:3994   */\n  dup5\n    /* \"#utility.yul\":3981:3999   */\n  add\n    /* \"#utility.yul\":3975:4000   */\n  mload\n    /* \"#utility.yul\":4027:4045   */\n  0xffffffffffffffff\n    /* \"#utility.yul\":4019:4025   */\n  dup2\n    /* \"#utility.yul\":4016:4046   */\n  gt\n    /* \"#utility.yul\":4013:4130   */\n  iszero\n  tag_92\n  jumpi\n    /* \"#utility.yul\":4049:4128   */\n  tag_93\n  tag_27\n  jump\t// in\ntag_93:\n    /* \"#utility.yul\":4013:4130   */\ntag_92:\n    /* \"#utility.yul\":4154:4228   */\n  tag_94\n    /* \"#utility.yul\":4220:4227   */\n  dup7\n    /* \"#utility.yul\":4211:4217   */\n  dup3\n    /* \"#utility.yul\":4200:4209   */\n  dup8\n    /* \"#utility.yul\":4196:4218   */\n  add\n    /* \"#utility.yul\":4154:4228   */\n  tag_37\n  jump\t// in\ntag_94:\n    /* \"#utility.yul\":4144:4228   */\n  swap2\n  pop\n    /* \"#utility.yul\":3946:4238   */\n  pop\n    /* \"#utility.yul\":3236:4245   */\n  swap3\n  pop\n  swap3\n  pop\n  swap3\n  jump\t// out\n    /* \"#utility.yul\":4251:4431   */\ntag_10:\n    /* \"#utility.yul\":4299:4376   */\n  0x4e487b7100000000000000000000000000000000000000000000000000000000\n    /* \"#utility.yul\":4296:4297   */\n  0x00\n    /* \"#utility.yul\":4289:4377   */\n  mstore\n    /* \"#utility.yul\":4396:4400   */\n  0x21\n    /* \"#utility.yul\":4393:4394   */\n  0x04\n    /* \"#utility.yul\":4386:4401   */\n  mstore\n    /* \"#utility.yul\":4420:4424   */\n  0x24\n    /* \"#utility.yul\":4417:4418   */\n  0x00\n    /* \"#utility.yul\":4410:4425   */\n  revert\n    /* \"#utility.yul\":4437:4617   */\ntag_42:\n    /* \"#utility.yul\":4485:4562   */\n  0x4e487b7100000000000000000000000000000000000000000000000000000000\n    /* \"#utility.yul\":4482:4483   */\n  0x00\n    /* \"#utility.yul\":4475:4563   */\n  mstore\n    /* \"#utility.yul\":4582:4586   */\n  0x22\n    /* \"#utility.yul\":4579:4580   */\n  0x04\n    /* \"#utility.yul\":4572:4587   */\n  mstore\n    /* \"#utility.yul\":4606:4610   */\n  0x24\n    /* \"#utility.yul\":4603:4604   */\n  0x00\n    /* \"#utility.yul\":4596:4611   */\n  revert\n    /* \"#utility.yul\":4623:4943   */\ntag_15:\n    /* \"#utility.yul\":4667:4673   */\n  0x00\n    /* \"#utility.yul\":4704:4705   */\n  0x02\n    /* \"#utility.yul\":4698:4702   */\n  dup3\n    /* \"#utility.yul\":4694:4706   */\n  div\n    /* \"#utility.yul\":4684:4706   */\n  swap1\n  pop\n    /* \"#utility.yul\":4751:4752   */\n  0x01\n    /* \"#utility.yul\":4745:4749   */\n  dup3\n    /* \"#utility.yul\":4741:4753   */\n  and\n    /* \"#utility.yul\":4772:4790   */\n  dup1\n    /* \"#utility.yul\":4762:4843   */\n  tag_98\n  jumpi\n    /* \"#utility.yul\":4828:4832   */\n  0x7f\n    /* \"#utility.yul\":4820:4826   */\n  dup3\n    /* \"#utility.yul\":4816:4833   */\n  and\n    /* \"#utility.yul\":4806:4833   */\n  swap2\n  pop\n    /* \"#utility.yul\":4762:4843   */\ntag_98:\n    /* \"#utility.yul\":4890:4892   */\n  0x20\n    /* \"#utility.yul\":4882:4888   */\n  dup3\n    /* \"#utility.yul\":4879:4893   */\n  lt\n    /* \"#utility.yul\":4859:4877   */\n  dup2\n    /* \"#utility.yul\":4856:4894   */\n  sub\n    /* \"#utility.yul\":4853:4937   */\n  tag_99\n  jumpi\n    /* \"#utility.yul\":4909:4927   */\n  tag_100\n  tag_42\n  jump\t// in\ntag_100:\n    /* \"#utility.yul\":4853:4937   */\ntag_99:\n    /* \"#utility.yul\":4674:4943   */\n  pop\n    /* \"#utility.yul\":4623:4943   */\n  swap2\n  swap1\n  pop\n  jump\t// out\n    /* \"E-timetable.sol\":76:7592  contract Calendar{... */\ntag_13:\n  dataSize(sub_0)\n  dup1\n  dataOffset(sub_0)\n  0x00\n  codecopy\n  0x00\n  return\nstop\n\nsub_0: assembly {\n        /* \"E-timetable.sol\":76:7592  contract Calendar{... */\n      mstore(0x40, 0x80)\n      callvalue\n      dup1\n      iszero\n      tag_1\n      jumpi\n      0x00\n      dup1\n      revert\n    tag_1:\n      pop\n      jumpi(tag_2, lt(calldatasize, 0x04))\n      shr(0xe0, calldataload(0x00))\n      dup1\n      0x481c6a75\n      gt\n      tag_15\n      jumpi\n      dup1\n      0x481c6a75\n      eq\n      tag_9\n      jumpi\n      dup1\n      0x725c0376\n      eq\n      tag_10\n      jumpi\n      dup1\n      0x8f88f476\n      eq\n      tag_11\n      jumpi\n      dup1\n      0xa3fbbaae\n      eq\n      tag_12\n      jumpi\n      dup1\n      0xa880a644\n      eq\n      tag_13\n      jumpi\n      dup1\n      0xaaf82990\n      eq\n      tag_14\n      jumpi\n      jump(tag_2)\n    tag_15:\n      dup1\n      0x1480e09c\n      eq\n      tag_3\n      jumpi\n      dup1\n      0x1603813e\n      eq\n      tag_4\n      jumpi\n      dup1\n      0x198555ce\n      eq\n      tag_5\n      jumpi\n      dup1\n      0x24d9641d\n      eq\n      tag_6\n      jumpi\n      dup1\n      0x2c045b91\n      eq\n      tag_7\n      jumpi\n      dup1\n      0x458cf78a\n      eq\n      tag_8\n      jumpi\n    tag_2:\n      0x00\n      dup1\n      revert\n        /* \"E-timetable.sol\":5596:5958  function addCooperator(address cooperator, uint permission, string memory name, address[] memory cooperatorAddress) public adminRestricted(cooperatorAddress){... */\n    tag_3:\n      tag_16\n      0x04\n      dup1\n      calldatasize\n      sub\n      dup2\n      add\n      swap1\n      tag_17\n      swap2\n      swap1\n      tag_18\n      jump\t// in\n    tag_17:\n      tag_19\n      jump\t// in\n    tag_16:\n      stop\n        /* \"E-timetable.sol\":4335:4725  function deleteEvent(uint monthTimestamp, uint index, address[] memory cooperatorAddress) public editRestricted(cooperatorAddress){... */\n    tag_4:\n      tag_20\n      0x04\n      dup1\n      calldatasize\n      sub\n      dup2\n      add\n      swap1\n      tag_21\n      swap2\n      swap1\n      tag_22\n      jump\t// in\n    tag_21:\n      tag_23\n      jump\t// in\n    tag_20:\n      stop\n        /* \"E-timetable.sol\":2458:3655  function getEvents(uint monthTimestamp, address[] memory cooperatorAddress) public view viewRestricted(cooperatorAddress)... */\n    tag_5:\n      tag_24\n      0x04\n      dup1\n      calldatasize\n      sub\n      dup2\n      add\n      swap1\n      tag_25\n      swap2\n      swap1\n      tag_26\n      jump\t// in\n    tag_25:\n      tag_27\n      jump\t// in\n    tag_24:\n      mload(0x40)\n      tag_28\n      swap6\n      swap5\n      swap4\n      swap3\n      swap2\n      swap1\n      tag_29\n      jump\t// in\n    tag_28:\n      mload(0x40)\n      dup1\n      swap2\n      sub\n      swap1\n      return\n        /* \"E-timetable.sol\":1868:2431  function addEvent(uint monthTimestamp, uint eventStartTimestamp, uint eventEndTimestamp, string memory title,... */\n    tag_6:\n      tag_30\n      0x04\n      dup1\n      calldatasize\n      sub\n      dup2\n      add\n      swap1\n      tag_31\n      swap2\n      swap1\n      tag_32\n      jump\t// in\n    tag_31:\n      tag_33\n      jump\t// in\n    tag_30:\n      stop\n        /* \"E-timetable.sol\":6647:7086  function deleteCooperator(uint index, address cooperator, address[] memory cooperatorAddress) public adminRestricted(cooperatorAddress){... */\n    tag_7:\n      tag_34\n      0x04\n      dup1\n      calldatasize\n      sub\n      dup2\n      add\n      swap1\n      tag_35\n      swap2\n      swap1\n      tag_36\n      jump\t// in\n    tag_35:\n      tag_37\n      jump\t// in\n    tag_34:\n      stop\n        /* \"E-timetable.sol\":7147:7589  function updateCooperator(address cooperator, string memory name, uint permission, address[] memory cooperatorAddress) public adminRestricted(cooperatorAddress){... */\n    tag_8:\n      tag_38\n      0x04\n      dup1\n      calldatasize\n      sub\n      dup2\n      add\n      swap1\n      tag_39\n      swap2\n      swap1\n      tag_40\n      jump\t// in\n    tag_39:\n      tag_41\n      jump\t// in\n    tag_38:\n      stop\n        /* \"E-timetable.sol\":417:439  address public manager */\n    tag_9:\n      tag_42\n      tag_43\n      jump\t// in\n    tag_42:\n      mload(0x40)\n      tag_44\n      swap2\n      swap1\n      tag_45\n      jump\t// in\n    tag_44:\n      mload(0x40)\n      dup1\n      swap2\n      sub\n      swap1\n      return\n        /* \"E-timetable.sol\":5990:6604  function getCooperators(address[] memory cooperatorAddress) public view viewRestricted(cooperatorAddress) returns(address[] memory _cooperators, string[] memory names, uint[] memory permissions){... */\n    tag_10:\n      tag_46\n      0x04\n      dup1\n      calldatasize\n      sub\n      dup2\n      add\n      swap1\n      tag_47\n      swap2\n      swap1\n      tag_48\n      jump\t// in\n    tag_47:\n      tag_49\n      jump\t// in\n    tag_46:\n      mload(0x40)\n      tag_50\n      swap4\n      swap3\n      swap2\n      swap1\n      tag_51\n      jump\t// in\n    tag_50:\n      mload(0x40)\n      dup1\n      swap2\n      sub\n      swap1\n      return\n        /* \"E-timetable.sol\":4760:4929  function getCalendarTitle(address[] memory cooperatorAddress) public view viewRestricted(cooperatorAddress) returns(string memory){... */\n    tag_11:\n      tag_52\n      0x04\n      dup1\n      calldatasize\n      sub\n      dup2\n      add\n      swap1\n      tag_53\n      swap2\n      swap1\n      tag_48\n      jump\t// in\n    tag_53:\n      tag_54\n      jump\t// in\n    tag_52:\n      mload(0x40)\n      tag_55\n      swap2\n      swap1\n      tag_56\n      jump\t// in\n    tag_55:\n      mload(0x40)\n      dup1\n      swap2\n      sub\n      swap1\n      return\n        /* \"E-timetable.sol\":5182:5535  function changeManager(address newManager) public{... */\n    tag_12:\n      tag_57\n      0x04\n      dup1\n      calldatasize\n      sub\n      dup2\n      add\n      swap1\n      tag_58\n      swap2\n      swap1\n      tag_59\n      jump\t// in\n    tag_58:\n      tag_60\n      jump\t// in\n    tag_57:\n      stop\n        /* \"E-timetable.sol\":4967:5134  function updateCalendarTitle(string memory title, address[] memory cooperatorAddress) public adminRestricted(cooperatorAddress){... */\n    tag_13:\n      tag_61\n      0x04\n      dup1\n      calldatasize\n      sub\n      dup2\n      add\n      swap1\n      tag_62\n      swap2\n      swap1\n      tag_63\n      jump\t// in\n    tag_62:\n      tag_64\n      jump\t// in\n    tag_61:\n      stop\n        /* \"E-timetable.sol\":3684:4306  function updateEvent(uint monthTimestamp, uint index, uint eventStartTimestamp, uint eventEndTimestamp, ... */\n    tag_14:\n      tag_65\n      0x04\n      dup1\n      calldatasize\n      sub\n      dup2\n      add\n      swap1\n      tag_66\n      swap2\n      swap1\n      tag_67\n      jump\t// in\n    tag_66:\n      tag_68\n      jump\t// in\n    tag_65:\n      stop\n        /* \"E-timetable.sol\":5596:5958  function addCooperator(address cooperator, uint permission, string memory name, address[] memory cooperatorAddress) public adminRestricted(cooperatorAddress){... */\n    tag_19:\n        /* \"E-timetable.sol\":5735:5752  cooperatorAddress */\n      dup1\n        /* \"E-timetable.sol\":733:781  checkAccess(cooperatorAddress, Permission.ADMIN) */\n      tag_70\n        /* \"E-timetable.sol\":745:762  cooperatorAddress */\n      dup2\n        /* \"E-timetable.sol\":764:780  Permission.ADMIN */\n      0x03\n        /* \"E-timetable.sol\":733:744  checkAccess */\n      tag_71\n        /* \"E-timetable.sol\":733:781  checkAccess(cooperatorAddress, Permission.ADMIN) */\n      jump\t// in\n    tag_70:\n        /* \"E-timetable.sol\":725:782  require(checkAccess(cooperatorAddress, Permission.ADMIN)) */\n      tag_72\n      jumpi\n      0x00\n      dup1\n      revert\n    tag_72:\n        /* \"E-timetable.sol\":5810:5821  cooperators */\n      0x03\n        /* \"E-timetable.sol\":5827:5837  cooperator */\n      dup6\n        /* \"E-timetable.sol\":5810:5838  cooperators.push(cooperator) */\n      swap1\n      dup1\n      0x01\n      dup2\n      sload\n      add\n      dup1\n      dup3\n      sstore\n      dup1\n      swap2\n      pop\n      pop\n      0x01\n      swap1\n      sub\n      swap1\n      0x00\n      mstore\n      keccak256(0x00, 0x20)\n      add\n      0x00\n      swap1\n      swap2\n      swap1\n      swap2\n      swap1\n      swap2\n      0x0100\n      exp\n      dup2\n      sload\n      dup2\n      0xffffffffffffffffffffffffffffffffffffffff\n      mul\n      not\n      and\n      swap1\n      dup4\n      0xffffffffffffffffffffffffffffffffffffffff\n      and\n      mul\n      or\n      swap1\n      sstore\n      pop\n        /* \"E-timetable.sol\":5895:5905  permission */\n      dup4\n        /* \"E-timetable.sol\":5884:5906  Permission(permission) */\n      0x03\n      dup2\n      gt\n      iszero\n      tag_75\n      jumpi\n      tag_76\n      tag_77\n      jump\t// in\n    tag_76:\n    tag_75:\n        /* \"E-timetable.sol\":5849:5869  cooperatorPermission */\n      0x04\n        /* \"E-timetable.sol\":5849:5881  cooperatorPermission[cooperator] */\n      0x00\n        /* \"E-timetable.sol\":5870:5880  cooperator */\n      dup8\n        /* \"E-timetable.sol\":5849:5881  cooperatorPermission[cooperator] */\n      0xffffffffffffffffffffffffffffffffffffffff\n      and\n      0xffffffffffffffffffffffffffffffffffffffff\n      and\n      dup2\n      mstore\n      0x20\n      add\n      swap1\n      dup2\n      mstore\n      0x20\n      add\n      0x00\n      keccak256\n      0x00\n        /* \"E-timetable.sol\":5849:5906  cooperatorPermission[cooperator] = Permission(permission) */\n      0x0100\n      exp\n      dup2\n      sload\n      dup2\n      0xff\n      mul\n      not\n      and\n      swap1\n      dup4\n      0x03\n      dup2\n      gt\n      iszero\n      tag_78\n      jumpi\n      tag_79\n      tag_77\n      jump\t// in\n    tag_79:\n    tag_78:\n      mul\n      or\n      swap1\n      sstore\n      pop\n        /* \"E-timetable.sol\":5946:5950  name */\n      dup3\n        /* \"E-timetable.sol\":5917:5931  cooperatorName */\n      0x05\n        /* \"E-timetable.sol\":5917:5943  cooperatorName[cooperator] */\n      0x00\n        /* \"E-timetable.sol\":5932:5942  cooperator */\n      dup8\n        /* \"E-timetable.sol\":5917:5943  cooperatorName[cooperator] */\n      0xffffffffffffffffffffffffffffffffffffffff\n      and\n      0xffffffffffffffffffffffffffffffffffffffff\n      and\n      dup2\n      mstore\n      0x20\n      add\n      swap1\n      dup2\n      mstore\n      0x20\n      add\n      0x00\n      keccak256\n        /* \"E-timetable.sol\":5917:5950  cooperatorName[cooperator] = name */\n      swap1\n      dup1\n      mload\n      swap1\n      0x20\n      add\n      swap1\n      tag_80\n      swap3\n      swap2\n      swap1\n      tag_81\n      jump\t// in\n    tag_80:\n      pop\n        /* \"E-timetable.sol\":5596:5958  function addCooperator(address cooperator, uint permission, string memory name, address[] memory cooperatorAddress) public adminRestricted(cooperatorAddress){... */\n      pop\n      pop\n      pop\n      pop\n      pop\n      jump\t// out\n        /* \"E-timetable.sol\":4335:4725  function deleteEvent(uint monthTimestamp, uint index, address[] memory cooperatorAddress) public editRestricted(cooperatorAddress){... */\n    tag_23:\n        /* \"E-timetable.sol\":4447:4464  cooperatorAddress */\n      dup1\n        /* \"E-timetable.sol\":1042:1089  checkAccess(cooperatorAddress, Permission.EDIT) */\n      tag_83\n        /* \"E-timetable.sol\":1054:1071  cooperatorAddress */\n      dup2\n        /* \"E-timetable.sol\":1073:1088  Permission.EDIT */\n      0x02\n        /* \"E-timetable.sol\":1042:1053  checkAccess */\n      tag_71\n        /* \"E-timetable.sol\":1042:1089  checkAccess(cooperatorAddress, Permission.EDIT) */\n      jump\t// in\n    tag_83:\n        /* \"E-timetable.sol\":1034:1090  require(checkAccess(cooperatorAddress, Permission.EDIT)) */\n      tag_84\n      jumpi\n      0x00\n      dup1\n      revert\n    tag_84:\n        /* \"E-timetable.sol\":4526:4555  Event[] storage eventsInMonth */\n      0x00\n        /* \"E-timetable.sol\":4558:4564  events */\n      dup1\n        /* \"E-timetable.sol\":4558:4580  events[monthTimestamp] */\n      0x00\n        /* \"E-timetable.sol\":4565:4579  monthTimestamp */\n      dup7\n        /* \"E-timetable.sol\":4558:4580  events[monthTimestamp] */\n      dup2\n      mstore\n      0x20\n      add\n      swap1\n      dup2\n      mstore\n      0x20\n      add\n      0x00\n      keccak256\n        /* \"E-timetable.sol\":4526:4580  Event[] storage eventsInMonth = events[monthTimestamp] */\n      swap1\n      pop\n        /* \"E-timetable.sol\":4650:4663  eventsInMonth */\n      dup1\n        /* \"E-timetable.sol\":4685:4686  1 */\n      0x01\n        /* \"E-timetable.sol\":4664:4677  eventsInMonth */\n      dup3\n        /* \"E-timetable.sol\":4664:4684  eventsInMonth.length */\n      dup1\n      sload\n      swap1\n      pop\n        /* \"E-timetable.sol\":4664:4686  eventsInMonth.length-1 */\n      tag_86\n      swap2\n      swap1\n      tag_87\n      jump\t// in\n    tag_86:\n        /* \"E-timetable.sol\":4650:4687  eventsInMonth[eventsInMonth.length-1] */\n      dup2\n      sload\n      dup2\n      lt\n      tag_88\n      jumpi\n      tag_89\n      tag_90\n      jump\t// in\n    tag_89:\n    tag_88:\n      swap1\n      0x00\n      mstore\n      keccak256(0x00, 0x20)\n      swap1\n      0x04\n      mul\n      add\n        /* \"E-timetable.sol\":4627:4640  eventsInMonth */\n      dup2\n        /* \"E-timetable.sol\":4641:4646  index */\n      dup6\n        /* \"E-timetable.sol\":4627:4647  eventsInMonth[index] */\n      dup2\n      sload\n      dup2\n      lt\n      tag_92\n      jumpi\n      tag_93\n      tag_90\n      jump\t// in\n    tag_93:\n    tag_92:\n      swap1\n      0x00\n      mstore\n      keccak256(0x00, 0x20)\n      swap1\n      0x04\n      mul\n      add\n        /* \"E-timetable.sol\":4627:4687  eventsInMonth[index] = eventsInMonth[eventsInMonth.length-1] */\n      0x00\n      dup3\n      add\n      sload\n      dup2\n      0x00\n      add\n      sstore\n      0x01\n      dup3\n      add\n      sload\n      dup2\n      0x01\n      add\n      sstore\n      0x02\n      dup3\n      add\n      dup2\n      0x02\n      add\n      swap1\n      dup1\n      sload\n      tag_95\n      swap1\n      tag_96\n      jump\t// in\n    tag_95:\n      tag_97\n      swap3\n      swap2\n      swap1\n      tag_98\n      jump\t// in\n    tag_97:\n      pop\n      0x03\n      dup3\n      add\n      dup2\n      0x03\n      add\n      swap1\n      dup1\n      sload\n      tag_99\n      swap1\n      tag_96\n      jump\t// in\n    tag_99:\n      tag_100\n      swap3\n      swap2\n      swap1\n      tag_98\n      jump\t// in\n    tag_100:\n      pop\n      swap1\n      pop\n      pop\n        /* \"E-timetable.sol\":4698:4711  eventsInMonth */\n      dup1\n        /* \"E-timetable.sol\":4698:4717  eventsInMonth.pop() */\n      dup1\n      sload\n      dup1\n      tag_101\n      jumpi\n      tag_102\n      tag_103\n      jump\t// in\n    tag_102:\n    tag_101:\n      0x01\n      swap1\n      sub\n      dup2\n      dup2\n      swap1\n      0x00\n      mstore\n      keccak256(0x00, 0x20)\n      swap1\n      0x04\n      mul\n      add\n      0x00\n      dup1\n      dup3\n      add\n      0x00\n      swap1\n      sstore\n      0x01\n      dup3\n      add\n      0x00\n      swap1\n      sstore\n      0x02\n      dup3\n      add\n      0x00\n      tag_105\n      swap2\n      swap1\n      tag_106\n      jump\t// in\n    tag_105:\n      0x03\n      dup3\n      add\n      0x00\n      tag_107\n      swap2\n      swap1\n      tag_106\n      jump\t// in\n    tag_107:\n      pop\n      pop\n      swap1\n      sstore\n        /* \"E-timetable.sol\":4465:4725  {... */\n      pop\n        /* \"E-timetable.sol\":4335:4725  function deleteEvent(uint monthTimestamp, uint index, address[] memory cooperatorAddress) public editRestricted(cooperatorAddress){... */\n      pop\n      pop\n      pop\n      pop\n      jump\t// out\n        /* \"E-timetable.sol\":2458:3655  function getEvents(uint monthTimestamp, address[] memory cooperatorAddress) public view viewRestricted(cooperatorAddress)... */\n    tag_27:\n        /* \"E-timetable.sol\":2601:2635  uint[] memory eventStartTimestamps */\n      0x60\n        /* \"E-timetable.sol\":2637:2669  uint[] memory eventEndTimestamps */\n      dup1\n        /* \"E-timetable.sol\":2685:2707  string[] memory titles */\n      0x60\n        /* \"E-timetable.sol\":2709:2737  string[] memory descriptions */\n      dup1\n        /* \"E-timetable.sol\":2739:2760  uint[] memory indexes */\n      0x60\n        /* \"E-timetable.sol\":2561:2578  cooperatorAddress */\n      dup6\n        /* \"E-timetable.sol\":888:935  checkAccess(cooperatorAddress, Permission.VIEW) */\n      tag_109\n        /* \"E-timetable.sol\":900:917  cooperatorAddress */\n      dup2\n        /* \"E-timetable.sol\":919:934  Permission.VIEW */\n      0x01\n        /* \"E-timetable.sol\":888:899  checkAccess */\n      tag_71\n        /* \"E-timetable.sol\":888:935  checkAccess(cooperatorAddress, Permission.VIEW) */\n      jump\t// in\n    tag_109:\n        /* \"E-timetable.sol\":880:936  require(checkAccess(cooperatorAddress, Permission.VIEW)) */\n      tag_110\n      jumpi\n      0x00\n      dup1\n      revert\n    tag_110:\n        /* \"E-timetable.sol\":2826:2871  Event[] memory eventsInProvidedMonthTimestamp */\n      0x00\n        /* \"E-timetable.sol\":2874:2880  events */\n      dup1\n        /* \"E-timetable.sol\":2874:2896  events[monthTimestamp] */\n      0x00\n        /* \"E-timetable.sol\":2881:2895  monthTimestamp */\n      dup11\n        /* \"E-timetable.sol\":2874:2896  events[monthTimestamp] */\n      dup2\n      mstore\n      0x20\n      add\n      swap1\n      dup2\n      mstore\n      0x20\n      add\n      0x00\n      keccak256\n        /* \"E-timetable.sol\":2826:2896  Event[] memory eventsInProvidedMonthTimestamp = events[monthTimestamp] */\n      dup1\n      sload\n      dup1\n      0x20\n      mul\n      0x20\n      add\n      mload(0x40)\n      swap1\n      dup2\n      add\n      0x40\n      mstore\n      dup1\n      swap3\n      swap2\n      swap1\n      dup2\n      dup2\n      mstore\n      0x20\n      add\n      0x00\n      swap1\n    tag_112:\n      dup3\n      dup3\n      lt\n      iszero\n      tag_113\n      jumpi\n      dup4\n      dup3\n      swap1\n      0x00\n      mstore\n      keccak256(0x00, 0x20)\n      swap1\n      0x04\n      mul\n      add\n      mload(0x40)\n      dup1\n      0x80\n      add\n      0x40\n      mstore\n      swap1\n      dup2\n      0x00\n      dup3\n      add\n      sload\n      dup2\n      mstore\n      0x20\n      add\n      0x01\n      dup3\n      add\n      sload\n      dup2\n      mstore\n      0x20\n      add\n      0x02\n      dup3\n      add\n      dup1\n      sload\n      tag_115\n      swap1\n      tag_96\n      jump\t// in\n    tag_115:\n      dup1\n      0x1f\n      add\n      0x20\n      dup1\n      swap2\n      div\n      mul\n      0x20\n      add\n      mload(0x40)\n      swap1\n      dup2\n      add\n      0x40\n      mstore\n      dup1\n      swap3\n      swap2\n      swap1\n      dup2\n      dup2\n      mstore\n      0x20\n      add\n      dup3\n      dup1\n      sload\n      tag_116\n      swap1\n      tag_96\n      jump\t// in\n    tag_116:\n      dup1\n      iszero\n      tag_117\n      jumpi\n      dup1\n      0x1f\n      lt\n      tag_118\n      jumpi\n      0x0100\n      dup1\n      dup4\n      sload\n      div\n      mul\n      dup4\n      mstore\n      swap2\n      0x20\n      add\n      swap2\n      jump(tag_117)\n    tag_118:\n      dup3\n      add\n      swap2\n      swap1\n      0x00\n      mstore\n      keccak256(0x00, 0x20)\n      swap1\n    tag_119:\n      dup2\n      sload\n      dup2\n      mstore\n      swap1\n      0x01\n      add\n      swap1\n      0x20\n      add\n      dup1\n      dup4\n      gt\n      tag_119\n      jumpi\n      dup3\n      swap1\n      sub\n      0x1f\n      and\n      dup3\n      add\n      swap2\n    tag_117:\n      pop\n      pop\n      pop\n      pop\n      pop\n      dup2\n      mstore\n      0x20\n      add\n      0x03\n      dup3\n      add\n      dup1\n      sload\n      tag_120\n      swap1\n      tag_96\n      jump\t// in\n    tag_120:\n      dup1\n      0x1f\n      add\n      0x20\n      dup1\n      swap2\n      div\n      mul\n      0x20\n      add\n      mload(0x40)\n      swap1\n      dup2\n      add\n      0x40\n      mstore\n      dup1\n      swap3\n      swap2\n      swap1\n      dup2\n      dup2\n      mstore\n      0x20\n      add\n      dup3\n      dup1\n      sload\n      tag_121\n      swap1\n      tag_96\n      jump\t// in\n    tag_121:\n      dup1\n      iszero\n      tag_122\n      jumpi\n      dup1\n      0x1f\n      lt\n      tag_123\n      jumpi\n      0x0100\n      dup1\n      dup4\n      sload\n      div\n      mul\n      dup4\n      mstore\n      swap2\n      0x20\n      add\n      swap2\n      jump(tag_122)\n    tag_123:\n      dup3\n      add\n      swap2\n      swap1\n      0x00\n      mstore\n      keccak256(0x00, 0x20)\n      swap1\n    tag_124:\n      dup2\n      sload\n      dup2\n      mstore\n      swap1\n      0x01\n      add\n      swap1\n      0x20\n      add\n      dup1\n      dup4\n      gt\n      tag_124\n      jumpi\n      dup3\n      swap1\n      sub\n      0x1f\n      and\n      dup3\n      add\n      swap2\n    tag_122:\n      pop\n      pop\n      pop\n      pop\n      pop\n      dup2\n      mstore\n      pop\n      pop\n      dup2\n      mstore\n      0x20\n      add\n      swap1\n      0x01\n      add\n      swap1\n      jump(tag_112)\n    tag_113:\n      pop\n      pop\n      pop\n      pop\n      swap1\n      pop\n        /* \"E-timetable.sol\":2943:2952  uint size */\n      0x00\n        /* \"E-timetable.sol\":2955:2985  eventsInProvidedMonthTimestamp */\n      dup2\n        /* \"E-timetable.sol\":2955:2992  eventsInProvidedMonthTimestamp.length */\n      mload\n        /* \"E-timetable.sol\":2943:2992  uint size = eventsInProvidedMonthTimestamp.length */\n      swap1\n      pop\n        /* \"E-timetable.sol\":3045:3049  size */\n      dup1\n        /* \"E-timetable.sol\":3034:3050  new uint[](size) */\n      0xffffffffffffffff\n      dup2\n      gt\n      iszero\n      tag_125\n      jumpi\n      tag_126\n      tag_127\n      jump\t// in\n    tag_126:\n    tag_125:\n      mload(0x40)\n      swap1\n      dup1\n      dup3\n      mstore\n      dup1\n      0x20\n      mul\n      0x20\n      add\n      dup3\n      add\n      0x40\n      mstore\n      dup1\n      iszero\n      tag_128\n      jumpi\n      dup2\n      0x20\n      add\n      0x20\n      dup3\n      mul\n      dup1\n      calldatasize\n      dup4\n      calldatacopy\n      dup1\n      dup3\n      add\n      swap2\n      pop\n      pop\n      swap1\n      pop\n    tag_128:\n      pop\n        /* \"E-timetable.sol\":3011:3050  eventStartTimestamps = new uint[](size) */\n      swap8\n      pop\n        /* \"E-timetable.sol\":3093:3097  size */\n      dup1\n        /* \"E-timetable.sol\":3082:3098  new uint[](size) */\n      0xffffffffffffffff\n      dup2\n      gt\n      iszero\n      tag_129\n      jumpi\n      tag_130\n      tag_127\n      jump\t// in\n    tag_130:\n    tag_129:\n      mload(0x40)\n      swap1\n      dup1\n      dup3\n      mstore\n      dup1\n      0x20\n      mul\n      0x20\n      add\n      dup3\n      add\n      0x40\n      mstore\n      dup1\n      iszero\n      tag_131\n      jumpi\n      dup2\n      0x20\n      add\n      0x20\n      dup3\n      mul\n      dup1\n      calldatasize\n      dup4\n      calldatacopy\n      dup1\n      dup3\n      add\n      swap2\n      pop\n      pop\n      swap1\n      pop\n    tag_131:\n      pop\n        /* \"E-timetable.sol\":3061:3098  eventEndTimestamps = new uint[](size) */\n      swap7\n      pop\n        /* \"E-timetable.sol\":3131:3135  size */\n      dup1\n        /* \"E-timetable.sol\":3118:3136  new string[](size) */\n      0xffffffffffffffff\n      dup2\n      gt\n      iszero\n      tag_132\n      jumpi\n      tag_133\n      tag_127\n      jump\t// in\n    tag_133:\n    tag_132:\n      mload(0x40)\n      swap1\n      dup1\n      dup3\n      mstore\n      dup1\n      0x20\n      mul\n      0x20\n      add\n      dup3\n      add\n      0x40\n      mstore\n      dup1\n      iszero\n      tag_134\n      jumpi\n      dup2\n      0x20\n      add\n    tag_135:\n      0x60\n      dup2\n      mstore\n      0x20\n      add\n      swap1\n      0x01\n      swap1\n      sub\n      swap1\n      dup2\n      tag_135\n      jumpi\n      swap1\n      pop\n    tag_134:\n      pop\n        /* \"E-timetable.sol\":3109:3136  titles = new string[](size) */\n      swap6\n      pop\n        /* \"E-timetable.sol\":3175:3179  size */\n      dup1\n        /* \"E-timetable.sol\":3162:3180  new string[](size) */\n      0xffffffffffffffff\n      dup2\n      gt\n      iszero\n      tag_136\n      jumpi\n      tag_137\n      tag_127\n      jump\t// in\n    tag_137:\n    tag_136:\n      mload(0x40)\n      swap1\n      dup1\n      dup3\n      mstore\n      dup1\n      0x20\n      mul\n      0x20\n      add\n      dup3\n      add\n      0x40\n      mstore\n      dup1\n      iszero\n      tag_138\n      jumpi\n      dup2\n      0x20\n      add\n    tag_139:\n      0x60\n      dup2\n      mstore\n      0x20\n      add\n      swap1\n      0x01\n      swap1\n      sub\n      swap1\n      dup2\n      tag_139\n      jumpi\n      swap1\n      pop\n    tag_138:\n      pop\n        /* \"E-timetable.sol\":3147:3180  descriptions = new string[](size) */\n      swap5\n      pop\n        /* \"E-timetable.sol\":3212:3216  size */\n      dup1\n        /* \"E-timetable.sol\":3201:3217  new uint[](size) */\n      0xffffffffffffffff\n      dup2\n      gt\n      iszero\n      tag_140\n      jumpi\n      tag_141\n      tag_127\n      jump\t// in\n    tag_141:\n    tag_140:\n      mload(0x40)\n      swap1\n      dup1\n      dup3\n      mstore\n      dup1\n      0x20\n      mul\n      0x20\n      add\n      dup3\n      add\n      0x40\n      mstore\n      dup1\n      iszero\n      tag_142\n      jumpi\n      dup2\n      0x20\n      add\n      0x20\n      dup3\n      mul\n      dup1\n      calldatasize\n      dup4\n      calldatacopy\n      dup1\n      dup3\n      add\n      swap2\n      pop\n      pop\n      swap1\n      pop\n    tag_142:\n      pop\n        /* \"E-timetable.sol\":3191:3217  indexes = new uint[](size) */\n      swap4\n      pop\n        /* \"E-timetable.sol\":3268:3274  uint i */\n      0x00\n        /* \"E-timetable.sol\":3264:3648  for(uint i=0; i<size;i++){... */\n    tag_143:\n        /* \"E-timetable.sol\":3280:3284  size */\n      dup2\n        /* \"E-timetable.sol\":3278:3279  i */\n      dup2\n        /* \"E-timetable.sol\":3278:3284  i<size */\n      lt\n        /* \"E-timetable.sol\":3264:3648  for(uint i=0; i<size;i++){... */\n      iszero\n      tag_144\n      jumpi\n        /* \"E-timetable.sol\":3330:3360  eventsInProvidedMonthTimestamp */\n      dup3\n        /* \"E-timetable.sol\":3361:3362  i */\n      dup2\n        /* \"E-timetable.sol\":3330:3363  eventsInProvidedMonthTimestamp[i] */\n      dup2\n      mload\n      dup2\n      lt\n      tag_146\n      jumpi\n      tag_147\n      tag_90\n      jump\t// in\n    tag_147:\n    tag_146:\n      0x20\n      mul\n      0x20\n      add\n      add\n      mload\n        /* \"E-timetable.sol\":3330:3378  eventsInProvidedMonthTimestamp[i].startTimestamp */\n      0x00\n      add\n      mload\n        /* \"E-timetable.sol\":3304:3324  eventStartTimestamps */\n      dup10\n        /* \"E-timetable.sol\":3325:3326  i */\n      dup3\n        /* \"E-timetable.sol\":3304:3327  eventStartTimestamps[i] */\n      dup2\n      mload\n      dup2\n      lt\n      tag_148\n      jumpi\n      tag_149\n      tag_90\n      jump\t// in\n    tag_149:\n    tag_148:\n      0x20\n      mul\n      0x20\n      add\n      add\n        /* \"E-timetable.sol\":3304:3378  eventStartTimestamps[i] = eventsInProvidedMonthTimestamp[i].startTimestamp */\n      dup2\n      dup2\n      mstore\n      pop\n      pop\n        /* \"E-timetable.sol\":3417:3447  eventsInProvidedMonthTimestamp */\n      dup3\n        /* \"E-timetable.sol\":3448:3449  i */\n      dup2\n        /* \"E-timetable.sol\":3417:3450  eventsInProvidedMonthTimestamp[i] */\n      dup2\n      mload\n      dup2\n      lt\n      tag_150\n      jumpi\n      tag_151\n      tag_90\n      jump\t// in\n    tag_151:\n    tag_150:\n      0x20\n      mul\n      0x20\n      add\n      add\n      mload\n        /* \"E-timetable.sol\":3417:3463  eventsInProvidedMonthTimestamp[i].endTimestamp */\n      0x20\n      add\n      mload\n        /* \"E-timetable.sol\":3393:3411  eventEndTimestamps */\n      dup9\n        /* \"E-timetable.sol\":3412:3413  i */\n      dup3\n        /* \"E-timetable.sol\":3393:3414  eventEndTimestamps[i] */\n      dup2\n      mload\n      dup2\n      lt\n      tag_152\n      jumpi\n      tag_153\n      tag_90\n      jump\t// in\n    tag_153:\n    tag_152:\n      0x20\n      mul\n      0x20\n      add\n      add\n        /* \"E-timetable.sol\":3393:3463  eventEndTimestamps[i] = eventsInProvidedMonthTimestamp[i].endTimestamp */\n      dup2\n      dup2\n      mstore\n      pop\n      pop\n        /* \"E-timetable.sol\":3490:3520  eventsInProvidedMonthTimestamp */\n      dup3\n        /* \"E-timetable.sol\":3521:3522  i */\n      dup2\n        /* \"E-timetable.sol\":3490:3523  eventsInProvidedMonthTimestamp[i] */\n      dup2\n      mload\n      dup2\n      lt\n      tag_154\n      jumpi\n      tag_155\n      tag_90\n      jump\t// in\n    tag_155:\n    tag_154:\n      0x20\n      mul\n      0x20\n      add\n      add\n      mload\n        /* \"E-timetable.sol\":3490:3529  eventsInProvidedMonthTimestamp[i].title */\n      0x40\n      add\n      mload\n        /* \"E-timetable.sol\":3478:3484  titles */\n      dup8\n        /* \"E-timetable.sol\":3485:3486  i */\n      dup3\n        /* \"E-timetable.sol\":3478:3487  titles[i] */\n      dup2\n      mload\n      dup2\n      lt\n      tag_156\n      jumpi\n      tag_157\n      tag_90\n      jump\t// in\n    tag_157:\n    tag_156:\n      0x20\n      mul\n      0x20\n      add\n      add\n        /* \"E-timetable.sol\":3478:3529  titles[i] = eventsInProvidedMonthTimestamp[i].title */\n      dup2\n      swap1\n      mstore\n      pop\n        /* \"E-timetable.sol\":3562:3592  eventsInProvidedMonthTimestamp */\n      dup3\n        /* \"E-timetable.sol\":3593:3594  i */\n      dup2\n        /* \"E-timetable.sol\":3562:3595  eventsInProvidedMonthTimestamp[i] */\n      dup2\n      mload\n      dup2\n      lt\n      tag_158\n      jumpi\n      tag_159\n      tag_90\n      jump\t// in\n    tag_159:\n    tag_158:\n      0x20\n      mul\n      0x20\n      add\n      add\n      mload\n        /* \"E-timetable.sol\":3562:3607  eventsInProvidedMonthTimestamp[i].description */\n      0x60\n      add\n      mload\n        /* \"E-timetable.sol\":3544:3556  descriptions */\n      dup7\n        /* \"E-timetable.sol\":3557:3558  i */\n      dup3\n        /* \"E-timetable.sol\":3544:3559  descriptions[i] */\n      dup2\n      mload\n      dup2\n      lt\n      tag_160\n      jumpi\n      tag_161\n      tag_90\n      jump\t// in\n    tag_161:\n    tag_160:\n      0x20\n      mul\n      0x20\n      add\n      add\n        /* \"E-timetable.sol\":3544:3607  descriptions[i] = eventsInProvidedMonthTimestamp[i].description */\n      dup2\n      swap1\n      mstore\n      pop\n        /* \"E-timetable.sol\":3635:3636  i */\n      dup1\n        /* \"E-timetable.sol\":3622:3629  indexes */\n      dup6\n        /* \"E-timetable.sol\":3630:3631  i */\n      dup3\n        /* \"E-timetable.sol\":3622:3632  indexes[i] */\n      dup2\n      mload\n      dup2\n      lt\n      tag_162\n      jumpi\n      tag_163\n      tag_90\n      jump\t// in\n    tag_163:\n    tag_162:\n      0x20\n      mul\n      0x20\n      add\n      add\n        /* \"E-timetable.sol\":3622:3636  indexes[i] = i */\n      dup2\n      dup2\n      mstore\n      pop\n      pop\n        /* \"E-timetable.sol\":3285:3288  i++ */\n      dup1\n      dup1\n      tag_164\n      swap1\n      tag_165\n      jump\t// in\n    tag_164:\n      swap2\n      pop\n      pop\n        /* \"E-timetable.sol\":3264:3648  for(uint i=0; i<size;i++){... */\n      jump(tag_143)\n    tag_144:\n      pop\n        /* \"E-timetable.sol\":2762:3655  {... */\n      pop\n      pop\n        /* \"E-timetable.sol\":2458:3655  function getEvents(uint monthTimestamp, address[] memory cooperatorAddress) public view viewRestricted(cooperatorAddress)... */\n      pop\n      swap3\n      swap6\n      pop\n      swap3\n      swap6\n      swap1\n      swap4\n      pop\n      jump\t// out\n        /* \"E-timetable.sol\":1868:2431  function addEvent(uint monthTimestamp, uint eventStartTimestamp, uint eventEndTimestamp, string memory title,... */\n    tag_33:\n        /* \"E-timetable.sol\":2072:2089  cooperatorAddress */\n      dup1\n        /* \"E-timetable.sol\":1042:1089  checkAccess(cooperatorAddress, Permission.EDIT) */\n      tag_167\n        /* \"E-timetable.sol\":1054:1071  cooperatorAddress */\n      dup2\n        /* \"E-timetable.sol\":1073:1088  Permission.EDIT */\n      0x02\n        /* \"E-timetable.sol\":1042:1053  checkAccess */\n      tag_71\n        /* \"E-timetable.sol\":1042:1089  checkAccess(cooperatorAddress, Permission.EDIT) */\n      jump\t// in\n    tag_167:\n        /* \"E-timetable.sol\":1034:1090  require(checkAccess(cooperatorAddress, Permission.EDIT)) */\n      tag_168\n      jumpi\n      0x00\n      dup1\n      revert\n    tag_168:\n        /* \"E-timetable.sol\":2135:2156  Event memory newEvent */\n      0x00\n        /* \"E-timetable.sol\":2159:2341  Event({... */\n      mload(0x40)\n      dup1\n      0x80\n      add\n      0x40\n      mstore\n      dup1\n        /* \"E-timetable.sol\":2197:2216  eventStartTimestamp */\n      dup9\n        /* \"E-timetable.sol\":2159:2341  Event({... */\n      dup2\n      mstore\n      0x20\n      add\n        /* \"E-timetable.sol\":2245:2262  eventEndTimestamp */\n      dup8\n        /* \"E-timetable.sol\":2159:2341  Event({... */\n      dup2\n      mstore\n      0x20\n      add\n        /* \"E-timetable.sol\":2285:2290  title */\n      dup7\n        /* \"E-timetable.sol\":2159:2341  Event({... */\n      dup2\n      mstore\n      0x20\n      add\n        /* \"E-timetable.sol\":2318:2329  description */\n      dup6\n        /* \"E-timetable.sol\":2159:2341  Event({... */\n      dup2\n      mstore\n      pop\n        /* \"E-timetable.sol\":2135:2341  Event memory newEvent = Event({... */\n      swap1\n      pop\n        /* \"E-timetable.sol\":2386:2392  events */\n      0x00\n        /* \"E-timetable.sol\":2386:2408  events[monthTimestamp] */\n      dup1\n        /* \"E-timetable.sol\":2393:2407  monthTimestamp */\n      dup10\n        /* \"E-timetable.sol\":2386:2408  events[monthTimestamp] */\n      dup2\n      mstore\n      0x20\n      add\n      swap1\n      dup2\n      mstore\n      0x20\n      add\n      0x00\n      keccak256\n        /* \"E-timetable.sol\":2414:2422  newEvent */\n      dup2\n        /* \"E-timetable.sol\":2386:2423  events[monthTimestamp].push(newEvent) */\n      swap1\n      dup1\n      0x01\n      dup2\n      sload\n      add\n      dup1\n      dup3\n      sstore\n      dup1\n      swap2\n      pop\n      pop\n      0x01\n      swap1\n      sub\n      swap1\n      0x00\n      mstore\n      keccak256(0x00, 0x20)\n      swap1\n      0x04\n      mul\n      add\n      0x00\n      swap1\n      swap2\n      swap1\n      swap2\n      swap1\n      swap2\n      pop\n      0x00\n      dup3\n      add\n      mload\n      dup2\n      0x00\n      add\n      sstore\n      0x20\n      dup3\n      add\n      mload\n      dup2\n      0x01\n      add\n      sstore\n      0x40\n      dup3\n      add\n      mload\n      dup2\n      0x02\n      add\n      swap1\n      dup1\n      mload\n      swap1\n      0x20\n      add\n      swap1\n      tag_171\n      swap3\n      swap2\n      swap1\n      tag_81\n      jump\t// in\n    tag_171:\n      pop\n      0x60\n      dup3\n      add\n      mload\n      dup2\n      0x03\n      add\n      swap1\n      dup1\n      mload\n      swap1\n      0x20\n      add\n      swap1\n      tag_172\n      swap3\n      swap2\n      swap1\n      tag_81\n      jump\t// in\n    tag_172:\n      pop\n      pop\n      pop\n        /* \"E-timetable.sol\":2090:2431  {... */\n      pop\n        /* \"E-timetable.sol\":1868:2431  function addEvent(uint monthTimestamp, uint eventStartTimestamp, uint eventEndTimestamp, string memory title,... */\n      pop\n      pop\n      pop\n      pop\n      pop\n      pop\n      pop\n      jump\t// out\n        /* \"E-timetable.sol\":6647:7086  function deleteCooperator(uint index, address cooperator, address[] memory cooperatorAddress) public adminRestricted(cooperatorAddress){... */\n    tag_37:\n        /* \"E-timetable.sol\":6764:6781  cooperatorAddress */\n      dup1\n        /* \"E-timetable.sol\":733:781  checkAccess(cooperatorAddress, Permission.ADMIN) */\n      tag_174\n        /* \"E-timetable.sol\":745:762  cooperatorAddress */\n      dup2\n        /* \"E-timetable.sol\":764:780  Permission.ADMIN */\n      0x03\n        /* \"E-timetable.sol\":733:744  checkAccess */\n      tag_71\n        /* \"E-timetable.sol\":733:781  checkAccess(cooperatorAddress, Permission.ADMIN) */\n      jump\t// in\n    tag_174:\n        /* \"E-timetable.sol\":725:782  require(checkAccess(cooperatorAddress, Permission.ADMIN)) */\n      tag_175\n      jumpi\n      0x00\n      dup1\n      revert\n    tag_175:\n        /* \"E-timetable.sol\":6810:6817  manager */\n      0x01\n      0x00\n      swap1\n      sload\n      swap1\n      0x0100\n      exp\n      swap1\n      div\n      0xffffffffffffffffffffffffffffffffffffffff\n      and\n        /* \"E-timetable.sol\":6796:6817  cooperator != manager */\n      0xffffffffffffffffffffffffffffffffffffffff\n      and\n        /* \"E-timetable.sol\":6796:6806  cooperator */\n      dup4\n        /* \"E-timetable.sol\":6796:6817  cooperator != manager */\n      0xffffffffffffffffffffffffffffffffffffffff\n      and\n      eq\n        /* \"E-timetable.sol\":6793:7079  if(cooperator != manager){... */\n      tag_177\n      jumpi\n        /* \"E-timetable.sol\":6886:6906  cooperatorPermission */\n      0x04\n        /* \"E-timetable.sol\":6886:6918  cooperatorPermission[cooperator] */\n      0x00\n        /* \"E-timetable.sol\":6907:6917  cooperator */\n      dup5\n        /* \"E-timetable.sol\":6886:6918  cooperatorPermission[cooperator] */\n      0xffffffffffffffffffffffffffffffffffffffff\n      and\n      0xffffffffffffffffffffffffffffffffffffffff\n      and\n      dup2\n      mstore\n      0x20\n      add\n      swap1\n      dup2\n      mstore\n      0x20\n      add\n      0x00\n      keccak256\n      0x00\n        /* \"E-timetable.sol\":6879:6918  delete cooperatorPermission[cooperator] */\n      0x0100\n      exp\n      dup2\n      sload\n      swap1\n      0xff\n      mul\n      not\n      and\n      swap1\n      sstore\n        /* \"E-timetable.sol\":6940:6954  cooperatorName */\n      0x05\n        /* \"E-timetable.sol\":6940:6966  cooperatorName[cooperator] */\n      0x00\n        /* \"E-timetable.sol\":6955:6965  cooperator */\n      dup5\n        /* \"E-timetable.sol\":6940:6966  cooperatorName[cooperator] */\n      0xffffffffffffffffffffffffffffffffffffffff\n      and\n      0xffffffffffffffffffffffffffffffffffffffff\n      and\n      dup2\n      mstore\n      0x20\n      add\n      swap1\n      dup2\n      mstore\n      0x20\n      add\n      0x00\n      keccak256\n      0x00\n        /* \"E-timetable.sol\":6933:6966  delete cooperatorName[cooperator] */\n      tag_178\n      swap2\n      swap1\n      tag_106\n      jump\t// in\n    tag_178:\n        /* \"E-timetable.sol\":7002:7013  cooperators */\n      0x03\n        /* \"E-timetable.sol\":7033:7034  1 */\n      0x01\n        /* \"E-timetable.sol\":7014:7025  cooperators */\n      0x03\n        /* \"E-timetable.sol\":7014:7032  cooperators.length */\n      dup1\n      sload\n      swap1\n      pop\n        /* \"E-timetable.sol\":7014:7034  cooperators.length-1 */\n      tag_179\n      swap2\n      swap1\n      tag_87\n      jump\t// in\n    tag_179:\n        /* \"E-timetable.sol\":7002:7035  cooperators[cooperators.length-1] */\n      dup2\n      sload\n      dup2\n      lt\n      tag_180\n      jumpi\n      tag_181\n      tag_90\n      jump\t// in\n    tag_181:\n    tag_180:\n      swap1\n      0x00\n      mstore\n      keccak256(0x00, 0x20)\n      add\n      0x00\n      swap1\n      sload\n      swap1\n      0x0100\n      exp\n      swap1\n      div\n      0xffffffffffffffffffffffffffffffffffffffff\n      and\n        /* \"E-timetable.sol\":6981:6992  cooperators */\n      0x03\n        /* \"E-timetable.sol\":6993:6998  index */\n      dup6\n        /* \"E-timetable.sol\":6981:6999  cooperators[index] */\n      dup2\n      sload\n      dup2\n      lt\n      tag_183\n      jumpi\n      tag_184\n      tag_90\n      jump\t// in\n    tag_184:\n    tag_183:\n      swap1\n      0x00\n      mstore\n      keccak256(0x00, 0x20)\n      add\n      0x00\n        /* \"E-timetable.sol\":6981:7035  cooperators[index] = cooperators[cooperators.length-1] */\n      0x0100\n      exp\n      dup2\n      sload\n      dup2\n      0xffffffffffffffffffffffffffffffffffffffff\n      mul\n      not\n      and\n      swap1\n      dup4\n      0xffffffffffffffffffffffffffffffffffffffff\n      and\n      mul\n      or\n      swap1\n      sstore\n      pop\n        /* \"E-timetable.sol\":7050:7061  cooperators */\n      0x03\n        /* \"E-timetable.sol\":7050:7067  cooperators.pop() */\n      dup1\n      sload\n      dup1\n      tag_186\n      jumpi\n      tag_187\n      tag_103\n      jump\t// in\n    tag_187:\n    tag_186:\n      0x01\n      swap1\n      sub\n      dup2\n      dup2\n      swap1\n      0x00\n      mstore\n      keccak256(0x00, 0x20)\n      add\n      exp(0x0100, 0x00)\n      dup2\n      sload\n      swap1\n      0xffffffffffffffffffffffffffffffffffffffff\n      mul\n      not\n      and\n      swap1\n      sstore\n      swap1\n      sstore\n        /* \"E-timetable.sol\":6793:7079  if(cooperator != manager){... */\n    tag_177:\n        /* \"E-timetable.sol\":6647:7086  function deleteCooperator(uint index, address cooperator, address[] memory cooperatorAddress) public adminRestricted(cooperatorAddress){... */\n      pop\n      pop\n      pop\n      pop\n      jump\t// out\n        /* \"E-timetable.sol\":7147:7589  function updateCooperator(address cooperator, string memory name, uint permission, address[] memory cooperatorAddress) public adminRestricted(cooperatorAddress){... */\n    tag_41:\n        /* \"E-timetable.sol\":7289:7306  cooperatorAddress */\n      dup1\n        /* \"E-timetable.sol\":733:781  checkAccess(cooperatorAddress, Permission.ADMIN) */\n      tag_190\n        /* \"E-timetable.sol\":745:762  cooperatorAddress */\n      dup2\n        /* \"E-timetable.sol\":764:780  Permission.ADMIN */\n      0x03\n        /* \"E-timetable.sol\":733:744  checkAccess */\n      tag_71\n        /* \"E-timetable.sol\":733:781  checkAccess(cooperatorAddress, Permission.ADMIN) */\n      jump\t// in\n    tag_190:\n        /* \"E-timetable.sol\":725:782  require(checkAccess(cooperatorAddress, Permission.ADMIN)) */\n      tag_191\n      jumpi\n      0x00\n      dup1\n      revert\n    tag_191:\n        /* \"E-timetable.sol\":7335:7342  manager */\n      0x01\n      0x00\n      swap1\n      sload\n      swap1\n      0x0100\n      exp\n      swap1\n      div\n      0xffffffffffffffffffffffffffffffffffffffff\n      and\n        /* \"E-timetable.sol\":7321:7342  cooperator != manager */\n      0xffffffffffffffffffffffffffffffffffffffff\n      and\n        /* \"E-timetable.sol\":7321:7331  cooperator */\n      dup6\n        /* \"E-timetable.sol\":7321:7342  cooperator != manager */\n      0xffffffffffffffffffffffffffffffffffffffff\n      and\n      eq\n      iszero\n        /* \"E-timetable.sol\":7321:7388  cooperator != manager || (Permission(permission)==Permission.ADMIN) */\n      dup1\n      tag_193\n      jumpi\n      pop\n        /* \"E-timetable.sol\":7371:7387  Permission.ADMIN */\n      0x03\n        /* \"E-timetable.sol\":7347:7387  Permission(permission)==Permission.ADMIN */\n      dup1\n      dup2\n      gt\n      iszero\n      tag_194\n      jumpi\n      tag_195\n      tag_77\n      jump\t// in\n    tag_195:\n    tag_194:\n        /* \"E-timetable.sol\":7358:7368  permission */\n      dup4\n        /* \"E-timetable.sol\":7347:7369  Permission(permission) */\n      0x03\n      dup2\n      gt\n      iszero\n      tag_196\n      jumpi\n      tag_197\n      tag_77\n      jump\t// in\n    tag_197:\n    tag_196:\n        /* \"E-timetable.sol\":7347:7387  Permission(permission)==Permission.ADMIN */\n      0x03\n      dup2\n      gt\n      iszero\n      tag_198\n      jumpi\n      tag_199\n      tag_77\n      jump\t// in\n    tag_199:\n    tag_198:\n      eq\n        /* \"E-timetable.sol\":7321:7388  cooperator != manager || (Permission(permission)==Permission.ADMIN) */\n    tag_193:\n        /* \"E-timetable.sol\":7318:7582  if(cooperator != manager || (Permission(permission)==Permission.ADMIN)){... */\n      iszero\n      tag_200\n      jumpi\n        /* \"E-timetable.sol\":7494:7498  name */\n      dup4\n        /* \"E-timetable.sol\":7465:7479  cooperatorName */\n      0x05\n        /* \"E-timetable.sol\":7465:7491  cooperatorName[cooperator] */\n      0x00\n        /* \"E-timetable.sol\":7480:7490  cooperator */\n      dup8\n        /* \"E-timetable.sol\":7465:7491  cooperatorName[cooperator] */\n      0xffffffffffffffffffffffffffffffffffffffff\n      and\n      0xffffffffffffffffffffffffffffffffffffffff\n      and\n      dup2\n      mstore\n      0x20\n      add\n      swap1\n      dup2\n      mstore\n      0x20\n      add\n      0x00\n      keccak256\n        /* \"E-timetable.sol\":7465:7498  cooperatorName[cooperator] = name */\n      swap1\n      dup1\n      mload\n      swap1\n      0x20\n      add\n      swap1\n      tag_201\n      swap3\n      swap2\n      swap1\n      tag_81\n      jump\t// in\n    tag_201:\n      pop\n        /* \"E-timetable.sol\":7559:7569  permission */\n      dup3\n        /* \"E-timetable.sol\":7548:7570  Permission(permission) */\n      0x03\n      dup2\n      gt\n      iszero\n      tag_202\n      jumpi\n      tag_203\n      tag_77\n      jump\t// in\n    tag_203:\n    tag_202:\n        /* \"E-timetable.sol\":7513:7533  cooperatorPermission */\n      0x04\n        /* \"E-timetable.sol\":7513:7545  cooperatorPermission[cooperator] */\n      0x00\n        /* \"E-timetable.sol\":7534:7544  cooperator */\n      dup8\n        /* \"E-timetable.sol\":7513:7545  cooperatorPermission[cooperator] */\n      0xffffffffffffffffffffffffffffffffffffffff\n      and\n      0xffffffffffffffffffffffffffffffffffffffff\n      and\n      dup2\n      mstore\n      0x20\n      add\n      swap1\n      dup2\n      mstore\n      0x20\n      add\n      0x00\n      keccak256\n      0x00\n        /* \"E-timetable.sol\":7513:7570  cooperatorPermission[cooperator] = Permission(permission) */\n      0x0100\n      exp\n      dup2\n      sload\n      dup2\n      0xff\n      mul\n      not\n      and\n      swap1\n      dup4\n      0x03\n      dup2\n      gt\n      iszero\n      tag_204\n      jumpi\n      tag_205\n      tag_77\n      jump\t// in\n    tag_205:\n    tag_204:\n      mul\n      or\n      swap1\n      sstore\n      pop\n        /* \"E-timetable.sol\":7318:7582  if(cooperator != manager || (Permission(permission)==Permission.ADMIN)){... */\n    tag_200:\n        /* \"E-timetable.sol\":7147:7589  function updateCooperator(address cooperator, string memory name, uint permission, address[] memory cooperatorAddress) public adminRestricted(cooperatorAddress){... */\n      pop\n      pop\n      pop\n      pop\n      pop\n      jump\t// out\n        /* \"E-timetable.sol\":417:439  address public manager */\n    tag_43:\n      0x01\n      0x00\n      swap1\n      sload\n      swap1\n      0x0100\n      exp\n      swap1\n      div\n      0xffffffffffffffffffffffffffffffffffffffff\n      and\n      dup2\n      jump\t// out\n        /* \"E-timetable.sol\":5990:6604  function getCooperators(address[] memory cooperatorAddress) public view viewRestricted(cooperatorAddress) returns(address[] memory _cooperators, string[] memory names, uint[] memory permissions){... */\n    tag_49:\n        /* \"E-timetable.sol\":6104:6133  address[] memory _cooperators */\n      0x60\n        /* \"E-timetable.sol\":6135:6156  string[] memory names */\n      dup1\n        /* \"E-timetable.sol\":6158:6183  uint[] memory permissions */\n      0x60\n        /* \"E-timetable.sol\":6077:6094  cooperatorAddress */\n      dup4\n        /* \"E-timetable.sol\":888:935  checkAccess(cooperatorAddress, Permission.VIEW) */\n      tag_207\n        /* \"E-timetable.sol\":900:917  cooperatorAddress */\n      dup2\n        /* \"E-timetable.sol\":919:934  Permission.VIEW */\n      0x01\n        /* \"E-timetable.sol\":888:899  checkAccess */\n      tag_71\n        /* \"E-timetable.sol\":888:935  checkAccess(cooperatorAddress, Permission.VIEW) */\n      jump\t// in\n    tag_207:\n        /* \"E-timetable.sol\":880:936  require(checkAccess(cooperatorAddress, Permission.VIEW)) */\n      tag_208\n      jumpi\n      0x00\n      dup1\n      revert\n    tag_208:\n        /* \"E-timetable.sol\":6229:6238  uint size */\n      0x00\n        /* \"E-timetable.sol\":6241:6252  cooperators */\n      0x03\n        /* \"E-timetable.sol\":6241:6259  cooperators.length */\n      dup1\n      sload\n      swap1\n      pop\n        /* \"E-timetable.sol\":6229:6259  uint size = cooperators.length */\n      swap1\n      pop\n        /* \"E-timetable.sol\":6285:6296  cooperators */\n      0x03\n        /* \"E-timetable.sol\":6270:6296  _cooperators = cooperators */\n      dup1\n      sload\n      dup1\n      0x20\n      mul\n      0x20\n      add\n      mload(0x40)\n      swap1\n      dup2\n      add\n      0x40\n      mstore\n      dup1\n      swap3\n      swap2\n      swap1\n      dup2\n      dup2\n      mstore\n      0x20\n      add\n      dup3\n      dup1\n      sload\n      dup1\n      iszero\n      tag_210\n      jumpi\n      0x20\n      mul\n      dup3\n      add\n      swap2\n      swap1\n      0x00\n      mstore\n      keccak256(0x00, 0x20)\n      swap1\n    tag_211:\n      dup2\n      0x00\n      swap1\n      sload\n      swap1\n      0x0100\n      exp\n      swap1\n      div\n      0xffffffffffffffffffffffffffffffffffffffff\n      and\n      0xffffffffffffffffffffffffffffffffffffffff\n      and\n      dup2\n      mstore\n      0x20\n      add\n      swap1\n      0x01\n      add\n      swap1\n      dup1\n      dup4\n      gt\n      tag_211\n      jumpi\n    tag_210:\n      pop\n      pop\n      pop\n      pop\n      pop\n      swap5\n      pop\n        /* \"E-timetable.sol\":6328:6332  size */\n      dup1\n        /* \"E-timetable.sol\":6315:6333  new string[](size) */\n      0xffffffffffffffff\n      dup2\n      gt\n      iszero\n      tag_212\n      jumpi\n      tag_213\n      tag_127\n      jump\t// in\n    tag_213:\n    tag_212:\n      mload(0x40)\n      swap1\n      dup1\n      dup3\n      mstore\n      dup1\n      0x20\n      mul\n      0x20\n      add\n      dup3\n      add\n      0x40\n      mstore\n      dup1\n      iszero\n      tag_214\n      jumpi\n      dup2\n      0x20\n      add\n    tag_215:\n      0x60\n      dup2\n      mstore\n      0x20\n      add\n      swap1\n      0x01\n      swap1\n      sub\n      swap1\n      dup2\n      tag_215\n      jumpi\n      swap1\n      pop\n    tag_214:\n      pop\n        /* \"E-timetable.sol\":6307:6333  names = new string[](size) */\n      swap4\n      pop\n        /* \"E-timetable.sol\":6369:6373  size */\n      dup1\n        /* \"E-timetable.sol\":6358:6374  new uint[](size) */\n      0xffffffffffffffff\n      dup2\n      gt\n      iszero\n      tag_216\n      jumpi\n      tag_217\n      tag_127\n      jump\t// in\n    tag_217:\n    tag_216:\n      mload(0x40)\n      swap1\n      dup1\n      dup3\n      mstore\n      dup1\n      0x20\n      mul\n      0x20\n      add\n      dup3\n      add\n      0x40\n      mstore\n      dup1\n      iszero\n      tag_218\n      jumpi\n      dup2\n      0x20\n      add\n      0x20\n      dup3\n      mul\n      dup1\n      calldatasize\n      dup4\n      calldatacopy\n      dup1\n      dup3\n      add\n      swap2\n      pop\n      pop\n      swap1\n      pop\n    tag_218:\n      pop\n        /* \"E-timetable.sol\":6344:6374  permissions = new uint[](size) */\n      swap3\n      pop\n        /* \"E-timetable.sol\":6425:6431  uint i */\n      0x00\n        /* \"E-timetable.sol\":6421:6587  for(uint i=0;i<size;i++){... */\n    tag_219:\n        /* \"E-timetable.sol\":6436:6440  size */\n      dup2\n        /* \"E-timetable.sol\":6434:6435  i */\n      dup2\n        /* \"E-timetable.sol\":6434:6440  i<size */\n      lt\n        /* \"E-timetable.sol\":6421:6587  for(uint i=0;i<size;i++){... */\n      iszero\n      tag_220\n      jumpi\n        /* \"E-timetable.sol\":6471:6485  cooperatorName */\n      0x05\n        /* \"E-timetable.sol\":6471:6501  cooperatorName[cooperators[i]] */\n      0x00\n        /* \"E-timetable.sol\":6486:6497  cooperators */\n      0x03\n        /* \"E-timetable.sol\":6498:6499  i */\n      dup4\n        /* \"E-timetable.sol\":6486:6500  cooperators[i] */\n      dup2\n      sload\n      dup2\n      lt\n      tag_222\n      jumpi\n      tag_223\n      tag_90\n      jump\t// in\n    tag_223:\n    tag_222:\n      swap1\n      0x00\n      mstore\n      keccak256(0x00, 0x20)\n      add\n      0x00\n      swap1\n      sload\n      swap1\n      0x0100\n      exp\n      swap1\n      div\n      0xffffffffffffffffffffffffffffffffffffffff\n      and\n        /* \"E-timetable.sol\":6471:6501  cooperatorName[cooperators[i]] */\n      0xffffffffffffffffffffffffffffffffffffffff\n      and\n      0xffffffffffffffffffffffffffffffffffffffff\n      and\n      dup2\n      mstore\n      0x20\n      add\n      swap1\n      dup2\n      mstore\n      0x20\n      add\n      0x00\n      keccak256\n        /* \"E-timetable.sol\":6460:6501  names[i] = cooperatorName[cooperators[i]] */\n      dup1\n      sload\n      tag_225\n      swap1\n      tag_96\n      jump\t// in\n    tag_225:\n      dup1\n      0x1f\n      add\n      0x20\n      dup1\n      swap2\n      div\n      mul\n      0x20\n      add\n      mload(0x40)\n      swap1\n      dup2\n      add\n      0x40\n      mstore\n      dup1\n      swap3\n      swap2\n      swap1\n      dup2\n      dup2\n      mstore\n      0x20\n      add\n      dup3\n      dup1\n      sload\n      tag_226\n      swap1\n      tag_96\n      jump\t// in\n    tag_226:\n      dup1\n      iszero\n      tag_227\n      jumpi\n      dup1\n      0x1f\n      lt\n      tag_228\n      jumpi\n      0x0100\n      dup1\n      dup4\n      sload\n      div\n      mul\n      dup4\n      mstore\n      swap2\n      0x20\n      add\n      swap2\n      jump(tag_227)\n    tag_228:\n      dup3\n      add\n      swap2\n      swap1\n      0x00\n      mstore\n      keccak256(0x00, 0x20)\n      swap1\n    tag_229:\n      dup2\n      sload\n      dup2\n      mstore\n      swap1\n      0x01\n      add\n      swap1\n      0x20\n      add\n      dup1\n      dup4\n      gt\n      tag_229\n      jumpi\n      dup3\n      swap1\n      sub\n      0x1f\n      and\n      dup3\n      add\n      swap2\n    tag_227:\n      pop\n      pop\n      pop\n      pop\n      pop\n        /* \"E-timetable.sol\":6460:6465  names */\n      dup6\n        /* \"E-timetable.sol\":6466:6467  i */\n      dup3\n        /* \"E-timetable.sol\":6460:6468  names[i] */\n      dup2\n      mload\n      dup2\n      lt\n      tag_230\n      jumpi\n      tag_231\n      tag_90\n      jump\t// in\n    tag_231:\n    tag_230:\n      0x20\n      mul\n      0x20\n      add\n      add\n        /* \"E-timetable.sol\":6460:6501  names[i] = cooperatorName[cooperators[i]] */\n      dup2\n      swap1\n      mstore\n      pop\n        /* \"E-timetable.sol\":6538:6558  cooperatorPermission */\n      0x04\n        /* \"E-timetable.sol\":6538:6574  cooperatorPermission[cooperators[i]] */\n      0x00\n        /* \"E-timetable.sol\":6559:6570  cooperators */\n      0x03\n        /* \"E-timetable.sol\":6571:6572  i */\n      dup4\n        /* \"E-timetable.sol\":6559:6573  cooperators[i] */\n      dup2\n      sload\n      dup2\n      lt\n      tag_232\n      jumpi\n      tag_233\n      tag_90\n      jump\t// in\n    tag_233:\n    tag_232:\n      swap1\n      0x00\n      mstore\n      keccak256(0x00, 0x20)\n      add\n      0x00\n      swap1\n      sload\n      swap1\n      0x0100\n      exp\n      swap1\n      div\n      0xffffffffffffffffffffffffffffffffffffffff\n      and\n        /* \"E-timetable.sol\":6538:6574  cooperatorPermission[cooperators[i]] */\n      0xffffffffffffffffffffffffffffffffffffffff\n      and\n      0xffffffffffffffffffffffffffffffffffffffff\n      and\n      dup2\n      mstore\n      0x20\n      add\n      swap1\n      dup2\n      mstore\n      0x20\n      add\n      0x00\n      keccak256\n      0x00\n      swap1\n      sload\n      swap1\n      0x0100\n      exp\n      swap1\n      div\n      0xff\n      and\n        /* \"E-timetable.sol\":6533:6575  uint(cooperatorPermission[cooperators[i]]) */\n      0x03\n      dup2\n      gt\n      iszero\n      tag_235\n      jumpi\n      tag_236\n      tag_77\n      jump\t// in\n    tag_236:\n    tag_235:\n        /* \"E-timetable.sol\":6516:6527  permissions */\n      dup5\n        /* \"E-timetable.sol\":6528:6529  i */\n      dup3\n        /* \"E-timetable.sol\":6516:6530  permissions[i] */\n      dup2\n      mload\n      dup2\n      lt\n      tag_237\n      jumpi\n      tag_238\n      tag_90\n      jump\t// in\n    tag_238:\n    tag_237:\n      0x20\n      mul\n      0x20\n      add\n      add\n        /* \"E-timetable.sol\":6516:6575  permissions[i] = uint(cooperatorPermission[cooperators[i]]) */\n      dup2\n      dup2\n      mstore\n      pop\n      pop\n        /* \"E-timetable.sol\":6441:6444  i++ */\n      dup1\n      dup1\n      tag_239\n      swap1\n      tag_165\n      jump\t// in\n    tag_239:\n      swap2\n      pop\n      pop\n        /* \"E-timetable.sol\":6421:6587  for(uint i=0;i<size;i++){... */\n      jump(tag_219)\n    tag_220:\n      pop\n        /* \"E-timetable.sol\":6184:6604  {... */\n      pop\n        /* \"E-timetable.sol\":5990:6604  function getCooperators(address[] memory cooperatorAddress) public view viewRestricted(cooperatorAddress) returns(address[] memory _cooperators, string[] memory names, uint[] memory permissions){... */\n      pop\n      swap2\n      swap4\n      swap1\n      swap3\n      pop\n      jump\t// out\n        /* \"E-timetable.sol\":4760:4929  function getCalendarTitle(address[] memory cooperatorAddress) public view viewRestricted(cooperatorAddress) returns(string memory){... */\n    tag_54:\n        /* \"E-timetable.sol\":4876:4889  string memory */\n      0x60\n        /* \"E-timetable.sol\":4849:4866  cooperatorAddress */\n      dup2\n        /* \"E-timetable.sol\":888:935  checkAccess(cooperatorAddress, Permission.VIEW) */\n      tag_241\n        /* \"E-timetable.sol\":900:917  cooperatorAddress */\n      dup2\n        /* \"E-timetable.sol\":919:934  Permission.VIEW */\n      0x01\n        /* \"E-timetable.sol\":888:899  checkAccess */\n      tag_71\n        /* \"E-timetable.sol\":888:935  checkAccess(cooperatorAddress, Permission.VIEW) */\n      jump\t// in\n    tag_241:\n        /* \"E-timetable.sol\":880:936  require(checkAccess(cooperatorAddress, Permission.VIEW)) */\n      tag_242\n      jumpi\n      0x00\n      dup1\n      revert\n    tag_242:\n        /* \"E-timetable.sol\":4908:4921  calendarTitle */\n      0x02\n        /* \"E-timetable.sol\":4901:4921  return calendarTitle */\n      dup1\n      sload\n      tag_244\n      swap1\n      tag_96\n      jump\t// in\n    tag_244:\n      dup1\n      0x1f\n      add\n      0x20\n      dup1\n      swap2\n      div\n      mul\n      0x20\n      add\n      mload(0x40)\n      swap1\n      dup2\n      add\n      0x40\n      mstore\n      dup1\n      swap3\n      swap2\n      swap1\n      dup2\n      dup2\n      mstore\n      0x20\n      add\n      dup3\n      dup1\n      sload\n      tag_245\n      swap1\n      tag_96\n      jump\t// in\n    tag_245:\n      dup1\n      iszero\n      tag_246\n      jumpi\n      dup1\n      0x1f\n      lt\n      tag_247\n      jumpi\n      0x0100\n      dup1\n      dup4\n      sload\n      div\n      mul\n      dup4\n      mstore\n      swap2\n      0x20\n      add\n      swap2\n      jump(tag_246)\n    tag_247:\n      dup3\n      add\n      swap2\n      swap1\n      0x00\n      mstore\n      keccak256(0x00, 0x20)\n      swap1\n    tag_248:\n      dup2\n      sload\n      dup2\n      mstore\n      swap1\n      0x01\n      add\n      swap1\n      0x20\n      add\n      dup1\n      dup4\n      gt\n      tag_248\n      jumpi\n      dup3\n      swap1\n      sub\n      0x1f\n      and\n      dup3\n      add\n      swap2\n    tag_246:\n      pop\n      pop\n      pop\n      pop\n      pop\n      swap2\n      pop\n        /* \"E-timetable.sol\":4760:4929  function getCalendarTitle(address[] memory cooperatorAddress) public view viewRestricted(cooperatorAddress) returns(string memory){... */\n      pop\n      swap2\n      swap1\n      pop\n      jump\t// out\n        /* \"E-timetable.sol\":5182:5535  function changeManager(address newManager) public{... */\n    tag_60:\n        /* \"E-timetable.sol\":5300:5307  manager */\n      0x01\n      0x00\n      swap1\n      sload\n      swap1\n      0x0100\n      exp\n      swap1\n      div\n      0xffffffffffffffffffffffffffffffffffffffff\n      and\n        /* \"E-timetable.sol\":5286:5307  msg.sender == manager */\n      0xffffffffffffffffffffffffffffffffffffffff\n      and\n        /* \"E-timetable.sol\":5286:5296  msg.sender */\n      caller\n        /* \"E-timetable.sol\":5286:5307  msg.sender == manager */\n      0xffffffffffffffffffffffffffffffffffffffff\n      and\n      eq\n        /* \"E-timetable.sol\":5278:5308  require(msg.sender == manager) */\n      tag_250\n      jumpi\n      0x00\n      dup1\n      revert\n    tag_250:\n        /* \"E-timetable.sol\":5366:5376  newManager */\n      dup1\n        /* \"E-timetable.sol\":5356:5363  manager */\n      0x01\n      0x00\n        /* \"E-timetable.sol\":5356:5376  manager = newManager */\n      0x0100\n      exp\n      dup2\n      sload\n      dup2\n      0xffffffffffffffffffffffffffffffffffffffff\n      mul\n      not\n      and\n      swap1\n      dup4\n      0xffffffffffffffffffffffffffffffffffffffff\n      and\n      mul\n      or\n      swap1\n      sstore\n      pop\n        /* \"E-timetable.sol\":5464:5480  Permission.ADMIN */\n      0x03\n        /* \"E-timetable.sol\":5429:5449  cooperatorPermission */\n      0x04\n        /* \"E-timetable.sol\":5429:5461  cooperatorPermission[newManager] */\n      0x00\n        /* \"E-timetable.sol\":5450:5460  newManager */\n      dup4\n        /* \"E-timetable.sol\":5429:5461  cooperatorPermission[newManager] */\n      0xffffffffffffffffffffffffffffffffffffffff\n      and\n      0xffffffffffffffffffffffffffffffffffffffff\n      and\n      dup2\n      mstore\n      0x20\n      add\n      swap1\n      dup2\n      mstore\n      0x20\n      add\n      0x00\n      keccak256\n      0x00\n        /* \"E-timetable.sol\":5429:5480  cooperatorPermission[newManager] = Permission.ADMIN */\n      0x0100\n      exp\n      dup2\n      sload\n      dup2\n      0xff\n      mul\n      not\n      and\n      swap1\n      dup4\n      0x03\n      dup2\n      gt\n      iszero\n      tag_251\n      jumpi\n      tag_252\n      tag_77\n      jump\t// in\n    tag_252:\n    tag_251:\n      mul\n      or\n      swap1\n      sstore\n      pop\n        /* \"E-timetable.sol\":5182:5535  function changeManager(address newManager) public{... */\n      pop\n      jump\t// out\n        /* \"E-timetable.sol\":4967:5134  function updateCalendarTitle(string memory title, address[] memory cooperatorAddress) public adminRestricted(cooperatorAddress){... */\n    tag_64:\n        /* \"E-timetable.sol\":5076:5093  cooperatorAddress */\n      dup1\n        /* \"E-timetable.sol\":733:781  checkAccess(cooperatorAddress, Permission.ADMIN) */\n      tag_254\n        /* \"E-timetable.sol\":745:762  cooperatorAddress */\n      dup2\n        /* \"E-timetable.sol\":764:780  Permission.ADMIN */\n      0x03\n        /* \"E-timetable.sol\":733:744  checkAccess */\n      tag_71\n        /* \"E-timetable.sol\":733:781  checkAccess(cooperatorAddress, Permission.ADMIN) */\n      jump\t// in\n    tag_254:\n        /* \"E-timetable.sol\":725:782  require(checkAccess(cooperatorAddress, Permission.ADMIN)) */\n      tag_255\n      jumpi\n      0x00\n      dup1\n      revert\n    tag_255:\n        /* \"E-timetable.sol\":5121:5126  title */\n      dup3\n        /* \"E-timetable.sol\":5105:5118  calendarTitle */\n      0x02\n        /* \"E-timetable.sol\":5105:5126  calendarTitle = title */\n      swap1\n      dup1\n      mload\n      swap1\n      0x20\n      add\n      swap1\n      tag_257\n      swap3\n      swap2\n      swap1\n      tag_81\n      jump\t// in\n    tag_257:\n      pop\n        /* \"E-timetable.sol\":4967:5134  function updateCalendarTitle(string memory title, address[] memory cooperatorAddress) public adminRestricted(cooperatorAddress){... */\n      pop\n      pop\n      pop\n      jump\t// out\n        /* \"E-timetable.sol\":3684:4306  function updateEvent(uint monthTimestamp, uint index, uint eventStartTimestamp, uint eventEndTimestamp, ... */\n    tag_68:\n        /* \"E-timetable.sol\":3914:3931  cooperatorAddress */\n      dup1\n        /* \"E-timetable.sol\":1042:1089  checkAccess(cooperatorAddress, Permission.EDIT) */\n      tag_259\n        /* \"E-timetable.sol\":1054:1071  cooperatorAddress */\n      dup2\n        /* \"E-timetable.sol\":1073:1088  Permission.EDIT */\n      0x02\n        /* \"E-timetable.sol\":1042:1053  checkAccess */\n      tag_71\n        /* \"E-timetable.sol\":1042:1089  checkAccess(cooperatorAddress, Permission.EDIT) */\n      jump\t// in\n    tag_259:\n        /* \"E-timetable.sol\":1034:1090  require(checkAccess(cooperatorAddress, Permission.EDIT)) */\n      tag_260\n      jumpi\n      0x00\n      dup1\n      revert\n    tag_260:\n        /* \"E-timetable.sol\":4005:4026  Event memory newEvent */\n      0x00\n        /* \"E-timetable.sol\":4029:4211  Event({... */\n      mload(0x40)\n      dup1\n      0x80\n      add\n      0x40\n      mstore\n      dup1\n        /* \"E-timetable.sol\":4067:4086  eventStartTimestamp */\n      dup9\n        /* \"E-timetable.sol\":4029:4211  Event({... */\n      dup2\n      mstore\n      0x20\n      add\n        /* \"E-timetable.sol\":4115:4132  eventEndTimestamp */\n      dup8\n        /* \"E-timetable.sol\":4029:4211  Event({... */\n      dup2\n      mstore\n      0x20\n      add\n        /* \"E-timetable.sol\":4155:4160  title */\n      dup7\n        /* \"E-timetable.sol\":4029:4211  Event({... */\n      dup2\n      mstore\n      0x20\n      add\n        /* \"E-timetable.sol\":4188:4199  description */\n      dup6\n        /* \"E-timetable.sol\":4029:4211  Event({... */\n      dup2\n      mstore\n      pop\n        /* \"E-timetable.sol\":4005:4211  Event memory newEvent = Event({... */\n      swap1\n      pop\n        /* \"E-timetable.sol\":4290:4298  newEvent */\n      dup1\n        /* \"E-timetable.sol\":4258:4264  events */\n      0x00\n        /* \"E-timetable.sol\":4258:4280  events[monthTimestamp] */\n      dup1\n        /* \"E-timetable.sol\":4265:4279  monthTimestamp */\n      dup12\n        /* \"E-timetable.sol\":4258:4280  events[monthTimestamp] */\n      dup2\n      mstore\n      0x20\n      add\n      swap1\n      dup2\n      mstore\n      0x20\n      add\n      0x00\n      keccak256\n        /* \"E-timetable.sol\":4281:4286  index */\n      dup10\n        /* \"E-timetable.sol\":4258:4287  events[monthTimestamp][index] */\n      dup2\n      sload\n      dup2\n      lt\n      tag_262\n      jumpi\n      tag_263\n      tag_90\n      jump\t// in\n    tag_263:\n    tag_262:\n      swap1\n      0x00\n      mstore\n      keccak256(0x00, 0x20)\n      swap1\n      0x04\n      mul\n      add\n        /* \"E-timetable.sol\":4258:4298  events[monthTimestamp][index] = newEvent */\n      0x00\n      dup3\n      add\n      mload\n      dup2\n      0x00\n      add\n      sstore\n      0x20\n      dup3\n      add\n      mload\n      dup2\n      0x01\n      add\n      sstore\n      0x40\n      dup3\n      add\n      mload\n      dup2\n      0x02\n      add\n      swap1\n      dup1\n      mload\n      swap1\n      0x20\n      add\n      swap1\n      tag_265\n      swap3\n      swap2\n      swap1\n      tag_81\n      jump\t// in\n    tag_265:\n      pop\n      0x60\n      dup3\n      add\n      mload\n      dup2\n      0x03\n      add\n      swap1\n      dup1\n      mload\n      swap1\n      0x20\n      add\n      swap1\n      tag_266\n      swap3\n      swap2\n      swap1\n      tag_81\n      jump\t// in\n    tag_266:\n      pop\n      swap1\n      pop\n      pop\n        /* \"E-timetable.sol\":3932:4306  {... */\n      pop\n        /* \"E-timetable.sol\":3684:4306  function updateEvent(uint monthTimestamp, uint index, uint eventStartTimestamp, uint eventEndTimestamp, ... */\n      pop\n      pop\n      pop\n      pop\n      pop\n      pop\n      pop\n      pop\n      jump\t// out\n        /* \"E-timetable.sol\":1488:1839  function checkAccess(address[] memory addresses, Permission permission) ... */\n    tag_71:\n        /* \"E-timetable.sol\":1592:1596  bool */\n      0x00\n        /* \"E-timetable.sol\":1614:1620  uint i */\n      dup1\n        /* \"E-timetable.sol\":1623:1624  0 */\n      0x00\n        /* \"E-timetable.sol\":1614:1624  uint i = 0 */\n      swap1\n      pop\n        /* \"E-timetable.sol\":1610:1773  for(uint i = 0; i<addresses.length;i++){... */\n    tag_268:\n        /* \"E-timetable.sol\":1628:1637  addresses */\n      dup4\n        /* \"E-timetable.sol\":1628:1644  addresses.length */\n      mload\n        /* \"E-timetable.sol\":1626:1627  i */\n      dup2\n        /* \"E-timetable.sol\":1626:1644  i<addresses.length */\n      lt\n        /* \"E-timetable.sol\":1610:1773  for(uint i = 0; i<addresses.length;i++){... */\n      iszero\n      tag_269\n      jumpi\n        /* \"E-timetable.sol\":1705:1715  permission */\n      dup3\n        /* \"E-timetable.sol\":1667:1715  cooperatorPermission[addresses[i]] >= permission */\n      0x03\n      dup2\n      gt\n      iszero\n      tag_271\n      jumpi\n      tag_272\n      tag_77\n      jump\t// in\n    tag_272:\n    tag_271:\n        /* \"E-timetable.sol\":1667:1687  cooperatorPermission */\n      0x04\n        /* \"E-timetable.sol\":1667:1701  cooperatorPermission[addresses[i]] */\n      0x00\n        /* \"E-timetable.sol\":1688:1697  addresses */\n      dup7\n        /* \"E-timetable.sol\":1698:1699  i */\n      dup5\n        /* \"E-timetable.sol\":1688:1700  addresses[i] */\n      dup2\n      mload\n      dup2\n      lt\n      tag_273\n      jumpi\n      tag_274\n      tag_90\n      jump\t// in\n    tag_274:\n    tag_273:\n      0x20\n      mul\n      0x20\n      add\n      add\n      mload\n        /* \"E-timetable.sol\":1667:1701  cooperatorPermission[addresses[i]] */\n      0xffffffffffffffffffffffffffffffffffffffff\n      and\n      0xffffffffffffffffffffffffffffffffffffffff\n      and\n      dup2\n      mstore\n      0x20\n      add\n      swap1\n      dup2\n      mstore\n      0x20\n      add\n      0x00\n      keccak256\n      0x00\n      swap1\n      sload\n      swap1\n      0x0100\n      exp\n      swap1\n      div\n      0xff\n      and\n        /* \"E-timetable.sol\":1667:1715  cooperatorPermission[addresses[i]] >= permission */\n      0x03\n      dup2\n      gt\n      iszero\n      tag_275\n      jumpi\n      tag_276\n      tag_77\n      jump\t// in\n    tag_276:\n    tag_275:\n      lt\n        /* \"E-timetable.sol\":1664:1762  if(cooperatorPermission[addresses[i]] >= permission){... */\n      tag_277\n      jumpi\n        /* \"E-timetable.sol\":1742:1746  true */\n      0x01\n        /* \"E-timetable.sol\":1735:1746  return true */\n      swap2\n      pop\n      pop\n      jump(tag_267)\n        /* \"E-timetable.sol\":1664:1762  if(cooperatorPermission[addresses[i]] >= permission){... */\n    tag_277:\n        /* \"E-timetable.sol\":1645:1648  i++ */\n      dup1\n      dup1\n      tag_278\n      swap1\n      tag_165\n      jump\t// in\n    tag_278:\n      swap2\n      pop\n      pop\n        /* \"E-timetable.sol\":1610:1773  for(uint i = 0; i<addresses.length;i++){... */\n      jump(tag_268)\n    tag_269:\n      pop\n        /* \"E-timetable.sol\":1826:1831  false */\n      0x00\n        /* \"E-timetable.sol\":1819:1831  return false */\n      swap1\n      pop\n        /* \"E-timetable.sol\":1488:1839  function checkAccess(address[] memory addresses, Permission permission) ... */\n    tag_267:\n      swap3\n      swap2\n      pop\n      pop\n      jump\t// out\n    tag_81:\n      dup3\n      dup1\n      sload\n      tag_279\n      swap1\n      tag_96\n      jump\t// in\n    tag_279:\n      swap1\n      0x00\n      mstore\n      keccak256(0x00, 0x20)\n      swap1\n      0x1f\n      add\n      0x20\n      swap1\n      div\n      dup2\n      add\n      swap3\n      dup3\n      tag_281\n      jumpi\n      0x00\n      dup6\n      sstore\n      jump(tag_280)\n    tag_281:\n      dup3\n      0x1f\n      lt\n      tag_282\n      jumpi\n      dup1\n      mload\n      not(0xff)\n      and\n      dup4\n      dup1\n      add\n      or\n      dup6\n      sstore\n      jump(tag_280)\n    tag_282:\n      dup3\n      dup1\n      add\n      0x01\n      add\n      dup6\n      sstore\n      dup3\n      iszero\n      tag_280\n      jumpi\n      swap2\n      dup3\n      add\n    tag_283:\n      dup3\n      dup2\n      gt\n      iszero\n      tag_284\n      jumpi\n      dup3\n      mload\n      dup3\n      sstore\n      swap2\n      0x20\n      add\n      swap2\n      swap1\n      0x01\n      add\n      swap1\n      jump(tag_283)\n    tag_284:\n    tag_280:\n      pop\n      swap1\n      pop\n      tag_285\n      swap2\n      swap1\n      tag_286\n      jump\t// in\n    tag_285:\n      pop\n      swap1\n      jump\t// out\n    tag_98:\n      dup3\n      dup1\n      sload\n      tag_287\n      swap1\n      tag_96\n      jump\t// in\n    tag_287:\n      swap1\n      0x00\n      mstore\n      keccak256(0x00, 0x20)\n      swap1\n      0x1f\n      add\n      0x20\n      swap1\n      div\n      dup2\n      add\n      swap3\n      dup3\n      tag_289\n      jumpi\n      0x00\n      dup6\n      sstore\n      jump(tag_288)\n    tag_289:\n      dup3\n      0x1f\n      lt\n      tag_290\n      jumpi\n      dup1\n      sload\n      dup6\n      sstore\n      jump(tag_288)\n    tag_290:\n      dup3\n      dup1\n      add\n      0x01\n      add\n      dup6\n      sstore\n      dup3\n      iszero\n      tag_288\n      jumpi\n      0x00\n      mstore\n      keccak256(0x00, 0x20)\n      swap2\n      0x1f\n      add\n      0x20\n      swap1\n      div\n      dup3\n      add\n    tag_291:\n      dup3\n      dup2\n      gt\n      iszero\n      tag_292\n      jumpi\n      dup3\n      sload\n      dup3\n      sstore\n      swap2\n      0x01\n      add\n      swap2\n      swap1\n      0x01\n      add\n      swap1\n      jump(tag_291)\n    tag_292:\n    tag_288:\n      pop\n      swap1\n      pop\n      tag_293\n      swap2\n      swap1\n      tag_286\n      jump\t// in\n    tag_293:\n      pop\n      swap1\n      jump\t// out\n    tag_106:\n      pop\n      dup1\n      sload\n      tag_294\n      swap1\n      tag_96\n      jump\t// in\n    tag_294:\n      0x00\n      dup3\n      sstore\n      dup1\n      0x1f\n      lt\n      tag_296\n      jumpi\n      pop\n      jump(tag_295)\n    tag_296:\n      0x1f\n      add\n      0x20\n      swap1\n      div\n      swap1\n      0x00\n      mstore\n      keccak256(0x00, 0x20)\n      swap1\n      dup2\n      add\n      swap1\n      tag_297\n      swap2\n      swap1\n      tag_286\n      jump\t// in\n    tag_297:\n    tag_295:\n      pop\n      jump\t// out\n    tag_286:\n    tag_298:\n      dup1\n      dup3\n      gt\n      iszero\n      tag_299\n      jumpi\n      0x00\n      dup2\n      0x00\n      swap1\n      sstore\n      pop\n      0x01\n      add\n      jump(tag_298)\n    tag_299:\n      pop\n      swap1\n      jump\t// out\n        /* \"#utility.yul\":7:82   */\n    tag_300:\n        /* \"#utility.yul\":40:46   */\n      0x00\n        /* \"#utility.yul\":73:75   */\n      0x40\n        /* \"#utility.yul\":67:76   */\n      mload\n        /* \"#utility.yul\":57:76   */\n      swap1\n      pop\n        /* \"#utility.yul\":7:82   */\n      swap1\n      jump\t// out\n        /* \"#utility.yul\":88:205   */\n    tag_301:\n        /* \"#utility.yul\":197:198   */\n      0x00\n        /* \"#utility.yul\":194:195   */\n      dup1\n        /* \"#utility.yul\":187:199   */\n      revert\n        /* \"#utility.yul\":211:328   */\n    tag_302:\n        /* \"#utility.yul\":320:321   */\n      0x00\n        /* \"#utility.yul\":317:318   */\n      dup1\n        /* \"#utility.yul\":310:322   */\n      revert\n        /* \"#utility.yul\":334:460   */\n    tag_303:\n        /* \"#utility.yul\":371:378   */\n      0x00\n        /* \"#utility.yul\":411:453   */\n      0xffffffffffffffffffffffffffffffffffffffff\n        /* \"#utility.yul\":404:409   */\n      dup3\n        /* \"#utility.yul\":400:454   */\n      and\n        /* \"#utility.yul\":389:454   */\n      swap1\n      pop\n        /* \"#utility.yul\":334:460   */\n      swap2\n      swap1\n      pop\n      jump\t// out\n        /* \"#utility.yul\":466:562   */\n    tag_304:\n        /* \"#utility.yul\":503:510   */\n      0x00\n        /* \"#utility.yul\":532:556   */\n      tag_358\n        /* \"#utility.yul\":550:555   */\n      dup3\n        /* \"#utility.yul\":532:556   */\n      tag_303\n      jump\t// in\n    tag_358:\n        /* \"#utility.yul\":521:556   */\n      swap1\n      pop\n        /* \"#utility.yul\":466:562   */\n      swap2\n      swap1\n      pop\n      jump\t// out\n        /* \"#utility.yul\":568:690   */\n    tag_305:\n        /* \"#utility.yul\":641:665   */\n      tag_360\n        /* \"#utility.yul\":659:664   */\n      dup2\n        /* \"#utility.yul\":641:665   */\n      tag_304\n      jump\t// in\n    tag_360:\n        /* \"#utility.yul\":634:639   */\n      dup2\n        /* \"#utility.yul\":631:666   */\n      eq\n        /* \"#utility.yul\":621:684   */\n      tag_361\n      jumpi\n        /* \"#utility.yul\":680:681   */\n      0x00\n        /* \"#utility.yul\":677:678   */\n      dup1\n        /* \"#utility.yul\":670:682   */\n      revert\n        /* \"#utility.yul\":621:684   */\n    tag_361:\n        /* \"#utility.yul\":568:690   */\n      pop\n      jump\t// out\n        /* \"#utility.yul\":696:835   */\n    tag_306:\n        /* \"#utility.yul\":742:747   */\n      0x00\n        /* \"#utility.yul\":780:786   */\n      dup2\n        /* \"#utility.yul\":767:787   */\n      calldataload\n        /* \"#utility.yul\":758:787   */\n      swap1\n      pop\n        /* \"#utility.yul\":796:829   */\n      tag_363\n        /* \"#utility.yul\":823:828   */\n      dup2\n        /* \"#utility.yul\":796:829   */\n      tag_305\n      jump\t// in\n    tag_363:\n        /* \"#utility.yul\":696:835   */\n      swap3\n      swap2\n      pop\n      pop\n      jump\t// out\n        /* \"#utility.yul\":841:918   */\n    tag_307:\n        /* \"#utility.yul\":878:885   */\n      0x00\n        /* \"#utility.yul\":907:912   */\n      dup2\n        /* \"#utility.yul\":896:912   */\n      swap1\n      pop\n        /* \"#utility.yul\":841:918   */\n      swap2\n      swap1\n      pop\n      jump\t// out\n        /* \"#utility.yul\":924:1046   */\n    tag_308:\n        /* \"#utility.yul\":997:1021   */\n      tag_366\n        /* \"#utility.yul\":1015:1020   */\n      dup2\n        /* \"#utility.yul\":997:1021   */\n      tag_307\n      jump\t// in\n    tag_366:\n        /* \"#utility.yul\":990:995   */\n      dup2\n        /* \"#utility.yul\":987:1022   */\n      eq\n        /* \"#utility.yul\":977:1040   */\n      tag_367\n      jumpi\n        /* \"#utility.yul\":1036:1037   */\n      0x00\n        /* \"#utility.yul\":1033:1034   */\n      dup1\n        /* \"#utility.yul\":1026:1038   */\n      revert\n        /* \"#utility.yul\":977:1040   */\n    tag_367:\n        /* \"#utility.yul\":924:1046   */\n      pop\n      jump\t// out\n        /* \"#utility.yul\":1052:1191   */\n    tag_309:\n        /* \"#utility.yul\":1098:1103   */\n      0x00\n        /* \"#utility.yul\":1136:1142   */\n      dup2\n        /* \"#utility.yul\":1123:1143   */\n      calldataload\n        /* \"#utility.yul\":1114:1143   */\n      swap1\n      pop\n        /* \"#utility.yul\":1152:1185   */\n      tag_369\n        /* \"#utility.yul\":1179:1184   */\n      dup2\n        /* \"#utility.yul\":1152:1185   */\n      tag_308\n      jump\t// in\n    tag_369:\n        /* \"#utility.yul\":1052:1191   */\n      swap3\n      swap2\n      pop\n      pop\n      jump\t// out\n        /* \"#utility.yul\":1197:1314   */\n    tag_310:\n        /* \"#utility.yul\":1306:1307   */\n      0x00\n        /* \"#utility.yul\":1303:1304   */\n      dup1\n        /* \"#utility.yul\":1296:1308   */\n      revert\n        /* \"#utility.yul\":1320:1437   */\n    tag_311:\n        /* \"#utility.yul\":1429:1430   */\n      0x00\n        /* \"#utility.yul\":1426:1427   */\n      dup1\n        /* \"#utility.yul\":1419:1431   */\n      revert\n        /* \"#utility.yul\":1443:1545   */\n    tag_312:\n        /* \"#utility.yul\":1484:1490   */\n      0x00\n        /* \"#utility.yul\":1535:1537   */\n      0x1f\n        /* \"#utility.yul\":1531:1538   */\n      not\n        /* \"#utility.yul\":1526:1528   */\n      0x1f\n        /* \"#utility.yul\":1519:1524   */\n      dup4\n        /* \"#utility.yul\":1515:1529   */\n      add\n        /* \"#utility.yul\":1511:1539   */\n      and\n        /* \"#utility.yul\":1501:1539   */\n      swap1\n      pop\n        /* \"#utility.yul\":1443:1545   */\n      swap2\n      swap1\n      pop\n      jump\t// out\n        /* \"#utility.yul\":1551:1731   */\n    tag_127:\n        /* \"#utility.yul\":1599:1676   */\n      0x4e487b7100000000000000000000000000000000000000000000000000000000\n        /* \"#utility.yul\":1596:1597   */\n      0x00\n        /* \"#utility.yul\":1589:1677   */\n      mstore\n        /* \"#utility.yul\":1696:1700   */\n      0x41\n        /* \"#utility.yul\":1693:1694   */\n      0x04\n        /* \"#utility.yul\":1686:1701   */\n      mstore\n        /* \"#utility.yul\":1720:1724   */\n      0x24\n        /* \"#utility.yul\":1717:1718   */\n      0x00\n        /* \"#utility.yul\":1710:1725   */\n      revert\n        /* \"#utility.yul\":1737:2018   */\n    tag_313:\n        /* \"#utility.yul\":1820:1847   */\n      tag_375\n        /* \"#utility.yul\":1842:1846   */\n      dup3\n        /* \"#utility.yul\":1820:1847   */\n      tag_312\n      jump\t// in\n    tag_375:\n        /* \"#utility.yul\":1812:1818   */\n      dup2\n        /* \"#utility.yul\":1808:1848   */\n      add\n        /* \"#utility.yul\":1950:1956   */\n      dup2\n        /* \"#utility.yul\":1938:1948   */\n      dup2\n        /* \"#utility.yul\":1935:1957   */\n      lt\n        /* \"#utility.yul\":1914:1932   */\n      0xffffffffffffffff\n        /* \"#utility.yul\":1902:1912   */\n      dup3\n        /* \"#utility.yul\":1899:1933   */\n      gt\n        /* \"#utility.yul\":1896:1958   */\n      or\n        /* \"#utility.yul\":1893:1981   */\n      iszero\n      tag_376\n      jumpi\n        /* \"#utility.yul\":1961:1979   */\n      tag_377\n      tag_127\n      jump\t// in\n    tag_377:\n        /* \"#utility.yul\":1893:1981   */\n    tag_376:\n        /* \"#utility.yul\":2001:2011   */\n      dup1\n        /* \"#utility.yul\":1997:1999   */\n      0x40\n        /* \"#utility.yul\":1990:2012   */\n      mstore\n        /* \"#utility.yul\":1780:2018   */\n      pop\n        /* \"#utility.yul\":1737:2018   */\n      pop\n      pop\n      jump\t// out\n        /* \"#utility.yul\":2024:2153   */\n    tag_314:\n        /* \"#utility.yul\":2058:2064   */\n      0x00\n        /* \"#utility.yul\":2085:2105   */\n      tag_379\n      tag_300\n      jump\t// in\n    tag_379:\n        /* \"#utility.yul\":2075:2105   */\n      swap1\n      pop\n        /* \"#utility.yul\":2114:2147   */\n      tag_380\n        /* \"#utility.yul\":2142:2146   */\n      dup3\n        /* \"#utility.yul\":2134:2140   */\n      dup3\n        /* \"#utility.yul\":2114:2147   */\n      tag_313\n      jump\t// in\n    tag_380:\n        /* \"#utility.yul\":2024:2153   */\n      swap2\n      swap1\n      pop\n      jump\t// out\n        /* \"#utility.yul\":2159:2467   */\n    tag_315:\n        /* \"#utility.yul\":2221:2225   */\n      0x00\n        /* \"#utility.yul\":2311:2329   */\n      0xffffffffffffffff\n        /* \"#utility.yul\":2303:2309   */\n      dup3\n        /* \"#utility.yul\":2300:2330   */\n      gt\n        /* \"#utility.yul\":2297:2353   */\n      iszero\n      tag_382\n      jumpi\n        /* \"#utility.yul\":2333:2351   */\n      tag_383\n      tag_127\n      jump\t// in\n    tag_383:\n        /* \"#utility.yul\":2297:2353   */\n    tag_382:\n        /* \"#utility.yul\":2371:2400   */\n      tag_384\n        /* \"#utility.yul\":2393:2399   */\n      dup3\n        /* \"#utility.yul\":2371:2400   */\n      tag_312\n      jump\t// in\n    tag_384:\n        /* \"#utility.yul\":2363:2400   */\n      swap1\n      pop\n        /* \"#utility.yul\":2455:2459   */\n      0x20\n        /* \"#utility.yul\":2449:2453   */\n      dup2\n        /* \"#utility.yul\":2445:2460   */\n      add\n        /* \"#utility.yul\":2437:2460   */\n      swap1\n      pop\n        /* \"#utility.yul\":2159:2467   */\n      swap2\n      swap1\n      pop\n      jump\t// out\n        /* \"#utility.yul\":2473:2627   */\n    tag_316:\n        /* \"#utility.yul\":2557:2563   */\n      dup3\n        /* \"#utility.yul\":2552:2555   */\n      dup2\n        /* \"#utility.yul\":2547:2550   */\n      dup4\n        /* \"#utility.yul\":2534:2564   */\n      calldatacopy\n        /* \"#utility.yul\":2619:2620   */\n      0x00\n        /* \"#utility.yul\":2610:2616   */\n      dup4\n        /* \"#utility.yul\":2605:2608   */\n      dup4\n        /* \"#utility.yul\":2601:2617   */\n      add\n        /* \"#utility.yul\":2594:2621   */\n      mstore\n        /* \"#utility.yul\":2473:2627   */\n      pop\n      pop\n      pop\n      jump\t// out\n        /* \"#utility.yul\":2633:3045   */\n    tag_317:\n        /* \"#utility.yul\":2711:2716   */\n      0x00\n        /* \"#utility.yul\":2736:2802   */\n      tag_387\n        /* \"#utility.yul\":2752:2801   */\n      tag_388\n        /* \"#utility.yul\":2794:2800   */\n      dup5\n        /* \"#utility.yul\":2752:2801   */\n      tag_315\n      jump\t// in\n    tag_388:\n        /* \"#utility.yul\":2736:2802   */\n      tag_314\n      jump\t// in\n    tag_387:\n        /* \"#utility.yul\":2727:2802   */\n      swap1\n      pop\n        /* \"#utility.yul\":2825:2831   */\n      dup3\n        /* \"#utility.yul\":2818:2823   */\n      dup2\n        /* \"#utility.yul\":2811:2832   */\n      mstore\n        /* \"#utility.yul\":2863:2867   */\n      0x20\n        /* \"#utility.yul\":2856:2861   */\n      dup2\n        /* \"#utility.yul\":2852:2868   */\n      add\n        /* \"#utility.yul\":2901:2904   */\n      dup5\n        /* \"#utility.yul\":2892:2898   */\n      dup5\n        /* \"#utility.yul\":2887:2890   */\n      dup5\n        /* \"#utility.yul\":2883:2899   */\n      add\n        /* \"#utility.yul\":2880:2905   */\n      gt\n        /* \"#utility.yul\":2877:2989   */\n      iszero\n      tag_389\n      jumpi\n        /* \"#utility.yul\":2908:2987   */\n      tag_390\n      tag_311\n      jump\t// in\n    tag_390:\n        /* \"#utility.yul\":2877:2989   */\n    tag_389:\n        /* \"#utility.yul\":2998:3039   */\n      tag_391\n        /* \"#utility.yul\":3032:3038   */\n      dup5\n        /* \"#utility.yul\":3027:3030   */\n      dup3\n        /* \"#utility.yul\":3022:3025   */\n      dup6\n        /* \"#utility.yul\":2998:3039   */\n      tag_316\n      jump\t// in\n    tag_391:\n        /* \"#utility.yul\":2717:3045   */\n      pop\n        /* \"#utility.yul\":2633:3045   */\n      swap4\n      swap3\n      pop\n      pop\n      pop\n      jump\t// out\n        /* \"#utility.yul\":3065:3405   */\n    tag_318:\n        /* \"#utility.yul\":3121:3126   */\n      0x00\n        /* \"#utility.yul\":3170:3173   */\n      dup3\n        /* \"#utility.yul\":3163:3167   */\n      0x1f\n        /* \"#utility.yul\":3155:3161   */\n      dup4\n        /* \"#utility.yul\":3151:3168   */\n      add\n        /* \"#utility.yul\":3147:3174   */\n      slt\n        /* \"#utility.yul\":3137:3259   */\n      tag_393\n      jumpi\n        /* \"#utility.yul\":3178:3257   */\n      tag_394\n      tag_310\n      jump\t// in\n    tag_394:\n        /* \"#utility.yul\":3137:3259   */\n    tag_393:\n        /* \"#utility.yul\":3295:3301   */\n      dup2\n        /* \"#utility.yul\":3282:3302   */\n      calldataload\n        /* \"#utility.yul\":3320:3399   */\n      tag_395\n        /* \"#utility.yul\":3395:3398   */\n      dup5\n        /* \"#utility.yul\":3387:3393   */\n      dup3\n        /* \"#utility.yul\":3380:3384   */\n      0x20\n        /* \"#utility.yul\":3372:3378   */\n      dup7\n        /* \"#utility.yul\":3368:3385   */\n      add\n        /* \"#utility.yul\":3320:3399   */\n      tag_317\n      jump\t// in\n    tag_395:\n        /* \"#utility.yul\":3311:3399   */\n      swap2\n      pop\n        /* \"#utility.yul\":3127:3405   */\n      pop\n        /* \"#utility.yul\":3065:3405   */\n      swap3\n      swap2\n      pop\n      pop\n      jump\t// out\n        /* \"#utility.yul\":3411:3722   */\n    tag_319:\n        /* \"#utility.yul\":3488:3492   */\n      0x00\n        /* \"#utility.yul\":3578:3596   */\n      0xffffffffffffffff\n        /* \"#utility.yul\":3570:3576   */\n      dup3\n        /* \"#utility.yul\":3567:3597   */\n      gt\n        /* \"#utility.yul\":3564:3620   */\n      iszero\n      tag_397\n      jumpi\n        /* \"#utility.yul\":3600:3618   */\n      tag_398\n      tag_127\n      jump\t// in\n    tag_398:\n        /* \"#utility.yul\":3564:3620   */\n    tag_397:\n        /* \"#utility.yul\":3650:3654   */\n      0x20\n        /* \"#utility.yul\":3642:3648   */\n      dup3\n        /* \"#utility.yul\":3638:3655   */\n      mul\n        /* \"#utility.yul\":3630:3655   */\n      swap1\n      pop\n        /* \"#utility.yul\":3710:3714   */\n      0x20\n        /* \"#utility.yul\":3704:3708   */\n      dup2\n        /* \"#utility.yul\":3700:3715   */\n      add\n        /* \"#utility.yul\":3692:3715   */\n      swap1\n      pop\n        /* \"#utility.yul\":3411:3722   */\n      swap2\n      swap1\n      pop\n      jump\t// out\n        /* \"#utility.yul\":3728:3845   */\n    tag_320:\n        /* \"#utility.yul\":3837:3838   */\n      0x00\n        /* \"#utility.yul\":3834:3835   */\n      dup1\n        /* \"#utility.yul\":3827:3839   */\n      revert\n        /* \"#utility.yul\":3868:4578   */\n    tag_321:\n        /* \"#utility.yul\":3964:3969   */\n      0x00\n        /* \"#utility.yul\":3989:4070   */\n      tag_401\n        /* \"#utility.yul\":4005:4069   */\n      tag_402\n        /* \"#utility.yul\":4062:4068   */\n      dup5\n        /* \"#utility.yul\":4005:4069   */\n      tag_319\n      jump\t// in\n    tag_402:\n        /* \"#utility.yul\":3989:4070   */\n      tag_314\n      jump\t// in\n    tag_401:\n        /* \"#utility.yul\":3980:4070   */\n      swap1\n      pop\n        /* \"#utility.yul\":4090:4095   */\n      dup1\n        /* \"#utility.yul\":4119:4125   */\n      dup4\n        /* \"#utility.yul\":4112:4117   */\n      dup3\n        /* \"#utility.yul\":4105:4126   */\n      mstore\n        /* \"#utility.yul\":4153:4157   */\n      0x20\n        /* \"#utility.yul\":4146:4151   */\n      dup3\n        /* \"#utility.yul\":4142:4158   */\n      add\n        /* \"#utility.yul\":4135:4158   */\n      swap1\n      pop\n        /* \"#utility.yul\":4206:4210   */\n      0x20\n        /* \"#utility.yul\":4198:4204   */\n      dup5\n        /* \"#utility.yul\":4194:4211   */\n      mul\n        /* \"#utility.yul\":4186:4192   */\n      dup4\n        /* \"#utility.yul\":4182:4212   */\n      add\n        /* \"#utility.yul\":4235:4238   */\n      dup6\n        /* \"#utility.yul\":4227:4233   */\n      dup2\n        /* \"#utility.yul\":4224:4239   */\n      gt\n        /* \"#utility.yul\":4221:4343   */\n      iszero\n      tag_403\n      jumpi\n        /* \"#utility.yul\":4254:4333   */\n      tag_404\n      tag_320\n      jump\t// in\n    tag_404:\n        /* \"#utility.yul\":4221:4343   */\n    tag_403:\n        /* \"#utility.yul\":4369:4375   */\n      dup4\n        /* \"#utility.yul\":4352:4572   */\n    tag_405:\n        /* \"#utility.yul\":4386:4392   */\n      dup2\n        /* \"#utility.yul\":4381:4384   */\n      dup2\n        /* \"#utility.yul\":4378:4393   */\n      lt\n        /* \"#utility.yul\":4352:4572   */\n      iszero\n      tag_407\n      jumpi\n        /* \"#utility.yul\":4461:4464   */\n      dup1\n        /* \"#utility.yul\":4490:4527   */\n      tag_408\n        /* \"#utility.yul\":4523:4526   */\n      dup9\n        /* \"#utility.yul\":4511:4521   */\n      dup3\n        /* \"#utility.yul\":4490:4527   */\n      tag_306\n      jump\t// in\n    tag_408:\n        /* \"#utility.yul\":4485:4488   */\n      dup5\n        /* \"#utility.yul\":4478:4528   */\n      mstore\n        /* \"#utility.yul\":4557:4561   */\n      0x20\n        /* \"#utility.yul\":4552:4555   */\n      dup5\n        /* \"#utility.yul\":4548:4562   */\n      add\n        /* \"#utility.yul\":4541:4562   */\n      swap4\n      pop\n        /* \"#utility.yul\":4428:4572   */\n      pop\n        /* \"#utility.yul\":4412:4416   */\n      0x20\n        /* \"#utility.yul\":4407:4410   */\n      dup2\n        /* \"#utility.yul\":4403:4417   */\n      add\n        /* \"#utility.yul\":4396:4417   */\n      swap1\n      pop\n        /* \"#utility.yul\":4352:4572   */\n      jump(tag_405)\n    tag_407:\n        /* \"#utility.yul\":4356:4377   */\n      pop\n        /* \"#utility.yul\":3970:4578   */\n      pop\n      pop\n        /* \"#utility.yul\":3868:4578   */\n      swap4\n      swap3\n      pop\n      pop\n      pop\n      jump\t// out\n        /* \"#utility.yul\":4601:4971   */\n    tag_322:\n        /* \"#utility.yul\":4672:4677   */\n      0x00\n        /* \"#utility.yul\":4721:4724   */\n      dup3\n        /* \"#utility.yul\":4714:4718   */\n      0x1f\n        /* \"#utility.yul\":4706:4712   */\n      dup4\n        /* \"#utility.yul\":4702:4719   */\n      add\n        /* \"#utility.yul\":4698:4725   */\n      slt\n        /* \"#utility.yul\":4688:4810   */\n      tag_410\n      jumpi\n        /* \"#utility.yul\":4729:4808   */\n      tag_411\n      tag_310\n      jump\t// in\n    tag_411:\n        /* \"#utility.yul\":4688:4810   */\n    tag_410:\n        /* \"#utility.yul\":4846:4852   */\n      dup2\n        /* \"#utility.yul\":4833:4853   */\n      calldataload\n        /* \"#utility.yul\":4871:4965   */\n      tag_412\n        /* \"#utility.yul\":4961:4964   */\n      dup5\n        /* \"#utility.yul\":4953:4959   */\n      dup3\n        /* \"#utility.yul\":4946:4950   */\n      0x20\n        /* \"#utility.yul\":4938:4944   */\n      dup7\n        /* \"#utility.yul\":4934:4951   */\n      add\n        /* \"#utility.yul\":4871:4965   */\n      tag_321\n      jump\t// in\n    tag_412:\n        /* \"#utility.yul\":4862:4965   */\n      swap2\n      pop\n        /* \"#utility.yul\":4678:4971   */\n      pop\n        /* \"#utility.yul\":4601:4971   */\n      swap3\n      swap2\n      pop\n      pop\n      jump\t// out\n        /* \"#utility.yul\":4977:6132   */\n    tag_18:\n        /* \"#utility.yul\":5098:5104   */\n      0x00\n        /* \"#utility.yul\":5106:5112   */\n      dup1\n        /* \"#utility.yul\":5114:5120   */\n      0x00\n        /* \"#utility.yul\":5122:5128   */\n      dup1\n        /* \"#utility.yul\":5171:5174   */\n      0x80\n        /* \"#utility.yul\":5159:5168   */\n      dup6\n        /* \"#utility.yul\":5150:5157   */\n      dup8\n        /* \"#utility.yul\":5146:5169   */\n      sub\n        /* \"#utility.yul\":5142:5175   */\n      slt\n        /* \"#utility.yul\":5139:5259   */\n      iszero\n      tag_414\n      jumpi\n        /* \"#utility.yul\":5178:5257   */\n      tag_415\n      tag_301\n      jump\t// in\n    tag_415:\n        /* \"#utility.yul\":5139:5259   */\n    tag_414:\n        /* \"#utility.yul\":5298:5299   */\n      0x00\n        /* \"#utility.yul\":5323:5376   */\n      tag_416\n        /* \"#utility.yul\":5368:5375   */\n      dup8\n        /* \"#utility.yul\":5359:5365   */\n      dup3\n        /* \"#utility.yul\":5348:5357   */\n      dup9\n        /* \"#utility.yul\":5344:5366   */\n      add\n        /* \"#utility.yul\":5323:5376   */\n      tag_306\n      jump\t// in\n    tag_416:\n        /* \"#utility.yul\":5313:5376   */\n      swap5\n      pop\n        /* \"#utility.yul\":5269:5386   */\n      pop\n        /* \"#utility.yul\":5425:5427   */\n      0x20\n        /* \"#utility.yul\":5451:5504   */\n      tag_417\n        /* \"#utility.yul\":5496:5503   */\n      dup8\n        /* \"#utility.yul\":5487:5493   */\n      dup3\n        /* \"#utility.yul\":5476:5485   */\n      dup9\n        /* \"#utility.yul\":5472:5494   */\n      add\n        /* \"#utility.yul\":5451:5504   */\n      tag_309\n      jump\t// in\n    tag_417:\n        /* \"#utility.yul\":5441:5504   */\n      swap4\n      pop\n        /* \"#utility.yul\":5396:5514   */\n      pop\n        /* \"#utility.yul\":5581:5583   */\n      0x40\n        /* \"#utility.yul\":5570:5579   */\n      dup6\n        /* \"#utility.yul\":5566:5584   */\n      add\n        /* \"#utility.yul\":5553:5585   */\n      calldataload\n        /* \"#utility.yul\":5612:5630   */\n      0xffffffffffffffff\n        /* \"#utility.yul\":5604:5610   */\n      dup2\n        /* \"#utility.yul\":5601:5631   */\n      gt\n        /* \"#utility.yul\":5598:5715   */\n      iszero\n      tag_418\n      jumpi\n        /* \"#utility.yul\":5634:5713   */\n      tag_419\n      tag_302\n      jump\t// in\n    tag_419:\n        /* \"#utility.yul\":5598:5715   */\n    tag_418:\n        /* \"#utility.yul\":5739:5802   */\n      tag_420\n        /* \"#utility.yul\":5794:5801   */\n      dup8\n        /* \"#utility.yul\":5785:5791   */\n      dup3\n        /* \"#utility.yul\":5774:5783   */\n      dup9\n        /* \"#utility.yul\":5770:5792   */\n      add\n        /* \"#utility.yul\":5739:5802   */\n      tag_318\n      jump\t// in\n    tag_420:\n        /* \"#utility.yul\":5729:5802   */\n      swap3\n      pop\n        /* \"#utility.yul\":5524:5812   */\n      pop\n        /* \"#utility.yul\":5879:5881   */\n      0x60\n        /* \"#utility.yul\":5868:5877   */\n      dup6\n        /* \"#utility.yul\":5864:5882   */\n      add\n        /* \"#utility.yul\":5851:5883   */\n      calldataload\n        /* \"#utility.yul\":5910:5928   */\n      0xffffffffffffffff\n        /* \"#utility.yul\":5902:5908   */\n      dup2\n        /* \"#utility.yul\":5899:5929   */\n      gt\n        /* \"#utility.yul\":5896:6013   */\n      iszero\n      tag_421\n      jumpi\n        /* \"#utility.yul\":5932:6011   */\n      tag_422\n      tag_302\n      jump\t// in\n    tag_422:\n        /* \"#utility.yul\":5896:6013   */\n    tag_421:\n        /* \"#utility.yul\":6037:6115   */\n      tag_423\n        /* \"#utility.yul\":6107:6114   */\n      dup8\n        /* \"#utility.yul\":6098:6104   */\n      dup3\n        /* \"#utility.yul\":6087:6096   */\n      dup9\n        /* \"#utility.yul\":6083:6105   */\n      add\n        /* \"#utility.yul\":6037:6115   */\n      tag_322\n      jump\t// in\n    tag_423:\n        /* \"#utility.yul\":6027:6115   */\n      swap2\n      pop\n        /* \"#utility.yul\":5822:6125   */\n      pop\n        /* \"#utility.yul\":4977:6132   */\n      swap3\n      swap6\n      swap2\n      swap5\n      pop\n      swap3\n      pop\n      jump\t// out\n        /* \"#utility.yul\":6138:6967   */\n    tag_22:\n        /* \"#utility.yul\":6240:6246   */\n      0x00\n        /* \"#utility.yul\":6248:6254   */\n      dup1\n        /* \"#utility.yul\":6256:6262   */\n      0x00\n        /* \"#utility.yul\":6305:6307   */\n      0x60\n        /* \"#utility.yul\":6293:6302   */\n      dup5\n        /* \"#utility.yul\":6284:6291   */\n      dup7\n        /* \"#utility.yul\":6280:6303   */\n      sub\n        /* \"#utility.yul\":6276:6308   */\n      slt\n        /* \"#utility.yul\":6273:6392   */\n      iszero\n      tag_425\n      jumpi\n        /* \"#utility.yul\":6311:6390   */\n      tag_426\n      tag_301\n      jump\t// in\n    tag_426:\n        /* \"#utility.yul\":6273:6392   */\n    tag_425:\n        /* \"#utility.yul\":6431:6432   */\n      0x00\n        /* \"#utility.yul\":6456:6509   */\n      tag_427\n        /* \"#utility.yul\":6501:6508   */\n      dup7\n        /* \"#utility.yul\":6492:6498   */\n      dup3\n        /* \"#utility.yul\":6481:6490   */\n      dup8\n        /* \"#utility.yul\":6477:6499   */\n      add\n        /* \"#utility.yul\":6456:6509   */\n      tag_309\n      jump\t// in\n    tag_427:\n        /* \"#utility.yul\":6446:6509   */\n      swap4\n      pop\n        /* \"#utility.yul\":6402:6519   */\n      pop\n        /* \"#utility.yul\":6558:6560   */\n      0x20\n        /* \"#utility.yul\":6584:6637   */\n      tag_428\n        /* \"#utility.yul\":6629:6636   */\n      dup7\n        /* \"#utility.yul\":6620:6626   */\n      dup3\n        /* \"#utility.yul\":6609:6618   */\n      dup8\n        /* \"#utility.yul\":6605:6627   */\n      add\n        /* \"#utility.yul\":6584:6637   */\n      tag_309\n      jump\t// in\n    tag_428:\n        /* \"#utility.yul\":6574:6637   */\n      swap3\n      pop\n        /* \"#utility.yul\":6529:6647   */\n      pop\n        /* \"#utility.yul\":6714:6716   */\n      0x40\n        /* \"#utility.yul\":6703:6712   */\n      dup5\n        /* \"#utility.yul\":6699:6717   */\n      add\n        /* \"#utility.yul\":6686:6718   */\n      calldataload\n        /* \"#utility.yul\":6745:6763   */\n      0xffffffffffffffff\n        /* \"#utility.yul\":6737:6743   */\n      dup2\n        /* \"#utility.yul\":6734:6764   */\n      gt\n        /* \"#utility.yul\":6731:6848   */\n      iszero\n      tag_429\n      jumpi\n        /* \"#utility.yul\":6767:6846   */\n      tag_430\n      tag_302\n      jump\t// in\n    tag_430:\n        /* \"#utility.yul\":6731:6848   */\n    tag_429:\n        /* \"#utility.yul\":6872:6950   */\n      tag_431\n        /* \"#utility.yul\":6942:6949   */\n      dup7\n        /* \"#utility.yul\":6933:6939   */\n      dup3\n        /* \"#utility.yul\":6922:6931   */\n      dup8\n        /* \"#utility.yul\":6918:6940   */\n      add\n        /* \"#utility.yul\":6872:6950   */\n      tag_322\n      jump\t// in\n    tag_431:\n        /* \"#utility.yul\":6862:6950   */\n      swap2\n      pop\n        /* \"#utility.yul\":6657:6960   */\n      pop\n        /* \"#utility.yul\":6138:6967   */\n      swap3\n      pop\n      swap3\n      pop\n      swap3\n      jump\t// out\n        /* \"#utility.yul\":6973:7657   */\n    tag_26:\n        /* \"#utility.yul\":7066:7072   */\n      0x00\n        /* \"#utility.yul\":7074:7080   */\n      dup1\n        /* \"#utility.yul\":7123:7125   */\n      0x40\n        /* \"#utility.yul\":7111:7120   */\n      dup4\n        /* \"#utility.yul\":7102:7109   */\n      dup6\n        /* \"#utility.yul\":7098:7121   */\n      sub\n        /* \"#utility.yul\":7094:7126   */\n      slt\n        /* \"#utility.yul\":7091:7210   */\n      iszero\n      tag_433\n      jumpi\n        /* \"#utility.yul\":7129:7208   */\n      tag_434\n      tag_301\n      jump\t// in\n    tag_434:\n        /* \"#utility.yul\":7091:7210   */\n    tag_433:\n        /* \"#utility.yul\":7249:7250   */\n      0x00\n        /* \"#utility.yul\":7274:7327   */\n      tag_435\n        /* \"#utility.yul\":7319:7326   */\n      dup6\n        /* \"#utility.yul\":7310:7316   */\n      dup3\n        /* \"#utility.yul\":7299:7308   */\n      dup7\n        /* \"#utility.yul\":7295:7317   */\n      add\n        /* \"#utility.yul\":7274:7327   */\n      tag_309\n      jump\t// in\n    tag_435:\n        /* \"#utility.yul\":7264:7327   */\n      swap3\n      pop\n        /* \"#utility.yul\":7220:7337   */\n      pop\n        /* \"#utility.yul\":7404:7406   */\n      0x20\n        /* \"#utility.yul\":7393:7402   */\n      dup4\n        /* \"#utility.yul\":7389:7407   */\n      add\n        /* \"#utility.yul\":7376:7408   */\n      calldataload\n        /* \"#utility.yul\":7435:7453   */\n      0xffffffffffffffff\n        /* \"#utility.yul\":7427:7433   */\n      dup2\n        /* \"#utility.yul\":7424:7454   */\n      gt\n        /* \"#utility.yul\":7421:7538   */\n      iszero\n      tag_436\n      jumpi\n        /* \"#utility.yul\":7457:7536   */\n      tag_437\n      tag_302\n      jump\t// in\n    tag_437:\n        /* \"#utility.yul\":7421:7538   */\n    tag_436:\n        /* \"#utility.yul\":7562:7640   */\n      tag_438\n        /* \"#utility.yul\":7632:7639   */\n      dup6\n        /* \"#utility.yul\":7623:7629   */\n      dup3\n        /* \"#utility.yul\":7612:7621   */\n      dup7\n        /* \"#utility.yul\":7608:7630   */\n      add\n        /* \"#utility.yul\":7562:7640   */\n      tag_322\n      jump\t// in\n    tag_438:\n        /* \"#utility.yul\":7552:7640   */\n      swap2\n      pop\n        /* \"#utility.yul\":7347:7650   */\n      pop\n        /* \"#utility.yul\":6973:7657   */\n      swap3\n      pop\n      swap3\n      swap1\n      pop\n      jump\t// out\n        /* \"#utility.yul\":7663:7777   */\n    tag_323:\n        /* \"#utility.yul\":7730:7736   */\n      0x00\n        /* \"#utility.yul\":7764:7769   */\n      dup2\n        /* \"#utility.yul\":7758:7770   */\n      mload\n        /* \"#utility.yul\":7748:7770   */\n      swap1\n      pop\n        /* \"#utility.yul\":7663:7777   */\n      swap2\n      swap1\n      pop\n      jump\t// out\n        /* \"#utility.yul\":7783:7967   */\n    tag_324:\n        /* \"#utility.yul\":7882:7893   */\n      0x00\n        /* \"#utility.yul\":7916:7922   */\n      dup3\n        /* \"#utility.yul\":7911:7914   */\n      dup3\n        /* \"#utility.yul\":7904:7923   */\n      mstore\n        /* \"#utility.yul\":7956:7960   */\n      0x20\n        /* \"#utility.yul\":7951:7954   */\n      dup3\n        /* \"#utility.yul\":7947:7961   */\n      add\n        /* \"#utility.yul\":7932:7961   */\n      swap1\n      pop\n        /* \"#utility.yul\":7783:7967   */\n      swap3\n      swap2\n      pop\n      pop\n      jump\t// out\n        /* \"#utility.yul\":7973:8105   */\n    tag_325:\n        /* \"#utility.yul\":8040:8044   */\n      0x00\n        /* \"#utility.yul\":8063:8066   */\n      dup2\n        /* \"#utility.yul\":8055:8066   */\n      swap1\n      pop\n        /* \"#utility.yul\":8093:8097   */\n      0x20\n        /* \"#utility.yul\":8088:8091   */\n      dup3\n        /* \"#utility.yul\":8084:8098   */\n      add\n        /* \"#utility.yul\":8076:8098   */\n      swap1\n      pop\n        /* \"#utility.yul\":7973:8105   */\n      swap2\n      swap1\n      pop\n      jump\t// out\n        /* \"#utility.yul\":8111:8219   */\n    tag_326:\n        /* \"#utility.yul\":8188:8212   */\n      tag_443\n        /* \"#utility.yul\":8206:8211   */\n      dup2\n        /* \"#utility.yul\":8188:8212   */\n      tag_307\n      jump\t// in\n    tag_443:\n        /* \"#utility.yul\":8183:8186   */\n      dup3\n        /* \"#utility.yul\":8176:8213   */\n      mstore\n        /* \"#utility.yul\":8111:8219   */\n      pop\n      pop\n      jump\t// out\n        /* \"#utility.yul\":8225:8404   */\n    tag_327:\n        /* \"#utility.yul\":8294:8304   */\n      0x00\n        /* \"#utility.yul\":8315:8361   */\n      tag_445\n        /* \"#utility.yul\":8357:8360   */\n      dup4\n        /* \"#utility.yul\":8349:8355   */\n      dup4\n        /* \"#utility.yul\":8315:8361   */\n      tag_326\n      jump\t// in\n    tag_445:\n        /* \"#utility.yul\":8393:8397   */\n      0x20\n        /* \"#utility.yul\":8388:8391   */\n      dup4\n        /* \"#utility.yul\":8384:8398   */\n      add\n        /* \"#utility.yul\":8370:8398   */\n      swap1\n      pop\n        /* \"#utility.yul\":8225:8404   */\n      swap3\n      swap2\n      pop\n      pop\n      jump\t// out\n        /* \"#utility.yul\":8410:8523   */\n    tag_328:\n        /* \"#utility.yul\":8480:8484   */\n      0x00\n        /* \"#utility.yul\":8512:8516   */\n      0x20\n        /* \"#utility.yul\":8507:8510   */\n      dup3\n        /* \"#utility.yul\":8503:8517   */\n      add\n        /* \"#utility.yul\":8495:8517   */\n      swap1\n      pop\n        /* \"#utility.yul\":8410:8523   */\n      swap2\n      swap1\n      pop\n      jump\t// out\n        /* \"#utility.yul\":8559:9291   */\n    tag_329:\n        /* \"#utility.yul\":8678:8681   */\n      0x00\n        /* \"#utility.yul\":8707:8761   */\n      tag_448\n        /* \"#utility.yul\":8755:8760   */\n      dup3\n        /* \"#utility.yul\":8707:8761   */\n      tag_323\n      jump\t// in\n    tag_448:\n        /* \"#utility.yul\":8777:8863   */\n      tag_449\n        /* \"#utility.yul\":8856:8862   */\n      dup2\n        /* \"#utility.yul\":8851:8854   */\n      dup6\n        /* \"#utility.yul\":8777:8863   */\n      tag_324\n      jump\t// in\n    tag_449:\n        /* \"#utility.yul\":8770:8863   */\n      swap4\n      pop\n        /* \"#utility.yul\":8887:8943   */\n      tag_450\n        /* \"#utility.yul\":8937:8942   */\n      dup4\n        /* \"#utility.yul\":8887:8943   */\n      tag_325\n      jump\t// in\n    tag_450:\n        /* \"#utility.yul\":8966:8973   */\n      dup1\n        /* \"#utility.yul\":8997:8998   */\n      0x00\n        /* \"#utility.yul\":8982:9266   */\n    tag_451:\n        /* \"#utility.yul\":9007:9013   */\n      dup4\n        /* \"#utility.yul\":9004:9005   */\n      dup2\n        /* \"#utility.yul\":9001:9014   */\n      lt\n        /* \"#utility.yul\":8982:9266   */\n      iszero\n      tag_453\n      jumpi\n        /* \"#utility.yul\":9083:9089   */\n      dup2\n        /* \"#utility.yul\":9077:9090   */\n      mload\n        /* \"#utility.yul\":9110:9173   */\n      tag_454\n        /* \"#utility.yul\":9169:9172   */\n      dup9\n        /* \"#utility.yul\":9154:9167   */\n      dup3\n        /* \"#utility.yul\":9110:9173   */\n      tag_327\n      jump\t// in\n    tag_454:\n        /* \"#utility.yul\":9103:9173   */\n      swap8\n      pop\n        /* \"#utility.yul\":9196:9256   */\n      tag_455\n        /* \"#utility.yul\":9249:9255   */\n      dup4\n        /* \"#utility.yul\":9196:9256   */\n      tag_328\n      jump\t// in\n    tag_455:\n        /* \"#utility.yul\":9186:9256   */\n      swap3\n      pop\n        /* \"#utility.yul\":9042:9266   */\n      pop\n        /* \"#utility.yul\":9029:9030   */\n      0x01\n        /* \"#utility.yul\":9026:9027   */\n      dup2\n        /* \"#utility.yul\":9022:9031   */\n      add\n        /* \"#utility.yul\":9017:9031   */\n      swap1\n      pop\n        /* \"#utility.yul\":8982:9266   */\n      jump(tag_451)\n    tag_453:\n        /* \"#utility.yul\":8986:9000   */\n      pop\n        /* \"#utility.yul\":9282:9285   */\n      dup6\n        /* \"#utility.yul\":9275:9285   */\n      swap4\n      pop\n        /* \"#utility.yul\":8683:9291   */\n      pop\n      pop\n      pop\n        /* \"#utility.yul\":8559:9291   */\n      swap3\n      swap2\n      pop\n      pop\n      jump\t// out\n        /* \"#utility.yul\":9297:9421   */\n    tag_330:\n        /* \"#utility.yul\":9374:9380   */\n      0x00\n        /* \"#utility.yul\":9408:9413   */\n      dup2\n        /* \"#utility.yul\":9402:9414   */\n      mload\n        /* \"#utility.yul\":9392:9414   */\n      swap1\n      pop\n        /* \"#utility.yul\":9297:9421   */\n      swap2\n      swap1\n      pop\n      jump\t// out\n        /* \"#utility.yul\":9427:9621   */\n    tag_331:\n        /* \"#utility.yul\":9536:9547   */\n      0x00\n        /* \"#utility.yul\":9570:9576   */\n      dup3\n        /* \"#utility.yul\":9565:9568   */\n      dup3\n        /* \"#utility.yul\":9558:9577   */\n      mstore\n        /* \"#utility.yul\":9610:9614   */\n      0x20\n        /* \"#utility.yul\":9605:9608   */\n      dup3\n        /* \"#utility.yul\":9601:9615   */\n      add\n        /* \"#utility.yul\":9586:9615   */\n      swap1\n      pop\n        /* \"#utility.yul\":9427:9621   */\n      swap3\n      swap2\n      pop\n      pop\n      jump\t// out\n        /* \"#utility.yul\":9627:9769   */\n    tag_332:\n        /* \"#utility.yul\":9704:9708   */\n      0x00\n        /* \"#utility.yul\":9727:9730   */\n      dup2\n        /* \"#utility.yul\":9719:9730   */\n      swap1\n      pop\n        /* \"#utility.yul\":9757:9761   */\n      0x20\n        /* \"#utility.yul\":9752:9755   */\n      dup3\n        /* \"#utility.yul\":9748:9762   */\n      add\n        /* \"#utility.yul\":9740:9762   */\n      swap1\n      pop\n        /* \"#utility.yul\":9627:9769   */\n      swap2\n      swap1\n      pop\n      jump\t// out\n        /* \"#utility.yul\":9775:9874   */\n    tag_333:\n        /* \"#utility.yul\":9827:9833   */\n      0x00\n        /* \"#utility.yul\":9861:9866   */\n      dup2\n        /* \"#utility.yul\":9855:9867   */\n      mload\n        /* \"#utility.yul\":9845:9867   */\n      swap1\n      pop\n        /* \"#utility.yul\":9775:9874   */\n      swap2\n      swap1\n      pop\n      jump\t// out\n        /* \"#utility.yul\":9880:10039   */\n    tag_334:\n        /* \"#utility.yul\":9954:9965   */\n      0x00\n        /* \"#utility.yul\":9988:9994   */\n      dup3\n        /* \"#utility.yul\":9983:9986   */\n      dup3\n        /* \"#utility.yul\":9976:9995   */\n      mstore\n        /* \"#utility.yul\":10028:10032   */\n      0x20\n        /* \"#utility.yul\":10023:10026   */\n      dup3\n        /* \"#utility.yul\":10019:10033   */\n      add\n        /* \"#utility.yul\":10004:10033   */\n      swap1\n      pop\n        /* \"#utility.yul\":9880:10039   */\n      swap3\n      swap2\n      pop\n      pop\n      jump\t// out\n        /* \"#utility.yul\":10045:10352   */\n    tag_335:\n        /* \"#utility.yul\":10113:10114   */\n      0x00\n        /* \"#utility.yul\":10123:10236   */\n    tag_462:\n        /* \"#utility.yul\":10137:10143   */\n      dup4\n        /* \"#utility.yul\":10134:10135   */\n      dup2\n        /* \"#utility.yul\":10131:10144   */\n      lt\n        /* \"#utility.yul\":10123:10236   */\n      iszero\n      tag_464\n      jumpi\n        /* \"#utility.yul\":10222:10223   */\n      dup1\n        /* \"#utility.yul\":10217:10220   */\n      dup3\n        /* \"#utility.yul\":10213:10224   */\n      add\n        /* \"#utility.yul\":10207:10225   */\n      mload\n        /* \"#utility.yul\":10203:10204   */\n      dup2\n        /* \"#utility.yul\":10198:10201   */\n      dup5\n        /* \"#utility.yul\":10194:10205   */\n      add\n        /* \"#utility.yul\":10187:10226   */\n      mstore\n        /* \"#utility.yul\":10159:10161   */\n      0x20\n        /* \"#utility.yul\":10156:10157   */\n      dup2\n        /* \"#utility.yul\":10152:10162   */\n      add\n        /* \"#utility.yul\":10147:10162   */\n      swap1\n      pop\n        /* \"#utility.yul\":10123:10236   */\n      jump(tag_462)\n    tag_464:\n        /* \"#utility.yul\":10254:10260   */\n      dup4\n        /* \"#utility.yul\":10251:10252   */\n      dup2\n        /* \"#utility.yul\":10248:10261   */\n      gt\n        /* \"#utility.yul\":10245:10346   */\n      iszero\n      tag_465\n      jumpi\n        /* \"#utility.yul\":10334:10335   */\n      0x00\n        /* \"#utility.yul\":10325:10331   */\n      dup5\n        /* \"#utility.yul\":10320:10323   */\n      dup5\n        /* \"#utility.yul\":10316:10332   */\n      add\n        /* \"#utility.yul\":10309:10336   */\n      mstore\n        /* \"#utility.yul\":10245:10346   */\n    tag_465:\n        /* \"#utility.yul\":10094:10352   */\n      pop\n        /* \"#utility.yul\":10045:10352   */\n      pop\n      pop\n      pop\n      jump\t// out\n        /* \"#utility.yul\":10358:10702   */\n    tag_336:\n        /* \"#utility.yul\":10436:10439   */\n      0x00\n        /* \"#utility.yul\":10464:10503   */\n      tag_467\n        /* \"#utility.yul\":10497:10502   */\n      dup3\n        /* \"#utility.yul\":10464:10503   */\n      tag_333\n      jump\t// in\n    tag_467:\n        /* \"#utility.yul\":10519:10580   */\n      tag_468\n        /* \"#utility.yul\":10573:10579   */\n      dup2\n        /* \"#utility.yul\":10568:10571   */\n      dup6\n        /* \"#utility.yul\":10519:10580   */\n      tag_334\n      jump\t// in\n    tag_468:\n        /* \"#utility.yul\":10512:10580   */\n      swap4\n      pop\n        /* \"#utility.yul\":10589:10641   */\n      tag_469\n        /* \"#utility.yul\":10634:10640   */\n      dup2\n        /* \"#utility.yul\":10629:10632   */\n      dup6\n        /* \"#utility.yul\":10622:10626   */\n      0x20\n        /* \"#utility.yul\":10615:10620   */\n      dup7\n        /* \"#utility.yul\":10611:10627   */\n      add\n        /* \"#utility.yul\":10589:10641   */\n      tag_335\n      jump\t// in\n    tag_469:\n        /* \"#utility.yul\":10666:10695   */\n      tag_470\n        /* \"#utility.yul\":10688:10694   */\n      dup2\n        /* \"#utility.yul\":10666:10695   */\n      tag_312\n      jump\t// in\n    tag_470:\n        /* \"#utility.yul\":10661:10664   */\n      dup5\n        /* \"#utility.yul\":10657:10696   */\n      add\n        /* \"#utility.yul\":10650:10696   */\n      swap2\n      pop\n        /* \"#utility.yul\":10440:10702   */\n      pop\n        /* \"#utility.yul\":10358:10702   */\n      swap3\n      swap2\n      pop\n      pop\n      jump\t// out\n        /* \"#utility.yul\":10708:10904   */\n    tag_337:\n        /* \"#utility.yul\":10797:10807   */\n      0x00\n        /* \"#utility.yul\":10832:10898   */\n      tag_472\n        /* \"#utility.yul\":10894:10897   */\n      dup4\n        /* \"#utility.yul\":10886:10892   */\n      dup4\n        /* \"#utility.yul\":10832:10898   */\n      tag_336\n      jump\t// in\n    tag_472:\n        /* \"#utility.yul\":10818:10898   */\n      swap1\n      pop\n        /* \"#utility.yul\":10708:10904   */\n      swap3\n      swap2\n      pop\n      pop\n      jump\t// out\n        /* \"#utility.yul\":10910:11033   */\n    tag_338:\n        /* \"#utility.yul\":10990:10994   */\n      0x00\n        /* \"#utility.yul\":11022:11026   */\n      0x20\n        /* \"#utility.yul\":11017:11020   */\n      dup3\n        /* \"#utility.yul\":11013:11027   */\n      add\n        /* \"#utility.yul\":11005:11027   */\n      swap1\n      pop\n        /* \"#utility.yul\":10910:11033   */\n      swap2\n      swap1\n      pop\n      jump\t// out\n        /* \"#utility.yul\":11067:12058   */\n    tag_339:\n        /* \"#utility.yul\":11206:11209   */\n      0x00\n        /* \"#utility.yul\":11235:11299   */\n      tag_475\n        /* \"#utility.yul\":11293:11298   */\n      dup3\n        /* \"#utility.yul\":11235:11299   */\n      tag_330\n      jump\t// in\n    tag_475:\n        /* \"#utility.yul\":11315:11411   */\n      tag_476\n        /* \"#utility.yul\":11404:11410   */\n      dup2\n        /* \"#utility.yul\":11399:11402   */\n      dup6\n        /* \"#utility.yul\":11315:11411   */\n      tag_331\n      jump\t// in\n    tag_476:\n        /* \"#utility.yul\":11308:11411   */\n      swap4\n      pop\n        /* \"#utility.yul\":11437:11440   */\n      dup4\n        /* \"#utility.yul\":11482:11486   */\n      0x20\n        /* \"#utility.yul\":11474:11480   */\n      dup3\n        /* \"#utility.yul\":11470:11487   */\n      mul\n        /* \"#utility.yul\":11465:11468   */\n      dup6\n        /* \"#utility.yul\":11461:11488   */\n      add\n        /* \"#utility.yul\":11512:11578   */\n      tag_477\n        /* \"#utility.yul\":11572:11577   */\n      dup6\n        /* \"#utility.yul\":11512:11578   */\n      tag_332\n      jump\t// in\n    tag_477:\n        /* \"#utility.yul\":11601:11608   */\n      dup1\n        /* \"#utility.yul\":11632:11633   */\n      0x00\n        /* \"#utility.yul\":11617:12013   */\n    tag_478:\n        /* \"#utility.yul\":11642:11648   */\n      dup6\n        /* \"#utility.yul\":11639:11640   */\n      dup2\n        /* \"#utility.yul\":11636:11649   */\n      lt\n        /* \"#utility.yul\":11617:12013   */\n      iszero\n      tag_480\n      jumpi\n        /* \"#utility.yul\":11713:11722   */\n      dup5\n        /* \"#utility.yul\":11707:11711   */\n      dup5\n        /* \"#utility.yul\":11703:11723   */\n      sub\n        /* \"#utility.yul\":11698:11701   */\n      dup10\n        /* \"#utility.yul\":11691:11724   */\n      mstore\n        /* \"#utility.yul\":11764:11770   */\n      dup2\n        /* \"#utility.yul\":11758:11771   */\n      mload\n        /* \"#utility.yul\":11792:11876   */\n      tag_481\n        /* \"#utility.yul\":11871:11875   */\n      dup6\n        /* \"#utility.yul\":11856:11869   */\n      dup3\n        /* \"#utility.yul\":11792:11876   */\n      tag_337\n      jump\t// in\n    tag_481:\n        /* \"#utility.yul\":11784:11876   */\n      swap5\n      pop\n        /* \"#utility.yul\":11899:11969   */\n      tag_482\n        /* \"#utility.yul\":11962:11968   */\n      dup4\n        /* \"#utility.yul\":11899:11969   */\n      tag_338\n      jump\t// in\n    tag_482:\n        /* \"#utility.yul\":11889:11969   */\n      swap3\n      pop\n        /* \"#utility.yul\":11998:12002   */\n      0x20\n        /* \"#utility.yul\":11993:11996   */\n      dup11\n        /* \"#utility.yul\":11989:12003   */\n      add\n        /* \"#utility.yul\":11982:12003   */\n      swap10\n      pop\n        /* \"#utility.yul\":11677:12013   */\n      pop\n        /* \"#utility.yul\":11664:11665   */\n      0x01\n        /* \"#utility.yul\":11661:11662   */\n      dup2\n        /* \"#utility.yul\":11657:11666   */\n      add\n        /* \"#utility.yul\":11652:11666   */\n      swap1\n      pop\n        /* \"#utility.yul\":11617:12013   */\n      jump(tag_478)\n    tag_480:\n        /* \"#utility.yul\":11621:11635   */\n      pop\n        /* \"#utility.yul\":12029:12033   */\n      dup3\n        /* \"#utility.yul\":12022:12033   */\n      swap8\n      pop\n        /* \"#utility.yul\":12049:12052   */\n      dup8\n        /* \"#utility.yul\":12042:12052   */\n      swap6\n      pop\n        /* \"#utility.yul\":11211:12058   */\n      pop\n      pop\n      pop\n      pop\n      pop\n        /* \"#utility.yul\":11067:12058   */\n      swap3\n      swap2\n      pop\n      pop\n      jump\t// out\n        /* \"#utility.yul\":12064:13563   */\n    tag_29:\n        /* \"#utility.yul\":12559:12563   */\n      0x00\n        /* \"#utility.yul\":12597:12600   */\n      0xa0\n        /* \"#utility.yul\":12586:12595   */\n      dup3\n        /* \"#utility.yul\":12582:12601   */\n      add\n        /* \"#utility.yul\":12574:12601   */\n      swap1\n      pop\n        /* \"#utility.yul\":12647:12656   */\n      dup2\n        /* \"#utility.yul\":12641:12645   */\n      dup2\n        /* \"#utility.yul\":12637:12657   */\n      sub\n        /* \"#utility.yul\":12633:12634   */\n      0x00\n        /* \"#utility.yul\":12622:12631   */\n      dup4\n        /* \"#utility.yul\":12618:12635   */\n      add\n        /* \"#utility.yul\":12611:12658   */\n      mstore\n        /* \"#utility.yul\":12675:12783   */\n      tag_484\n        /* \"#utility.yul\":12778:12782   */\n      dup2\n        /* \"#utility.yul\":12769:12775   */\n      dup9\n        /* \"#utility.yul\":12675:12783   */\n      tag_329\n      jump\t// in\n    tag_484:\n        /* \"#utility.yul\":12667:12783   */\n      swap1\n      pop\n        /* \"#utility.yul\":12830:12839   */\n      dup2\n        /* \"#utility.yul\":12824:12828   */\n      dup2\n        /* \"#utility.yul\":12820:12840   */\n      sub\n        /* \"#utility.yul\":12815:12817   */\n      0x20\n        /* \"#utility.yul\":12804:12813   */\n      dup4\n        /* \"#utility.yul\":12800:12818   */\n      add\n        /* \"#utility.yul\":12793:12841   */\n      mstore\n        /* \"#utility.yul\":12858:12966   */\n      tag_485\n        /* \"#utility.yul\":12961:12965   */\n      dup2\n        /* \"#utility.yul\":12952:12958   */\n      dup8\n        /* \"#utility.yul\":12858:12966   */\n      tag_329\n      jump\t// in\n    tag_485:\n        /* \"#utility.yul\":12850:12966   */\n      swap1\n      pop\n        /* \"#utility.yul\":13013:13022   */\n      dup2\n        /* \"#utility.yul\":13007:13011   */\n      dup2\n        /* \"#utility.yul\":13003:13023   */\n      sub\n        /* \"#utility.yul\":12998:13000   */\n      0x40\n        /* \"#utility.yul\":12987:12996   */\n      dup4\n        /* \"#utility.yul\":12983:13001   */\n      add\n        /* \"#utility.yul\":12976:13024   */\n      mstore\n        /* \"#utility.yul\":13041:13169   */\n      tag_486\n        /* \"#utility.yul\":13164:13168   */\n      dup2\n        /* \"#utility.yul\":13155:13161   */\n      dup7\n        /* \"#utility.yul\":13041:13169   */\n      tag_339\n      jump\t// in\n    tag_486:\n        /* \"#utility.yul\":13033:13169   */\n      swap1\n      pop\n        /* \"#utility.yul\":13216:13225   */\n      dup2\n        /* \"#utility.yul\":13210:13214   */\n      dup2\n        /* \"#utility.yul\":13206:13226   */\n      sub\n        /* \"#utility.yul\":13201:13203   */\n      0x60\n        /* \"#utility.yul\":13190:13199   */\n      dup4\n        /* \"#utility.yul\":13186:13204   */\n      add\n        /* \"#utility.yul\":13179:13227   */\n      mstore\n        /* \"#utility.yul\":13244:13372   */\n      tag_487\n        /* \"#utility.yul\":13367:13371   */\n      dup2\n        /* \"#utility.yul\":13358:13364   */\n      dup6\n        /* \"#utility.yul\":13244:13372   */\n      tag_339\n      jump\t// in\n    tag_487:\n        /* \"#utility.yul\":13236:13372   */\n      swap1\n      pop\n        /* \"#utility.yul\":13420:13429   */\n      dup2\n        /* \"#utility.yul\":13414:13418   */\n      dup2\n        /* \"#utility.yul\":13410:13430   */\n      sub\n        /* \"#utility.yul\":13404:13407   */\n      0x80\n        /* \"#utility.yul\":13393:13402   */\n      dup4\n        /* \"#utility.yul\":13389:13408   */\n      add\n        /* \"#utility.yul\":13382:13431   */\n      mstore\n        /* \"#utility.yul\":13448:13556   */\n      tag_488\n        /* \"#utility.yul\":13551:13555   */\n      dup2\n        /* \"#utility.yul\":13542:13548   */\n      dup5\n        /* \"#utility.yul\":13448:13556   */\n      tag_329\n      jump\t// in\n    tag_488:\n        /* \"#utility.yul\":13440:13556   */\n      swap1\n      pop\n        /* \"#utility.yul\":12064:13563   */\n      swap7\n      swap6\n      pop\n      pop\n      pop\n      pop\n      pop\n      pop\n      jump\t// out\n        /* \"#utility.yul\":13569:15196   */\n    tag_32:\n        /* \"#utility.yul\":13718:13724   */\n      0x00\n        /* \"#utility.yul\":13726:13732   */\n      dup1\n        /* \"#utility.yul\":13734:13740   */\n      0x00\n        /* \"#utility.yul\":13742:13748   */\n      dup1\n        /* \"#utility.yul\":13750:13756   */\n      0x00\n        /* \"#utility.yul\":13758:13764   */\n      dup1\n        /* \"#utility.yul\":13807:13810   */\n      0xc0\n        /* \"#utility.yul\":13795:13804   */\n      dup8\n        /* \"#utility.yul\":13786:13793   */\n      dup10\n        /* \"#utility.yul\":13782:13805   */\n      sub\n        /* \"#utility.yul\":13778:13811   */\n      slt\n        /* \"#utility.yul\":13775:13895   */\n      iszero\n      tag_490\n      jumpi\n        /* \"#utility.yul\":13814:13893   */\n      tag_491\n      tag_301\n      jump\t// in\n    tag_491:\n        /* \"#utility.yul\":13775:13895   */\n    tag_490:\n        /* \"#utility.yul\":13934:13935   */\n      0x00\n        /* \"#utility.yul\":13959:14012   */\n      tag_492\n        /* \"#utility.yul\":14004:14011   */\n      dup10\n        /* \"#utility.yul\":13995:14001   */\n      dup3\n        /* \"#utility.yul\":13984:13993   */\n      dup11\n        /* \"#utility.yul\":13980:14002   */\n      add\n        /* \"#utility.yul\":13959:14012   */\n      tag_309\n      jump\t// in\n    tag_492:\n        /* \"#utility.yul\":13949:14012   */\n      swap7\n      pop\n        /* \"#utility.yul\":13905:14022   */\n      pop\n        /* \"#utility.yul\":14061:14063   */\n      0x20\n        /* \"#utility.yul\":14087:14140   */\n      tag_493\n        /* \"#utility.yul\":14132:14139   */\n      dup10\n        /* \"#utility.yul\":14123:14129   */\n      dup3\n        /* \"#utility.yul\":14112:14121   */\n      dup11\n        /* \"#utility.yul\":14108:14130   */\n      add\n        /* \"#utility.yul\":14087:14140   */\n      tag_309\n      jump\t// in\n    tag_493:\n        /* \"#utility.yul\":14077:14140   */\n      swap6\n      pop\n        /* \"#utility.yul\":14032:14150   */\n      pop\n        /* \"#utility.yul\":14189:14191   */\n      0x40\n        /* \"#utility.yul\":14215:14268   */\n      tag_494\n        /* \"#utility.yul\":14260:14267   */\n      dup10\n        /* \"#utility.yul\":14251:14257   */\n      dup3\n        /* \"#utility.yul\":14240:14249   */\n      dup11\n        /* \"#utility.yul\":14236:14258   */\n      add\n        /* \"#utility.yul\":14215:14268   */\n      tag_309\n      jump\t// in\n    tag_494:\n        /* \"#utility.yul\":14205:14268   */\n      swap5\n      pop\n        /* \"#utility.yul\":14160:14278   */\n      pop\n        /* \"#utility.yul\":14345:14347   */\n      0x60\n        /* \"#utility.yul\":14334:14343   */\n      dup8\n        /* \"#utility.yul\":14330:14348   */\n      add\n        /* \"#utility.yul\":14317:14349   */\n      calldataload\n        /* \"#utility.yul\":14376:14394   */\n      0xffffffffffffffff\n        /* \"#utility.yul\":14368:14374   */\n      dup2\n        /* \"#utility.yul\":14365:14395   */\n      gt\n        /* \"#utility.yul\":14362:14479   */\n      iszero\n      tag_495\n      jumpi\n        /* \"#utility.yul\":14398:14477   */\n      tag_496\n      tag_302\n      jump\t// in\n    tag_496:\n        /* \"#utility.yul\":14362:14479   */\n    tag_495:\n        /* \"#utility.yul\":14503:14566   */\n      tag_497\n        /* \"#utility.yul\":14558:14565   */\n      dup10\n        /* \"#utility.yul\":14549:14555   */\n      dup3\n        /* \"#utility.yul\":14538:14547   */\n      dup11\n        /* \"#utility.yul\":14534:14556   */\n      add\n        /* \"#utility.yul\":14503:14566   */\n      tag_318\n      jump\t// in\n    tag_497:\n        /* \"#utility.yul\":14493:14566   */\n      swap4\n      pop\n        /* \"#utility.yul\":14288:14576   */\n      pop\n        /* \"#utility.yul\":14643:14646   */\n      0x80\n        /* \"#utility.yul\":14632:14641   */\n      dup8\n        /* \"#utility.yul\":14628:14647   */\n      add\n        /* \"#utility.yul\":14615:14648   */\n      calldataload\n        /* \"#utility.yul\":14675:14693   */\n      0xffffffffffffffff\n        /* \"#utility.yul\":14667:14673   */\n      dup2\n        /* \"#utility.yul\":14664:14694   */\n      gt\n        /* \"#utility.yul\":14661:14778   */\n      iszero\n      tag_498\n      jumpi\n        /* \"#utility.yul\":14697:14776   */\n      tag_499\n      tag_302\n      jump\t// in\n    tag_499:\n        /* \"#utility.yul\":14661:14778   */\n    tag_498:\n        /* \"#utility.yul\":14802:14865   */\n      tag_500\n        /* \"#utility.yul\":14857:14864   */\n      dup10\n        /* \"#utility.yul\":14848:14854   */\n      dup3\n        /* \"#utility.yul\":14837:14846   */\n      dup11\n        /* \"#utility.yul\":14833:14855   */\n      add\n        /* \"#utility.yul\":14802:14865   */\n      tag_318\n      jump\t// in\n    tag_500:\n        /* \"#utility.yul\":14792:14865   */\n      swap3\n      pop\n        /* \"#utility.yul\":14586:14875   */\n      pop\n        /* \"#utility.yul\":14942:14945   */\n      0xa0\n        /* \"#utility.yul\":14931:14940   */\n      dup8\n        /* \"#utility.yul\":14927:14946   */\n      add\n        /* \"#utility.yul\":14914:14947   */\n      calldataload\n        /* \"#utility.yul\":14974:14992   */\n      0xffffffffffffffff\n        /* \"#utility.yul\":14966:14972   */\n      dup2\n        /* \"#utility.yul\":14963:14993   */\n      gt\n        /* \"#utility.yul\":14960:15077   */\n      iszero\n      tag_501\n      jumpi\n        /* \"#utility.yul\":14996:15075   */\n      tag_502\n      tag_302\n      jump\t// in\n    tag_502:\n        /* \"#utility.yul\":14960:15077   */\n    tag_501:\n        /* \"#utility.yul\":15101:15179   */\n      tag_503\n        /* \"#utility.yul\":15171:15178   */\n      dup10\n        /* \"#utility.yul\":15162:15168   */\n      dup3\n        /* \"#utility.yul\":15151:15160   */\n      dup11\n        /* \"#utility.yul\":15147:15169   */\n      add\n        /* \"#utility.yul\":15101:15179   */\n      tag_322\n      jump\t// in\n    tag_503:\n        /* \"#utility.yul\":15091:15179   */\n      swap2\n      pop\n        /* \"#utility.yul\":14885:15189   */\n      pop\n        /* \"#utility.yul\":13569:15196   */\n      swap3\n      swap6\n      pop\n      swap3\n      swap6\n      pop\n      swap3\n      swap6\n      jump\t// out\n        /* \"#utility.yul\":15202:16031   */\n    tag_36:\n        /* \"#utility.yul\":15304:15310   */\n      0x00\n        /* \"#utility.yul\":15312:15318   */\n      dup1\n        /* \"#utility.yul\":15320:15326   */\n      0x00\n        /* \"#utility.yul\":15369:15371   */\n      0x60\n        /* \"#utility.yul\":15357:15366   */\n      dup5\n        /* \"#utility.yul\":15348:15355   */\n      dup7\n        /* \"#utility.yul\":15344:15367   */\n      sub\n        /* \"#utility.yul\":15340:15372   */\n      slt\n        /* \"#utility.yul\":15337:15456   */\n      iszero\n      tag_505\n      jumpi\n        /* \"#utility.yul\":15375:15454   */\n      tag_506\n      tag_301\n      jump\t// in\n    tag_506:\n        /* \"#utility.yul\":15337:15456   */\n    tag_505:\n        /* \"#utility.yul\":15495:15496   */\n      0x00\n        /* \"#utility.yul\":15520:15573   */\n      tag_507\n        /* \"#utility.yul\":15565:15572   */\n      dup7\n        /* \"#utility.yul\":15556:15562   */\n      dup3\n        /* \"#utility.yul\":15545:15554   */\n      dup8\n        /* \"#utility.yul\":15541:15563   */\n      add\n        /* \"#utility.yul\":15520:15573   */\n      tag_309\n      jump\t// in\n    tag_507:\n        /* \"#utility.yul\":15510:15573   */\n      swap4\n      pop\n        /* \"#utility.yul\":15466:15583   */\n      pop\n        /* \"#utility.yul\":15622:15624   */\n      0x20\n        /* \"#utility.yul\":15648:15701   */\n      tag_508\n        /* \"#utility.yul\":15693:15700   */\n      dup7\n        /* \"#utility.yul\":15684:15690   */\n      dup3\n        /* \"#utility.yul\":15673:15682   */\n      dup8\n        /* \"#utility.yul\":15669:15691   */\n      add\n        /* \"#utility.yul\":15648:15701   */\n      tag_306\n      jump\t// in\n    tag_508:\n        /* \"#utility.yul\":15638:15701   */\n      swap3\n      pop\n        /* \"#utility.yul\":15593:15711   */\n      pop\n        /* \"#utility.yul\":15778:15780   */\n      0x40\n        /* \"#utility.yul\":15767:15776   */\n      dup5\n        /* \"#utility.yul\":15763:15781   */\n      add\n        /* \"#utility.yul\":15750:15782   */\n      calldataload\n        /* \"#utility.yul\":15809:15827   */\n      0xffffffffffffffff\n        /* \"#utility.yul\":15801:15807   */\n      dup2\n        /* \"#utility.yul\":15798:15828   */\n      gt\n        /* \"#utility.yul\":15795:15912   */\n      iszero\n      tag_509\n      jumpi\n        /* \"#utility.yul\":15831:15910   */\n      tag_510\n      tag_302\n      jump\t// in\n    tag_510:\n        /* \"#utility.yul\":15795:15912   */\n    tag_509:\n        /* \"#utility.yul\":15936:16014   */\n      tag_511\n        /* \"#utility.yul\":16006:16013   */\n      dup7\n        /* \"#utility.yul\":15997:16003   */\n      dup3\n        /* \"#utility.yul\":15986:15995   */\n      dup8\n        /* \"#utility.yul\":15982:16004   */\n      add\n        /* \"#utility.yul\":15936:16014   */\n      tag_322\n      jump\t// in\n    tag_511:\n        /* \"#utility.yul\":15926:16014   */\n      swap2\n      pop\n        /* \"#utility.yul\":15721:16024   */\n      pop\n        /* \"#utility.yul\":15202:16031   */\n      swap3\n      pop\n      swap3\n      pop\n      swap3\n      jump\t// out\n        /* \"#utility.yul\":16037:17192   */\n    tag_40:\n        /* \"#utility.yul\":16158:16164   */\n      0x00\n        /* \"#utility.yul\":16166:16172   */\n      dup1\n        /* \"#utility.yul\":16174:16180   */\n      0x00\n        /* \"#utility.yul\":16182:16188   */\n      dup1\n        /* \"#utility.yul\":16231:16234   */\n      0x80\n        /* \"#utility.yul\":16219:16228   */\n      dup6\n        /* \"#utility.yul\":16210:16217   */\n      dup8\n        /* \"#utility.yul\":16206:16229   */\n      sub\n        /* \"#utility.yul\":16202:16235   */\n      slt\n        /* \"#utility.yul\":16199:16319   */\n      iszero\n      tag_513\n      jumpi\n        /* \"#utility.yul\":16238:16317   */\n      tag_514\n      tag_301\n      jump\t// in\n    tag_514:\n        /* \"#utility.yul\":16199:16319   */\n    tag_513:\n        /* \"#utility.yul\":16358:16359   */\n      0x00\n        /* \"#utility.yul\":16383:16436   */\n      tag_515\n        /* \"#utility.yul\":16428:16435   */\n      dup8\n        /* \"#utility.yul\":16419:16425   */\n      dup3\n        /* \"#utility.yul\":16408:16417   */\n      dup9\n        /* \"#utility.yul\":16404:16426   */\n      add\n        /* \"#utility.yul\":16383:16436   */\n      tag_306\n      jump\t// in\n    tag_515:\n        /* \"#utility.yul\":16373:16436   */\n      swap5\n      pop\n        /* \"#utility.yul\":16329:16446   */\n      pop\n        /* \"#utility.yul\":16513:16515   */\n      0x20\n        /* \"#utility.yul\":16502:16511   */\n      dup6\n        /* \"#utility.yul\":16498:16516   */\n      add\n        /* \"#utility.yul\":16485:16517   */\n      calldataload\n        /* \"#utility.yul\":16544:16562   */\n      0xffffffffffffffff\n        /* \"#utility.yul\":16536:16542   */\n      dup2\n        /* \"#utility.yul\":16533:16563   */\n      gt\n        /* \"#utility.yul\":16530:16647   */\n      iszero\n      tag_516\n      jumpi\n        /* \"#utility.yul\":16566:16645   */\n      tag_517\n      tag_302\n      jump\t// in\n    tag_517:\n        /* \"#utility.yul\":16530:16647   */\n    tag_516:\n        /* \"#utility.yul\":16671:16734   */\n      tag_518\n        /* \"#utility.yul\":16726:16733   */\n      dup8\n        /* \"#utility.yul\":16717:16723   */\n      dup3\n        /* \"#utility.yul\":16706:16715   */\n      dup9\n        /* \"#utility.yul\":16702:16724   */\n      add\n        /* \"#utility.yul\":16671:16734   */\n      tag_318\n      jump\t// in\n    tag_518:\n        /* \"#utility.yul\":16661:16734   */\n      swap4\n      pop\n        /* \"#utility.yul\":16456:16744   */\n      pop\n        /* \"#utility.yul\":16783:16785   */\n      0x40\n        /* \"#utility.yul\":16809:16862   */\n      tag_519\n        /* \"#utility.yul\":16854:16861   */\n      dup8\n        /* \"#utility.yul\":16845:16851   */\n      dup3\n        /* \"#utility.yul\":16834:16843   */\n      dup9\n        /* \"#utility.yul\":16830:16852   */\n      add\n        /* \"#utility.yul\":16809:16862   */\n      tag_309\n      jump\t// in\n    tag_519:\n        /* \"#utility.yul\":16799:16862   */\n      swap3\n      pop\n        /* \"#utility.yul\":16754:16872   */\n      pop\n        /* \"#utility.yul\":16939:16941   */\n      0x60\n        /* \"#utility.yul\":16928:16937   */\n      dup6\n        /* \"#utility.yul\":16924:16942   */\n      add\n        /* \"#utility.yul\":16911:16943   */\n      calldataload\n        /* \"#utility.yul\":16970:16988   */\n      0xffffffffffffffff\n        /* \"#utility.yul\":16962:16968   */\n      dup2\n        /* \"#utility.yul\":16959:16989   */\n      gt\n        /* \"#utility.yul\":16956:17073   */\n      iszero\n      tag_520\n      jumpi\n        /* \"#utility.yul\":16992:17071   */\n      tag_521\n      tag_302\n      jump\t// in\n    tag_521:\n        /* \"#utility.yul\":16956:17073   */\n    tag_520:\n        /* \"#utility.yul\":17097:17175   */\n      tag_522\n        /* \"#utility.yul\":17167:17174   */\n      dup8\n        /* \"#utility.yul\":17158:17164   */\n      dup3\n        /* \"#utility.yul\":17147:17156   */\n      dup9\n        /* \"#utility.yul\":17143:17165   */\n      add\n        /* \"#utility.yul\":17097:17175   */\n      tag_322\n      jump\t// in\n    tag_522:\n        /* \"#utility.yul\":17087:17175   */\n      swap2\n      pop\n        /* \"#utility.yul\":16882:17185   */\n      pop\n        /* \"#utility.yul\":16037:17192   */\n      swap3\n      swap6\n      swap2\n      swap5\n      pop\n      swap3\n      pop\n      jump\t// out\n        /* \"#utility.yul\":17198:17316   */\n    tag_340:\n        /* \"#utility.yul\":17285:17309   */\n      tag_524\n        /* \"#utility.yul\":17303:17308   */\n      dup2\n        /* \"#utility.yul\":17285:17309   */\n      tag_304\n      jump\t// in\n    tag_524:\n        /* \"#utility.yul\":17280:17283   */\n      dup3\n        /* \"#utility.yul\":17273:17310   */\n      mstore\n        /* \"#utility.yul\":17198:17316   */\n      pop\n      pop\n      jump\t// out\n        /* \"#utility.yul\":17322:17544   */\n    tag_45:\n        /* \"#utility.yul\":17415:17419   */\n      0x00\n        /* \"#utility.yul\":17453:17455   */\n      0x20\n        /* \"#utility.yul\":17442:17451   */\n      dup3\n        /* \"#utility.yul\":17438:17456   */\n      add\n        /* \"#utility.yul\":17430:17456   */\n      swap1\n      pop\n        /* \"#utility.yul\":17466:17537   */\n      tag_526\n        /* \"#utility.yul\":17534:17535   */\n      0x00\n        /* \"#utility.yul\":17523:17532   */\n      dup4\n        /* \"#utility.yul\":17519:17536   */\n      add\n        /* \"#utility.yul\":17510:17516   */\n      dup5\n        /* \"#utility.yul\":17466:17537   */\n      tag_340\n      jump\t// in\n    tag_526:\n        /* \"#utility.yul\":17322:17544   */\n      swap3\n      swap2\n      pop\n      pop\n      jump\t// out\n        /* \"#utility.yul\":17550:18089   */\n    tag_48:\n        /* \"#utility.yul\":17634:17640   */\n      0x00\n        /* \"#utility.yul\":17683:17685   */\n      0x20\n        /* \"#utility.yul\":17671:17680   */\n      dup3\n        /* \"#utility.yul\":17662:17669   */\n      dup5\n        /* \"#utility.yul\":17658:17681   */\n      sub\n        /* \"#utility.yul\":17654:17686   */\n      slt\n        /* \"#utility.yul\":17651:17770   */\n      iszero\n      tag_528\n      jumpi\n        /* \"#utility.yul\":17689:17768   */\n      tag_529\n      tag_301\n      jump\t// in\n    tag_529:\n        /* \"#utility.yul\":17651:17770   */\n    tag_528:\n        /* \"#utility.yul\":17837:17838   */\n      0x00\n        /* \"#utility.yul\":17826:17835   */\n      dup3\n        /* \"#utility.yul\":17822:17839   */\n      add\n        /* \"#utility.yul\":17809:17840   */\n      calldataload\n        /* \"#utility.yul\":17867:17885   */\n      0xffffffffffffffff\n        /* \"#utility.yul\":17859:17865   */\n      dup2\n        /* \"#utility.yul\":17856:17886   */\n      gt\n        /* \"#utility.yul\":17853:17970   */\n      iszero\n      tag_530\n      jumpi\n        /* \"#utility.yul\":17889:17968   */\n      tag_531\n      tag_302\n      jump\t// in\n    tag_531:\n        /* \"#utility.yul\":17853:17970   */\n    tag_530:\n        /* \"#utility.yul\":17994:18072   */\n      tag_532\n        /* \"#utility.yul\":18064:18071   */\n      dup5\n        /* \"#utility.yul\":18055:18061   */\n      dup3\n        /* \"#utility.yul\":18044:18053   */\n      dup6\n        /* \"#utility.yul\":18040:18062   */\n      add\n        /* \"#utility.yul\":17994:18072   */\n      tag_322\n      jump\t// in\n    tag_532:\n        /* \"#utility.yul\":17984:18072   */\n      swap2\n      pop\n        /* \"#utility.yul\":17780:18082   */\n      pop\n        /* \"#utility.yul\":17550:18089   */\n      swap3\n      swap2\n      pop\n      pop\n      jump\t// out\n        /* \"#utility.yul\":18095:18209   */\n    tag_341:\n        /* \"#utility.yul\":18162:18168   */\n      0x00\n        /* \"#utility.yul\":18196:18201   */\n      dup2\n        /* \"#utility.yul\":18190:18202   */\n      mload\n        /* \"#utility.yul\":18180:18202   */\n      swap1\n      pop\n        /* \"#utility.yul\":18095:18209   */\n      swap2\n      swap1\n      pop\n      jump\t// out\n        /* \"#utility.yul\":18215:18399   */\n    tag_342:\n        /* \"#utility.yul\":18314:18325   */\n      0x00\n        /* \"#utility.yul\":18348:18354   */\n      dup3\n        /* \"#utility.yul\":18343:18346   */\n      dup3\n        /* \"#utility.yul\":18336:18355   */\n      mstore\n        /* \"#utility.yul\":18388:18392   */\n      0x20\n        /* \"#utility.yul\":18383:18386   */\n      dup3\n        /* \"#utility.yul\":18379:18393   */\n      add\n        /* \"#utility.yul\":18364:18393   */\n      swap1\n      pop\n        /* \"#utility.yul\":18215:18399   */\n      swap3\n      swap2\n      pop\n      pop\n      jump\t// out\n        /* \"#utility.yul\":18405:18537   */\n    tag_343:\n        /* \"#utility.yul\":18472:18476   */\n      0x00\n        /* \"#utility.yul\":18495:18498   */\n      dup2\n        /* \"#utility.yul\":18487:18498   */\n      swap1\n      pop\n        /* \"#utility.yul\":18525:18529   */\n      0x20\n        /* \"#utility.yul\":18520:18523   */\n      dup3\n        /* \"#utility.yul\":18516:18530   */\n      add\n        /* \"#utility.yul\":18508:18530   */\n      swap1\n      pop\n        /* \"#utility.yul\":18405:18537   */\n      swap2\n      swap1\n      pop\n      jump\t// out\n        /* \"#utility.yul\":18543:18651   */\n    tag_344:\n        /* \"#utility.yul\":18620:18644   */\n      tag_537\n        /* \"#utility.yul\":18638:18643   */\n      dup2\n        /* \"#utility.yul\":18620:18644   */\n      tag_304\n      jump\t// in\n    tag_537:\n        /* \"#utility.yul\":18615:18618   */\n      dup3\n        /* \"#utility.yul\":18608:18645   */\n      mstore\n        /* \"#utility.yul\":18543:18651   */\n      pop\n      pop\n      jump\t// out\n        /* \"#utility.yul\":18657:18836   */\n    tag_345:\n        /* \"#utility.yul\":18726:18736   */\n      0x00\n        /* \"#utility.yul\":18747:18793   */\n      tag_539\n        /* \"#utility.yul\":18789:18792   */\n      dup4\n        /* \"#utility.yul\":18781:18787   */\n      dup4\n        /* \"#utility.yul\":18747:18793   */\n      tag_344\n      jump\t// in\n    tag_539:\n        /* \"#utility.yul\":18825:18829   */\n      0x20\n        /* \"#utility.yul\":18820:18823   */\n      dup4\n        /* \"#utility.yul\":18816:18830   */\n      add\n        /* \"#utility.yul\":18802:18830   */\n      swap1\n      pop\n        /* \"#utility.yul\":18657:18836   */\n      swap3\n      swap2\n      pop\n      pop\n      jump\t// out\n        /* \"#utility.yul\":18842:18955   */\n    tag_346:\n        /* \"#utility.yul\":18912:18916   */\n      0x00\n        /* \"#utility.yul\":18944:18948   */\n      0x20\n        /* \"#utility.yul\":18939:18942   */\n      dup3\n        /* \"#utility.yul\":18935:18949   */\n      add\n        /* \"#utility.yul\":18927:18949   */\n      swap1\n      pop\n        /* \"#utility.yul\":18842:18955   */\n      swap2\n      swap1\n      pop\n      jump\t// out\n        /* \"#utility.yul\":18991:19723   */\n    tag_347:\n        /* \"#utility.yul\":19110:19113   */\n      0x00\n        /* \"#utility.yul\":19139:19193   */\n      tag_542\n        /* \"#utility.yul\":19187:19192   */\n      dup3\n        /* \"#utility.yul\":19139:19193   */\n      tag_341\n      jump\t// in\n    tag_542:\n        /* \"#utility.yul\":19209:19295   */\n      tag_543\n        /* \"#utility.yul\":19288:19294   */\n      dup2\n        /* \"#utility.yul\":19283:19286   */\n      dup6\n        /* \"#utility.yul\":19209:19295   */\n      tag_342\n      jump\t// in\n    tag_543:\n        /* \"#utility.yul\":19202:19295   */\n      swap4\n      pop\n        /* \"#utility.yul\":19319:19375   */\n      tag_544\n        /* \"#utility.yul\":19369:19374   */\n      dup4\n        /* \"#utility.yul\":19319:19375   */\n      tag_343\n      jump\t// in\n    tag_544:\n        /* \"#utility.yul\":19398:19405   */\n      dup1\n        /* \"#utility.yul\":19429:19430   */\n      0x00\n        /* \"#utility.yul\":19414:19698   */\n    tag_545:\n        /* \"#utility.yul\":19439:19445   */\n      dup4\n        /* \"#utility.yul\":19436:19437   */\n      dup2\n        /* \"#utility.yul\":19433:19446   */\n      lt\n        /* \"#utility.yul\":19414:19698   */\n      iszero\n      tag_547\n      jumpi\n        /* \"#utility.yul\":19515:19521   */\n      dup2\n        /* \"#utility.yul\":19509:19522   */\n      mload\n        /* \"#utility.yul\":19542:19605   */\n      tag_548\n        /* \"#utility.yul\":19601:19604   */\n      dup9\n        /* \"#utility.yul\":19586:19599   */\n      dup3\n        /* \"#utility.yul\":19542:19605   */\n      tag_345\n      jump\t// in\n    tag_548:\n        /* \"#utility.yul\":19535:19605   */\n      swap8\n      pop\n        /* \"#utility.yul\":19628:19688   */\n      tag_549\n        /* \"#utility.yul\":19681:19687   */\n      dup4\n        /* \"#utility.yul\":19628:19688   */\n      tag_346\n      jump\t// in\n    tag_549:\n        /* \"#utility.yul\":19618:19688   */\n      swap3\n      pop\n        /* \"#utility.yul\":19474:19698   */\n      pop\n        /* \"#utility.yul\":19461:19462   */\n      0x01\n        /* \"#utility.yul\":19458:19459   */\n      dup2\n        /* \"#utility.yul\":19454:19463   */\n      add\n        /* \"#utility.yul\":19449:19463   */\n      swap1\n      pop\n        /* \"#utility.yul\":19414:19698   */\n      jump(tag_545)\n    tag_547:\n        /* \"#utility.yul\":19418:19432   */\n      pop\n        /* \"#utility.yul\":19714:19717   */\n      dup6\n        /* \"#utility.yul\":19707:19717   */\n      swap4\n      pop\n        /* \"#utility.yul\":19115:19723   */\n      pop\n      pop\n      pop\n        /* \"#utility.yul\":18991:19723   */\n      swap3\n      swap2\n      pop\n      pop\n      jump\t// out\n        /* \"#utility.yul\":19729:20664   */\n    tag_51:\n        /* \"#utility.yul\":20048:20052   */\n      0x00\n        /* \"#utility.yul\":20086:20088   */\n      0x60\n        /* \"#utility.yul\":20075:20084   */\n      dup3\n        /* \"#utility.yul\":20071:20089   */\n      add\n        /* \"#utility.yul\":20063:20089   */\n      swap1\n      pop\n        /* \"#utility.yul\":20135:20144   */\n      dup2\n        /* \"#utility.yul\":20129:20133   */\n      dup2\n        /* \"#utility.yul\":20125:20145   */\n      sub\n        /* \"#utility.yul\":20121:20122   */\n      0x00\n        /* \"#utility.yul\":20110:20119   */\n      dup4\n        /* \"#utility.yul\":20106:20123   */\n      add\n        /* \"#utility.yul\":20099:20146   */\n      mstore\n        /* \"#utility.yul\":20163:20271   */\n      tag_551\n        /* \"#utility.yul\":20266:20270   */\n      dup2\n        /* \"#utility.yul\":20257:20263   */\n      dup7\n        /* \"#utility.yul\":20163:20271   */\n      tag_347\n      jump\t// in\n    tag_551:\n        /* \"#utility.yul\":20155:20271   */\n      swap1\n      pop\n        /* \"#utility.yul\":20318:20327   */\n      dup2\n        /* \"#utility.yul\":20312:20316   */\n      dup2\n        /* \"#utility.yul\":20308:20328   */\n      sub\n        /* \"#utility.yul\":20303:20305   */\n      0x20\n        /* \"#utility.yul\":20292:20301   */\n      dup4\n        /* \"#utility.yul\":20288:20306   */\n      add\n        /* \"#utility.yul\":20281:20329   */\n      mstore\n        /* \"#utility.yul\":20346:20474   */\n      tag_552\n        /* \"#utility.yul\":20469:20473   */\n      dup2\n        /* \"#utility.yul\":20460:20466   */\n      dup6\n        /* \"#utility.yul\":20346:20474   */\n      tag_339\n      jump\t// in\n    tag_552:\n        /* \"#utility.yul\":20338:20474   */\n      swap1\n      pop\n        /* \"#utility.yul\":20521:20530   */\n      dup2\n        /* \"#utility.yul\":20515:20519   */\n      dup2\n        /* \"#utility.yul\":20511:20531   */\n      sub\n        /* \"#utility.yul\":20506:20508   */\n      0x40\n        /* \"#utility.yul\":20495:20504   */\n      dup4\n        /* \"#utility.yul\":20491:20509   */\n      add\n        /* \"#utility.yul\":20484:20532   */\n      mstore\n        /* \"#utility.yul\":20549:20657   */\n      tag_553\n        /* \"#utility.yul\":20652:20656   */\n      dup2\n        /* \"#utility.yul\":20643:20649   */\n      dup5\n        /* \"#utility.yul\":20549:20657   */\n      tag_329\n      jump\t// in\n    tag_553:\n        /* \"#utility.yul\":20541:20657   */\n      swap1\n      pop\n        /* \"#utility.yul\":19729:20664   */\n      swap5\n      swap4\n      pop\n      pop\n      pop\n      pop\n      jump\t// out\n        /* \"#utility.yul\":20670:20839   */\n    tag_348:\n        /* \"#utility.yul\":20754:20765   */\n      0x00\n        /* \"#utility.yul\":20788:20794   */\n      dup3\n        /* \"#utility.yul\":20783:20786   */\n      dup3\n        /* \"#utility.yul\":20776:20795   */\n      mstore\n        /* \"#utility.yul\":20828:20832   */\n      0x20\n        /* \"#utility.yul\":20823:20826   */\n      dup3\n        /* \"#utility.yul\":20819:20833   */\n      add\n        /* \"#utility.yul\":20804:20833   */\n      swap1\n      pop\n        /* \"#utility.yul\":20670:20839   */\n      swap3\n      swap2\n      pop\n      pop\n      jump\t// out\n        /* \"#utility.yul\":20845:21209   */\n    tag_349:\n        /* \"#utility.yul\":20933:20936   */\n      0x00\n        /* \"#utility.yul\":20961:21000   */\n      tag_556\n        /* \"#utility.yul\":20994:20999   */\n      dup3\n        /* \"#utility.yul\":20961:21000   */\n      tag_333\n      jump\t// in\n    tag_556:\n        /* \"#utility.yul\":21016:21087   */\n      tag_557\n        /* \"#utility.yul\":21080:21086   */\n      dup2\n        /* \"#utility.yul\":21075:21078   */\n      dup6\n        /* \"#utility.yul\":21016:21087   */\n      tag_348\n      jump\t// in\n    tag_557:\n        /* \"#utility.yul\":21009:21087   */\n      swap4\n      pop\n        /* \"#utility.yul\":21096:21148   */\n      tag_558\n        /* \"#utility.yul\":21141:21147   */\n      dup2\n        /* \"#utility.yul\":21136:21139   */\n      dup6\n        /* \"#utility.yul\":21129:21133   */\n      0x20\n        /* \"#utility.yul\":21122:21127   */\n      dup7\n        /* \"#utility.yul\":21118:21134   */\n      add\n        /* \"#utility.yul\":21096:21148   */\n      tag_335\n      jump\t// in\n    tag_558:\n        /* \"#utility.yul\":21173:21202   */\n      tag_559\n        /* \"#utility.yul\":21195:21201   */\n      dup2\n        /* \"#utility.yul\":21173:21202   */\n      tag_312\n      jump\t// in\n    tag_559:\n        /* \"#utility.yul\":21168:21171   */\n      dup5\n        /* \"#utility.yul\":21164:21203   */\n      add\n        /* \"#utility.yul\":21157:21203   */\n      swap2\n      pop\n        /* \"#utility.yul\":20937:21209   */\n      pop\n        /* \"#utility.yul\":20845:21209   */\n      swap3\n      swap2\n      pop\n      pop\n      jump\t// out\n        /* \"#utility.yul\":21215:21528   */\n    tag_56:\n        /* \"#utility.yul\":21328:21332   */\n      0x00\n        /* \"#utility.yul\":21366:21368   */\n      0x20\n        /* \"#utility.yul\":21355:21364   */\n      dup3\n        /* \"#utility.yul\":21351:21369   */\n      add\n        /* \"#utility.yul\":21343:21369   */\n      swap1\n      pop\n        /* \"#utility.yul\":21415:21424   */\n      dup2\n        /* \"#utility.yul\":21409:21413   */\n      dup2\n        /* \"#utility.yul\":21405:21425   */\n      sub\n        /* \"#utility.yul\":21401:21402   */\n      0x00\n        /* \"#utility.yul\":21390:21399   */\n      dup4\n        /* \"#utility.yul\":21386:21403   */\n      add\n        /* \"#utility.yul\":21379:21426   */\n      mstore\n        /* \"#utility.yul\":21443:21521   */\n      tag_561\n        /* \"#utility.yul\":21516:21520   */\n      dup2\n        /* \"#utility.yul\":21507:21513   */\n      dup5\n        /* \"#utility.yul\":21443:21521   */\n      tag_349\n      jump\t// in\n    tag_561:\n        /* \"#utility.yul\":21435:21521   */\n      swap1\n      pop\n        /* \"#utility.yul\":21215:21528   */\n      swap3\n      swap2\n      pop\n      pop\n      jump\t// out\n        /* \"#utility.yul\":21534:21863   */\n    tag_59:\n        /* \"#utility.yul\":21593:21599   */\n      0x00\n        /* \"#utility.yul\":21642:21644   */\n      0x20\n        /* \"#utility.yul\":21630:21639   */\n      dup3\n        /* \"#utility.yul\":21621:21628   */\n      dup5\n        /* \"#utility.yul\":21617:21640   */\n      sub\n        /* \"#utility.yul\":21613:21645   */\n      slt\n        /* \"#utility.yul\":21610:21729   */\n      iszero\n      tag_563\n      jumpi\n        /* \"#utility.yul\":21648:21727   */\n      tag_564\n      tag_301\n      jump\t// in\n    tag_564:\n        /* \"#utility.yul\":21610:21729   */\n    tag_563:\n        /* \"#utility.yul\":21768:21769   */\n      0x00\n        /* \"#utility.yul\":21793:21846   */\n      tag_565\n        /* \"#utility.yul\":21838:21845   */\n      dup5\n        /* \"#utility.yul\":21829:21835   */\n      dup3\n        /* \"#utility.yul\":21818:21827   */\n      dup6\n        /* \"#utility.yul\":21814:21836   */\n      add\n        /* \"#utility.yul\":21793:21846   */\n      tag_306\n      jump\t// in\n    tag_565:\n        /* \"#utility.yul\":21783:21846   */\n      swap2\n      pop\n        /* \"#utility.yul\":21739:21856   */\n      pop\n        /* \"#utility.yul\":21534:21863   */\n      swap3\n      swap2\n      pop\n      pop\n      jump\t// out\n        /* \"#utility.yul\":21869:22733   */\n    tag_63:\n        /* \"#utility.yul\":21972:21978   */\n      0x00\n        /* \"#utility.yul\":21980:21986   */\n      dup1\n        /* \"#utility.yul\":22029:22031   */\n      0x40\n        /* \"#utility.yul\":22017:22026   */\n      dup4\n        /* \"#utility.yul\":22008:22015   */\n      dup6\n        /* \"#utility.yul\":22004:22027   */\n      sub\n        /* \"#utility.yul\":22000:22032   */\n      slt\n        /* \"#utility.yul\":21997:22116   */\n      iszero\n      tag_567\n      jumpi\n        /* \"#utility.yul\":22035:22114   */\n      tag_568\n      tag_301\n      jump\t// in\n    tag_568:\n        /* \"#utility.yul\":21997:22116   */\n    tag_567:\n        /* \"#utility.yul\":22183:22184   */\n      0x00\n        /* \"#utility.yul\":22172:22181   */\n      dup4\n        /* \"#utility.yul\":22168:22185   */\n      add\n        /* \"#utility.yul\":22155:22186   */\n      calldataload\n        /* \"#utility.yul\":22213:22231   */\n      0xffffffffffffffff\n        /* \"#utility.yul\":22205:22211   */\n      dup2\n        /* \"#utility.yul\":22202:22232   */\n      gt\n        /* \"#utility.yul\":22199:22316   */\n      iszero\n      tag_569\n      jumpi\n        /* \"#utility.yul\":22235:22314   */\n      tag_570\n      tag_302\n      jump\t// in\n    tag_570:\n        /* \"#utility.yul\":22199:22316   */\n    tag_569:\n        /* \"#utility.yul\":22340:22403   */\n      tag_571\n        /* \"#utility.yul\":22395:22402   */\n      dup6\n        /* \"#utility.yul\":22386:22392   */\n      dup3\n        /* \"#utility.yul\":22375:22384   */\n      dup7\n        /* \"#utility.yul\":22371:22393   */\n      add\n        /* \"#utility.yul\":22340:22403   */\n      tag_318\n      jump\t// in\n    tag_571:\n        /* \"#utility.yul\":22330:22403   */\n      swap3\n      pop\n        /* \"#utility.yul\":22126:22413   */\n      pop\n        /* \"#utility.yul\":22480:22482   */\n      0x20\n        /* \"#utility.yul\":22469:22478   */\n      dup4\n        /* \"#utility.yul\":22465:22483   */\n      add\n        /* \"#utility.yul\":22452:22484   */\n      calldataload\n        /* \"#utility.yul\":22511:22529   */\n      0xffffffffffffffff\n        /* \"#utility.yul\":22503:22509   */\n      dup2\n        /* \"#utility.yul\":22500:22530   */\n      gt\n        /* \"#utility.yul\":22497:22614   */\n      iszero\n      tag_572\n      jumpi\n        /* \"#utility.yul\":22533:22612   */\n      tag_573\n      tag_302\n      jump\t// in\n    tag_573:\n        /* \"#utility.yul\":22497:22614   */\n    tag_572:\n        /* \"#utility.yul\":22638:22716   */\n      tag_574\n        /* \"#utility.yul\":22708:22715   */\n      dup6\n        /* \"#utility.yul\":22699:22705   */\n      dup3\n        /* \"#utility.yul\":22688:22697   */\n      dup7\n        /* \"#utility.yul\":22684:22706   */\n      add\n        /* \"#utility.yul\":22638:22716   */\n      tag_322\n      jump\t// in\n    tag_574:\n        /* \"#utility.yul\":22628:22716   */\n      swap2\n      pop\n        /* \"#utility.yul\":22423:22726   */\n      pop\n        /* \"#utility.yul\":21869:22733   */\n      swap3\n      pop\n      swap3\n      swap1\n      pop\n      jump\t// out\n        /* \"#utility.yul\":22739:24512   */\n    tag_67:\n        /* \"#utility.yul\":22897:22903   */\n      0x00\n        /* \"#utility.yul\":22905:22911   */\n      dup1\n        /* \"#utility.yul\":22913:22919   */\n      0x00\n        /* \"#utility.yul\":22921:22927   */\n      dup1\n        /* \"#utility.yul\":22929:22935   */\n      0x00\n        /* \"#utility.yul\":22937:22943   */\n      dup1\n        /* \"#utility.yul\":22945:22951   */\n      0x00\n        /* \"#utility.yul\":22994:22997   */\n      0xe0\n        /* \"#utility.yul\":22982:22991   */\n      dup9\n        /* \"#utility.yul\":22973:22980   */\n      dup11\n        /* \"#utility.yul\":22969:22992   */\n      sub\n        /* \"#utility.yul\":22965:22998   */\n      slt\n        /* \"#utility.yul\":22962:23082   */\n      iszero\n      tag_576\n      jumpi\n        /* \"#utility.yul\":23001:23080   */\n      tag_577\n      tag_301\n      jump\t// in\n    tag_577:\n        /* \"#utility.yul\":22962:23082   */\n    tag_576:\n        /* \"#utility.yul\":23121:23122   */\n      0x00\n        /* \"#utility.yul\":23146:23199   */\n      tag_578\n        /* \"#utility.yul\":23191:23198   */\n      dup11\n        /* \"#utility.yul\":23182:23188   */\n      dup3\n        /* \"#utility.yul\":23171:23180   */\n      dup12\n        /* \"#utility.yul\":23167:23189   */\n      add\n        /* \"#utility.yul\":23146:23199   */\n      tag_309\n      jump\t// in\n    tag_578:\n        /* \"#utility.yul\":23136:23199   */\n      swap8\n      pop\n        /* \"#utility.yul\":23092:23209   */\n      pop\n        /* \"#utility.yul\":23248:23250   */\n      0x20\n        /* \"#utility.yul\":23274:23327   */\n      tag_579\n        /* \"#utility.yul\":23319:23326   */\n      dup11\n        /* \"#utility.yul\":23310:23316   */\n      dup3\n        /* \"#utility.yul\":23299:23308   */\n      dup12\n        /* \"#utility.yul\":23295:23317   */\n      add\n        /* \"#utility.yul\":23274:23327   */\n      tag_309\n      jump\t// in\n    tag_579:\n        /* \"#utility.yul\":23264:23327   */\n      swap7\n      pop\n        /* \"#utility.yul\":23219:23337   */\n      pop\n        /* \"#utility.yul\":23376:23378   */\n      0x40\n        /* \"#utility.yul\":23402:23455   */\n      tag_580\n        /* \"#utility.yul\":23447:23454   */\n      dup11\n        /* \"#utility.yul\":23438:23444   */\n      dup3\n        /* \"#utility.yul\":23427:23436   */\n      dup12\n        /* \"#utility.yul\":23423:23445   */\n      add\n        /* \"#utility.yul\":23402:23455   */\n      tag_309\n      jump\t// in\n    tag_580:\n        /* \"#utility.yul\":23392:23455   */\n      swap6\n      pop\n        /* \"#utility.yul\":23347:23465   */\n      pop\n        /* \"#utility.yul\":23504:23506   */\n      0x60\n        /* \"#utility.yul\":23530:23583   */\n      tag_581\n        /* \"#utility.yul\":23575:23582   */\n      dup11\n        /* \"#utility.yul\":23566:23572   */\n      dup3\n        /* \"#utility.yul\":23555:23564   */\n      dup12\n        /* \"#utility.yul\":23551:23573   */\n      add\n        /* \"#utility.yul\":23530:23583   */\n      tag_309\n      jump\t// in\n    tag_581:\n        /* \"#utility.yul\":23520:23583   */\n      swap5\n      pop\n        /* \"#utility.yul\":23475:23593   */\n      pop\n        /* \"#utility.yul\":23660:23663   */\n      0x80\n        /* \"#utility.yul\":23649:23658   */\n      dup9\n        /* \"#utility.yul\":23645:23664   */\n      add\n        /* \"#utility.yul\":23632:23665   */\n      calldataload\n        /* \"#utility.yul\":23692:23710   */\n      0xffffffffffffffff\n        /* \"#utility.yul\":23684:23690   */\n      dup2\n        /* \"#utility.yul\":23681:23711   */\n      gt\n        /* \"#utility.yul\":23678:23795   */\n      iszero\n      tag_582\n      jumpi\n        /* \"#utility.yul\":23714:23793   */\n      tag_583\n      tag_302\n      jump\t// in\n    tag_583:\n        /* \"#utility.yul\":23678:23795   */\n    tag_582:\n        /* \"#utility.yul\":23819:23882   */\n      tag_584\n        /* \"#utility.yul\":23874:23881   */\n      dup11\n        /* \"#utility.yul\":23865:23871   */\n      dup3\n        /* \"#utility.yul\":23854:23863   */\n      dup12\n        /* \"#utility.yul\":23850:23872   */\n      add\n        /* \"#utility.yul\":23819:23882   */\n      tag_318\n      jump\t// in\n    tag_584:\n        /* \"#utility.yul\":23809:23882   */\n      swap4\n      pop\n        /* \"#utility.yul\":23603:23892   */\n      pop\n        /* \"#utility.yul\":23959:23962   */\n      0xa0\n        /* \"#utility.yul\":23948:23957   */\n      dup9\n        /* \"#utility.yul\":23944:23963   */\n      add\n        /* \"#utility.yul\":23931:23964   */\n      calldataload\n        /* \"#utility.yul\":23991:24009   */\n      0xffffffffffffffff\n        /* \"#utility.yul\":23983:23989   */\n      dup2\n        /* \"#utility.yul\":23980:24010   */\n      gt\n        /* \"#utility.yul\":23977:24094   */\n      iszero\n      tag_585\n      jumpi\n        /* \"#utility.yul\":24013:24092   */\n      tag_586\n      tag_302\n      jump\t// in\n    tag_586:\n        /* \"#utility.yul\":23977:24094   */\n    tag_585:\n        /* \"#utility.yul\":24118:24181   */\n      tag_587\n        /* \"#utility.yul\":24173:24180   */\n      dup11\n        /* \"#utility.yul\":24164:24170   */\n      dup3\n        /* \"#utility.yul\":24153:24162   */\n      dup12\n        /* \"#utility.yul\":24149:24171   */\n      add\n        /* \"#utility.yul\":24118:24181   */\n      tag_318\n      jump\t// in\n    tag_587:\n        /* \"#utility.yul\":24108:24181   */\n      swap3\n      pop\n        /* \"#utility.yul\":23902:24191   */\n      pop\n        /* \"#utility.yul\":24258:24261   */\n      0xc0\n        /* \"#utility.yul\":24247:24256   */\n      dup9\n        /* \"#utility.yul\":24243:24262   */\n      add\n        /* \"#utility.yul\":24230:24263   */\n      calldataload\n        /* \"#utility.yul\":24290:24308   */\n      0xffffffffffffffff\n        /* \"#utility.yul\":24282:24288   */\n      dup2\n        /* \"#utility.yul\":24279:24309   */\n      gt\n        /* \"#utility.yul\":24276:24393   */\n      iszero\n      tag_588\n      jumpi\n        /* \"#utility.yul\":24312:24391   */\n      tag_589\n      tag_302\n      jump\t// in\n    tag_589:\n        /* \"#utility.yul\":24276:24393   */\n    tag_588:\n        /* \"#utility.yul\":24417:24495   */\n      tag_590\n        /* \"#utility.yul\":24487:24494   */\n      dup11\n        /* \"#utility.yul\":24478:24484   */\n      dup3\n        /* \"#utility.yul\":24467:24476   */\n      dup12\n        /* \"#utility.yul\":24463:24485   */\n      add\n        /* \"#utility.yul\":24417:24495   */\n      tag_322\n      jump\t// in\n    tag_590:\n        /* \"#utility.yul\":24407:24495   */\n      swap2\n      pop\n        /* \"#utility.yul\":24201:24505   */\n      pop\n        /* \"#utility.yul\":22739:24512   */\n      swap3\n      swap6\n      swap9\n      swap2\n      swap5\n      swap8\n      pop\n      swap3\n      swap6\n      pop\n      jump\t// out\n        /* \"#utility.yul\":24518:24698   */\n    tag_77:\n        /* \"#utility.yul\":24566:24643   */\n      0x4e487b7100000000000000000000000000000000000000000000000000000000\n        /* \"#utility.yul\":24563:24564   */\n      0x00\n        /* \"#utility.yul\":24556:24644   */\n      mstore\n        /* \"#utility.yul\":24663:24667   */\n      0x21\n        /* \"#utility.yul\":24660:24661   */\n      0x04\n        /* \"#utility.yul\":24653:24668   */\n      mstore\n        /* \"#utility.yul\":24687:24691   */\n      0x24\n        /* \"#utility.yul\":24684:24685   */\n      0x00\n        /* \"#utility.yul\":24677:24692   */\n      revert\n        /* \"#utility.yul\":24704:24884   */\n    tag_350:\n        /* \"#utility.yul\":24752:24829   */\n      0x4e487b7100000000000000000000000000000000000000000000000000000000\n        /* \"#utility.yul\":24749:24750   */\n      0x00\n        /* \"#utility.yul\":24742:24830   */\n      mstore\n        /* \"#utility.yul\":24849:24853   */\n      0x11\n        /* \"#utility.yul\":24846:24847   */\n      0x04\n        /* \"#utility.yul\":24839:24854   */\n      mstore\n        /* \"#utility.yul\":24873:24877   */\n      0x24\n        /* \"#utility.yul\":24870:24871   */\n      0x00\n        /* \"#utility.yul\":24863:24878   */\n      revert\n        /* \"#utility.yul\":24890:25081   */\n    tag_87:\n        /* \"#utility.yul\":24930:24934   */\n      0x00\n        /* \"#utility.yul\":24950:24970   */\n      tag_594\n        /* \"#utility.yul\":24968:24969   */\n      dup3\n        /* \"#utility.yul\":24950:24970   */\n      tag_307\n      jump\t// in\n    tag_594:\n        /* \"#utility.yul\":24945:24970   */\n      swap2\n      pop\n        /* \"#utility.yul\":24984:25004   */\n      tag_595\n        /* \"#utility.yul\":25002:25003   */\n      dup4\n        /* \"#utility.yul\":24984:25004   */\n      tag_307\n      jump\t// in\n    tag_595:\n        /* \"#utility.yul\":24979:25004   */\n      swap3\n      pop\n        /* \"#utility.yul\":25023:25024   */\n      dup3\n        /* \"#utility.yul\":25020:25021   */\n      dup3\n        /* \"#utility.yul\":25017:25025   */\n      lt\n        /* \"#utility.yul\":25014:25048   */\n      iszero\n      tag_596\n      jumpi\n        /* \"#utility.yul\":25028:25046   */\n      tag_597\n      tag_350\n      jump\t// in\n    tag_597:\n        /* \"#utility.yul\":25014:25048   */\n    tag_596:\n        /* \"#utility.yul\":25073:25074   */\n      dup3\n        /* \"#utility.yul\":25070:25071   */\n      dup3\n        /* \"#utility.yul\":25066:25075   */\n      sub\n        /* \"#utility.yul\":25058:25075   */\n      swap1\n      pop\n        /* \"#utility.yul\":24890:25081   */\n      swap3\n      swap2\n      pop\n      pop\n      jump\t// out\n        /* \"#utility.yul\":25087:25267   */\n    tag_90:\n        /* \"#utility.yul\":25135:25212   */\n      0x4e487b7100000000000000000000000000000000000000000000000000000000\n        /* \"#utility.yul\":25132:25133   */\n      0x00\n        /* \"#utility.yul\":25125:25213   */\n      mstore\n        /* \"#utility.yul\":25232:25236   */\n      0x32\n        /* \"#utility.yul\":25229:25230   */\n      0x04\n        /* \"#utility.yul\":25222:25237   */\n      mstore\n        /* \"#utility.yul\":25256:25260   */\n      0x24\n        /* \"#utility.yul\":25253:25254   */\n      0x00\n        /* \"#utility.yul\":25246:25261   */\n      revert\n        /* \"#utility.yul\":25273:25453   */\n    tag_351:\n        /* \"#utility.yul\":25321:25398   */\n      0x4e487b7100000000000000000000000000000000000000000000000000000000\n        /* \"#utility.yul\":25318:25319   */\n      0x00\n        /* \"#utility.yul\":25311:25399   */\n      mstore\n        /* \"#utility.yul\":25418:25422   */\n      0x22\n        /* \"#utility.yul\":25415:25416   */\n      0x04\n        /* \"#utility.yul\":25408:25423   */\n      mstore\n        /* \"#utility.yul\":25442:25446   */\n      0x24\n        /* \"#utility.yul\":25439:25440   */\n      0x00\n        /* \"#utility.yul\":25432:25447   */\n      revert\n        /* \"#utility.yul\":25459:25779   */\n    tag_96:\n        /* \"#utility.yul\":25503:25509   */\n      0x00\n        /* \"#utility.yul\":25540:25541   */\n      0x02\n        /* \"#utility.yul\":25534:25538   */\n      dup3\n        /* \"#utility.yul\":25530:25542   */\n      div\n        /* \"#utility.yul\":25520:25542   */\n      swap1\n      pop\n        /* \"#utility.yul\":25587:25588   */\n      0x01\n        /* \"#utility.yul\":25581:25585   */\n      dup3\n        /* \"#utility.yul\":25577:25589   */\n      and\n        /* \"#utility.yul\":25608:25626   */\n      dup1\n        /* \"#utility.yul\":25598:25679   */\n      tag_601\n      jumpi\n        /* \"#utility.yul\":25664:25668   */\n      0x7f\n        /* \"#utility.yul\":25656:25662   */\n      dup3\n        /* \"#utility.yul\":25652:25669   */\n      and\n        /* \"#utility.yul\":25642:25669   */\n      swap2\n      pop\n        /* \"#utility.yul\":25598:25679   */\n    tag_601:\n        /* \"#utility.yul\":25726:25728   */\n      0x20\n        /* \"#utility.yul\":25718:25724   */\n      dup3\n        /* \"#utility.yul\":25715:25729   */\n      lt\n        /* \"#utility.yul\":25695:25713   */\n      dup2\n        /* \"#utility.yul\":25692:25730   */\n      sub\n        /* \"#utility.yul\":25689:25773   */\n      tag_602\n      jumpi\n        /* \"#utility.yul\":25745:25763   */\n      tag_603\n      tag_351\n      jump\t// in\n    tag_603:\n        /* \"#utility.yul\":25689:25773   */\n    tag_602:\n        /* \"#utility.yul\":25510:25779   */\n      pop\n        /* \"#utility.yul\":25459:25779   */\n      swap2\n      swap1\n      pop\n      jump\t// out\n        /* \"#utility.yul\":25785:25965   */\n    tag_103:\n        /* \"#utility.yul\":25833:25910   */\n      0x4e487b7100000000000000000000000000000000000000000000000000000000\n        /* \"#utility.yul\":25830:25831   */\n      0x00\n        /* \"#utility.yul\":25823:25911   */\n      mstore\n        /* \"#utility.yul\":25930:25934   */\n      0x31\n        /* \"#utility.yul\":25927:25928   */\n      0x04\n        /* \"#utility.yul\":25920:25935   */\n      mstore\n        /* \"#utility.yul\":25954:25958   */\n      0x24\n        /* \"#utility.yul\":25951:25952   */\n      0x00\n        /* \"#utility.yul\":25944:25959   */\n      revert\n        /* \"#utility.yul\":25971:26204   */\n    tag_165:\n        /* \"#utility.yul\":26010:26013   */\n      0x00\n        /* \"#utility.yul\":26033:26057   */\n      tag_606\n        /* \"#utility.yul\":26051:26056   */\n      dup3\n        /* \"#utility.yul\":26033:26057   */\n      tag_307\n      jump\t// in\n    tag_606:\n        /* \"#utility.yul\":26024:26057   */\n      swap2\n      pop\n        /* \"#utility.yul\":26079:26145   */\n      0xffffffffffffffffffffffffffffffffffffffffffffffffffffffffffffffff\n        /* \"#utility.yul\":26072:26077   */\n      dup3\n        /* \"#utility.yul\":26069:26146   */\n      sub\n        /* \"#utility.yul\":26066:26169   */\n      tag_607\n      jumpi\n        /* \"#utility.yul\":26149:26167   */\n      tag_608\n      tag_350\n      jump\t// in\n    tag_608:\n        /* \"#utility.yul\":26066:26169   */\n    tag_607:\n        /* \"#utility.yul\":26196:26197   */\n      0x01\n        /* \"#utility.yul\":26189:26194   */\n      dup3\n        /* \"#utility.yul\":26185:26198   */\n      add\n        /* \"#utility.yul\":26178:26198   */\n      swap1\n      pop\n        /* \"#utility.yul\":25971:26204   */\n      swap2\n      swap1\n      pop\n      jump\t// out\n\n    auxdata: 0xa2646970667358221220f1d2c20605b31301bcfc7692a78e80293b82fe9e9752f80568f56114982aa01064736f6c634300080d0033\n}\n","bytecode":{"linkReferences":{},"object":"60806040523480156200001157600080fd5b50604051620029f4380380620029f48339818101604052810190620000379190620004d6565b81600160006101000a81548173ffffffffffffffffffffffffffffffffffffffff021916908373ffffffffffffffffffffffffffffffffffffffff16021790555082600290805190602001906200009092919062000224565b50600360046000600160009054906101000a900473ffffffffffffffffffffffffffffffffffffffff1673ffffffffffffffffffffffffffffffffffffffff1673ffffffffffffffffffffffffffffffffffffffff16815260200190815260200160002060006101000a81548160ff0219169083600381111562000119576200011862000570565b5b02179055506003600160009054906101000a900473ffffffffffffffffffffffffffffffffffffffff169080600181540180825580915050600190039060005260206000200160009091909190916101000a81548173ffffffffffffffffffffffffffffffffffffffff021916908373ffffffffffffffffffffffffffffffffffffffff1602179055508060056000600160009054906101000a900473ffffffffffffffffffffffffffffffffffffffff1673ffffffffffffffffffffffffffffffffffffffff1673ffffffffffffffffffffffffffffffffffffffff16815260200190815260200160002090805190602001906200021a92919062000224565b5050505062000603565b8280546200023290620005ce565b90600052602060002090601f016020900481019282620002565760008555620002a2565b82601f106200027157805160ff1916838001178555620002a2565b82800160010185558215620002a2579182015b82811115620002a157825182559160200191906001019062000284565b5b509050620002b19190620002b5565b5090565b5b80821115620002d0576000816000905550600101620002b6565b5090565b6000604051905090565b600080fd5b600080fd5b600080fd5b600080fd5b6000601f19601f8301169050919050565b7f4e487b7100000000000000000000000000000000000000000000000000000000600052604160045260246000fd5b6200033d82620002f2565b810181811067ffffffffffffffff821117156200035f576200035e62000303565b5b80604052505050565b600062000374620002d4565b905062000382828262000332565b919050565b600067ffffffffffffffff821115620003a557620003a462000303565b5b620003b082620002f2565b9050602081019050919050565b60005b83811015620003dd578082015181840152602081019050620003c0565b83811115620003ed576000848401525b50505050565b60006200040a620004048462000387565b62000368565b905082815260208101848484011115620004295762000428620002ed565b5b62000436848285620003bd565b509392505050565b600082601f830112620004565762000455620002e8565b5b815162000468848260208601620003f3565b91505092915050565b600073ffffffffffffffffffffffffffffffffffffffff82169050919050565b60006200049e8262000471565b9050919050565b620004b08162000491565b8114620004bc57600080fd5b50565b600081519050620004d081620004a5565b92915050565b600080600060608486031215620004f257620004f1620002de565b5b600084015167ffffffffffffffff811115620005135762000512620002e3565b5b62000521868287016200043e565b93505060206200053486828701620004bf565b925050604084015167ffffffffffffffff811115620005585762000557620002e3565b5b62000566868287016200043e565b9150509250925092565b7f4e487b7100000000000000000000000000000000000000000000000000000000600052602160045260246000fd5b7f4e487b7100000000000000000000000000000000000000000000000000000000600052602260045260246000fd5b60006002820490506001821680620005e757607f821691505b602082108103620005fd57620005fc6200059f565b5b50919050565b6123e180620006136000396000f3fe608060405234801561001057600080fd5b50600436106100b45760003560e01c8063481c6a7511610071578063481c6a7514610179578063725c0376146101975780638f88f476146101c9578063a3fbbaae146101f9578063a880a64414610215578063aaf8299014610231576100b4565b80631480e09c146100b95780631603813e146100d5578063198555ce146100f157806324d9641d146101255780632c045b9114610141578063458cf78a1461015d575b600080fd5b6100d360048036038101906100ce91906118b8565b61024d565b005b6100ef60048036038101906100ea9190611957565b610399565b005b61010b600480360381019061010691906119c6565b6104ce565b60405161011c959493929190611c2a565b60405180910390f35b61013f600480360381019061013a9190611ca0565b610958565b005b61015b60048036038101906101569190611d81565b610a28565b005b61017760048036038101906101729190611df0565b610c26565b005b610181610da7565b60405161018e9190611e9e565b60405180910390f35b6101b160048036038101906101ac9190611eb9565b610dcd565b6040516101c093929190611fc0565b60405180910390f35b6101e360048036038101906101de9190611eb9565b61111d565b6040516101f09190612056565b60405180910390f35b610213600480360381019061020e9190612078565b6111c7565b005b61022f600480360381019061022a91906120a5565b6112cd565b005b61024b6004803603810190610246919061211d565b6112fe565b005b806102598160036113c7565b61026257600080fd5b6003859080600181540180825580915050600190039060005260206000200160009091909190916101000a81548173ffffffffffffffffffffffffffffffffffffffff021916908373ffffffffffffffffffffffffffffffffffffffff1602179055508360038111156102d8576102d7612213565b5b600460008773ffffffffffffffffffffffffffffffffffffffff1673ffffffffffffffffffffffffffffffffffffffff16815260200190815260200160002060006101000a81548160ff0219169083600381111561033957610338612213565b5b021790555082600560008773ffffffffffffffffffffffffffffffffffffffff1673ffffffffffffffffffffffffffffffffffffffff1681526020019081526020016000209080519060200190610391929190611492565b505050505050565b806103a58160026113c7565b6103ae57600080fd5b6000806000868152602001908152602001600020905080600182805490506103d69190612271565b815481106103e7576103e66122a5565b5b9060005260206000209060040201818581548110610408576104076122a5565b5b90600052602060002090600402016000820154816000015560018201548160010155600282018160020190805461043e90612303565b610449929190611518565b50600382018160030190805461045e90612303565b610469929190611518565b509050508080548061047e5761047d612334565b5b600190038181906000526020600020906004020160008082016000905560018201600090556002820160006104b391906115a5565b6003820160006104c391906115a5565b505090555050505050565b6060806060806060856104e28160016113c7565b6104eb57600080fd5b60008060008a8152602001908152602001600020805480602002602001604051908101604052809291908181526020016000905b828210156106895783829060005260206000209060040201604051806080016040529081600082015481526020016001820154815260200160028201805461056690612303565b80601f016020809104026020016040519081016040528092919081815260200182805461059290612303565b80156105df5780601f106105b4576101008083540402835291602001916105df565b820191906000526020600020905b8154815290600101906020018083116105c257829003601f168201915b505050505081526020016003820180546105f890612303565b80601f016020809104026020016040519081016040528092919081815260200182805461062490612303565b80156106715780601f1061064657610100808354040283529160200191610671565b820191906000526020600020905b81548152906001019060200180831161065457829003601f168201915b5050505050815250508152602001906001019061051f565b5050505090506000815190508067ffffffffffffffff8111156106af576106ae6116c5565b5b6040519080825280602002602001820160405280156106dd5781602001602082028036833780820191505090505b5097508067ffffffffffffffff8111156106fa576106f96116c5565b5b6040519080825280602002602001820160405280156107285781602001602082028036833780820191505090505b5096508067ffffffffffffffff811115610745576107446116c5565b5b60405190808252806020026020018201604052801561077857816020015b60608152602001906001900390816107635790505b5095508067ffffffffffffffff811115610795576107946116c5565b5b6040519080825280602002602001820160405280156107c857816020015b60608152602001906001900390816107b35790505b5094508067ffffffffffffffff8111156107e5576107e46116c5565b5b6040519080825280602002602001820160405280156108135781602001602082028036833780820191505090505b50935060005b8181101561094a57828181518110610834576108336122a5565b5b602002602001015160000151898281518110610853576108526122a5565b5b602002602001018181525050828181518110610872576108716122a5565b5b602002602001015160200151888281518110610891576108906122a5565b5b6020026020010181815250508281815181106108b0576108af6122a5565b5b6020026020010151604001518782815181106108cf576108ce6122a5565b5b60200260200101819052508281815181106108ed576108ec6122a5565b5b60200260200101516060015186828151811061090c5761090b6122a5565b5b60200260200101819052508085828151811061092b5761092a6122a5565b5b602002602001018181525050808061094290612363565b915050610819565b505050509295509295909350565b806109648160026113c7565b61096d57600080fd5b60006040518060800160405280888152602001878152602001868152602001858152509050600080898152602001908152602001600020819080600181540180825580915050600190039060005260206000209060040201600090919091909150600082015181600001556020820151816001015560408201518160020190805190602001906109fe929190611492565b506060820151816003019080519060200190610a1b929190611492565b5050505050505050505050565b80610a348160036113c7565b610a3d57600080fd5b600160009054906101000a900473ffffffffffffffffffffffffffffffffffffffff1673ffffffffffffffffffffffffffffffffffffffff168373ffffffffffffffffffffffffffffffffffffffff1614610c2057600460008473ffffffffffffffffffffffffffffffffffffffff1673ffffffffffffffffffffffffffffffffffffffff16815260200190815260200160002060006101000a81549060ff0219169055600560008473ffffffffffffffffffffffffffffffffffffffff1673ffffffffffffffffffffffffffffffffffffffff1681526020019081526020016000206000610b2c91906115a5565b60036001600380549050610b409190612271565b81548110610b5157610b506122a5565b5b9060005260206000200160009054906101000a900473ffffffffffffffffffffffffffffffffffffffff1660038581548110610b9057610b8f6122a5565b5b9060005260206000200160006101000a81548173ffffffffffffffffffffffffffffffffffffffff021916908373ffffffffffffffffffffffffffffffffffffffff1602179055506003805480610bea57610be9612334565b5b6001900381819060005260206000200160006101000a81549073ffffffffffffffffffffffffffffffffffffffff021916905590555b50505050565b80610c328160036113c7565b610c3b57600080fd5b600160009054906101000a900473ffffffffffffffffffffffffffffffffffffffff1673ffffffffffffffffffffffffffffffffffffffff168573ffffffffffffffffffffffffffffffffffffffff16141580610ccd5750600380811115610ca657610ca5612213565b5b836003811115610cb957610cb8612213565b5b6003811115610ccb57610cca612213565b5b145b15610da05783600560008773ffffffffffffffffffffffffffffffffffffffff1673ffffffffffffffffffffffffffffffffffffffff1681526020019081526020016000209080519060200190610d25929190611492565b50826003811115610d3957610d38612213565b5b600460008773ffffffffffffffffffffffffffffffffffffffff1673ffffffffffffffffffffffffffffffffffffffff16815260200190815260200160002060006101000a81548160ff02191690836003811115610d9a57610d99612213565b5b02179055505b5050505050565b600160009054906101000a900473ffffffffffffffffffffffffffffffffffffffff1681565b606080606083610dde8160016113c7565b610de757600080fd5b600060038054905090506003805480602002602001604051908101604052809291908181526020018280548015610e7357602002820191906000526020600020905b8160009054906101000a900473ffffffffffffffffffffffffffffffffffffffff1673ffffffffffffffffffffffffffffffffffffffff1681526020019060010190808311610e29575b505050505094508067ffffffffffffffff811115610e9457610e936116c5565b5b604051908082528060200260200182016040528015610ec757816020015b6060815260200190600190039081610eb25790505b5093508067ffffffffffffffff811115610ee457610ee36116c5565b5b604051908082528060200260200182016040528015610f125781602001602082028036833780820191505090505b50925060005b81811015611113576005600060038381548110610f3857610f376122a5565b5b9060005260206000200160009054906101000a900473ffffffffffffffffffffffffffffffffffffffff1673ffffffffffffffffffffffffffffffffffffffff1673ffffffffffffffffffffffffffffffffffffffff1681526020019081526020016000208054610fa890612303565b80601f0160208091040260200160405190810160405280929190818152602001828054610fd490612303565b80156110215780601f10610ff657610100808354040283529160200191611021565b820191906000526020600020905b81548152906001019060200180831161100457829003601f168201915b5050505050858281518110611039576110386122a5565b5b6020026020010181905250600460006003838154811061105c5761105b6122a5565b5b9060005260206000200160009054906101000a900473ffffffffffffffffffffffffffffffffffffffff1673ffffffffffffffffffffffffffffffffffffffff1673ffffffffffffffffffffffffffffffffffffffff16815260200190815260200160002060009054906101000a900460ff1660038111156110e1576110e0612213565b5b8482815181106110f4576110f36122a5565b5b602002602001018181525050808061110b90612363565b915050610f18565b5050509193909250565b60608161112b8160016113c7565b61113457600080fd5b6002805461114190612303565b80601f016020809104026020016040519081016040528092919081815260200182805461116d90612303565b80156111ba5780601f1061118f576101008083540402835291602001916111ba565b820191906000526020600020905b81548152906001019060200180831161119d57829003601f168201915b5050505050915050919050565b600160009054906101000a900473ffffffffffffffffffffffffffffffffffffffff1673ffffffffffffffffffffffffffffffffffffffff163373ffffffffffffffffffffffffffffffffffffffff161461122157600080fd5b80600160006101000a81548173ffffffffffffffffffffffffffffffffffffffff021916908373ffffffffffffffffffffffffffffffffffffffff1602179055506003600460008373ffffffffffffffffffffffffffffffffffffffff1673ffffffffffffffffffffffffffffffffffffffff16815260200190815260200160002060006101000a81548160ff021916908360038111156112c5576112c4612213565b5b021790555050565b806112d98160036113c7565b6112e257600080fd5b82600290805190602001906112f8929190611492565b50505050565b8061130a8160026113c7565b61131357600080fd5b60006040518060800160405280888152602001878152602001868152602001858152509050806000808b8152602001908152602001600020898154811061135d5761135c6122a5565b5b90600052602060002090600402016000820151816000015560208201518160010155604082015181600201908051906020019061139b929190611492565b5060608201518160030190805190602001906113b8929190611492565b50905050505050505050505050565b600080600090505b8351811015611486578260038111156113eb576113ea612213565b5b60046000868481518110611402576114016122a5565b5b602002602001015173ffffffffffffffffffffffffffffffffffffffff1673ffffffffffffffffffffffffffffffffffffffff16815260200190815260200160002060009054906101000a900460ff16600381111561146457611463612213565b5b1061147357600191505061148c565b808061147e90612363565b9150506113cf565b50600090505b92915050565b82805461149e90612303565b90600052602060002090601f0160209004810192826114c05760008555611507565b82601f106114d957805160ff1916838001178555611507565b82800160010185558215611507579182015b828111156115065782518255916020019190600101906114eb565b5b50905061151491906115e5565b5090565b82805461152490612303565b90600052602060002090601f0160209004810192826115465760008555611594565b82601f106115575780548555611594565b8280016001018555821561159457600052602060002091601f016020900482015b82811115611593578254825591600101919060010190611578565b5b5090506115a191906115e5565b5090565b5080546115b190612303565b6000825580601f106115c357506115e2565b601f0160209004906000526020600020908101906115e191906115e5565b5b50565b5b808211156115fe5760008160009055506001016115e6565b5090565b6000604051905090565b600080fd5b600080fd5b600073ffffffffffffffffffffffffffffffffffffffff82169050919050565b600061164182611616565b9050919050565b61165181611636565b811461165c57600080fd5b50565b60008135905061166e81611648565b92915050565b6000819050919050565b61168781611674565b811461169257600080fd5b50565b6000813590506116a48161167e565b92915050565b600080fd5b600080fd5b6000601f19601f8301169050919050565b7f4e487b7100000000000000000000000000000000000000000000000000000000600052604160045260246000fd5b6116fd826116b4565b810181811067ffffffffffffffff8211171561171c5761171b6116c5565b5b80604052505050565b600061172f611602565b905061173b82826116f4565b919050565b600067ffffffffffffffff82111561175b5761175a6116c5565b5b611764826116b4565b9050602081019050919050565b82818337600083830152505050565b600061179361178e84611740565b611725565b9050828152602081018484840111156117af576117ae6116af565b5b6117ba848285611771565b509392505050565b600082601f8301126117d7576117d66116aa565b5b81356117e7848260208601611780565b91505092915050565b600067ffffffffffffffff82111561180b5761180a6116c5565b5b602082029050602081019050919050565b600080fd5b600061183461182f846117f0565b611725565b905080838252602082019050602084028301858111156118575761185661181c565b5b835b81811015611880578061186c888261165f565b845260208401935050602081019050611859565b5050509392505050565b600082601f83011261189f5761189e6116aa565b5b81356118af848260208601611821565b91505092915050565b600080600080608085870312156118d2576118d161160c565b5b60006118e08782880161165f565b94505060206118f187828801611695565b935050604085013567ffffffffffffffff81111561191257611911611611565b5b61191e878288016117c2565b925050606085013567ffffffffffffffff81111561193f5761193e611611565b5b61194b8782880161188a565b91505092959194509250565b6000806000606084860312156119705761196f61160c565b5b600061197e86828701611695565b935050602061198f86828701611695565b925050604084013567ffffffffffffffff8111156119b0576119af611611565b5b6119bc8682870161188a565b9150509250925092565b600080604083850312156119dd576119dc61160c565b5b60006119eb85828601611695565b925050602083013567ffffffffffffffff811115611a0c57611a0b611611565b5b611a188582860161188a565b9150509250929050565b600081519050919050565b600082825260208201905092915050565b6000819050602082019050919050565b611a5781611674565b82525050565b6000611a698383611a4e565b60208301905092915050565b6000602082019050919050565b6000611a8d82611a22565b611a978185611a2d565b9350611aa283611a3e565b8060005b83811015611ad3578151611aba8882611a5d565b9750611ac583611a75565b925050600181019050611aa6565b5085935050505092915050565b600081519050919050565b600082825260208201905092915050565b6000819050602082019050919050565b600081519050919050565b600082825260208201905092915050565b60005b83811015611b46578082015181840152602081019050611b2b565b83811115611b55576000848401525b50505050565b6000611b6682611b0c565b611b708185611b17565b9350611b80818560208601611b28565b611b89816116b4565b840191505092915050565b6000611ba08383611b5b565b905092915050565b6000602082019050919050565b6000611bc082611ae0565b611bca8185611aeb565b935083602082028501611bdc85611afc565b8060005b85811015611c185784840389528151611bf98582611b94565b9450611c0483611ba8565b925060208a01995050600181019050611be0565b50829750879550505050505092915050565b600060a0820190508181036000830152611c448188611a82565b90508181036020830152611c588187611a82565b90508181036040830152611c6c8186611bb5565b90508181036060830152611c808185611bb5565b90508181036080830152611c948184611a82565b90509695505050505050565b60008060008060008060c08789031215611cbd57611cbc61160c565b5b6000611ccb89828a01611695565b9650506020611cdc89828a01611695565b9550506040611ced89828a01611695565b945050606087013567ffffffffffffffff811115611d0e57611d0d611611565b5b611d1a89828a016117c2565b935050608087013567ffffffffffffffff811115611d3b57611d3a611611565b5b611d4789828a016117c2565b92505060a087013567ffffffffffffffff811115611d6857611d67611611565b5b611d7489828a0161188a565b9150509295509295509295565b600080600060608486031215611d9a57611d9961160c565b5b6000611da886828701611695565b9350506020611db98682870161165f565b925050604084013567ffffffffffffffff811115611dda57611dd9611611565b5b611de68682870161188a565b9150509250925092565b60008060008060808587031215611e0a57611e0961160c565b5b6000611e188782880161165f565b945050602085013567ffffffffffffffff811115611e3957611e38611611565b5b611e45878288016117c2565b9350506040611e5687828801611695565b925050606085013567ffffffffffffffff811115611e7757611e76611611565b5b611e838782880161188a565b91505092959194509250565b611e9881611636565b82525050565b6000602082019050611eb36000830184611e8f565b92915050565b600060208284031215611ecf57611ece61160c565b5b600082013567ffffffffffffffff811115611eed57611eec611611565b5b611ef98482850161188a565b91505092915050565b600081519050919050565b600082825260208201905092915050565b6000819050602082019050919050565b611f3781611636565b82525050565b6000611f498383611f2e565b60208301905092915050565b6000602082019050919050565b6000611f6d82611f02565b611f778185611f0d565b9350611f8283611f1e565b8060005b83811015611fb3578151611f9a8882611f3d565b9750611fa583611f55565b925050600181019050611f86565b5085935050505092915050565b60006060820190508181036000830152611fda8186611f62565b90508181036020830152611fee8185611bb5565b905081810360408301526120028184611a82565b9050949350505050565b600082825260208201905092915050565b600061202882611b0c565b612032818561200c565b9350612042818560208601611b28565b61204b816116b4565b840191505092915050565b60006020820190508181036000830152612070818461201d565b905092915050565b60006020828403121561208e5761208d61160c565b5b600061209c8482850161165f565b91505092915050565b600080604083850312156120bc576120bb61160c565b5b600083013567ffffffffffffffff8111156120da576120d9611611565b5b6120e6858286016117c2565b925050602083013567ffffffffffffffff81111561210757612106611611565b5b6121138582860161188a565b9150509250929050565b600080600080600080600060e0888a03121561213c5761213b61160c565b5b600061214a8a828b01611695565b975050602061215b8a828b01611695565b965050604061216c8a828b01611695565b955050606061217d8a828b01611695565b945050608088013567ffffffffffffffff81111561219e5761219d611611565b5b6121aa8a828b016117c2565b93505060a088013567ffffffffffffffff8111156121cb576121ca611611565b5b6121d78a828b016117c2565b92505060c088013567ffffffffffffffff8111156121f8576121f7611611565b5b6122048a828b0161188a565b91505092959891949750929550565b7f4e487b7100000000000000000000000000000000000000000000000000000000600052602160045260246000fd5b7f4e487b7100000000000000000000000000000000000000000000000000000000600052601160045260246000fd5b600061227c82611674565b915061228783611674565b92508282101561229a57612299612242565b5b828203905092915050565b7f4e487b7100000000000000000000000000000000000000000000000000000000600052603260045260246000fd5b7f4e487b7100000000000000000000000000000000000000000000000000000000600052602260045260246000fd5b6000600282049050600182168061231b57607f821691505b60208210810361232e5761232d6122d4565b5b50919050565b7f4e487b7100000000000000000000000000000000000000000000000000000000600052603160045260246000fd5b600061236e82611674565b91507fffffffffffffffffffffffffffffffffffffffffffffffffffffffffffffffff82036123a05761239f612242565b5b60018201905091905056fea2646970667358221220f1d2c20605b31301bcfc7692a78e80293b82fe9e9752f80568f56114982aa01064736f6c634300080d0033","opcodes":"PUSH1 0x80 PUSH1 0x40 MSTORE CALLVALUE DUP1 ISZERO PUSH3 0x11 JUMPI PUSH1 0x0 DUP1 REVERT JUMPDEST POP PUSH1 0x40 MLOAD PUSH3 0x29F4 CODESIZE SUB DUP1 PUSH3 0x29F4 DUP4 CODECOPY DUP2 DUP2 ADD PUSH1 0x40 MSTORE DUP2 ADD SWAP1 PUSH3 0x37 SWAP2 SWAP1 PUSH3 0x4D6 JUMP JUMPDEST DUP2 PUSH1 0x1 PUSH1 0x0 PUSH2 0x100 EXP DUP2 SLOAD DUP2 PUSH20 0xFFFFFFFFFFFFFFFFFFFFFFFFFFFFFFFFFFFFFFFF MUL NOT AND SWAP1 DUP4 PUSH20 0xFFFFFFFFFFFFFFFFFFFFFFFFFFFFFFFFFFFFFFFF AND MUL OR SWAP1 SSTORE POP DUP3 PUSH1 0x2 SWAP1 DUP1 MLOAD SWAP1 PUSH1 0x20 ADD SWAP1 PUSH3 0x90 SWAP3 SWAP2 SWAP1 PUSH3 0x224 JUMP JUMPDEST POP PUSH1 0x3 PUSH1 0x4 PUSH1 0x0 PUSH1 0x1 PUSH1 0x0 SWAP1 SLOAD SWAP1 PUSH2 0x100 EXP SWAP1 DIV PUSH20 0xFFFFFFFFFFFFFFFFFFFFFFFFFFFFFFFFFFFFFFFF AND PUSH20 0xFFFFFFFFFFFFFFFFFFFFFFFFFFFFFFFFFFFFFFFF AND PUSH20 0xFFFFFFFFFFFFFFFFFFFFFFFFFFFFFFFFFFFFFFFF AND DUP2 MSTORE PUSH1 0x20 ADD SWAP1 DUP2 MSTORE PUSH1 0x20 ADD PUSH1 0x0 KECCAK256 PUSH1 0x0 PUSH2 0x100 EXP DUP2 SLOAD DUP2 PUSH1 0xFF MUL NOT AND SWAP1 DUP4 PUSH1 0x3 DUP2 GT ISZERO PUSH3 0x119 JUMPI PUSH3 0x118 PUSH3 0x570 JUMP JUMPDEST JUMPDEST MUL OR SWAP1 SSTORE POP PUSH1 0x3 PUSH1 0x1 PUSH1 0x0 SWAP1 SLOAD SWAP1 PUSH2 0x100 EXP SWAP1 DIV PUSH20 0xFFFFFFFFFFFFFFFFFFFFFFFFFFFFFFFFFFFFFFFF AND SWAP1 DUP1 PUSH1 0x1 DUP2 SLOAD ADD DUP1 DUP3 SSTORE DUP1 SWAP2 POP POP PUSH1 0x1 SWAP1 SUB SWAP1 PUSH1 0x0 MSTORE PUSH1 0x20 PUSH1 0x0 KECCAK256 ADD PUSH1 0x0 SWAP1 SWAP2 SWAP1 SWAP2 SWAP1 SWAP2 PUSH2 0x100 EXP DUP2 SLOAD DUP2 PUSH20 0xFFFFFFFFFFFFFFFFFFFFFFFFFFFFFFFFFFFFFFFF MUL NOT AND SWAP1 DUP4 PUSH20 0xFFFFFFFFFFFFFFFFFFFFFFFFFFFFFFFFFFFFFFFF AND MUL OR SWAP1 SSTORE POP DUP1 PUSH1 0x5 PUSH1 0x0 PUSH1 0x1 PUSH1 0x0 SWAP1 SLOAD SWAP1 PUSH2 0x100 EXP SWAP1 DIV PUSH20 0xFFFFFFFFFFFFFFFFFFFFFFFFFFFFFFFFFFFFFFFF AND PUSH20 0xFFFFFFFFFFFFFFFFFFFFFFFFFFFFFFFFFFFFFFFF AND PUSH20 0xFFFFFFFFFFFFFFFFFFFFFFFFFFFFFFFFFFFFFFFF AND DUP2 MSTORE PUSH1 0x20 ADD SWAP1 DUP2 MSTORE PUSH1 0x20 ADD PUSH1 0x0 KECCAK256 SWAP1 DUP1 MLOAD SWAP1 PUSH1 0x20 ADD SWAP1 PUSH3 0x21A SWAP3 SWAP2 SWAP1 PUSH3 0x224 JUMP JUMPDEST POP POP POP POP PUSH3 0x603 JUMP JUMPDEST DUP3 DUP1 SLOAD PUSH3 0x232 SWAP1 PUSH3 0x5CE JUMP JUMPDEST SWAP1 PUSH1 0x0 MSTORE PUSH1 0x20 PUSH1 0x0 KECCAK256 SWAP1 PUSH1 0x1F ADD PUSH1 0x20 SWAP1 DIV DUP2 ADD SWAP3 DUP3 PUSH3 0x256 JUMPI PUSH1 0x0 DUP6 SSTORE PUSH3 0x2A2 JUMP JUMPDEST DUP3 PUSH1 0x1F LT PUSH3 0x271 JUMPI DUP1 MLOAD PUSH1 0xFF NOT AND DUP4 DUP1 ADD OR DUP6 SSTORE PUSH3 0x2A2 JUMP JUMPDEST DUP3 DUP1 ADD PUSH1 0x1 ADD DUP6 SSTORE DUP3 ISZERO PUSH3 0x2A2 JUMPI SWAP2 DUP3 ADD JUMPDEST DUP3 DUP2 GT ISZERO PUSH3 0x2A1 JUMPI DUP3 MLOAD DUP3 SSTORE SWAP2 PUSH1 0x20 ADD SWAP2 SWAP1 PUSH1 0x1 ADD SWAP1 PUSH3 0x284 JUMP JUMPDEST JUMPDEST POP SWAP1 POP PUSH3 0x2B1 SWAP2 SWAP1 PUSH3 0x2B5 JUMP JUMPDEST POP SWAP1 JUMP JUMPDEST JUMPDEST DUP1 DUP3 GT ISZERO PUSH3 0x2D0 JUMPI PUSH1 0x0 DUP2 PUSH1 0x0 SWAP1 SSTORE POP PUSH1 0x1 ADD PUSH3 0x2B6 JUMP JUMPDEST POP SWAP1 JUMP JUMPDEST PUSH1 0x0 PUSH1 0x40 MLOAD SWAP1 POP SWAP1 JUMP JUMPDEST PUSH1 0x0 DUP1 REVERT JUMPDEST PUSH1 0x0 DUP1 REVERT JUMPDEST PUSH1 0x0 DUP1 REVERT JUMPDEST PUSH1 0x0 DUP1 REVERT JUMPDEST PUSH1 0x0 PUSH1 0x1F NOT PUSH1 0x1F DUP4 ADD AND SWAP1 POP SWAP2 SWAP1 POP JUMP JUMPDEST PUSH32 0x4E487B7100000000000000000000000000000000000000000000000000000000 PUSH1 0x0 MSTORE PUSH1 0x41 PUSH1 0x4 MSTORE PUSH1 0x24 PUSH1 0x0 REVERT JUMPDEST PUSH3 0x33D DUP3 PUSH3 0x2F2 JUMP JUMPDEST DUP2 ADD DUP2 DUP2 LT PUSH8 0xFFFFFFFFFFFFFFFF DUP3 GT OR ISZERO PUSH3 0x35F JUMPI PUSH3 0x35E PUSH3 0x303 JUMP JUMPDEST JUMPDEST DUP1 PUSH1 0x40 MSTORE POP POP POP JUMP JUMPDEST PUSH1 0x0 PUSH3 0x374 PUSH3 0x2D4 JUMP JUMPDEST SWAP1 POP PUSH3 0x382 DUP3 DUP3 PUSH3 0x332 JUMP JUMPDEST SWAP2 SWAP1 POP JUMP JUMPDEST PUSH1 0x0 PUSH8 0xFFFFFFFFFFFFFFFF DUP3 GT ISZERO PUSH3 0x3A5 JUMPI PUSH3 0x3A4 PUSH3 0x303 JUMP JUMPDEST JUMPDEST PUSH3 0x3B0 DUP3 PUSH3 0x2F2 JUMP JUMPDEST SWAP1 POP PUSH1 0x20 DUP2 ADD SWAP1 POP SWAP2 SWAP1 POP JUMP JUMPDEST PUSH1 0x0 JUMPDEST DUP4 DUP2 LT ISZERO PUSH3 0x3DD JUMPI DUP1 DUP3 ADD MLOAD DUP2 DUP5 ADD MSTORE PUSH1 0x20 DUP2 ADD SWAP1 POP PUSH3 0x3C0 JUMP JUMPDEST DUP4 DUP2 GT ISZERO PUSH3 0x3ED JUMPI PUSH1 0x0 DUP5 DUP5 ADD MSTORE JUMPDEST POP POP POP POP JUMP JUMPDEST PUSH1 0x0 PUSH3 0x40A PUSH3 0x404 DUP5 PUSH3 0x387 JUMP JUMPDEST PUSH3 0x368 JUMP JUMPDEST SWAP1 POP DUP3 DUP2 MSTORE PUSH1 0x20 DUP2 ADD DUP5 DUP5 DUP5 ADD GT ISZERO PUSH3 0x429 JUMPI PUSH3 0x428 PUSH3 0x2ED JUMP JUMPDEST JUMPDEST PUSH3 0x436 DUP5 DUP3 DUP6 PUSH3 0x3BD JUMP JUMPDEST POP SWAP4 SWAP3 POP POP POP JUMP JUMPDEST PUSH1 0x0 DUP3 PUSH1 0x1F DUP4 ADD SLT PUSH3 0x456 JUMPI PUSH3 0x455 PUSH3 0x2E8 JUMP JUMPDEST JUMPDEST DUP2 MLOAD PUSH3 0x468 DUP5 DUP3 PUSH1 0x20 DUP7 ADD PUSH3 0x3F3 JUMP JUMPDEST SWAP2 POP POP SWAP3 SWAP2 POP POP JUMP JUMPDEST PUSH1 0x0 PUSH20 0xFFFFFFFFFFFFFFFFFFFFFFFFFFFFFFFFFFFFFFFF DUP3 AND SWAP1 POP SWAP2 SWAP1 POP JUMP JUMPDEST PUSH1 0x0 PUSH3 0x49E DUP3 PUSH3 0x471 JUMP JUMPDEST SWAP1 POP SWAP2 SWAP1 POP JUMP JUMPDEST PUSH3 0x4B0 DUP2 PUSH3 0x491 JUMP JUMPDEST DUP2 EQ PUSH3 0x4BC JUMPI PUSH1 0x0 DUP1 REVERT JUMPDEST POP JUMP JUMPDEST PUSH1 0x0 DUP2 MLOAD SWAP1 POP PUSH3 0x4D0 DUP2 PUSH3 0x4A5 JUMP JUMPDEST SWAP3 SWAP2 POP POP JUMP JUMPDEST PUSH1 0x0 DUP1 PUSH1 0x0 PUSH1 0x60 DUP5 DUP7 SUB SLT ISZERO PUSH3 0x4F2 JUMPI PUSH3 0x4F1 PUSH3 0x2DE JUMP JUMPDEST JUMPDEST PUSH1 0x0 DUP5 ADD MLOAD PUSH8 0xFFFFFFFFFFFFFFFF DUP2 GT ISZERO PUSH3 0x513 JUMPI PUSH3 0x512 PUSH3 0x2E3 JUMP JUMPDEST JUMPDEST PUSH3 0x521 DUP7 DUP3 DUP8 ADD PUSH3 0x43E JUMP JUMPDEST SWAP4 POP POP PUSH1 0x20 PUSH3 0x534 DUP7 DUP3 DUP8 ADD PUSH3 0x4BF JUMP JUMPDEST SWAP3 POP POP PUSH1 0x40 DUP5 ADD MLOAD PUSH8 0xFFFFFFFFFFFFFFFF DUP2 GT ISZERO PUSH3 0x558 JUMPI PUSH3 0x557 PUSH3 0x2E3 JUMP JUMPDEST JUMPDEST PUSH3 0x566 DUP7 DUP3 DUP8 ADD PUSH3 0x43E JUMP JUMPDEST SWAP2 POP POP SWAP3 POP SWAP3 POP SWAP3 JUMP JUMPDEST PUSH32 0x4E487B7100000000000000000000000000000000000000000000000000000000 PUSH1 0x0 MSTORE PUSH1 0x21 PUSH1 0x4 MSTORE PUSH1 0x24 PUSH1 0x0 REVERT JUMPDEST PUSH32 0x4E487B7100000000000000000000000000000000000000000000000000000000 PUSH1 0x0 MSTORE PUSH1 0x22 PUSH1 0x4 MSTORE PUSH1 0x24 PUSH1 0x0 REVERT JUMPDEST PUSH1 0x0 PUSH1 0x2 DUP3 DIV SWAP1 POP PUSH1 0x1 DUP3 AND DUP1 PUSH3 0x5E7 JUMPI PUSH1 0x7F DUP3 AND SWAP2 POP JUMPDEST PUSH1 0x20 DUP3 LT DUP2 SUB PUSH3 0x5FD JUMPI PUSH3 0x5FC PUSH3 0x59F JUMP JUMPDEST JUMPDEST POP SWAP2 SWAP1 POP JUMP JUMPDEST PUSH2 0x23E1 DUP1 PUSH3 0x613 PUSH1 0x0 CODECOPY PUSH1 0x0 RETURN INVALID PUSH1 0x80 PUSH1 0x40 MSTORE CALLVALUE DUP1 ISZERO PUSH2 0x10 JUMPI PUSH1 0x0 DUP1 REVERT JUMPDEST POP PUSH1 0x4 CALLDATASIZE LT PUSH2 0xB4 JUMPI PUSH1 0x0 CALLDATALOAD PUSH1 0xE0 SHR DUP1 PUSH4 0x481C6A75 GT PUSH2 0x71 JUMPI DUP1 PUSH4 0x481C6A75 EQ PUSH2 0x179 JUMPI DUP1 PUSH4 0x725C0376 EQ PUSH2 0x197 JUMPI DUP1 PUSH4 0x8F88F476 EQ PUSH2 0x1C9 JUMPI DUP1 PUSH4 0xA3FBBAAE EQ PUSH2 0x1F9 JUMPI DUP1 PUSH4 0xA880A644 EQ PUSH2 0x215 JUMPI DUP1 PUSH4 0xAAF82990 EQ PUSH2 0x231 JUMPI PUSH2 0xB4 JUMP JUMPDEST DUP1 PUSH4 0x1480E09C EQ PUSH2 0xB9 JUMPI DUP1 PUSH4 0x1603813E EQ PUSH2 0xD5 JUMPI DUP1 PUSH4 0x198555CE EQ PUSH2 0xF1 JUMPI DUP1 PUSH4 0x24D9641D EQ PUSH2 0x125 JUMPI DUP1 PUSH4 0x2C045B91 EQ PUSH2 0x141 JUMPI DUP1 PUSH4 0x458CF78A EQ PUSH2 0x15D JUMPI JUMPDEST PUSH1 0x0 DUP1 REVERT JUMPDEST PUSH2 0xD3 PUSH1 0x4 DUP1 CALLDATASIZE SUB DUP2 ADD SWAP1 PUSH2 0xCE SWAP2 SWAP1 PUSH2 0x18B8 JUMP JUMPDEST PUSH2 0x24D JUMP JUMPDEST STOP JUMPDEST PUSH2 0xEF PUSH1 0x4 DUP1 CALLDATASIZE SUB DUP2 ADD SWAP1 PUSH2 0xEA SWAP2 SWAP1 PUSH2 0x1957 JUMP JUMPDEST PUSH2 0x399 JUMP JUMPDEST STOP JUMPDEST PUSH2 0x10B PUSH1 0x4 DUP1 CALLDATASIZE SUB DUP2 ADD SWAP1 PUSH2 0x106 SWAP2 SWAP1 PUSH2 0x19C6 JUMP JUMPDEST PUSH2 0x4CE JUMP JUMPDEST PUSH1 0x40 MLOAD PUSH2 0x11C SWAP6 SWAP5 SWAP4 SWAP3 SWAP2 SWAP1 PUSH2 0x1C2A JUMP JUMPDEST PUSH1 0x40 MLOAD DUP1 SWAP2 SUB SWAP1 RETURN JUMPDEST PUSH2 0x13F PUSH1 0x4 DUP1 CALLDATASIZE SUB DUP2 ADD SWAP1 PUSH2 0x13A SWAP2 SWAP1 PUSH2 0x1CA0 JUMP JUMPDEST PUSH2 0x958 JUMP JUMPDEST STOP JUMPDEST PUSH2 0x15B PUSH1 0x4 DUP1 CALLDATASIZE SUB DUP2 ADD SWAP1 PUSH2 0x156 SWAP2 SWAP1 PUSH2 0x1D81 JUMP JUMPDEST PUSH2 0xA28 JUMP JUMPDEST STOP JUMPDEST PUSH2 0x177 PUSH1 0x4 DUP1 CALLDATASIZE SUB DUP2 ADD SWAP1 PUSH2 0x172 SWAP2 SWAP1 PUSH2 0x1DF0 JUMP JUMPDEST PUSH2 0xC26 JUMP JUMPDEST STOP JUMPDEST PUSH2 0x181 PUSH2 0xDA7 JUMP JUMPDEST PUSH1 0x40 MLOAD PUSH2 0x18E SWAP2 SWAP1 PUSH2 0x1E9E JUMP JUMPDEST PUSH1 0x40 MLOAD DUP1 SWAP2 SUB SWAP1 RETURN JUMPDEST PUSH2 0x1B1 PUSH1 0x4 DUP1 CALLDATASIZE SUB DUP2 ADD SWAP1 PUSH2 0x1AC SWAP2 SWAP1 PUSH2 0x1EB9 JUMP JUMPDEST PUSH2 0xDCD JUMP JUMPDEST PUSH1 0x40 MLOAD PUSH2 0x1C0 SWAP4 SWAP3 SWAP2 SWAP1 PUSH2 0x1FC0 JUMP JUMPDEST PUSH1 0x40 MLOAD DUP1 SWAP2 SUB SWAP1 RETURN JUMPDEST PUSH2 0x1E3 PUSH1 0x4 DUP1 CALLDATASIZE SUB DUP2 ADD SWAP1 PUSH2 0x1DE SWAP2 SWAP1 PUSH2 0x1EB9 JUMP JUMPDEST PUSH2 0x111D JUMP JUMPDEST PUSH1 0x40 MLOAD PUSH2 0x1F0 SWAP2 SWAP1 PUSH2 0x2056 JUMP JUMPDEST PUSH1 0x40 MLOAD DUP1 SWAP2 SUB SWAP1 RETURN JUMPDEST PUSH2 0x213 PUSH1 0x4 DUP1 CALLDATASIZE SUB DUP2 ADD SWAP1 PUSH2 0x20E SWAP2 SWAP1 PUSH2 0x2078 JUMP JUMPDEST PUSH2 0x11C7 JUMP JUMPDEST STOP JUMPDEST PUSH2 0x22F PUSH1 0x4 DUP1 CALLDATASIZE SUB DUP2 ADD SWAP1 PUSH2 0x22A SWAP2 SWAP1 PUSH2 0x20A5 JUMP JUMPDEST PUSH2 0x12CD JUMP JUMPDEST STOP JUMPDEST PUSH2 0x24B PUSH1 0x4 DUP1 CALLDATASIZE SUB DUP2 ADD SWAP1 PUSH2 0x246 SWAP2 SWAP1 PUSH2 0x211D JUMP JUMPDEST PUSH2 0x12FE JUMP JUMPDEST STOP JUMPDEST DUP1 PUSH2 0x259 DUP2 PUSH1 0x3 PUSH2 0x13C7 JUMP JUMPDEST PUSH2 0x262 JUMPI PUSH1 0x0 DUP1 REVERT JUMPDEST PUSH1 0x3 DUP6 SWAP1 DUP1 PUSH1 0x1 DUP2 SLOAD ADD DUP1 DUP3 SSTORE DUP1 SWAP2 POP POP PUSH1 0x1 SWAP1 SUB SWAP1 PUSH1 0x0 MSTORE PUSH1 0x20 PUSH1 0x0 KECCAK256 ADD PUSH1 0x0 SWAP1 SWAP2 SWAP1 SWAP2 SWAP1 SWAP2 PUSH2 0x100 EXP DUP2 SLOAD DUP2 PUSH20 0xFFFFFFFFFFFFFFFFFFFFFFFFFFFFFFFFFFFFFFFF MUL NOT AND SWAP1 DUP4 PUSH20 0xFFFFFFFFFFFFFFFFFFFFFFFFFFFFFFFFFFFFFFFF AND MUL OR SWAP1 SSTORE POP DUP4 PUSH1 0x3 DUP2 GT ISZERO PUSH2 0x2D8 JUMPI PUSH2 0x2D7 PUSH2 0x2213 JUMP JUMPDEST JUMPDEST PUSH1 0x4 PUSH1 0x0 DUP8 PUSH20 0xFFFFFFFFFFFFFFFFFFFFFFFFFFFFFFFFFFFFFFFF AND PUSH20 0xFFFFFFFFFFFFFFFFFFFFFFFFFFFFFFFFFFFFFFFF AND DUP2 MSTORE PUSH1 0x20 ADD SWAP1 DUP2 MSTORE PUSH1 0x20 ADD PUSH1 0x0 KECCAK256 PUSH1 0x0 PUSH2 0x100 EXP DUP2 SLOAD DUP2 PUSH1 0xFF MUL NOT AND SWAP1 DUP4 PUSH1 0x3 DUP2 GT ISZERO PUSH2 0x339 JUMPI PUSH2 0x338 PUSH2 0x2213 JUMP JUMPDEST JUMPDEST MUL OR SWAP1 SSTORE POP DUP3 PUSH1 0x5 PUSH1 0x0 DUP8 PUSH20 0xFFFFFFFFFFFFFFFFFFFFFFFFFFFFFFFFFFFFFFFF AND PUSH20 0xFFFFFFFFFFFFFFFFFFFFFFFFFFFFFFFFFFFFFFFF AND DUP2 MSTORE PUSH1 0x20 ADD SWAP1 DUP2 MSTORE PUSH1 0x20 ADD PUSH1 0x0 KECCAK256 SWAP1 DUP1 MLOAD SWAP1 PUSH1 0x20 ADD SWAP1 PUSH2 0x391 SWAP3 SWAP2 SWAP1 PUSH2 0x1492 JUMP JUMPDEST POP POP POP POP POP POP JUMP JUMPDEST DUP1 PUSH2 0x3A5 DUP2 PUSH1 0x2 PUSH2 0x13C7 JUMP JUMPDEST PUSH2 0x3AE JUMPI PUSH1 0x0 DUP1 REVERT JUMPDEST PUSH1 0x0 DUP1 PUSH1 0x0 DUP7 DUP2 MSTORE PUSH1 0x20 ADD SWAP1 DUP2 MSTORE PUSH1 0x20 ADD PUSH1 0x0 KECCAK256 SWAP1 POP DUP1 PUSH1 0x1 DUP3 DUP1 SLOAD SWAP1 POP PUSH2 0x3D6 SWAP2 SWAP1 PUSH2 0x2271 JUMP JUMPDEST DUP2 SLOAD DUP2 LT PUSH2 0x3E7 JUMPI PUSH2 0x3E6 PUSH2 0x22A5 JUMP JUMPDEST JUMPDEST SWAP1 PUSH1 0x0 MSTORE PUSH1 0x20 PUSH1 0x0 KECCAK256 SWAP1 PUSH1 0x4 MUL ADD DUP2 DUP6 DUP2 SLOAD DUP2 LT PUSH2 0x408 JUMPI PUSH2 0x407 PUSH2 0x22A5 JUMP JUMPDEST JUMPDEST SWAP1 PUSH1 0x0 MSTORE PUSH1 0x20 PUSH1 0x0 KECCAK256 SWAP1 PUSH1 0x4 MUL ADD PUSH1 0x0 DUP3 ADD SLOAD DUP2 PUSH1 0x0 ADD SSTORE PUSH1 0x1 DUP3 ADD SLOAD DUP2 PUSH1 0x1 ADD SSTORE PUSH1 0x2 DUP3 ADD DUP2 PUSH1 0x2 ADD SWAP1 DUP1 SLOAD PUSH2 0x43E SWAP1 PUSH2 0x2303 JUMP JUMPDEST PUSH2 0x449 SWAP3 SWAP2 SWAP1 PUSH2 0x1518 JUMP JUMPDEST POP PUSH1 0x3 DUP3 ADD DUP2 PUSH1 0x3 ADD SWAP1 DUP1 SLOAD PUSH2 0x45E SWAP1 PUSH2 0x2303 JUMP JUMPDEST PUSH2 0x469 SWAP3 SWAP2 SWAP1 PUSH2 0x1518 JUMP JUMPDEST POP SWAP1 POP POP DUP1 DUP1 SLOAD DUP1 PUSH2 0x47E JUMPI PUSH2 0x47D PUSH2 0x2334 JUMP JUMPDEST JUMPDEST PUSH1 0x1 SWAP1 SUB DUP2 DUP2 SWAP1 PUSH1 0x0 MSTORE PUSH1 0x20 PUSH1 0x0 KECCAK256 SWAP1 PUSH1 0x4 MUL ADD PUSH1 0x0 DUP1 DUP3 ADD PUSH1 0x0 SWAP1 SSTORE PUSH1 0x1 DUP3 ADD PUSH1 0x0 SWAP1 SSTORE PUSH1 0x2 DUP3 ADD PUSH1 0x0 PUSH2 0x4B3 SWAP2 SWAP1 PUSH2 0x15A5 JUMP JUMPDEST PUSH1 0x3 DUP3 ADD PUSH1 0x0 PUSH2 0x4C3 SWAP2 SWAP1 PUSH2 0x15A5 JUMP JUMPDEST POP POP SWAP1 SSTORE POP POP POP POP POP JUMP JUMPDEST PUSH1 0x60 DUP1 PUSH1 0x60 DUP1 PUSH1 0x60 DUP6 PUSH2 0x4E2 DUP2 PUSH1 0x1 PUSH2 0x13C7 JUMP JUMPDEST PUSH2 0x4EB JUMPI PUSH1 0x0 DUP1 REVERT JUMPDEST PUSH1 0x0 DUP1 PUSH1 0x0 DUP11 DUP2 MSTORE PUSH1 0x20 ADD SWAP1 DUP2 MSTORE PUSH1 0x20 ADD PUSH1 0x0 KECCAK256 DUP1 SLOAD DUP1 PUSH1 0x20 MUL PUSH1 0x20 ADD PUSH1 0x40 MLOAD SWAP1 DUP2 ADD PUSH1 0x40 MSTORE DUP1 SWAP3 SWAP2 SWAP1 DUP2 DUP2 MSTORE PUSH1 0x20 ADD PUSH1 0x0 SWAP1 JUMPDEST DUP3 DUP3 LT ISZERO PUSH2 0x689 JUMPI DUP4 DUP3 SWAP1 PUSH1 0x0 MSTORE PUSH1 0x20 PUSH1 0x0 KECCAK256 SWAP1 PUSH1 0x4 MUL ADD PUSH1 0x40 MLOAD DUP1 PUSH1 0x80 ADD PUSH1 0x40 MSTORE SWAP1 DUP2 PUSH1 0x0 DUP3 ADD SLOAD DUP2 MSTORE PUSH1 0x20 ADD PUSH1 0x1 DUP3 ADD SLOAD DUP2 MSTORE PUSH1 0x20 ADD PUSH1 0x2 DUP3 ADD DUP1 SLOAD PUSH2 0x566 SWAP1 PUSH2 0x2303 JUMP JUMPDEST DUP1 PUSH1 0x1F ADD PUSH1 0x20 DUP1 SWAP2 DIV MUL PUSH1 0x20 ADD PUSH1 0x40 MLOAD SWAP1 DUP2 ADD PUSH1 0x40 MSTORE DUP1 SWAP3 SWAP2 SWAP1 DUP2 DUP2 MSTORE PUSH1 0x20 ADD DUP3 DUP1 SLOAD PUSH2 0x592 SWAP1 PUSH2 0x2303 JUMP JUMPDEST DUP1 ISZERO PUSH2 0x5DF JUMPI DUP1 PUSH1 0x1F LT PUSH2 0x5B4 JUMPI PUSH2 0x100 DUP1 DUP4 SLOAD DIV MUL DUP4 MSTORE SWAP2 PUSH1 0x20 ADD SWAP2 PUSH2 0x5DF JUMP JUMPDEST DUP3 ADD SWAP2 SWAP1 PUSH1 0x0 MSTORE PUSH1 0x20 PUSH1 0x0 KECCAK256 SWAP1 JUMPDEST DUP2 SLOAD DUP2 MSTORE SWAP1 PUSH1 0x1 ADD SWAP1 PUSH1 0x20 ADD DUP1 DUP4 GT PUSH2 0x5C2 JUMPI DUP3 SWAP1 SUB PUSH1 0x1F AND DUP3 ADD SWAP2 JUMPDEST POP POP POP POP POP DUP2 MSTORE PUSH1 0x20 ADD PUSH1 0x3 DUP3 ADD DUP1 SLOAD PUSH2 0x5F8 SWAP1 PUSH2 0x2303 JUMP JUMPDEST DUP1 PUSH1 0x1F ADD PUSH1 0x20 DUP1 SWAP2 DIV MUL PUSH1 0x20 ADD PUSH1 0x40 MLOAD SWAP1 DUP2 ADD PUSH1 0x40 MSTORE DUP1 SWAP3 SWAP2 SWAP1 DUP2 DUP2 MSTORE PUSH1 0x20 ADD DUP3 DUP1 SLOAD PUSH2 0x624 SWAP1 PUSH2 0x2303 JUMP JUMPDEST DUP1 ISZERO PUSH2 0x671 JUMPI DUP1 PUSH1 0x1F LT PUSH2 0x646 JUMPI PUSH2 0x100 DUP1 DUP4 SLOAD DIV MUL DUP4 MSTORE SWAP2 PUSH1 0x20 ADD SWAP2 PUSH2 0x671 JUMP JUMPDEST DUP3 ADD SWAP2 SWAP1 PUSH1 0x0 MSTORE PUSH1 0x20 PUSH1 0x0 KECCAK256 SWAP1 JUMPDEST DUP2 SLOAD DUP2 MSTORE SWAP1 PUSH1 0x1 ADD SWAP1 PUSH1 0x20 ADD DUP1 DUP4 GT PUSH2 0x654 JUMPI DUP3 SWAP1 SUB PUSH1 0x1F AND DUP3 ADD SWAP2 JUMPDEST POP POP POP POP POP DUP2 MSTORE POP POP DUP2 MSTORE PUSH1 0x20 ADD SWAP1 PUSH1 0x1 ADD SWAP1 PUSH2 0x51F JUMP JUMPDEST POP POP POP POP SWAP1 POP PUSH1 0x0 DUP2 MLOAD SWAP1 POP DUP1 PUSH8 0xFFFFFFFFFFFFFFFF DUP2 GT ISZERO PUSH2 0x6AF JUMPI PUSH2 0x6AE PUSH2 0x16C5 JUMP JUMPDEST JUMPDEST PUSH1 0x40 MLOAD SWAP1 DUP1 DUP3 MSTORE DUP1 PUSH1 0x20 MUL PUSH1 0x20 ADD DUP3 ADD PUSH1 0x40 MSTORE DUP1 ISZERO PUSH2 0x6DD JUMPI DUP2 PUSH1 0x20 ADD PUSH1 0x20 DUP3 MUL DUP1 CALLDATASIZE DUP4 CALLDATACOPY DUP1 DUP3 ADD SWAP2 POP POP SWAP1 POP JUMPDEST POP SWAP8 POP DUP1 PUSH8 0xFFFFFFFFFFFFFFFF DUP2 GT ISZERO PUSH2 0x6FA JUMPI PUSH2 0x6F9 PUSH2 0x16C5 JUMP JUMPDEST JUMPDEST PUSH1 0x40 MLOAD SWAP1 DUP1 DUP3 MSTORE DUP1 PUSH1 0x20 MUL PUSH1 0x20 ADD DUP3 ADD PUSH1 0x40 MSTORE DUP1 ISZERO PUSH2 0x728 JUMPI DUP2 PUSH1 0x20 ADD PUSH1 0x20 DUP3 MUL DUP1 CALLDATASIZE DUP4 CALLDATACOPY DUP1 DUP3 ADD SWAP2 POP POP SWAP1 POP JUMPDEST POP SWAP7 POP DUP1 PUSH8 0xFFFFFFFFFFFFFFFF DUP2 GT ISZERO PUSH2 0x745 JUMPI PUSH2 0x744 PUSH2 0x16C5 JUMP JUMPDEST JUMPDEST PUSH1 0x40 MLOAD SWAP1 DUP1 DUP3 MSTORE DUP1 PUSH1 0x20 MUL PUSH1 0x20 ADD DUP3 ADD PUSH1 0x40 MSTORE DUP1 ISZERO PUSH2 0x778 JUMPI DUP2 PUSH1 0x20 ADD JUMPDEST PUSH1 0x60 DUP2 MSTORE PUSH1 0x20 ADD SWAP1 PUSH1 0x1 SWAP1 SUB SWAP1 DUP2 PUSH2 0x763 JUMPI SWAP1 POP JUMPDEST POP SWAP6 POP DUP1 PUSH8 0xFFFFFFFFFFFFFFFF DUP2 GT ISZERO PUSH2 0x795 JUMPI PUSH2 0x794 PUSH2 0x16C5 JUMP JUMPDEST JUMPDEST PUSH1 0x40 MLOAD SWAP1 DUP1 DUP3 MSTORE DUP1 PUSH1 0x20 MUL PUSH1 0x20 ADD DUP3 ADD PUSH1 0x40 MSTORE DUP1 ISZERO PUSH2 0x7C8 JUMPI DUP2 PUSH1 0x20 ADD JUMPDEST PUSH1 0x60 DUP2 MSTORE PUSH1 0x20 ADD SWAP1 PUSH1 0x1 SWAP1 SUB SWAP1 DUP2 PUSH2 0x7B3 JUMPI SWAP1 POP JUMPDEST POP SWAP5 POP DUP1 PUSH8 0xFFFFFFFFFFFFFFFF DUP2 GT ISZERO PUSH2 0x7E5 JUMPI PUSH2 0x7E4 PUSH2 0x16C5 JUMP JUMPDEST JUMPDEST PUSH1 0x40 MLOAD SWAP1 DUP1 DUP3 MSTORE DUP1 PUSH1 0x20 MUL PUSH1 0x20 ADD DUP3 ADD PUSH1 0x40 MSTORE DUP1 ISZERO PUSH2 0x813 JUMPI DUP2 PUSH1 0x20 ADD PUSH1 0x20 DUP3 MUL DUP1 CALLDATASIZE DUP4 CALLDATACOPY DUP1 DUP3 ADD SWAP2 POP POP SWAP1 POP JUMPDEST POP SWAP4 POP PUSH1 0x0 JUMPDEST DUP2 DUP2 LT ISZERO PUSH2 0x94A JUMPI DUP3 DUP2 DUP2 MLOAD DUP2 LT PUSH2 0x834 JUMPI PUSH2 0x833 PUSH2 0x22A5 JUMP JUMPDEST JUMPDEST PUSH1 0x20 MUL PUSH1 0x20 ADD ADD MLOAD PUSH1 0x0 ADD MLOAD DUP10 DUP3 DUP2 MLOAD DUP2 LT PUSH2 0x853 JUMPI PUSH2 0x852 PUSH2 0x22A5 JUMP JUMPDEST JUMPDEST PUSH1 0x20 MUL PUSH1 0x20 ADD ADD DUP2 DUP2 MSTORE POP POP DUP3 DUP2 DUP2 MLOAD DUP2 LT PUSH2 0x872 JUMPI PUSH2 0x871 PUSH2 0x22A5 JUMP JUMPDEST JUMPDEST PUSH1 0x20 MUL PUSH1 0x20 ADD ADD MLOAD PUSH1 0x20 ADD MLOAD DUP9 DUP3 DUP2 MLOAD DUP2 LT PUSH2 0x891 JUMPI PUSH2 0x890 PUSH2 0x22A5 JUMP JUMPDEST JUMPDEST PUSH1 0x20 MUL PUSH1 0x20 ADD ADD DUP2 DUP2 MSTORE POP POP DUP3 DUP2 DUP2 MLOAD DUP2 LT PUSH2 0x8B0 JUMPI PUSH2 0x8AF PUSH2 0x22A5 JUMP JUMPDEST JUMPDEST PUSH1 0x20 MUL PUSH1 0x20 ADD ADD MLOAD PUSH1 0x40 ADD MLOAD DUP8 DUP3 DUP2 MLOAD DUP2 LT PUSH2 0x8CF JUMPI PUSH2 0x8CE PUSH2 0x22A5 JUMP JUMPDEST JUMPDEST PUSH1 0x20 MUL PUSH1 0x20 ADD ADD DUP2 SWAP1 MSTORE POP DUP3 DUP2 DUP2 MLOAD DUP2 LT PUSH2 0x8ED JUMPI PUSH2 0x8EC PUSH2 0x22A5 JUMP JUMPDEST JUMPDEST PUSH1 0x20 MUL PUSH1 0x20 ADD ADD MLOAD PUSH1 0x60 ADD MLOAD DUP7 DUP3 DUP2 MLOAD DUP2 LT PUSH2 0x90C JUMPI PUSH2 0x90B PUSH2 0x22A5 JUMP JUMPDEST JUMPDEST PUSH1 0x20 MUL PUSH1 0x20 ADD ADD DUP2 SWAP1 MSTORE POP DUP1 DUP6 DUP3 DUP2 MLOAD DUP2 LT PUSH2 0x92B JUMPI PUSH2 0x92A PUSH2 0x22A5 JUMP JUMPDEST JUMPDEST PUSH1 0x20 MUL PUSH1 0x20 ADD ADD DUP2 DUP2 MSTORE POP POP DUP1 DUP1 PUSH2 0x942 SWAP1 PUSH2 0x2363 JUMP JUMPDEST SWAP2 POP POP PUSH2 0x819 JUMP JUMPDEST POP POP POP POP SWAP3 SWAP6 POP SWAP3 SWAP6 SWAP1 SWAP4 POP JUMP JUMPDEST DUP1 PUSH2 0x964 DUP2 PUSH1 0x2 PUSH2 0x13C7 JUMP JUMPDEST PUSH2 0x96D JUMPI PUSH1 0x0 DUP1 REVERT JUMPDEST PUSH1 0x0 PUSH1 0x40 MLOAD DUP1 PUSH1 0x80 ADD PUSH1 0x40 MSTORE DUP1 DUP9 DUP2 MSTORE PUSH1 0x20 ADD DUP8 DUP2 MSTORE PUSH1 0x20 ADD DUP7 DUP2 MSTORE PUSH1 0x20 ADD DUP6 DUP2 MSTORE POP SWAP1 POP PUSH1 0x0 DUP1 DUP10 DUP2 MSTORE PUSH1 0x20 ADD SWAP1 DUP2 MSTORE PUSH1 0x20 ADD PUSH1 0x0 KECCAK256 DUP2 SWAP1 DUP1 PUSH1 0x1 DUP2 SLOAD ADD DUP1 DUP3 SSTORE DUP1 SWAP2 POP POP PUSH1 0x1 SWAP1 SUB SWAP1 PUSH1 0x0 MSTORE PUSH1 0x20 PUSH1 0x0 KECCAK256 SWAP1 PUSH1 0x4 MUL ADD PUSH1 0x0 SWAP1 SWAP2 SWAP1 SWAP2 SWAP1 SWAP2 POP PUSH1 0x0 DUP3 ADD MLOAD DUP2 PUSH1 0x0 ADD SSTORE PUSH1 0x20 DUP3 ADD MLOAD DUP2 PUSH1 0x1 ADD SSTORE PUSH1 0x40 DUP3 ADD MLOAD DUP2 PUSH1 0x2 ADD SWAP1 DUP1 MLOAD SWAP1 PUSH1 0x20 ADD SWAP1 PUSH2 0x9FE SWAP3 SWAP2 SWAP1 PUSH2 0x1492 JUMP JUMPDEST POP PUSH1 0x60 DUP3 ADD MLOAD DUP2 PUSH1 0x3 ADD SWAP1 DUP1 MLOAD SWAP1 PUSH1 0x20 ADD SWAP1 PUSH2 0xA1B SWAP3 SWAP2 SWAP1 PUSH2 0x1492 JUMP JUMPDEST POP POP POP POP POP POP POP POP POP POP POP JUMP JUMPDEST DUP1 PUSH2 0xA34 DUP2 PUSH1 0x3 PUSH2 0x13C7 JUMP JUMPDEST PUSH2 0xA3D JUMPI PUSH1 0x0 DUP1 REVERT JUMPDEST PUSH1 0x1 PUSH1 0x0 SWAP1 SLOAD SWAP1 PUSH2 0x100 EXP SWAP1 DIV PUSH20 0xFFFFFFFFFFFFFFFFFFFFFFFFFFFFFFFFFFFFFFFF AND PUSH20 0xFFFFFFFFFFFFFFFFFFFFFFFFFFFFFFFFFFFFFFFF AND DUP4 PUSH20 0xFFFFFFFFFFFFFFFFFFFFFFFFFFFFFFFFFFFFFFFF AND EQ PUSH2 0xC20 JUMPI PUSH1 0x4 PUSH1 0x0 DUP5 PUSH20 0xFFFFFFFFFFFFFFFFFFFFFFFFFFFFFFFFFFFFFFFF AND PUSH20 0xFFFFFFFFFFFFFFFFFFFFFFFFFFFFFFFFFFFFFFFF AND DUP2 MSTORE PUSH1 0x20 ADD SWAP1 DUP2 MSTORE PUSH1 0x20 ADD PUSH1 0x0 KECCAK256 PUSH1 0x0 PUSH2 0x100 EXP DUP2 SLOAD SWAP1 PUSH1 0xFF MUL NOT AND SWAP1 SSTORE PUSH1 0x5 PUSH1 0x0 DUP5 PUSH20 0xFFFFFFFFFFFFFFFFFFFFFFFFFFFFFFFFFFFFFFFF AND PUSH20 0xFFFFFFFFFFFFFFFFFFFFFFFFFFFFFFFFFFFFFFFF AND DUP2 MSTORE PUSH1 0x20 ADD SWAP1 DUP2 MSTORE PUSH1 0x20 ADD PUSH1 0x0 KECCAK256 PUSH1 0x0 PUSH2 0xB2C SWAP2 SWAP1 PUSH2 0x15A5 JUMP JUMPDEST PUSH1 0x3 PUSH1 0x1 PUSH1 0x3 DUP1 SLOAD SWAP1 POP PUSH2 0xB40 SWAP2 SWAP1 PUSH2 0x2271 JUMP JUMPDEST DUP2 SLOAD DUP2 LT PUSH2 0xB51 JUMPI PUSH2 0xB50 PUSH2 0x22A5 JUMP JUMPDEST JUMPDEST SWAP1 PUSH1 0x0 MSTORE PUSH1 0x20 PUSH1 0x0 KECCAK256 ADD PUSH1 0x0 SWAP1 SLOAD SWAP1 PUSH2 0x100 EXP SWAP1 DIV PUSH20 0xFFFFFFFFFFFFFFFFFFFFFFFFFFFFFFFFFFFFFFFF AND PUSH1 0x3 DUP6 DUP2 SLOAD DUP2 LT PUSH2 0xB90 JUMPI PUSH2 0xB8F PUSH2 0x22A5 JUMP JUMPDEST JUMPDEST SWAP1 PUSH1 0x0 MSTORE PUSH1 0x20 PUSH1 0x0 KECCAK256 ADD PUSH1 0x0 PUSH2 0x100 EXP DUP2 SLOAD DUP2 PUSH20 0xFFFFFFFFFFFFFFFFFFFFFFFFFFFFFFFFFFFFFFFF MUL NOT AND SWAP1 DUP4 PUSH20 0xFFFFFFFFFFFFFFFFFFFFFFFFFFFFFFFFFFFFFFFF AND MUL OR SWAP1 SSTORE POP PUSH1 0x3 DUP1 SLOAD DUP1 PUSH2 0xBEA JUMPI PUSH2 0xBE9 PUSH2 0x2334 JUMP JUMPDEST JUMPDEST PUSH1 0x1 SWAP1 SUB DUP2 DUP2 SWAP1 PUSH1 0x0 MSTORE PUSH1 0x20 PUSH1 0x0 KECCAK256 ADD PUSH1 0x0 PUSH2 0x100 EXP DUP2 SLOAD SWAP1 PUSH20 0xFFFFFFFFFFFFFFFFFFFFFFFFFFFFFFFFFFFFFFFF MUL NOT AND SWAP1 SSTORE SWAP1 SSTORE JUMPDEST POP POP POP POP JUMP JUMPDEST DUP1 PUSH2 0xC32 DUP2 PUSH1 0x3 PUSH2 0x13C7 JUMP JUMPDEST PUSH2 0xC3B JUMPI PUSH1 0x0 DUP1 REVERT JUMPDEST PUSH1 0x1 PUSH1 0x0 SWAP1 SLOAD SWAP1 PUSH2 0x100 EXP SWAP1 DIV PUSH20 0xFFFFFFFFFFFFFFFFFFFFFFFFFFFFFFFFFFFFFFFF AND PUSH20 0xFFFFFFFFFFFFFFFFFFFFFFFFFFFFFFFFFFFFFFFF AND DUP6 PUSH20 0xFFFFFFFFFFFFFFFFFFFFFFFFFFFFFFFFFFFFFFFF AND EQ ISZERO DUP1 PUSH2 0xCCD JUMPI POP PUSH1 0x3 DUP1 DUP2 GT ISZERO PUSH2 0xCA6 JUMPI PUSH2 0xCA5 PUSH2 0x2213 JUMP JUMPDEST JUMPDEST DUP4 PUSH1 0x3 DUP2 GT ISZERO PUSH2 0xCB9 JUMPI PUSH2 0xCB8 PUSH2 0x2213 JUMP JUMPDEST JUMPDEST PUSH1 0x3 DUP2 GT ISZERO PUSH2 0xCCB JUMPI PUSH2 0xCCA PUSH2 0x2213 JUMP JUMPDEST JUMPDEST EQ JUMPDEST ISZERO PUSH2 0xDA0 JUMPI DUP4 PUSH1 0x5 PUSH1 0x0 DUP8 PUSH20 0xFFFFFFFFFFFFFFFFFFFFFFFFFFFFFFFFFFFFFFFF AND PUSH20 0xFFFFFFFFFFFFFFFFFFFFFFFFFFFFFFFFFFFFFFFF AND DUP2 MSTORE PUSH1 0x20 ADD SWAP1 DUP2 MSTORE PUSH1 0x20 ADD PUSH1 0x0 KECCAK256 SWAP1 DUP1 MLOAD SWAP1 PUSH1 0x20 ADD SWAP1 PUSH2 0xD25 SWAP3 SWAP2 SWAP1 PUSH2 0x1492 JUMP JUMPDEST POP DUP3 PUSH1 0x3 DUP2 GT ISZERO PUSH2 0xD39 JUMPI PUSH2 0xD38 PUSH2 0x2213 JUMP JUMPDEST JUMPDEST PUSH1 0x4 PUSH1 0x0 DUP8 PUSH20 0xFFFFFFFFFFFFFFFFFFFFFFFFFFFFFFFFFFFFFFFF AND PUSH20 0xFFFFFFFFFFFFFFFFFFFFFFFFFFFFFFFFFFFFFFFF AND DUP2 MSTORE PUSH1 0x20 ADD SWAP1 DUP2 MSTORE PUSH1 0x20 ADD PUSH1 0x0 KECCAK256 PUSH1 0x0 PUSH2 0x100 EXP DUP2 SLOAD DUP2 PUSH1 0xFF MUL NOT AND SWAP1 DUP4 PUSH1 0x3 DUP2 GT ISZERO PUSH2 0xD9A JUMPI PUSH2 0xD99 PUSH2 0x2213 JUMP JUMPDEST JUMPDEST MUL OR SWAP1 SSTORE POP JUMPDEST POP POP POP POP POP JUMP JUMPDEST PUSH1 0x1 PUSH1 0x0 SWAP1 SLOAD SWAP1 PUSH2 0x100 EXP SWAP1 DIV PUSH20 0xFFFFFFFFFFFFFFFFFFFFFFFFFFFFFFFFFFFFFFFF AND DUP2 JUMP JUMPDEST PUSH1 0x60 DUP1 PUSH1 0x60 DUP4 PUSH2 0xDDE DUP2 PUSH1 0x1 PUSH2 0x13C7 JUMP JUMPDEST PUSH2 0xDE7 JUMPI PUSH1 0x0 DUP1 REVERT JUMPDEST PUSH1 0x0 PUSH1 0x3 DUP1 SLOAD SWAP1 POP SWAP1 POP PUSH1 0x3 DUP1 SLOAD DUP1 PUSH1 0x20 MUL PUSH1 0x20 ADD PUSH1 0x40 MLOAD SWAP1 DUP2 ADD PUSH1 0x40 MSTORE DUP1 SWAP3 SWAP2 SWAP1 DUP2 DUP2 MSTORE PUSH1 0x20 ADD DUP3 DUP1 SLOAD DUP1 ISZERO PUSH2 0xE73 JUMPI PUSH1 0x20 MUL DUP3 ADD SWAP2 SWAP1 PUSH1 0x0 MSTORE PUSH1 0x20 PUSH1 0x0 KECCAK256 SWAP1 JUMPDEST DUP2 PUSH1 0x0 SWAP1 SLOAD SWAP1 PUSH2 0x100 EXP SWAP1 DIV PUSH20 0xFFFFFFFFFFFFFFFFFFFFFFFFFFFFFFFFFFFFFFFF AND PUSH20 0xFFFFFFFFFFFFFFFFFFFFFFFFFFFFFFFFFFFFFFFF AND DUP2 MSTORE PUSH1 0x20 ADD SWAP1 PUSH1 0x1 ADD SWAP1 DUP1 DUP4 GT PUSH2 0xE29 JUMPI JUMPDEST POP POP POP POP POP SWAP5 POP DUP1 PUSH8 0xFFFFFFFFFFFFFFFF DUP2 GT ISZERO PUSH2 0xE94 JUMPI PUSH2 0xE93 PUSH2 0x16C5 JUMP JUMPDEST JUMPDEST PUSH1 0x40 MLOAD SWAP1 DUP1 DUP3 MSTORE DUP1 PUSH1 0x20 MUL PUSH1 0x20 ADD DUP3 ADD PUSH1 0x40 MSTORE DUP1 ISZERO PUSH2 0xEC7 JUMPI DUP2 PUSH1 0x20 ADD JUMPDEST PUSH1 0x60 DUP2 MSTORE PUSH1 0x20 ADD SWAP1 PUSH1 0x1 SWAP1 SUB SWAP1 DUP2 PUSH2 0xEB2 JUMPI SWAP1 POP JUMPDEST POP SWAP4 POP DUP1 PUSH8 0xFFFFFFFFFFFFFFFF DUP2 GT ISZERO PUSH2 0xEE4 JUMPI PUSH2 0xEE3 PUSH2 0x16C5 JUMP JUMPDEST JUMPDEST PUSH1 0x40 MLOAD SWAP1 DUP1 DUP3 MSTORE DUP1 PUSH1 0x20 MUL PUSH1 0x20 ADD DUP3 ADD PUSH1 0x40 MSTORE DUP1 ISZERO PUSH2 0xF12 JUMPI DUP2 PUSH1 0x20 ADD PUSH1 0x20 DUP3 MUL DUP1 CALLDATASIZE DUP4 CALLDATACOPY DUP1 DUP3 ADD SWAP2 POP POP SWAP1 POP JUMPDEST POP SWAP3 POP PUSH1 0x0 JUMPDEST DUP2 DUP2 LT ISZERO PUSH2 0x1113 JUMPI PUSH1 0x5 PUSH1 0x0 PUSH1 0x3 DUP4 DUP2 SLOAD DUP2 LT PUSH2 0xF38 JUMPI PUSH2 0xF37 PUSH2 0x22A5 JUMP JUMPDEST JUMPDEST SWAP1 PUSH1 0x0 MSTORE PUSH1 0x20 PUSH1 0x0 KECCAK256 ADD PUSH1 0x0 SWAP1 SLOAD SWAP1 PUSH2 0x100 EXP SWAP1 DIV PUSH20 0xFFFFFFFFFFFFFFFFFFFFFFFFFFFFFFFFFFFFFFFF AND PUSH20 0xFFFFFFFFFFFFFFFFFFFFFFFFFFFFFFFFFFFFFFFF AND PUSH20 0xFFFFFFFFFFFFFFFFFFFFFFFFFFFFFFFFFFFFFFFF AND DUP2 MSTORE PUSH1 0x20 ADD SWAP1 DUP2 MSTORE PUSH1 0x20 ADD PUSH1 0x0 KECCAK256 DUP1 SLOAD PUSH2 0xFA8 SWAP1 PUSH2 0x2303 JUMP JUMPDEST DUP1 PUSH1 0x1F ADD PUSH1 0x20 DUP1 SWAP2 DIV MUL PUSH1 0x20 ADD PUSH1 0x40 MLOAD SWAP1 DUP2 ADD PUSH1 0x40 MSTORE DUP1 SWAP3 SWAP2 SWAP1 DUP2 DUP2 MSTORE PUSH1 0x20 ADD DUP3 DUP1 SLOAD PUSH2 0xFD4 SWAP1 PUSH2 0x2303 JUMP JUMPDEST DUP1 ISZERO PUSH2 0x1021 JUMPI DUP1 PUSH1 0x1F LT PUSH2 0xFF6 JUMPI PUSH2 0x100 DUP1 DUP4 SLOAD DIV MUL DUP4 MSTORE SWAP2 PUSH1 0x20 ADD SWAP2 PUSH2 0x1021 JUMP JUMPDEST DUP3 ADD SWAP2 SWAP1 PUSH1 0x0 MSTORE PUSH1 0x20 PUSH1 0x0 KECCAK256 SWAP1 JUMPDEST DUP2 SLOAD DUP2 MSTORE SWAP1 PUSH1 0x1 ADD SWAP1 PUSH1 0x20 ADD DUP1 DUP4 GT PUSH2 0x1004 JUMPI DUP3 SWAP1 SUB PUSH1 0x1F AND DUP3 ADD SWAP2 JUMPDEST POP POP POP POP POP DUP6 DUP3 DUP2 MLOAD DUP2 LT PUSH2 0x1039 JUMPI PUSH2 0x1038 PUSH2 0x22A5 JUMP JUMPDEST JUMPDEST PUSH1 0x20 MUL PUSH1 0x20 ADD ADD DUP2 SWAP1 MSTORE POP PUSH1 0x4 PUSH1 0x0 PUSH1 0x3 DUP4 DUP2 SLOAD DUP2 LT PUSH2 0x105C JUMPI PUSH2 0x105B PUSH2 0x22A5 JUMP JUMPDEST JUMPDEST SWAP1 PUSH1 0x0 MSTORE PUSH1 0x20 PUSH1 0x0 KECCAK256 ADD PUSH1 0x0 SWAP1 SLOAD SWAP1 PUSH2 0x100 EXP SWAP1 DIV PUSH20 0xFFFFFFFFFFFFFFFFFFFFFFFFFFFFFFFFFFFFFFFF AND PUSH20 0xFFFFFFFFFFFFFFFFFFFFFFFFFFFFFFFFFFFFFFFF AND PUSH20 0xFFFFFFFFFFFFFFFFFFFFFFFFFFFFFFFFFFFFFFFF AND DUP2 MSTORE PUSH1 0x20 ADD SWAP1 DUP2 MSTORE PUSH1 0x20 ADD PUSH1 0x0 KECCAK256 PUSH1 0x0 SWAP1 SLOAD SWAP1 PUSH2 0x100 EXP SWAP1 DIV PUSH1 0xFF AND PUSH1 0x3 DUP2 GT ISZERO PUSH2 0x10E1 JUMPI PUSH2 0x10E0 PUSH2 0x2213 JUMP JUMPDEST JUMPDEST DUP5 DUP3 DUP2 MLOAD DUP2 LT PUSH2 0x10F4 JUMPI PUSH2 0x10F3 PUSH2 0x22A5 JUMP JUMPDEST JUMPDEST PUSH1 0x20 MUL PUSH1 0x20 ADD ADD DUP2 DUP2 MSTORE POP POP DUP1 DUP1 PUSH2 0x110B SWAP1 PUSH2 0x2363 JUMP JUMPDEST SWAP2 POP POP PUSH2 0xF18 JUMP JUMPDEST POP POP POP SWAP2 SWAP4 SWAP1 SWAP3 POP JUMP JUMPDEST PUSH1 0x60 DUP2 PUSH2 0x112B DUP2 PUSH1 0x1 PUSH2 0x13C7 JUMP JUMPDEST PUSH2 0x1134 JUMPI PUSH1 0x0 DUP1 REVERT JUMPDEST PUSH1 0x2 DUP1 SLOAD PUSH2 0x1141 SWAP1 PUSH2 0x2303 JUMP JUMPDEST DUP1 PUSH1 0x1F ADD PUSH1 0x20 DUP1 SWAP2 DIV MUL PUSH1 0x20 ADD PUSH1 0x40 MLOAD SWAP1 DUP2 ADD PUSH1 0x40 MSTORE DUP1 SWAP3 SWAP2 SWAP1 DUP2 DUP2 MSTORE PUSH1 0x20 ADD DUP3 DUP1 SLOAD PUSH2 0x116D SWAP1 PUSH2 0x2303 JUMP JUMPDEST DUP1 ISZERO PUSH2 0x11BA JUMPI DUP1 PUSH1 0x1F LT PUSH2 0x118F JUMPI PUSH2 0x100 DUP1 DUP4 SLOAD DIV MUL DUP4 MSTORE SWAP2 PUSH1 0x20 ADD SWAP2 PUSH2 0x11BA JUMP JUMPDEST DUP3 ADD SWAP2 SWAP1 PUSH1 0x0 MSTORE PUSH1 0x20 PUSH1 0x0 KECCAK256 SWAP1 JUMPDEST DUP2 SLOAD DUP2 MSTORE SWAP1 PUSH1 0x1 ADD SWAP1 PUSH1 0x20 ADD DUP1 DUP4 GT PUSH2 0x119D JUMPI DUP3 SWAP1 SUB PUSH1 0x1F AND DUP3 ADD SWAP2 JUMPDEST POP POP POP POP POP SWAP2 POP POP SWAP2 SWAP1 POP JUMP JUMPDEST PUSH1 0x1 PUSH1 0x0 SWAP1 SLOAD SWAP1 PUSH2 0x100 EXP SWAP1 DIV PUSH20 0xFFFFFFFFFFFFFFFFFFFFFFFFFFFFFFFFFFFFFFFF AND PUSH20 0xFFFFFFFFFFFFFFFFFFFFFFFFFFFFFFFFFFFFFFFF AND CALLER PUSH20 0xFFFFFFFFFFFFFFFFFFFFFFFFFFFFFFFFFFFFFFFF AND EQ PUSH2 0x1221 JUMPI PUSH1 0x0 DUP1 REVERT JUMPDEST DUP1 PUSH1 0x1 PUSH1 0x0 PUSH2 0x100 EXP DUP2 SLOAD DUP2 PUSH20 0xFFFFFFFFFFFFFFFFFFFFFFFFFFFFFFFFFFFFFFFF MUL NOT AND SWAP1 DUP4 PUSH20 0xFFFFFFFFFFFFFFFFFFFFFFFFFFFFFFFFFFFFFFFF AND MUL OR SWAP1 SSTORE POP PUSH1 0x3 PUSH1 0x4 PUSH1 0x0 DUP4 PUSH20 0xFFFFFFFFFFFFFFFFFFFFFFFFFFFFFFFFFFFFFFFF AND PUSH20 0xFFFFFFFFFFFFFFFFFFFFFFFFFFFFFFFFFFFFFFFF AND DUP2 MSTORE PUSH1 0x20 ADD SWAP1 DUP2 MSTORE PUSH1 0x20 ADD PUSH1 0x0 KECCAK256 PUSH1 0x0 PUSH2 0x100 EXP DUP2 SLOAD DUP2 PUSH1 0xFF MUL NOT AND SWAP1 DUP4 PUSH1 0x3 DUP2 GT ISZERO PUSH2 0x12C5 JUMPI PUSH2 0x12C4 PUSH2 0x2213 JUMP JUMPDEST JUMPDEST MUL OR SWAP1 SSTORE POP POP JUMP JUMPDEST DUP1 PUSH2 0x12D9 DUP2 PUSH1 0x3 PUSH2 0x13C7 JUMP JUMPDEST PUSH2 0x12E2 JUMPI PUSH1 0x0 DUP1 REVERT JUMPDEST DUP3 PUSH1 0x2 SWAP1 DUP1 MLOAD SWAP1 PUSH1 0x20 ADD SWAP1 PUSH2 0x12F8 SWAP3 SWAP2 SWAP1 PUSH2 0x1492 JUMP JUMPDEST POP POP POP POP JUMP JUMPDEST DUP1 PUSH2 0x130A DUP2 PUSH1 0x2 PUSH2 0x13C7 JUMP JUMPDEST PUSH2 0x1313 JUMPI PUSH1 0x0 DUP1 REVERT JUMPDEST PUSH1 0x0 PUSH1 0x40 MLOAD DUP1 PUSH1 0x80 ADD PUSH1 0x40 MSTORE DUP1 DUP9 DUP2 MSTORE PUSH1 0x20 ADD DUP8 DUP2 MSTORE PUSH1 0x20 ADD DUP7 DUP2 MSTORE PUSH1 0x20 ADD DUP6 DUP2 MSTORE POP SWAP1 POP DUP1 PUSH1 0x0 DUP1 DUP12 DUP2 MSTORE PUSH1 0x20 ADD SWAP1 DUP2 MSTORE PUSH1 0x20 ADD PUSH1 0x0 KECCAK256 DUP10 DUP2 SLOAD DUP2 LT PUSH2 0x135D JUMPI PUSH2 0x135C PUSH2 0x22A5 JUMP JUMPDEST JUMPDEST SWAP1 PUSH1 0x0 MSTORE PUSH1 0x20 PUSH1 0x0 KECCAK256 SWAP1 PUSH1 0x4 MUL ADD PUSH1 0x0 DUP3 ADD MLOAD DUP2 PUSH1 0x0 ADD SSTORE PUSH1 0x20 DUP3 ADD MLOAD DUP2 PUSH1 0x1 ADD SSTORE PUSH1 0x40 DUP3 ADD MLOAD DUP2 PUSH1 0x2 ADD SWAP1 DUP1 MLOAD SWAP1 PUSH1 0x20 ADD SWAP1 PUSH2 0x139B SWAP3 SWAP2 SWAP1 PUSH2 0x1492 JUMP JUMPDEST POP PUSH1 0x60 DUP3 ADD MLOAD DUP2 PUSH1 0x3 ADD SWAP1 DUP1 MLOAD SWAP1 PUSH1 0x20 ADD SWAP1 PUSH2 0x13B8 SWAP3 SWAP2 SWAP1 PUSH2 0x1492 JUMP JUMPDEST POP SWAP1 POP POP POP POP POP POP POP POP POP POP POP JUMP JUMPDEST PUSH1 0x0 DUP1 PUSH1 0x0 SWAP1 POP JUMPDEST DUP4 MLOAD DUP2 LT ISZERO PUSH2 0x1486 JUMPI DUP3 PUSH1 0x3 DUP2 GT ISZERO PUSH2 0x13EB JUMPI PUSH2 0x13EA PUSH2 0x2213 JUMP JUMPDEST JUMPDEST PUSH1 0x4 PUSH1 0x0 DUP7 DUP5 DUP2 MLOAD DUP2 LT PUSH2 0x1402 JUMPI PUSH2 0x1401 PUSH2 0x22A5 JUMP JUMPDEST JUMPDEST PUSH1 0x20 MUL PUSH1 0x20 ADD ADD MLOAD PUSH20 0xFFFFFFFFFFFFFFFFFFFFFFFFFFFFFFFFFFFFFFFF AND PUSH20 0xFFFFFFFFFFFFFFFFFFFFFFFFFFFFFFFFFFFFFFFF AND DUP2 MSTORE PUSH1 0x20 ADD SWAP1 DUP2 MSTORE PUSH1 0x20 ADD PUSH1 0x0 KECCAK256 PUSH1 0x0 SWAP1 SLOAD SWAP1 PUSH2 0x100 EXP SWAP1 DIV PUSH1 0xFF AND PUSH1 0x3 DUP2 GT ISZERO PUSH2 0x1464 JUMPI PUSH2 0x1463 PUSH2 0x2213 JUMP JUMPDEST JUMPDEST LT PUSH2 0x1473 JUMPI PUSH1 0x1 SWAP2 POP POP PUSH2 0x148C JUMP JUMPDEST DUP1 DUP1 PUSH2 0x147E SWAP1 PUSH2 0x2363 JUMP JUMPDEST SWAP2 POP POP PUSH2 0x13CF JUMP JUMPDEST POP PUSH1 0x0 SWAP1 POP JUMPDEST SWAP3 SWAP2 POP POP JUMP JUMPDEST DUP3 DUP1 SLOAD PUSH2 0x149E SWAP1 PUSH2 0x2303 JUMP JUMPDEST SWAP1 PUSH1 0x0 MSTORE PUSH1 0x20 PUSH1 0x0 KECCAK256 SWAP1 PUSH1 0x1F ADD PUSH1 0x20 SWAP1 DIV DUP2 ADD SWAP3 DUP3 PUSH2 0x14C0 JUMPI PUSH1 0x0 DUP6 SSTORE PUSH2 0x1507 JUMP JUMPDEST DUP3 PUSH1 0x1F LT PUSH2 0x14D9 JUMPI DUP1 MLOAD PUSH1 0xFF NOT AND DUP4 DUP1 ADD OR DUP6 SSTORE PUSH2 0x1507 JUMP JUMPDEST DUP3 DUP1 ADD PUSH1 0x1 ADD DUP6 SSTORE DUP3 ISZERO PUSH2 0x1507 JUMPI SWAP2 DUP3 ADD JUMPDEST DUP3 DUP2 GT ISZERO PUSH2 0x1506 JUMPI DUP3 MLOAD DUP3 SSTORE SWAP2 PUSH1 0x20 ADD SWAP2 SWAP1 PUSH1 0x1 ADD SWAP1 PUSH2 0x14EB JUMP JUMPDEST JUMPDEST POP SWAP1 POP PUSH2 0x1514 SWAP2 SWAP1 PUSH2 0x15E5 JUMP JUMPDEST POP SWAP1 JUMP JUMPDEST DUP3 DUP1 SLOAD PUSH2 0x1524 SWAP1 PUSH2 0x2303 JUMP JUMPDEST SWAP1 PUSH1 0x0 MSTORE PUSH1 0x20 PUSH1 0x0 KECCAK256 SWAP1 PUSH1 0x1F ADD PUSH1 0x20 SWAP1 DIV DUP2 ADD SWAP3 DUP3 PUSH2 0x1546 JUMPI PUSH1 0x0 DUP6 SSTORE PUSH2 0x1594 JUMP JUMPDEST DUP3 PUSH1 0x1F LT PUSH2 0x1557 JUMPI DUP1 SLOAD DUP6 SSTORE PUSH2 0x1594 JUMP JUMPDEST DUP3 DUP1 ADD PUSH1 0x1 ADD DUP6 SSTORE DUP3 ISZERO PUSH2 0x1594 JUMPI PUSH1 0x0 MSTORE PUSH1 0x20 PUSH1 0x0 KECCAK256 SWAP2 PUSH1 0x1F ADD PUSH1 0x20 SWAP1 DIV DUP3 ADD JUMPDEST DUP3 DUP2 GT ISZERO PUSH2 0x1593 JUMPI DUP3 SLOAD DUP3 SSTORE SWAP2 PUSH1 0x1 ADD SWAP2 SWAP1 PUSH1 0x1 ADD SWAP1 PUSH2 0x1578 JUMP JUMPDEST JUMPDEST POP SWAP1 POP PUSH2 0x15A1 SWAP2 SWAP1 PUSH2 0x15E5 JUMP JUMPDEST POP SWAP1 JUMP JUMPDEST POP DUP1 SLOAD PUSH2 0x15B1 SWAP1 PUSH2 0x2303 JUMP JUMPDEST PUSH1 0x0 DUP3 SSTORE DUP1 PUSH1 0x1F LT PUSH2 0x15C3 JUMPI POP PUSH2 0x15E2 JUMP JUMPDEST PUSH1 0x1F ADD PUSH1 0x20 SWAP1 DIV SWAP1 PUSH1 0x0 MSTORE PUSH1 0x20 PUSH1 0x0 KECCAK256 SWAP1 DUP2 ADD SWAP1 PUSH2 0x15E1 SWAP2 SWAP1 PUSH2 0x15E5 JUMP JUMPDEST JUMPDEST POP JUMP JUMPDEST JUMPDEST DUP1 DUP3 GT ISZERO PUSH2 0x15FE JUMPI PUSH1 0x0 DUP2 PUSH1 0x0 SWAP1 SSTORE POP PUSH1 0x1 ADD PUSH2 0x15E6 JUMP JUMPDEST POP SWAP1 JUMP JUMPDEST PUSH1 0x0 PUSH1 0x40 MLOAD SWAP1 POP SWAP1 JUMP JUMPDEST PUSH1 0x0 DUP1 REVERT JUMPDEST PUSH1 0x0 DUP1 REVERT JUMPDEST PUSH1 0x0 PUSH20 0xFFFFFFFFFFFFFFFFFFFFFFFFFFFFFFFFFFFFFFFF DUP3 AND SWAP1 POP SWAP2 SWAP1 POP JUMP JUMPDEST PUSH1 0x0 PUSH2 0x1641 DUP3 PUSH2 0x1616 JUMP JUMPDEST SWAP1 POP SWAP2 SWAP1 POP JUMP JUMPDEST PUSH2 0x1651 DUP2 PUSH2 0x1636 JUMP JUMPDEST DUP2 EQ PUSH2 0x165C JUMPI PUSH1 0x0 DUP1 REVERT JUMPDEST POP JUMP JUMPDEST PUSH1 0x0 DUP2 CALLDATALOAD SWAP1 POP PUSH2 0x166E DUP2 PUSH2 0x1648 JUMP JUMPDEST SWAP3 SWAP2 POP POP JUMP JUMPDEST PUSH1 0x0 DUP2 SWAP1 POP SWAP2 SWAP1 POP JUMP JUMPDEST PUSH2 0x1687 DUP2 PUSH2 0x1674 JUMP JUMPDEST DUP2 EQ PUSH2 0x1692 JUMPI PUSH1 0x0 DUP1 REVERT JUMPDEST POP JUMP JUMPDEST PUSH1 0x0 DUP2 CALLDATALOAD SWAP1 POP PUSH2 0x16A4 DUP2 PUSH2 0x167E JUMP JUMPDEST SWAP3 SWAP2 POP POP JUMP JUMPDEST PUSH1 0x0 DUP1 REVERT JUMPDEST PUSH1 0x0 DUP1 REVERT JUMPDEST PUSH1 0x0 PUSH1 0x1F NOT PUSH1 0x1F DUP4 ADD AND SWAP1 POP SWAP2 SWAP1 POP JUMP JUMPDEST PUSH32 0x4E487B7100000000000000000000000000000000000000000000000000000000 PUSH1 0x0 MSTORE PUSH1 0x41 PUSH1 0x4 MSTORE PUSH1 0x24 PUSH1 0x0 REVERT JUMPDEST PUSH2 0x16FD DUP3 PUSH2 0x16B4 JUMP JUMPDEST DUP2 ADD DUP2 DUP2 LT PUSH8 0xFFFFFFFFFFFFFFFF DUP3 GT OR ISZERO PUSH2 0x171C JUMPI PUSH2 0x171B PUSH2 0x16C5 JUMP JUMPDEST JUMPDEST DUP1 PUSH1 0x40 MSTORE POP POP POP JUMP JUMPDEST PUSH1 0x0 PUSH2 0x172F PUSH2 0x1602 JUMP JUMPDEST SWAP1 POP PUSH2 0x173B DUP3 DUP3 PUSH2 0x16F4 JUMP JUMPDEST SWAP2 SWAP1 POP JUMP JUMPDEST PUSH1 0x0 PUSH8 0xFFFFFFFFFFFFFFFF DUP3 GT ISZERO PUSH2 0x175B JUMPI PUSH2 0x175A PUSH2 0x16C5 JUMP JUMPDEST JUMPDEST PUSH2 0x1764 DUP3 PUSH2 0x16B4 JUMP JUMPDEST SWAP1 POP PUSH1 0x20 DUP2 ADD SWAP1 POP SWAP2 SWAP1 POP JUMP JUMPDEST DUP3 DUP2 DUP4 CALLDATACOPY PUSH1 0x0 DUP4 DUP4 ADD MSTORE POP POP POP JUMP JUMPDEST PUSH1 0x0 PUSH2 0x1793 PUSH2 0x178E DUP5 PUSH2 0x1740 JUMP JUMPDEST PUSH2 0x1725 JUMP JUMPDEST SWAP1 POP DUP3 DUP2 MSTORE PUSH1 0x20 DUP2 ADD DUP5 DUP5 DUP5 ADD GT ISZERO PUSH2 0x17AF JUMPI PUSH2 0x17AE PUSH2 0x16AF JUMP JUMPDEST JUMPDEST PUSH2 0x17BA DUP5 DUP3 DUP6 PUSH2 0x1771 JUMP JUMPDEST POP SWAP4 SWAP3 POP POP POP JUMP JUMPDEST PUSH1 0x0 DUP3 PUSH1 0x1F DUP4 ADD SLT PUSH2 0x17D7 JUMPI PUSH2 0x17D6 PUSH2 0x16AA JUMP JUMPDEST JUMPDEST DUP2 CALLDATALOAD PUSH2 0x17E7 DUP5 DUP3 PUSH1 0x20 DUP7 ADD PUSH2 0x1780 JUMP JUMPDEST SWAP2 POP POP SWAP3 SWAP2 POP POP JUMP JUMPDEST PUSH1 0x0 PUSH8 0xFFFFFFFFFFFFFFFF DUP3 GT ISZERO PUSH2 0x180B JUMPI PUSH2 0x180A PUSH2 0x16C5 JUMP JUMPDEST JUMPDEST PUSH1 0x20 DUP3 MUL SWAP1 POP PUSH1 0x20 DUP2 ADD SWAP1 POP SWAP2 SWAP1 POP JUMP JUMPDEST PUSH1 0x0 DUP1 REVERT JUMPDEST PUSH1 0x0 PUSH2 0x1834 PUSH2 0x182F DUP5 PUSH2 0x17F0 JUMP JUMPDEST PUSH2 0x1725 JUMP JUMPDEST SWAP1 POP DUP1 DUP4 DUP3 MSTORE PUSH1 0x20 DUP3 ADD SWAP1 POP PUSH1 0x20 DUP5 MUL DUP4 ADD DUP6 DUP2 GT ISZERO PUSH2 0x1857 JUMPI PUSH2 0x1856 PUSH2 0x181C JUMP JUMPDEST JUMPDEST DUP4 JUMPDEST DUP2 DUP2 LT ISZERO PUSH2 0x1880 JUMPI DUP1 PUSH2 0x186C DUP9 DUP3 PUSH2 0x165F JUMP JUMPDEST DUP5 MSTORE PUSH1 0x20 DUP5 ADD SWAP4 POP POP PUSH1 0x20 DUP2 ADD SWAP1 POP PUSH2 0x1859 JUMP JUMPDEST POP POP POP SWAP4 SWAP3 POP POP POP JUMP JUMPDEST PUSH1 0x0 DUP3 PUSH1 0x1F DUP4 ADD SLT PUSH2 0x189F JUMPI PUSH2 0x189E PUSH2 0x16AA JUMP JUMPDEST JUMPDEST DUP2 CALLDATALOAD PUSH2 0x18AF DUP5 DUP3 PUSH1 0x20 DUP7 ADD PUSH2 0x1821 JUMP JUMPDEST SWAP2 POP POP SWAP3 SWAP2 POP POP JUMP JUMPDEST PUSH1 0x0 DUP1 PUSH1 0x0 DUP1 PUSH1 0x80 DUP6 DUP8 SUB SLT ISZERO PUSH2 0x18D2 JUMPI PUSH2 0x18D1 PUSH2 0x160C JUMP JUMPDEST JUMPDEST PUSH1 0x0 PUSH2 0x18E0 DUP8 DUP3 DUP9 ADD PUSH2 0x165F JUMP JUMPDEST SWAP5 POP POP PUSH1 0x20 PUSH2 0x18F1 DUP8 DUP3 DUP9 ADD PUSH2 0x1695 JUMP JUMPDEST SWAP4 POP POP PUSH1 0x40 DUP6 ADD CALLDATALOAD PUSH8 0xFFFFFFFFFFFFFFFF DUP2 GT ISZERO PUSH2 0x1912 JUMPI PUSH2 0x1911 PUSH2 0x1611 JUMP JUMPDEST JUMPDEST PUSH2 0x191E DUP8 DUP3 DUP9 ADD PUSH2 0x17C2 JUMP JUMPDEST SWAP3 POP POP PUSH1 0x60 DUP6 ADD CALLDATALOAD PUSH8 0xFFFFFFFFFFFFFFFF DUP2 GT ISZERO PUSH2 0x193F JUMPI PUSH2 0x193E PUSH2 0x1611 JUMP JUMPDEST JUMPDEST PUSH2 0x194B DUP8 DUP3 DUP9 ADD PUSH2 0x188A JUMP JUMPDEST SWAP2 POP POP SWAP3 SWAP6 SWAP2 SWAP5 POP SWAP3 POP JUMP JUMPDEST PUSH1 0x0 DUP1 PUSH1 0x0 PUSH1 0x60 DUP5 DUP7 SUB SLT ISZERO PUSH2 0x1970 JUMPI PUSH2 0x196F PUSH2 0x160C JUMP JUMPDEST JUMPDEST PUSH1 0x0 PUSH2 0x197E DUP7 DUP3 DUP8 ADD PUSH2 0x1695 JUMP JUMPDEST SWAP4 POP POP PUSH1 0x20 PUSH2 0x198F DUP7 DUP3 DUP8 ADD PUSH2 0x1695 JUMP JUMPDEST SWAP3 POP POP PUSH1 0x40 DUP5 ADD CALLDATALOAD PUSH8 0xFFFFFFFFFFFFFFFF DUP2 GT ISZERO PUSH2 0x19B0 JUMPI PUSH2 0x19AF PUSH2 0x1611 JUMP JUMPDEST JUMPDEST PUSH2 0x19BC DUP7 DUP3 DUP8 ADD PUSH2 0x188A JUMP JUMPDEST SWAP2 POP POP SWAP3 POP SWAP3 POP SWAP3 JUMP JUMPDEST PUSH1 0x0 DUP1 PUSH1 0x40 DUP4 DUP6 SUB SLT ISZERO PUSH2 0x19DD JUMPI PUSH2 0x19DC PUSH2 0x160C JUMP JUMPDEST JUMPDEST PUSH1 0x0 PUSH2 0x19EB DUP6 DUP3 DUP7 ADD PUSH2 0x1695 JUMP JUMPDEST SWAP3 POP POP PUSH1 0x20 DUP4 ADD CALLDATALOAD PUSH8 0xFFFFFFFFFFFFFFFF DUP2 GT ISZERO PUSH2 0x1A0C JUMPI PUSH2 0x1A0B PUSH2 0x1611 JUMP JUMPDEST JUMPDEST PUSH2 0x1A18 DUP6 DUP3 DUP7 ADD PUSH2 0x188A JUMP JUMPDEST SWAP2 POP POP SWAP3 POP SWAP3 SWAP1 POP JUMP JUMPDEST PUSH1 0x0 DUP2 MLOAD SWAP1 POP SWAP2 SWAP1 POP JUMP JUMPDEST PUSH1 0x0 DUP3 DUP3 MSTORE PUSH1 0x20 DUP3 ADD SWAP1 POP SWAP3 SWAP2 POP POP JUMP JUMPDEST PUSH1 0x0 DUP2 SWAP1 POP PUSH1 0x20 DUP3 ADD SWAP1 POP SWAP2 SWAP1 POP JUMP JUMPDEST PUSH2 0x1A57 DUP2 PUSH2 0x1674 JUMP JUMPDEST DUP3 MSTORE POP POP JUMP JUMPDEST PUSH1 0x0 PUSH2 0x1A69 DUP4 DUP4 PUSH2 0x1A4E JUMP JUMPDEST PUSH1 0x20 DUP4 ADD SWAP1 POP SWAP3 SWAP2 POP POP JUMP JUMPDEST PUSH1 0x0 PUSH1 0x20 DUP3 ADD SWAP1 POP SWAP2 SWAP1 POP JUMP JUMPDEST PUSH1 0x0 PUSH2 0x1A8D DUP3 PUSH2 0x1A22 JUMP JUMPDEST PUSH2 0x1A97 DUP2 DUP6 PUSH2 0x1A2D JUMP JUMPDEST SWAP4 POP PUSH2 0x1AA2 DUP4 PUSH2 0x1A3E JUMP JUMPDEST DUP1 PUSH1 0x0 JUMPDEST DUP4 DUP2 LT ISZERO PUSH2 0x1AD3 JUMPI DUP2 MLOAD PUSH2 0x1ABA DUP9 DUP3 PUSH2 0x1A5D JUMP JUMPDEST SWAP8 POP PUSH2 0x1AC5 DUP4 PUSH2 0x1A75 JUMP JUMPDEST SWAP3 POP POP PUSH1 0x1 DUP2 ADD SWAP1 POP PUSH2 0x1AA6 JUMP JUMPDEST POP DUP6 SWAP4 POP POP POP POP SWAP3 SWAP2 POP POP JUMP JUMPDEST PUSH1 0x0 DUP2 MLOAD SWAP1 POP SWAP2 SWAP1 POP JUMP JUMPDEST PUSH1 0x0 DUP3 DUP3 MSTORE PUSH1 0x20 DUP3 ADD SWAP1 POP SWAP3 SWAP2 POP POP JUMP JUMPDEST PUSH1 0x0 DUP2 SWAP1 POP PUSH1 0x20 DUP3 ADD SWAP1 POP SWAP2 SWAP1 POP JUMP JUMPDEST PUSH1 0x0 DUP2 MLOAD SWAP1 POP SWAP2 SWAP1 POP JUMP JUMPDEST PUSH1 0x0 DUP3 DUP3 MSTORE PUSH1 0x20 DUP3 ADD SWAP1 POP SWAP3 SWAP2 POP POP JUMP JUMPDEST PUSH1 0x0 JUMPDEST DUP4 DUP2 LT ISZERO PUSH2 0x1B46 JUMPI DUP1 DUP3 ADD MLOAD DUP2 DUP5 ADD MSTORE PUSH1 0x20 DUP2 ADD SWAP1 POP PUSH2 0x1B2B JUMP JUMPDEST DUP4 DUP2 GT ISZERO PUSH2 0x1B55 JUMPI PUSH1 0x0 DUP5 DUP5 ADD MSTORE JUMPDEST POP POP POP POP JUMP JUMPDEST PUSH1 0x0 PUSH2 0x1B66 DUP3 PUSH2 0x1B0C JUMP JUMPDEST PUSH2 0x1B70 DUP2 DUP6 PUSH2 0x1B17 JUMP JUMPDEST SWAP4 POP PUSH2 0x1B80 DUP2 DUP6 PUSH1 0x20 DUP7 ADD PUSH2 0x1B28 JUMP JUMPDEST PUSH2 0x1B89 DUP2 PUSH2 0x16B4 JUMP JUMPDEST DUP5 ADD SWAP2 POP POP SWAP3 SWAP2 POP POP JUMP JUMPDEST PUSH1 0x0 PUSH2 0x1BA0 DUP4 DUP4 PUSH2 0x1B5B JUMP JUMPDEST SWAP1 POP SWAP3 SWAP2 POP POP JUMP JUMPDEST PUSH1 0x0 PUSH1 0x20 DUP3 ADD SWAP1 POP SWAP2 SWAP1 POP JUMP JUMPDEST PUSH1 0x0 PUSH2 0x1BC0 DUP3 PUSH2 0x1AE0 JUMP JUMPDEST PUSH2 0x1BCA DUP2 DUP6 PUSH2 0x1AEB JUMP JUMPDEST SWAP4 POP DUP4 PUSH1 0x20 DUP3 MUL DUP6 ADD PUSH2 0x1BDC DUP6 PUSH2 0x1AFC JUMP JUMPDEST DUP1 PUSH1 0x0 JUMPDEST DUP6 DUP2 LT ISZERO PUSH2 0x1C18 JUMPI DUP5 DUP5 SUB DUP10 MSTORE DUP2 MLOAD PUSH2 0x1BF9 DUP6 DUP3 PUSH2 0x1B94 JUMP JUMPDEST SWAP5 POP PUSH2 0x1C04 DUP4 PUSH2 0x1BA8 JUMP JUMPDEST SWAP3 POP PUSH1 0x20 DUP11 ADD SWAP10 POP POP PUSH1 0x1 DUP2 ADD SWAP1 POP PUSH2 0x1BE0 JUMP JUMPDEST POP DUP3 SWAP8 POP DUP8 SWAP6 POP POP POP POP POP POP SWAP3 SWAP2 POP POP JUMP JUMPDEST PUSH1 0x0 PUSH1 0xA0 DUP3 ADD SWAP1 POP DUP2 DUP2 SUB PUSH1 0x0 DUP4 ADD MSTORE PUSH2 0x1C44 DUP2 DUP9 PUSH2 0x1A82 JUMP JUMPDEST SWAP1 POP DUP2 DUP2 SUB PUSH1 0x20 DUP4 ADD MSTORE PUSH2 0x1C58 DUP2 DUP8 PUSH2 0x1A82 JUMP JUMPDEST SWAP1 POP DUP2 DUP2 SUB PUSH1 0x40 DUP4 ADD MSTORE PUSH2 0x1C6C DUP2 DUP7 PUSH2 0x1BB5 JUMP JUMPDEST SWAP1 POP DUP2 DUP2 SUB PUSH1 0x60 DUP4 ADD MSTORE PUSH2 0x1C80 DUP2 DUP6 PUSH2 0x1BB5 JUMP JUMPDEST SWAP1 POP DUP2 DUP2 SUB PUSH1 0x80 DUP4 ADD MSTORE PUSH2 0x1C94 DUP2 DUP5 PUSH2 0x1A82 JUMP JUMPDEST SWAP1 POP SWAP7 SWAP6 POP POP POP POP POP POP JUMP JUMPDEST PUSH1 0x0 DUP1 PUSH1 0x0 DUP1 PUSH1 0x0 DUP1 PUSH1 0xC0 DUP8 DUP10 SUB SLT ISZERO PUSH2 0x1CBD JUMPI PUSH2 0x1CBC PUSH2 0x160C JUMP JUMPDEST JUMPDEST PUSH1 0x0 PUSH2 0x1CCB DUP10 DUP3 DUP11 ADD PUSH2 0x1695 JUMP JUMPDEST SWAP7 POP POP PUSH1 0x20 PUSH2 0x1CDC DUP10 DUP3 DUP11 ADD PUSH2 0x1695 JUMP JUMPDEST SWAP6 POP POP PUSH1 0x40 PUSH2 0x1CED DUP10 DUP3 DUP11 ADD PUSH2 0x1695 JUMP JUMPDEST SWAP5 POP POP PUSH1 0x60 DUP8 ADD CALLDATALOAD PUSH8 0xFFFFFFFFFFFFFFFF DUP2 GT ISZERO PUSH2 0x1D0E JUMPI PUSH2 0x1D0D PUSH2 0x1611 JUMP JUMPDEST JUMPDEST PUSH2 0x1D1A DUP10 DUP3 DUP11 ADD PUSH2 0x17C2 JUMP JUMPDEST SWAP4 POP POP PUSH1 0x80 DUP8 ADD CALLDATALOAD PUSH8 0xFFFFFFFFFFFFFFFF DUP2 GT ISZERO PUSH2 0x1D3B JUMPI PUSH2 0x1D3A PUSH2 0x1611 JUMP JUMPDEST JUMPDEST PUSH2 0x1D47 DUP10 DUP3 DUP11 ADD PUSH2 0x17C2 JUMP JUMPDEST SWAP3 POP POP PUSH1 0xA0 DUP8 ADD CALLDATALOAD PUSH8 0xFFFFFFFFFFFFFFFF DUP2 GT ISZERO PUSH2 0x1D68 JUMPI PUSH2 0x1D67 PUSH2 0x1611 JUMP JUMPDEST JUMPDEST PUSH2 0x1D74 DUP10 DUP3 DUP11 ADD PUSH2 0x188A JUMP JUMPDEST SWAP2 POP POP SWAP3 SWAP6 POP SWAP3 SWAP6 POP SWAP3 SWAP6 JUMP JUMPDEST PUSH1 0x0 DUP1 PUSH1 0x0 PUSH1 0x60 DUP5 DUP7 SUB SLT ISZERO PUSH2 0x1D9A JUMPI PUSH2 0x1D99 PUSH2 0x160C JUMP JUMPDEST JUMPDEST PUSH1 0x0 PUSH2 0x1DA8 DUP7 DUP3 DUP8 ADD PUSH2 0x1695 JUMP JUMPDEST SWAP4 POP POP PUSH1 0x20 PUSH2 0x1DB9 DUP7 DUP3 DUP8 ADD PUSH2 0x165F JUMP JUMPDEST SWAP3 POP POP PUSH1 0x40 DUP5 ADD CALLDATALOAD PUSH8 0xFFFFFFFFFFFFFFFF DUP2 GT ISZERO PUSH2 0x1DDA JUMPI PUSH2 0x1DD9 PUSH2 0x1611 JUMP JUMPDEST JUMPDEST PUSH2 0x1DE6 DUP7 DUP3 DUP8 ADD PUSH2 0x188A JUMP JUMPDEST SWAP2 POP POP SWAP3 POP SWAP3 POP SWAP3 JUMP JUMPDEST PUSH1 0x0 DUP1 PUSH1 0x0 DUP1 PUSH1 0x80 DUP6 DUP8 SUB SLT ISZERO PUSH2 0x1E0A JUMPI PUSH2 0x1E09 PUSH2 0x160C JUMP JUMPDEST JUMPDEST PUSH1 0x0 PUSH2 0x1E18 DUP8 DUP3 DUP9 ADD PUSH2 0x165F JUMP JUMPDEST SWAP5 POP POP PUSH1 0x20 DUP6 ADD CALLDATALOAD PUSH8 0xFFFFFFFFFFFFFFFF DUP2 GT ISZERO PUSH2 0x1E39 JUMPI PUSH2 0x1E38 PUSH2 0x1611 JUMP JUMPDEST JUMPDEST PUSH2 0x1E45 DUP8 DUP3 DUP9 ADD PUSH2 0x17C2 JUMP JUMPDEST SWAP4 POP POP PUSH1 0x40 PUSH2 0x1E56 DUP8 DUP3 DUP9 ADD PUSH2 0x1695 JUMP JUMPDEST SWAP3 POP POP PUSH1 0x60 DUP6 ADD CALLDATALOAD PUSH8 0xFFFFFFFFFFFFFFFF DUP2 GT ISZERO PUSH2 0x1E77 JUMPI PUSH2 0x1E76 PUSH2 0x1611 JUMP JUMPDEST JUMPDEST PUSH2 0x1E83 DUP8 DUP3 DUP9 ADD PUSH2 0x188A JUMP JUMPDEST SWAP2 POP POP SWAP3 SWAP6 SWAP2 SWAP5 POP SWAP3 POP JUMP JUMPDEST PUSH2 0x1E98 DUP2 PUSH2 0x1636 JUMP JUMPDEST DUP3 MSTORE POP POP JUMP JUMPDEST PUSH1 0x0 PUSH1 0x20 DUP3 ADD SWAP1 POP PUSH2 0x1EB3 PUSH1 0x0 DUP4 ADD DUP5 PUSH2 0x1E8F JUMP JUMPDEST SWAP3 SWAP2 POP POP JUMP JUMPDEST PUSH1 0x0 PUSH1 0x20 DUP3 DUP5 SUB SLT ISZERO PUSH2 0x1ECF JUMPI PUSH2 0x1ECE PUSH2 0x160C JUMP JUMPDEST JUMPDEST PUSH1 0x0 DUP3 ADD CALLDATALOAD PUSH8 0xFFFFFFFFFFFFFFFF DUP2 GT ISZERO PUSH2 0x1EED JUMPI PUSH2 0x1EEC PUSH2 0x1611 JUMP JUMPDEST JUMPDEST PUSH2 0x1EF9 DUP5 DUP3 DUP6 ADD PUSH2 0x188A JUMP JUMPDEST SWAP2 POP POP SWAP3 SWAP2 POP POP JUMP JUMPDEST PUSH1 0x0 DUP2 MLOAD SWAP1 POP SWAP2 SWAP1 POP JUMP JUMPDEST PUSH1 0x0 DUP3 DUP3 MSTORE PUSH1 0x20 DUP3 ADD SWAP1 POP SWAP3 SWAP2 POP POP JUMP JUMPDEST PUSH1 0x0 DUP2 SWAP1 POP PUSH1 0x20 DUP3 ADD SWAP1 POP SWAP2 SWAP1 POP JUMP JUMPDEST PUSH2 0x1F37 DUP2 PUSH2 0x1636 JUMP JUMPDEST DUP3 MSTORE POP POP JUMP JUMPDEST PUSH1 0x0 PUSH2 0x1F49 DUP4 DUP4 PUSH2 0x1F2E JUMP JUMPDEST PUSH1 0x20 DUP4 ADD SWAP1 POP SWAP3 SWAP2 POP POP JUMP JUMPDEST PUSH1 0x0 PUSH1 0x20 DUP3 ADD SWAP1 POP SWAP2 SWAP1 POP JUMP JUMPDEST PUSH1 0x0 PUSH2 0x1F6D DUP3 PUSH2 0x1F02 JUMP JUMPDEST PUSH2 0x1F77 DUP2 DUP6 PUSH2 0x1F0D JUMP JUMPDEST SWAP4 POP PUSH2 0x1F82 DUP4 PUSH2 0x1F1E JUMP JUMPDEST DUP1 PUSH1 0x0 JUMPDEST DUP4 DUP2 LT ISZERO PUSH2 0x1FB3 JUMPI DUP2 MLOAD PUSH2 0x1F9A DUP9 DUP3 PUSH2 0x1F3D JUMP JUMPDEST SWAP8 POP PUSH2 0x1FA5 DUP4 PUSH2 0x1F55 JUMP JUMPDEST SWAP3 POP POP PUSH1 0x1 DUP2 ADD SWAP1 POP PUSH2 0x1F86 JUMP JUMPDEST POP DUP6 SWAP4 POP POP POP POP SWAP3 SWAP2 POP POP JUMP JUMPDEST PUSH1 0x0 PUSH1 0x60 DUP3 ADD SWAP1 POP DUP2 DUP2 SUB PUSH1 0x0 DUP4 ADD MSTORE PUSH2 0x1FDA DUP2 DUP7 PUSH2 0x1F62 JUMP JUMPDEST SWAP1 POP DUP2 DUP2 SUB PUSH1 0x20 DUP4 ADD MSTORE PUSH2 0x1FEE DUP2 DUP6 PUSH2 0x1BB5 JUMP JUMPDEST SWAP1 POP DUP2 DUP2 SUB PUSH1 0x40 DUP4 ADD MSTORE PUSH2 0x2002 DUP2 DUP5 PUSH2 0x1A82 JUMP JUMPDEST SWAP1 POP SWAP5 SWAP4 POP POP POP POP JUMP JUMPDEST PUSH1 0x0 DUP3 DUP3 MSTORE PUSH1 0x20 DUP3 ADD SWAP1 POP SWAP3 SWAP2 POP POP JUMP JUMPDEST PUSH1 0x0 PUSH2 0x2028 DUP3 PUSH2 0x1B0C JUMP JUMPDEST PUSH2 0x2032 DUP2 DUP6 PUSH2 0x200C JUMP JUMPDEST SWAP4 POP PUSH2 0x2042 DUP2 DUP6 PUSH1 0x20 DUP7 ADD PUSH2 0x1B28 JUMP JUMPDEST PUSH2 0x204B DUP2 PUSH2 0x16B4 JUMP JUMPDEST DUP5 ADD SWAP2 POP POP SWAP3 SWAP2 POP POP JUMP JUMPDEST PUSH1 0x0 PUSH1 0x20 DUP3 ADD SWAP1 POP DUP2 DUP2 SUB PUSH1 0x0 DUP4 ADD MSTORE PUSH2 0x2070 DUP2 DUP5 PUSH2 0x201D JUMP JUMPDEST SWAP1 POP SWAP3 SWAP2 POP POP JUMP JUMPDEST PUSH1 0x0 PUSH1 0x20 DUP3 DUP5 SUB SLT ISZERO PUSH2 0x208E JUMPI PUSH2 0x208D PUSH2 0x160C JUMP JUMPDEST JUMPDEST PUSH1 0x0 PUSH2 0x209C DUP5 DUP3 DUP6 ADD PUSH2 0x165F JUMP JUMPDEST SWAP2 POP POP SWAP3 SWAP2 POP POP JUMP JUMPDEST PUSH1 0x0 DUP1 PUSH1 0x40 DUP4 DUP6 SUB SLT ISZERO PUSH2 0x20BC JUMPI PUSH2 0x20BB PUSH2 0x160C JUMP JUMPDEST JUMPDEST PUSH1 0x0 DUP4 ADD CALLDATALOAD PUSH8 0xFFFFFFFFFFFFFFFF DUP2 GT ISZERO PUSH2 0x20DA JUMPI PUSH2 0x20D9 PUSH2 0x1611 JUMP JUMPDEST JUMPDEST PUSH2 0x20E6 DUP6 DUP3 DUP7 ADD PUSH2 0x17C2 JUMP JUMPDEST SWAP3 POP POP PUSH1 0x20 DUP4 ADD CALLDATALOAD PUSH8 0xFFFFFFFFFFFFFFFF DUP2 GT ISZERO PUSH2 0x2107 JUMPI PUSH2 0x2106 PUSH2 0x1611 JUMP JUMPDEST JUMPDEST PUSH2 0x2113 DUP6 DUP3 DUP7 ADD PUSH2 0x188A JUMP JUMPDEST SWAP2 POP POP SWAP3 POP SWAP3 SWAP1 POP JUMP JUMPDEST PUSH1 0x0 DUP1 PUSH1 0x0 DUP1 PUSH1 0x0 DUP1 PUSH1 0x0 PUSH1 0xE0 DUP9 DUP11 SUB SLT ISZERO PUSH2 0x213C JUMPI PUSH2 0x213B PUSH2 0x160C JUMP JUMPDEST JUMPDEST PUSH1 0x0 PUSH2 0x214A DUP11 DUP3 DUP12 ADD PUSH2 0x1695 JUMP JUMPDEST SWAP8 POP POP PUSH1 0x20 PUSH2 0x215B DUP11 DUP3 DUP12 ADD PUSH2 0x1695 JUMP JUMPDEST SWAP7 POP POP PUSH1 0x40 PUSH2 0x216C DUP11 DUP3 DUP12 ADD PUSH2 0x1695 JUMP JUMPDEST SWAP6 POP POP PUSH1 0x60 PUSH2 0x217D DUP11 DUP3 DUP12 ADD PUSH2 0x1695 JUMP JUMPDEST SWAP5 POP POP PUSH1 0x80 DUP9 ADD CALLDATALOAD PUSH8 0xFFFFFFFFFFFFFFFF DUP2 GT ISZERO PUSH2 0x219E JUMPI PUSH2 0x219D PUSH2 0x1611 JUMP JUMPDEST JUMPDEST PUSH2 0x21AA DUP11 DUP3 DUP12 ADD PUSH2 0x17C2 JUMP JUMPDEST SWAP4 POP POP PUSH1 0xA0 DUP9 ADD CALLDATALOAD PUSH8 0xFFFFFFFFFFFFFFFF DUP2 GT ISZERO PUSH2 0x21CB JUMPI PUSH2 0x21CA PUSH2 0x1611 JUMP JUMPDEST JUMPDEST PUSH2 0x21D7 DUP11 DUP3 DUP12 ADD PUSH2 0x17C2 JUMP JUMPDEST SWAP3 POP POP PUSH1 0xC0 DUP9 ADD CALLDATALOAD PUSH8 0xFFFFFFFFFFFFFFFF DUP2 GT ISZERO PUSH2 0x21F8 JUMPI PUSH2 0x21F7 PUSH2 0x1611 JUMP JUMPDEST JUMPDEST PUSH2 0x2204 DUP11 DUP3 DUP12 ADD PUSH2 0x188A JUMP JUMPDEST SWAP2 POP POP SWAP3 SWAP6 SWAP9 SWAP2 SWAP5 SWAP8 POP SWAP3 SWAP6 POP JUMP JUMPDEST PUSH32 0x4E487B7100000000000000000000000000000000000000000000000000000000 PUSH1 0x0 MSTORE PUSH1 0x21 PUSH1 0x4 MSTORE PUSH1 0x24 PUSH1 0x0 REVERT JUMPDEST PUSH32 0x4E487B7100000000000000000000000000000000000000000000000000000000 PUSH1 0x0 MSTORE PUSH1 0x11 PUSH1 0x4 MSTORE PUSH1 0x24 PUSH1 0x0 REVERT JUMPDEST PUSH1 0x0 PUSH2 0x227C DUP3 PUSH2 0x1674 JUMP JUMPDEST SWAP2 POP PUSH2 0x2287 DUP4 PUSH2 0x1674 JUMP JUMPDEST SWAP3 POP DUP3 DUP3 LT ISZERO PUSH2 0x229A JUMPI PUSH2 0x2299 PUSH2 0x2242 JUMP JUMPDEST JUMPDEST DUP3 DUP3 SUB SWAP1 POP SWAP3 SWAP2 POP POP JUMP JUMPDEST PUSH32 0x4E487B7100000000000000000000000000000000000000000000000000000000 PUSH1 0x0 MSTORE PUSH1 0x32 PUSH1 0x4 MSTORE PUSH1 0x24 PUSH1 0x0 REVERT JUMPDEST PUSH32 0x4E487B7100000000000000000000000000000000000000000000000000000000 PUSH1 0x0 MSTORE PUSH1 0x22 PUSH1 0x4 MSTORE PUSH1 0x24 PUSH1 0x0 REVERT JUMPDEST PUSH1 0x0 PUSH1 0x2 DUP3 DIV SWAP1 POP PUSH1 0x1 DUP3 AND DUP1 PUSH2 0x231B JUMPI PUSH1 0x7F DUP3 AND SWAP2 POP JUMPDEST PUSH1 0x20 DUP3 LT DUP2 SUB PUSH2 0x232E JUMPI PUSH2 0x232D PUSH2 0x22D4 JUMP JUMPDEST JUMPDEST POP SWAP2 SWAP1 POP JUMP JUMPDEST PUSH32 0x4E487B7100000000000000000000000000000000000000000000000000000000 PUSH1 0x0 MSTORE PUSH1 0x31 PUSH1 0x4 MSTORE PUSH1 0x24 PUSH1 0x0 REVERT JUMPDEST PUSH1 0x0 PUSH2 0x236E DUP3 PUSH2 0x1674 JUMP JUMPDEST SWAP2 POP PUSH32 0xFFFFFFFFFFFFFFFFFFFFFFFFFFFFFFFFFFFFFFFFFFFFFFFFFFFFFFFFFFFFFFFF DUP3 SUB PUSH2 0x23A0 JUMPI PUSH2 0x239F PUSH2 0x2242 JUMP JUMPDEST JUMPDEST PUSH1 0x1 DUP3 ADD SWAP1 POP SWAP2 SWAP1 POP JUMP INVALID LOG2 PUSH5 0x6970667358 0x22 SLT KECCAK256 CALL 0xD2 0xC2 MOD SDIV 0xB3 SGT ADD 0xBC 0xFC PUSH23 0x92A78E80293B82FE9E9752F80568F56114982AA0106473 PUSH16 0x6C634300080D00330000000000000000 "},"gasEstimates":{"creation":{"codeDepositCost":"1837000","executionCost":"infinite","totalCost":"infinite"},"external":{"addCooperator(address,uint256,string,address[])":"infinite","addEvent(uint256,uint256,uint256,string,string,address[])":"infinite","changeManager(address)":"51335","deleteCooperator(uint256,address,address[])":"infinite","deleteEvent(uint256,uint256,address[])":"infinite","getCalendarTitle(address[])":"infinite","getCooperators(address[])":"infinite","getEvents(uint256,address[])":"infinite","manager()":"2514","updateCalendarTitle(string,address[])":"infinite","updateCooperator(address,string,uint256,address[])":"infinite","updateEvent(uint256,uint256,uint256,uint256,string,string,address[])":"infinite"},"internal":{"checkAccess(address[] memory,enum Calendar.Permission)":"infinite"}},"methodIdentifiers":{"addCooperator(address,uint256,string,address[])":"1480e09c","addEvent(uint256,uint256,uint256,string,string,address[])":"24d9641d","changeManager(address)":"a3fbbaae","deleteCooperator(uint256,address,address[])":"2c045b91","deleteEvent(uint256,uint256,address[])":"1603813e","getCalendarTitle(address[])":"8f88f476","getCooperators(address[])":"725c0376","getEvents(uint256,address[])":"198555ce","manager()":"481c6a75","updateCalendarTitle(string,address[])":"a880a644","updateCooperator(address,string,uint256,address[])":"458cf78a","updateEvent(uint256,uint256,uint256,uint256,string,string,address[])":"aaf82990"}},"storageLayout":{"storage":[{"astId":21,"contract":"E-timetable.sol:Calendar","label":"events","offset":0,"slot":"0","type":"t_mapping(t_uint256,t_array(t_struct(Event)10_storage)dyn_storage)"},{"astId":23,"contract":"E-timetable.sol:Calendar","label":"manager","offset":0,"slot":"1","type":"t_address"},{"astId":25,"contract":"E-timetable.sol:Calendar","label":"calendarTitle","offset":0,"slot":"2","type":"t_string_storage"},{"astId":28,"contract":"E-timetable.sol:Calendar","label":"cooperators","offset":0,"slot":"3","type":"t_array(t_address)dyn_storage"},{"astId":33,"contract":"E-timetable.sol:Calendar","label":"cooperatorPermission","offset":0,"slot":"4","type":"t_mapping(t_address,t_enum(Permission)15)"},{"astId":37,"contract":"E-timetable.sol:Calendar","label":"cooperatorName","offset":0,"slot":"5","type":"t_mapping(t_address,t_string_storage)"}],"types":{"t_address":{"encoding":"inplace","label":"address","numberOfBytes":"20"},"t_array(t_address)dyn_storage":{"base":"t_address","encoding":"dynamic_array","label":"address[]","numberOfBytes":"32"},"t_array(t_struct(Event)10_storage)dyn_storage":{"base":"t_struct(Event)10_storage","encoding":"dynamic_array","label":"struct Calendar.Event[]","numberOfBytes":"32"},"t_enum(Permission)15":{"encoding":"inplace","label":"enum Calendar.Permission","numberOfBytes":"1"},"t_mapping(t_address,t_enum(Permission)15)":{"encoding":"mapping","key":"t_address","label":"mapping(address => enum Calendar.Permission)","numberOfBytes":"32","value":"t_enum(Permission)15"},"t_mapping(t_address,t_string_storage)":{"encoding":"mapping","key":"t_address","label":"mapping(address => string)","numberOfBytes":"32","value":"t_string_storage"},"t_mapping(t_uint256,t_array(t_struct(Event)10_storage)dyn_storage)":{"encoding":"mapping","key":"t_uint256","label":"mapping(uint256 => struct Calendar.Event[])","numberOfBytes":"32","value":"t_array(t_struct(Event)10_storage)dyn_storage"},"t_string_storage":{"encoding":"bytes","label":"string","numberOfBytes":"32"},"t_struct(Event)10_storage":{"encoding":"inplace","label":"struct Calendar.Event","members":[{"astId":3,"contract":"E-timetable.sol:Calendar","label":"startTimestamp","offset":0,"slot":"0","type":"t_uint256"},{"astId":5,"contract":"E-timetable.sol:Calendar","label":"endTimestamp","offset":0,"slot":"1","type":"t_uint256"},{"astId":7,"contract":"E-timetable.sol:Calendar","label":"title","offset":0,"slot":"2","type":"t_string_storage"},{"astId":9,"contract":"E-timetable.sol:Calendar","label":"description","offset":0,"slot":"3","type":"t_string_storage"}],"numberOfBytes":"128"},"t_uint256":{"encoding":"inplace","label":"uint256","numberOfBytes":"32"}}},"userdoc":{"kind":"user","methods":{},"version":1}}