{"abi":[{"inputs":[{"internalType":"string","name":"title","type":"string"},{"internalType":"address","name":"_manager","type":"address"},{"internalType":"string","name":"name","type":"string"}],"stateMutability":"nonpayable","type":"constructor"},{"inputs":[{"internalType":"address","name":"cooperator","type":"address"},{"internalType":"uint256","name":"permission","type":"uint256"},{"internalType":"string","name":"name","type":"string"},{"internalType":"address[]","name":"cooperatorAddress","type":"address[]"}],"name":"addCooperator","outputs":[],"stateMutability":"nonpayable","type":"function"},{"inputs":[{"internalType":"uint256","name":"monthTimestamp","type":"uint256"},{"internalType":"uint256","name":"eventStartTimestamp","type":"uint256"},{"internalType":"uint256","name":"eventEndTimestamp","type":"uint256"},{"internalType":"string","name":"title","type":"string"},{"internalType":"string","name":"color","type":"string"},{"internalType":"string","name":"description","type":"string"},{"internalType":"address[]","name":"cooperatorAddress","type":"address[]"}],"name":"addEvent","outputs":[],"stateMutability":"nonpayable","type":"function"},{"inputs":[{"internalType":"address","name":"newManager","type":"address"}],"name":"changeManager","outputs":[],"stateMutability":"nonpayable","type":"function"},{"inputs":[{"internalType":"uint256","name":"index","type":"uint256"},{"internalType":"address","name":"cooperator","type":"address"},{"internalType":"address[]","name":"cooperatorAddress","type":"address[]"}],"name":"deleteCooperator","outputs":[],"stateMutability":"nonpayable","type":"function"},{"inputs":[{"internalType":"uint256","name":"monthTimestamp","type":"uint256"},{"internalType":"uint256","name":"index","type":"uint256"},{"internalType":"address[]","name":"cooperatorAddress","type":"address[]"}],"name":"deleteEvent","outputs":[],"stateMutability":"nonpayable","type":"function"},{"inputs":[{"internalType":"address[]","name":"cooperatorAddress","type":"address[]"}],"name":"getCalendarTitle","outputs":[{"internalType":"string","name":"","type":"string"}],"stateMutability":"view","type":"function"},{"inputs":[{"internalType":"address[]","name":"cooperatorAddress","type":"address[]"}],"name":"getCooperators","outputs":[{"internalType":"address[]","name":"_cooperators","type":"address[]"},{"internalType":"string[]","name":"names","type":"string[]"},{"internalType":"uint256[]","name":"permissions","type":"uint256[]"}],"stateMutability":"view","type":"function"},{"inputs":[{"internalType":"uint256","name":"monthTimestamp","type":"uint256"},{"internalType":"address[]","name":"cooperatorAddress","type":"address[]"}],"name":"getEvents","outputs":[{"internalType":"uint256[]","name":"eventStartTimestamps","type":"uint256[]"},{"internalType":"uint256[]","name":"eventEndTimestamps","type":"uint256[]"},{"internalType":"string[]","name":"titles","type":"string[]"},{"internalType":"string[]","name":"colors","type":"string[]"},{"internalType":"string[]","name":"descriptions","type":"string[]"},{"internalType":"address[]","name":"createdBys","type":"address[]"},{"internalType":"uint256[]","name":"indexes","type":"uint256[]"}],"stateMutability":"view","type":"function"},{"inputs":[],"name":"manager","outputs":[{"internalType":"address","name":"","type":"address"}],"stateMutability":"view","type":"function"},{"inputs":[{"internalType":"string","name":"title","type":"string"},{"internalType":"address[]","name":"cooperatorAddress","type":"address[]"}],"name":"updateCalendarTitle","outputs":[],"stateMutability":"nonpayable","type":"function"},{"inputs":[{"internalType":"address","name":"cooperator","type":"address"},{"internalType":"string","name":"name","type":"string"},{"internalType":"uint256","name":"permission","type":"uint256"},{"internalType":"address[]","name":"cooperatorAddress","type":"address[]"}],"name":"updateCooperator","outputs":[],"stateMutability":"nonpayable","type":"function"},{"inputs":[{"internalType":"uint256","name":"monthTimestamp","type":"uint256"},{"internalType":"uint256","name":"index","type":"uint256"},{"internalType":"uint256","name":"eventStartTimestamp","type":"uint256"},{"internalType":"uint256","name":"eventEndTimestamp","type":"uint256"},{"internalType":"string","name":"title","type":"string"},{"internalType":"string","name":"color","type":"string"},{"internalType":"string","name":"description","type":"string"},{"internalType":"address[]","name":"cooperatorAddress","type":"address[]"}],"name":"updateEvent","outputs":[],"stateMutability":"nonpayable","type":"function"}],"devdoc":{"kind":"dev","methods":{},"version":1},"evm":{"assembly":"    /* \"E-timetable.sol\":76:8018  contract Calendar{... */\n  mstore(0x40, 0x80)\n    /* \"E-timetable.sol\":1223:1498  constructor(string memory title, address _manager, string memory name){... */\n  callvalue\n  dup1\n  iszero\n  tag_1\n  jumpi\n  0x00\n  dup1\n  revert\ntag_1:\n  pop\n  mload(0x40)\n  sub(codesize, bytecodeSize)\n  dup1\n  bytecodeSize\n  dup4\n  codecopy\n  dup2\n  dup2\n  add\n  0x40\n  mstore\n  dup2\n  add\n  swap1\n  tag_2\n  swap2\n  swap1\n  tag_3\n  jump\t// in\ntag_2:\n    /* \"E-timetable.sol\":1314:1322  _manager */\n  dup2\n    /* \"E-timetable.sol\":1304:1311  manager */\n  0x01\n  0x00\n    /* \"E-timetable.sol\":1304:1322  manager = _manager */\n  0x0100\n  exp\n  dup2\n  sload\n  dup2\n  0xffffffffffffffffffffffffffffffffffffffff\n  mul\n  not\n  and\n  swap1\n  dup4\n  0xffffffffffffffffffffffffffffffffffffffff\n  and\n  mul\n  or\n  swap1\n  sstore\n  pop\n    /* \"E-timetable.sol\":1349:1354  title */\n  dup3\n    /* \"E-timetable.sol\":1333:1346  calendarTitle */\n  0x02\n    /* \"E-timetable.sol\":1333:1354  calendarTitle = title */\n  swap1\n  dup1\n  mload\n  swap1\n  0x20\n  add\n  swap1\n  tag_6\n  swap3\n  swap2\n  swap1\n  tag_7\n  jump\t// in\ntag_6:\n  pop\n    /* \"E-timetable.sol\":1397:1413  Permission.ADMIN */\n  0x03\n    /* \"E-timetable.sol\":1365:1385  cooperatorPermission */\n  0x04\n    /* \"E-timetable.sol\":1365:1394  cooperatorPermission[manager] */\n  0x00\n    /* \"E-timetable.sol\":1386:1393  manager */\n  0x01\n  0x00\n  swap1\n  sload\n  swap1\n  0x0100\n  exp\n  swap1\n  div\n  0xffffffffffffffffffffffffffffffffffffffff\n  and\n    /* \"E-timetable.sol\":1365:1394  cooperatorPermission[manager] */\n  0xffffffffffffffffffffffffffffffffffffffff\n  and\n  0xffffffffffffffffffffffffffffffffffffffff\n  and\n  dup2\n  mstore\n  0x20\n  add\n  swap1\n  dup2\n  mstore\n  0x20\n  add\n  0x00\n  keccak256\n  0x00\n    /* \"E-timetable.sol\":1365:1413  cooperatorPermission[manager] = Permission.ADMIN */\n  0x0100\n  exp\n  dup2\n  sload\n  dup2\n  0xff\n  mul\n  not\n  and\n  swap1\n  dup4\n  0x03\n  dup2\n  gt\n  iszero\n  tag_8\n  jumpi\n  tag_9\n  tag_10\n  jump\t// in\ntag_9:\ntag_8:\n  mul\n  or\n  swap1\n  sstore\n  pop\n    /* \"E-timetable.sol\":1424:1435  cooperators */\n  0x03\n    /* \"E-timetable.sol\":1441:1448  manager */\n  0x01\n  0x00\n  swap1\n  sload\n  swap1\n  0x0100\n  exp\n  swap1\n  div\n  0xffffffffffffffffffffffffffffffffffffffff\n  and\n    /* \"E-timetable.sol\":1424:1449  cooperators.push(manager) */\n  swap1\n  dup1\n  0x01\n  dup2\n  sload\n  add\n  dup1\n  dup3\n  sstore\n  dup1\n  swap2\n  pop\n  pop\n  0x01\n  swap1\n  sub\n  swap1\n  0x00\n  mstore\n  keccak256(0x00, 0x20)\n  add\n  0x00\n  swap1\n  swap2\n  swap1\n  swap2\n  swap1\n  swap2\n  0x0100\n  exp\n  dup2\n  sload\n  dup2\n  0xffffffffffffffffffffffffffffffffffffffff\n  mul\n  not\n  and\n  swap1\n  dup4\n  0xffffffffffffffffffffffffffffffffffffffff\n  and\n  mul\n  or\n  swap1\n  sstore\n  pop\n    /* \"E-timetable.sol\":1486:1490  name */\n  dup1\n    /* \"E-timetable.sol\":1460:1474  cooperatorName */\n  0x05\n    /* \"E-timetable.sol\":1460:1483  cooperatorName[manager] */\n  0x00\n    /* \"E-timetable.sol\":1475:1482  manager */\n  0x01\n  0x00\n  swap1\n  sload\n  swap1\n  0x0100\n  exp\n  swap1\n  div\n  0xffffffffffffffffffffffffffffffffffffffff\n  and\n    /* \"E-timetable.sol\":1460:1483  cooperatorName[manager] */\n  0xffffffffffffffffffffffffffffffffffffffff\n  and\n  0xffffffffffffffffffffffffffffffffffffffff\n  and\n  dup2\n  mstore\n  0x20\n  add\n  swap1\n  dup2\n  mstore\n  0x20\n  add\n  0x00\n  keccak256\n    /* \"E-timetable.sol\":1460:1490  cooperatorName[manager] = name */\n  swap1\n  dup1\n  mload\n  swap1\n  0x20\n  add\n  swap1\n  tag_12\n  swap3\n  swap2\n  swap1\n  tag_7\n  jump\t// in\ntag_12:\n  pop\n    /* \"E-timetable.sol\":1223:1498  constructor(string memory title, address _manager, string memory name){... */\n  pop\n  pop\n  pop\n    /* \"E-timetable.sol\":76:8018  contract Calendar{... */\n  jump(tag_13)\ntag_7:\n  dup3\n  dup1\n  sload\n  tag_14\n  swap1\n  tag_15\n  jump\t// in\ntag_14:\n  swap1\n  0x00\n  mstore\n  keccak256(0x00, 0x20)\n  swap1\n  0x1f\n  add\n  0x20\n  swap1\n  div\n  dup2\n  add\n  swap3\n  dup3\n  tag_17\n  jumpi\n  0x00\n  dup6\n  sstore\n  jump(tag_16)\ntag_17:\n  dup3\n  0x1f\n  lt\n  tag_18\n  jumpi\n  dup1\n  mload\n  not(0xff)\n  and\n  dup4\n  dup1\n  add\n  or\n  dup6\n  sstore\n  jump(tag_16)\ntag_18:\n  dup3\n  dup1\n  add\n  0x01\n  add\n  dup6\n  sstore\n  dup3\n  iszero\n  tag_16\n  jumpi\n  swap2\n  dup3\n  add\ntag_19:\n  dup3\n  dup2\n  gt\n  iszero\n  tag_20\n  jumpi\n  dup3\n  mload\n  dup3\n  sstore\n  swap2\n  0x20\n  add\n  swap2\n  swap1\n  0x01\n  add\n  swap1\n  jump(tag_19)\ntag_20:\ntag_16:\n  pop\n  swap1\n  pop\n  tag_21\n  swap2\n  swap1\n  tag_22\n  jump\t// in\ntag_21:\n  pop\n  swap1\n  jump\t// out\ntag_22:\ntag_23:\n  dup1\n  dup3\n  gt\n  iszero\n  tag_24\n  jumpi\n  0x00\n  dup2\n  0x00\n  swap1\n  sstore\n  pop\n  0x01\n  add\n  jump(tag_23)\ntag_24:\n  pop\n  swap1\n  jump\t// out\n    /* \"#utility.yul\":7:82   */\ntag_25:\n    /* \"#utility.yul\":40:46   */\n  0x00\n    /* \"#utility.yul\":73:75   */\n  0x40\n    /* \"#utility.yul\":67:76   */\n  mload\n    /* \"#utility.yul\":57:76   */\n  swap1\n  pop\n    /* \"#utility.yul\":7:82   */\n  swap1\n  jump\t// out\n    /* \"#utility.yul\":88:205   */\ntag_26:\n    /* \"#utility.yul\":197:198   */\n  0x00\n    /* \"#utility.yul\":194:195   */\n  dup1\n    /* \"#utility.yul\":187:199   */\n  revert\n    /* \"#utility.yul\":211:328   */\ntag_27:\n    /* \"#utility.yul\":320:321   */\n  0x00\n    /* \"#utility.yul\":317:318   */\n  dup1\n    /* \"#utility.yul\":310:322   */\n  revert\n    /* \"#utility.yul\":334:451   */\ntag_28:\n    /* \"#utility.yul\":443:444   */\n  0x00\n    /* \"#utility.yul\":440:441   */\n  dup1\n    /* \"#utility.yul\":433:445   */\n  revert\n    /* \"#utility.yul\":457:574   */\ntag_29:\n    /* \"#utility.yul\":566:567   */\n  0x00\n    /* \"#utility.yul\":563:564   */\n  dup1\n    /* \"#utility.yul\":556:568   */\n  revert\n    /* \"#utility.yul\":580:682   */\ntag_30:\n    /* \"#utility.yul\":621:627   */\n  0x00\n    /* \"#utility.yul\":672:674   */\n  0x1f\n    /* \"#utility.yul\":668:675   */\n  not\n    /* \"#utility.yul\":663:665   */\n  0x1f\n    /* \"#utility.yul\":656:661   */\n  dup4\n    /* \"#utility.yul\":652:666   */\n  add\n    /* \"#utility.yul\":648:676   */\n  and\n    /* \"#utility.yul\":638:676   */\n  swap1\n  pop\n    /* \"#utility.yul\":580:682   */\n  swap2\n  swap1\n  pop\n  jump\t// out\n    /* \"#utility.yul\":688:868   */\ntag_31:\n    /* \"#utility.yul\":736:813   */\n  0x4e487b7100000000000000000000000000000000000000000000000000000000\n    /* \"#utility.yul\":733:734   */\n  0x00\n    /* \"#utility.yul\":726:814   */\n  mstore\n    /* \"#utility.yul\":833:837   */\n  0x41\n    /* \"#utility.yul\":830:831   */\n  0x04\n    /* \"#utility.yul\":823:838   */\n  mstore\n    /* \"#utility.yul\":857:861   */\n  0x24\n    /* \"#utility.yul\":854:855   */\n  0x00\n    /* \"#utility.yul\":847:862   */\n  revert\n    /* \"#utility.yul\":874:1155   */\ntag_32:\n    /* \"#utility.yul\":957:984   */\n  tag_52\n    /* \"#utility.yul\":979:983   */\n  dup3\n    /* \"#utility.yul\":957:984   */\n  tag_30\n  jump\t// in\ntag_52:\n    /* \"#utility.yul\":949:955   */\n  dup2\n    /* \"#utility.yul\":945:985   */\n  add\n    /* \"#utility.yul\":1087:1093   */\n  dup2\n    /* \"#utility.yul\":1075:1085   */\n  dup2\n    /* \"#utility.yul\":1072:1094   */\n  lt\n    /* \"#utility.yul\":1051:1069   */\n  0xffffffffffffffff\n    /* \"#utility.yul\":1039:1049   */\n  dup3\n    /* \"#utility.yul\":1036:1070   */\n  gt\n    /* \"#utility.yul\":1033:1095   */\n  or\n    /* \"#utility.yul\":1030:1118   */\n  iszero\n  tag_53\n  jumpi\n    /* \"#utility.yul\":1098:1116   */\n  tag_54\n  tag_31\n  jump\t// in\ntag_54:\n    /* \"#utility.yul\":1030:1118   */\ntag_53:\n    /* \"#utility.yul\":1138:1148   */\n  dup1\n    /* \"#utility.yul\":1134:1136   */\n  0x40\n    /* \"#utility.yul\":1127:1149   */\n  mstore\n    /* \"#utility.yul\":917:1155   */\n  pop\n    /* \"#utility.yul\":874:1155   */\n  pop\n  pop\n  jump\t// out\n    /* \"#utility.yul\":1161:1290   */\ntag_33:\n    /* \"#utility.yul\":1195:1201   */\n  0x00\n    /* \"#utility.yul\":1222:1242   */\n  tag_56\n  tag_25\n  jump\t// in\ntag_56:\n    /* \"#utility.yul\":1212:1242   */\n  swap1\n  pop\n    /* \"#utility.yul\":1251:1284   */\n  tag_57\n    /* \"#utility.yul\":1279:1283   */\n  dup3\n    /* \"#utility.yul\":1271:1277   */\n  dup3\n    /* \"#utility.yul\":1251:1284   */\n  tag_32\n  jump\t// in\ntag_57:\n    /* \"#utility.yul\":1161:1290   */\n  swap2\n  swap1\n  pop\n  jump\t// out\n    /* \"#utility.yul\":1296:1604   */\ntag_34:\n    /* \"#utility.yul\":1358:1362   */\n  0x00\n    /* \"#utility.yul\":1448:1466   */\n  0xffffffffffffffff\n    /* \"#utility.yul\":1440:1446   */\n  dup3\n    /* \"#utility.yul\":1437:1467   */\n  gt\n    /* \"#utility.yul\":1434:1490   */\n  iszero\n  tag_59\n  jumpi\n    /* \"#utility.yul\":1470:1488   */\n  tag_60\n  tag_31\n  jump\t// in\ntag_60:\n    /* \"#utility.yul\":1434:1490   */\ntag_59:\n    /* \"#utility.yul\":1508:1537   */\n  tag_61\n    /* \"#utility.yul\":1530:1536   */\n  dup3\n    /* \"#utility.yul\":1508:1537   */\n  tag_30\n  jump\t// in\ntag_61:\n    /* \"#utility.yul\":1500:1537   */\n  swap1\n  pop\n    /* \"#utility.yul\":1592:1596   */\n  0x20\n    /* \"#utility.yul\":1586:1590   */\n  dup2\n    /* \"#utility.yul\":1582:1597   */\n  add\n    /* \"#utility.yul\":1574:1597   */\n  swap1\n  pop\n    /* \"#utility.yul\":1296:1604   */\n  swap2\n  swap1\n  pop\n  jump\t// out\n    /* \"#utility.yul\":1610:1917   */\ntag_35:\n    /* \"#utility.yul\":1678:1679   */\n  0x00\n    /* \"#utility.yul\":1688:1801   */\ntag_63:\n    /* \"#utility.yul\":1702:1708   */\n  dup4\n    /* \"#utility.yul\":1699:1700   */\n  dup2\n    /* \"#utility.yul\":1696:1709   */\n  lt\n    /* \"#utility.yul\":1688:1801   */\n  iszero\n  tag_65\n  jumpi\n    /* \"#utility.yul\":1787:1788   */\n  dup1\n    /* \"#utility.yul\":1782:1785   */\n  dup3\n    /* \"#utility.yul\":1778:1789   */\n  add\n    /* \"#utility.yul\":1772:1790   */\n  mload\n    /* \"#utility.yul\":1768:1769   */\n  dup2\n    /* \"#utility.yul\":1763:1766   */\n  dup5\n    /* \"#utility.yul\":1759:1770   */\n  add\n    /* \"#utility.yul\":1752:1791   */\n  mstore\n    /* \"#utility.yul\":1724:1726   */\n  0x20\n    /* \"#utility.yul\":1721:1722   */\n  dup2\n    /* \"#utility.yul\":1717:1727   */\n  add\n    /* \"#utility.yul\":1712:1727   */\n  swap1\n  pop\n    /* \"#utility.yul\":1688:1801   */\n  jump(tag_63)\ntag_65:\n    /* \"#utility.yul\":1819:1825   */\n  dup4\n    /* \"#utility.yul\":1816:1817   */\n  dup2\n    /* \"#utility.yul\":1813:1826   */\n  gt\n    /* \"#utility.yul\":1810:1911   */\n  iszero\n  tag_66\n  jumpi\n    /* \"#utility.yul\":1899:1900   */\n  0x00\n    /* \"#utility.yul\":1890:1896   */\n  dup5\n    /* \"#utility.yul\":1885:1888   */\n  dup5\n    /* \"#utility.yul\":1881:1897   */\n  add\n    /* \"#utility.yul\":1874:1901   */\n  mstore\n    /* \"#utility.yul\":1810:1911   */\ntag_66:\n    /* \"#utility.yul\":1659:1917   */\n  pop\n    /* \"#utility.yul\":1610:1917   */\n  pop\n  pop\n  pop\n  jump\t// out\n    /* \"#utility.yul\":1923:2344   */\ntag_36:\n    /* \"#utility.yul\":2012:2017   */\n  0x00\n    /* \"#utility.yul\":2037:2103   */\n  tag_68\n    /* \"#utility.yul\":2053:2102   */\n  tag_69\n    /* \"#utility.yul\":2095:2101   */\n  dup5\n    /* \"#utility.yul\":2053:2102   */\n  tag_34\n  jump\t// in\ntag_69:\n    /* \"#utility.yul\":2037:2103   */\n  tag_33\n  jump\t// in\ntag_68:\n    /* \"#utility.yul\":2028:2103   */\n  swap1\n  pop\n    /* \"#utility.yul\":2126:2132   */\n  dup3\n    /* \"#utility.yul\":2119:2124   */\n  dup2\n    /* \"#utility.yul\":2112:2133   */\n  mstore\n    /* \"#utility.yul\":2164:2168   */\n  0x20\n    /* \"#utility.yul\":2157:2162   */\n  dup2\n    /* \"#utility.yul\":2153:2169   */\n  add\n    /* \"#utility.yul\":2202:2205   */\n  dup5\n    /* \"#utility.yul\":2193:2199   */\n  dup5\n    /* \"#utility.yul\":2188:2191   */\n  dup5\n    /* \"#utility.yul\":2184:2200   */\n  add\n    /* \"#utility.yul\":2181:2206   */\n  gt\n    /* \"#utility.yul\":2178:2290   */\n  iszero\n  tag_70\n  jumpi\n    /* \"#utility.yul\":2209:2288   */\n  tag_71\n  tag_29\n  jump\t// in\ntag_71:\n    /* \"#utility.yul\":2178:2290   */\ntag_70:\n    /* \"#utility.yul\":2299:2338   */\n  tag_72\n    /* \"#utility.yul\":2331:2337   */\n  dup5\n    /* \"#utility.yul\":2326:2329   */\n  dup3\n    /* \"#utility.yul\":2321:2324   */\n  dup6\n    /* \"#utility.yul\":2299:2338   */\n  tag_35\n  jump\t// in\ntag_72:\n    /* \"#utility.yul\":2018:2344   */\n  pop\n    /* \"#utility.yul\":1923:2344   */\n  swap4\n  swap3\n  pop\n  pop\n  pop\n  jump\t// out\n    /* \"#utility.yul\":2364:2719   */\ntag_37:\n    /* \"#utility.yul\":2431:2436   */\n  0x00\n    /* \"#utility.yul\":2480:2483   */\n  dup3\n    /* \"#utility.yul\":2473:2477   */\n  0x1f\n    /* \"#utility.yul\":2465:2471   */\n  dup4\n    /* \"#utility.yul\":2461:2478   */\n  add\n    /* \"#utility.yul\":2457:2484   */\n  slt\n    /* \"#utility.yul\":2447:2569   */\n  tag_74\n  jumpi\n    /* \"#utility.yul\":2488:2567   */\n  tag_75\n  tag_28\n  jump\t// in\ntag_75:\n    /* \"#utility.yul\":2447:2569   */\ntag_74:\n    /* \"#utility.yul\":2598:2604   */\n  dup2\n    /* \"#utility.yul\":2592:2605   */\n  mload\n    /* \"#utility.yul\":2623:2713   */\n  tag_76\n    /* \"#utility.yul\":2709:2712   */\n  dup5\n    /* \"#utility.yul\":2701:2707   */\n  dup3\n    /* \"#utility.yul\":2694:2698   */\n  0x20\n    /* \"#utility.yul\":2686:2692   */\n  dup7\n    /* \"#utility.yul\":2682:2699   */\n  add\n    /* \"#utility.yul\":2623:2713   */\n  tag_36\n  jump\t// in\ntag_76:\n    /* \"#utility.yul\":2614:2713   */\n  swap2\n  pop\n    /* \"#utility.yul\":2437:2719   */\n  pop\n    /* \"#utility.yul\":2364:2719   */\n  swap3\n  swap2\n  pop\n  pop\n  jump\t// out\n    /* \"#utility.yul\":2725:2851   */\ntag_38:\n    /* \"#utility.yul\":2762:2769   */\n  0x00\n    /* \"#utility.yul\":2802:2844   */\n  0xffffffffffffffffffffffffffffffffffffffff\n    /* \"#utility.yul\":2795:2800   */\n  dup3\n    /* \"#utility.yul\":2791:2845   */\n  and\n    /* \"#utility.yul\":2780:2845   */\n  swap1\n  pop\n    /* \"#utility.yul\":2725:2851   */\n  swap2\n  swap1\n  pop\n  jump\t// out\n    /* \"#utility.yul\":2857:2953   */\ntag_39:\n    /* \"#utility.yul\":2894:2901   */\n  0x00\n    /* \"#utility.yul\":2923:2947   */\n  tag_79\n    /* \"#utility.yul\":2941:2946   */\n  dup3\n    /* \"#utility.yul\":2923:2947   */\n  tag_38\n  jump\t// in\ntag_79:\n    /* \"#utility.yul\":2912:2947   */\n  swap1\n  pop\n    /* \"#utility.yul\":2857:2953   */\n  swap2\n  swap1\n  pop\n  jump\t// out\n    /* \"#utility.yul\":2959:3081   */\ntag_40:\n    /* \"#utility.yul\":3032:3056   */\n  tag_81\n    /* \"#utility.yul\":3050:3055   */\n  dup2\n    /* \"#utility.yul\":3032:3056   */\n  tag_39\n  jump\t// in\ntag_81:\n    /* \"#utility.yul\":3025:3030   */\n  dup2\n    /* \"#utility.yul\":3022:3057   */\n  eq\n    /* \"#utility.yul\":3012:3075   */\n  tag_82\n  jumpi\n    /* \"#utility.yul\":3071:3072   */\n  0x00\n    /* \"#utility.yul\":3068:3069   */\n  dup1\n    /* \"#utility.yul\":3061:3073   */\n  revert\n    /* \"#utility.yul\":3012:3075   */\ntag_82:\n    /* \"#utility.yul\":2959:3081   */\n  pop\n  jump\t// out\n    /* \"#utility.yul\":3087:3230   */\ntag_41:\n    /* \"#utility.yul\":3144:3149   */\n  0x00\n    /* \"#utility.yul\":3175:3181   */\n  dup2\n    /* \"#utility.yul\":3169:3182   */\n  mload\n    /* \"#utility.yul\":3160:3182   */\n  swap1\n  pop\n    /* \"#utility.yul\":3191:3224   */\n  tag_84\n    /* \"#utility.yul\":3218:3223   */\n  dup2\n    /* \"#utility.yul\":3191:3224   */\n  tag_40\n  jump\t// in\ntag_84:\n    /* \"#utility.yul\":3087:3230   */\n  swap3\n  swap2\n  pop\n  pop\n  jump\t// out\n    /* \"#utility.yul\":3236:4245   */\ntag_3:\n    /* \"#utility.yul\":3344:3350   */\n  0x00\n    /* \"#utility.yul\":3352:3358   */\n  dup1\n    /* \"#utility.yul\":3360:3366   */\n  0x00\n    /* \"#utility.yul\":3409:3411   */\n  0x60\n    /* \"#utility.yul\":3397:3406   */\n  dup5\n    /* \"#utility.yul\":3388:3395   */\n  dup7\n    /* \"#utility.yul\":3384:3407   */\n  sub\n    /* \"#utility.yul\":3380:3412   */\n  slt\n    /* \"#utility.yul\":3377:3496   */\n  iszero\n  tag_86\n  jumpi\n    /* \"#utility.yul\":3415:3494   */\n  tag_87\n  tag_26\n  jump\t// in\ntag_87:\n    /* \"#utility.yul\":3377:3496   */\ntag_86:\n    /* \"#utility.yul\":3556:3557   */\n  0x00\n    /* \"#utility.yul\":3545:3554   */\n  dup5\n    /* \"#utility.yul\":3541:3558   */\n  add\n    /* \"#utility.yul\":3535:3559   */\n  mload\n    /* \"#utility.yul\":3586:3604   */\n  0xffffffffffffffff\n    /* \"#utility.yul\":3578:3584   */\n  dup2\n    /* \"#utility.yul\":3575:3605   */\n  gt\n    /* \"#utility.yul\":3572:3689   */\n  iszero\n  tag_88\n  jumpi\n    /* \"#utility.yul\":3608:3687   */\n  tag_89\n  tag_27\n  jump\t// in\ntag_89:\n    /* \"#utility.yul\":3572:3689   */\ntag_88:\n    /* \"#utility.yul\":3713:3787   */\n  tag_90\n    /* \"#utility.yul\":3779:3786   */\n  dup7\n    /* \"#utility.yul\":3770:3776   */\n  dup3\n    /* \"#utility.yul\":3759:3768   */\n  dup8\n    /* \"#utility.yul\":3755:3777   */\n  add\n    /* \"#utility.yul\":3713:3787   */\n  tag_37\n  jump\t// in\ntag_90:\n    /* \"#utility.yul\":3703:3787   */\n  swap4\n  pop\n    /* \"#utility.yul\":3506:3797   */\n  pop\n    /* \"#utility.yul\":3836:3838   */\n  0x20\n    /* \"#utility.yul\":3862:3926   */\n  tag_91\n    /* \"#utility.yul\":3918:3925   */\n  dup7\n    /* \"#utility.yul\":3909:3915   */\n  dup3\n    /* \"#utility.yul\":3898:3907   */\n  dup8\n    /* \"#utility.yul\":3894:3916   */\n  add\n    /* \"#utility.yul\":3862:3926   */\n  tag_41\n  jump\t// in\ntag_91:\n    /* \"#utility.yul\":3852:3926   */\n  swap3\n  pop\n    /* \"#utility.yul\":3807:3936   */\n  pop\n    /* \"#utility.yul\":3996:3998   */\n  0x40\n    /* \"#utility.yul\":3985:3994   */\n  dup5\n    /* \"#utility.yul\":3981:3999   */\n  add\n    /* \"#utility.yul\":3975:4000   */\n  mload\n    /* \"#utility.yul\":4027:4045   */\n  0xffffffffffffffff\n    /* \"#utility.yul\":4019:4025   */\n  dup2\n    /* \"#utility.yul\":4016:4046   */\n  gt\n    /* \"#utility.yul\":4013:4130   */\n  iszero\n  tag_92\n  jumpi\n    /* \"#utility.yul\":4049:4128   */\n  tag_93\n  tag_27\n  jump\t// in\ntag_93:\n    /* \"#utility.yul\":4013:4130   */\ntag_92:\n    /* \"#utility.yul\":4154:4228   */\n  tag_94\n    /* \"#utility.yul\":4220:4227   */\n  dup7\n    /* \"#utility.yul\":4211:4217   */\n  dup3\n    /* \"#utility.yul\":4200:4209   */\n  dup8\n    /* \"#utility.yul\":4196:4218   */\n  add\n    /* \"#utility.yul\":4154:4228   */\n  tag_37\n  jump\t// in\ntag_94:\n    /* \"#utility.yul\":4144:4228   */\n  swap2\n  pop\n    /* \"#utility.yul\":3946:4238   */\n  pop\n    /* \"#utility.yul\":3236:4245   */\n  swap3\n  pop\n  swap3\n  pop\n  swap3\n  jump\t// out\n    /* \"#utility.yul\":4251:4431   */\ntag_10:\n    /* \"#utility.yul\":4299:4376   */\n  0x4e487b7100000000000000000000000000000000000000000000000000000000\n    /* \"#utility.yul\":4296:4297   */\n  0x00\n    /* \"#utility.yul\":4289:4377   */\n  mstore\n    /* \"#utility.yul\":4396:4400   */\n  0x21\n    /* \"#utility.yul\":4393:4394   */\n  0x04\n    /* \"#utility.yul\":4386:4401   */\n  mstore\n    /* \"#utility.yul\":4420:4424   */\n  0x24\n    /* \"#utility.yul\":4417:4418   */\n  0x00\n    /* \"#utility.yul\":4410:4425   */\n  revert\n    /* \"#utility.yul\":4437:4617   */\ntag_42:\n    /* \"#utility.yul\":4485:4562   */\n  0x4e487b7100000000000000000000000000000000000000000000000000000000\n    /* \"#utility.yul\":4482:4483   */\n  0x00\n    /* \"#utility.yul\":4475:4563   */\n  mstore\n    /* \"#utility.yul\":4582:4586   */\n  0x22\n    /* \"#utility.yul\":4579:4580   */\n  0x04\n    /* \"#utility.yul\":4572:4587   */\n  mstore\n    /* \"#utility.yul\":4606:4610   */\n  0x24\n    /* \"#utility.yul\":4603:4604   */\n  0x00\n    /* \"#utility.yul\":4596:4611   */\n  revert\n    /* \"#utility.yul\":4623:4943   */\ntag_15:\n    /* \"#utility.yul\":4667:4673   */\n  0x00\n    /* \"#utility.yul\":4704:4705   */\n  0x02\n    /* \"#utility.yul\":4698:4702   */\n  dup3\n    /* \"#utility.yul\":4694:4706   */\n  div\n    /* \"#utility.yul\":4684:4706   */\n  swap1\n  pop\n    /* \"#utility.yul\":4751:4752   */\n  0x01\n    /* \"#utility.yul\":4745:4749   */\n  dup3\n    /* \"#utility.yul\":4741:4753   */\n  and\n    /* \"#utility.yul\":4772:4790   */\n  dup1\n    /* \"#utility.yul\":4762:4843   */\n  tag_98\n  jumpi\n    /* \"#utility.yul\":4828:4832   */\n  0x7f\n    /* \"#utility.yul\":4820:4826   */\n  dup3\n    /* \"#utility.yul\":4816:4833   */\n  and\n    /* \"#utility.yul\":4806:4833   */\n  swap2\n  pop\n    /* \"#utility.yul\":4762:4843   */\ntag_98:\n    /* \"#utility.yul\":4890:4892   */\n  0x20\n    /* \"#utility.yul\":4882:4888   */\n  dup3\n    /* \"#utility.yul\":4879:4893   */\n  lt\n    /* \"#utility.yul\":4859:4877   */\n  dup2\n    /* \"#utility.yul\":4856:4894   */\n  sub\n    /* \"#utility.yul\":4853:4937   */\n  tag_99\n  jumpi\n    /* \"#utility.yul\":4909:4927   */\n  tag_100\n  tag_42\n  jump\t// in\ntag_100:\n    /* \"#utility.yul\":4853:4937   */\ntag_99:\n    /* \"#utility.yul\":4674:4943   */\n  pop\n    /* \"#utility.yul\":4623:4943   */\n  swap2\n  swap1\n  pop\n  jump\t// out\n    /* \"E-timetable.sol\":76:8018  contract Calendar{... */\ntag_13:\n  dataSize(sub_0)\n  dup1\n  dataOffset(sub_0)\n  0x00\n  codecopy\n  0x00\n  return\nstop\n\nsub_0: assembly {\n        /* \"E-timetable.sol\":76:8018  contract Calendar{... */\n      mstore(0x40, 0x80)\n      callvalue\n      dup1\n      iszero\n      tag_1\n      jumpi\n      0x00\n      dup1\n      revert\n    tag_1:\n      pop\n      jumpi(tag_2, lt(calldatasize, 0x04))\n      shr(0xe0, calldataload(0x00))\n      dup1\n      0x51e1cf27\n      gt\n      tag_15\n      jumpi\n      dup1\n      0x51e1cf27\n      eq\n      tag_9\n      jumpi\n      dup1\n      0x725c0376\n      eq\n      tag_10\n      jumpi\n      dup1\n      0x8f88f476\n      eq\n      tag_11\n      jumpi\n      dup1\n      0x96a4bd5b\n      eq\n      tag_12\n      jumpi\n      dup1\n      0xa3fbbaae\n      eq\n      tag_13\n      jumpi\n      dup1\n      0xa880a644\n      eq\n      tag_14\n      jumpi\n      jump(tag_2)\n    tag_15:\n      dup1\n      0x1480e09c\n      eq\n      tag_3\n      jumpi\n      dup1\n      0x1603813e\n      eq\n      tag_4\n      jumpi\n      dup1\n      0x198555ce\n      eq\n      tag_5\n      jumpi\n      dup1\n      0x2c045b91\n      eq\n      tag_6\n      jumpi\n      dup1\n      0x458cf78a\n      eq\n      tag_7\n      jumpi\n      dup1\n      0x481c6a75\n      eq\n      tag_8\n      jumpi\n    tag_2:\n      0x00\n      dup1\n      revert\n        /* \"E-timetable.sol\":6068:6430  function addCooperator(address cooperator, uint permission, string memory name, address[] memory cooperatorAddress) public adminRestricted(cooperatorAddress){... */\n    tag_3:\n      tag_16\n      0x04\n      dup1\n      calldatasize\n      sub\n      dup2\n      add\n      swap1\n      tag_17\n      swap2\n      swap1\n      tag_18\n      jump\t// in\n    tag_17:\n      tag_19\n      jump\t// in\n    tag_16:\n      stop\n        /* \"E-timetable.sol\":4807:5197  function deleteEvent(uint monthTimestamp, uint index, address[] memory cooperatorAddress) public editRestricted(cooperatorAddress){... */\n    tag_4:\n      tag_20\n      0x04\n      dup1\n      calldatasize\n      sub\n      dup2\n      add\n      swap1\n      tag_21\n      swap2\n      swap1\n      tag_22\n      jump\t// in\n    tag_21:\n      tag_23\n      jump\t// in\n    tag_20:\n      stop\n        /* \"E-timetable.sol\":2606:4043  function getEvents(uint monthTimestamp, address[] memory cooperatorAddress) public view viewRestricted(cooperatorAddress)... */\n    tag_5:\n      tag_24\n      0x04\n      dup1\n      calldatasize\n      sub\n      dup2\n      add\n      swap1\n      tag_25\n      swap2\n      swap1\n      tag_26\n      jump\t// in\n    tag_25:\n      tag_27\n      jump\t// in\n    tag_24:\n      mload(0x40)\n      tag_28\n      swap8\n      swap7\n      swap6\n      swap5\n      swap4\n      swap3\n      swap2\n      swap1\n      tag_29\n      jump\t// in\n    tag_28:\n      mload(0x40)\n      dup1\n      swap2\n      sub\n      swap1\n      return\n        /* \"E-timetable.sol\":7119:7558  function deleteCooperator(uint index, address cooperator, address[] memory cooperatorAddress) public adminRestricted(cooperatorAddress){... */\n    tag_6:\n      tag_30\n      0x04\n      dup1\n      calldatasize\n      sub\n      dup2\n      add\n      swap1\n      tag_31\n      swap2\n      swap1\n      tag_32\n      jump\t// in\n    tag_31:\n      tag_33\n      jump\t// in\n    tag_30:\n      stop\n        /* \"E-timetable.sol\":7619:8015  function updateCooperator(address cooperator, string memory name, uint permission, address[] memory cooperatorAddress) public adminRestricted(cooperatorAddress){... */\n    tag_7:\n      tag_34\n      0x04\n      dup1\n      calldatasize\n      sub\n      dup2\n      add\n      swap1\n      tag_35\n      swap2\n      swap1\n      tag_36\n      jump\t// in\n    tag_35:\n      tag_37\n      jump\t// in\n    tag_34:\n      stop\n        /* \"E-timetable.sol\":481:503  address public manager */\n    tag_8:\n      tag_38\n      tag_39\n      jump\t// in\n    tag_38:\n      mload(0x40)\n      tag_40\n      swap2\n      swap1\n      tag_41\n      jump\t// in\n    tag_40:\n      mload(0x40)\n      dup1\n      swap2\n      sub\n      swap1\n      return\n        /* \"E-timetable.sol\":4072:4778  function updateEvent(uint monthTimestamp, uint index, uint eventStartTimestamp, uint eventEndTimestamp, ... */\n    tag_9:\n      tag_42\n      0x04\n      dup1\n      calldatasize\n      sub\n      dup2\n      add\n      swap1\n      tag_43\n      swap2\n      swap1\n      tag_44\n      jump\t// in\n    tag_43:\n      tag_45\n      jump\t// in\n    tag_42:\n      stop\n        /* \"E-timetable.sol\":6462:7076  function getCooperators(address[] memory cooperatorAddress) public view viewRestricted(cooperatorAddress) returns(address[] memory _cooperators, string[] memory names, uint[] memory permissions){... */\n    tag_10:\n      tag_46\n      0x04\n      dup1\n      calldatasize\n      sub\n      dup2\n      add\n      swap1\n      tag_47\n      swap2\n      swap1\n      tag_48\n      jump\t// in\n    tag_47:\n      tag_49\n      jump\t// in\n    tag_46:\n      mload(0x40)\n      tag_50\n      swap4\n      swap3\n      swap2\n      swap1\n      tag_51\n      jump\t// in\n    tag_50:\n      mload(0x40)\n      dup1\n      swap2\n      sub\n      swap1\n      return\n        /* \"E-timetable.sol\":5232:5401  function getCalendarTitle(address[] memory cooperatorAddress) public view viewRestricted(cooperatorAddress) returns(string memory){... */\n    tag_11:\n      tag_52\n      0x04\n      dup1\n      calldatasize\n      sub\n      dup2\n      add\n      swap1\n      tag_53\n      swap2\n      swap1\n      tag_48\n      jump\t// in\n    tag_53:\n      tag_54\n      jump\t// in\n    tag_52:\n      mload(0x40)\n      tag_55\n      swap2\n      swap1\n      tag_56\n      jump\t// in\n    tag_55:\n      mload(0x40)\n      dup1\n      swap2\n      sub\n      swap1\n      return\n        /* \"E-timetable.sol\":1932:2579  function addEvent(uint monthTimestamp, uint eventStartTimestamp, uint eventEndTimestamp, string memory title, string memory color,... */\n    tag_12:\n      tag_57\n      0x04\n      dup1\n      calldatasize\n      sub\n      dup2\n      add\n      swap1\n      tag_58\n      swap2\n      swap1\n      tag_59\n      jump\t// in\n    tag_58:\n      tag_60\n      jump\t// in\n    tag_57:\n      stop\n        /* \"E-timetable.sol\":5654:6007  function changeManager(address newManager) public{... */\n    tag_13:\n      tag_61\n      0x04\n      dup1\n      calldatasize\n      sub\n      dup2\n      add\n      swap1\n      tag_62\n      swap2\n      swap1\n      tag_63\n      jump\t// in\n    tag_62:\n      tag_64\n      jump\t// in\n    tag_61:\n      stop\n        /* \"E-timetable.sol\":5439:5606  function updateCalendarTitle(string memory title, address[] memory cooperatorAddress) public adminRestricted(cooperatorAddress){... */\n    tag_14:\n      tag_65\n      0x04\n      dup1\n      calldatasize\n      sub\n      dup2\n      add\n      swap1\n      tag_66\n      swap2\n      swap1\n      tag_67\n      jump\t// in\n    tag_66:\n      tag_68\n      jump\t// in\n    tag_65:\n      stop\n        /* \"E-timetable.sol\":6068:6430  function addCooperator(address cooperator, uint permission, string memory name, address[] memory cooperatorAddress) public adminRestricted(cooperatorAddress){... */\n    tag_19:\n        /* \"E-timetable.sol\":6207:6224  cooperatorAddress */\n      dup1\n        /* \"E-timetable.sol\":797:845  checkAccess(cooperatorAddress, Permission.ADMIN) */\n      tag_70\n        /* \"E-timetable.sol\":809:826  cooperatorAddress */\n      dup2\n        /* \"E-timetable.sol\":828:844  Permission.ADMIN */\n      0x03\n        /* \"E-timetable.sol\":797:808  checkAccess */\n      tag_71\n        /* \"E-timetable.sol\":797:845  checkAccess(cooperatorAddress, Permission.ADMIN) */\n      jump\t// in\n    tag_70:\n        /* \"E-timetable.sol\":789:846  require(checkAccess(cooperatorAddress, Permission.ADMIN)) */\n      tag_72\n      jumpi\n      0x00\n      dup1\n      revert\n    tag_72:\n        /* \"E-timetable.sol\":6282:6293  cooperators */\n      0x03\n        /* \"E-timetable.sol\":6299:6309  cooperator */\n      dup6\n        /* \"E-timetable.sol\":6282:6310  cooperators.push(cooperator) */\n      swap1\n      dup1\n      0x01\n      dup2\n      sload\n      add\n      dup1\n      dup3\n      sstore\n      dup1\n      swap2\n      pop\n      pop\n      0x01\n      swap1\n      sub\n      swap1\n      0x00\n      mstore\n      keccak256(0x00, 0x20)\n      add\n      0x00\n      swap1\n      swap2\n      swap1\n      swap2\n      swap1\n      swap2\n      0x0100\n      exp\n      dup2\n      sload\n      dup2\n      0xffffffffffffffffffffffffffffffffffffffff\n      mul\n      not\n      and\n      swap1\n      dup4\n      0xffffffffffffffffffffffffffffffffffffffff\n      and\n      mul\n      or\n      swap1\n      sstore\n      pop\n        /* \"E-timetable.sol\":6367:6377  permission */\n      dup4\n        /* \"E-timetable.sol\":6356:6378  Permission(permission) */\n      0x03\n      dup2\n      gt\n      iszero\n      tag_75\n      jumpi\n      tag_76\n      tag_77\n      jump\t// in\n    tag_76:\n    tag_75:\n        /* \"E-timetable.sol\":6321:6341  cooperatorPermission */\n      0x04\n        /* \"E-timetable.sol\":6321:6353  cooperatorPermission[cooperator] */\n      0x00\n        /* \"E-timetable.sol\":6342:6352  cooperator */\n      dup8\n        /* \"E-timetable.sol\":6321:6353  cooperatorPermission[cooperator] */\n      0xffffffffffffffffffffffffffffffffffffffff\n      and\n      0xffffffffffffffffffffffffffffffffffffffff\n      and\n      dup2\n      mstore\n      0x20\n      add\n      swap1\n      dup2\n      mstore\n      0x20\n      add\n      0x00\n      keccak256\n      0x00\n        /* \"E-timetable.sol\":6321:6378  cooperatorPermission[cooperator] = Permission(permission) */\n      0x0100\n      exp\n      dup2\n      sload\n      dup2\n      0xff\n      mul\n      not\n      and\n      swap1\n      dup4\n      0x03\n      dup2\n      gt\n      iszero\n      tag_78\n      jumpi\n      tag_79\n      tag_77\n      jump\t// in\n    tag_79:\n    tag_78:\n      mul\n      or\n      swap1\n      sstore\n      pop\n        /* \"E-timetable.sol\":6418:6422  name */\n      dup3\n        /* \"E-timetable.sol\":6389:6403  cooperatorName */\n      0x05\n        /* \"E-timetable.sol\":6389:6415  cooperatorName[cooperator] */\n      0x00\n        /* \"E-timetable.sol\":6404:6414  cooperator */\n      dup8\n        /* \"E-timetable.sol\":6389:6415  cooperatorName[cooperator] */\n      0xffffffffffffffffffffffffffffffffffffffff\n      and\n      0xffffffffffffffffffffffffffffffffffffffff\n      and\n      dup2\n      mstore\n      0x20\n      add\n      swap1\n      dup2\n      mstore\n      0x20\n      add\n      0x00\n      keccak256\n        /* \"E-timetable.sol\":6389:6422  cooperatorName[cooperator] = name */\n      swap1\n      dup1\n      mload\n      swap1\n      0x20\n      add\n      swap1\n      tag_80\n      swap3\n      swap2\n      swap1\n      tag_81\n      jump\t// in\n    tag_80:\n      pop\n        /* \"E-timetable.sol\":6068:6430  function addCooperator(address cooperator, uint permission, string memory name, address[] memory cooperatorAddress) public adminRestricted(cooperatorAddress){... */\n      pop\n      pop\n      pop\n      pop\n      pop\n      jump\t// out\n        /* \"E-timetable.sol\":4807:5197  function deleteEvent(uint monthTimestamp, uint index, address[] memory cooperatorAddress) public editRestricted(cooperatorAddress){... */\n    tag_23:\n        /* \"E-timetable.sol\":4919:4936  cooperatorAddress */\n      dup1\n        /* \"E-timetable.sol\":1106:1153  checkAccess(cooperatorAddress, Permission.EDIT) */\n      tag_83\n        /* \"E-timetable.sol\":1118:1135  cooperatorAddress */\n      dup2\n        /* \"E-timetable.sol\":1137:1152  Permission.EDIT */\n      0x02\n        /* \"E-timetable.sol\":1106:1117  checkAccess */\n      tag_71\n        /* \"E-timetable.sol\":1106:1153  checkAccess(cooperatorAddress, Permission.EDIT) */\n      jump\t// in\n    tag_83:\n        /* \"E-timetable.sol\":1098:1154  require(checkAccess(cooperatorAddress, Permission.EDIT)) */\n      tag_84\n      jumpi\n      0x00\n      dup1\n      revert\n    tag_84:\n        /* \"E-timetable.sol\":4998:5027  Event[] storage eventsInMonth */\n      0x00\n        /* \"E-timetable.sol\":5030:5036  events */\n      dup1\n        /* \"E-timetable.sol\":5030:5052  events[monthTimestamp] */\n      0x00\n        /* \"E-timetable.sol\":5037:5051  monthTimestamp */\n      dup7\n        /* \"E-timetable.sol\":5030:5052  events[monthTimestamp] */\n      dup2\n      mstore\n      0x20\n      add\n      swap1\n      dup2\n      mstore\n      0x20\n      add\n      0x00\n      keccak256\n        /* \"E-timetable.sol\":4998:5052  Event[] storage eventsInMonth = events[monthTimestamp] */\n      swap1\n      pop\n        /* \"E-timetable.sol\":5122:5135  eventsInMonth */\n      dup1\n        /* \"E-timetable.sol\":5157:5158  1 */\n      0x01\n        /* \"E-timetable.sol\":5136:5149  eventsInMonth */\n      dup3\n        /* \"E-timetable.sol\":5136:5156  eventsInMonth.length */\n      dup1\n      sload\n      swap1\n      pop\n        /* \"E-timetable.sol\":5136:5158  eventsInMonth.length-1 */\n      tag_86\n      swap2\n      swap1\n      tag_87\n      jump\t// in\n    tag_86:\n        /* \"E-timetable.sol\":5122:5159  eventsInMonth[eventsInMonth.length-1] */\n      dup2\n      sload\n      dup2\n      lt\n      tag_88\n      jumpi\n      tag_89\n      tag_90\n      jump\t// in\n    tag_89:\n    tag_88:\n      swap1\n      0x00\n      mstore\n      keccak256(0x00, 0x20)\n      swap1\n      0x06\n      mul\n      add\n        /* \"E-timetable.sol\":5099:5112  eventsInMonth */\n      dup2\n        /* \"E-timetable.sol\":5113:5118  index */\n      dup6\n        /* \"E-timetable.sol\":5099:5119  eventsInMonth[index] */\n      dup2\n      sload\n      dup2\n      lt\n      tag_92\n      jumpi\n      tag_93\n      tag_90\n      jump\t// in\n    tag_93:\n    tag_92:\n      swap1\n      0x00\n      mstore\n      keccak256(0x00, 0x20)\n      swap1\n      0x06\n      mul\n      add\n        /* \"E-timetable.sol\":5099:5159  eventsInMonth[index] = eventsInMonth[eventsInMonth.length-1] */\n      0x00\n      dup3\n      add\n      sload\n      dup2\n      0x00\n      add\n      sstore\n      0x01\n      dup3\n      add\n      sload\n      dup2\n      0x01\n      add\n      sstore\n      0x02\n      dup3\n      add\n      dup2\n      0x02\n      add\n      swap1\n      dup1\n      sload\n      tag_95\n      swap1\n      tag_96\n      jump\t// in\n    tag_95:\n      tag_97\n      swap3\n      swap2\n      swap1\n      tag_98\n      jump\t// in\n    tag_97:\n      pop\n      0x03\n      dup3\n      add\n      dup2\n      0x03\n      add\n      swap1\n      dup1\n      sload\n      tag_99\n      swap1\n      tag_96\n      jump\t// in\n    tag_99:\n      tag_100\n      swap3\n      swap2\n      swap1\n      tag_98\n      jump\t// in\n    tag_100:\n      pop\n      0x04\n      dup3\n      add\n      dup2\n      0x04\n      add\n      swap1\n      dup1\n      sload\n      tag_101\n      swap1\n      tag_96\n      jump\t// in\n    tag_101:\n      tag_102\n      swap3\n      swap2\n      swap1\n      tag_98\n      jump\t// in\n    tag_102:\n      pop\n      0x05\n      dup3\n      add\n      0x00\n      swap1\n      sload\n      swap1\n      0x0100\n      exp\n      swap1\n      div\n      0xffffffffffffffffffffffffffffffffffffffff\n      and\n      dup2\n      0x05\n      add\n      exp(0x0100, 0x00)\n      dup2\n      sload\n      dup2\n      0xffffffffffffffffffffffffffffffffffffffff\n      mul\n      not\n      and\n      swap1\n      dup4\n      0xffffffffffffffffffffffffffffffffffffffff\n      and\n      mul\n      or\n      swap1\n      sstore\n      pop\n      swap1\n      pop\n      pop\n        /* \"E-timetable.sol\":5170:5183  eventsInMonth */\n      dup1\n        /* \"E-timetable.sol\":5170:5189  eventsInMonth.pop() */\n      dup1\n      sload\n      dup1\n      tag_103\n      jumpi\n      tag_104\n      tag_105\n      jump\t// in\n    tag_104:\n    tag_103:\n      0x01\n      swap1\n      sub\n      dup2\n      dup2\n      swap1\n      0x00\n      mstore\n      keccak256(0x00, 0x20)\n      swap1\n      0x06\n      mul\n      add\n      0x00\n      dup1\n      dup3\n      add\n      0x00\n      swap1\n      sstore\n      0x01\n      dup3\n      add\n      0x00\n      swap1\n      sstore\n      0x02\n      dup3\n      add\n      0x00\n      tag_107\n      swap2\n      swap1\n      tag_108\n      jump\t// in\n    tag_107:\n      0x03\n      dup3\n      add\n      0x00\n      tag_109\n      swap2\n      swap1\n      tag_108\n      jump\t// in\n    tag_109:\n      0x04\n      dup3\n      add\n      0x00\n      tag_110\n      swap2\n      swap1\n      tag_108\n      jump\t// in\n    tag_110:\n      0x05\n      dup3\n      add\n      exp(0x0100, 0x00)\n      dup2\n      sload\n      swap1\n      0xffffffffffffffffffffffffffffffffffffffff\n      mul\n      not\n      and\n      swap1\n      sstore\n      pop\n      pop\n      swap1\n      sstore\n        /* \"E-timetable.sol\":4937:5197  {... */\n      pop\n        /* \"E-timetable.sol\":4807:5197  function deleteEvent(uint monthTimestamp, uint index, address[] memory cooperatorAddress) public editRestricted(cooperatorAddress){... */\n      pop\n      pop\n      pop\n      pop\n      jump\t// out\n        /* \"E-timetable.sol\":2606:4043  function getEvents(uint monthTimestamp, address[] memory cooperatorAddress) public view viewRestricted(cooperatorAddress)... */\n    tag_27:\n        /* \"E-timetable.sol\":2749:2783  uint[] memory eventStartTimestamps */\n      0x60\n        /* \"E-timetable.sol\":2785:2817  uint[] memory eventEndTimestamps */\n      dup1\n        /* \"E-timetable.sol\":2833:2855  string[] memory titles */\n      0x60\n        /* \"E-timetable.sol\":2857:2879  string[] memory colors */\n      dup1\n        /* \"E-timetable.sol\":2881:2909  string[] memory descriptions */\n      0x60\n        /* \"E-timetable.sol\":2925:2952  address[] memory createdBys */\n      dup1\n        /* \"E-timetable.sol\":2954:2975  uint[] memory indexes */\n      0x60\n        /* \"E-timetable.sol\":2709:2726  cooperatorAddress */\n      dup8\n        /* \"E-timetable.sol\":952:999  checkAccess(cooperatorAddress, Permission.VIEW) */\n      tag_112\n        /* \"E-timetable.sol\":964:981  cooperatorAddress */\n      dup2\n        /* \"E-timetable.sol\":983:998  Permission.VIEW */\n      0x01\n        /* \"E-timetable.sol\":952:963  checkAccess */\n      tag_71\n        /* \"E-timetable.sol\":952:999  checkAccess(cooperatorAddress, Permission.VIEW) */\n      jump\t// in\n    tag_112:\n        /* \"E-timetable.sol\":944:1000  require(checkAccess(cooperatorAddress, Permission.VIEW)) */\n      tag_113\n      jumpi\n      0x00\n      dup1\n      revert\n    tag_113:\n        /* \"E-timetable.sol\":3041:3086  Event[] memory eventsInProvidedMonthTimestamp */\n      0x00\n        /* \"E-timetable.sol\":3089:3095  events */\n      dup1\n        /* \"E-timetable.sol\":3089:3111  events[monthTimestamp] */\n      0x00\n        /* \"E-timetable.sol\":3096:3110  monthTimestamp */\n      dup13\n        /* \"E-timetable.sol\":3089:3111  events[monthTimestamp] */\n      dup2\n      mstore\n      0x20\n      add\n      swap1\n      dup2\n      mstore\n      0x20\n      add\n      0x00\n      keccak256\n        /* \"E-timetable.sol\":3041:3111  Event[] memory eventsInProvidedMonthTimestamp = events[monthTimestamp] */\n      dup1\n      sload\n      dup1\n      0x20\n      mul\n      0x20\n      add\n      mload(0x40)\n      swap1\n      dup2\n      add\n      0x40\n      mstore\n      dup1\n      swap3\n      swap2\n      swap1\n      dup2\n      dup2\n      mstore\n      0x20\n      add\n      0x00\n      swap1\n    tag_115:\n      dup3\n      dup3\n      lt\n      iszero\n      tag_116\n      jumpi\n      dup4\n      dup3\n      swap1\n      0x00\n      mstore\n      keccak256(0x00, 0x20)\n      swap1\n      0x06\n      mul\n      add\n      mload(0x40)\n      dup1\n      0xc0\n      add\n      0x40\n      mstore\n      swap1\n      dup2\n      0x00\n      dup3\n      add\n      sload\n      dup2\n      mstore\n      0x20\n      add\n      0x01\n      dup3\n      add\n      sload\n      dup2\n      mstore\n      0x20\n      add\n      0x02\n      dup3\n      add\n      dup1\n      sload\n      tag_118\n      swap1\n      tag_96\n      jump\t// in\n    tag_118:\n      dup1\n      0x1f\n      add\n      0x20\n      dup1\n      swap2\n      div\n      mul\n      0x20\n      add\n      mload(0x40)\n      swap1\n      dup2\n      add\n      0x40\n      mstore\n      dup1\n      swap3\n      swap2\n      swap1\n      dup2\n      dup2\n      mstore\n      0x20\n      add\n      dup3\n      dup1\n      sload\n      tag_119\n      swap1\n      tag_96\n      jump\t// in\n    tag_119:\n      dup1\n      iszero\n      tag_120\n      jumpi\n      dup1\n      0x1f\n      lt\n      tag_121\n      jumpi\n      0x0100\n      dup1\n      dup4\n      sload\n      div\n      mul\n      dup4\n      mstore\n      swap2\n      0x20\n      add\n      swap2\n      jump(tag_120)\n    tag_121:\n      dup3\n      add\n      swap2\n      swap1\n      0x00\n      mstore\n      keccak256(0x00, 0x20)\n      swap1\n    tag_122:\n      dup2\n      sload\n      dup2\n      mstore\n      swap1\n      0x01\n      add\n      swap1\n      0x20\n      add\n      dup1\n      dup4\n      gt\n      tag_122\n      jumpi\n      dup3\n      swap1\n      sub\n      0x1f\n      and\n      dup3\n      add\n      swap2\n    tag_120:\n      pop\n      pop\n      pop\n      pop\n      pop\n      dup2\n      mstore\n      0x20\n      add\n      0x03\n      dup3\n      add\n      dup1\n      sload\n      tag_123\n      swap1\n      tag_96\n      jump\t// in\n    tag_123:\n      dup1\n      0x1f\n      add\n      0x20\n      dup1\n      swap2\n      div\n      mul\n      0x20\n      add\n      mload(0x40)\n      swap1\n      dup2\n      add\n      0x40\n      mstore\n      dup1\n      swap3\n      swap2\n      swap1\n      dup2\n      dup2\n      mstore\n      0x20\n      add\n      dup3\n      dup1\n      sload\n      tag_124\n      swap1\n      tag_96\n      jump\t// in\n    tag_124:\n      dup1\n      iszero\n      tag_125\n      jumpi\n      dup1\n      0x1f\n      lt\n      tag_126\n      jumpi\n      0x0100\n      dup1\n      dup4\n      sload\n      div\n      mul\n      dup4\n      mstore\n      swap2\n      0x20\n      add\n      swap2\n      jump(tag_125)\n    tag_126:\n      dup3\n      add\n      swap2\n      swap1\n      0x00\n      mstore\n      keccak256(0x00, 0x20)\n      swap1\n    tag_127:\n      dup2\n      sload\n      dup2\n      mstore\n      swap1\n      0x01\n      add\n      swap1\n      0x20\n      add\n      dup1\n      dup4\n      gt\n      tag_127\n      jumpi\n      dup3\n      swap1\n      sub\n      0x1f\n      and\n      dup3\n      add\n      swap2\n    tag_125:\n      pop\n      pop\n      pop\n      pop\n      pop\n      dup2\n      mstore\n      0x20\n      add\n      0x04\n      dup3\n      add\n      dup1\n      sload\n      tag_128\n      swap1\n      tag_96\n      jump\t// in\n    tag_128:\n      dup1\n      0x1f\n      add\n      0x20\n      dup1\n      swap2\n      div\n      mul\n      0x20\n      add\n      mload(0x40)\n      swap1\n      dup2\n      add\n      0x40\n      mstore\n      dup1\n      swap3\n      swap2\n      swap1\n      dup2\n      dup2\n      mstore\n      0x20\n      add\n      dup3\n      dup1\n      sload\n      tag_129\n      swap1\n      tag_96\n      jump\t// in\n    tag_129:\n      dup1\n      iszero\n      tag_130\n      jumpi\n      dup1\n      0x1f\n      lt\n      tag_131\n      jumpi\n      0x0100\n      dup1\n      dup4\n      sload\n      div\n      mul\n      dup4\n      mstore\n      swap2\n      0x20\n      add\n      swap2\n      jump(tag_130)\n    tag_131:\n      dup3\n      add\n      swap2\n      swap1\n      0x00\n      mstore\n      keccak256(0x00, 0x20)\n      swap1\n    tag_132:\n      dup2\n      sload\n      dup2\n      mstore\n      swap1\n      0x01\n      add\n      swap1\n      0x20\n      add\n      dup1\n      dup4\n      gt\n      tag_132\n      jumpi\n      dup3\n      swap1\n      sub\n      0x1f\n      and\n      dup3\n      add\n      swap2\n    tag_130:\n      pop\n      pop\n      pop\n      pop\n      pop\n      dup2\n      mstore\n      0x20\n      add\n      0x05\n      dup3\n      add\n      0x00\n      swap1\n      sload\n      swap1\n      0x0100\n      exp\n      swap1\n      div\n      0xffffffffffffffffffffffffffffffffffffffff\n      and\n      0xffffffffffffffffffffffffffffffffffffffff\n      and\n      0xffffffffffffffffffffffffffffffffffffffff\n      and\n      dup2\n      mstore\n      pop\n      pop\n      dup2\n      mstore\n      0x20\n      add\n      swap1\n      0x01\n      add\n      swap1\n      jump(tag_115)\n    tag_116:\n      pop\n      pop\n      pop\n      pop\n      swap1\n      pop\n        /* \"E-timetable.sol\":3158:3167  uint size */\n      0x00\n        /* \"E-timetable.sol\":3170:3200  eventsInProvidedMonthTimestamp */\n      dup2\n        /* \"E-timetable.sol\":3170:3207  eventsInProvidedMonthTimestamp.length */\n      mload\n        /* \"E-timetable.sol\":3158:3207  uint size = eventsInProvidedMonthTimestamp.length */\n      swap1\n      pop\n        /* \"E-timetable.sol\":3260:3264  size */\n      dup1\n        /* \"E-timetable.sol\":3249:3265  new uint[](size) */\n      0xffffffffffffffff\n      dup2\n      gt\n      iszero\n      tag_133\n      jumpi\n      tag_134\n      tag_135\n      jump\t// in\n    tag_134:\n    tag_133:\n      mload(0x40)\n      swap1\n      dup1\n      dup3\n      mstore\n      dup1\n      0x20\n      mul\n      0x20\n      add\n      dup3\n      add\n      0x40\n      mstore\n      dup1\n      iszero\n      tag_136\n      jumpi\n      dup2\n      0x20\n      add\n      0x20\n      dup3\n      mul\n      dup1\n      calldatasize\n      dup4\n      calldatacopy\n      dup1\n      dup3\n      add\n      swap2\n      pop\n      pop\n      swap1\n      pop\n    tag_136:\n      pop\n        /* \"E-timetable.sol\":3226:3265  eventStartTimestamps = new uint[](size) */\n      swap10\n      pop\n        /* \"E-timetable.sol\":3298:3302  size */\n      dup1\n        /* \"E-timetable.sol\":3285:3303  new string[](size) */\n      0xffffffffffffffff\n      dup2\n      gt\n      iszero\n      tag_137\n      jumpi\n      tag_138\n      tag_135\n      jump\t// in\n    tag_138:\n    tag_137:\n      mload(0x40)\n      swap1\n      dup1\n      dup3\n      mstore\n      dup1\n      0x20\n      mul\n      0x20\n      add\n      dup3\n      add\n      0x40\n      mstore\n      dup1\n      iszero\n      tag_139\n      jumpi\n      dup2\n      0x20\n      add\n    tag_140:\n      0x60\n      dup2\n      mstore\n      0x20\n      add\n      swap1\n      0x01\n      swap1\n      sub\n      swap1\n      dup2\n      tag_140\n      jumpi\n      swap1\n      pop\n    tag_139:\n      pop\n        /* \"E-timetable.sol\":3276:3303  titles = new string[](size) */\n      swap8\n      pop\n        /* \"E-timetable.sol\":3342:3346  size */\n      dup1\n        /* \"E-timetable.sol\":3329:3347  new string[](size) */\n      0xffffffffffffffff\n      dup2\n      gt\n      iszero\n      tag_141\n      jumpi\n      tag_142\n      tag_135\n      jump\t// in\n    tag_142:\n    tag_141:\n      mload(0x40)\n      swap1\n      dup1\n      dup3\n      mstore\n      dup1\n      0x20\n      mul\n      0x20\n      add\n      dup3\n      add\n      0x40\n      mstore\n      dup1\n      iszero\n      tag_143\n      jumpi\n      dup2\n      0x20\n      add\n    tag_144:\n      0x60\n      dup2\n      mstore\n      0x20\n      add\n      swap1\n      0x01\n      swap1\n      sub\n      swap1\n      dup2\n      tag_144\n      jumpi\n      swap1\n      pop\n    tag_143:\n      pop\n        /* \"E-timetable.sol\":3314:3347  descriptions = new string[](size) */\n      swap6\n      pop\n        /* \"E-timetable.sol\":3380:3384  size */\n      dup1\n        /* \"E-timetable.sol\":3367:3385  new string[](size) */\n      0xffffffffffffffff\n      dup2\n      gt\n      iszero\n      tag_145\n      jumpi\n      tag_146\n      tag_135\n      jump\t// in\n    tag_146:\n    tag_145:\n      mload(0x40)\n      swap1\n      dup1\n      dup3\n      mstore\n      dup1\n      0x20\n      mul\n      0x20\n      add\n      dup3\n      add\n      0x40\n      mstore\n      dup1\n      iszero\n      tag_147\n      jumpi\n      dup2\n      0x20\n      add\n    tag_148:\n      0x60\n      dup2\n      mstore\n      0x20\n      add\n      swap1\n      0x01\n      swap1\n      sub\n      swap1\n      dup2\n      tag_148\n      jumpi\n      swap1\n      pop\n    tag_147:\n      pop\n        /* \"E-timetable.sol\":3358:3385  colors = new string[](size) */\n      swap7\n      pop\n        /* \"E-timetable.sol\":3423:3427  size */\n      dup1\n        /* \"E-timetable.sol\":3409:3428  new address[](size) */\n      0xffffffffffffffff\n      dup2\n      gt\n      iszero\n      tag_149\n      jumpi\n      tag_150\n      tag_135\n      jump\t// in\n    tag_150:\n    tag_149:\n      mload(0x40)\n      swap1\n      dup1\n      dup3\n      mstore\n      dup1\n      0x20\n      mul\n      0x20\n      add\n      dup3\n      add\n      0x40\n      mstore\n      dup1\n      iszero\n      tag_151\n      jumpi\n      dup2\n      0x20\n      add\n      0x20\n      dup3\n      mul\n      dup1\n      calldatasize\n      dup4\n      calldatacopy\n      dup1\n      dup3\n      add\n      swap2\n      pop\n      pop\n      swap1\n      pop\n    tag_151:\n      pop\n        /* \"E-timetable.sol\":3396:3428  createdBys = new address[](size) */\n      swap5\n      pop\n        /* \"E-timetable.sol\":3460:3464  size */\n      dup1\n        /* \"E-timetable.sol\":3449:3465  new uint[](size) */\n      0xffffffffffffffff\n      dup2\n      gt\n      iszero\n      tag_152\n      jumpi\n      tag_153\n      tag_135\n      jump\t// in\n    tag_153:\n    tag_152:\n      mload(0x40)\n      swap1\n      dup1\n      dup3\n      mstore\n      dup1\n      0x20\n      mul\n      0x20\n      add\n      dup3\n      add\n      0x40\n      mstore\n      dup1\n      iszero\n      tag_154\n      jumpi\n      dup2\n      0x20\n      add\n      0x20\n      dup3\n      mul\n      dup1\n      calldatasize\n      dup4\n      calldatacopy\n      dup1\n      dup3\n      add\n      swap2\n      pop\n      pop\n      swap1\n      pop\n    tag_154:\n      pop\n        /* \"E-timetable.sol\":3439:3465  indexes = new uint[](size) */\n      swap4\n      pop\n        /* \"E-timetable.sol\":3516:3522  uint i */\n      0x00\n        /* \"E-timetable.sol\":3512:4036  for(uint i=0; i<size;i++){... */\n    tag_155:\n        /* \"E-timetable.sol\":3528:3532  size */\n      dup2\n        /* \"E-timetable.sol\":3526:3527  i */\n      dup2\n        /* \"E-timetable.sol\":3526:3532  i<size */\n      lt\n        /* \"E-timetable.sol\":3512:4036  for(uint i=0; i<size;i++){... */\n      iszero\n      tag_156\n      jumpi\n        /* \"E-timetable.sol\":3578:3608  eventsInProvidedMonthTimestamp */\n      dup3\n        /* \"E-timetable.sol\":3609:3610  i */\n      dup2\n        /* \"E-timetable.sol\":3578:3611  eventsInProvidedMonthTimestamp[i] */\n      dup2\n      mload\n      dup2\n      lt\n      tag_158\n      jumpi\n      tag_159\n      tag_90\n      jump\t// in\n    tag_159:\n    tag_158:\n      0x20\n      mul\n      0x20\n      add\n      add\n      mload\n        /* \"E-timetable.sol\":3578:3626  eventsInProvidedMonthTimestamp[i].startTimestamp */\n      0x00\n      add\n      mload\n        /* \"E-timetable.sol\":3552:3572  eventStartTimestamps */\n      dup12\n        /* \"E-timetable.sol\":3573:3574  i */\n      dup3\n        /* \"E-timetable.sol\":3552:3575  eventStartTimestamps[i] */\n      dup2\n      mload\n      dup2\n      lt\n      tag_160\n      jumpi\n      tag_161\n      tag_90\n      jump\t// in\n    tag_161:\n    tag_160:\n      0x20\n      mul\n      0x20\n      add\n      add\n        /* \"E-timetable.sol\":3552:3626  eventStartTimestamps[i] = eventsInProvidedMonthTimestamp[i].startTimestamp */\n      dup2\n      dup2\n      mstore\n      pop\n      pop\n        /* \"E-timetable.sol\":3665:3695  eventsInProvidedMonthTimestamp */\n      dup3\n        /* \"E-timetable.sol\":3696:3697  i */\n      dup2\n        /* \"E-timetable.sol\":3665:3698  eventsInProvidedMonthTimestamp[i] */\n      dup2\n      mload\n      dup2\n      lt\n      tag_162\n      jumpi\n      tag_163\n      tag_90\n      jump\t// in\n    tag_163:\n    tag_162:\n      0x20\n      mul\n      0x20\n      add\n      add\n      mload\n        /* \"E-timetable.sol\":3665:3711  eventsInProvidedMonthTimestamp[i].endTimestamp */\n      0x20\n      add\n      mload\n        /* \"E-timetable.sol\":3641:3659  eventEndTimestamps */\n      dup11\n        /* \"E-timetable.sol\":3660:3661  i */\n      dup3\n        /* \"E-timetable.sol\":3641:3662  eventEndTimestamps[i] */\n      dup2\n      mload\n      dup2\n      lt\n      tag_164\n      jumpi\n      tag_165\n      tag_90\n      jump\t// in\n    tag_165:\n    tag_164:\n      0x20\n      mul\n      0x20\n      add\n      add\n        /* \"E-timetable.sol\":3641:3711  eventEndTimestamps[i] = eventsInProvidedMonthTimestamp[i].endTimestamp */\n      dup2\n      dup2\n      mstore\n      pop\n      pop\n        /* \"E-timetable.sol\":3738:3768  eventsInProvidedMonthTimestamp */\n      dup3\n        /* \"E-timetable.sol\":3769:3770  i */\n      dup2\n        /* \"E-timetable.sol\":3738:3771  eventsInProvidedMonthTimestamp[i] */\n      dup2\n      mload\n      dup2\n      lt\n      tag_166\n      jumpi\n      tag_167\n      tag_90\n      jump\t// in\n    tag_167:\n    tag_166:\n      0x20\n      mul\n      0x20\n      add\n      add\n      mload\n        /* \"E-timetable.sol\":3738:3777  eventsInProvidedMonthTimestamp[i].title */\n      0x40\n      add\n      mload\n        /* \"E-timetable.sol\":3726:3732  titles */\n      dup10\n        /* \"E-timetable.sol\":3733:3734  i */\n      dup3\n        /* \"E-timetable.sol\":3726:3735  titles[i] */\n      dup2\n      mload\n      dup2\n      lt\n      tag_168\n      jumpi\n      tag_169\n      tag_90\n      jump\t// in\n    tag_169:\n    tag_168:\n      0x20\n      mul\n      0x20\n      add\n      add\n        /* \"E-timetable.sol\":3726:3777  titles[i] = eventsInProvidedMonthTimestamp[i].title */\n      dup2\n      swap1\n      mstore\n      pop\n        /* \"E-timetable.sol\":3810:3840  eventsInProvidedMonthTimestamp */\n      dup3\n        /* \"E-timetable.sol\":3841:3842  i */\n      dup2\n        /* \"E-timetable.sol\":3810:3843  eventsInProvidedMonthTimestamp[i] */\n      dup2\n      mload\n      dup2\n      lt\n      tag_170\n      jumpi\n      tag_171\n      tag_90\n      jump\t// in\n    tag_171:\n    tag_170:\n      0x20\n      mul\n      0x20\n      add\n      add\n      mload\n        /* \"E-timetable.sol\":3810:3855  eventsInProvidedMonthTimestamp[i].description */\n      0x80\n      add\n      mload\n        /* \"E-timetable.sol\":3792:3804  descriptions */\n      dup8\n        /* \"E-timetable.sol\":3805:3806  i */\n      dup3\n        /* \"E-timetable.sol\":3792:3807  descriptions[i] */\n      dup2\n      mload\n      dup2\n      lt\n      tag_172\n      jumpi\n      tag_173\n      tag_90\n      jump\t// in\n    tag_173:\n    tag_172:\n      0x20\n      mul\n      0x20\n      add\n      add\n        /* \"E-timetable.sol\":3792:3855  descriptions[i] = eventsInProvidedMonthTimestamp[i].description */\n      dup2\n      swap1\n      mstore\n      pop\n        /* \"E-timetable.sol\":3882:3912  eventsInProvidedMonthTimestamp */\n      dup3\n        /* \"E-timetable.sol\":3913:3914  i */\n      dup2\n        /* \"E-timetable.sol\":3882:3915  eventsInProvidedMonthTimestamp[i] */\n      dup2\n      mload\n      dup2\n      lt\n      tag_174\n      jumpi\n      tag_175\n      tag_90\n      jump\t// in\n    tag_175:\n    tag_174:\n      0x20\n      mul\n      0x20\n      add\n      add\n      mload\n        /* \"E-timetable.sol\":3882:3921  eventsInProvidedMonthTimestamp[i].color */\n      0x60\n      add\n      mload\n        /* \"E-timetable.sol\":3870:3876  colors */\n      dup9\n        /* \"E-timetable.sol\":3877:3878  i */\n      dup3\n        /* \"E-timetable.sol\":3870:3879  colors[i] */\n      dup2\n      mload\n      dup2\n      lt\n      tag_176\n      jumpi\n      tag_177\n      tag_90\n      jump\t// in\n    tag_177:\n    tag_176:\n      0x20\n      mul\n      0x20\n      add\n      add\n        /* \"E-timetable.sol\":3870:3921  colors[i] = eventsInProvidedMonthTimestamp[i].color */\n      dup2\n      swap1\n      mstore\n      pop\n        /* \"E-timetable.sol\":3952:3982  eventsInProvidedMonthTimestamp */\n      dup3\n        /* \"E-timetable.sol\":3983:3984  i */\n      dup2\n        /* \"E-timetable.sol\":3952:3985  eventsInProvidedMonthTimestamp[i] */\n      dup2\n      mload\n      dup2\n      lt\n      tag_178\n      jumpi\n      tag_179\n      tag_90\n      jump\t// in\n    tag_179:\n    tag_178:\n      0x20\n      mul\n      0x20\n      add\n      add\n      mload\n        /* \"E-timetable.sol\":3952:3995  eventsInProvidedMonthTimestamp[i].createdBy */\n      0xa0\n      add\n      mload\n        /* \"E-timetable.sol\":3936:3946  createdBys */\n      dup7\n        /* \"E-timetable.sol\":3947:3948  i */\n      dup3\n        /* \"E-timetable.sol\":3936:3949  createdBys[i] */\n      dup2\n      mload\n      dup2\n      lt\n      tag_180\n      jumpi\n      tag_181\n      tag_90\n      jump\t// in\n    tag_181:\n    tag_180:\n      0x20\n      mul\n      0x20\n      add\n      add\n        /* \"E-timetable.sol\":3936:3995  createdBys[i] = eventsInProvidedMonthTimestamp[i].createdBy */\n      swap1\n      0xffffffffffffffffffffffffffffffffffffffff\n      and\n      swap1\n      dup2\n      0xffffffffffffffffffffffffffffffffffffffff\n      and\n      dup2\n      mstore\n      pop\n      pop\n        /* \"E-timetable.sol\":4023:4024  i */\n      dup1\n        /* \"E-timetable.sol\":4010:4017  indexes */\n      dup6\n        /* \"E-timetable.sol\":4018:4019  i */\n      dup3\n        /* \"E-timetable.sol\":4010:4020  indexes[i] */\n      dup2\n      mload\n      dup2\n      lt\n      tag_182\n      jumpi\n      tag_183\n      tag_90\n      jump\t// in\n    tag_183:\n    tag_182:\n      0x20\n      mul\n      0x20\n      add\n      add\n        /* \"E-timetable.sol\":4010:4024  indexes[i] = i */\n      dup2\n      dup2\n      mstore\n      pop\n      pop\n        /* \"E-timetable.sol\":3533:3536  i++ */\n      dup1\n      dup1\n      tag_184\n      swap1\n      tag_185\n      jump\t// in\n    tag_184:\n      swap2\n      pop\n      pop\n        /* \"E-timetable.sol\":3512:4036  for(uint i=0; i<size;i++){... */\n      jump(tag_155)\n    tag_156:\n      pop\n        /* \"E-timetable.sol\":2977:4043  {... */\n      pop\n      pop\n        /* \"E-timetable.sol\":2606:4043  function getEvents(uint monthTimestamp, address[] memory cooperatorAddress) public view viewRestricted(cooperatorAddress)... */\n      pop\n      swap3\n      swap6\n      swap9\n      swap2\n      swap5\n      swap8\n      pop\n      swap3\n      swap6\n      pop\n      jump\t// out\n        /* \"E-timetable.sol\":7119:7558  function deleteCooperator(uint index, address cooperator, address[] memory cooperatorAddress) public adminRestricted(cooperatorAddress){... */\n    tag_33:\n        /* \"E-timetable.sol\":7236:7253  cooperatorAddress */\n      dup1\n        /* \"E-timetable.sol\":797:845  checkAccess(cooperatorAddress, Permission.ADMIN) */\n      tag_187\n        /* \"E-timetable.sol\":809:826  cooperatorAddress */\n      dup2\n        /* \"E-timetable.sol\":828:844  Permission.ADMIN */\n      0x03\n        /* \"E-timetable.sol\":797:808  checkAccess */\n      tag_71\n        /* \"E-timetable.sol\":797:845  checkAccess(cooperatorAddress, Permission.ADMIN) */\n      jump\t// in\n    tag_187:\n        /* \"E-timetable.sol\":789:846  require(checkAccess(cooperatorAddress, Permission.ADMIN)) */\n      tag_188\n      jumpi\n      0x00\n      dup1\n      revert\n    tag_188:\n        /* \"E-timetable.sol\":7282:7289  manager */\n      0x01\n      0x00\n      swap1\n      sload\n      swap1\n      0x0100\n      exp\n      swap1\n      div\n      0xffffffffffffffffffffffffffffffffffffffff\n      and\n        /* \"E-timetable.sol\":7268:7289  cooperator != manager */\n      0xffffffffffffffffffffffffffffffffffffffff\n      and\n        /* \"E-timetable.sol\":7268:7278  cooperator */\n      dup4\n        /* \"E-timetable.sol\":7268:7289  cooperator != manager */\n      0xffffffffffffffffffffffffffffffffffffffff\n      and\n      eq\n        /* \"E-timetable.sol\":7265:7551  if(cooperator != manager){... */\n      tag_190\n      jumpi\n        /* \"E-timetable.sol\":7358:7378  cooperatorPermission */\n      0x04\n        /* \"E-timetable.sol\":7358:7390  cooperatorPermission[cooperator] */\n      0x00\n        /* \"E-timetable.sol\":7379:7389  cooperator */\n      dup5\n        /* \"E-timetable.sol\":7358:7390  cooperatorPermission[cooperator] */\n      0xffffffffffffffffffffffffffffffffffffffff\n      and\n      0xffffffffffffffffffffffffffffffffffffffff\n      and\n      dup2\n      mstore\n      0x20\n      add\n      swap1\n      dup2\n      mstore\n      0x20\n      add\n      0x00\n      keccak256\n      0x00\n        /* \"E-timetable.sol\":7351:7390  delete cooperatorPermission[cooperator] */\n      0x0100\n      exp\n      dup2\n      sload\n      swap1\n      0xff\n      mul\n      not\n      and\n      swap1\n      sstore\n        /* \"E-timetable.sol\":7412:7426  cooperatorName */\n      0x05\n        /* \"E-timetable.sol\":7412:7438  cooperatorName[cooperator] */\n      0x00\n        /* \"E-timetable.sol\":7427:7437  cooperator */\n      dup5\n        /* \"E-timetable.sol\":7412:7438  cooperatorName[cooperator] */\n      0xffffffffffffffffffffffffffffffffffffffff\n      and\n      0xffffffffffffffffffffffffffffffffffffffff\n      and\n      dup2\n      mstore\n      0x20\n      add\n      swap1\n      dup2\n      mstore\n      0x20\n      add\n      0x00\n      keccak256\n      0x00\n        /* \"E-timetable.sol\":7405:7438  delete cooperatorName[cooperator] */\n      tag_191\n      swap2\n      swap1\n      tag_108\n      jump\t// in\n    tag_191:\n        /* \"E-timetable.sol\":7474:7485  cooperators */\n      0x03\n        /* \"E-timetable.sol\":7505:7506  1 */\n      0x01\n        /* \"E-timetable.sol\":7486:7497  cooperators */\n      0x03\n        /* \"E-timetable.sol\":7486:7504  cooperators.length */\n      dup1\n      sload\n      swap1\n      pop\n        /* \"E-timetable.sol\":7486:7506  cooperators.length-1 */\n      tag_192\n      swap2\n      swap1\n      tag_87\n      jump\t// in\n    tag_192:\n        /* \"E-timetable.sol\":7474:7507  cooperators[cooperators.length-1] */\n      dup2\n      sload\n      dup2\n      lt\n      tag_193\n      jumpi\n      tag_194\n      tag_90\n      jump\t// in\n    tag_194:\n    tag_193:\n      swap1\n      0x00\n      mstore\n      keccak256(0x00, 0x20)\n      add\n      0x00\n      swap1\n      sload\n      swap1\n      0x0100\n      exp\n      swap1\n      div\n      0xffffffffffffffffffffffffffffffffffffffff\n      and\n        /* \"E-timetable.sol\":7453:7464  cooperators */\n      0x03\n        /* \"E-timetable.sol\":7465:7470  index */\n      dup6\n        /* \"E-timetable.sol\":7453:7471  cooperators[index] */\n      dup2\n      sload\n      dup2\n      lt\n      tag_196\n      jumpi\n      tag_197\n      tag_90\n      jump\t// in\n    tag_197:\n    tag_196:\n      swap1\n      0x00\n      mstore\n      keccak256(0x00, 0x20)\n      add\n      0x00\n        /* \"E-timetable.sol\":7453:7507  cooperators[index] = cooperators[cooperators.length-1] */\n      0x0100\n      exp\n      dup2\n      sload\n      dup2\n      0xffffffffffffffffffffffffffffffffffffffff\n      mul\n      not\n      and\n      swap1\n      dup4\n      0xffffffffffffffffffffffffffffffffffffffff\n      and\n      mul\n      or\n      swap1\n      sstore\n      pop\n        /* \"E-timetable.sol\":7522:7533  cooperators */\n      0x03\n        /* \"E-timetable.sol\":7522:7539  cooperators.pop() */\n      dup1\n      sload\n      dup1\n      tag_199\n      jumpi\n      tag_200\n      tag_105\n      jump\t// in\n    tag_200:\n    tag_199:\n      0x01\n      swap1\n      sub\n      dup2\n      dup2\n      swap1\n      0x00\n      mstore\n      keccak256(0x00, 0x20)\n      add\n      exp(0x0100, 0x00)\n      dup2\n      sload\n      swap1\n      0xffffffffffffffffffffffffffffffffffffffff\n      mul\n      not\n      and\n      swap1\n      sstore\n      swap1\n      sstore\n        /* \"E-timetable.sol\":7265:7551  if(cooperator != manager){... */\n    tag_190:\n        /* \"E-timetable.sol\":7119:7558  function deleteCooperator(uint index, address cooperator, address[] memory cooperatorAddress) public adminRestricted(cooperatorAddress){... */\n      pop\n      pop\n      pop\n      pop\n      jump\t// out\n        /* \"E-timetable.sol\":7619:8015  function updateCooperator(address cooperator, string memory name, uint permission, address[] memory cooperatorAddress) public adminRestricted(cooperatorAddress){... */\n    tag_37:\n        /* \"E-timetable.sol\":7761:7778  cooperatorAddress */\n      dup1\n        /* \"E-timetable.sol\":797:845  checkAccess(cooperatorAddress, Permission.ADMIN) */\n      tag_203\n        /* \"E-timetable.sol\":809:826  cooperatorAddress */\n      dup2\n        /* \"E-timetable.sol\":828:844  Permission.ADMIN */\n      0x03\n        /* \"E-timetable.sol\":797:808  checkAccess */\n      tag_71\n        /* \"E-timetable.sol\":797:845  checkAccess(cooperatorAddress, Permission.ADMIN) */\n      jump\t// in\n    tag_203:\n        /* \"E-timetable.sol\":789:846  require(checkAccess(cooperatorAddress, Permission.ADMIN)) */\n      tag_204\n      jumpi\n      0x00\n      dup1\n      revert\n    tag_204:\n        /* \"E-timetable.sol\":7807:7814  manager */\n      0x01\n      0x00\n      swap1\n      sload\n      swap1\n      0x0100\n      exp\n      swap1\n      div\n      0xffffffffffffffffffffffffffffffffffffffff\n      and\n        /* \"E-timetable.sol\":7793:7814  cooperator != manager */\n      0xffffffffffffffffffffffffffffffffffffffff\n      and\n        /* \"E-timetable.sol\":7793:7803  cooperator */\n      dup6\n        /* \"E-timetable.sol\":7793:7814  cooperator != manager */\n      0xffffffffffffffffffffffffffffffffffffffff\n      and\n      eq\n        /* \"E-timetable.sol\":7790:8008  if(cooperator != manager){... */\n      tag_206\n      jumpi\n        /* \"E-timetable.sol\":7920:7924  name */\n      dup4\n        /* \"E-timetable.sol\":7891:7905  cooperatorName */\n      0x05\n        /* \"E-timetable.sol\":7891:7917  cooperatorName[cooperator] */\n      0x00\n        /* \"E-timetable.sol\":7906:7916  cooperator */\n      dup8\n        /* \"E-timetable.sol\":7891:7917  cooperatorName[cooperator] */\n      0xffffffffffffffffffffffffffffffffffffffff\n      and\n      0xffffffffffffffffffffffffffffffffffffffff\n      and\n      dup2\n      mstore\n      0x20\n      add\n      swap1\n      dup2\n      mstore\n      0x20\n      add\n      0x00\n      keccak256\n        /* \"E-timetable.sol\":7891:7924  cooperatorName[cooperator] = name */\n      swap1\n      dup1\n      mload\n      swap1\n      0x20\n      add\n      swap1\n      tag_207\n      swap3\n      swap2\n      swap1\n      tag_81\n      jump\t// in\n    tag_207:\n      pop\n        /* \"E-timetable.sol\":7985:7995  permission */\n      dup3\n        /* \"E-timetable.sol\":7974:7996  Permission(permission) */\n      0x03\n      dup2\n      gt\n      iszero\n      tag_208\n      jumpi\n      tag_209\n      tag_77\n      jump\t// in\n    tag_209:\n    tag_208:\n        /* \"E-timetable.sol\":7939:7959  cooperatorPermission */\n      0x04\n        /* \"E-timetable.sol\":7939:7971  cooperatorPermission[cooperator] */\n      0x00\n        /* \"E-timetable.sol\":7960:7970  cooperator */\n      dup8\n        /* \"E-timetable.sol\":7939:7971  cooperatorPermission[cooperator] */\n      0xffffffffffffffffffffffffffffffffffffffff\n      and\n      0xffffffffffffffffffffffffffffffffffffffff\n      and\n      dup2\n      mstore\n      0x20\n      add\n      swap1\n      dup2\n      mstore\n      0x20\n      add\n      0x00\n      keccak256\n      0x00\n        /* \"E-timetable.sol\":7939:7996  cooperatorPermission[cooperator] = Permission(permission) */\n      0x0100\n      exp\n      dup2\n      sload\n      dup2\n      0xff\n      mul\n      not\n      and\n      swap1\n      dup4\n      0x03\n      dup2\n      gt\n      iszero\n      tag_210\n      jumpi\n      tag_211\n      tag_77\n      jump\t// in\n    tag_211:\n    tag_210:\n      mul\n      or\n      swap1\n      sstore\n      pop\n        /* \"E-timetable.sol\":7790:8008  if(cooperator != manager){... */\n    tag_206:\n        /* \"E-timetable.sol\":7619:8015  function updateCooperator(address cooperator, string memory name, uint permission, address[] memory cooperatorAddress) public adminRestricted(cooperatorAddress){... */\n      pop\n      pop\n      pop\n      pop\n      pop\n      jump\t// out\n        /* \"E-timetable.sol\":481:503  address public manager */\n    tag_39:\n      0x01\n      0x00\n      swap1\n      sload\n      swap1\n      0x0100\n      exp\n      swap1\n      div\n      0xffffffffffffffffffffffffffffffffffffffff\n      and\n      dup2\n      jump\t// out\n        /* \"E-timetable.sol\":4072:4778  function updateEvent(uint monthTimestamp, uint index, uint eventStartTimestamp, uint eventEndTimestamp, ... */\n    tag_45:\n        /* \"E-timetable.sol\":4323:4340  cooperatorAddress */\n      dup1\n        /* \"E-timetable.sol\":1106:1153  checkAccess(cooperatorAddress, Permission.EDIT) */\n      tag_213\n        /* \"E-timetable.sol\":1118:1135  cooperatorAddress */\n      dup2\n        /* \"E-timetable.sol\":1137:1152  Permission.EDIT */\n      0x02\n        /* \"E-timetable.sol\":1106:1117  checkAccess */\n      tag_71\n        /* \"E-timetable.sol\":1106:1153  checkAccess(cooperatorAddress, Permission.EDIT) */\n      jump\t// in\n    tag_213:\n        /* \"E-timetable.sol\":1098:1154  require(checkAccess(cooperatorAddress, Permission.EDIT)) */\n      tag_214\n      jumpi\n      0x00\n      dup1\n      revert\n    tag_214:\n        /* \"E-timetable.sol\":4414:4435  Event memory newEvent */\n      0x00\n        /* \"E-timetable.sol\":4438:4683  Event({... */\n      mload(0x40)\n      dup1\n      0xc0\n      add\n      0x40\n      mstore\n      dup1\n        /* \"E-timetable.sol\":4476:4495  eventStartTimestamp */\n      dup10\n        /* \"E-timetable.sol\":4438:4683  Event({... */\n      dup2\n      mstore\n      0x20\n      add\n        /* \"E-timetable.sol\":4524:4541  eventEndTimestamp */\n      dup9\n        /* \"E-timetable.sol\":4438:4683  Event({... */\n      dup2\n      mstore\n      0x20\n      add\n        /* \"E-timetable.sol\":4564:4569  title */\n      dup8\n        /* \"E-timetable.sol\":4438:4683  Event({... */\n      dup2\n      mstore\n      0x20\n      add\n        /* \"E-timetable.sol\":4591:4596  color */\n      dup7\n        /* \"E-timetable.sol\":4438:4683  Event({... */\n      dup2\n      mstore\n      0x20\n      add\n        /* \"E-timetable.sol\":4624:4635  description */\n      dup6\n        /* \"E-timetable.sol\":4438:4683  Event({... */\n      dup2\n      mstore\n      0x20\n      add\n        /* \"E-timetable.sol\":4661:4671  msg.sender */\n      caller\n        /* \"E-timetable.sol\":4438:4683  Event({... */\n      0xffffffffffffffffffffffffffffffffffffffff\n      and\n      dup2\n      mstore\n      pop\n        /* \"E-timetable.sol\":4414:4683  Event memory newEvent = Event({... */\n      swap1\n      pop\n        /* \"E-timetable.sol\":4762:4770  newEvent */\n      dup1\n        /* \"E-timetable.sol\":4730:4736  events */\n      0x00\n        /* \"E-timetable.sol\":4730:4752  events[monthTimestamp] */\n      dup1\n        /* \"E-timetable.sol\":4737:4751  monthTimestamp */\n      dup13\n        /* \"E-timetable.sol\":4730:4752  events[monthTimestamp] */\n      dup2\n      mstore\n      0x20\n      add\n      swap1\n      dup2\n      mstore\n      0x20\n      add\n      0x00\n      keccak256\n        /* \"E-timetable.sol\":4753:4758  index */\n      dup11\n        /* \"E-timetable.sol\":4730:4759  events[monthTimestamp][index] */\n      dup2\n      sload\n      dup2\n      lt\n      tag_216\n      jumpi\n      tag_217\n      tag_90\n      jump\t// in\n    tag_217:\n    tag_216:\n      swap1\n      0x00\n      mstore\n      keccak256(0x00, 0x20)\n      swap1\n      0x06\n      mul\n      add\n        /* \"E-timetable.sol\":4730:4770  events[monthTimestamp][index] = newEvent */\n      0x00\n      dup3\n      add\n      mload\n      dup2\n      0x00\n      add\n      sstore\n      0x20\n      dup3\n      add\n      mload\n      dup2\n      0x01\n      add\n      sstore\n      0x40\n      dup3\n      add\n      mload\n      dup2\n      0x02\n      add\n      swap1\n      dup1\n      mload\n      swap1\n      0x20\n      add\n      swap1\n      tag_219\n      swap3\n      swap2\n      swap1\n      tag_81\n      jump\t// in\n    tag_219:\n      pop\n      0x60\n      dup3\n      add\n      mload\n      dup2\n      0x03\n      add\n      swap1\n      dup1\n      mload\n      swap1\n      0x20\n      add\n      swap1\n      tag_220\n      swap3\n      swap2\n      swap1\n      tag_81\n      jump\t// in\n    tag_220:\n      pop\n      0x80\n      dup3\n      add\n      mload\n      dup2\n      0x04\n      add\n      swap1\n      dup1\n      mload\n      swap1\n      0x20\n      add\n      swap1\n      tag_221\n      swap3\n      swap2\n      swap1\n      tag_81\n      jump\t// in\n    tag_221:\n      pop\n      0xa0\n      dup3\n      add\n      mload\n      dup2\n      0x05\n      add\n      exp(0x0100, 0x00)\n      dup2\n      sload\n      dup2\n      0xffffffffffffffffffffffffffffffffffffffff\n      mul\n      not\n      and\n      swap1\n      dup4\n      0xffffffffffffffffffffffffffffffffffffffff\n      and\n      mul\n      or\n      swap1\n      sstore\n      pop\n      swap1\n      pop\n      pop\n        /* \"E-timetable.sol\":4341:4778  {... */\n      pop\n        /* \"E-timetable.sol\":4072:4778  function updateEvent(uint monthTimestamp, uint index, uint eventStartTimestamp, uint eventEndTimestamp, ... */\n      pop\n      pop\n      pop\n      pop\n      pop\n      pop\n      pop\n      pop\n      pop\n      jump\t// out\n        /* \"E-timetable.sol\":6462:7076  function getCooperators(address[] memory cooperatorAddress) public view viewRestricted(cooperatorAddress) returns(address[] memory _cooperators, string[] memory names, uint[] memory permissions){... */\n    tag_49:\n        /* \"E-timetable.sol\":6576:6605  address[] memory _cooperators */\n      0x60\n        /* \"E-timetable.sol\":6607:6628  string[] memory names */\n      dup1\n        /* \"E-timetable.sol\":6630:6655  uint[] memory permissions */\n      0x60\n        /* \"E-timetable.sol\":6549:6566  cooperatorAddress */\n      dup4\n        /* \"E-timetable.sol\":952:999  checkAccess(cooperatorAddress, Permission.VIEW) */\n      tag_223\n        /* \"E-timetable.sol\":964:981  cooperatorAddress */\n      dup2\n        /* \"E-timetable.sol\":983:998  Permission.VIEW */\n      0x01\n        /* \"E-timetable.sol\":952:963  checkAccess */\n      tag_71\n        /* \"E-timetable.sol\":952:999  checkAccess(cooperatorAddress, Permission.VIEW) */\n      jump\t// in\n    tag_223:\n        /* \"E-timetable.sol\":944:1000  require(checkAccess(cooperatorAddress, Permission.VIEW)) */\n      tag_224\n      jumpi\n      0x00\n      dup1\n      revert\n    tag_224:\n        /* \"E-timetable.sol\":6701:6710  uint size */\n      0x00\n        /* \"E-timetable.sol\":6713:6724  cooperators */\n      0x03\n        /* \"E-timetable.sol\":6713:6731  cooperators.length */\n      dup1\n      sload\n      swap1\n      pop\n        /* \"E-timetable.sol\":6701:6731  uint size = cooperators.length */\n      swap1\n      pop\n        /* \"E-timetable.sol\":6757:6768  cooperators */\n      0x03\n        /* \"E-timetable.sol\":6742:6768  _cooperators = cooperators */\n      dup1\n      sload\n      dup1\n      0x20\n      mul\n      0x20\n      add\n      mload(0x40)\n      swap1\n      dup2\n      add\n      0x40\n      mstore\n      dup1\n      swap3\n      swap2\n      swap1\n      dup2\n      dup2\n      mstore\n      0x20\n      add\n      dup3\n      dup1\n      sload\n      dup1\n      iszero\n      tag_226\n      jumpi\n      0x20\n      mul\n      dup3\n      add\n      swap2\n      swap1\n      0x00\n      mstore\n      keccak256(0x00, 0x20)\n      swap1\n    tag_227:\n      dup2\n      0x00\n      swap1\n      sload\n      swap1\n      0x0100\n      exp\n      swap1\n      div\n      0xffffffffffffffffffffffffffffffffffffffff\n      and\n      0xffffffffffffffffffffffffffffffffffffffff\n      and\n      dup2\n      mstore\n      0x20\n      add\n      swap1\n      0x01\n      add\n      swap1\n      dup1\n      dup4\n      gt\n      tag_227\n      jumpi\n    tag_226:\n      pop\n      pop\n      pop\n      pop\n      pop\n      swap5\n      pop\n        /* \"E-timetable.sol\":6800:6804  size */\n      dup1\n        /* \"E-timetable.sol\":6787:6805  new string[](size) */\n      0xffffffffffffffff\n      dup2\n      gt\n      iszero\n      tag_228\n      jumpi\n      tag_229\n      tag_135\n      jump\t// in\n    tag_229:\n    tag_228:\n      mload(0x40)\n      swap1\n      dup1\n      dup3\n      mstore\n      dup1\n      0x20\n      mul\n      0x20\n      add\n      dup3\n      add\n      0x40\n      mstore\n      dup1\n      iszero\n      tag_230\n      jumpi\n      dup2\n      0x20\n      add\n    tag_231:\n      0x60\n      dup2\n      mstore\n      0x20\n      add\n      swap1\n      0x01\n      swap1\n      sub\n      swap1\n      dup2\n      tag_231\n      jumpi\n      swap1\n      pop\n    tag_230:\n      pop\n        /* \"E-timetable.sol\":6779:6805  names = new string[](size) */\n      swap4\n      pop\n        /* \"E-timetable.sol\":6841:6845  size */\n      dup1\n        /* \"E-timetable.sol\":6830:6846  new uint[](size) */\n      0xffffffffffffffff\n      dup2\n      gt\n      iszero\n      tag_232\n      jumpi\n      tag_233\n      tag_135\n      jump\t// in\n    tag_233:\n    tag_232:\n      mload(0x40)\n      swap1\n      dup1\n      dup3\n      mstore\n      dup1\n      0x20\n      mul\n      0x20\n      add\n      dup3\n      add\n      0x40\n      mstore\n      dup1\n      iszero\n      tag_234\n      jumpi\n      dup2\n      0x20\n      add\n      0x20\n      dup3\n      mul\n      dup1\n      calldatasize\n      dup4\n      calldatacopy\n      dup1\n      dup3\n      add\n      swap2\n      pop\n      pop\n      swap1\n      pop\n    tag_234:\n      pop\n        /* \"E-timetable.sol\":6816:6846  permissions = new uint[](size) */\n      swap3\n      pop\n        /* \"E-timetable.sol\":6897:6903  uint i */\n      0x00\n        /* \"E-timetable.sol\":6893:7059  for(uint i=0;i<size;i++){... */\n    tag_235:\n        /* \"E-timetable.sol\":6908:6912  size */\n      dup2\n        /* \"E-timetable.sol\":6906:6907  i */\n      dup2\n        /* \"E-timetable.sol\":6906:6912  i<size */\n      lt\n        /* \"E-timetable.sol\":6893:7059  for(uint i=0;i<size;i++){... */\n      iszero\n      tag_236\n      jumpi\n        /* \"E-timetable.sol\":6943:6957  cooperatorName */\n      0x05\n        /* \"E-timetable.sol\":6943:6973  cooperatorName[cooperators[i]] */\n      0x00\n        /* \"E-timetable.sol\":6958:6969  cooperators */\n      0x03\n        /* \"E-timetable.sol\":6970:6971  i */\n      dup4\n        /* \"E-timetable.sol\":6958:6972  cooperators[i] */\n      dup2\n      sload\n      dup2\n      lt\n      tag_238\n      jumpi\n      tag_239\n      tag_90\n      jump\t// in\n    tag_239:\n    tag_238:\n      swap1\n      0x00\n      mstore\n      keccak256(0x00, 0x20)\n      add\n      0x00\n      swap1\n      sload\n      swap1\n      0x0100\n      exp\n      swap1\n      div\n      0xffffffffffffffffffffffffffffffffffffffff\n      and\n        /* \"E-timetable.sol\":6943:6973  cooperatorName[cooperators[i]] */\n      0xffffffffffffffffffffffffffffffffffffffff\n      and\n      0xffffffffffffffffffffffffffffffffffffffff\n      and\n      dup2\n      mstore\n      0x20\n      add\n      swap1\n      dup2\n      mstore\n      0x20\n      add\n      0x00\n      keccak256\n        /* \"E-timetable.sol\":6932:6973  names[i] = cooperatorName[cooperators[i]] */\n      dup1\n      sload\n      tag_241\n      swap1\n      tag_96\n      jump\t// in\n    tag_241:\n      dup1\n      0x1f\n      add\n      0x20\n      dup1\n      swap2\n      div\n      mul\n      0x20\n      add\n      mload(0x40)\n      swap1\n      dup2\n      add\n      0x40\n      mstore\n      dup1\n      swap3\n      swap2\n      swap1\n      dup2\n      dup2\n      mstore\n      0x20\n      add\n      dup3\n      dup1\n      sload\n      tag_242\n      swap1\n      tag_96\n      jump\t// in\n    tag_242:\n      dup1\n      iszero\n      tag_243\n      jumpi\n      dup1\n      0x1f\n      lt\n      tag_244\n      jumpi\n      0x0100\n      dup1\n      dup4\n      sload\n      div\n      mul\n      dup4\n      mstore\n      swap2\n      0x20\n      add\n      swap2\n      jump(tag_243)\n    tag_244:\n      dup3\n      add\n      swap2\n      swap1\n      0x00\n      mstore\n      keccak256(0x00, 0x20)\n      swap1\n    tag_245:\n      dup2\n      sload\n      dup2\n      mstore\n      swap1\n      0x01\n      add\n      swap1\n      0x20\n      add\n      dup1\n      dup4\n      gt\n      tag_245\n      jumpi\n      dup3\n      swap1\n      sub\n      0x1f\n      and\n      dup3\n      add\n      swap2\n    tag_243:\n      pop\n      pop\n      pop\n      pop\n      pop\n        /* \"E-timetable.sol\":6932:6937  names */\n      dup6\n        /* \"E-timetable.sol\":6938:6939  i */\n      dup3\n        /* \"E-timetable.sol\":6932:6940  names[i] */\n      dup2\n      mload\n      dup2\n      lt\n      tag_246\n      jumpi\n      tag_247\n      tag_90\n      jump\t// in\n    tag_247:\n    tag_246:\n      0x20\n      mul\n      0x20\n      add\n      add\n        /* \"E-timetable.sol\":6932:6973  names[i] = cooperatorName[cooperators[i]] */\n      dup2\n      swap1\n      mstore\n      pop\n        /* \"E-timetable.sol\":7010:7030  cooperatorPermission */\n      0x04\n        /* \"E-timetable.sol\":7010:7046  cooperatorPermission[cooperators[i]] */\n      0x00\n        /* \"E-timetable.sol\":7031:7042  cooperators */\n      0x03\n        /* \"E-timetable.sol\":7043:7044  i */\n      dup4\n        /* \"E-timetable.sol\":7031:7045  cooperators[i] */\n      dup2\n      sload\n      dup2\n      lt\n      tag_248\n      jumpi\n      tag_249\n      tag_90\n      jump\t// in\n    tag_249:\n    tag_248:\n      swap1\n      0x00\n      mstore\n      keccak256(0x00, 0x20)\n      add\n      0x00\n      swap1\n      sload\n      swap1\n      0x0100\n      exp\n      swap1\n      div\n      0xffffffffffffffffffffffffffffffffffffffff\n      and\n        /* \"E-timetable.sol\":7010:7046  cooperatorPermission[cooperators[i]] */\n      0xffffffffffffffffffffffffffffffffffffffff\n      and\n      0xffffffffffffffffffffffffffffffffffffffff\n      and\n      dup2\n      mstore\n      0x20\n      add\n      swap1\n      dup2\n      mstore\n      0x20\n      add\n      0x00\n      keccak256\n      0x00\n      swap1\n      sload\n      swap1\n      0x0100\n      exp\n      swap1\n      div\n      0xff\n      and\n        /* \"E-timetable.sol\":7005:7047  uint(cooperatorPermission[cooperators[i]]) */\n      0x03\n      dup2\n      gt\n      iszero\n      tag_251\n      jumpi\n      tag_252\n      tag_77\n      jump\t// in\n    tag_252:\n    tag_251:\n        /* \"E-timetable.sol\":6988:6999  permissions */\n      dup5\n        /* \"E-timetable.sol\":7000:7001  i */\n      dup3\n        /* \"E-timetable.sol\":6988:7002  permissions[i] */\n      dup2\n      mload\n      dup2\n      lt\n      tag_253\n      jumpi\n      tag_254\n      tag_90\n      jump\t// in\n    tag_254:\n    tag_253:\n      0x20\n      mul\n      0x20\n      add\n      add\n        /* \"E-timetable.sol\":6988:7047  permissions[i] = uint(cooperatorPermission[cooperators[i]]) */\n      dup2\n      dup2\n      mstore\n      pop\n      pop\n        /* \"E-timetable.sol\":6913:6916  i++ */\n      dup1\n      dup1\n      tag_255\n      swap1\n      tag_185\n      jump\t// in\n    tag_255:\n      swap2\n      pop\n      pop\n        /* \"E-timetable.sol\":6893:7059  for(uint i=0;i<size;i++){... */\n      jump(tag_235)\n    tag_236:\n      pop\n        /* \"E-timetable.sol\":6656:7076  {... */\n      pop\n        /* \"E-timetable.sol\":6462:7076  function getCooperators(address[] memory cooperatorAddress) public view viewRestricted(cooperatorAddress) returns(address[] memory _cooperators, string[] memory names, uint[] memory permissions){... */\n      pop\n      swap2\n      swap4\n      swap1\n      swap3\n      pop\n      jump\t// out\n        /* \"E-timetable.sol\":5232:5401  function getCalendarTitle(address[] memory cooperatorAddress) public view viewRestricted(cooperatorAddress) returns(string memory){... */\n    tag_54:\n        /* \"E-timetable.sol\":5348:5361  string memory */\n      0x60\n        /* \"E-timetable.sol\":5321:5338  cooperatorAddress */\n      dup2\n        /* \"E-timetable.sol\":952:999  checkAccess(cooperatorAddress, Permission.VIEW) */\n      tag_257\n        /* \"E-timetable.sol\":964:981  cooperatorAddress */\n      dup2\n        /* \"E-timetable.sol\":983:998  Permission.VIEW */\n      0x01\n        /* \"E-timetable.sol\":952:963  checkAccess */\n      tag_71\n        /* \"E-timetable.sol\":952:999  checkAccess(cooperatorAddress, Permission.VIEW) */\n      jump\t// in\n    tag_257:\n        /* \"E-timetable.sol\":944:1000  require(checkAccess(cooperatorAddress, Permission.VIEW)) */\n      tag_258\n      jumpi\n      0x00\n      dup1\n      revert\n    tag_258:\n        /* \"E-timetable.sol\":5380:5393  calendarTitle */\n      0x02\n        /* \"E-timetable.sol\":5373:5393  return calendarTitle */\n      dup1\n      sload\n      tag_260\n      swap1\n      tag_96\n      jump\t// in\n    tag_260:\n      dup1\n      0x1f\n      add\n      0x20\n      dup1\n      swap2\n      div\n      mul\n      0x20\n      add\n      mload(0x40)\n      swap1\n      dup2\n      add\n      0x40\n      mstore\n      dup1\n      swap3\n      swap2\n      swap1\n      dup2\n      dup2\n      mstore\n      0x20\n      add\n      dup3\n      dup1\n      sload\n      tag_261\n      swap1\n      tag_96\n      jump\t// in\n    tag_261:\n      dup1\n      iszero\n      tag_262\n      jumpi\n      dup1\n      0x1f\n      lt\n      tag_263\n      jumpi\n      0x0100\n      dup1\n      dup4\n      sload\n      div\n      mul\n      dup4\n      mstore\n      swap2\n      0x20\n      add\n      swap2\n      jump(tag_262)\n    tag_263:\n      dup3\n      add\n      swap2\n      swap1\n      0x00\n      mstore\n      keccak256(0x00, 0x20)\n      swap1\n    tag_264:\n      dup2\n      sload\n      dup2\n      mstore\n      swap1\n      0x01\n      add\n      swap1\n      0x20\n      add\n      dup1\n      dup4\n      gt\n      tag_264\n      jumpi\n      dup3\n      swap1\n      sub\n      0x1f\n      and\n      dup3\n      add\n      swap2\n    tag_262:\n      pop\n      pop\n      pop\n      pop\n      pop\n      swap2\n      pop\n        /* \"E-timetable.sol\":5232:5401  function getCalendarTitle(address[] memory cooperatorAddress) public view viewRestricted(cooperatorAddress) returns(string memory){... */\n      pop\n      swap2\n      swap1\n      pop\n      jump\t// out\n        /* \"E-timetable.sol\":1932:2579  function addEvent(uint monthTimestamp, uint eventStartTimestamp, uint eventEndTimestamp, string memory title, string memory color,... */\n    tag_60:\n        /* \"E-timetable.sol\":2157:2174  cooperatorAddress */\n      dup1\n        /* \"E-timetable.sol\":1106:1153  checkAccess(cooperatorAddress, Permission.EDIT) */\n      tag_266\n        /* \"E-timetable.sol\":1118:1135  cooperatorAddress */\n      dup2\n        /* \"E-timetable.sol\":1137:1152  Permission.EDIT */\n      0x02\n        /* \"E-timetable.sol\":1106:1117  checkAccess */\n      tag_71\n        /* \"E-timetable.sol\":1106:1153  checkAccess(cooperatorAddress, Permission.EDIT) */\n      jump\t// in\n    tag_266:\n        /* \"E-timetable.sol\":1098:1154  require(checkAccess(cooperatorAddress, Permission.EDIT)) */\n      tag_267\n      jumpi\n      0x00\n      dup1\n      revert\n    tag_267:\n        /* \"E-timetable.sol\":2220:2241  Event memory newEvent */\n      0x00\n        /* \"E-timetable.sol\":2244:2489  Event({... */\n      mload(0x40)\n      dup1\n      0xc0\n      add\n      0x40\n      mstore\n      dup1\n        /* \"E-timetable.sol\":2282:2301  eventStartTimestamp */\n      dup10\n        /* \"E-timetable.sol\":2244:2489  Event({... */\n      dup2\n      mstore\n      0x20\n      add\n        /* \"E-timetable.sol\":2330:2347  eventEndTimestamp */\n      dup9\n        /* \"E-timetable.sol\":2244:2489  Event({... */\n      dup2\n      mstore\n      0x20\n      add\n        /* \"E-timetable.sol\":2370:2375  title */\n      dup8\n        /* \"E-timetable.sol\":2244:2489  Event({... */\n      dup2\n      mstore\n      0x20\n      add\n        /* \"E-timetable.sol\":2397:2402  color */\n      dup7\n        /* \"E-timetable.sol\":2244:2489  Event({... */\n      dup2\n      mstore\n      0x20\n      add\n        /* \"E-timetable.sol\":2430:2441  description */\n      dup6\n        /* \"E-timetable.sol\":2244:2489  Event({... */\n      dup2\n      mstore\n      0x20\n      add\n        /* \"E-timetable.sol\":2467:2477  msg.sender */\n      caller\n        /* \"E-timetable.sol\":2244:2489  Event({... */\n      0xffffffffffffffffffffffffffffffffffffffff\n      and\n      dup2\n      mstore\n      pop\n        /* \"E-timetable.sol\":2220:2489  Event memory newEvent = Event({... */\n      swap1\n      pop\n        /* \"E-timetable.sol\":2534:2540  events */\n      0x00\n        /* \"E-timetable.sol\":2534:2556  events[monthTimestamp] */\n      dup1\n        /* \"E-timetable.sol\":2541:2555  monthTimestamp */\n      dup11\n        /* \"E-timetable.sol\":2534:2556  events[monthTimestamp] */\n      dup2\n      mstore\n      0x20\n      add\n      swap1\n      dup2\n      mstore\n      0x20\n      add\n      0x00\n      keccak256\n        /* \"E-timetable.sol\":2562:2570  newEvent */\n      dup2\n        /* \"E-timetable.sol\":2534:2571  events[monthTimestamp].push(newEvent) */\n      swap1\n      dup1\n      0x01\n      dup2\n      sload\n      add\n      dup1\n      dup3\n      sstore\n      dup1\n      swap2\n      pop\n      pop\n      0x01\n      swap1\n      sub\n      swap1\n      0x00\n      mstore\n      keccak256(0x00, 0x20)\n      swap1\n      0x06\n      mul\n      add\n      0x00\n      swap1\n      swap2\n      swap1\n      swap2\n      swap1\n      swap2\n      pop\n      0x00\n      dup3\n      add\n      mload\n      dup2\n      0x00\n      add\n      sstore\n      0x20\n      dup3\n      add\n      mload\n      dup2\n      0x01\n      add\n      sstore\n      0x40\n      dup3\n      add\n      mload\n      dup2\n      0x02\n      add\n      swap1\n      dup1\n      mload\n      swap1\n      0x20\n      add\n      swap1\n      tag_270\n      swap3\n      swap2\n      swap1\n      tag_81\n      jump\t// in\n    tag_270:\n      pop\n      0x60\n      dup3\n      add\n      mload\n      dup2\n      0x03\n      add\n      swap1\n      dup1\n      mload\n      swap1\n      0x20\n      add\n      swap1\n      tag_271\n      swap3\n      swap2\n      swap1\n      tag_81\n      jump\t// in\n    tag_271:\n      pop\n      0x80\n      dup3\n      add\n      mload\n      dup2\n      0x04\n      add\n      swap1\n      dup1\n      mload\n      swap1\n      0x20\n      add\n      swap1\n      tag_272\n      swap3\n      swap2\n      swap1\n      tag_81\n      jump\t// in\n    tag_272:\n      pop\n      0xa0\n      dup3\n      add\n      mload\n      dup2\n      0x05\n      add\n      exp(0x0100, 0x00)\n      dup2\n      sload\n      dup2\n      0xffffffffffffffffffffffffffffffffffffffff\n      mul\n      not\n      and\n      swap1\n      dup4\n      0xffffffffffffffffffffffffffffffffffffffff\n      and\n      mul\n      or\n      swap1\n      sstore\n      pop\n      pop\n      pop\n        /* \"E-timetable.sol\":2175:2579  {... */\n      pop\n        /* \"E-timetable.sol\":1932:2579  function addEvent(uint monthTimestamp, uint eventStartTimestamp, uint eventEndTimestamp, string memory title, string memory color,... */\n      pop\n      pop\n      pop\n      pop\n      pop\n      pop\n      pop\n      pop\n      jump\t// out\n        /* \"E-timetable.sol\":5654:6007  function changeManager(address newManager) public{... */\n    tag_64:\n        /* \"E-timetable.sol\":5772:5779  manager */\n      0x01\n      0x00\n      swap1\n      sload\n      swap1\n      0x0100\n      exp\n      swap1\n      div\n      0xffffffffffffffffffffffffffffffffffffffff\n      and\n        /* \"E-timetable.sol\":5758:5779  msg.sender == manager */\n      0xffffffffffffffffffffffffffffffffffffffff\n      and\n        /* \"E-timetable.sol\":5758:5768  msg.sender */\n      caller\n        /* \"E-timetable.sol\":5758:5779  msg.sender == manager */\n      0xffffffffffffffffffffffffffffffffffffffff\n      and\n      eq\n        /* \"E-timetable.sol\":5750:5780  require(msg.sender == manager) */\n      tag_274\n      jumpi\n      0x00\n      dup1\n      revert\n    tag_274:\n        /* \"E-timetable.sol\":5838:5848  newManager */\n      dup1\n        /* \"E-timetable.sol\":5828:5835  manager */\n      0x01\n      0x00\n        /* \"E-timetable.sol\":5828:5848  manager = newManager */\n      0x0100\n      exp\n      dup2\n      sload\n      dup2\n      0xffffffffffffffffffffffffffffffffffffffff\n      mul\n      not\n      and\n      swap1\n      dup4\n      0xffffffffffffffffffffffffffffffffffffffff\n      and\n      mul\n      or\n      swap1\n      sstore\n      pop\n        /* \"E-timetable.sol\":5936:5952  Permission.ADMIN */\n      0x03\n        /* \"E-timetable.sol\":5901:5921  cooperatorPermission */\n      0x04\n        /* \"E-timetable.sol\":5901:5933  cooperatorPermission[newManager] */\n      0x00\n        /* \"E-timetable.sol\":5922:5932  newManager */\n      dup4\n        /* \"E-timetable.sol\":5901:5933  cooperatorPermission[newManager] */\n      0xffffffffffffffffffffffffffffffffffffffff\n      and\n      0xffffffffffffffffffffffffffffffffffffffff\n      and\n      dup2\n      mstore\n      0x20\n      add\n      swap1\n      dup2\n      mstore\n      0x20\n      add\n      0x00\n      keccak256\n      0x00\n        /* \"E-timetable.sol\":5901:5952  cooperatorPermission[newManager] = Permission.ADMIN */\n      0x0100\n      exp\n      dup2\n      sload\n      dup2\n      0xff\n      mul\n      not\n      and\n      swap1\n      dup4\n      0x03\n      dup2\n      gt\n      iszero\n      tag_275\n      jumpi\n      tag_276\n      tag_77\n      jump\t// in\n    tag_276:\n    tag_275:\n      mul\n      or\n      swap1\n      sstore\n      pop\n        /* \"E-timetable.sol\":5654:6007  function changeManager(address newManager) public{... */\n      pop\n      jump\t// out\n        /* \"E-timetable.sol\":5439:5606  function updateCalendarTitle(string memory title, address[] memory cooperatorAddress) public adminRestricted(cooperatorAddress){... */\n    tag_68:\n        /* \"E-timetable.sol\":5548:5565  cooperatorAddress */\n      dup1\n        /* \"E-timetable.sol\":797:845  checkAccess(cooperatorAddress, Permission.ADMIN) */\n      tag_278\n        /* \"E-timetable.sol\":809:826  cooperatorAddress */\n      dup2\n        /* \"E-timetable.sol\":828:844  Permission.ADMIN */\n      0x03\n        /* \"E-timetable.sol\":797:808  checkAccess */\n      tag_71\n        /* \"E-timetable.sol\":797:845  checkAccess(cooperatorAddress, Permission.ADMIN) */\n      jump\t// in\n    tag_278:\n        /* \"E-timetable.sol\":789:846  require(checkAccess(cooperatorAddress, Permission.ADMIN)) */\n      tag_279\n      jumpi\n      0x00\n      dup1\n      revert\n    tag_279:\n        /* \"E-timetable.sol\":5593:5598  title */\n      dup3\n        /* \"E-timetable.sol\":5577:5590  calendarTitle */\n      0x02\n        /* \"E-timetable.sol\":5577:5598  calendarTitle = title */\n      swap1\n      dup1\n      mload\n      swap1\n      0x20\n      add\n      swap1\n      tag_281\n      swap3\n      swap2\n      swap1\n      tag_81\n      jump\t// in\n    tag_281:\n      pop\n        /* \"E-timetable.sol\":5439:5606  function updateCalendarTitle(string memory title, address[] memory cooperatorAddress) public adminRestricted(cooperatorAddress){... */\n      pop\n      pop\n      pop\n      jump\t// out\n        /* \"E-timetable.sol\":1552:1903  function checkAccess(address[] memory addresses, Permission permission) ... */\n    tag_71:\n        /* \"E-timetable.sol\":1656:1660  bool */\n      0x00\n        /* \"E-timetable.sol\":1678:1684  uint i */\n      dup1\n        /* \"E-timetable.sol\":1687:1688  0 */\n      0x00\n        /* \"E-timetable.sol\":1678:1688  uint i = 0 */\n      swap1\n      pop\n        /* \"E-timetable.sol\":1674:1837  for(uint i = 0; i<addresses.length;i++){... */\n    tag_283:\n        /* \"E-timetable.sol\":1692:1701  addresses */\n      dup4\n        /* \"E-timetable.sol\":1692:1708  addresses.length */\n      mload\n        /* \"E-timetable.sol\":1690:1691  i */\n      dup2\n        /* \"E-timetable.sol\":1690:1708  i<addresses.length */\n      lt\n        /* \"E-timetable.sol\":1674:1837  for(uint i = 0; i<addresses.length;i++){... */\n      iszero\n      tag_284\n      jumpi\n        /* \"E-timetable.sol\":1769:1779  permission */\n      dup3\n        /* \"E-timetable.sol\":1731:1779  cooperatorPermission[addresses[i]] >= permission */\n      0x03\n      dup2\n      gt\n      iszero\n      tag_286\n      jumpi\n      tag_287\n      tag_77\n      jump\t// in\n    tag_287:\n    tag_286:\n        /* \"E-timetable.sol\":1731:1751  cooperatorPermission */\n      0x04\n        /* \"E-timetable.sol\":1731:1765  cooperatorPermission[addresses[i]] */\n      0x00\n        /* \"E-timetable.sol\":1752:1761  addresses */\n      dup7\n        /* \"E-timetable.sol\":1762:1763  i */\n      dup5\n        /* \"E-timetable.sol\":1752:1764  addresses[i] */\n      dup2\n      mload\n      dup2\n      lt\n      tag_288\n      jumpi\n      tag_289\n      tag_90\n      jump\t// in\n    tag_289:\n    tag_288:\n      0x20\n      mul\n      0x20\n      add\n      add\n      mload\n        /* \"E-timetable.sol\":1731:1765  cooperatorPermission[addresses[i]] */\n      0xffffffffffffffffffffffffffffffffffffffff\n      and\n      0xffffffffffffffffffffffffffffffffffffffff\n      and\n      dup2\n      mstore\n      0x20\n      add\n      swap1\n      dup2\n      mstore\n      0x20\n      add\n      0x00\n      keccak256\n      0x00\n      swap1\n      sload\n      swap1\n      0x0100\n      exp\n      swap1\n      div\n      0xff\n      and\n        /* \"E-timetable.sol\":1731:1779  cooperatorPermission[addresses[i]] >= permission */\n      0x03\n      dup2\n      gt\n      iszero\n      tag_290\n      jumpi\n      tag_291\n      tag_77\n      jump\t// in\n    tag_291:\n    tag_290:\n      lt\n        /* \"E-timetable.sol\":1728:1826  if(cooperatorPermission[addresses[i]] >= permission){... */\n      tag_292\n      jumpi\n        /* \"E-timetable.sol\":1806:1810  true */\n      0x01\n        /* \"E-timetable.sol\":1799:1810  return true */\n      swap2\n      pop\n      pop\n      jump(tag_282)\n        /* \"E-timetable.sol\":1728:1826  if(cooperatorPermission[addresses[i]] >= permission){... */\n    tag_292:\n        /* \"E-timetable.sol\":1709:1712  i++ */\n      dup1\n      dup1\n      tag_293\n      swap1\n      tag_185\n      jump\t// in\n    tag_293:\n      swap2\n      pop\n      pop\n        /* \"E-timetable.sol\":1674:1837  for(uint i = 0; i<addresses.length;i++){... */\n      jump(tag_283)\n    tag_284:\n      pop\n        /* \"E-timetable.sol\":1890:1895  false */\n      0x00\n        /* \"E-timetable.sol\":1883:1895  return false */\n      swap1\n      pop\n        /* \"E-timetable.sol\":1552:1903  function checkAccess(address[] memory addresses, Permission permission) ... */\n    tag_282:\n      swap3\n      swap2\n      pop\n      pop\n      jump\t// out\n    tag_81:\n      dup3\n      dup1\n      sload\n      tag_294\n      swap1\n      tag_96\n      jump\t// in\n    tag_294:\n      swap1\n      0x00\n      mstore\n      keccak256(0x00, 0x20)\n      swap1\n      0x1f\n      add\n      0x20\n      swap1\n      div\n      dup2\n      add\n      swap3\n      dup3\n      tag_296\n      jumpi\n      0x00\n      dup6\n      sstore\n      jump(tag_295)\n    tag_296:\n      dup3\n      0x1f\n      lt\n      tag_297\n      jumpi\n      dup1\n      mload\n      not(0xff)\n      and\n      dup4\n      dup1\n      add\n      or\n      dup6\n      sstore\n      jump(tag_295)\n    tag_297:\n      dup3\n      dup1\n      add\n      0x01\n      add\n      dup6\n      sstore\n      dup3\n      iszero\n      tag_295\n      jumpi\n      swap2\n      dup3\n      add\n    tag_298:\n      dup3\n      dup2\n      gt\n      iszero\n      tag_299\n      jumpi\n      dup3\n      mload\n      dup3\n      sstore\n      swap2\n      0x20\n      add\n      swap2\n      swap1\n      0x01\n      add\n      swap1\n      jump(tag_298)\n    tag_299:\n    tag_295:\n      pop\n      swap1\n      pop\n      tag_300\n      swap2\n      swap1\n      tag_301\n      jump\t// in\n    tag_300:\n      pop\n      swap1\n      jump\t// out\n    tag_98:\n      dup3\n      dup1\n      sload\n      tag_302\n      swap1\n      tag_96\n      jump\t// in\n    tag_302:\n      swap1\n      0x00\n      mstore\n      keccak256(0x00, 0x20)\n      swap1\n      0x1f\n      add\n      0x20\n      swap1\n      div\n      dup2\n      add\n      swap3\n      dup3\n      tag_304\n      jumpi\n      0x00\n      dup6\n      sstore\n      jump(tag_303)\n    tag_304:\n      dup3\n      0x1f\n      lt\n      tag_305\n      jumpi\n      dup1\n      sload\n      dup6\n      sstore\n      jump(tag_303)\n    tag_305:\n      dup3\n      dup1\n      add\n      0x01\n      add\n      dup6\n      sstore\n      dup3\n      iszero\n      tag_303\n      jumpi\n      0x00\n      mstore\n      keccak256(0x00, 0x20)\n      swap2\n      0x1f\n      add\n      0x20\n      swap1\n      div\n      dup3\n      add\n    tag_306:\n      dup3\n      dup2\n      gt\n      iszero\n      tag_307\n      jumpi\n      dup3\n      sload\n      dup3\n      sstore\n      swap2\n      0x01\n      add\n      swap2\n      swap1\n      0x01\n      add\n      swap1\n      jump(tag_306)\n    tag_307:\n    tag_303:\n      pop\n      swap1\n      pop\n      tag_308\n      swap2\n      swap1\n      tag_301\n      jump\t// in\n    tag_308:\n      pop\n      swap1\n      jump\t// out\n    tag_108:\n      pop\n      dup1\n      sload\n      tag_309\n      swap1\n      tag_96\n      jump\t// in\n    tag_309:\n      0x00\n      dup3\n      sstore\n      dup1\n      0x1f\n      lt\n      tag_311\n      jumpi\n      pop\n      jump(tag_310)\n    tag_311:\n      0x1f\n      add\n      0x20\n      swap1\n      div\n      swap1\n      0x00\n      mstore\n      keccak256(0x00, 0x20)\n      swap1\n      dup2\n      add\n      swap1\n      tag_312\n      swap2\n      swap1\n      tag_301\n      jump\t// in\n    tag_312:\n    tag_310:\n      pop\n      jump\t// out\n    tag_301:\n    tag_313:\n      dup1\n      dup3\n      gt\n      iszero\n      tag_314\n      jumpi\n      0x00\n      dup2\n      0x00\n      swap1\n      sstore\n      pop\n      0x01\n      add\n      jump(tag_313)\n    tag_314:\n      pop\n      swap1\n      jump\t// out\n        /* \"#utility.yul\":7:82   */\n    tag_315:\n        /* \"#utility.yul\":40:46   */\n      0x00\n        /* \"#utility.yul\":73:75   */\n      0x40\n        /* \"#utility.yul\":67:76   */\n      mload\n        /* \"#utility.yul\":57:76   */\n      swap1\n      pop\n        /* \"#utility.yul\":7:82   */\n      swap1\n      jump\t// out\n        /* \"#utility.yul\":88:205   */\n    tag_316:\n        /* \"#utility.yul\":197:198   */\n      0x00\n        /* \"#utility.yul\":194:195   */\n      dup1\n        /* \"#utility.yul\":187:199   */\n      revert\n        /* \"#utility.yul\":211:328   */\n    tag_317:\n        /* \"#utility.yul\":320:321   */\n      0x00\n        /* \"#utility.yul\":317:318   */\n      dup1\n        /* \"#utility.yul\":310:322   */\n      revert\n        /* \"#utility.yul\":334:460   */\n    tag_318:\n        /* \"#utility.yul\":371:378   */\n      0x00\n        /* \"#utility.yul\":411:453   */\n      0xffffffffffffffffffffffffffffffffffffffff\n        /* \"#utility.yul\":404:409   */\n      dup3\n        /* \"#utility.yul\":400:454   */\n      and\n        /* \"#utility.yul\":389:454   */\n      swap1\n      pop\n        /* \"#utility.yul\":334:460   */\n      swap2\n      swap1\n      pop\n      jump\t// out\n        /* \"#utility.yul\":466:562   */\n    tag_319:\n        /* \"#utility.yul\":503:510   */\n      0x00\n        /* \"#utility.yul\":532:556   */\n      tag_373\n        /* \"#utility.yul\":550:555   */\n      dup3\n        /* \"#utility.yul\":532:556   */\n      tag_318\n      jump\t// in\n    tag_373:\n        /* \"#utility.yul\":521:556   */\n      swap1\n      pop\n        /* \"#utility.yul\":466:562   */\n      swap2\n      swap1\n      pop\n      jump\t// out\n        /* \"#utility.yul\":568:690   */\n    tag_320:\n        /* \"#utility.yul\":641:665   */\n      tag_375\n        /* \"#utility.yul\":659:664   */\n      dup2\n        /* \"#utility.yul\":641:665   */\n      tag_319\n      jump\t// in\n    tag_375:\n        /* \"#utility.yul\":634:639   */\n      dup2\n        /* \"#utility.yul\":631:666   */\n      eq\n        /* \"#utility.yul\":621:684   */\n      tag_376\n      jumpi\n        /* \"#utility.yul\":680:681   */\n      0x00\n        /* \"#utility.yul\":677:678   */\n      dup1\n        /* \"#utility.yul\":670:682   */\n      revert\n        /* \"#utility.yul\":621:684   */\n    tag_376:\n        /* \"#utility.yul\":568:690   */\n      pop\n      jump\t// out\n        /* \"#utility.yul\":696:835   */\n    tag_321:\n        /* \"#utility.yul\":742:747   */\n      0x00\n        /* \"#utility.yul\":780:786   */\n      dup2\n        /* \"#utility.yul\":767:787   */\n      calldataload\n        /* \"#utility.yul\":758:787   */\n      swap1\n      pop\n        /* \"#utility.yul\":796:829   */\n      tag_378\n        /* \"#utility.yul\":823:828   */\n      dup2\n        /* \"#utility.yul\":796:829   */\n      tag_320\n      jump\t// in\n    tag_378:\n        /* \"#utility.yul\":696:835   */\n      swap3\n      swap2\n      pop\n      pop\n      jump\t// out\n        /* \"#utility.yul\":841:918   */\n    tag_322:\n        /* \"#utility.yul\":878:885   */\n      0x00\n        /* \"#utility.yul\":907:912   */\n      dup2\n        /* \"#utility.yul\":896:912   */\n      swap1\n      pop\n        /* \"#utility.yul\":841:918   */\n      swap2\n      swap1\n      pop\n      jump\t// out\n        /* \"#utility.yul\":924:1046   */\n    tag_323:\n        /* \"#utility.yul\":997:1021   */\n      tag_381\n        /* \"#utility.yul\":1015:1020   */\n      dup2\n        /* \"#utility.yul\":997:1021   */\n      tag_322\n      jump\t// in\n    tag_381:\n        /* \"#utility.yul\":990:995   */\n      dup2\n        /* \"#utility.yul\":987:1022   */\n      eq\n        /* \"#utility.yul\":977:1040   */\n      tag_382\n      jumpi\n        /* \"#utility.yul\":1036:1037   */\n      0x00\n        /* \"#utility.yul\":1033:1034   */\n      dup1\n        /* \"#utility.yul\":1026:1038   */\n      revert\n        /* \"#utility.yul\":977:1040   */\n    tag_382:\n        /* \"#utility.yul\":924:1046   */\n      pop\n      jump\t// out\n        /* \"#utility.yul\":1052:1191   */\n    tag_324:\n        /* \"#utility.yul\":1098:1103   */\n      0x00\n        /* \"#utility.yul\":1136:1142   */\n      dup2\n        /* \"#utility.yul\":1123:1143   */\n      calldataload\n        /* \"#utility.yul\":1114:1143   */\n      swap1\n      pop\n        /* \"#utility.yul\":1152:1185   */\n      tag_384\n        /* \"#utility.yul\":1179:1184   */\n      dup2\n        /* \"#utility.yul\":1152:1185   */\n      tag_323\n      jump\t// in\n    tag_384:\n        /* \"#utility.yul\":1052:1191   */\n      swap3\n      swap2\n      pop\n      pop\n      jump\t// out\n        /* \"#utility.yul\":1197:1314   */\n    tag_325:\n        /* \"#utility.yul\":1306:1307   */\n      0x00\n        /* \"#utility.yul\":1303:1304   */\n      dup1\n        /* \"#utility.yul\":1296:1308   */\n      revert\n        /* \"#utility.yul\":1320:1437   */\n    tag_326:\n        /* \"#utility.yul\":1429:1430   */\n      0x00\n        /* \"#utility.yul\":1426:1427   */\n      dup1\n        /* \"#utility.yul\":1419:1431   */\n      revert\n        /* \"#utility.yul\":1443:1545   */\n    tag_327:\n        /* \"#utility.yul\":1484:1490   */\n      0x00\n        /* \"#utility.yul\":1535:1537   */\n      0x1f\n        /* \"#utility.yul\":1531:1538   */\n      not\n        /* \"#utility.yul\":1526:1528   */\n      0x1f\n        /* \"#utility.yul\":1519:1524   */\n      dup4\n        /* \"#utility.yul\":1515:1529   */\n      add\n        /* \"#utility.yul\":1511:1539   */\n      and\n        /* \"#utility.yul\":1501:1539   */\n      swap1\n      pop\n        /* \"#utility.yul\":1443:1545   */\n      swap2\n      swap1\n      pop\n      jump\t// out\n        /* \"#utility.yul\":1551:1731   */\n    tag_135:\n        /* \"#utility.yul\":1599:1676   */\n      0x4e487b7100000000000000000000000000000000000000000000000000000000\n        /* \"#utility.yul\":1596:1597   */\n      0x00\n        /* \"#utility.yul\":1589:1677   */\n      mstore\n        /* \"#utility.yul\":1696:1700   */\n      0x41\n        /* \"#utility.yul\":1693:1694   */\n      0x04\n        /* \"#utility.yul\":1686:1701   */\n      mstore\n        /* \"#utility.yul\":1720:1724   */\n      0x24\n        /* \"#utility.yul\":1717:1718   */\n      0x00\n        /* \"#utility.yul\":1710:1725   */\n      revert\n        /* \"#utility.yul\":1737:2018   */\n    tag_328:\n        /* \"#utility.yul\":1820:1847   */\n      tag_390\n        /* \"#utility.yul\":1842:1846   */\n      dup3\n        /* \"#utility.yul\":1820:1847   */\n      tag_327\n      jump\t// in\n    tag_390:\n        /* \"#utility.yul\":1812:1818   */\n      dup2\n        /* \"#utility.yul\":1808:1848   */\n      add\n        /* \"#utility.yul\":1950:1956   */\n      dup2\n        /* \"#utility.yul\":1938:1948   */\n      dup2\n        /* \"#utility.yul\":1935:1957   */\n      lt\n        /* \"#utility.yul\":1914:1932   */\n      0xffffffffffffffff\n        /* \"#utility.yul\":1902:1912   */\n      dup3\n        /* \"#utility.yul\":1899:1933   */\n      gt\n        /* \"#utility.yul\":1896:1958   */\n      or\n        /* \"#utility.yul\":1893:1981   */\n      iszero\n      tag_391\n      jumpi\n        /* \"#utility.yul\":1961:1979   */\n      tag_392\n      tag_135\n      jump\t// in\n    tag_392:\n        /* \"#utility.yul\":1893:1981   */\n    tag_391:\n        /* \"#utility.yul\":2001:2011   */\n      dup1\n        /* \"#utility.yul\":1997:1999   */\n      0x40\n        /* \"#utility.yul\":1990:2012   */\n      mstore\n        /* \"#utility.yul\":1780:2018   */\n      pop\n        /* \"#utility.yul\":1737:2018   */\n      pop\n      pop\n      jump\t// out\n        /* \"#utility.yul\":2024:2153   */\n    tag_329:\n        /* \"#utility.yul\":2058:2064   */\n      0x00\n        /* \"#utility.yul\":2085:2105   */\n      tag_394\n      tag_315\n      jump\t// in\n    tag_394:\n        /* \"#utility.yul\":2075:2105   */\n      swap1\n      pop\n        /* \"#utility.yul\":2114:2147   */\n      tag_395\n        /* \"#utility.yul\":2142:2146   */\n      dup3\n        /* \"#utility.yul\":2134:2140   */\n      dup3\n        /* \"#utility.yul\":2114:2147   */\n      tag_328\n      jump\t// in\n    tag_395:\n        /* \"#utility.yul\":2024:2153   */\n      swap2\n      swap1\n      pop\n      jump\t// out\n        /* \"#utility.yul\":2159:2467   */\n    tag_330:\n        /* \"#utility.yul\":2221:2225   */\n      0x00\n        /* \"#utility.yul\":2311:2329   */\n      0xffffffffffffffff\n        /* \"#utility.yul\":2303:2309   */\n      dup3\n        /* \"#utility.yul\":2300:2330   */\n      gt\n        /* \"#utility.yul\":2297:2353   */\n      iszero\n      tag_397\n      jumpi\n        /* \"#utility.yul\":2333:2351   */\n      tag_398\n      tag_135\n      jump\t// in\n    tag_398:\n        /* \"#utility.yul\":2297:2353   */\n    tag_397:\n        /* \"#utility.yul\":2371:2400   */\n      tag_399\n        /* \"#utility.yul\":2393:2399   */\n      dup3\n        /* \"#utility.yul\":2371:2400   */\n      tag_327\n      jump\t// in\n    tag_399:\n        /* \"#utility.yul\":2363:2400   */\n      swap1\n      pop\n        /* \"#utility.yul\":2455:2459   */\n      0x20\n        /* \"#utility.yul\":2449:2453   */\n      dup2\n        /* \"#utility.yul\":2445:2460   */\n      add\n        /* \"#utility.yul\":2437:2460   */\n      swap1\n      pop\n        /* \"#utility.yul\":2159:2467   */\n      swap2\n      swap1\n      pop\n      jump\t// out\n        /* \"#utility.yul\":2473:2627   */\n    tag_331:\n        /* \"#utility.yul\":2557:2563   */\n      dup3\n        /* \"#utility.yul\":2552:2555   */\n      dup2\n        /* \"#utility.yul\":2547:2550   */\n      dup4\n        /* \"#utility.yul\":2534:2564   */\n      calldatacopy\n        /* \"#utility.yul\":2619:2620   */\n      0x00\n        /* \"#utility.yul\":2610:2616   */\n      dup4\n        /* \"#utility.yul\":2605:2608   */\n      dup4\n        /* \"#utility.yul\":2601:2617   */\n      add\n        /* \"#utility.yul\":2594:2621   */\n      mstore\n        /* \"#utility.yul\":2473:2627   */\n      pop\n      pop\n      pop\n      jump\t// out\n        /* \"#utility.yul\":2633:3045   */\n    tag_332:\n        /* \"#utility.yul\":2711:2716   */\n      0x00\n        /* \"#utility.yul\":2736:2802   */\n      tag_402\n        /* \"#utility.yul\":2752:2801   */\n      tag_403\n        /* \"#utility.yul\":2794:2800   */\n      dup5\n        /* \"#utility.yul\":2752:2801   */\n      tag_330\n      jump\t// in\n    tag_403:\n        /* \"#utility.yul\":2736:2802   */\n      tag_329\n      jump\t// in\n    tag_402:\n        /* \"#utility.yul\":2727:2802   */\n      swap1\n      pop\n        /* \"#utility.yul\":2825:2831   */\n      dup3\n        /* \"#utility.yul\":2818:2823   */\n      dup2\n        /* \"#utility.yul\":2811:2832   */\n      mstore\n        /* \"#utility.yul\":2863:2867   */\n      0x20\n        /* \"#utility.yul\":2856:2861   */\n      dup2\n        /* \"#utility.yul\":2852:2868   */\n      add\n        /* \"#utility.yul\":2901:2904   */\n      dup5\n        /* \"#utility.yul\":2892:2898   */\n      dup5\n        /* \"#utility.yul\":2887:2890   */\n      dup5\n        /* \"#utility.yul\":2883:2899   */\n      add\n        /* \"#utility.yul\":2880:2905   */\n      gt\n        /* \"#utility.yul\":2877:2989   */\n      iszero\n      tag_404\n      jumpi\n        /* \"#utility.yul\":2908:2987   */\n      tag_405\n      tag_326\n      jump\t// in\n    tag_405:\n        /* \"#utility.yul\":2877:2989   */\n    tag_404:\n        /* \"#utility.yul\":2998:3039   */\n      tag_406\n        /* \"#utility.yul\":3032:3038   */\n      dup5\n        /* \"#utility.yul\":3027:3030   */\n      dup3\n        /* \"#utility.yul\":3022:3025   */\n      dup6\n        /* \"#utility.yul\":2998:3039   */\n      tag_331\n      jump\t// in\n    tag_406:\n        /* \"#utility.yul\":2717:3045   */\n      pop\n        /* \"#utility.yul\":2633:3045   */\n      swap4\n      swap3\n      pop\n      pop\n      pop\n      jump\t// out\n        /* \"#utility.yul\":3065:3405   */\n    tag_333:\n        /* \"#utility.yul\":3121:3126   */\n      0x00\n        /* \"#utility.yul\":3170:3173   */\n      dup3\n        /* \"#utility.yul\":3163:3167   */\n      0x1f\n        /* \"#utility.yul\":3155:3161   */\n      dup4\n        /* \"#utility.yul\":3151:3168   */\n      add\n        /* \"#utility.yul\":3147:3174   */\n      slt\n        /* \"#utility.yul\":3137:3259   */\n      tag_408\n      jumpi\n        /* \"#utility.yul\":3178:3257   */\n      tag_409\n      tag_325\n      jump\t// in\n    tag_409:\n        /* \"#utility.yul\":3137:3259   */\n    tag_408:\n        /* \"#utility.yul\":3295:3301   */\n      dup2\n        /* \"#utility.yul\":3282:3302   */\n      calldataload\n        /* \"#utility.yul\":3320:3399   */\n      tag_410\n        /* \"#utility.yul\":3395:3398   */\n      dup5\n        /* \"#utility.yul\":3387:3393   */\n      dup3\n        /* \"#utility.yul\":3380:3384   */\n      0x20\n        /* \"#utility.yul\":3372:3378   */\n      dup7\n        /* \"#utility.yul\":3368:3385   */\n      add\n        /* \"#utility.yul\":3320:3399   */\n      tag_332\n      jump\t// in\n    tag_410:\n        /* \"#utility.yul\":3311:3399   */\n      swap2\n      pop\n        /* \"#utility.yul\":3127:3405   */\n      pop\n        /* \"#utility.yul\":3065:3405   */\n      swap3\n      swap2\n      pop\n      pop\n      jump\t// out\n        /* \"#utility.yul\":3411:3722   */\n    tag_334:\n        /* \"#utility.yul\":3488:3492   */\n      0x00\n        /* \"#utility.yul\":3578:3596   */\n      0xffffffffffffffff\n        /* \"#utility.yul\":3570:3576   */\n      dup3\n        /* \"#utility.yul\":3567:3597   */\n      gt\n        /* \"#utility.yul\":3564:3620   */\n      iszero\n      tag_412\n      jumpi\n        /* \"#utility.yul\":3600:3618   */\n      tag_413\n      tag_135\n      jump\t// in\n    tag_413:\n        /* \"#utility.yul\":3564:3620   */\n    tag_412:\n        /* \"#utility.yul\":3650:3654   */\n      0x20\n        /* \"#utility.yul\":3642:3648   */\n      dup3\n        /* \"#utility.yul\":3638:3655   */\n      mul\n        /* \"#utility.yul\":3630:3655   */\n      swap1\n      pop\n        /* \"#utility.yul\":3710:3714   */\n      0x20\n        /* \"#utility.yul\":3704:3708   */\n      dup2\n        /* \"#utility.yul\":3700:3715   */\n      add\n        /* \"#utility.yul\":3692:3715   */\n      swap1\n      pop\n        /* \"#utility.yul\":3411:3722   */\n      swap2\n      swap1\n      pop\n      jump\t// out\n        /* \"#utility.yul\":3728:3845   */\n    tag_335:\n        /* \"#utility.yul\":3837:3838   */\n      0x00\n        /* \"#utility.yul\":3834:3835   */\n      dup1\n        /* \"#utility.yul\":3827:3839   */\n      revert\n        /* \"#utility.yul\":3868:4578   */\n    tag_336:\n        /* \"#utility.yul\":3964:3969   */\n      0x00\n        /* \"#utility.yul\":3989:4070   */\n      tag_416\n        /* \"#utility.yul\":4005:4069   */\n      tag_417\n        /* \"#utility.yul\":4062:4068   */\n      dup5\n        /* \"#utility.yul\":4005:4069   */\n      tag_334\n      jump\t// in\n    tag_417:\n        /* \"#utility.yul\":3989:4070   */\n      tag_329\n      jump\t// in\n    tag_416:\n        /* \"#utility.yul\":3980:4070   */\n      swap1\n      pop\n        /* \"#utility.yul\":4090:4095   */\n      dup1\n        /* \"#utility.yul\":4119:4125   */\n      dup4\n        /* \"#utility.yul\":4112:4117   */\n      dup3\n        /* \"#utility.yul\":4105:4126   */\n      mstore\n        /* \"#utility.yul\":4153:4157   */\n      0x20\n        /* \"#utility.yul\":4146:4151   */\n      dup3\n        /* \"#utility.yul\":4142:4158   */\n      add\n        /* \"#utility.yul\":4135:4158   */\n      swap1\n      pop\n        /* \"#utility.yul\":4206:4210   */\n      0x20\n        /* \"#utility.yul\":4198:4204   */\n      dup5\n        /* \"#utility.yul\":4194:4211   */\n      mul\n        /* \"#utility.yul\":4186:4192   */\n      dup4\n        /* \"#utility.yul\":4182:4212   */\n      add\n        /* \"#utility.yul\":4235:4238   */\n      dup6\n        /* \"#utility.yul\":4227:4233   */\n      dup2\n        /* \"#utility.yul\":4224:4239   */\n      gt\n        /* \"#utility.yul\":4221:4343   */\n      iszero\n      tag_418\n      jumpi\n        /* \"#utility.yul\":4254:4333   */\n      tag_419\n      tag_335\n      jump\t// in\n    tag_419:\n        /* \"#utility.yul\":4221:4343   */\n    tag_418:\n        /* \"#utility.yul\":4369:4375   */\n      dup4\n        /* \"#utility.yul\":4352:4572   */\n    tag_420:\n        /* \"#utility.yul\":4386:4392   */\n      dup2\n        /* \"#utility.yul\":4381:4384   */\n      dup2\n        /* \"#utility.yul\":4378:4393   */\n      lt\n        /* \"#utility.yul\":4352:4572   */\n      iszero\n      tag_422\n      jumpi\n        /* \"#utility.yul\":4461:4464   */\n      dup1\n        /* \"#utility.yul\":4490:4527   */\n      tag_423\n        /* \"#utility.yul\":4523:4526   */\n      dup9\n        /* \"#utility.yul\":4511:4521   */\n      dup3\n        /* \"#utility.yul\":4490:4527   */\n      tag_321\n      jump\t// in\n    tag_423:\n        /* \"#utility.yul\":4485:4488   */\n      dup5\n        /* \"#utility.yul\":4478:4528   */\n      mstore\n        /* \"#utility.yul\":4557:4561   */\n      0x20\n        /* \"#utility.yul\":4552:4555   */\n      dup5\n        /* \"#utility.yul\":4548:4562   */\n      add\n        /* \"#utility.yul\":4541:4562   */\n      swap4\n      pop\n        /* \"#utility.yul\":4428:4572   */\n      pop\n        /* \"#utility.yul\":4412:4416   */\n      0x20\n        /* \"#utility.yul\":4407:4410   */\n      dup2\n        /* \"#utility.yul\":4403:4417   */\n      add\n        /* \"#utility.yul\":4396:4417   */\n      swap1\n      pop\n        /* \"#utility.yul\":4352:4572   */\n      jump(tag_420)\n    tag_422:\n        /* \"#utility.yul\":4356:4377   */\n      pop\n        /* \"#utility.yul\":3970:4578   */\n      pop\n      pop\n        /* \"#utility.yul\":3868:4578   */\n      swap4\n      swap3\n      pop\n      pop\n      pop\n      jump\t// out\n        /* \"#utility.yul\":4601:4971   */\n    tag_337:\n        /* \"#utility.yul\":4672:4677   */\n      0x00\n        /* \"#utility.yul\":4721:4724   */\n      dup3\n        /* \"#utility.yul\":4714:4718   */\n      0x1f\n        /* \"#utility.yul\":4706:4712   */\n      dup4\n        /* \"#utility.yul\":4702:4719   */\n      add\n        /* \"#utility.yul\":4698:4725   */\n      slt\n        /* \"#utility.yul\":4688:4810   */\n      tag_425\n      jumpi\n        /* \"#utility.yul\":4729:4808   */\n      tag_426\n      tag_325\n      jump\t// in\n    tag_426:\n        /* \"#utility.yul\":4688:4810   */\n    tag_425:\n        /* \"#utility.yul\":4846:4852   */\n      dup2\n        /* \"#utility.yul\":4833:4853   */\n      calldataload\n        /* \"#utility.yul\":4871:4965   */\n      tag_427\n        /* \"#utility.yul\":4961:4964   */\n      dup5\n        /* \"#utility.yul\":4953:4959   */\n      dup3\n        /* \"#utility.yul\":4946:4950   */\n      0x20\n        /* \"#utility.yul\":4938:4944   */\n      dup7\n        /* \"#utility.yul\":4934:4951   */\n      add\n        /* \"#utility.yul\":4871:4965   */\n      tag_336\n      jump\t// in\n    tag_427:\n        /* \"#utility.yul\":4862:4965   */\n      swap2\n      pop\n        /* \"#utility.yul\":4678:4971   */\n      pop\n        /* \"#utility.yul\":4601:4971   */\n      swap3\n      swap2\n      pop\n      pop\n      jump\t// out\n        /* \"#utility.yul\":4977:6132   */\n    tag_18:\n        /* \"#utility.yul\":5098:5104   */\n      0x00\n        /* \"#utility.yul\":5106:5112   */\n      dup1\n        /* \"#utility.yul\":5114:5120   */\n      0x00\n        /* \"#utility.yul\":5122:5128   */\n      dup1\n        /* \"#utility.yul\":5171:5174   */\n      0x80\n        /* \"#utility.yul\":5159:5168   */\n      dup6\n        /* \"#utility.yul\":5150:5157   */\n      dup8\n        /* \"#utility.yul\":5146:5169   */\n      sub\n        /* \"#utility.yul\":5142:5175   */\n      slt\n        /* \"#utility.yul\":5139:5259   */\n      iszero\n      tag_429\n      jumpi\n        /* \"#utility.yul\":5178:5257   */\n      tag_430\n      tag_316\n      jump\t// in\n    tag_430:\n        /* \"#utility.yul\":5139:5259   */\n    tag_429:\n        /* \"#utility.yul\":5298:5299   */\n      0x00\n        /* \"#utility.yul\":5323:5376   */\n      tag_431\n        /* \"#utility.yul\":5368:5375   */\n      dup8\n        /* \"#utility.yul\":5359:5365   */\n      dup3\n        /* \"#utility.yul\":5348:5357   */\n      dup9\n        /* \"#utility.yul\":5344:5366   */\n      add\n        /* \"#utility.yul\":5323:5376   */\n      tag_321\n      jump\t// in\n    tag_431:\n        /* \"#utility.yul\":5313:5376   */\n      swap5\n      pop\n        /* \"#utility.yul\":5269:5386   */\n      pop\n        /* \"#utility.yul\":5425:5427   */\n      0x20\n        /* \"#utility.yul\":5451:5504   */\n      tag_432\n        /* \"#utility.yul\":5496:5503   */\n      dup8\n        /* \"#utility.yul\":5487:5493   */\n      dup3\n        /* \"#utility.yul\":5476:5485   */\n      dup9\n        /* \"#utility.yul\":5472:5494   */\n      add\n        /* \"#utility.yul\":5451:5504   */\n      tag_324\n      jump\t// in\n    tag_432:\n        /* \"#utility.yul\":5441:5504   */\n      swap4\n      pop\n        /* \"#utility.yul\":5396:5514   */\n      pop\n        /* \"#utility.yul\":5581:5583   */\n      0x40\n        /* \"#utility.yul\":5570:5579   */\n      dup6\n        /* \"#utility.yul\":5566:5584   */\n      add\n        /* \"#utility.yul\":5553:5585   */\n      calldataload\n        /* \"#utility.yul\":5612:5630   */\n      0xffffffffffffffff\n        /* \"#utility.yul\":5604:5610   */\n      dup2\n        /* \"#utility.yul\":5601:5631   */\n      gt\n        /* \"#utility.yul\":5598:5715   */\n      iszero\n      tag_433\n      jumpi\n        /* \"#utility.yul\":5634:5713   */\n      tag_434\n      tag_317\n      jump\t// in\n    tag_434:\n        /* \"#utility.yul\":5598:5715   */\n    tag_433:\n        /* \"#utility.yul\":5739:5802   */\n      tag_435\n        /* \"#utility.yul\":5794:5801   */\n      dup8\n        /* \"#utility.yul\":5785:5791   */\n      dup3\n        /* \"#utility.yul\":5774:5783   */\n      dup9\n        /* \"#utility.yul\":5770:5792   */\n      add\n        /* \"#utility.yul\":5739:5802   */\n      tag_333\n      jump\t// in\n    tag_435:\n        /* \"#utility.yul\":5729:5802   */\n      swap3\n      pop\n        /* \"#utility.yul\":5524:5812   */\n      pop\n        /* \"#utility.yul\":5879:5881   */\n      0x60\n        /* \"#utility.yul\":5868:5877   */\n      dup6\n        /* \"#utility.yul\":5864:5882   */\n      add\n        /* \"#utility.yul\":5851:5883   */\n      calldataload\n        /* \"#utility.yul\":5910:5928   */\n      0xffffffffffffffff\n        /* \"#utility.yul\":5902:5908   */\n      dup2\n        /* \"#utility.yul\":5899:5929   */\n      gt\n        /* \"#utility.yul\":5896:6013   */\n      iszero\n      tag_436\n      jumpi\n        /* \"#utility.yul\":5932:6011   */\n      tag_437\n      tag_317\n      jump\t// in\n    tag_437:\n        /* \"#utility.yul\":5896:6013   */\n    tag_436:\n        /* \"#utility.yul\":6037:6115   */\n      tag_438\n        /* \"#utility.yul\":6107:6114   */\n      dup8\n        /* \"#utility.yul\":6098:6104   */\n      dup3\n        /* \"#utility.yul\":6087:6096   */\n      dup9\n        /* \"#utility.yul\":6083:6105   */\n      add\n        /* \"#utility.yul\":6037:6115   */\n      tag_337\n      jump\t// in\n    tag_438:\n        /* \"#utility.yul\":6027:6115   */\n      swap2\n      pop\n        /* \"#utility.yul\":5822:6125   */\n      pop\n        /* \"#utility.yul\":4977:6132   */\n      swap3\n      swap6\n      swap2\n      swap5\n      pop\n      swap3\n      pop\n      jump\t// out\n        /* \"#utility.yul\":6138:6967   */\n    tag_22:\n        /* \"#utility.yul\":6240:6246   */\n      0x00\n        /* \"#utility.yul\":6248:6254   */\n      dup1\n        /* \"#utility.yul\":6256:6262   */\n      0x00\n        /* \"#utility.yul\":6305:6307   */\n      0x60\n        /* \"#utility.yul\":6293:6302   */\n      dup5\n        /* \"#utility.yul\":6284:6291   */\n      dup7\n        /* \"#utility.yul\":6280:6303   */\n      sub\n        /* \"#utility.yul\":6276:6308   */\n      slt\n        /* \"#utility.yul\":6273:6392   */\n      iszero\n      tag_440\n      jumpi\n        /* \"#utility.yul\":6311:6390   */\n      tag_441\n      tag_316\n      jump\t// in\n    tag_441:\n        /* \"#utility.yul\":6273:6392   */\n    tag_440:\n        /* \"#utility.yul\":6431:6432   */\n      0x00\n        /* \"#utility.yul\":6456:6509   */\n      tag_442\n        /* \"#utility.yul\":6501:6508   */\n      dup7\n        /* \"#utility.yul\":6492:6498   */\n      dup3\n        /* \"#utility.yul\":6481:6490   */\n      dup8\n        /* \"#utility.yul\":6477:6499   */\n      add\n        /* \"#utility.yul\":6456:6509   */\n      tag_324\n      jump\t// in\n    tag_442:\n        /* \"#utility.yul\":6446:6509   */\n      swap4\n      pop\n        /* \"#utility.yul\":6402:6519   */\n      pop\n        /* \"#utility.yul\":6558:6560   */\n      0x20\n        /* \"#utility.yul\":6584:6637   */\n      tag_443\n        /* \"#utility.yul\":6629:6636   */\n      dup7\n        /* \"#utility.yul\":6620:6626   */\n      dup3\n        /* \"#utility.yul\":6609:6618   */\n      dup8\n        /* \"#utility.yul\":6605:6627   */\n      add\n        /* \"#utility.yul\":6584:6637   */\n      tag_324\n      jump\t// in\n    tag_443:\n        /* \"#utility.yul\":6574:6637   */\n      swap3\n      pop\n        /* \"#utility.yul\":6529:6647   */\n      pop\n        /* \"#utility.yul\":6714:6716   */\n      0x40\n        /* \"#utility.yul\":6703:6712   */\n      dup5\n        /* \"#utility.yul\":6699:6717   */\n      add\n        /* \"#utility.yul\":6686:6718   */\n      calldataload\n        /* \"#utility.yul\":6745:6763   */\n      0xffffffffffffffff\n        /* \"#utility.yul\":6737:6743   */\n      dup2\n        /* \"#utility.yul\":6734:6764   */\n      gt\n        /* \"#utility.yul\":6731:6848   */\n      iszero\n      tag_444\n      jumpi\n        /* \"#utility.yul\":6767:6846   */\n      tag_445\n      tag_317\n      jump\t// in\n    tag_445:\n        /* \"#utility.yul\":6731:6848   */\n    tag_444:\n        /* \"#utility.yul\":6872:6950   */\n      tag_446\n        /* \"#utility.yul\":6942:6949   */\n      dup7\n        /* \"#utility.yul\":6933:6939   */\n      dup3\n        /* \"#utility.yul\":6922:6931   */\n      dup8\n        /* \"#utility.yul\":6918:6940   */\n      add\n        /* \"#utility.yul\":6872:6950   */\n      tag_337\n      jump\t// in\n    tag_446:\n        /* \"#utility.yul\":6862:6950   */\n      swap2\n      pop\n        /* \"#utility.yul\":6657:6960   */\n      pop\n        /* \"#utility.yul\":6138:6967   */\n      swap3\n      pop\n      swap3\n      pop\n      swap3\n      jump\t// out\n        /* \"#utility.yul\":6973:7657   */\n    tag_26:\n        /* \"#utility.yul\":7066:7072   */\n      0x00\n        /* \"#utility.yul\":7074:7080   */\n      dup1\n        /* \"#utility.yul\":7123:7125   */\n      0x40\n        /* \"#utility.yul\":7111:7120   */\n      dup4\n        /* \"#utility.yul\":7102:7109   */\n      dup6\n        /* \"#utility.yul\":7098:7121   */\n      sub\n        /* \"#utility.yul\":7094:7126   */\n      slt\n        /* \"#utility.yul\":7091:7210   */\n      iszero\n      tag_448\n      jumpi\n        /* \"#utility.yul\":7129:7208   */\n      tag_449\n      tag_316\n      jump\t// in\n    tag_449:\n        /* \"#utility.yul\":7091:7210   */\n    tag_448:\n        /* \"#utility.yul\":7249:7250   */\n      0x00\n        /* \"#utility.yul\":7274:7327   */\n      tag_450\n        /* \"#utility.yul\":7319:7326   */\n      dup6\n        /* \"#utility.yul\":7310:7316   */\n      dup3\n        /* \"#utility.yul\":7299:7308   */\n      dup7\n        /* \"#utility.yul\":7295:7317   */\n      add\n        /* \"#utility.yul\":7274:7327   */\n      tag_324\n      jump\t// in\n    tag_450:\n        /* \"#utility.yul\":7264:7327   */\n      swap3\n      pop\n        /* \"#utility.yul\":7220:7337   */\n      pop\n        /* \"#utility.yul\":7404:7406   */\n      0x20\n        /* \"#utility.yul\":7393:7402   */\n      dup4\n        /* \"#utility.yul\":7389:7407   */\n      add\n        /* \"#utility.yul\":7376:7408   */\n      calldataload\n        /* \"#utility.yul\":7435:7453   */\n      0xffffffffffffffff\n        /* \"#utility.yul\":7427:7433   */\n      dup2\n        /* \"#utility.yul\":7424:7454   */\n      gt\n        /* \"#utility.yul\":7421:7538   */\n      iszero\n      tag_451\n      jumpi\n        /* \"#utility.yul\":7457:7536   */\n      tag_452\n      tag_317\n      jump\t// in\n    tag_452:\n        /* \"#utility.yul\":7421:7538   */\n    tag_451:\n        /* \"#utility.yul\":7562:7640   */\n      tag_453\n        /* \"#utility.yul\":7632:7639   */\n      dup6\n        /* \"#utility.yul\":7623:7629   */\n      dup3\n        /* \"#utility.yul\":7612:7621   */\n      dup7\n        /* \"#utility.yul\":7608:7630   */\n      add\n        /* \"#utility.yul\":7562:7640   */\n      tag_337\n      jump\t// in\n    tag_453:\n        /* \"#utility.yul\":7552:7640   */\n      swap2\n      pop\n        /* \"#utility.yul\":7347:7650   */\n      pop\n        /* \"#utility.yul\":6973:7657   */\n      swap3\n      pop\n      swap3\n      swap1\n      pop\n      jump\t// out\n        /* \"#utility.yul\":7663:7777   */\n    tag_338:\n        /* \"#utility.yul\":7730:7736   */\n      0x00\n        /* \"#utility.yul\":7764:7769   */\n      dup2\n        /* \"#utility.yul\":7758:7770   */\n      mload\n        /* \"#utility.yul\":7748:7770   */\n      swap1\n      pop\n        /* \"#utility.yul\":7663:7777   */\n      swap2\n      swap1\n      pop\n      jump\t// out\n        /* \"#utility.yul\":7783:7967   */\n    tag_339:\n        /* \"#utility.yul\":7882:7893   */\n      0x00\n        /* \"#utility.yul\":7916:7922   */\n      dup3\n        /* \"#utility.yul\":7911:7914   */\n      dup3\n        /* \"#utility.yul\":7904:7923   */\n      mstore\n        /* \"#utility.yul\":7956:7960   */\n      0x20\n        /* \"#utility.yul\":7951:7954   */\n      dup3\n        /* \"#utility.yul\":7947:7961   */\n      add\n        /* \"#utility.yul\":7932:7961   */\n      swap1\n      pop\n        /* \"#utility.yul\":7783:7967   */\n      swap3\n      swap2\n      pop\n      pop\n      jump\t// out\n        /* \"#utility.yul\":7973:8105   */\n    tag_340:\n        /* \"#utility.yul\":8040:8044   */\n      0x00\n        /* \"#utility.yul\":8063:8066   */\n      dup2\n        /* \"#utility.yul\":8055:8066   */\n      swap1\n      pop\n        /* \"#utility.yul\":8093:8097   */\n      0x20\n        /* \"#utility.yul\":8088:8091   */\n      dup3\n        /* \"#utility.yul\":8084:8098   */\n      add\n        /* \"#utility.yul\":8076:8098   */\n      swap1\n      pop\n        /* \"#utility.yul\":7973:8105   */\n      swap2\n      swap1\n      pop\n      jump\t// out\n        /* \"#utility.yul\":8111:8219   */\n    tag_341:\n        /* \"#utility.yul\":8188:8212   */\n      tag_458\n        /* \"#utility.yul\":8206:8211   */\n      dup2\n        /* \"#utility.yul\":8188:8212   */\n      tag_322\n      jump\t// in\n    tag_458:\n        /* \"#utility.yul\":8183:8186   */\n      dup3\n        /* \"#utility.yul\":8176:8213   */\n      mstore\n        /* \"#utility.yul\":8111:8219   */\n      pop\n      pop\n      jump\t// out\n        /* \"#utility.yul\":8225:8404   */\n    tag_342:\n        /* \"#utility.yul\":8294:8304   */\n      0x00\n        /* \"#utility.yul\":8315:8361   */\n      tag_460\n        /* \"#utility.yul\":8357:8360   */\n      dup4\n        /* \"#utility.yul\":8349:8355   */\n      dup4\n        /* \"#utility.yul\":8315:8361   */\n      tag_341\n      jump\t// in\n    tag_460:\n        /* \"#utility.yul\":8393:8397   */\n      0x20\n        /* \"#utility.yul\":8388:8391   */\n      dup4\n        /* \"#utility.yul\":8384:8398   */\n      add\n        /* \"#utility.yul\":8370:8398   */\n      swap1\n      pop\n        /* \"#utility.yul\":8225:8404   */\n      swap3\n      swap2\n      pop\n      pop\n      jump\t// out\n        /* \"#utility.yul\":8410:8523   */\n    tag_343:\n        /* \"#utility.yul\":8480:8484   */\n      0x00\n        /* \"#utility.yul\":8512:8516   */\n      0x20\n        /* \"#utility.yul\":8507:8510   */\n      dup3\n        /* \"#utility.yul\":8503:8517   */\n      add\n        /* \"#utility.yul\":8495:8517   */\n      swap1\n      pop\n        /* \"#utility.yul\":8410:8523   */\n      swap2\n      swap1\n      pop\n      jump\t// out\n        /* \"#utility.yul\":8559:9291   */\n    tag_344:\n        /* \"#utility.yul\":8678:8681   */\n      0x00\n        /* \"#utility.yul\":8707:8761   */\n      tag_463\n        /* \"#utility.yul\":8755:8760   */\n      dup3\n        /* \"#utility.yul\":8707:8761   */\n      tag_338\n      jump\t// in\n    tag_463:\n        /* \"#utility.yul\":8777:8863   */\n      tag_464\n        /* \"#utility.yul\":8856:8862   */\n      dup2\n        /* \"#utility.yul\":8851:8854   */\n      dup6\n        /* \"#utility.yul\":8777:8863   */\n      tag_339\n      jump\t// in\n    tag_464:\n        /* \"#utility.yul\":8770:8863   */\n      swap4\n      pop\n        /* \"#utility.yul\":8887:8943   */\n      tag_465\n        /* \"#utility.yul\":8937:8942   */\n      dup4\n        /* \"#utility.yul\":8887:8943   */\n      tag_340\n      jump\t// in\n    tag_465:\n        /* \"#utility.yul\":8966:8973   */\n      dup1\n        /* \"#utility.yul\":8997:8998   */\n      0x00\n        /* \"#utility.yul\":8982:9266   */\n    tag_466:\n        /* \"#utility.yul\":9007:9013   */\n      dup4\n        /* \"#utility.yul\":9004:9005   */\n      dup2\n        /* \"#utility.yul\":9001:9014   */\n      lt\n        /* \"#utility.yul\":8982:9266   */\n      iszero\n      tag_468\n      jumpi\n        /* \"#utility.yul\":9083:9089   */\n      dup2\n        /* \"#utility.yul\":9077:9090   */\n      mload\n        /* \"#utility.yul\":9110:9173   */\n      tag_469\n        /* \"#utility.yul\":9169:9172   */\n      dup9\n        /* \"#utility.yul\":9154:9167   */\n      dup3\n        /* \"#utility.yul\":9110:9173   */\n      tag_342\n      jump\t// in\n    tag_469:\n        /* \"#utility.yul\":9103:9173   */\n      swap8\n      pop\n        /* \"#utility.yul\":9196:9256   */\n      tag_470\n        /* \"#utility.yul\":9249:9255   */\n      dup4\n        /* \"#utility.yul\":9196:9256   */\n      tag_343\n      jump\t// in\n    tag_470:\n        /* \"#utility.yul\":9186:9256   */\n      swap3\n      pop\n        /* \"#utility.yul\":9042:9266   */\n      pop\n        /* \"#utility.yul\":9029:9030   */\n      0x01\n        /* \"#utility.yul\":9026:9027   */\n      dup2\n        /* \"#utility.yul\":9022:9031   */\n      add\n        /* \"#utility.yul\":9017:9031   */\n      swap1\n      pop\n        /* \"#utility.yul\":8982:9266   */\n      jump(tag_466)\n    tag_468:\n        /* \"#utility.yul\":8986:9000   */\n      pop\n        /* \"#utility.yul\":9282:9285   */\n      dup6\n        /* \"#utility.yul\":9275:9285   */\n      swap4\n      pop\n        /* \"#utility.yul\":8683:9291   */\n      pop\n      pop\n      pop\n        /* \"#utility.yul\":8559:9291   */\n      swap3\n      swap2\n      pop\n      pop\n      jump\t// out\n        /* \"#utility.yul\":9297:9421   */\n    tag_345:\n        /* \"#utility.yul\":9374:9380   */\n      0x00\n        /* \"#utility.yul\":9408:9413   */\n      dup2\n        /* \"#utility.yul\":9402:9414   */\n      mload\n        /* \"#utility.yul\":9392:9414   */\n      swap1\n      pop\n        /* \"#utility.yul\":9297:9421   */\n      swap2\n      swap1\n      pop\n      jump\t// out\n        /* \"#utility.yul\":9427:9621   */\n    tag_346:\n        /* \"#utility.yul\":9536:9547   */\n      0x00\n        /* \"#utility.yul\":9570:9576   */\n      dup3\n        /* \"#utility.yul\":9565:9568   */\n      dup3\n        /* \"#utility.yul\":9558:9577   */\n      mstore\n        /* \"#utility.yul\":9610:9614   */\n      0x20\n        /* \"#utility.yul\":9605:9608   */\n      dup3\n        /* \"#utility.yul\":9601:9615   */\n      add\n        /* \"#utility.yul\":9586:9615   */\n      swap1\n      pop\n        /* \"#utility.yul\":9427:9621   */\n      swap3\n      swap2\n      pop\n      pop\n      jump\t// out\n        /* \"#utility.yul\":9627:9769   */\n    tag_347:\n        /* \"#utility.yul\":9704:9708   */\n      0x00\n        /* \"#utility.yul\":9727:9730   */\n      dup2\n        /* \"#utility.yul\":9719:9730   */\n      swap1\n      pop\n        /* \"#utility.yul\":9757:9761   */\n      0x20\n        /* \"#utility.yul\":9752:9755   */\n      dup3\n        /* \"#utility.yul\":9748:9762   */\n      add\n        /* \"#utility.yul\":9740:9762   */\n      swap1\n      pop\n        /* \"#utility.yul\":9627:9769   */\n      swap2\n      swap1\n      pop\n      jump\t// out\n        /* \"#utility.yul\":9775:9874   */\n    tag_348:\n        /* \"#utility.yul\":9827:9833   */\n      0x00\n        /* \"#utility.yul\":9861:9866   */\n      dup2\n        /* \"#utility.yul\":9855:9867   */\n      mload\n        /* \"#utility.yul\":9845:9867   */\n      swap1\n      pop\n        /* \"#utility.yul\":9775:9874   */\n      swap2\n      swap1\n      pop\n      jump\t// out\n        /* \"#utility.yul\":9880:10039   */\n    tag_349:\n        /* \"#utility.yul\":9954:9965   */\n      0x00\n        /* \"#utility.yul\":9988:9994   */\n      dup3\n        /* \"#utility.yul\":9983:9986   */\n      dup3\n        /* \"#utility.yul\":9976:9995   */\n      mstore\n        /* \"#utility.yul\":10028:10032   */\n      0x20\n        /* \"#utility.yul\":10023:10026   */\n      dup3\n        /* \"#utility.yul\":10019:10033   */\n      add\n        /* \"#utility.yul\":10004:10033   */\n      swap1\n      pop\n        /* \"#utility.yul\":9880:10039   */\n      swap3\n      swap2\n      pop\n      pop\n      jump\t// out\n        /* \"#utility.yul\":10045:10352   */\n    tag_350:\n        /* \"#utility.yul\":10113:10114   */\n      0x00\n        /* \"#utility.yul\":10123:10236   */\n    tag_477:\n        /* \"#utility.yul\":10137:10143   */\n      dup4\n        /* \"#utility.yul\":10134:10135   */\n      dup2\n        /* \"#utility.yul\":10131:10144   */\n      lt\n        /* \"#utility.yul\":10123:10236   */\n      iszero\n      tag_479\n      jumpi\n        /* \"#utility.yul\":10222:10223   */\n      dup1\n        /* \"#utility.yul\":10217:10220   */\n      dup3\n        /* \"#utility.yul\":10213:10224   */\n      add\n        /* \"#utility.yul\":10207:10225   */\n      mload\n        /* \"#utility.yul\":10203:10204   */\n      dup2\n        /* \"#utility.yul\":10198:10201   */\n      dup5\n        /* \"#utility.yul\":10194:10205   */\n      add\n        /* \"#utility.yul\":10187:10226   */\n      mstore\n        /* \"#utility.yul\":10159:10161   */\n      0x20\n        /* \"#utility.yul\":10156:10157   */\n      dup2\n        /* \"#utility.yul\":10152:10162   */\n      add\n        /* \"#utility.yul\":10147:10162   */\n      swap1\n      pop\n        /* \"#utility.yul\":10123:10236   */\n      jump(tag_477)\n    tag_479:\n        /* \"#utility.yul\":10254:10260   */\n      dup4\n        /* \"#utility.yul\":10251:10252   */\n      dup2\n        /* \"#utility.yul\":10248:10261   */\n      gt\n        /* \"#utility.yul\":10245:10346   */\n      iszero\n      tag_480\n      jumpi\n        /* \"#utility.yul\":10334:10335   */\n      0x00\n        /* \"#utility.yul\":10325:10331   */\n      dup5\n        /* \"#utility.yul\":10320:10323   */\n      dup5\n        /* \"#utility.yul\":10316:10332   */\n      add\n        /* \"#utility.yul\":10309:10336   */\n      mstore\n        /* \"#utility.yul\":10245:10346   */\n    tag_480:\n        /* \"#utility.yul\":10094:10352   */\n      pop\n        /* \"#utility.yul\":10045:10352   */\n      pop\n      pop\n      pop\n      jump\t// out\n        /* \"#utility.yul\":10358:10702   */\n    tag_351:\n        /* \"#utility.yul\":10436:10439   */\n      0x00\n        /* \"#utility.yul\":10464:10503   */\n      tag_482\n        /* \"#utility.yul\":10497:10502   */\n      dup3\n        /* \"#utility.yul\":10464:10503   */\n      tag_348\n      jump\t// in\n    tag_482:\n        /* \"#utility.yul\":10519:10580   */\n      tag_483\n        /* \"#utility.yul\":10573:10579   */\n      dup2\n        /* \"#utility.yul\":10568:10571   */\n      dup6\n        /* \"#utility.yul\":10519:10580   */\n      tag_349\n      jump\t// in\n    tag_483:\n        /* \"#utility.yul\":10512:10580   */\n      swap4\n      pop\n        /* \"#utility.yul\":10589:10641   */\n      tag_484\n        /* \"#utility.yul\":10634:10640   */\n      dup2\n        /* \"#utility.yul\":10629:10632   */\n      dup6\n        /* \"#utility.yul\":10622:10626   */\n      0x20\n        /* \"#utility.yul\":10615:10620   */\n      dup7\n        /* \"#utility.yul\":10611:10627   */\n      add\n        /* \"#utility.yul\":10589:10641   */\n      tag_350\n      jump\t// in\n    tag_484:\n        /* \"#utility.yul\":10666:10695   */\n      tag_485\n        /* \"#utility.yul\":10688:10694   */\n      dup2\n        /* \"#utility.yul\":10666:10695   */\n      tag_327\n      jump\t// in\n    tag_485:\n        /* \"#utility.yul\":10661:10664   */\n      dup5\n        /* \"#utility.yul\":10657:10696   */\n      add\n        /* \"#utility.yul\":10650:10696   */\n      swap2\n      pop\n        /* \"#utility.yul\":10440:10702   */\n      pop\n        /* \"#utility.yul\":10358:10702   */\n      swap3\n      swap2\n      pop\n      pop\n      jump\t// out\n        /* \"#utility.yul\":10708:10904   */\n    tag_352:\n        /* \"#utility.yul\":10797:10807   */\n      0x00\n        /* \"#utility.yul\":10832:10898   */\n      tag_487\n        /* \"#utility.yul\":10894:10897   */\n      dup4\n        /* \"#utility.yul\":10886:10892   */\n      dup4\n        /* \"#utility.yul\":10832:10898   */\n      tag_351\n      jump\t// in\n    tag_487:\n        /* \"#utility.yul\":10818:10898   */\n      swap1\n      pop\n        /* \"#utility.yul\":10708:10904   */\n      swap3\n      swap2\n      pop\n      pop\n      jump\t// out\n        /* \"#utility.yul\":10910:11033   */\n    tag_353:\n        /* \"#utility.yul\":10990:10994   */\n      0x00\n        /* \"#utility.yul\":11022:11026   */\n      0x20\n        /* \"#utility.yul\":11017:11020   */\n      dup3\n        /* \"#utility.yul\":11013:11027   */\n      add\n        /* \"#utility.yul\":11005:11027   */\n      swap1\n      pop\n        /* \"#utility.yul\":10910:11033   */\n      swap2\n      swap1\n      pop\n      jump\t// out\n        /* \"#utility.yul\":11067:12058   */\n    tag_354:\n        /* \"#utility.yul\":11206:11209   */\n      0x00\n        /* \"#utility.yul\":11235:11299   */\n      tag_490\n        /* \"#utility.yul\":11293:11298   */\n      dup3\n        /* \"#utility.yul\":11235:11299   */\n      tag_345\n      jump\t// in\n    tag_490:\n        /* \"#utility.yul\":11315:11411   */\n      tag_491\n        /* \"#utility.yul\":11404:11410   */\n      dup2\n        /* \"#utility.yul\":11399:11402   */\n      dup6\n        /* \"#utility.yul\":11315:11411   */\n      tag_346\n      jump\t// in\n    tag_491:\n        /* \"#utility.yul\":11308:11411   */\n      swap4\n      pop\n        /* \"#utility.yul\":11437:11440   */\n      dup4\n        /* \"#utility.yul\":11482:11486   */\n      0x20\n        /* \"#utility.yul\":11474:11480   */\n      dup3\n        /* \"#utility.yul\":11470:11487   */\n      mul\n        /* \"#utility.yul\":11465:11468   */\n      dup6\n        /* \"#utility.yul\":11461:11488   */\n      add\n        /* \"#utility.yul\":11512:11578   */\n      tag_492\n        /* \"#utility.yul\":11572:11577   */\n      dup6\n        /* \"#utility.yul\":11512:11578   */\n      tag_347\n      jump\t// in\n    tag_492:\n        /* \"#utility.yul\":11601:11608   */\n      dup1\n        /* \"#utility.yul\":11632:11633   */\n      0x00\n        /* \"#utility.yul\":11617:12013   */\n    tag_493:\n        /* \"#utility.yul\":11642:11648   */\n      dup6\n        /* \"#utility.yul\":11639:11640   */\n      dup2\n        /* \"#utility.yul\":11636:11649   */\n      lt\n        /* \"#utility.yul\":11617:12013   */\n      iszero\n      tag_495\n      jumpi\n        /* \"#utility.yul\":11713:11722   */\n      dup5\n        /* \"#utility.yul\":11707:11711   */\n      dup5\n        /* \"#utility.yul\":11703:11723   */\n      sub\n        /* \"#utility.yul\":11698:11701   */\n      dup10\n        /* \"#utility.yul\":11691:11724   */\n      mstore\n        /* \"#utility.yul\":11764:11770   */\n      dup2\n        /* \"#utility.yul\":11758:11771   */\n      mload\n        /* \"#utility.yul\":11792:11876   */\n      tag_496\n        /* \"#utility.yul\":11871:11875   */\n      dup6\n        /* \"#utility.yul\":11856:11869   */\n      dup3\n        /* \"#utility.yul\":11792:11876   */\n      tag_352\n      jump\t// in\n    tag_496:\n        /* \"#utility.yul\":11784:11876   */\n      swap5\n      pop\n        /* \"#utility.yul\":11899:11969   */\n      tag_497\n        /* \"#utility.yul\":11962:11968   */\n      dup4\n        /* \"#utility.yul\":11899:11969   */\n      tag_353\n      jump\t// in\n    tag_497:\n        /* \"#utility.yul\":11889:11969   */\n      swap3\n      pop\n        /* \"#utility.yul\":11998:12002   */\n      0x20\n        /* \"#utility.yul\":11993:11996   */\n      dup11\n        /* \"#utility.yul\":11989:12003   */\n      add\n        /* \"#utility.yul\":11982:12003   */\n      swap10\n      pop\n        /* \"#utility.yul\":11677:12013   */\n      pop\n        /* \"#utility.yul\":11664:11665   */\n      0x01\n        /* \"#utility.yul\":11661:11662   */\n      dup2\n        /* \"#utility.yul\":11657:11666   */\n      add\n        /* \"#utility.yul\":11652:11666   */\n      swap1\n      pop\n        /* \"#utility.yul\":11617:12013   */\n      jump(tag_493)\n    tag_495:\n        /* \"#utility.yul\":11621:11635   */\n      pop\n        /* \"#utility.yul\":12029:12033   */\n      dup3\n        /* \"#utility.yul\":12022:12033   */\n      swap8\n      pop\n        /* \"#utility.yul\":12049:12052   */\n      dup8\n        /* \"#utility.yul\":12042:12052   */\n      swap6\n      pop\n        /* \"#utility.yul\":11211:12058   */\n      pop\n      pop\n      pop\n      pop\n      pop\n        /* \"#utility.yul\":11067:12058   */\n      swap3\n      swap2\n      pop\n      pop\n      jump\t// out\n        /* \"#utility.yul\":12064:12178   */\n    tag_355:\n        /* \"#utility.yul\":12131:12137   */\n      0x00\n        /* \"#utility.yul\":12165:12170   */\n      dup2\n        /* \"#utility.yul\":12159:12171   */\n      mload\n        /* \"#utility.yul\":12149:12171   */\n      swap1\n      pop\n        /* \"#utility.yul\":12064:12178   */\n      swap2\n      swap1\n      pop\n      jump\t// out\n        /* \"#utility.yul\":12184:12368   */\n    tag_356:\n        /* \"#utility.yul\":12283:12294   */\n      0x00\n        /* \"#utility.yul\":12317:12323   */\n      dup3\n        /* \"#utility.yul\":12312:12315   */\n      dup3\n        /* \"#utility.yul\":12305:12324   */\n      mstore\n        /* \"#utility.yul\":12357:12361   */\n      0x20\n        /* \"#utility.yul\":12352:12355   */\n      dup3\n        /* \"#utility.yul\":12348:12362   */\n      add\n        /* \"#utility.yul\":12333:12362   */\n      swap1\n      pop\n        /* \"#utility.yul\":12184:12368   */\n      swap3\n      swap2\n      pop\n      pop\n      jump\t// out\n        /* \"#utility.yul\":12374:12506   */\n    tag_357:\n        /* \"#utility.yul\":12441:12445   */\n      0x00\n        /* \"#utility.yul\":12464:12467   */\n      dup2\n        /* \"#utility.yul\":12456:12467   */\n      swap1\n      pop\n        /* \"#utility.yul\":12494:12498   */\n      0x20\n        /* \"#utility.yul\":12489:12492   */\n      dup3\n        /* \"#utility.yul\":12485:12499   */\n      add\n        /* \"#utility.yul\":12477:12499   */\n      swap1\n      pop\n        /* \"#utility.yul\":12374:12506   */\n      swap2\n      swap1\n      pop\n      jump\t// out\n        /* \"#utility.yul\":12512:12620   */\n    tag_358:\n        /* \"#utility.yul\":12589:12613   */\n      tag_502\n        /* \"#utility.yul\":12607:12612   */\n      dup2\n        /* \"#utility.yul\":12589:12613   */\n      tag_319\n      jump\t// in\n    tag_502:\n        /* \"#utility.yul\":12584:12587   */\n      dup3\n        /* \"#utility.yul\":12577:12614   */\n      mstore\n        /* \"#utility.yul\":12512:12620   */\n      pop\n      pop\n      jump\t// out\n        /* \"#utility.yul\":12626:12805   */\n    tag_359:\n        /* \"#utility.yul\":12695:12705   */\n      0x00\n        /* \"#utility.yul\":12716:12762   */\n      tag_504\n        /* \"#utility.yul\":12758:12761   */\n      dup4\n        /* \"#utility.yul\":12750:12756   */\n      dup4\n        /* \"#utility.yul\":12716:12762   */\n      tag_358\n      jump\t// in\n    tag_504:\n        /* \"#utility.yul\":12794:12798   */\n      0x20\n        /* \"#utility.yul\":12789:12792   */\n      dup4\n        /* \"#utility.yul\":12785:12799   */\n      add\n        /* \"#utility.yul\":12771:12799   */\n      swap1\n      pop\n        /* \"#utility.yul\":12626:12805   */\n      swap3\n      swap2\n      pop\n      pop\n      jump\t// out\n        /* \"#utility.yul\":12811:12924   */\n    tag_360:\n        /* \"#utility.yul\":12881:12885   */\n      0x00\n        /* \"#utility.yul\":12913:12917   */\n      0x20\n        /* \"#utility.yul\":12908:12911   */\n      dup3\n        /* \"#utility.yul\":12904:12918   */\n      add\n        /* \"#utility.yul\":12896:12918   */\n      swap1\n      pop\n        /* \"#utility.yul\":12811:12924   */\n      swap2\n      swap1\n      pop\n      jump\t// out\n        /* \"#utility.yul\":12960:13692   */\n    tag_361:\n        /* \"#utility.yul\":13079:13082   */\n      0x00\n        /* \"#utility.yul\":13108:13162   */\n      tag_507\n        /* \"#utility.yul\":13156:13161   */\n      dup3\n        /* \"#utility.yul\":13108:13162   */\n      tag_355\n      jump\t// in\n    tag_507:\n        /* \"#utility.yul\":13178:13264   */\n      tag_508\n        /* \"#utility.yul\":13257:13263   */\n      dup2\n        /* \"#utility.yul\":13252:13255   */\n      dup6\n        /* \"#utility.yul\":13178:13264   */\n      tag_356\n      jump\t// in\n    tag_508:\n        /* \"#utility.yul\":13171:13264   */\n      swap4\n      pop\n        /* \"#utility.yul\":13288:13344   */\n      tag_509\n        /* \"#utility.yul\":13338:13343   */\n      dup4\n        /* \"#utility.yul\":13288:13344   */\n      tag_357\n      jump\t// in\n    tag_509:\n        /* \"#utility.yul\":13367:13374   */\n      dup1\n        /* \"#utility.yul\":13398:13399   */\n      0x00\n        /* \"#utility.yul\":13383:13667   */\n    tag_510:\n        /* \"#utility.yul\":13408:13414   */\n      dup4\n        /* \"#utility.yul\":13405:13406   */\n      dup2\n        /* \"#utility.yul\":13402:13415   */\n      lt\n        /* \"#utility.yul\":13383:13667   */\n      iszero\n      tag_512\n      jumpi\n        /* \"#utility.yul\":13484:13490   */\n      dup2\n        /* \"#utility.yul\":13478:13491   */\n      mload\n        /* \"#utility.yul\":13511:13574   */\n      tag_513\n        /* \"#utility.yul\":13570:13573   */\n      dup9\n        /* \"#utility.yul\":13555:13568   */\n      dup3\n        /* \"#utility.yul\":13511:13574   */\n      tag_359\n      jump\t// in\n    tag_513:\n        /* \"#utility.yul\":13504:13574   */\n      swap8\n      pop\n        /* \"#utility.yul\":13597:13657   */\n      tag_514\n        /* \"#utility.yul\":13650:13656   */\n      dup4\n        /* \"#utility.yul\":13597:13657   */\n      tag_360\n      jump\t// in\n    tag_514:\n        /* \"#utility.yul\":13587:13657   */\n      swap3\n      pop\n        /* \"#utility.yul\":13443:13667   */\n      pop\n        /* \"#utility.yul\":13430:13431   */\n      0x01\n        /* \"#utility.yul\":13427:13428   */\n      dup2\n        /* \"#utility.yul\":13423:13432   */\n      add\n        /* \"#utility.yul\":13418:13432   */\n      swap1\n      pop\n        /* \"#utility.yul\":13383:13667   */\n      jump(tag_510)\n    tag_512:\n        /* \"#utility.yul\":13387:13401   */\n      pop\n        /* \"#utility.yul\":13683:13686   */\n      dup6\n        /* \"#utility.yul\":13676:13686   */\n      swap4\n      pop\n        /* \"#utility.yul\":13084:13692   */\n      pop\n      pop\n      pop\n        /* \"#utility.yul\":12960:13692   */\n      swap3\n      swap2\n      pop\n      pop\n      jump\t// out\n        /* \"#utility.yul\":13698:15761   */\n    tag_29:\n        /* \"#utility.yul\":14369:14373   */\n      0x00\n        /* \"#utility.yul\":14407:14410   */\n      0xe0\n        /* \"#utility.yul\":14396:14405   */\n      dup3\n        /* \"#utility.yul\":14392:14411   */\n      add\n        /* \"#utility.yul\":14384:14411   */\n      swap1\n      pop\n        /* \"#utility.yul\":14457:14466   */\n      dup2\n        /* \"#utility.yul\":14451:14455   */\n      dup2\n        /* \"#utility.yul\":14447:14467   */\n      sub\n        /* \"#utility.yul\":14443:14444   */\n      0x00\n        /* \"#utility.yul\":14432:14441   */\n      dup4\n        /* \"#utility.yul\":14428:14445   */\n      add\n        /* \"#utility.yul\":14421:14468   */\n      mstore\n        /* \"#utility.yul\":14485:14593   */\n      tag_516\n        /* \"#utility.yul\":14588:14592   */\n      dup2\n        /* \"#utility.yul\":14579:14585   */\n      dup11\n        /* \"#utility.yul\":14485:14593   */\n      tag_344\n      jump\t// in\n    tag_516:\n        /* \"#utility.yul\":14477:14593   */\n      swap1\n      pop\n        /* \"#utility.yul\":14640:14649   */\n      dup2\n        /* \"#utility.yul\":14634:14638   */\n      dup2\n        /* \"#utility.yul\":14630:14650   */\n      sub\n        /* \"#utility.yul\":14625:14627   */\n      0x20\n        /* \"#utility.yul\":14614:14623   */\n      dup4\n        /* \"#utility.yul\":14610:14628   */\n      add\n        /* \"#utility.yul\":14603:14651   */\n      mstore\n        /* \"#utility.yul\":14668:14776   */\n      tag_517\n        /* \"#utility.yul\":14771:14775   */\n      dup2\n        /* \"#utility.yul\":14762:14768   */\n      dup10\n        /* \"#utility.yul\":14668:14776   */\n      tag_344\n      jump\t// in\n    tag_517:\n        /* \"#utility.yul\":14660:14776   */\n      swap1\n      pop\n        /* \"#utility.yul\":14823:14832   */\n      dup2\n        /* \"#utility.yul\":14817:14821   */\n      dup2\n        /* \"#utility.yul\":14813:14833   */\n      sub\n        /* \"#utility.yul\":14808:14810   */\n      0x40\n        /* \"#utility.yul\":14797:14806   */\n      dup4\n        /* \"#utility.yul\":14793:14811   */\n      add\n        /* \"#utility.yul\":14786:14834   */\n      mstore\n        /* \"#utility.yul\":14851:14979   */\n      tag_518\n        /* \"#utility.yul\":14974:14978   */\n      dup2\n        /* \"#utility.yul\":14965:14971   */\n      dup9\n        /* \"#utility.yul\":14851:14979   */\n      tag_354\n      jump\t// in\n    tag_518:\n        /* \"#utility.yul\":14843:14979   */\n      swap1\n      pop\n        /* \"#utility.yul\":15026:15035   */\n      dup2\n        /* \"#utility.yul\":15020:15024   */\n      dup2\n        /* \"#utility.yul\":15016:15036   */\n      sub\n        /* \"#utility.yul\":15011:15013   */\n      0x60\n        /* \"#utility.yul\":15000:15009   */\n      dup4\n        /* \"#utility.yul\":14996:15014   */\n      add\n        /* \"#utility.yul\":14989:15037   */\n      mstore\n        /* \"#utility.yul\":15054:15182   */\n      tag_519\n        /* \"#utility.yul\":15177:15181   */\n      dup2\n        /* \"#utility.yul\":15168:15174   */\n      dup8\n        /* \"#utility.yul\":15054:15182   */\n      tag_354\n      jump\t// in\n    tag_519:\n        /* \"#utility.yul\":15046:15182   */\n      swap1\n      pop\n        /* \"#utility.yul\":15230:15239   */\n      dup2\n        /* \"#utility.yul\":15224:15228   */\n      dup2\n        /* \"#utility.yul\":15220:15240   */\n      sub\n        /* \"#utility.yul\":15214:15217   */\n      0x80\n        /* \"#utility.yul\":15203:15212   */\n      dup4\n        /* \"#utility.yul\":15199:15218   */\n      add\n        /* \"#utility.yul\":15192:15241   */\n      mstore\n        /* \"#utility.yul\":15258:15386   */\n      tag_520\n        /* \"#utility.yul\":15381:15385   */\n      dup2\n        /* \"#utility.yul\":15372:15378   */\n      dup7\n        /* \"#utility.yul\":15258:15386   */\n      tag_354\n      jump\t// in\n    tag_520:\n        /* \"#utility.yul\":15250:15386   */\n      swap1\n      pop\n        /* \"#utility.yul\":15434:15443   */\n      dup2\n        /* \"#utility.yul\":15428:15432   */\n      dup2\n        /* \"#utility.yul\":15424:15444   */\n      sub\n        /* \"#utility.yul\":15418:15421   */\n      0xa0\n        /* \"#utility.yul\":15407:15416   */\n      dup4\n        /* \"#utility.yul\":15403:15422   */\n      add\n        /* \"#utility.yul\":15396:15445   */\n      mstore\n        /* \"#utility.yul\":15462:15570   */\n      tag_521\n        /* \"#utility.yul\":15565:15569   */\n      dup2\n        /* \"#utility.yul\":15556:15562   */\n      dup6\n        /* \"#utility.yul\":15462:15570   */\n      tag_361\n      jump\t// in\n    tag_521:\n        /* \"#utility.yul\":15454:15570   */\n      swap1\n      pop\n        /* \"#utility.yul\":15618:15627   */\n      dup2\n        /* \"#utility.yul\":15612:15616   */\n      dup2\n        /* \"#utility.yul\":15608:15628   */\n      sub\n        /* \"#utility.yul\":15602:15605   */\n      0xc0\n        /* \"#utility.yul\":15591:15600   */\n      dup4\n        /* \"#utility.yul\":15587:15606   */\n      add\n        /* \"#utility.yul\":15580:15629   */\n      mstore\n        /* \"#utility.yul\":15646:15754   */\n      tag_522\n        /* \"#utility.yul\":15749:15753   */\n      dup2\n        /* \"#utility.yul\":15740:15746   */\n      dup5\n        /* \"#utility.yul\":15646:15754   */\n      tag_344\n      jump\t// in\n    tag_522:\n        /* \"#utility.yul\":15638:15754   */\n      swap1\n      pop\n        /* \"#utility.yul\":13698:15761   */\n      swap9\n      swap8\n      pop\n      pop\n      pop\n      pop\n      pop\n      pop\n      pop\n      pop\n      jump\t// out\n        /* \"#utility.yul\":15767:16596   */\n    tag_32:\n        /* \"#utility.yul\":15869:15875   */\n      0x00\n        /* \"#utility.yul\":15877:15883   */\n      dup1\n        /* \"#utility.yul\":15885:15891   */\n      0x00\n        /* \"#utility.yul\":15934:15936   */\n      0x60\n        /* \"#utility.yul\":15922:15931   */\n      dup5\n        /* \"#utility.yul\":15913:15920   */\n      dup7\n        /* \"#utility.yul\":15909:15932   */\n      sub\n        /* \"#utility.yul\":15905:15937   */\n      slt\n        /* \"#utility.yul\":15902:16021   */\n      iszero\n      tag_524\n      jumpi\n        /* \"#utility.yul\":15940:16019   */\n      tag_525\n      tag_316\n      jump\t// in\n    tag_525:\n        /* \"#utility.yul\":15902:16021   */\n    tag_524:\n        /* \"#utility.yul\":16060:16061   */\n      0x00\n        /* \"#utility.yul\":16085:16138   */\n      tag_526\n        /* \"#utility.yul\":16130:16137   */\n      dup7\n        /* \"#utility.yul\":16121:16127   */\n      dup3\n        /* \"#utility.yul\":16110:16119   */\n      dup8\n        /* \"#utility.yul\":16106:16128   */\n      add\n        /* \"#utility.yul\":16085:16138   */\n      tag_324\n      jump\t// in\n    tag_526:\n        /* \"#utility.yul\":16075:16138   */\n      swap4\n      pop\n        /* \"#utility.yul\":16031:16148   */\n      pop\n        /* \"#utility.yul\":16187:16189   */\n      0x20\n        /* \"#utility.yul\":16213:16266   */\n      tag_527\n        /* \"#utility.yul\":16258:16265   */\n      dup7\n        /* \"#utility.yul\":16249:16255   */\n      dup3\n        /* \"#utility.yul\":16238:16247   */\n      dup8\n        /* \"#utility.yul\":16234:16256   */\n      add\n        /* \"#utility.yul\":16213:16266   */\n      tag_321\n      jump\t// in\n    tag_527:\n        /* \"#utility.yul\":16203:16266   */\n      swap3\n      pop\n        /* \"#utility.yul\":16158:16276   */\n      pop\n        /* \"#utility.yul\":16343:16345   */\n      0x40\n        /* \"#utility.yul\":16332:16341   */\n      dup5\n        /* \"#utility.yul\":16328:16346   */\n      add\n        /* \"#utility.yul\":16315:16347   */\n      calldataload\n        /* \"#utility.yul\":16374:16392   */\n      0xffffffffffffffff\n        /* \"#utility.yul\":16366:16372   */\n      dup2\n        /* \"#utility.yul\":16363:16393   */\n      gt\n        /* \"#utility.yul\":16360:16477   */\n      iszero\n      tag_528\n      jumpi\n        /* \"#utility.yul\":16396:16475   */\n      tag_529\n      tag_317\n      jump\t// in\n    tag_529:\n        /* \"#utility.yul\":16360:16477   */\n    tag_528:\n        /* \"#utility.yul\":16501:16579   */\n      tag_530\n        /* \"#utility.yul\":16571:16578   */\n      dup7\n        /* \"#utility.yul\":16562:16568   */\n      dup3\n        /* \"#utility.yul\":16551:16560   */\n      dup8\n        /* \"#utility.yul\":16547:16569   */\n      add\n        /* \"#utility.yul\":16501:16579   */\n      tag_337\n      jump\t// in\n    tag_530:\n        /* \"#utility.yul\":16491:16579   */\n      swap2\n      pop\n        /* \"#utility.yul\":16286:16589   */\n      pop\n        /* \"#utility.yul\":15767:16596   */\n      swap3\n      pop\n      swap3\n      pop\n      swap3\n      jump\t// out\n        /* \"#utility.yul\":16602:17757   */\n    tag_36:\n        /* \"#utility.yul\":16723:16729   */\n      0x00\n        /* \"#utility.yul\":16731:16737   */\n      dup1\n        /* \"#utility.yul\":16739:16745   */\n      0x00\n        /* \"#utility.yul\":16747:16753   */\n      dup1\n        /* \"#utility.yul\":16796:16799   */\n      0x80\n        /* \"#utility.yul\":16784:16793   */\n      dup6\n        /* \"#utility.yul\":16775:16782   */\n      dup8\n        /* \"#utility.yul\":16771:16794   */\n      sub\n        /* \"#utility.yul\":16767:16800   */\n      slt\n        /* \"#utility.yul\":16764:16884   */\n      iszero\n      tag_532\n      jumpi\n        /* \"#utility.yul\":16803:16882   */\n      tag_533\n      tag_316\n      jump\t// in\n    tag_533:\n        /* \"#utility.yul\":16764:16884   */\n    tag_532:\n        /* \"#utility.yul\":16923:16924   */\n      0x00\n        /* \"#utility.yul\":16948:17001   */\n      tag_534\n        /* \"#utility.yul\":16993:17000   */\n      dup8\n        /* \"#utility.yul\":16984:16990   */\n      dup3\n        /* \"#utility.yul\":16973:16982   */\n      dup9\n        /* \"#utility.yul\":16969:16991   */\n      add\n        /* \"#utility.yul\":16948:17001   */\n      tag_321\n      jump\t// in\n    tag_534:\n        /* \"#utility.yul\":16938:17001   */\n      swap5\n      pop\n        /* \"#utility.yul\":16894:17011   */\n      pop\n        /* \"#utility.yul\":17078:17080   */\n      0x20\n        /* \"#utility.yul\":17067:17076   */\n      dup6\n        /* \"#utility.yul\":17063:17081   */\n      add\n        /* \"#utility.yul\":17050:17082   */\n      calldataload\n        /* \"#utility.yul\":17109:17127   */\n      0xffffffffffffffff\n        /* \"#utility.yul\":17101:17107   */\n      dup2\n        /* \"#utility.yul\":17098:17128   */\n      gt\n        /* \"#utility.yul\":17095:17212   */\n      iszero\n      tag_535\n      jumpi\n        /* \"#utility.yul\":17131:17210   */\n      tag_536\n      tag_317\n      jump\t// in\n    tag_536:\n        /* \"#utility.yul\":17095:17212   */\n    tag_535:\n        /* \"#utility.yul\":17236:17299   */\n      tag_537\n        /* \"#utility.yul\":17291:17298   */\n      dup8\n        /* \"#utility.yul\":17282:17288   */\n      dup3\n        /* \"#utility.yul\":17271:17280   */\n      dup9\n        /* \"#utility.yul\":17267:17289   */\n      add\n        /* \"#utility.yul\":17236:17299   */\n      tag_333\n      jump\t// in\n    tag_537:\n        /* \"#utility.yul\":17226:17299   */\n      swap4\n      pop\n        /* \"#utility.yul\":17021:17309   */\n      pop\n        /* \"#utility.yul\":17348:17350   */\n      0x40\n        /* \"#utility.yul\":17374:17427   */\n      tag_538\n        /* \"#utility.yul\":17419:17426   */\n      dup8\n        /* \"#utility.yul\":17410:17416   */\n      dup3\n        /* \"#utility.yul\":17399:17408   */\n      dup9\n        /* \"#utility.yul\":17395:17417   */\n      add\n        /* \"#utility.yul\":17374:17427   */\n      tag_324\n      jump\t// in\n    tag_538:\n        /* \"#utility.yul\":17364:17427   */\n      swap3\n      pop\n        /* \"#utility.yul\":17319:17437   */\n      pop\n        /* \"#utility.yul\":17504:17506   */\n      0x60\n        /* \"#utility.yul\":17493:17502   */\n      dup6\n        /* \"#utility.yul\":17489:17507   */\n      add\n        /* \"#utility.yul\":17476:17508   */\n      calldataload\n        /* \"#utility.yul\":17535:17553   */\n      0xffffffffffffffff\n        /* \"#utility.yul\":17527:17533   */\n      dup2\n        /* \"#utility.yul\":17524:17554   */\n      gt\n        /* \"#utility.yul\":17521:17638   */\n      iszero\n      tag_539\n      jumpi\n        /* \"#utility.yul\":17557:17636   */\n      tag_540\n      tag_317\n      jump\t// in\n    tag_540:\n        /* \"#utility.yul\":17521:17638   */\n    tag_539:\n        /* \"#utility.yul\":17662:17740   */\n      tag_541\n        /* \"#utility.yul\":17732:17739   */\n      dup8\n        /* \"#utility.yul\":17723:17729   */\n      dup3\n        /* \"#utility.yul\":17712:17721   */\n      dup9\n        /* \"#utility.yul\":17708:17730   */\n      add\n        /* \"#utility.yul\":17662:17740   */\n      tag_337\n      jump\t// in\n    tag_541:\n        /* \"#utility.yul\":17652:17740   */\n      swap2\n      pop\n        /* \"#utility.yul\":17447:17750   */\n      pop\n        /* \"#utility.yul\":16602:17757   */\n      swap3\n      swap6\n      swap2\n      swap5\n      pop\n      swap3\n      pop\n      jump\t// out\n        /* \"#utility.yul\":17763:17881   */\n    tag_362:\n        /* \"#utility.yul\":17850:17874   */\n      tag_543\n        /* \"#utility.yul\":17868:17873   */\n      dup2\n        /* \"#utility.yul\":17850:17874   */\n      tag_319\n      jump\t// in\n    tag_543:\n        /* \"#utility.yul\":17845:17848   */\n      dup3\n        /* \"#utility.yul\":17838:17875   */\n      mstore\n        /* \"#utility.yul\":17763:17881   */\n      pop\n      pop\n      jump\t// out\n        /* \"#utility.yul\":17887:18109   */\n    tag_41:\n        /* \"#utility.yul\":17980:17984   */\n      0x00\n        /* \"#utility.yul\":18018:18020   */\n      0x20\n        /* \"#utility.yul\":18007:18016   */\n      dup3\n        /* \"#utility.yul\":18003:18021   */\n      add\n        /* \"#utility.yul\":17995:18021   */\n      swap1\n      pop\n        /* \"#utility.yul\":18031:18102   */\n      tag_545\n        /* \"#utility.yul\":18099:18100   */\n      0x00\n        /* \"#utility.yul\":18088:18097   */\n      dup4\n        /* \"#utility.yul\":18084:18101   */\n      add\n        /* \"#utility.yul\":18075:18081   */\n      dup5\n        /* \"#utility.yul\":18031:18102   */\n      tag_362\n      jump\t// in\n    tag_545:\n        /* \"#utility.yul\":17887:18109   */\n      swap3\n      swap2\n      pop\n      pop\n      jump\t// out\n        /* \"#utility.yul\":18115:20214   */\n    tag_44:\n        /* \"#utility.yul\":18292:18298   */\n      0x00\n        /* \"#utility.yul\":18300:18306   */\n      dup1\n        /* \"#utility.yul\":18308:18314   */\n      0x00\n        /* \"#utility.yul\":18316:18322   */\n      dup1\n        /* \"#utility.yul\":18324:18330   */\n      0x00\n        /* \"#utility.yul\":18332:18338   */\n      dup1\n        /* \"#utility.yul\":18340:18346   */\n      0x00\n        /* \"#utility.yul\":18348:18354   */\n      dup1\n        /* \"#utility.yul\":18397:18400   */\n      0x0100\n        /* \"#utility.yul\":18385:18394   */\n      dup10\n        /* \"#utility.yul\":18376:18383   */\n      dup12\n        /* \"#utility.yul\":18372:18395   */\n      sub\n        /* \"#utility.yul\":18368:18401   */\n      slt\n        /* \"#utility.yul\":18365:18485   */\n      iszero\n      tag_547\n      jumpi\n        /* \"#utility.yul\":18404:18483   */\n      tag_548\n      tag_316\n      jump\t// in\n    tag_548:\n        /* \"#utility.yul\":18365:18485   */\n    tag_547:\n        /* \"#utility.yul\":18524:18525   */\n      0x00\n        /* \"#utility.yul\":18549:18602   */\n      tag_549\n        /* \"#utility.yul\":18594:18601   */\n      dup12\n        /* \"#utility.yul\":18585:18591   */\n      dup3\n        /* \"#utility.yul\":18574:18583   */\n      dup13\n        /* \"#utility.yul\":18570:18592   */\n      add\n        /* \"#utility.yul\":18549:18602   */\n      tag_324\n      jump\t// in\n    tag_549:\n        /* \"#utility.yul\":18539:18602   */\n      swap9\n      pop\n        /* \"#utility.yul\":18495:18612   */\n      pop\n        /* \"#utility.yul\":18651:18653   */\n      0x20\n        /* \"#utility.yul\":18677:18730   */\n      tag_550\n        /* \"#utility.yul\":18722:18729   */\n      dup12\n        /* \"#utility.yul\":18713:18719   */\n      dup3\n        /* \"#utility.yul\":18702:18711   */\n      dup13\n        /* \"#utility.yul\":18698:18720   */\n      add\n        /* \"#utility.yul\":18677:18730   */\n      tag_324\n      jump\t// in\n    tag_550:\n        /* \"#utility.yul\":18667:18730   */\n      swap8\n      pop\n        /* \"#utility.yul\":18622:18740   */\n      pop\n        /* \"#utility.yul\":18779:18781   */\n      0x40\n        /* \"#utility.yul\":18805:18858   */\n      tag_551\n        /* \"#utility.yul\":18850:18857   */\n      dup12\n        /* \"#utility.yul\":18841:18847   */\n      dup3\n        /* \"#utility.yul\":18830:18839   */\n      dup13\n        /* \"#utility.yul\":18826:18848   */\n      add\n        /* \"#utility.yul\":18805:18858   */\n      tag_324\n      jump\t// in\n    tag_551:\n        /* \"#utility.yul\":18795:18858   */\n      swap7\n      pop\n        /* \"#utility.yul\":18750:18868   */\n      pop\n        /* \"#utility.yul\":18907:18909   */\n      0x60\n        /* \"#utility.yul\":18933:18986   */\n      tag_552\n        /* \"#utility.yul\":18978:18985   */\n      dup12\n        /* \"#utility.yul\":18969:18975   */\n      dup3\n        /* \"#utility.yul\":18958:18967   */\n      dup13\n        /* \"#utility.yul\":18954:18976   */\n      add\n        /* \"#utility.yul\":18933:18986   */\n      tag_324\n      jump\t// in\n    tag_552:\n        /* \"#utility.yul\":18923:18986   */\n      swap6\n      pop\n        /* \"#utility.yul\":18878:18996   */\n      pop\n        /* \"#utility.yul\":19063:19066   */\n      0x80\n        /* \"#utility.yul\":19052:19061   */\n      dup10\n        /* \"#utility.yul\":19048:19067   */\n      add\n        /* \"#utility.yul\":19035:19068   */\n      calldataload\n        /* \"#utility.yul\":19095:19113   */\n      0xffffffffffffffff\n        /* \"#utility.yul\":19087:19093   */\n      dup2\n        /* \"#utility.yul\":19084:19114   */\n      gt\n        /* \"#utility.yul\":19081:19198   */\n      iszero\n      tag_553\n      jumpi\n        /* \"#utility.yul\":19117:19196   */\n      tag_554\n      tag_317\n      jump\t// in\n    tag_554:\n        /* \"#utility.yul\":19081:19198   */\n    tag_553:\n        /* \"#utility.yul\":19222:19285   */\n      tag_555\n        /* \"#utility.yul\":19277:19284   */\n      dup12\n        /* \"#utility.yul\":19268:19274   */\n      dup3\n        /* \"#utility.yul\":19257:19266   */\n      dup13\n        /* \"#utility.yul\":19253:19275   */\n      add\n        /* \"#utility.yul\":19222:19285   */\n      tag_333\n      jump\t// in\n    tag_555:\n        /* \"#utility.yul\":19212:19285   */\n      swap5\n      pop\n        /* \"#utility.yul\":19006:19295   */\n      pop\n        /* \"#utility.yul\":19362:19365   */\n      0xa0\n        /* \"#utility.yul\":19351:19360   */\n      dup10\n        /* \"#utility.yul\":19347:19366   */\n      add\n        /* \"#utility.yul\":19334:19367   */\n      calldataload\n        /* \"#utility.yul\":19394:19412   */\n      0xffffffffffffffff\n        /* \"#utility.yul\":19386:19392   */\n      dup2\n        /* \"#utility.yul\":19383:19413   */\n      gt\n        /* \"#utility.yul\":19380:19497   */\n      iszero\n      tag_556\n      jumpi\n        /* \"#utility.yul\":19416:19495   */\n      tag_557\n      tag_317\n      jump\t// in\n    tag_557:\n        /* \"#utility.yul\":19380:19497   */\n    tag_556:\n        /* \"#utility.yul\":19521:19584   */\n      tag_558\n        /* \"#utility.yul\":19576:19583   */\n      dup12\n        /* \"#utility.yul\":19567:19573   */\n      dup3\n        /* \"#utility.yul\":19556:19565   */\n      dup13\n        /* \"#utility.yul\":19552:19574   */\n      add\n        /* \"#utility.yul\":19521:19584   */\n      tag_333\n      jump\t// in\n    tag_558:\n        /* \"#utility.yul\":19511:19584   */\n      swap4\n      pop\n        /* \"#utility.yul\":19305:19594   */\n      pop\n        /* \"#utility.yul\":19661:19664   */\n      0xc0\n        /* \"#utility.yul\":19650:19659   */\n      dup10\n        /* \"#utility.yul\":19646:19665   */\n      add\n        /* \"#utility.yul\":19633:19666   */\n      calldataload\n        /* \"#utility.yul\":19693:19711   */\n      0xffffffffffffffff\n        /* \"#utility.yul\":19685:19691   */\n      dup2\n        /* \"#utility.yul\":19682:19712   */\n      gt\n        /* \"#utility.yul\":19679:19796   */\n      iszero\n      tag_559\n      jumpi\n        /* \"#utility.yul\":19715:19794   */\n      tag_560\n      tag_317\n      jump\t// in\n    tag_560:\n        /* \"#utility.yul\":19679:19796   */\n    tag_559:\n        /* \"#utility.yul\":19820:19883   */\n      tag_561\n        /* \"#utility.yul\":19875:19882   */\n      dup12\n        /* \"#utility.yul\":19866:19872   */\n      dup3\n        /* \"#utility.yul\":19855:19864   */\n      dup13\n        /* \"#utility.yul\":19851:19873   */\n      add\n        /* \"#utility.yul\":19820:19883   */\n      tag_333\n      jump\t// in\n    tag_561:\n        /* \"#utility.yul\":19810:19883   */\n      swap3\n      pop\n        /* \"#utility.yul\":19604:19893   */\n      pop\n        /* \"#utility.yul\":19960:19963   */\n      0xe0\n        /* \"#utility.yul\":19949:19958   */\n      dup10\n        /* \"#utility.yul\":19945:19964   */\n      add\n        /* \"#utility.yul\":19932:19965   */\n      calldataload\n        /* \"#utility.yul\":19992:20010   */\n      0xffffffffffffffff\n        /* \"#utility.yul\":19984:19990   */\n      dup2\n        /* \"#utility.yul\":19981:20011   */\n      gt\n        /* \"#utility.yul\":19978:20095   */\n      iszero\n      tag_562\n      jumpi\n        /* \"#utility.yul\":20014:20093   */\n      tag_563\n      tag_317\n      jump\t// in\n    tag_563:\n        /* \"#utility.yul\":19978:20095   */\n    tag_562:\n        /* \"#utility.yul\":20119:20197   */\n      tag_564\n        /* \"#utility.yul\":20189:20196   */\n      dup12\n        /* \"#utility.yul\":20180:20186   */\n      dup3\n        /* \"#utility.yul\":20169:20178   */\n      dup13\n        /* \"#utility.yul\":20165:20187   */\n      add\n        /* \"#utility.yul\":20119:20197   */\n      tag_337\n      jump\t// in\n    tag_564:\n        /* \"#utility.yul\":20109:20197   */\n      swap2\n      pop\n        /* \"#utility.yul\":19903:20207   */\n      pop\n        /* \"#utility.yul\":18115:20214   */\n      swap3\n      swap6\n      swap9\n      pop\n      swap3\n      swap6\n      swap9\n      swap1\n      swap4\n      swap7\n      pop\n      jump\t// out\n        /* \"#utility.yul\":20220:20759   */\n    tag_48:\n        /* \"#utility.yul\":20304:20310   */\n      0x00\n        /* \"#utility.yul\":20353:20355   */\n      0x20\n        /* \"#utility.yul\":20341:20350   */\n      dup3\n        /* \"#utility.yul\":20332:20339   */\n      dup5\n        /* \"#utility.yul\":20328:20351   */\n      sub\n        /* \"#utility.yul\":20324:20356   */\n      slt\n        /* \"#utility.yul\":20321:20440   */\n      iszero\n      tag_566\n      jumpi\n        /* \"#utility.yul\":20359:20438   */\n      tag_567\n      tag_316\n      jump\t// in\n    tag_567:\n        /* \"#utility.yul\":20321:20440   */\n    tag_566:\n        /* \"#utility.yul\":20507:20508   */\n      0x00\n        /* \"#utility.yul\":20496:20505   */\n      dup3\n        /* \"#utility.yul\":20492:20509   */\n      add\n        /* \"#utility.yul\":20479:20510   */\n      calldataload\n        /* \"#utility.yul\":20537:20555   */\n      0xffffffffffffffff\n        /* \"#utility.yul\":20529:20535   */\n      dup2\n        /* \"#utility.yul\":20526:20556   */\n      gt\n        /* \"#utility.yul\":20523:20640   */\n      iszero\n      tag_568\n      jumpi\n        /* \"#utility.yul\":20559:20638   */\n      tag_569\n      tag_317\n      jump\t// in\n    tag_569:\n        /* \"#utility.yul\":20523:20640   */\n    tag_568:\n        /* \"#utility.yul\":20664:20742   */\n      tag_570\n        /* \"#utility.yul\":20734:20741   */\n      dup5\n        /* \"#utility.yul\":20725:20731   */\n      dup3\n        /* \"#utility.yul\":20714:20723   */\n      dup6\n        /* \"#utility.yul\":20710:20732   */\n      add\n        /* \"#utility.yul\":20664:20742   */\n      tag_337\n      jump\t// in\n    tag_570:\n        /* \"#utility.yul\":20654:20742   */\n      swap2\n      pop\n        /* \"#utility.yul\":20450:20752   */\n      pop\n        /* \"#utility.yul\":20220:20759   */\n      swap3\n      swap2\n      pop\n      pop\n      jump\t// out\n        /* \"#utility.yul\":20765:21700   */\n    tag_51:\n        /* \"#utility.yul\":21084:21088   */\n      0x00\n        /* \"#utility.yul\":21122:21124   */\n      0x60\n        /* \"#utility.yul\":21111:21120   */\n      dup3\n        /* \"#utility.yul\":21107:21125   */\n      add\n        /* \"#utility.yul\":21099:21125   */\n      swap1\n      pop\n        /* \"#utility.yul\":21171:21180   */\n      dup2\n        /* \"#utility.yul\":21165:21169   */\n      dup2\n        /* \"#utility.yul\":21161:21181   */\n      sub\n        /* \"#utility.yul\":21157:21158   */\n      0x00\n        /* \"#utility.yul\":21146:21155   */\n      dup4\n        /* \"#utility.yul\":21142:21159   */\n      add\n        /* \"#utility.yul\":21135:21182   */\n      mstore\n        /* \"#utility.yul\":21199:21307   */\n      tag_572\n        /* \"#utility.yul\":21302:21306   */\n      dup2\n        /* \"#utility.yul\":21293:21299   */\n      dup7\n        /* \"#utility.yul\":21199:21307   */\n      tag_361\n      jump\t// in\n    tag_572:\n        /* \"#utility.yul\":21191:21307   */\n      swap1\n      pop\n        /* \"#utility.yul\":21354:21363   */\n      dup2\n        /* \"#utility.yul\":21348:21352   */\n      dup2\n        /* \"#utility.yul\":21344:21364   */\n      sub\n        /* \"#utility.yul\":21339:21341   */\n      0x20\n        /* \"#utility.yul\":21328:21337   */\n      dup4\n        /* \"#utility.yul\":21324:21342   */\n      add\n        /* \"#utility.yul\":21317:21365   */\n      mstore\n        /* \"#utility.yul\":21382:21510   */\n      tag_573\n        /* \"#utility.yul\":21505:21509   */\n      dup2\n        /* \"#utility.yul\":21496:21502   */\n      dup6\n        /* \"#utility.yul\":21382:21510   */\n      tag_354\n      jump\t// in\n    tag_573:\n        /* \"#utility.yul\":21374:21510   */\n      swap1\n      pop\n        /* \"#utility.yul\":21557:21566   */\n      dup2\n        /* \"#utility.yul\":21551:21555   */\n      dup2\n        /* \"#utility.yul\":21547:21567   */\n      sub\n        /* \"#utility.yul\":21542:21544   */\n      0x40\n        /* \"#utility.yul\":21531:21540   */\n      dup4\n        /* \"#utility.yul\":21527:21545   */\n      add\n        /* \"#utility.yul\":21520:21568   */\n      mstore\n        /* \"#utility.yul\":21585:21693   */\n      tag_574\n        /* \"#utility.yul\":21688:21692   */\n      dup2\n        /* \"#utility.yul\":21679:21685   */\n      dup5\n        /* \"#utility.yul\":21585:21693   */\n      tag_344\n      jump\t// in\n    tag_574:\n        /* \"#utility.yul\":21577:21693   */\n      swap1\n      pop\n        /* \"#utility.yul\":20765:21700   */\n      swap5\n      swap4\n      pop\n      pop\n      pop\n      pop\n      jump\t// out\n        /* \"#utility.yul\":21706:21875   */\n    tag_363:\n        /* \"#utility.yul\":21790:21801   */\n      0x00\n        /* \"#utility.yul\":21824:21830   */\n      dup3\n        /* \"#utility.yul\":21819:21822   */\n      dup3\n        /* \"#utility.yul\":21812:21831   */\n      mstore\n        /* \"#utility.yul\":21864:21868   */\n      0x20\n        /* \"#utility.yul\":21859:21862   */\n      dup3\n        /* \"#utility.yul\":21855:21869   */\n      add\n        /* \"#utility.yul\":21840:21869   */\n      swap1\n      pop\n        /* \"#utility.yul\":21706:21875   */\n      swap3\n      swap2\n      pop\n      pop\n      jump\t// out\n        /* \"#utility.yul\":21881:22245   */\n    tag_364:\n        /* \"#utility.yul\":21969:21972   */\n      0x00\n        /* \"#utility.yul\":21997:22036   */\n      tag_577\n        /* \"#utility.yul\":22030:22035   */\n      dup3\n        /* \"#utility.yul\":21997:22036   */\n      tag_348\n      jump\t// in\n    tag_577:\n        /* \"#utility.yul\":22052:22123   */\n      tag_578\n        /* \"#utility.yul\":22116:22122   */\n      dup2\n        /* \"#utility.yul\":22111:22114   */\n      dup6\n        /* \"#utility.yul\":22052:22123   */\n      tag_363\n      jump\t// in\n    tag_578:\n        /* \"#utility.yul\":22045:22123   */\n      swap4\n      pop\n        /* \"#utility.yul\":22132:22184   */\n      tag_579\n        /* \"#utility.yul\":22177:22183   */\n      dup2\n        /* \"#utility.yul\":22172:22175   */\n      dup6\n        /* \"#utility.yul\":22165:22169   */\n      0x20\n        /* \"#utility.yul\":22158:22163   */\n      dup7\n        /* \"#utility.yul\":22154:22170   */\n      add\n        /* \"#utility.yul\":22132:22184   */\n      tag_350\n      jump\t// in\n    tag_579:\n        /* \"#utility.yul\":22209:22238   */\n      tag_580\n        /* \"#utility.yul\":22231:22237   */\n      dup2\n        /* \"#utility.yul\":22209:22238   */\n      tag_327\n      jump\t// in\n    tag_580:\n        /* \"#utility.yul\":22204:22207   */\n      dup5\n        /* \"#utility.yul\":22200:22239   */\n      add\n        /* \"#utility.yul\":22193:22239   */\n      swap2\n      pop\n        /* \"#utility.yul\":21973:22245   */\n      pop\n        /* \"#utility.yul\":21881:22245   */\n      swap3\n      swap2\n      pop\n      pop\n      jump\t// out\n        /* \"#utility.yul\":22251:22564   */\n    tag_56:\n        /* \"#utility.yul\":22364:22368   */\n      0x00\n        /* \"#utility.yul\":22402:22404   */\n      0x20\n        /* \"#utility.yul\":22391:22400   */\n      dup3\n        /* \"#utility.yul\":22387:22405   */\n      add\n        /* \"#utility.yul\":22379:22405   */\n      swap1\n      pop\n        /* \"#utility.yul\":22451:22460   */\n      dup2\n        /* \"#utility.yul\":22445:22449   */\n      dup2\n        /* \"#utility.yul\":22441:22461   */\n      sub\n        /* \"#utility.yul\":22437:22438   */\n      0x00\n        /* \"#utility.yul\":22426:22435   */\n      dup4\n        /* \"#utility.yul\":22422:22439   */\n      add\n        /* \"#utility.yul\":22415:22462   */\n      mstore\n        /* \"#utility.yul\":22479:22557   */\n      tag_582\n        /* \"#utility.yul\":22552:22556   */\n      dup2\n        /* \"#utility.yul\":22543:22549   */\n      dup5\n        /* \"#utility.yul\":22479:22557   */\n      tag_364\n      jump\t// in\n    tag_582:\n        /* \"#utility.yul\":22471:22557   */\n      swap1\n      pop\n        /* \"#utility.yul\":22251:22564   */\n      swap3\n      swap2\n      pop\n      pop\n      jump\t// out\n        /* \"#utility.yul\":22570:24523   */\n    tag_59:\n        /* \"#utility.yul\":22738:22744   */\n      0x00\n        /* \"#utility.yul\":22746:22752   */\n      dup1\n        /* \"#utility.yul\":22754:22760   */\n      0x00\n        /* \"#utility.yul\":22762:22768   */\n      dup1\n        /* \"#utility.yul\":22770:22776   */\n      0x00\n        /* \"#utility.yul\":22778:22784   */\n      dup1\n        /* \"#utility.yul\":22786:22792   */\n      0x00\n        /* \"#utility.yul\":22835:22838   */\n      0xe0\n        /* \"#utility.yul\":22823:22832   */\n      dup9\n        /* \"#utility.yul\":22814:22821   */\n      dup11\n        /* \"#utility.yul\":22810:22833   */\n      sub\n        /* \"#utility.yul\":22806:22839   */\n      slt\n        /* \"#utility.yul\":22803:22923   */\n      iszero\n      tag_584\n      jumpi\n        /* \"#utility.yul\":22842:22921   */\n      tag_585\n      tag_316\n      jump\t// in\n    tag_585:\n        /* \"#utility.yul\":22803:22923   */\n    tag_584:\n        /* \"#utility.yul\":22962:22963   */\n      0x00\n        /* \"#utility.yul\":22987:23040   */\n      tag_586\n        /* \"#utility.yul\":23032:23039   */\n      dup11\n        /* \"#utility.yul\":23023:23029   */\n      dup3\n        /* \"#utility.yul\":23012:23021   */\n      dup12\n        /* \"#utility.yul\":23008:23030   */\n      add\n        /* \"#utility.yul\":22987:23040   */\n      tag_324\n      jump\t// in\n    tag_586:\n        /* \"#utility.yul\":22977:23040   */\n      swap8\n      pop\n        /* \"#utility.yul\":22933:23050   */\n      pop\n        /* \"#utility.yul\":23089:23091   */\n      0x20\n        /* \"#utility.yul\":23115:23168   */\n      tag_587\n        /* \"#utility.yul\":23160:23167   */\n      dup11\n        /* \"#utility.yul\":23151:23157   */\n      dup3\n        /* \"#utility.yul\":23140:23149   */\n      dup12\n        /* \"#utility.yul\":23136:23158   */\n      add\n        /* \"#utility.yul\":23115:23168   */\n      tag_324\n      jump\t// in\n    tag_587:\n        /* \"#utility.yul\":23105:23168   */\n      swap7\n      pop\n        /* \"#utility.yul\":23060:23178   */\n      pop\n        /* \"#utility.yul\":23217:23219   */\n      0x40\n        /* \"#utility.yul\":23243:23296   */\n      tag_588\n        /* \"#utility.yul\":23288:23295   */\n      dup11\n        /* \"#utility.yul\":23279:23285   */\n      dup3\n        /* \"#utility.yul\":23268:23277   */\n      dup12\n        /* \"#utility.yul\":23264:23286   */\n      add\n        /* \"#utility.yul\":23243:23296   */\n      tag_324\n      jump\t// in\n    tag_588:\n        /* \"#utility.yul\":23233:23296   */\n      swap6\n      pop\n        /* \"#utility.yul\":23188:23306   */\n      pop\n        /* \"#utility.yul\":23373:23375   */\n      0x60\n        /* \"#utility.yul\":23362:23371   */\n      dup9\n        /* \"#utility.yul\":23358:23376   */\n      add\n        /* \"#utility.yul\":23345:23377   */\n      calldataload\n        /* \"#utility.yul\":23404:23422   */\n      0xffffffffffffffff\n        /* \"#utility.yul\":23396:23402   */\n      dup2\n        /* \"#utility.yul\":23393:23423   */\n      gt\n        /* \"#utility.yul\":23390:23507   */\n      iszero\n      tag_589\n      jumpi\n        /* \"#utility.yul\":23426:23505   */\n      tag_590\n      tag_317\n      jump\t// in\n    tag_590:\n        /* \"#utility.yul\":23390:23507   */\n    tag_589:\n        /* \"#utility.yul\":23531:23594   */\n      tag_591\n        /* \"#utility.yul\":23586:23593   */\n      dup11\n        /* \"#utility.yul\":23577:23583   */\n      dup3\n        /* \"#utility.yul\":23566:23575   */\n      dup12\n        /* \"#utility.yul\":23562:23584   */\n      add\n        /* \"#utility.yul\":23531:23594   */\n      tag_333\n      jump\t// in\n    tag_591:\n        /* \"#utility.yul\":23521:23594   */\n      swap5\n      pop\n        /* \"#utility.yul\":23316:23604   */\n      pop\n        /* \"#utility.yul\":23671:23674   */\n      0x80\n        /* \"#utility.yul\":23660:23669   */\n      dup9\n        /* \"#utility.yul\":23656:23675   */\n      add\n        /* \"#utility.yul\":23643:23676   */\n      calldataload\n        /* \"#utility.yul\":23703:23721   */\n      0xffffffffffffffff\n        /* \"#utility.yul\":23695:23701   */\n      dup2\n        /* \"#utility.yul\":23692:23722   */\n      gt\n        /* \"#utility.yul\":23689:23806   */\n      iszero\n      tag_592\n      jumpi\n        /* \"#utility.yul\":23725:23804   */\n      tag_593\n      tag_317\n      jump\t// in\n    tag_593:\n        /* \"#utility.yul\":23689:23806   */\n    tag_592:\n        /* \"#utility.yul\":23830:23893   */\n      tag_594\n        /* \"#utility.yul\":23885:23892   */\n      dup11\n        /* \"#utility.yul\":23876:23882   */\n      dup3\n        /* \"#utility.yul\":23865:23874   */\n      dup12\n        /* \"#utility.yul\":23861:23883   */\n      add\n        /* \"#utility.yul\":23830:23893   */\n      tag_333\n      jump\t// in\n    tag_594:\n        /* \"#utility.yul\":23820:23893   */\n      swap4\n      pop\n        /* \"#utility.yul\":23614:23903   */\n      pop\n        /* \"#utility.yul\":23970:23973   */\n      0xa0\n        /* \"#utility.yul\":23959:23968   */\n      dup9\n        /* \"#utility.yul\":23955:23974   */\n      add\n        /* \"#utility.yul\":23942:23975   */\n      calldataload\n        /* \"#utility.yul\":24002:24020   */\n      0xffffffffffffffff\n        /* \"#utility.yul\":23994:24000   */\n      dup2\n        /* \"#utility.yul\":23991:24021   */\n      gt\n        /* \"#utility.yul\":23988:24105   */\n      iszero\n      tag_595\n      jumpi\n        /* \"#utility.yul\":24024:24103   */\n      tag_596\n      tag_317\n      jump\t// in\n    tag_596:\n        /* \"#utility.yul\":23988:24105   */\n    tag_595:\n        /* \"#utility.yul\":24129:24192   */\n      tag_597\n        /* \"#utility.yul\":24184:24191   */\n      dup11\n        /* \"#utility.yul\":24175:24181   */\n      dup3\n        /* \"#utility.yul\":24164:24173   */\n      dup12\n        /* \"#utility.yul\":24160:24182   */\n      add\n        /* \"#utility.yul\":24129:24192   */\n      tag_333\n      jump\t// in\n    tag_597:\n        /* \"#utility.yul\":24119:24192   */\n      swap3\n      pop\n        /* \"#utility.yul\":23913:24202   */\n      pop\n        /* \"#utility.yul\":24269:24272   */\n      0xc0\n        /* \"#utility.yul\":24258:24267   */\n      dup9\n        /* \"#utility.yul\":24254:24273   */\n      add\n        /* \"#utility.yul\":24241:24274   */\n      calldataload\n        /* \"#utility.yul\":24301:24319   */\n      0xffffffffffffffff\n        /* \"#utility.yul\":24293:24299   */\n      dup2\n        /* \"#utility.yul\":24290:24320   */\n      gt\n        /* \"#utility.yul\":24287:24404   */\n      iszero\n      tag_598\n      jumpi\n        /* \"#utility.yul\":24323:24402   */\n      tag_599\n      tag_317\n      jump\t// in\n    tag_599:\n        /* \"#utility.yul\":24287:24404   */\n    tag_598:\n        /* \"#utility.yul\":24428:24506   */\n      tag_600\n        /* \"#utility.yul\":24498:24505   */\n      dup11\n        /* \"#utility.yul\":24489:24495   */\n      dup3\n        /* \"#utility.yul\":24478:24487   */\n      dup12\n        /* \"#utility.yul\":24474:24496   */\n      add\n        /* \"#utility.yul\":24428:24506   */\n      tag_337\n      jump\t// in\n    tag_600:\n        /* \"#utility.yul\":24418:24506   */\n      swap2\n      pop\n        /* \"#utility.yul\":24212:24516   */\n      pop\n        /* \"#utility.yul\":22570:24523   */\n      swap3\n      swap6\n      swap9\n      swap2\n      swap5\n      swap8\n      pop\n      swap3\n      swap6\n      pop\n      jump\t// out\n        /* \"#utility.yul\":24529:24858   */\n    tag_63:\n        /* \"#utility.yul\":24588:24594   */\n      0x00\n        /* \"#utility.yul\":24637:24639   */\n      0x20\n        /* \"#utility.yul\":24625:24634   */\n      dup3\n        /* \"#utility.yul\":24616:24623   */\n      dup5\n        /* \"#utility.yul\":24612:24635   */\n      sub\n        /* \"#utility.yul\":24608:24640   */\n      slt\n        /* \"#utility.yul\":24605:24724   */\n      iszero\n      tag_602\n      jumpi\n        /* \"#utility.yul\":24643:24722   */\n      tag_603\n      tag_316\n      jump\t// in\n    tag_603:\n        /* \"#utility.yul\":24605:24724   */\n    tag_602:\n        /* \"#utility.yul\":24763:24764   */\n      0x00\n        /* \"#utility.yul\":24788:24841   */\n      tag_604\n        /* \"#utility.yul\":24833:24840   */\n      dup5\n        /* \"#utility.yul\":24824:24830   */\n      dup3\n        /* \"#utility.yul\":24813:24822   */\n      dup6\n        /* \"#utility.yul\":24809:24831   */\n      add\n        /* \"#utility.yul\":24788:24841   */\n      tag_321\n      jump\t// in\n    tag_604:\n        /* \"#utility.yul\":24778:24841   */\n      swap2\n      pop\n        /* \"#utility.yul\":24734:24851   */\n      pop\n        /* \"#utility.yul\":24529:24858   */\n      swap3\n      swap2\n      pop\n      pop\n      jump\t// out\n        /* \"#utility.yul\":24864:25728   */\n    tag_67:\n        /* \"#utility.yul\":24967:24973   */\n      0x00\n        /* \"#utility.yul\":24975:24981   */\n      dup1\n        /* \"#utility.yul\":25024:25026   */\n      0x40\n        /* \"#utility.yul\":25012:25021   */\n      dup4\n        /* \"#utility.yul\":25003:25010   */\n      dup6\n        /* \"#utility.yul\":24999:25022   */\n      sub\n        /* \"#utility.yul\":24995:25027   */\n      slt\n        /* \"#utility.yul\":24992:25111   */\n      iszero\n      tag_606\n      jumpi\n        /* \"#utility.yul\":25030:25109   */\n      tag_607\n      tag_316\n      jump\t// in\n    tag_607:\n        /* \"#utility.yul\":24992:25111   */\n    tag_606:\n        /* \"#utility.yul\":25178:25179   */\n      0x00\n        /* \"#utility.yul\":25167:25176   */\n      dup4\n        /* \"#utility.yul\":25163:25180   */\n      add\n        /* \"#utility.yul\":25150:25181   */\n      calldataload\n        /* \"#utility.yul\":25208:25226   */\n      0xffffffffffffffff\n        /* \"#utility.yul\":25200:25206   */\n      dup2\n        /* \"#utility.yul\":25197:25227   */\n      gt\n        /* \"#utility.yul\":25194:25311   */\n      iszero\n      tag_608\n      jumpi\n        /* \"#utility.yul\":25230:25309   */\n      tag_609\n      tag_317\n      jump\t// in\n    tag_609:\n        /* \"#utility.yul\":25194:25311   */\n    tag_608:\n        /* \"#utility.yul\":25335:25398   */\n      tag_610\n        /* \"#utility.yul\":25390:25397   */\n      dup6\n        /* \"#utility.yul\":25381:25387   */\n      dup3\n        /* \"#utility.yul\":25370:25379   */\n      dup7\n        /* \"#utility.yul\":25366:25388   */\n      add\n        /* \"#utility.yul\":25335:25398   */\n      tag_333\n      jump\t// in\n    tag_610:\n        /* \"#utility.yul\":25325:25398   */\n      swap3\n      pop\n        /* \"#utility.yul\":25121:25408   */\n      pop\n        /* \"#utility.yul\":25475:25477   */\n      0x20\n        /* \"#utility.yul\":25464:25473   */\n      dup4\n        /* \"#utility.yul\":25460:25478   */\n      add\n        /* \"#utility.yul\":25447:25479   */\n      calldataload\n        /* \"#utility.yul\":25506:25524   */\n      0xffffffffffffffff\n        /* \"#utility.yul\":25498:25504   */\n      dup2\n        /* \"#utility.yul\":25495:25525   */\n      gt\n        /* \"#utility.yul\":25492:25609   */\n      iszero\n      tag_611\n      jumpi\n        /* \"#utility.yul\":25528:25607   */\n      tag_612\n      tag_317\n      jump\t// in\n    tag_612:\n        /* \"#utility.yul\":25492:25609   */\n    tag_611:\n        /* \"#utility.yul\":25633:25711   */\n      tag_613\n        /* \"#utility.yul\":25703:25710   */\n      dup6\n        /* \"#utility.yul\":25694:25700   */\n      dup3\n        /* \"#utility.yul\":25683:25692   */\n      dup7\n        /* \"#utility.yul\":25679:25701   */\n      add\n        /* \"#utility.yul\":25633:25711   */\n      tag_337\n      jump\t// in\n    tag_613:\n        /* \"#utility.yul\":25623:25711   */\n      swap2\n      pop\n        /* \"#utility.yul\":25418:25721   */\n      pop\n        /* \"#utility.yul\":24864:25728   */\n      swap3\n      pop\n      swap3\n      swap1\n      pop\n      jump\t// out\n        /* \"#utility.yul\":25734:25914   */\n    tag_77:\n        /* \"#utility.yul\":25782:25859   */\n      0x4e487b7100000000000000000000000000000000000000000000000000000000\n        /* \"#utility.yul\":25779:25780   */\n      0x00\n        /* \"#utility.yul\":25772:25860   */\n      mstore\n        /* \"#utility.yul\":25879:25883   */\n      0x21\n        /* \"#utility.yul\":25876:25877   */\n      0x04\n        /* \"#utility.yul\":25869:25884   */\n      mstore\n        /* \"#utility.yul\":25903:25907   */\n      0x24\n        /* \"#utility.yul\":25900:25901   */\n      0x00\n        /* \"#utility.yul\":25893:25908   */\n      revert\n        /* \"#utility.yul\":25920:26100   */\n    tag_365:\n        /* \"#utility.yul\":25968:26045   */\n      0x4e487b7100000000000000000000000000000000000000000000000000000000\n        /* \"#utility.yul\":25965:25966   */\n      0x00\n        /* \"#utility.yul\":25958:26046   */\n      mstore\n        /* \"#utility.yul\":26065:26069   */\n      0x11\n        /* \"#utility.yul\":26062:26063   */\n      0x04\n        /* \"#utility.yul\":26055:26070   */\n      mstore\n        /* \"#utility.yul\":26089:26093   */\n      0x24\n        /* \"#utility.yul\":26086:26087   */\n      0x00\n        /* \"#utility.yul\":26079:26094   */\n      revert\n        /* \"#utility.yul\":26106:26297   */\n    tag_87:\n        /* \"#utility.yul\":26146:26150   */\n      0x00\n        /* \"#utility.yul\":26166:26186   */\n      tag_617\n        /* \"#utility.yul\":26184:26185   */\n      dup3\n        /* \"#utility.yul\":26166:26186   */\n      tag_322\n      jump\t// in\n    tag_617:\n        /* \"#utility.yul\":26161:26186   */\n      swap2\n      pop\n        /* \"#utility.yul\":26200:26220   */\n      tag_618\n        /* \"#utility.yul\":26218:26219   */\n      dup4\n        /* \"#utility.yul\":26200:26220   */\n      tag_322\n      jump\t// in\n    tag_618:\n        /* \"#utility.yul\":26195:26220   */\n      swap3\n      pop\n        /* \"#utility.yul\":26239:26240   */\n      dup3\n        /* \"#utility.yul\":26236:26237   */\n      dup3\n        /* \"#utility.yul\":26233:26241   */\n      lt\n        /* \"#utility.yul\":26230:26264   */\n      iszero\n      tag_619\n      jumpi\n        /* \"#utility.yul\":26244:26262   */\n      tag_620\n      tag_365\n      jump\t// in\n    tag_620:\n        /* \"#utility.yul\":26230:26264   */\n    tag_619:\n        /* \"#utility.yul\":26289:26290   */\n      dup3\n        /* \"#utility.yul\":26286:26287   */\n      dup3\n        /* \"#utility.yul\":26282:26291   */\n      sub\n        /* \"#utility.yul\":26274:26291   */\n      swap1\n      pop\n        /* \"#utility.yul\":26106:26297   */\n      swap3\n      swap2\n      pop\n      pop\n      jump\t// out\n        /* \"#utility.yul\":26303:26483   */\n    tag_90:\n        /* \"#utility.yul\":26351:26428   */\n      0x4e487b7100000000000000000000000000000000000000000000000000000000\n        /* \"#utility.yul\":26348:26349   */\n      0x00\n        /* \"#utility.yul\":26341:26429   */\n      mstore\n        /* \"#utility.yul\":26448:26452   */\n      0x32\n        /* \"#utility.yul\":26445:26446   */\n      0x04\n        /* \"#utility.yul\":26438:26453   */\n      mstore\n        /* \"#utility.yul\":26472:26476   */\n      0x24\n        /* \"#utility.yul\":26469:26470   */\n      0x00\n        /* \"#utility.yul\":26462:26477   */\n      revert\n        /* \"#utility.yul\":26489:26669   */\n    tag_366:\n        /* \"#utility.yul\":26537:26614   */\n      0x4e487b7100000000000000000000000000000000000000000000000000000000\n        /* \"#utility.yul\":26534:26535   */\n      0x00\n        /* \"#utility.yul\":26527:26615   */\n      mstore\n        /* \"#utility.yul\":26634:26638   */\n      0x22\n        /* \"#utility.yul\":26631:26632   */\n      0x04\n        /* \"#utility.yul\":26624:26639   */\n      mstore\n        /* \"#utility.yul\":26658:26662   */\n      0x24\n        /* \"#utility.yul\":26655:26656   */\n      0x00\n        /* \"#utility.yul\":26648:26663   */\n      revert\n        /* \"#utility.yul\":26675:26995   */\n    tag_96:\n        /* \"#utility.yul\":26719:26725   */\n      0x00\n        /* \"#utility.yul\":26756:26757   */\n      0x02\n        /* \"#utility.yul\":26750:26754   */\n      dup3\n        /* \"#utility.yul\":26746:26758   */\n      div\n        /* \"#utility.yul\":26736:26758   */\n      swap1\n      pop\n        /* \"#utility.yul\":26803:26804   */\n      0x01\n        /* \"#utility.yul\":26797:26801   */\n      dup3\n        /* \"#utility.yul\":26793:26805   */\n      and\n        /* \"#utility.yul\":26824:26842   */\n      dup1\n        /* \"#utility.yul\":26814:26895   */\n      tag_624\n      jumpi\n        /* \"#utility.yul\":26880:26884   */\n      0x7f\n        /* \"#utility.yul\":26872:26878   */\n      dup3\n        /* \"#utility.yul\":26868:26885   */\n      and\n        /* \"#utility.yul\":26858:26885   */\n      swap2\n      pop\n        /* \"#utility.yul\":26814:26895   */\n    tag_624:\n        /* \"#utility.yul\":26942:26944   */\n      0x20\n        /* \"#utility.yul\":26934:26940   */\n      dup3\n        /* \"#utility.yul\":26931:26945   */\n      lt\n        /* \"#utility.yul\":26911:26929   */\n      dup2\n        /* \"#utility.yul\":26908:26946   */\n      sub\n        /* \"#utility.yul\":26905:26989   */\n      tag_625\n      jumpi\n        /* \"#utility.yul\":26961:26979   */\n      tag_626\n      tag_366\n      jump\t// in\n    tag_626:\n        /* \"#utility.yul\":26905:26989   */\n    tag_625:\n        /* \"#utility.yul\":26726:26995   */\n      pop\n        /* \"#utility.yul\":26675:26995   */\n      swap2\n      swap1\n      pop\n      jump\t// out\n        /* \"#utility.yul\":27001:27181   */\n    tag_105:\n        /* \"#utility.yul\":27049:27126   */\n      0x4e487b7100000000000000000000000000000000000000000000000000000000\n        /* \"#utility.yul\":27046:27047   */\n      0x00\n        /* \"#utility.yul\":27039:27127   */\n      mstore\n        /* \"#utility.yul\":27146:27150   */\n      0x31\n        /* \"#utility.yul\":27143:27144   */\n      0x04\n        /* \"#utility.yul\":27136:27151   */\n      mstore\n        /* \"#utility.yul\":27170:27174   */\n      0x24\n        /* \"#utility.yul\":27167:27168   */\n      0x00\n        /* \"#utility.yul\":27160:27175   */\n      revert\n        /* \"#utility.yul\":27187:27420   */\n    tag_185:\n        /* \"#utility.yul\":27226:27229   */\n      0x00\n        /* \"#utility.yul\":27249:27273   */\n      tag_629\n        /* \"#utility.yul\":27267:27272   */\n      dup3\n        /* \"#utility.yul\":27249:27273   */\n      tag_322\n      jump\t// in\n    tag_629:\n        /* \"#utility.yul\":27240:27273   */\n      swap2\n      pop\n        /* \"#utility.yul\":27295:27361   */\n      0xffffffffffffffffffffffffffffffffffffffffffffffffffffffffffffffff\n        /* \"#utility.yul\":27288:27293   */\n      dup3\n        /* \"#utility.yul\":27285:27362   */\n      sub\n        /* \"#utility.yul\":27282:27385   */\n      tag_630\n      jumpi\n        /* \"#utility.yul\":27365:27383   */\n      tag_631\n      tag_365\n      jump\t// in\n    tag_631:\n        /* \"#utility.yul\":27282:27385   */\n    tag_630:\n        /* \"#utility.yul\":27412:27413   */\n      0x01\n        /* \"#utility.yul\":27405:27410   */\n      dup3\n        /* \"#utility.yul\":27401:27414   */\n      add\n        /* \"#utility.yul\":27394:27414   */\n      swap1\n      pop\n        /* \"#utility.yul\":27187:27420   */\n      swap2\n      swap1\n      pop\n      jump\t// out\n\n    auxdata: 0xa26469706673582212204390643bf6983949fcd048f5dad7fa92817bc3d5406d6251e42ae98d7d9e2ebb64736f6c634300080d0033\n}\n","bytecode":{"linkReferences":{},"object":"60806040523480156200001157600080fd5b5060405162002df138038062002df18339818101604052810190620000379190620004d6565b81600160006101000a81548173ffffffffffffffffffffffffffffffffffffffff021916908373ffffffffffffffffffffffffffffffffffffffff16021790555082600290805190602001906200009092919062000224565b50600360046000600160009054906101000a900473ffffffffffffffffffffffffffffffffffffffff1673ffffffffffffffffffffffffffffffffffffffff1673ffffffffffffffffffffffffffffffffffffffff16815260200190815260200160002060006101000a81548160ff0219169083600381111562000119576200011862000570565b5b02179055506003600160009054906101000a900473ffffffffffffffffffffffffffffffffffffffff169080600181540180825580915050600190039060005260206000200160009091909190916101000a81548173ffffffffffffffffffffffffffffffffffffffff021916908373ffffffffffffffffffffffffffffffffffffffff1602179055508060056000600160009054906101000a900473ffffffffffffffffffffffffffffffffffffffff1673ffffffffffffffffffffffffffffffffffffffff1673ffffffffffffffffffffffffffffffffffffffff16815260200190815260200160002090805190602001906200021a92919062000224565b5050505062000603565b8280546200023290620005ce565b90600052602060002090601f016020900481019282620002565760008555620002a2565b82601f106200027157805160ff1916838001178555620002a2565b82800160010185558215620002a2579182015b82811115620002a157825182559160200191906001019062000284565b5b509050620002b19190620002b5565b5090565b5b80821115620002d0576000816000905550600101620002b6565b5090565b6000604051905090565b600080fd5b600080fd5b600080fd5b600080fd5b6000601f19601f8301169050919050565b7f4e487b7100000000000000000000000000000000000000000000000000000000600052604160045260246000fd5b6200033d82620002f2565b810181811067ffffffffffffffff821117156200035f576200035e62000303565b5b80604052505050565b600062000374620002d4565b905062000382828262000332565b919050565b600067ffffffffffffffff821115620003a557620003a462000303565b5b620003b082620002f2565b9050602081019050919050565b60005b83811015620003dd578082015181840152602081019050620003c0565b83811115620003ed576000848401525b50505050565b60006200040a620004048462000387565b62000368565b905082815260208101848484011115620004295762000428620002ed565b5b62000436848285620003bd565b509392505050565b600082601f830112620004565762000455620002e8565b5b815162000468848260208601620003f3565b91505092915050565b600073ffffffffffffffffffffffffffffffffffffffff82169050919050565b60006200049e8262000471565b9050919050565b620004b08162000491565b8114620004bc57600080fd5b50565b600081519050620004d081620004a5565b92915050565b600080600060608486031215620004f257620004f1620002de565b5b600084015167ffffffffffffffff811115620005135762000512620002e3565b5b62000521868287016200043e565b93505060206200053486828701620004bf565b925050604084015167ffffffffffffffff811115620005585762000557620002e3565b5b62000566868287016200043e565b9150509250925092565b7f4e487b7100000000000000000000000000000000000000000000000000000000600052602160045260246000fd5b7f4e487b7100000000000000000000000000000000000000000000000000000000600052602260045260246000fd5b60006002820490506001821680620005e757607f821691505b602082108103620005fd57620005fc6200059f565b5b50919050565b6127de80620006136000396000f3fe608060405234801561001057600080fd5b50600436106100b45760003560e01c806351e1cf271161007157806351e1cf271461017d578063725c0376146101995780638f88f476146101cb57806396a4bd5b146101fb578063a3fbbaae14610217578063a880a64414610233576100b4565b80631480e09c146100b95780631603813e146100d5578063198555ce146100f15780632c045b9114610127578063458cf78a14610143578063481c6a751461015f575b600080fd5b6100d360048036038101906100ce9190611c2a565b61024f565b005b6100ef60048036038101906100ea9190611cc9565b61039b565b005b61010b60048036038101906101069190611d38565b61058e565b60405161011e979695949392919061205a565b60405180910390f35b610141600480360381019061013c91906120fa565b610bfe565b005b61015d60048036038101906101589190612169565b610dfc565b005b610167610f3b565b6040516101749190612217565b60405180910390f35b61019760048036038101906101929190612232565b610f61565b005b6101b360048036038101906101ae9190612358565b6110b1565b6040516101c2939291906123a1565b60405180910390f35b6101e560048036038101906101e09190612358565b611401565b6040516101f29190612437565b60405180910390f35b61021560048036038101906102109190612459565b6114ab565b005b610231600480360381019061022c919061256b565b611602565b005b61024d60048036038101906102489190612598565b611708565b005b8061025b816003611739565b61026457600080fd5b6003859080600181540180825580915050600190039060005260206000200160009091909190916101000a81548173ffffffffffffffffffffffffffffffffffffffff021916908373ffffffffffffffffffffffffffffffffffffffff1602179055508360038111156102da576102d9612610565b5b600460008773ffffffffffffffffffffffffffffffffffffffff1673ffffffffffffffffffffffffffffffffffffffff16815260200190815260200160002060006101000a81548160ff0219169083600381111561033b5761033a612610565b5b021790555082600560008773ffffffffffffffffffffffffffffffffffffffff1673ffffffffffffffffffffffffffffffffffffffff1681526020019081526020016000209080519060200190610393929190611804565b505050505050565b806103a7816002611739565b6103b057600080fd5b6000806000868152602001908152602001600020905080600182805490506103d8919061266e565b815481106103e9576103e86126a2565b5b906000526020600020906006020181858154811061040a576104096126a2565b5b90600052602060002090600602016000820154816000015560018201548160010155600282018160020190805461044090612700565b61044b92919061188a565b50600382018160030190805461046090612700565b61046b92919061188a565b50600482018160040190805461048090612700565b61048b92919061188a565b506005820160009054906101000a900473ffffffffffffffffffffffffffffffffffffffff168160050160006101000a81548173ffffffffffffffffffffffffffffffffffffffff021916908373ffffffffffffffffffffffffffffffffffffffff1602179055509050508080548061050757610506612731565b5b6001900381819060005260206000209060060201600080820160009055600182016000905560028201600061053c9190611917565b60038201600061054c9190611917565b60048201600061055c9190611917565b6005820160006101000a81549073ffffffffffffffffffffffffffffffffffffffff0219169055505090555050505050565b6060806060806060806060876105a5816001611739565b6105ae57600080fd5b60008060008c8152602001908152602001600020805480602002602001604051908101604052809291908181526020016000905b8282101561083457838290600052602060002090600602016040518060c0016040529081600082015481526020016001820154815260200160028201805461062990612700565b80601f016020809104026020016040519081016040528092919081815260200182805461065590612700565b80156106a25780601f10610677576101008083540402835291602001916106a2565b820191906000526020600020905b81548152906001019060200180831161068557829003601f168201915b505050505081526020016003820180546106bb90612700565b80601f01602080910402602001604051908101604052809291908181526020018280546106e790612700565b80156107345780601f1061070957610100808354040283529160200191610734565b820191906000526020600020905b81548152906001019060200180831161071757829003601f168201915b5050505050815260200160048201805461074d90612700565b80601f016020809104026020016040519081016040528092919081815260200182805461077990612700565b80156107c65780601f1061079b576101008083540402835291602001916107c6565b820191906000526020600020905b8154815290600101906020018083116107a957829003601f168201915b505050505081526020016005820160009054906101000a900473ffffffffffffffffffffffffffffffffffffffff1673ffffffffffffffffffffffffffffffffffffffff1673ffffffffffffffffffffffffffffffffffffffff1681525050815260200190600101906105e2565b5050505090506000815190508067ffffffffffffffff81111561085a57610859611a37565b5b6040519080825280602002602001820160405280156108885781602001602082028036833780820191505090505b5099508067ffffffffffffffff8111156108a5576108a4611a37565b5b6040519080825280602002602001820160405280156108d857816020015b60608152602001906001900390816108c35790505b5097508067ffffffffffffffff8111156108f5576108f4611a37565b5b60405190808252806020026020018201604052801561092857816020015b60608152602001906001900390816109135790505b5095508067ffffffffffffffff81111561094557610944611a37565b5b60405190808252806020026020018201604052801561097857816020015b60608152602001906001900390816109635790505b5096508067ffffffffffffffff81111561099557610994611a37565b5b6040519080825280602002602001820160405280156109c35781602001602082028036833780820191505090505b5094508067ffffffffffffffff8111156109e0576109df611a37565b5b604051908082528060200260200182016040528015610a0e5781602001602082028036833780820191505090505b50935060005b81811015610bee57828181518110610a2f57610a2e6126a2565b5b6020026020010151600001518b8281518110610a4e57610a4d6126a2565b5b602002602001018181525050828181518110610a6d57610a6c6126a2565b5b6020026020010151602001518a8281518110610a8c57610a8b6126a2565b5b602002602001018181525050828181518110610aab57610aaa6126a2565b5b602002602001015160400151898281518110610aca57610ac96126a2565b5b6020026020010181905250828181518110610ae857610ae76126a2565b5b602002602001015160800151878281518110610b0757610b066126a2565b5b6020026020010181905250828181518110610b2557610b246126a2565b5b602002602001015160600151888281518110610b4457610b436126a2565b5b6020026020010181905250828181518110610b6257610b616126a2565b5b602002602001015160a00151868281518110610b8157610b806126a2565b5b602002602001019073ffffffffffffffffffffffffffffffffffffffff16908173ffffffffffffffffffffffffffffffffffffffff168152505080858281518110610bcf57610bce6126a2565b5b6020026020010181815250508080610be690612760565b915050610a14565b5050505092959891949750929550565b80610c0a816003611739565b610c1357600080fd5b600160009054906101000a900473ffffffffffffffffffffffffffffffffffffffff1673ffffffffffffffffffffffffffffffffffffffff168373ffffffffffffffffffffffffffffffffffffffff1614610df657600460008473ffffffffffffffffffffffffffffffffffffffff1673ffffffffffffffffffffffffffffffffffffffff16815260200190815260200160002060006101000a81549060ff0219169055600560008473ffffffffffffffffffffffffffffffffffffffff1673ffffffffffffffffffffffffffffffffffffffff1681526020019081526020016000206000610d029190611917565b60036001600380549050610d16919061266e565b81548110610d2757610d266126a2565b5b9060005260206000200160009054906101000a900473ffffffffffffffffffffffffffffffffffffffff1660038581548110610d6657610d656126a2565b5b9060005260206000200160006101000a81548173ffffffffffffffffffffffffffffffffffffffff021916908373ffffffffffffffffffffffffffffffffffffffff1602179055506003805480610dc057610dbf612731565b5b6001900381819060005260206000200160006101000a81549073ffffffffffffffffffffffffffffffffffffffff021916905590555b50505050565b80610e08816003611739565b610e1157600080fd5b600160009054906101000a900473ffffffffffffffffffffffffffffffffffffffff1673ffffffffffffffffffffffffffffffffffffffff168573ffffffffffffffffffffffffffffffffffffffff1614610f345783600560008773ffffffffffffffffffffffffffffffffffffffff1673ffffffffffffffffffffffffffffffffffffffff1681526020019081526020016000209080519060200190610eb9929190611804565b50826003811115610ecd57610ecc612610565b5b600460008773ffffffffffffffffffffffffffffffffffffffff1673ffffffffffffffffffffffffffffffffffffffff16815260200190815260200160002060006101000a81548160ff02191690836003811115610f2e57610f2d612610565b5b02179055505b5050505050565b600160009054906101000a900473ffffffffffffffffffffffffffffffffffffffff1681565b80610f6d816002611739565b610f7657600080fd5b60006040518060c001604052808981526020018881526020018781526020018681526020018581526020013373ffffffffffffffffffffffffffffffffffffffff168152509050806000808c81526020019081526020016000208a81548110610fe257610fe16126a2565b5b906000526020600020906006020160008201518160000155602082015181600101556040820151816002019080519060200190611020929190611804565b50606082015181600301908051906020019061103d929190611804565b50608082015181600401908051906020019061105a929190611804565b5060a08201518160050160006101000a81548173ffffffffffffffffffffffffffffffffffffffff021916908373ffffffffffffffffffffffffffffffffffffffff16021790555090505050505050505050505050565b6060806060836110c2816001611739565b6110cb57600080fd5b60006003805490509050600380548060200260200160405190810160405280929190818152602001828054801561115757602002820191906000526020600020905b8160009054906101000a900473ffffffffffffffffffffffffffffffffffffffff1673ffffffffffffffffffffffffffffffffffffffff168152602001906001019080831161110d575b505050505094508067ffffffffffffffff81111561117857611177611a37565b5b6040519080825280602002602001820160405280156111ab57816020015b60608152602001906001900390816111965790505b5093508067ffffffffffffffff8111156111c8576111c7611a37565b5b6040519080825280602002602001820160405280156111f65781602001602082028036833780820191505090505b50925060005b818110156113f757600560006003838154811061121c5761121b6126a2565b5b9060005260206000200160009054906101000a900473ffffffffffffffffffffffffffffffffffffffff1673ffffffffffffffffffffffffffffffffffffffff1673ffffffffffffffffffffffffffffffffffffffff168152602001908152602001600020805461128c90612700565b80601f01602080910402602001604051908101604052809291908181526020018280546112b890612700565b80156113055780601f106112da57610100808354040283529160200191611305565b820191906000526020600020905b8154815290600101906020018083116112e857829003601f168201915b505050505085828151811061131d5761131c6126a2565b5b602002602001018190525060046000600383815481106113405761133f6126a2565b5b9060005260206000200160009054906101000a900473ffffffffffffffffffffffffffffffffffffffff1673ffffffffffffffffffffffffffffffffffffffff1673ffffffffffffffffffffffffffffffffffffffff16815260200190815260200160002060009054906101000a900460ff1660038111156113c5576113c4612610565b5b8482815181106113d8576113d76126a2565b5b60200260200101818152505080806113ef90612760565b9150506111fc565b5050509193909250565b60608161140f816001611739565b61141857600080fd5b6002805461142590612700565b80601f016020809104026020016040519081016040528092919081815260200182805461145190612700565b801561149e5780601f106114735761010080835404028352916020019161149e565b820191906000526020600020905b81548152906001019060200180831161148157829003601f168201915b5050505050915050919050565b806114b7816002611739565b6114c057600080fd5b60006040518060c001604052808981526020018881526020018781526020018681526020018581526020013373ffffffffffffffffffffffffffffffffffffffff1681525090506000808a815260200190815260200160002081908060018154018082558091505060019003906000526020600020906006020160009091909190915060008201518160000155602082015181600101556040820151816002019080519060200190611573929190611804565b506060820151816003019080519060200190611590929190611804565b5060808201518160040190805190602001906115ad929190611804565b5060a08201518160050160006101000a81548173ffffffffffffffffffffffffffffffffffffffff021916908373ffffffffffffffffffffffffffffffffffffffff1602179055505050505050505050505050565b600160009054906101000a900473ffffffffffffffffffffffffffffffffffffffff1673ffffffffffffffffffffffffffffffffffffffff163373ffffffffffffffffffffffffffffffffffffffff161461165c57600080fd5b80600160006101000a81548173ffffffffffffffffffffffffffffffffffffffff021916908373ffffffffffffffffffffffffffffffffffffffff1602179055506003600460008373ffffffffffffffffffffffffffffffffffffffff1673ffffffffffffffffffffffffffffffffffffffff16815260200190815260200160002060006101000a81548160ff02191690836003811115611700576116ff612610565b5b021790555050565b80611714816003611739565b61171d57600080fd5b8260029080519060200190611733929190611804565b50505050565b600080600090505b83518110156117f85782600381111561175d5761175c612610565b5b60046000868481518110611774576117736126a2565b5b602002602001015173ffffffffffffffffffffffffffffffffffffffff1673ffffffffffffffffffffffffffffffffffffffff16815260200190815260200160002060009054906101000a900460ff1660038111156117d6576117d5612610565b5b106117e55760019150506117fe565b80806117f090612760565b915050611741565b50600090505b92915050565b82805461181090612700565b90600052602060002090601f0160209004810192826118325760008555611879565b82601f1061184b57805160ff1916838001178555611879565b82800160010185558215611879579182015b8281111561187857825182559160200191906001019061185d565b5b5090506118869190611957565b5090565b82805461189690612700565b90600052602060002090601f0160209004810192826118b85760008555611906565b82601f106118c95780548555611906565b8280016001018555821561190657600052602060002091601f016020900482015b828111156119055782548255916001019190600101906118ea565b5b5090506119139190611957565b5090565b50805461192390612700565b6000825580601f106119355750611954565b601f0160209004906000526020600020908101906119539190611957565b5b50565b5b80821115611970576000816000905550600101611958565b5090565b6000604051905090565b600080fd5b600080fd5b600073ffffffffffffffffffffffffffffffffffffffff82169050919050565b60006119b382611988565b9050919050565b6119c3816119a8565b81146119ce57600080fd5b50565b6000813590506119e0816119ba565b92915050565b6000819050919050565b6119f9816119e6565b8114611a0457600080fd5b50565b600081359050611a16816119f0565b92915050565b600080fd5b600080fd5b6000601f19601f8301169050919050565b7f4e487b7100000000000000000000000000000000000000000000000000000000600052604160045260246000fd5b611a6f82611a26565b810181811067ffffffffffffffff82111715611a8e57611a8d611a37565b5b80604052505050565b6000611aa1611974565b9050611aad8282611a66565b919050565b600067ffffffffffffffff821115611acd57611acc611a37565b5b611ad682611a26565b9050602081019050919050565b82818337600083830152505050565b6000611b05611b0084611ab2565b611a97565b905082815260208101848484011115611b2157611b20611a21565b5b611b2c848285611ae3565b509392505050565b600082601f830112611b4957611b48611a1c565b5b8135611b59848260208601611af2565b91505092915050565b600067ffffffffffffffff821115611b7d57611b7c611a37565b5b602082029050602081019050919050565b600080fd5b6000611ba6611ba184611b62565b611a97565b90508083825260208201905060208402830185811115611bc957611bc8611b8e565b5b835b81811015611bf25780611bde88826119d1565b845260208401935050602081019050611bcb565b5050509392505050565b600082601f830112611c1157611c10611a1c565b5b8135611c21848260208601611b93565b91505092915050565b60008060008060808587031215611c4457611c4361197e565b5b6000611c52878288016119d1565b9450506020611c6387828801611a07565b935050604085013567ffffffffffffffff811115611c8457611c83611983565b5b611c9087828801611b34565b925050606085013567ffffffffffffffff811115611cb157611cb0611983565b5b611cbd87828801611bfc565b91505092959194509250565b600080600060608486031215611ce257611ce161197e565b5b6000611cf086828701611a07565b9350506020611d0186828701611a07565b925050604084013567ffffffffffffffff811115611d2257611d21611983565b5b611d2e86828701611bfc565b9150509250925092565b60008060408385031215611d4f57611d4e61197e565b5b6000611d5d85828601611a07565b925050602083013567ffffffffffffffff811115611d7e57611d7d611983565b5b611d8a85828601611bfc565b9150509250929050565b600081519050919050565b600082825260208201905092915050565b6000819050602082019050919050565b611dc9816119e6565b82525050565b6000611ddb8383611dc0565b60208301905092915050565b6000602082019050919050565b6000611dff82611d94565b611e098185611d9f565b9350611e1483611db0565b8060005b83811015611e45578151611e2c8882611dcf565b9750611e3783611de7565b925050600181019050611e18565b5085935050505092915050565b600081519050919050565b600082825260208201905092915050565b6000819050602082019050919050565b600081519050919050565b600082825260208201905092915050565b60005b83811015611eb8578082015181840152602081019050611e9d565b83811115611ec7576000848401525b50505050565b6000611ed882611e7e565b611ee28185611e89565b9350611ef2818560208601611e9a565b611efb81611a26565b840191505092915050565b6000611f128383611ecd565b905092915050565b6000602082019050919050565b6000611f3282611e52565b611f3c8185611e5d565b935083602082028501611f4e85611e6e565b8060005b85811015611f8a5784840389528151611f6b8582611f06565b9450611f7683611f1a565b925060208a01995050600181019050611f52565b50829750879550505050505092915050565b600081519050919050565b600082825260208201905092915050565b6000819050602082019050919050565b611fd1816119a8565b82525050565b6000611fe38383611fc8565b60208301905092915050565b6000602082019050919050565b600061200782611f9c565b6120118185611fa7565b935061201c83611fb8565b8060005b8381101561204d5781516120348882611fd7565b975061203f83611fef565b925050600181019050612020565b5085935050505092915050565b600060e0820190508181036000830152612074818a611df4565b905081810360208301526120888189611df4565b9050818103604083015261209c8188611f27565b905081810360608301526120b08187611f27565b905081810360808301526120c48186611f27565b905081810360a08301526120d88185611ffc565b905081810360c08301526120ec8184611df4565b905098975050505050505050565b6000806000606084860312156121135761211261197e565b5b600061212186828701611a07565b9350506020612132868287016119d1565b925050604084013567ffffffffffffffff81111561215357612152611983565b5b61215f86828701611bfc565b9150509250925092565b600080600080608085870312156121835761218261197e565b5b6000612191878288016119d1565b945050602085013567ffffffffffffffff8111156121b2576121b1611983565b5b6121be87828801611b34565b93505060406121cf87828801611a07565b925050606085013567ffffffffffffffff8111156121f0576121ef611983565b5b6121fc87828801611bfc565b91505092959194509250565b612211816119a8565b82525050565b600060208201905061222c6000830184612208565b92915050565b600080600080600080600080610100898b0312156122535761225261197e565b5b60006122618b828c01611a07565b98505060206122728b828c01611a07565b97505060406122838b828c01611a07565b96505060606122948b828c01611a07565b955050608089013567ffffffffffffffff8111156122b5576122b4611983565b5b6122c18b828c01611b34565b94505060a089013567ffffffffffffffff8111156122e2576122e1611983565b5b6122ee8b828c01611b34565b93505060c089013567ffffffffffffffff81111561230f5761230e611983565b5b61231b8b828c01611b34565b92505060e089013567ffffffffffffffff81111561233c5761233b611983565b5b6123488b828c01611bfc565b9150509295985092959890939650565b60006020828403121561236e5761236d61197e565b5b600082013567ffffffffffffffff81111561238c5761238b611983565b5b61239884828501611bfc565b91505092915050565b600060608201905081810360008301526123bb8186611ffc565b905081810360208301526123cf8185611f27565b905081810360408301526123e38184611df4565b9050949350505050565b600082825260208201905092915050565b600061240982611e7e565b61241381856123ed565b9350612423818560208601611e9a565b61242c81611a26565b840191505092915050565b6000602082019050818103600083015261245181846123fe565b905092915050565b600080600080600080600060e0888a0312156124785761247761197e565b5b60006124868a828b01611a07565b97505060206124978a828b01611a07565b96505060406124a88a828b01611a07565b955050606088013567ffffffffffffffff8111156124c9576124c8611983565b5b6124d58a828b01611b34565b945050608088013567ffffffffffffffff8111156124f6576124f5611983565b5b6125028a828b01611b34565b93505060a088013567ffffffffffffffff81111561252357612522611983565b5b61252f8a828b01611b34565b92505060c088013567ffffffffffffffff8111156125505761254f611983565b5b61255c8a828b01611bfc565b91505092959891949750929550565b6000602082840312156125815761258061197e565b5b600061258f848285016119d1565b91505092915050565b600080604083850312156125af576125ae61197e565b5b600083013567ffffffffffffffff8111156125cd576125cc611983565b5b6125d985828601611b34565b925050602083013567ffffffffffffffff8111156125fa576125f9611983565b5b61260685828601611bfc565b9150509250929050565b7f4e487b7100000000000000000000000000000000000000000000000000000000600052602160045260246000fd5b7f4e487b7100000000000000000000000000000000000000000000000000000000600052601160045260246000fd5b6000612679826119e6565b9150612684836119e6565b9250828210156126975761269661263f565b5b828203905092915050565b7f4e487b7100000000000000000000000000000000000000000000000000000000600052603260045260246000fd5b7f4e487b7100000000000000000000000000000000000000000000000000000000600052602260045260246000fd5b6000600282049050600182168061271857607f821691505b60208210810361272b5761272a6126d1565b5b50919050565b7f4e487b7100000000000000000000000000000000000000000000000000000000600052603160045260246000fd5b600061276b826119e6565b91507fffffffffffffffffffffffffffffffffffffffffffffffffffffffffffffffff820361279d5761279c61263f565b5b60018201905091905056fea26469706673582212204390643bf6983949fcd048f5dad7fa92817bc3d5406d6251e42ae98d7d9e2ebb64736f6c634300080d0033","opcodes":"PUSH1 0x80 PUSH1 0x40 MSTORE CALLVALUE DUP1 ISZERO PUSH3 0x11 JUMPI PUSH1 0x0 DUP1 REVERT JUMPDEST POP PUSH1 0x40 MLOAD PUSH3 0x2DF1 CODESIZE SUB DUP1 PUSH3 0x2DF1 DUP4 CODECOPY DUP2 DUP2 ADD PUSH1 0x40 MSTORE DUP2 ADD SWAP1 PUSH3 0x37 SWAP2 SWAP1 PUSH3 0x4D6 JUMP JUMPDEST DUP2 PUSH1 0x1 PUSH1 0x0 PUSH2 0x100 EXP DUP2 SLOAD DUP2 PUSH20 0xFFFFFFFFFFFFFFFFFFFFFFFFFFFFFFFFFFFFFFFF MUL NOT AND SWAP1 DUP4 PUSH20 0xFFFFFFFFFFFFFFFFFFFFFFFFFFFFFFFFFFFFFFFF AND MUL OR SWAP1 SSTORE POP DUP3 PUSH1 0x2 SWAP1 DUP1 MLOAD SWAP1 PUSH1 0x20 ADD SWAP1 PUSH3 0x90 SWAP3 SWAP2 SWAP1 PUSH3 0x224 JUMP JUMPDEST POP PUSH1 0x3 PUSH1 0x4 PUSH1 0x0 PUSH1 0x1 PUSH1 0x0 SWAP1 SLOAD SWAP1 PUSH2 0x100 EXP SWAP1 DIV PUSH20 0xFFFFFFFFFFFFFFFFFFFFFFFFFFFFFFFFFFFFFFFF AND PUSH20 0xFFFFFFFFFFFFFFFFFFFFFFFFFFFFFFFFFFFFFFFF AND PUSH20 0xFFFFFFFFFFFFFFFFFFFFFFFFFFFFFFFFFFFFFFFF AND DUP2 MSTORE PUSH1 0x20 ADD SWAP1 DUP2 MSTORE PUSH1 0x20 ADD PUSH1 0x0 KECCAK256 PUSH1 0x0 PUSH2 0x100 EXP DUP2 SLOAD DUP2 PUSH1 0xFF MUL NOT AND SWAP1 DUP4 PUSH1 0x3 DUP2 GT ISZERO PUSH3 0x119 JUMPI PUSH3 0x118 PUSH3 0x570 JUMP JUMPDEST JUMPDEST MUL OR SWAP1 SSTORE POP PUSH1 0x3 PUSH1 0x1 PUSH1 0x0 SWAP1 SLOAD SWAP1 PUSH2 0x100 EXP SWAP1 DIV PUSH20 0xFFFFFFFFFFFFFFFFFFFFFFFFFFFFFFFFFFFFFFFF AND SWAP1 DUP1 PUSH1 0x1 DUP2 SLOAD ADD DUP1 DUP3 SSTORE DUP1 SWAP2 POP POP PUSH1 0x1 SWAP1 SUB SWAP1 PUSH1 0x0 MSTORE PUSH1 0x20 PUSH1 0x0 KECCAK256 ADD PUSH1 0x0 SWAP1 SWAP2 SWAP1 SWAP2 SWAP1 SWAP2 PUSH2 0x100 EXP DUP2 SLOAD DUP2 PUSH20 0xFFFFFFFFFFFFFFFFFFFFFFFFFFFFFFFFFFFFFFFF MUL NOT AND SWAP1 DUP4 PUSH20 0xFFFFFFFFFFFFFFFFFFFFFFFFFFFFFFFFFFFFFFFF AND MUL OR SWAP1 SSTORE POP DUP1 PUSH1 0x5 PUSH1 0x0 PUSH1 0x1 PUSH1 0x0 SWAP1 SLOAD SWAP1 PUSH2 0x100 EXP SWAP1 DIV PUSH20 0xFFFFFFFFFFFFFFFFFFFFFFFFFFFFFFFFFFFFFFFF AND PUSH20 0xFFFFFFFFFFFFFFFFFFFFFFFFFFFFFFFFFFFFFFFF AND PUSH20 0xFFFFFFFFFFFFFFFFFFFFFFFFFFFFFFFFFFFFFFFF AND DUP2 MSTORE PUSH1 0x20 ADD SWAP1 DUP2 MSTORE PUSH1 0x20 ADD PUSH1 0x0 KECCAK256 SWAP1 DUP1 MLOAD SWAP1 PUSH1 0x20 ADD SWAP1 PUSH3 0x21A SWAP3 SWAP2 SWAP1 PUSH3 0x224 JUMP JUMPDEST POP POP POP POP PUSH3 0x603 JUMP JUMPDEST DUP3 DUP1 SLOAD PUSH3 0x232 SWAP1 PUSH3 0x5CE JUMP JUMPDEST SWAP1 PUSH1 0x0 MSTORE PUSH1 0x20 PUSH1 0x0 KECCAK256 SWAP1 PUSH1 0x1F ADD PUSH1 0x20 SWAP1 DIV DUP2 ADD SWAP3 DUP3 PUSH3 0x256 JUMPI PUSH1 0x0 DUP6 SSTORE PUSH3 0x2A2 JUMP JUMPDEST DUP3 PUSH1 0x1F LT PUSH3 0x271 JUMPI DUP1 MLOAD PUSH1 0xFF NOT AND DUP4 DUP1 ADD OR DUP6 SSTORE PUSH3 0x2A2 JUMP JUMPDEST DUP3 DUP1 ADD PUSH1 0x1 ADD DUP6 SSTORE DUP3 ISZERO PUSH3 0x2A2 JUMPI SWAP2 DUP3 ADD JUMPDEST DUP3 DUP2 GT ISZERO PUSH3 0x2A1 JUMPI DUP3 MLOAD DUP3 SSTORE SWAP2 PUSH1 0x20 ADD SWAP2 SWAP1 PUSH1 0x1 ADD SWAP1 PUSH3 0x284 JUMP JUMPDEST JUMPDEST POP SWAP1 POP PUSH3 0x2B1 SWAP2 SWAP1 PUSH3 0x2B5 JUMP JUMPDEST POP SWAP1 JUMP JUMPDEST JUMPDEST DUP1 DUP3 GT ISZERO PUSH3 0x2D0 JUMPI PUSH1 0x0 DUP2 PUSH1 0x0 SWAP1 SSTORE POP PUSH1 0x1 ADD PUSH3 0x2B6 JUMP JUMPDEST POP SWAP1 JUMP JUMPDEST PUSH1 0x0 PUSH1 0x40 MLOAD SWAP1 POP SWAP1 JUMP JUMPDEST PUSH1 0x0 DUP1 REVERT JUMPDEST PUSH1 0x0 DUP1 REVERT JUMPDEST PUSH1 0x0 DUP1 REVERT JUMPDEST PUSH1 0x0 DUP1 REVERT JUMPDEST PUSH1 0x0 PUSH1 0x1F NOT PUSH1 0x1F DUP4 ADD AND SWAP1 POP SWAP2 SWAP1 POP JUMP JUMPDEST PUSH32 0x4E487B7100000000000000000000000000000000000000000000000000000000 PUSH1 0x0 MSTORE PUSH1 0x41 PUSH1 0x4 MSTORE PUSH1 0x24 PUSH1 0x0 REVERT JUMPDEST PUSH3 0x33D DUP3 PUSH3 0x2F2 JUMP JUMPDEST DUP2 ADD DUP2 DUP2 LT PUSH8 0xFFFFFFFFFFFFFFFF DUP3 GT OR ISZERO PUSH3 0x35F JUMPI PUSH3 0x35E PUSH3 0x303 JUMP JUMPDEST JUMPDEST DUP1 PUSH1 0x40 MSTORE POP POP POP JUMP JUMPDEST PUSH1 0x0 PUSH3 0x374 PUSH3 0x2D4 JUMP JUMPDEST SWAP1 POP PUSH3 0x382 DUP3 DUP3 PUSH3 0x332 JUMP JUMPDEST SWAP2 SWAP1 POP JUMP JUMPDEST PUSH1 0x0 PUSH8 0xFFFFFFFFFFFFFFFF DUP3 GT ISZERO PUSH3 0x3A5 JUMPI PUSH3 0x3A4 PUSH3 0x303 JUMP JUMPDEST JUMPDEST PUSH3 0x3B0 DUP3 PUSH3 0x2F2 JUMP JUMPDEST SWAP1 POP PUSH1 0x20 DUP2 ADD SWAP1 POP SWAP2 SWAP1 POP JUMP JUMPDEST PUSH1 0x0 JUMPDEST DUP4 DUP2 LT ISZERO PUSH3 0x3DD JUMPI DUP1 DUP3 ADD MLOAD DUP2 DUP5 ADD MSTORE PUSH1 0x20 DUP2 ADD SWAP1 POP PUSH3 0x3C0 JUMP JUMPDEST DUP4 DUP2 GT ISZERO PUSH3 0x3ED JUMPI PUSH1 0x0 DUP5 DUP5 ADD MSTORE JUMPDEST POP POP POP POP JUMP JUMPDEST PUSH1 0x0 PUSH3 0x40A PUSH3 0x404 DUP5 PUSH3 0x387 JUMP JUMPDEST PUSH3 0x368 JUMP JUMPDEST SWAP1 POP DUP3 DUP2 MSTORE PUSH1 0x20 DUP2 ADD DUP5 DUP5 DUP5 ADD GT ISZERO PUSH3 0x429 JUMPI PUSH3 0x428 PUSH3 0x2ED JUMP JUMPDEST JUMPDEST PUSH3 0x436 DUP5 DUP3 DUP6 PUSH3 0x3BD JUMP JUMPDEST POP SWAP4 SWAP3 POP POP POP JUMP JUMPDEST PUSH1 0x0 DUP3 PUSH1 0x1F DUP4 ADD SLT PUSH3 0x456 JUMPI PUSH3 0x455 PUSH3 0x2E8 JUMP JUMPDEST JUMPDEST DUP2 MLOAD PUSH3 0x468 DUP5 DUP3 PUSH1 0x20 DUP7 ADD PUSH3 0x3F3 JUMP JUMPDEST SWAP2 POP POP SWAP3 SWAP2 POP POP JUMP JUMPDEST PUSH1 0x0 PUSH20 0xFFFFFFFFFFFFFFFFFFFFFFFFFFFFFFFFFFFFFFFF DUP3 AND SWAP1 POP SWAP2 SWAP1 POP JUMP JUMPDEST PUSH1 0x0 PUSH3 0x49E DUP3 PUSH3 0x471 JUMP JUMPDEST SWAP1 POP SWAP2 SWAP1 POP JUMP JUMPDEST PUSH3 0x4B0 DUP2 PUSH3 0x491 JUMP JUMPDEST DUP2 EQ PUSH3 0x4BC JUMPI PUSH1 0x0 DUP1 REVERT JUMPDEST POP JUMP JUMPDEST PUSH1 0x0 DUP2 MLOAD SWAP1 POP PUSH3 0x4D0 DUP2 PUSH3 0x4A5 JUMP JUMPDEST SWAP3 SWAP2 POP POP JUMP JUMPDEST PUSH1 0x0 DUP1 PUSH1 0x0 PUSH1 0x60 DUP5 DUP7 SUB SLT ISZERO PUSH3 0x4F2 JUMPI PUSH3 0x4F1 PUSH3 0x2DE JUMP JUMPDEST JUMPDEST PUSH1 0x0 DUP5 ADD MLOAD PUSH8 0xFFFFFFFFFFFFFFFF DUP2 GT ISZERO PUSH3 0x513 JUMPI PUSH3 0x512 PUSH3 0x2E3 JUMP JUMPDEST JUMPDEST PUSH3 0x521 DUP7 DUP3 DUP8 ADD PUSH3 0x43E JUMP JUMPDEST SWAP4 POP POP PUSH1 0x20 PUSH3 0x534 DUP7 DUP3 DUP8 ADD PUSH3 0x4BF JUMP JUMPDEST SWAP3 POP POP PUSH1 0x40 DUP5 ADD MLOAD PUSH8 0xFFFFFFFFFFFFFFFF DUP2 GT ISZERO PUSH3 0x558 JUMPI PUSH3 0x557 PUSH3 0x2E3 JUMP JUMPDEST JUMPDEST PUSH3 0x566 DUP7 DUP3 DUP8 ADD PUSH3 0x43E JUMP JUMPDEST SWAP2 POP POP SWAP3 POP SWAP3 POP SWAP3 JUMP JUMPDEST PUSH32 0x4E487B7100000000000000000000000000000000000000000000000000000000 PUSH1 0x0 MSTORE PUSH1 0x21 PUSH1 0x4 MSTORE PUSH1 0x24 PUSH1 0x0 REVERT JUMPDEST PUSH32 0x4E487B7100000000000000000000000000000000000000000000000000000000 PUSH1 0x0 MSTORE PUSH1 0x22 PUSH1 0x4 MSTORE PUSH1 0x24 PUSH1 0x0 REVERT JUMPDEST PUSH1 0x0 PUSH1 0x2 DUP3 DIV SWAP1 POP PUSH1 0x1 DUP3 AND DUP1 PUSH3 0x5E7 JUMPI PUSH1 0x7F DUP3 AND SWAP2 POP JUMPDEST PUSH1 0x20 DUP3 LT DUP2 SUB PUSH3 0x5FD JUMPI PUSH3 0x5FC PUSH3 0x59F JUMP JUMPDEST JUMPDEST POP SWAP2 SWAP1 POP JUMP JUMPDEST PUSH2 0x27DE DUP1 PUSH3 0x613 PUSH1 0x0 CODECOPY PUSH1 0x0 RETURN INVALID PUSH1 0x80 PUSH1 0x40 MSTORE CALLVALUE DUP1 ISZERO PUSH2 0x10 JUMPI PUSH1 0x0 DUP1 REVERT JUMPDEST POP PUSH1 0x4 CALLDATASIZE LT PUSH2 0xB4 JUMPI PUSH1 0x0 CALLDATALOAD PUSH1 0xE0 SHR DUP1 PUSH4 0x51E1CF27 GT PUSH2 0x71 JUMPI DUP1 PUSH4 0x51E1CF27 EQ PUSH2 0x17D JUMPI DUP1 PUSH4 0x725C0376 EQ PUSH2 0x199 JUMPI DUP1 PUSH4 0x8F88F476 EQ PUSH2 0x1CB JUMPI DUP1 PUSH4 0x96A4BD5B EQ PUSH2 0x1FB JUMPI DUP1 PUSH4 0xA3FBBAAE EQ PUSH2 0x217 JUMPI DUP1 PUSH4 0xA880A644 EQ PUSH2 0x233 JUMPI PUSH2 0xB4 JUMP JUMPDEST DUP1 PUSH4 0x1480E09C EQ PUSH2 0xB9 JUMPI DUP1 PUSH4 0x1603813E EQ PUSH2 0xD5 JUMPI DUP1 PUSH4 0x198555CE EQ PUSH2 0xF1 JUMPI DUP1 PUSH4 0x2C045B91 EQ PUSH2 0x127 JUMPI DUP1 PUSH4 0x458CF78A EQ PUSH2 0x143 JUMPI DUP1 PUSH4 0x481C6A75 EQ PUSH2 0x15F JUMPI JUMPDEST PUSH1 0x0 DUP1 REVERT JUMPDEST PUSH2 0xD3 PUSH1 0x4 DUP1 CALLDATASIZE SUB DUP2 ADD SWAP1 PUSH2 0xCE SWAP2 SWAP1 PUSH2 0x1C2A JUMP JUMPDEST PUSH2 0x24F JUMP JUMPDEST STOP JUMPDEST PUSH2 0xEF PUSH1 0x4 DUP1 CALLDATASIZE SUB DUP2 ADD SWAP1 PUSH2 0xEA SWAP2 SWAP1 PUSH2 0x1CC9 JUMP JUMPDEST PUSH2 0x39B JUMP JUMPDEST STOP JUMPDEST PUSH2 0x10B PUSH1 0x4 DUP1 CALLDATASIZE SUB DUP2 ADD SWAP1 PUSH2 0x106 SWAP2 SWAP1 PUSH2 0x1D38 JUMP JUMPDEST PUSH2 0x58E JUMP JUMPDEST PUSH1 0x40 MLOAD PUSH2 0x11E SWAP8 SWAP7 SWAP6 SWAP5 SWAP4 SWAP3 SWAP2 SWAP1 PUSH2 0x205A JUMP JUMPDEST PUSH1 0x40 MLOAD DUP1 SWAP2 SUB SWAP1 RETURN JUMPDEST PUSH2 0x141 PUSH1 0x4 DUP1 CALLDATASIZE SUB DUP2 ADD SWAP1 PUSH2 0x13C SWAP2 SWAP1 PUSH2 0x20FA JUMP JUMPDEST PUSH2 0xBFE JUMP JUMPDEST STOP JUMPDEST PUSH2 0x15D PUSH1 0x4 DUP1 CALLDATASIZE SUB DUP2 ADD SWAP1 PUSH2 0x158 SWAP2 SWAP1 PUSH2 0x2169 JUMP JUMPDEST PUSH2 0xDFC JUMP JUMPDEST STOP JUMPDEST PUSH2 0x167 PUSH2 0xF3B JUMP JUMPDEST PUSH1 0x40 MLOAD PUSH2 0x174 SWAP2 SWAP1 PUSH2 0x2217 JUMP JUMPDEST PUSH1 0x40 MLOAD DUP1 SWAP2 SUB SWAP1 RETURN JUMPDEST PUSH2 0x197 PUSH1 0x4 DUP1 CALLDATASIZE SUB DUP2 ADD SWAP1 PUSH2 0x192 SWAP2 SWAP1 PUSH2 0x2232 JUMP JUMPDEST PUSH2 0xF61 JUMP JUMPDEST STOP JUMPDEST PUSH2 0x1B3 PUSH1 0x4 DUP1 CALLDATASIZE SUB DUP2 ADD SWAP1 PUSH2 0x1AE SWAP2 SWAP1 PUSH2 0x2358 JUMP JUMPDEST PUSH2 0x10B1 JUMP JUMPDEST PUSH1 0x40 MLOAD PUSH2 0x1C2 SWAP4 SWAP3 SWAP2 SWAP1 PUSH2 0x23A1 JUMP JUMPDEST PUSH1 0x40 MLOAD DUP1 SWAP2 SUB SWAP1 RETURN JUMPDEST PUSH2 0x1E5 PUSH1 0x4 DUP1 CALLDATASIZE SUB DUP2 ADD SWAP1 PUSH2 0x1E0 SWAP2 SWAP1 PUSH2 0x2358 JUMP JUMPDEST PUSH2 0x1401 JUMP JUMPDEST PUSH1 0x40 MLOAD PUSH2 0x1F2 SWAP2 SWAP1 PUSH2 0x2437 JUMP JUMPDEST PUSH1 0x40 MLOAD DUP1 SWAP2 SUB SWAP1 RETURN JUMPDEST PUSH2 0x215 PUSH1 0x4 DUP1 CALLDATASIZE SUB DUP2 ADD SWAP1 PUSH2 0x210 SWAP2 SWAP1 PUSH2 0x2459 JUMP JUMPDEST PUSH2 0x14AB JUMP JUMPDEST STOP JUMPDEST PUSH2 0x231 PUSH1 0x4 DUP1 CALLDATASIZE SUB DUP2 ADD SWAP1 PUSH2 0x22C SWAP2 SWAP1 PUSH2 0x256B JUMP JUMPDEST PUSH2 0x1602 JUMP JUMPDEST STOP JUMPDEST PUSH2 0x24D PUSH1 0x4 DUP1 CALLDATASIZE SUB DUP2 ADD SWAP1 PUSH2 0x248 SWAP2 SWAP1 PUSH2 0x2598 JUMP JUMPDEST PUSH2 0x1708 JUMP JUMPDEST STOP JUMPDEST DUP1 PUSH2 0x25B DUP2 PUSH1 0x3 PUSH2 0x1739 JUMP JUMPDEST PUSH2 0x264 JUMPI PUSH1 0x0 DUP1 REVERT JUMPDEST PUSH1 0x3 DUP6 SWAP1 DUP1 PUSH1 0x1 DUP2 SLOAD ADD DUP1 DUP3 SSTORE DUP1 SWAP2 POP POP PUSH1 0x1 SWAP1 SUB SWAP1 PUSH1 0x0 MSTORE PUSH1 0x20 PUSH1 0x0 KECCAK256 ADD PUSH1 0x0 SWAP1 SWAP2 SWAP1 SWAP2 SWAP1 SWAP2 PUSH2 0x100 EXP DUP2 SLOAD DUP2 PUSH20 0xFFFFFFFFFFFFFFFFFFFFFFFFFFFFFFFFFFFFFFFF MUL NOT AND SWAP1 DUP4 PUSH20 0xFFFFFFFFFFFFFFFFFFFFFFFFFFFFFFFFFFFFFFFF AND MUL OR SWAP1 SSTORE POP DUP4 PUSH1 0x3 DUP2 GT ISZERO PUSH2 0x2DA JUMPI PUSH2 0x2D9 PUSH2 0x2610 JUMP JUMPDEST JUMPDEST PUSH1 0x4 PUSH1 0x0 DUP8 PUSH20 0xFFFFFFFFFFFFFFFFFFFFFFFFFFFFFFFFFFFFFFFF AND PUSH20 0xFFFFFFFFFFFFFFFFFFFFFFFFFFFFFFFFFFFFFFFF AND DUP2 MSTORE PUSH1 0x20 ADD SWAP1 DUP2 MSTORE PUSH1 0x20 ADD PUSH1 0x0 KECCAK256 PUSH1 0x0 PUSH2 0x100 EXP DUP2 SLOAD DUP2 PUSH1 0xFF MUL NOT AND SWAP1 DUP4 PUSH1 0x3 DUP2 GT ISZERO PUSH2 0x33B JUMPI PUSH2 0x33A PUSH2 0x2610 JUMP JUMPDEST JUMPDEST MUL OR SWAP1 SSTORE POP DUP3 PUSH1 0x5 PUSH1 0x0 DUP8 PUSH20 0xFFFFFFFFFFFFFFFFFFFFFFFFFFFFFFFFFFFFFFFF AND PUSH20 0xFFFFFFFFFFFFFFFFFFFFFFFFFFFFFFFFFFFFFFFF AND DUP2 MSTORE PUSH1 0x20 ADD SWAP1 DUP2 MSTORE PUSH1 0x20 ADD PUSH1 0x0 KECCAK256 SWAP1 DUP1 MLOAD SWAP1 PUSH1 0x20 ADD SWAP1 PUSH2 0x393 SWAP3 SWAP2 SWAP1 PUSH2 0x1804 JUMP JUMPDEST POP POP POP POP POP POP JUMP JUMPDEST DUP1 PUSH2 0x3A7 DUP2 PUSH1 0x2 PUSH2 0x1739 JUMP JUMPDEST PUSH2 0x3B0 JUMPI PUSH1 0x0 DUP1 REVERT JUMPDEST PUSH1 0x0 DUP1 PUSH1 0x0 DUP7 DUP2 MSTORE PUSH1 0x20 ADD SWAP1 DUP2 MSTORE PUSH1 0x20 ADD PUSH1 0x0 KECCAK256 SWAP1 POP DUP1 PUSH1 0x1 DUP3 DUP1 SLOAD SWAP1 POP PUSH2 0x3D8 SWAP2 SWAP1 PUSH2 0x266E JUMP JUMPDEST DUP2 SLOAD DUP2 LT PUSH2 0x3E9 JUMPI PUSH2 0x3E8 PUSH2 0x26A2 JUMP JUMPDEST JUMPDEST SWAP1 PUSH1 0x0 MSTORE PUSH1 0x20 PUSH1 0x0 KECCAK256 SWAP1 PUSH1 0x6 MUL ADD DUP2 DUP6 DUP2 SLOAD DUP2 LT PUSH2 0x40A JUMPI PUSH2 0x409 PUSH2 0x26A2 JUMP JUMPDEST JUMPDEST SWAP1 PUSH1 0x0 MSTORE PUSH1 0x20 PUSH1 0x0 KECCAK256 SWAP1 PUSH1 0x6 MUL ADD PUSH1 0x0 DUP3 ADD SLOAD DUP2 PUSH1 0x0 ADD SSTORE PUSH1 0x1 DUP3 ADD SLOAD DUP2 PUSH1 0x1 ADD SSTORE PUSH1 0x2 DUP3 ADD DUP2 PUSH1 0x2 ADD SWAP1 DUP1 SLOAD PUSH2 0x440 SWAP1 PUSH2 0x2700 JUMP JUMPDEST PUSH2 0x44B SWAP3 SWAP2 SWAP1 PUSH2 0x188A JUMP JUMPDEST POP PUSH1 0x3 DUP3 ADD DUP2 PUSH1 0x3 ADD SWAP1 DUP1 SLOAD PUSH2 0x460 SWAP1 PUSH2 0x2700 JUMP JUMPDEST PUSH2 0x46B SWAP3 SWAP2 SWAP1 PUSH2 0x188A JUMP JUMPDEST POP PUSH1 0x4 DUP3 ADD DUP2 PUSH1 0x4 ADD SWAP1 DUP1 SLOAD PUSH2 0x480 SWAP1 PUSH2 0x2700 JUMP JUMPDEST PUSH2 0x48B SWAP3 SWAP2 SWAP1 PUSH2 0x188A JUMP JUMPDEST POP PUSH1 0x5 DUP3 ADD PUSH1 0x0 SWAP1 SLOAD SWAP1 PUSH2 0x100 EXP SWAP1 DIV PUSH20 0xFFFFFFFFFFFFFFFFFFFFFFFFFFFFFFFFFFFFFFFF AND DUP2 PUSH1 0x5 ADD PUSH1 0x0 PUSH2 0x100 EXP DUP2 SLOAD DUP2 PUSH20 0xFFFFFFFFFFFFFFFFFFFFFFFFFFFFFFFFFFFFFFFF MUL NOT AND SWAP1 DUP4 PUSH20 0xFFFFFFFFFFFFFFFFFFFFFFFFFFFFFFFFFFFFFFFF AND MUL OR SWAP1 SSTORE POP SWAP1 POP POP DUP1 DUP1 SLOAD DUP1 PUSH2 0x507 JUMPI PUSH2 0x506 PUSH2 0x2731 JUMP JUMPDEST JUMPDEST PUSH1 0x1 SWAP1 SUB DUP2 DUP2 SWAP1 PUSH1 0x0 MSTORE PUSH1 0x20 PUSH1 0x0 KECCAK256 SWAP1 PUSH1 0x6 MUL ADD PUSH1 0x0 DUP1 DUP3 ADD PUSH1 0x0 SWAP1 SSTORE PUSH1 0x1 DUP3 ADD PUSH1 0x0 SWAP1 SSTORE PUSH1 0x2 DUP3 ADD PUSH1 0x0 PUSH2 0x53C SWAP2 SWAP1 PUSH2 0x1917 JUMP JUMPDEST PUSH1 0x3 DUP3 ADD PUSH1 0x0 PUSH2 0x54C SWAP2 SWAP1 PUSH2 0x1917 JUMP JUMPDEST PUSH1 0x4 DUP3 ADD PUSH1 0x0 PUSH2 0x55C SWAP2 SWAP1 PUSH2 0x1917 JUMP JUMPDEST PUSH1 0x5 DUP3 ADD PUSH1 0x0 PUSH2 0x100 EXP DUP2 SLOAD SWAP1 PUSH20 0xFFFFFFFFFFFFFFFFFFFFFFFFFFFFFFFFFFFFFFFF MUL NOT AND SWAP1 SSTORE POP POP SWAP1 SSTORE POP POP POP POP POP JUMP JUMPDEST PUSH1 0x60 DUP1 PUSH1 0x60 DUP1 PUSH1 0x60 DUP1 PUSH1 0x60 DUP8 PUSH2 0x5A5 DUP2 PUSH1 0x1 PUSH2 0x1739 JUMP JUMPDEST PUSH2 0x5AE JUMPI PUSH1 0x0 DUP1 REVERT JUMPDEST PUSH1 0x0 DUP1 PUSH1 0x0 DUP13 DUP2 MSTORE PUSH1 0x20 ADD SWAP1 DUP2 MSTORE PUSH1 0x20 ADD PUSH1 0x0 KECCAK256 DUP1 SLOAD DUP1 PUSH1 0x20 MUL PUSH1 0x20 ADD PUSH1 0x40 MLOAD SWAP1 DUP2 ADD PUSH1 0x40 MSTORE DUP1 SWAP3 SWAP2 SWAP1 DUP2 DUP2 MSTORE PUSH1 0x20 ADD PUSH1 0x0 SWAP1 JUMPDEST DUP3 DUP3 LT ISZERO PUSH2 0x834 JUMPI DUP4 DUP3 SWAP1 PUSH1 0x0 MSTORE PUSH1 0x20 PUSH1 0x0 KECCAK256 SWAP1 PUSH1 0x6 MUL ADD PUSH1 0x40 MLOAD DUP1 PUSH1 0xC0 ADD PUSH1 0x40 MSTORE SWAP1 DUP2 PUSH1 0x0 DUP3 ADD SLOAD DUP2 MSTORE PUSH1 0x20 ADD PUSH1 0x1 DUP3 ADD SLOAD DUP2 MSTORE PUSH1 0x20 ADD PUSH1 0x2 DUP3 ADD DUP1 SLOAD PUSH2 0x629 SWAP1 PUSH2 0x2700 JUMP JUMPDEST DUP1 PUSH1 0x1F ADD PUSH1 0x20 DUP1 SWAP2 DIV MUL PUSH1 0x20 ADD PUSH1 0x40 MLOAD SWAP1 DUP2 ADD PUSH1 0x40 MSTORE DUP1 SWAP3 SWAP2 SWAP1 DUP2 DUP2 MSTORE PUSH1 0x20 ADD DUP3 DUP1 SLOAD PUSH2 0x655 SWAP1 PUSH2 0x2700 JUMP JUMPDEST DUP1 ISZERO PUSH2 0x6A2 JUMPI DUP1 PUSH1 0x1F LT PUSH2 0x677 JUMPI PUSH2 0x100 DUP1 DUP4 SLOAD DIV MUL DUP4 MSTORE SWAP2 PUSH1 0x20 ADD SWAP2 PUSH2 0x6A2 JUMP JUMPDEST DUP3 ADD SWAP2 SWAP1 PUSH1 0x0 MSTORE PUSH1 0x20 PUSH1 0x0 KECCAK256 SWAP1 JUMPDEST DUP2 SLOAD DUP2 MSTORE SWAP1 PUSH1 0x1 ADD SWAP1 PUSH1 0x20 ADD DUP1 DUP4 GT PUSH2 0x685 JUMPI DUP3 SWAP1 SUB PUSH1 0x1F AND DUP3 ADD SWAP2 JUMPDEST POP POP POP POP POP DUP2 MSTORE PUSH1 0x20 ADD PUSH1 0x3 DUP3 ADD DUP1 SLOAD PUSH2 0x6BB SWAP1 PUSH2 0x2700 JUMP JUMPDEST DUP1 PUSH1 0x1F ADD PUSH1 0x20 DUP1 SWAP2 DIV MUL PUSH1 0x20 ADD PUSH1 0x40 MLOAD SWAP1 DUP2 ADD PUSH1 0x40 MSTORE DUP1 SWAP3 SWAP2 SWAP1 DUP2 DUP2 MSTORE PUSH1 0x20 ADD DUP3 DUP1 SLOAD PUSH2 0x6E7 SWAP1 PUSH2 0x2700 JUMP JUMPDEST DUP1 ISZERO PUSH2 0x734 JUMPI DUP1 PUSH1 0x1F LT PUSH2 0x709 JUMPI PUSH2 0x100 DUP1 DUP4 SLOAD DIV MUL DUP4 MSTORE SWAP2 PUSH1 0x20 ADD SWAP2 PUSH2 0x734 JUMP JUMPDEST DUP3 ADD SWAP2 SWAP1 PUSH1 0x0 MSTORE PUSH1 0x20 PUSH1 0x0 KECCAK256 SWAP1 JUMPDEST DUP2 SLOAD DUP2 MSTORE SWAP1 PUSH1 0x1 ADD SWAP1 PUSH1 0x20 ADD DUP1 DUP4 GT PUSH2 0x717 JUMPI DUP3 SWAP1 SUB PUSH1 0x1F AND DUP3 ADD SWAP2 JUMPDEST POP POP POP POP POP DUP2 MSTORE PUSH1 0x20 ADD PUSH1 0x4 DUP3 ADD DUP1 SLOAD PUSH2 0x74D SWAP1 PUSH2 0x2700 JUMP JUMPDEST DUP1 PUSH1 0x1F ADD PUSH1 0x20 DUP1 SWAP2 DIV MUL PUSH1 0x20 ADD PUSH1 0x40 MLOAD SWAP1 DUP2 ADD PUSH1 0x40 MSTORE DUP1 SWAP3 SWAP2 SWAP1 DUP2 DUP2 MSTORE PUSH1 0x20 ADD DUP3 DUP1 SLOAD PUSH2 0x779 SWAP1 PUSH2 0x2700 JUMP JUMPDEST DUP1 ISZERO PUSH2 0x7C6 JUMPI DUP1 PUSH1 0x1F LT PUSH2 0x79B JUMPI PUSH2 0x100 DUP1 DUP4 SLOAD DIV MUL DUP4 MSTORE SWAP2 PUSH1 0x20 ADD SWAP2 PUSH2 0x7C6 JUMP JUMPDEST DUP3 ADD SWAP2 SWAP1 PUSH1 0x0 MSTORE PUSH1 0x20 PUSH1 0x0 KECCAK256 SWAP1 JUMPDEST DUP2 SLOAD DUP2 MSTORE SWAP1 PUSH1 0x1 ADD SWAP1 PUSH1 0x20 ADD DUP1 DUP4 GT PUSH2 0x7A9 JUMPI DUP3 SWAP1 SUB PUSH1 0x1F AND DUP3 ADD SWAP2 JUMPDEST POP POP POP POP POP DUP2 MSTORE PUSH1 0x20 ADD PUSH1 0x5 DUP3 ADD PUSH1 0x0 SWAP1 SLOAD SWAP1 PUSH2 0x100 EXP SWAP1 DIV PUSH20 0xFFFFFFFFFFFFFFFFFFFFFFFFFFFFFFFFFFFFFFFF AND PUSH20 0xFFFFFFFFFFFFFFFFFFFFFFFFFFFFFFFFFFFFFFFF AND PUSH20 0xFFFFFFFFFFFFFFFFFFFFFFFFFFFFFFFFFFFFFFFF AND DUP2 MSTORE POP POP DUP2 MSTORE PUSH1 0x20 ADD SWAP1 PUSH1 0x1 ADD SWAP1 PUSH2 0x5E2 JUMP JUMPDEST POP POP POP POP SWAP1 POP PUSH1 0x0 DUP2 MLOAD SWAP1 POP DUP1 PUSH8 0xFFFFFFFFFFFFFFFF DUP2 GT ISZERO PUSH2 0x85A JUMPI PUSH2 0x859 PUSH2 0x1A37 JUMP JUMPDEST JUMPDEST PUSH1 0x40 MLOAD SWAP1 DUP1 DUP3 MSTORE DUP1 PUSH1 0x20 MUL PUSH1 0x20 ADD DUP3 ADD PUSH1 0x40 MSTORE DUP1 ISZERO PUSH2 0x888 JUMPI DUP2 PUSH1 0x20 ADD PUSH1 0x20 DUP3 MUL DUP1 CALLDATASIZE DUP4 CALLDATACOPY DUP1 DUP3 ADD SWAP2 POP POP SWAP1 POP JUMPDEST POP SWAP10 POP DUP1 PUSH8 0xFFFFFFFFFFFFFFFF DUP2 GT ISZERO PUSH2 0x8A5 JUMPI PUSH2 0x8A4 PUSH2 0x1A37 JUMP JUMPDEST JUMPDEST PUSH1 0x40 MLOAD SWAP1 DUP1 DUP3 MSTORE DUP1 PUSH1 0x20 MUL PUSH1 0x20 ADD DUP3 ADD PUSH1 0x40 MSTORE DUP1 ISZERO PUSH2 0x8D8 JUMPI DUP2 PUSH1 0x20 ADD JUMPDEST PUSH1 0x60 DUP2 MSTORE PUSH1 0x20 ADD SWAP1 PUSH1 0x1 SWAP1 SUB SWAP1 DUP2 PUSH2 0x8C3 JUMPI SWAP1 POP JUMPDEST POP SWAP8 POP DUP1 PUSH8 0xFFFFFFFFFFFFFFFF DUP2 GT ISZERO PUSH2 0x8F5 JUMPI PUSH2 0x8F4 PUSH2 0x1A37 JUMP JUMPDEST JUMPDEST PUSH1 0x40 MLOAD SWAP1 DUP1 DUP3 MSTORE DUP1 PUSH1 0x20 MUL PUSH1 0x20 ADD DUP3 ADD PUSH1 0x40 MSTORE DUP1 ISZERO PUSH2 0x928 JUMPI DUP2 PUSH1 0x20 ADD JUMPDEST PUSH1 0x60 DUP2 MSTORE PUSH1 0x20 ADD SWAP1 PUSH1 0x1 SWAP1 SUB SWAP1 DUP2 PUSH2 0x913 JUMPI SWAP1 POP JUMPDEST POP SWAP6 POP DUP1 PUSH8 0xFFFFFFFFFFFFFFFF DUP2 GT ISZERO PUSH2 0x945 JUMPI PUSH2 0x944 PUSH2 0x1A37 JUMP JUMPDEST JUMPDEST PUSH1 0x40 MLOAD SWAP1 DUP1 DUP3 MSTORE DUP1 PUSH1 0x20 MUL PUSH1 0x20 ADD DUP3 ADD PUSH1 0x40 MSTORE DUP1 ISZERO PUSH2 0x978 JUMPI DUP2 PUSH1 0x20 ADD JUMPDEST PUSH1 0x60 DUP2 MSTORE PUSH1 0x20 ADD SWAP1 PUSH1 0x1 SWAP1 SUB SWAP1 DUP2 PUSH2 0x963 JUMPI SWAP1 POP JUMPDEST POP SWAP7 POP DUP1 PUSH8 0xFFFFFFFFFFFFFFFF DUP2 GT ISZERO PUSH2 0x995 JUMPI PUSH2 0x994 PUSH2 0x1A37 JUMP JUMPDEST JUMPDEST PUSH1 0x40 MLOAD SWAP1 DUP1 DUP3 MSTORE DUP1 PUSH1 0x20 MUL PUSH1 0x20 ADD DUP3 ADD PUSH1 0x40 MSTORE DUP1 ISZERO PUSH2 0x9C3 JUMPI DUP2 PUSH1 0x20 ADD PUSH1 0x20 DUP3 MUL DUP1 CALLDATASIZE DUP4 CALLDATACOPY DUP1 DUP3 ADD SWAP2 POP POP SWAP1 POP JUMPDEST POP SWAP5 POP DUP1 PUSH8 0xFFFFFFFFFFFFFFFF DUP2 GT ISZERO PUSH2 0x9E0 JUMPI PUSH2 0x9DF PUSH2 0x1A37 JUMP JUMPDEST JUMPDEST PUSH1 0x40 MLOAD SWAP1 DUP1 DUP3 MSTORE DUP1 PUSH1 0x20 MUL PUSH1 0x20 ADD DUP3 ADD PUSH1 0x40 MSTORE DUP1 ISZERO PUSH2 0xA0E JUMPI DUP2 PUSH1 0x20 ADD PUSH1 0x20 DUP3 MUL DUP1 CALLDATASIZE DUP4 CALLDATACOPY DUP1 DUP3 ADD SWAP2 POP POP SWAP1 POP JUMPDEST POP SWAP4 POP PUSH1 0x0 JUMPDEST DUP2 DUP2 LT ISZERO PUSH2 0xBEE JUMPI DUP3 DUP2 DUP2 MLOAD DUP2 LT PUSH2 0xA2F JUMPI PUSH2 0xA2E PUSH2 0x26A2 JUMP JUMPDEST JUMPDEST PUSH1 0x20 MUL PUSH1 0x20 ADD ADD MLOAD PUSH1 0x0 ADD MLOAD DUP12 DUP3 DUP2 MLOAD DUP2 LT PUSH2 0xA4E JUMPI PUSH2 0xA4D PUSH2 0x26A2 JUMP JUMPDEST JUMPDEST PUSH1 0x20 MUL PUSH1 0x20 ADD ADD DUP2 DUP2 MSTORE POP POP DUP3 DUP2 DUP2 MLOAD DUP2 LT PUSH2 0xA6D JUMPI PUSH2 0xA6C PUSH2 0x26A2 JUMP JUMPDEST JUMPDEST PUSH1 0x20 MUL PUSH1 0x20 ADD ADD MLOAD PUSH1 0x20 ADD MLOAD DUP11 DUP3 DUP2 MLOAD DUP2 LT PUSH2 0xA8C JUMPI PUSH2 0xA8B PUSH2 0x26A2 JUMP JUMPDEST JUMPDEST PUSH1 0x20 MUL PUSH1 0x20 ADD ADD DUP2 DUP2 MSTORE POP POP DUP3 DUP2 DUP2 MLOAD DUP2 LT PUSH2 0xAAB JUMPI PUSH2 0xAAA PUSH2 0x26A2 JUMP JUMPDEST JUMPDEST PUSH1 0x20 MUL PUSH1 0x20 ADD ADD MLOAD PUSH1 0x40 ADD MLOAD DUP10 DUP3 DUP2 MLOAD DUP2 LT PUSH2 0xACA JUMPI PUSH2 0xAC9 PUSH2 0x26A2 JUMP JUMPDEST JUMPDEST PUSH1 0x20 MUL PUSH1 0x20 ADD ADD DUP2 SWAP1 MSTORE POP DUP3 DUP2 DUP2 MLOAD DUP2 LT PUSH2 0xAE8 JUMPI PUSH2 0xAE7 PUSH2 0x26A2 JUMP JUMPDEST JUMPDEST PUSH1 0x20 MUL PUSH1 0x20 ADD ADD MLOAD PUSH1 0x80 ADD MLOAD DUP8 DUP3 DUP2 MLOAD DUP2 LT PUSH2 0xB07 JUMPI PUSH2 0xB06 PUSH2 0x26A2 JUMP JUMPDEST JUMPDEST PUSH1 0x20 MUL PUSH1 0x20 ADD ADD DUP2 SWAP1 MSTORE POP DUP3 DUP2 DUP2 MLOAD DUP2 LT PUSH2 0xB25 JUMPI PUSH2 0xB24 PUSH2 0x26A2 JUMP JUMPDEST JUMPDEST PUSH1 0x20 MUL PUSH1 0x20 ADD ADD MLOAD PUSH1 0x60 ADD MLOAD DUP9 DUP3 DUP2 MLOAD DUP2 LT PUSH2 0xB44 JUMPI PUSH2 0xB43 PUSH2 0x26A2 JUMP JUMPDEST JUMPDEST PUSH1 0x20 MUL PUSH1 0x20 ADD ADD DUP2 SWAP1 MSTORE POP DUP3 DUP2 DUP2 MLOAD DUP2 LT PUSH2 0xB62 JUMPI PUSH2 0xB61 PUSH2 0x26A2 JUMP JUMPDEST JUMPDEST PUSH1 0x20 MUL PUSH1 0x20 ADD ADD MLOAD PUSH1 0xA0 ADD MLOAD DUP7 DUP3 DUP2 MLOAD DUP2 LT PUSH2 0xB81 JUMPI PUSH2 0xB80 PUSH2 0x26A2 JUMP JUMPDEST JUMPDEST PUSH1 0x20 MUL PUSH1 0x20 ADD ADD SWAP1 PUSH20 0xFFFFFFFFFFFFFFFFFFFFFFFFFFFFFFFFFFFFFFFF AND SWAP1 DUP2 PUSH20 0xFFFFFFFFFFFFFFFFFFFFFFFFFFFFFFFFFFFFFFFF AND DUP2 MSTORE POP POP DUP1 DUP6 DUP3 DUP2 MLOAD DUP2 LT PUSH2 0xBCF JUMPI PUSH2 0xBCE PUSH2 0x26A2 JUMP JUMPDEST JUMPDEST PUSH1 0x20 MUL PUSH1 0x20 ADD ADD DUP2 DUP2 MSTORE POP POP DUP1 DUP1 PUSH2 0xBE6 SWAP1 PUSH2 0x2760 JUMP JUMPDEST SWAP2 POP POP PUSH2 0xA14 JUMP JUMPDEST POP POP POP POP SWAP3 SWAP6 SWAP9 SWAP2 SWAP5 SWAP8 POP SWAP3 SWAP6 POP JUMP JUMPDEST DUP1 PUSH2 0xC0A DUP2 PUSH1 0x3 PUSH2 0x1739 JUMP JUMPDEST PUSH2 0xC13 JUMPI PUSH1 0x0 DUP1 REVERT JUMPDEST PUSH1 0x1 PUSH1 0x0 SWAP1 SLOAD SWAP1 PUSH2 0x100 EXP SWAP1 DIV PUSH20 0xFFFFFFFFFFFFFFFFFFFFFFFFFFFFFFFFFFFFFFFF AND PUSH20 0xFFFFFFFFFFFFFFFFFFFFFFFFFFFFFFFFFFFFFFFF AND DUP4 PUSH20 0xFFFFFFFFFFFFFFFFFFFFFFFFFFFFFFFFFFFFFFFF AND EQ PUSH2 0xDF6 JUMPI PUSH1 0x4 PUSH1 0x0 DUP5 PUSH20 0xFFFFFFFFFFFFFFFFFFFFFFFFFFFFFFFFFFFFFFFF AND PUSH20 0xFFFFFFFFFFFFFFFFFFFFFFFFFFFFFFFFFFFFFFFF AND DUP2 MSTORE PUSH1 0x20 ADD SWAP1 DUP2 MSTORE PUSH1 0x20 ADD PUSH1 0x0 KECCAK256 PUSH1 0x0 PUSH2 0x100 EXP DUP2 SLOAD SWAP1 PUSH1 0xFF MUL NOT AND SWAP1 SSTORE PUSH1 0x5 PUSH1 0x0 DUP5 PUSH20 0xFFFFFFFFFFFFFFFFFFFFFFFFFFFFFFFFFFFFFFFF AND PUSH20 0xFFFFFFFFFFFFFFFFFFFFFFFFFFFFFFFFFFFFFFFF AND DUP2 MSTORE PUSH1 0x20 ADD SWAP1 DUP2 MSTORE PUSH1 0x20 ADD PUSH1 0x0 KECCAK256 PUSH1 0x0 PUSH2 0xD02 SWAP2 SWAP1 PUSH2 0x1917 JUMP JUMPDEST PUSH1 0x3 PUSH1 0x1 PUSH1 0x3 DUP1 SLOAD SWAP1 POP PUSH2 0xD16 SWAP2 SWAP1 PUSH2 0x266E JUMP JUMPDEST DUP2 SLOAD DUP2 LT PUSH2 0xD27 JUMPI PUSH2 0xD26 PUSH2 0x26A2 JUMP JUMPDEST JUMPDEST SWAP1 PUSH1 0x0 MSTORE PUSH1 0x20 PUSH1 0x0 KECCAK256 ADD PUSH1 0x0 SWAP1 SLOAD SWAP1 PUSH2 0x100 EXP SWAP1 DIV PUSH20 0xFFFFFFFFFFFFFFFFFFFFFFFFFFFFFFFFFFFFFFFF AND PUSH1 0x3 DUP6 DUP2 SLOAD DUP2 LT PUSH2 0xD66 JUMPI PUSH2 0xD65 PUSH2 0x26A2 JUMP JUMPDEST JUMPDEST SWAP1 PUSH1 0x0 MSTORE PUSH1 0x20 PUSH1 0x0 KECCAK256 ADD PUSH1 0x0 PUSH2 0x100 EXP DUP2 SLOAD DUP2 PUSH20 0xFFFFFFFFFFFFFFFFFFFFFFFFFFFFFFFFFFFFFFFF MUL NOT AND SWAP1 DUP4 PUSH20 0xFFFFFFFFFFFFFFFFFFFFFFFFFFFFFFFFFFFFFFFF AND MUL OR SWAP1 SSTORE POP PUSH1 0x3 DUP1 SLOAD DUP1 PUSH2 0xDC0 JUMPI PUSH2 0xDBF PUSH2 0x2731 JUMP JUMPDEST JUMPDEST PUSH1 0x1 SWAP1 SUB DUP2 DUP2 SWAP1 PUSH1 0x0 MSTORE PUSH1 0x20 PUSH1 0x0 KECCAK256 ADD PUSH1 0x0 PUSH2 0x100 EXP DUP2 SLOAD SWAP1 PUSH20 0xFFFFFFFFFFFFFFFFFFFFFFFFFFFFFFFFFFFFFFFF MUL NOT AND SWAP1 SSTORE SWAP1 SSTORE JUMPDEST POP POP POP POP JUMP JUMPDEST DUP1 PUSH2 0xE08 DUP2 PUSH1 0x3 PUSH2 0x1739 JUMP JUMPDEST PUSH2 0xE11 JUMPI PUSH1 0x0 DUP1 REVERT JUMPDEST PUSH1 0x1 PUSH1 0x0 SWAP1 SLOAD SWAP1 PUSH2 0x100 EXP SWAP1 DIV PUSH20 0xFFFFFFFFFFFFFFFFFFFFFFFFFFFFFFFFFFFFFFFF AND PUSH20 0xFFFFFFFFFFFFFFFFFFFFFFFFFFFFFFFFFFFFFFFF AND DUP6 PUSH20 0xFFFFFFFFFFFFFFFFFFFFFFFFFFFFFFFFFFFFFFFF AND EQ PUSH2 0xF34 JUMPI DUP4 PUSH1 0x5 PUSH1 0x0 DUP8 PUSH20 0xFFFFFFFFFFFFFFFFFFFFFFFFFFFFFFFFFFFFFFFF AND PUSH20 0xFFFFFFFFFFFFFFFFFFFFFFFFFFFFFFFFFFFFFFFF AND DUP2 MSTORE PUSH1 0x20 ADD SWAP1 DUP2 MSTORE PUSH1 0x20 ADD PUSH1 0x0 KECCAK256 SWAP1 DUP1 MLOAD SWAP1 PUSH1 0x20 ADD SWAP1 PUSH2 0xEB9 SWAP3 SWAP2 SWAP1 PUSH2 0x1804 JUMP JUMPDEST POP DUP3 PUSH1 0x3 DUP2 GT ISZERO PUSH2 0xECD JUMPI PUSH2 0xECC PUSH2 0x2610 JUMP JUMPDEST JUMPDEST PUSH1 0x4 PUSH1 0x0 DUP8 PUSH20 0xFFFFFFFFFFFFFFFFFFFFFFFFFFFFFFFFFFFFFFFF AND PUSH20 0xFFFFFFFFFFFFFFFFFFFFFFFFFFFFFFFFFFFFFFFF AND DUP2 MSTORE PUSH1 0x20 ADD SWAP1 DUP2 MSTORE PUSH1 0x20 ADD PUSH1 0x0 KECCAK256 PUSH1 0x0 PUSH2 0x100 EXP DUP2 SLOAD DUP2 PUSH1 0xFF MUL NOT AND SWAP1 DUP4 PUSH1 0x3 DUP2 GT ISZERO PUSH2 0xF2E JUMPI PUSH2 0xF2D PUSH2 0x2610 JUMP JUMPDEST JUMPDEST MUL OR SWAP1 SSTORE POP JUMPDEST POP POP POP POP POP JUMP JUMPDEST PUSH1 0x1 PUSH1 0x0 SWAP1 SLOAD SWAP1 PUSH2 0x100 EXP SWAP1 DIV PUSH20 0xFFFFFFFFFFFFFFFFFFFFFFFFFFFFFFFFFFFFFFFF AND DUP2 JUMP JUMPDEST DUP1 PUSH2 0xF6D DUP2 PUSH1 0x2 PUSH2 0x1739 JUMP JUMPDEST PUSH2 0xF76 JUMPI PUSH1 0x0 DUP1 REVERT JUMPDEST PUSH1 0x0 PUSH1 0x40 MLOAD DUP1 PUSH1 0xC0 ADD PUSH1 0x40 MSTORE DUP1 DUP10 DUP2 MSTORE PUSH1 0x20 ADD DUP9 DUP2 MSTORE PUSH1 0x20 ADD DUP8 DUP2 MSTORE PUSH1 0x20 ADD DUP7 DUP2 MSTORE PUSH1 0x20 ADD DUP6 DUP2 MSTORE PUSH1 0x20 ADD CALLER PUSH20 0xFFFFFFFFFFFFFFFFFFFFFFFFFFFFFFFFFFFFFFFF AND DUP2 MSTORE POP SWAP1 POP DUP1 PUSH1 0x0 DUP1 DUP13 DUP2 MSTORE PUSH1 0x20 ADD SWAP1 DUP2 MSTORE PUSH1 0x20 ADD PUSH1 0x0 KECCAK256 DUP11 DUP2 SLOAD DUP2 LT PUSH2 0xFE2 JUMPI PUSH2 0xFE1 PUSH2 0x26A2 JUMP JUMPDEST JUMPDEST SWAP1 PUSH1 0x0 MSTORE PUSH1 0x20 PUSH1 0x0 KECCAK256 SWAP1 PUSH1 0x6 MUL ADD PUSH1 0x0 DUP3 ADD MLOAD DUP2 PUSH1 0x0 ADD SSTORE PUSH1 0x20 DUP3 ADD MLOAD DUP2 PUSH1 0x1 ADD SSTORE PUSH1 0x40 DUP3 ADD MLOAD DUP2 PUSH1 0x2 ADD SWAP1 DUP1 MLOAD SWAP1 PUSH1 0x20 ADD SWAP1 PUSH2 0x1020 SWAP3 SWAP2 SWAP1 PUSH2 0x1804 JUMP JUMPDEST POP PUSH1 0x60 DUP3 ADD MLOAD DUP2 PUSH1 0x3 ADD SWAP1 DUP1 MLOAD SWAP1 PUSH1 0x20 ADD SWAP1 PUSH2 0x103D SWAP3 SWAP2 SWAP1 PUSH2 0x1804 JUMP JUMPDEST POP PUSH1 0x80 DUP3 ADD MLOAD DUP2 PUSH1 0x4 ADD SWAP1 DUP1 MLOAD SWAP1 PUSH1 0x20 ADD SWAP1 PUSH2 0x105A SWAP3 SWAP2 SWAP1 PUSH2 0x1804 JUMP JUMPDEST POP PUSH1 0xA0 DUP3 ADD MLOAD DUP2 PUSH1 0x5 ADD PUSH1 0x0 PUSH2 0x100 EXP DUP2 SLOAD DUP2 PUSH20 0xFFFFFFFFFFFFFFFFFFFFFFFFFFFFFFFFFFFFFFFF MUL NOT AND SWAP1 DUP4 PUSH20 0xFFFFFFFFFFFFFFFFFFFFFFFFFFFFFFFFFFFFFFFF AND MUL OR SWAP1 SSTORE POP SWAP1 POP POP POP POP POP POP POP POP POP POP POP POP JUMP JUMPDEST PUSH1 0x60 DUP1 PUSH1 0x60 DUP4 PUSH2 0x10C2 DUP2 PUSH1 0x1 PUSH2 0x1739 JUMP JUMPDEST PUSH2 0x10CB JUMPI PUSH1 0x0 DUP1 REVERT JUMPDEST PUSH1 0x0 PUSH1 0x3 DUP1 SLOAD SWAP1 POP SWAP1 POP PUSH1 0x3 DUP1 SLOAD DUP1 PUSH1 0x20 MUL PUSH1 0x20 ADD PUSH1 0x40 MLOAD SWAP1 DUP2 ADD PUSH1 0x40 MSTORE DUP1 SWAP3 SWAP2 SWAP1 DUP2 DUP2 MSTORE PUSH1 0x20 ADD DUP3 DUP1 SLOAD DUP1 ISZERO PUSH2 0x1157 JUMPI PUSH1 0x20 MUL DUP3 ADD SWAP2 SWAP1 PUSH1 0x0 MSTORE PUSH1 0x20 PUSH1 0x0 KECCAK256 SWAP1 JUMPDEST DUP2 PUSH1 0x0 SWAP1 SLOAD SWAP1 PUSH2 0x100 EXP SWAP1 DIV PUSH20 0xFFFFFFFFFFFFFFFFFFFFFFFFFFFFFFFFFFFFFFFF AND PUSH20 0xFFFFFFFFFFFFFFFFFFFFFFFFFFFFFFFFFFFFFFFF AND DUP2 MSTORE PUSH1 0x20 ADD SWAP1 PUSH1 0x1 ADD SWAP1 DUP1 DUP4 GT PUSH2 0x110D JUMPI JUMPDEST POP POP POP POP POP SWAP5 POP DUP1 PUSH8 0xFFFFFFFFFFFFFFFF DUP2 GT ISZERO PUSH2 0x1178 JUMPI PUSH2 0x1177 PUSH2 0x1A37 JUMP JUMPDEST JUMPDEST PUSH1 0x40 MLOAD SWAP1 DUP1 DUP3 MSTORE DUP1 PUSH1 0x20 MUL PUSH1 0x20 ADD DUP3 ADD PUSH1 0x40 MSTORE DUP1 ISZERO PUSH2 0x11AB JUMPI DUP2 PUSH1 0x20 ADD JUMPDEST PUSH1 0x60 DUP2 MSTORE PUSH1 0x20 ADD SWAP1 PUSH1 0x1 SWAP1 SUB SWAP1 DUP2 PUSH2 0x1196 JUMPI SWAP1 POP JUMPDEST POP SWAP4 POP DUP1 PUSH8 0xFFFFFFFFFFFFFFFF DUP2 GT ISZERO PUSH2 0x11C8 JUMPI PUSH2 0x11C7 PUSH2 0x1A37 JUMP JUMPDEST JUMPDEST PUSH1 0x40 MLOAD SWAP1 DUP1 DUP3 MSTORE DUP1 PUSH1 0x20 MUL PUSH1 0x20 ADD DUP3 ADD PUSH1 0x40 MSTORE DUP1 ISZERO PUSH2 0x11F6 JUMPI DUP2 PUSH1 0x20 ADD PUSH1 0x20 DUP3 MUL DUP1 CALLDATASIZE DUP4 CALLDATACOPY DUP1 DUP3 ADD SWAP2 POP POP SWAP1 POP JUMPDEST POP SWAP3 POP PUSH1 0x0 JUMPDEST DUP2 DUP2 LT ISZERO PUSH2 0x13F7 JUMPI PUSH1 0x5 PUSH1 0x0 PUSH1 0x3 DUP4 DUP2 SLOAD DUP2 LT PUSH2 0x121C JUMPI PUSH2 0x121B PUSH2 0x26A2 JUMP JUMPDEST JUMPDEST SWAP1 PUSH1 0x0 MSTORE PUSH1 0x20 PUSH1 0x0 KECCAK256 ADD PUSH1 0x0 SWAP1 SLOAD SWAP1 PUSH2 0x100 EXP SWAP1 DIV PUSH20 0xFFFFFFFFFFFFFFFFFFFFFFFFFFFFFFFFFFFFFFFF AND PUSH20 0xFFFFFFFFFFFFFFFFFFFFFFFFFFFFFFFFFFFFFFFF AND PUSH20 0xFFFFFFFFFFFFFFFFFFFFFFFFFFFFFFFFFFFFFFFF AND DUP2 MSTORE PUSH1 0x20 ADD SWAP1 DUP2 MSTORE PUSH1 0x20 ADD PUSH1 0x0 KECCAK256 DUP1 SLOAD PUSH2 0x128C SWAP1 PUSH2 0x2700 JUMP JUMPDEST DUP1 PUSH1 0x1F ADD PUSH1 0x20 DUP1 SWAP2 DIV MUL PUSH1 0x20 ADD PUSH1 0x40 MLOAD SWAP1 DUP2 ADD PUSH1 0x40 MSTORE DUP1 SWAP3 SWAP2 SWAP1 DUP2 DUP2 MSTORE PUSH1 0x20 ADD DUP3 DUP1 SLOAD PUSH2 0x12B8 SWAP1 PUSH2 0x2700 JUMP JUMPDEST DUP1 ISZERO PUSH2 0x1305 JUMPI DUP1 PUSH1 0x1F LT PUSH2 0x12DA JUMPI PUSH2 0x100 DUP1 DUP4 SLOAD DIV MUL DUP4 MSTORE SWAP2 PUSH1 0x20 ADD SWAP2 PUSH2 0x1305 JUMP JUMPDEST DUP3 ADD SWAP2 SWAP1 PUSH1 0x0 MSTORE PUSH1 0x20 PUSH1 0x0 KECCAK256 SWAP1 JUMPDEST DUP2 SLOAD DUP2 MSTORE SWAP1 PUSH1 0x1 ADD SWAP1 PUSH1 0x20 ADD DUP1 DUP4 GT PUSH2 0x12E8 JUMPI DUP3 SWAP1 SUB PUSH1 0x1F AND DUP3 ADD SWAP2 JUMPDEST POP POP POP POP POP DUP6 DUP3 DUP2 MLOAD DUP2 LT PUSH2 0x131D JUMPI PUSH2 0x131C PUSH2 0x26A2 JUMP JUMPDEST JUMPDEST PUSH1 0x20 MUL PUSH1 0x20 ADD ADD DUP2 SWAP1 MSTORE POP PUSH1 0x4 PUSH1 0x0 PUSH1 0x3 DUP4 DUP2 SLOAD DUP2 LT PUSH2 0x1340 JUMPI PUSH2 0x133F PUSH2 0x26A2 JUMP JUMPDEST JUMPDEST SWAP1 PUSH1 0x0 MSTORE PUSH1 0x20 PUSH1 0x0 KECCAK256 ADD PUSH1 0x0 SWAP1 SLOAD SWAP1 PUSH2 0x100 EXP SWAP1 DIV PUSH20 0xFFFFFFFFFFFFFFFFFFFFFFFFFFFFFFFFFFFFFFFF AND PUSH20 0xFFFFFFFFFFFFFFFFFFFFFFFFFFFFFFFFFFFFFFFF AND PUSH20 0xFFFFFFFFFFFFFFFFFFFFFFFFFFFFFFFFFFFFFFFF AND DUP2 MSTORE PUSH1 0x20 ADD SWAP1 DUP2 MSTORE PUSH1 0x20 ADD PUSH1 0x0 KECCAK256 PUSH1 0x0 SWAP1 SLOAD SWAP1 PUSH2 0x100 EXP SWAP1 DIV PUSH1 0xFF AND PUSH1 0x3 DUP2 GT ISZERO PUSH2 0x13C5 JUMPI PUSH2 0x13C4 PUSH2 0x2610 JUMP JUMPDEST JUMPDEST DUP5 DUP3 DUP2 MLOAD DUP2 LT PUSH2 0x13D8 JUMPI PUSH2 0x13D7 PUSH2 0x26A2 JUMP JUMPDEST JUMPDEST PUSH1 0x20 MUL PUSH1 0x20 ADD ADD DUP2 DUP2 MSTORE POP POP DUP1 DUP1 PUSH2 0x13EF SWAP1 PUSH2 0x2760 JUMP JUMPDEST SWAP2 POP POP PUSH2 0x11FC JUMP JUMPDEST POP POP POP SWAP2 SWAP4 SWAP1 SWAP3 POP JUMP JUMPDEST PUSH1 0x60 DUP2 PUSH2 0x140F DUP2 PUSH1 0x1 PUSH2 0x1739 JUMP JUMPDEST PUSH2 0x1418 JUMPI PUSH1 0x0 DUP1 REVERT JUMPDEST PUSH1 0x2 DUP1 SLOAD PUSH2 0x1425 SWAP1 PUSH2 0x2700 JUMP JUMPDEST DUP1 PUSH1 0x1F ADD PUSH1 0x20 DUP1 SWAP2 DIV MUL PUSH1 0x20 ADD PUSH1 0x40 MLOAD SWAP1 DUP2 ADD PUSH1 0x40 MSTORE DUP1 SWAP3 SWAP2 SWAP1 DUP2 DUP2 MSTORE PUSH1 0x20 ADD DUP3 DUP1 SLOAD PUSH2 0x1451 SWAP1 PUSH2 0x2700 JUMP JUMPDEST DUP1 ISZERO PUSH2 0x149E JUMPI DUP1 PUSH1 0x1F LT PUSH2 0x1473 JUMPI PUSH2 0x100 DUP1 DUP4 SLOAD DIV MUL DUP4 MSTORE SWAP2 PUSH1 0x20 ADD SWAP2 PUSH2 0x149E JUMP JUMPDEST DUP3 ADD SWAP2 SWAP1 PUSH1 0x0 MSTORE PUSH1 0x20 PUSH1 0x0 KECCAK256 SWAP1 JUMPDEST DUP2 SLOAD DUP2 MSTORE SWAP1 PUSH1 0x1 ADD SWAP1 PUSH1 0x20 ADD DUP1 DUP4 GT PUSH2 0x1481 JUMPI DUP3 SWAP1 SUB PUSH1 0x1F AND DUP3 ADD SWAP2 JUMPDEST POP POP POP POP POP SWAP2 POP POP SWAP2 SWAP1 POP JUMP JUMPDEST DUP1 PUSH2 0x14B7 DUP2 PUSH1 0x2 PUSH2 0x1739 JUMP JUMPDEST PUSH2 0x14C0 JUMPI PUSH1 0x0 DUP1 REVERT JUMPDEST PUSH1 0x0 PUSH1 0x40 MLOAD DUP1 PUSH1 0xC0 ADD PUSH1 0x40 MSTORE DUP1 DUP10 DUP2 MSTORE PUSH1 0x20 ADD DUP9 DUP2 MSTORE PUSH1 0x20 ADD DUP8 DUP2 MSTORE PUSH1 0x20 ADD DUP7 DUP2 MSTORE PUSH1 0x20 ADD DUP6 DUP2 MSTORE PUSH1 0x20 ADD CALLER PUSH20 0xFFFFFFFFFFFFFFFFFFFFFFFFFFFFFFFFFFFFFFFF AND DUP2 MSTORE POP SWAP1 POP PUSH1 0x0 DUP1 DUP11 DUP2 MSTORE PUSH1 0x20 ADD SWAP1 DUP2 MSTORE PUSH1 0x20 ADD PUSH1 0x0 KECCAK256 DUP2 SWAP1 DUP1 PUSH1 0x1 DUP2 SLOAD ADD DUP1 DUP3 SSTORE DUP1 SWAP2 POP POP PUSH1 0x1 SWAP1 SUB SWAP1 PUSH1 0x0 MSTORE PUSH1 0x20 PUSH1 0x0 KECCAK256 SWAP1 PUSH1 0x6 MUL ADD PUSH1 0x0 SWAP1 SWAP2 SWAP1 SWAP2 SWAP1 SWAP2 POP PUSH1 0x0 DUP3 ADD MLOAD DUP2 PUSH1 0x0 ADD SSTORE PUSH1 0x20 DUP3 ADD MLOAD DUP2 PUSH1 0x1 ADD SSTORE PUSH1 0x40 DUP3 ADD MLOAD DUP2 PUSH1 0x2 ADD SWAP1 DUP1 MLOAD SWAP1 PUSH1 0x20 ADD SWAP1 PUSH2 0x1573 SWAP3 SWAP2 SWAP1 PUSH2 0x1804 JUMP JUMPDEST POP PUSH1 0x60 DUP3 ADD MLOAD DUP2 PUSH1 0x3 ADD SWAP1 DUP1 MLOAD SWAP1 PUSH1 0x20 ADD SWAP1 PUSH2 0x1590 SWAP3 SWAP2 SWAP1 PUSH2 0x1804 JUMP JUMPDEST POP PUSH1 0x80 DUP3 ADD MLOAD DUP2 PUSH1 0x4 ADD SWAP1 DUP1 MLOAD SWAP1 PUSH1 0x20 ADD SWAP1 PUSH2 0x15AD SWAP3 SWAP2 SWAP1 PUSH2 0x1804 JUMP JUMPDEST POP PUSH1 0xA0 DUP3 ADD MLOAD DUP2 PUSH1 0x5 ADD PUSH1 0x0 PUSH2 0x100 EXP DUP2 SLOAD DUP2 PUSH20 0xFFFFFFFFFFFFFFFFFFFFFFFFFFFFFFFFFFFFFFFF MUL NOT AND SWAP1 DUP4 PUSH20 0xFFFFFFFFFFFFFFFFFFFFFFFFFFFFFFFFFFFFFFFF AND MUL OR SWAP1 SSTORE POP POP POP POP POP POP POP POP POP POP POP POP JUMP JUMPDEST PUSH1 0x1 PUSH1 0x0 SWAP1 SLOAD SWAP1 PUSH2 0x100 EXP SWAP1 DIV PUSH20 0xFFFFFFFFFFFFFFFFFFFFFFFFFFFFFFFFFFFFFFFF AND PUSH20 0xFFFFFFFFFFFFFFFFFFFFFFFFFFFFFFFFFFFFFFFF AND CALLER PUSH20 0xFFFFFFFFFFFFFFFFFFFFFFFFFFFFFFFFFFFFFFFF AND EQ PUSH2 0x165C JUMPI PUSH1 0x0 DUP1 REVERT JUMPDEST DUP1 PUSH1 0x1 PUSH1 0x0 PUSH2 0x100 EXP DUP2 SLOAD DUP2 PUSH20 0xFFFFFFFFFFFFFFFFFFFFFFFFFFFFFFFFFFFFFFFF MUL NOT AND SWAP1 DUP4 PUSH20 0xFFFFFFFFFFFFFFFFFFFFFFFFFFFFFFFFFFFFFFFF AND MUL OR SWAP1 SSTORE POP PUSH1 0x3 PUSH1 0x4 PUSH1 0x0 DUP4 PUSH20 0xFFFFFFFFFFFFFFFFFFFFFFFFFFFFFFFFFFFFFFFF AND PUSH20 0xFFFFFFFFFFFFFFFFFFFFFFFFFFFFFFFFFFFFFFFF AND DUP2 MSTORE PUSH1 0x20 ADD SWAP1 DUP2 MSTORE PUSH1 0x20 ADD PUSH1 0x0 KECCAK256 PUSH1 0x0 PUSH2 0x100 EXP DUP2 SLOAD DUP2 PUSH1 0xFF MUL NOT AND SWAP1 DUP4 PUSH1 0x3 DUP2 GT ISZERO PUSH2 0x1700 JUMPI PUSH2 0x16FF PUSH2 0x2610 JUMP JUMPDEST JUMPDEST MUL OR SWAP1 SSTORE POP POP JUMP JUMPDEST DUP1 PUSH2 0x1714 DUP2 PUSH1 0x3 PUSH2 0x1739 JUMP JUMPDEST PUSH2 0x171D JUMPI PUSH1 0x0 DUP1 REVERT JUMPDEST DUP3 PUSH1 0x2 SWAP1 DUP1 MLOAD SWAP1 PUSH1 0x20 ADD SWAP1 PUSH2 0x1733 SWAP3 SWAP2 SWAP1 PUSH2 0x1804 JUMP JUMPDEST POP POP POP POP JUMP JUMPDEST PUSH1 0x0 DUP1 PUSH1 0x0 SWAP1 POP JUMPDEST DUP4 MLOAD DUP2 LT ISZERO PUSH2 0x17F8 JUMPI DUP3 PUSH1 0x3 DUP2 GT ISZERO PUSH2 0x175D JUMPI PUSH2 0x175C PUSH2 0x2610 JUMP JUMPDEST JUMPDEST PUSH1 0x4 PUSH1 0x0 DUP7 DUP5 DUP2 MLOAD DUP2 LT PUSH2 0x1774 JUMPI PUSH2 0x1773 PUSH2 0x26A2 JUMP JUMPDEST JUMPDEST PUSH1 0x20 MUL PUSH1 0x20 ADD ADD MLOAD PUSH20 0xFFFFFFFFFFFFFFFFFFFFFFFFFFFFFFFFFFFFFFFF AND PUSH20 0xFFFFFFFFFFFFFFFFFFFFFFFFFFFFFFFFFFFFFFFF AND DUP2 MSTORE PUSH1 0x20 ADD SWAP1 DUP2 MSTORE PUSH1 0x20 ADD PUSH1 0x0 KECCAK256 PUSH1 0x0 SWAP1 SLOAD SWAP1 PUSH2 0x100 EXP SWAP1 DIV PUSH1 0xFF AND PUSH1 0x3 DUP2 GT ISZERO PUSH2 0x17D6 JUMPI PUSH2 0x17D5 PUSH2 0x2610 JUMP JUMPDEST JUMPDEST LT PUSH2 0x17E5 JUMPI PUSH1 0x1 SWAP2 POP POP PUSH2 0x17FE JUMP JUMPDEST DUP1 DUP1 PUSH2 0x17F0 SWAP1 PUSH2 0x2760 JUMP JUMPDEST SWAP2 POP POP PUSH2 0x1741 JUMP JUMPDEST POP PUSH1 0x0 SWAP1 POP JUMPDEST SWAP3 SWAP2 POP POP JUMP JUMPDEST DUP3 DUP1 SLOAD PUSH2 0x1810 SWAP1 PUSH2 0x2700 JUMP JUMPDEST SWAP1 PUSH1 0x0 MSTORE PUSH1 0x20 PUSH1 0x0 KECCAK256 SWAP1 PUSH1 0x1F ADD PUSH1 0x20 SWAP1 DIV DUP2 ADD SWAP3 DUP3 PUSH2 0x1832 JUMPI PUSH1 0x0 DUP6 SSTORE PUSH2 0x1879 JUMP JUMPDEST DUP3 PUSH1 0x1F LT PUSH2 0x184B JUMPI DUP1 MLOAD PUSH1 0xFF NOT AND DUP4 DUP1 ADD OR DUP6 SSTORE PUSH2 0x1879 JUMP JUMPDEST DUP3 DUP1 ADD PUSH1 0x1 ADD DUP6 SSTORE DUP3 ISZERO PUSH2 0x1879 JUMPI SWAP2 DUP3 ADD JUMPDEST DUP3 DUP2 GT ISZERO PUSH2 0x1878 JUMPI DUP3 MLOAD DUP3 SSTORE SWAP2 PUSH1 0x20 ADD SWAP2 SWAP1 PUSH1 0x1 ADD SWAP1 PUSH2 0x185D JUMP JUMPDEST JUMPDEST POP SWAP1 POP PUSH2 0x1886 SWAP2 SWAP1 PUSH2 0x1957 JUMP JUMPDEST POP SWAP1 JUMP JUMPDEST DUP3 DUP1 SLOAD PUSH2 0x1896 SWAP1 PUSH2 0x2700 JUMP JUMPDEST SWAP1 PUSH1 0x0 MSTORE PUSH1 0x20 PUSH1 0x0 KECCAK256 SWAP1 PUSH1 0x1F ADD PUSH1 0x20 SWAP1 DIV DUP2 ADD SWAP3 DUP3 PUSH2 0x18B8 JUMPI PUSH1 0x0 DUP6 SSTORE PUSH2 0x1906 JUMP JUMPDEST DUP3 PUSH1 0x1F LT PUSH2 0x18C9 JUMPI DUP1 SLOAD DUP6 SSTORE PUSH2 0x1906 JUMP JUMPDEST DUP3 DUP1 ADD PUSH1 0x1 ADD DUP6 SSTORE DUP3 ISZERO PUSH2 0x1906 JUMPI PUSH1 0x0 MSTORE PUSH1 0x20 PUSH1 0x0 KECCAK256 SWAP2 PUSH1 0x1F ADD PUSH1 0x20 SWAP1 DIV DUP3 ADD JUMPDEST DUP3 DUP2 GT ISZERO PUSH2 0x1905 JUMPI DUP3 SLOAD DUP3 SSTORE SWAP2 PUSH1 0x1 ADD SWAP2 SWAP1 PUSH1 0x1 ADD SWAP1 PUSH2 0x18EA JUMP JUMPDEST JUMPDEST POP SWAP1 POP PUSH2 0x1913 SWAP2 SWAP1 PUSH2 0x1957 JUMP JUMPDEST POP SWAP1 JUMP JUMPDEST POP DUP1 SLOAD PUSH2 0x1923 SWAP1 PUSH2 0x2700 JUMP JUMPDEST PUSH1 0x0 DUP3 SSTORE DUP1 PUSH1 0x1F LT PUSH2 0x1935 JUMPI POP PUSH2 0x1954 JUMP JUMPDEST PUSH1 0x1F ADD PUSH1 0x20 SWAP1 DIV SWAP1 PUSH1 0x0 MSTORE PUSH1 0x20 PUSH1 0x0 KECCAK256 SWAP1 DUP2 ADD SWAP1 PUSH2 0x1953 SWAP2 SWAP1 PUSH2 0x1957 JUMP JUMPDEST JUMPDEST POP JUMP JUMPDEST JUMPDEST DUP1 DUP3 GT ISZERO PUSH2 0x1970 JUMPI PUSH1 0x0 DUP2 PUSH1 0x0 SWAP1 SSTORE POP PUSH1 0x1 ADD PUSH2 0x1958 JUMP JUMPDEST POP SWAP1 JUMP JUMPDEST PUSH1 0x0 PUSH1 0x40 MLOAD SWAP1 POP SWAP1 JUMP JUMPDEST PUSH1 0x0 DUP1 REVERT JUMPDEST PUSH1 0x0 DUP1 REVERT JUMPDEST PUSH1 0x0 PUSH20 0xFFFFFFFFFFFFFFFFFFFFFFFFFFFFFFFFFFFFFFFF DUP3 AND SWAP1 POP SWAP2 SWAP1 POP JUMP JUMPDEST PUSH1 0x0 PUSH2 0x19B3 DUP3 PUSH2 0x1988 JUMP JUMPDEST SWAP1 POP SWAP2 SWAP1 POP JUMP JUMPDEST PUSH2 0x19C3 DUP2 PUSH2 0x19A8 JUMP JUMPDEST DUP2 EQ PUSH2 0x19CE JUMPI PUSH1 0x0 DUP1 REVERT JUMPDEST POP JUMP JUMPDEST PUSH1 0x0 DUP2 CALLDATALOAD SWAP1 POP PUSH2 0x19E0 DUP2 PUSH2 0x19BA JUMP JUMPDEST SWAP3 SWAP2 POP POP JUMP JUMPDEST PUSH1 0x0 DUP2 SWAP1 POP SWAP2 SWAP1 POP JUMP JUMPDEST PUSH2 0x19F9 DUP2 PUSH2 0x19E6 JUMP JUMPDEST DUP2 EQ PUSH2 0x1A04 JUMPI PUSH1 0x0 DUP1 REVERT JUMPDEST POP JUMP JUMPDEST PUSH1 0x0 DUP2 CALLDATALOAD SWAP1 POP PUSH2 0x1A16 DUP2 PUSH2 0x19F0 JUMP JUMPDEST SWAP3 SWAP2 POP POP JUMP JUMPDEST PUSH1 0x0 DUP1 REVERT JUMPDEST PUSH1 0x0 DUP1 REVERT JUMPDEST PUSH1 0x0 PUSH1 0x1F NOT PUSH1 0x1F DUP4 ADD AND SWAP1 POP SWAP2 SWAP1 POP JUMP JUMPDEST PUSH32 0x4E487B7100000000000000000000000000000000000000000000000000000000 PUSH1 0x0 MSTORE PUSH1 0x41 PUSH1 0x4 MSTORE PUSH1 0x24 PUSH1 0x0 REVERT JUMPDEST PUSH2 0x1A6F DUP3 PUSH2 0x1A26 JUMP JUMPDEST DUP2 ADD DUP2 DUP2 LT PUSH8 0xFFFFFFFFFFFFFFFF DUP3 GT OR ISZERO PUSH2 0x1A8E JUMPI PUSH2 0x1A8D PUSH2 0x1A37 JUMP JUMPDEST JUMPDEST DUP1 PUSH1 0x40 MSTORE POP POP POP JUMP JUMPDEST PUSH1 0x0 PUSH2 0x1AA1 PUSH2 0x1974 JUMP JUMPDEST SWAP1 POP PUSH2 0x1AAD DUP3 DUP3 PUSH2 0x1A66 JUMP JUMPDEST SWAP2 SWAP1 POP JUMP JUMPDEST PUSH1 0x0 PUSH8 0xFFFFFFFFFFFFFFFF DUP3 GT ISZERO PUSH2 0x1ACD JUMPI PUSH2 0x1ACC PUSH2 0x1A37 JUMP JUMPDEST JUMPDEST PUSH2 0x1AD6 DUP3 PUSH2 0x1A26 JUMP JUMPDEST SWAP1 POP PUSH1 0x20 DUP2 ADD SWAP1 POP SWAP2 SWAP1 POP JUMP JUMPDEST DUP3 DUP2 DUP4 CALLDATACOPY PUSH1 0x0 DUP4 DUP4 ADD MSTORE POP POP POP JUMP JUMPDEST PUSH1 0x0 PUSH2 0x1B05 PUSH2 0x1B00 DUP5 PUSH2 0x1AB2 JUMP JUMPDEST PUSH2 0x1A97 JUMP JUMPDEST SWAP1 POP DUP3 DUP2 MSTORE PUSH1 0x20 DUP2 ADD DUP5 DUP5 DUP5 ADD GT ISZERO PUSH2 0x1B21 JUMPI PUSH2 0x1B20 PUSH2 0x1A21 JUMP JUMPDEST JUMPDEST PUSH2 0x1B2C DUP5 DUP3 DUP6 PUSH2 0x1AE3 JUMP JUMPDEST POP SWAP4 SWAP3 POP POP POP JUMP JUMPDEST PUSH1 0x0 DUP3 PUSH1 0x1F DUP4 ADD SLT PUSH2 0x1B49 JUMPI PUSH2 0x1B48 PUSH2 0x1A1C JUMP JUMPDEST JUMPDEST DUP2 CALLDATALOAD PUSH2 0x1B59 DUP5 DUP3 PUSH1 0x20 DUP7 ADD PUSH2 0x1AF2 JUMP JUMPDEST SWAP2 POP POP SWAP3 SWAP2 POP POP JUMP JUMPDEST PUSH1 0x0 PUSH8 0xFFFFFFFFFFFFFFFF DUP3 GT ISZERO PUSH2 0x1B7D JUMPI PUSH2 0x1B7C PUSH2 0x1A37 JUMP JUMPDEST JUMPDEST PUSH1 0x20 DUP3 MUL SWAP1 POP PUSH1 0x20 DUP2 ADD SWAP1 POP SWAP2 SWAP1 POP JUMP JUMPDEST PUSH1 0x0 DUP1 REVERT JUMPDEST PUSH1 0x0 PUSH2 0x1BA6 PUSH2 0x1BA1 DUP5 PUSH2 0x1B62 JUMP JUMPDEST PUSH2 0x1A97 JUMP JUMPDEST SWAP1 POP DUP1 DUP4 DUP3 MSTORE PUSH1 0x20 DUP3 ADD SWAP1 POP PUSH1 0x20 DUP5 MUL DUP4 ADD DUP6 DUP2 GT ISZERO PUSH2 0x1BC9 JUMPI PUSH2 0x1BC8 PUSH2 0x1B8E JUMP JUMPDEST JUMPDEST DUP4 JUMPDEST DUP2 DUP2 LT ISZERO PUSH2 0x1BF2 JUMPI DUP1 PUSH2 0x1BDE DUP9 DUP3 PUSH2 0x19D1 JUMP JUMPDEST DUP5 MSTORE PUSH1 0x20 DUP5 ADD SWAP4 POP POP PUSH1 0x20 DUP2 ADD SWAP1 POP PUSH2 0x1BCB JUMP JUMPDEST POP POP POP SWAP4 SWAP3 POP POP POP JUMP JUMPDEST PUSH1 0x0 DUP3 PUSH1 0x1F DUP4 ADD SLT PUSH2 0x1C11 JUMPI PUSH2 0x1C10 PUSH2 0x1A1C JUMP JUMPDEST JUMPDEST DUP2 CALLDATALOAD PUSH2 0x1C21 DUP5 DUP3 PUSH1 0x20 DUP7 ADD PUSH2 0x1B93 JUMP JUMPDEST SWAP2 POP POP SWAP3 SWAP2 POP POP JUMP JUMPDEST PUSH1 0x0 DUP1 PUSH1 0x0 DUP1 PUSH1 0x80 DUP6 DUP8 SUB SLT ISZERO PUSH2 0x1C44 JUMPI PUSH2 0x1C43 PUSH2 0x197E JUMP JUMPDEST JUMPDEST PUSH1 0x0 PUSH2 0x1C52 DUP8 DUP3 DUP9 ADD PUSH2 0x19D1 JUMP JUMPDEST SWAP5 POP POP PUSH1 0x20 PUSH2 0x1C63 DUP8 DUP3 DUP9 ADD PUSH2 0x1A07 JUMP JUMPDEST SWAP4 POP POP PUSH1 0x40 DUP6 ADD CALLDATALOAD PUSH8 0xFFFFFFFFFFFFFFFF DUP2 GT ISZERO PUSH2 0x1C84 JUMPI PUSH2 0x1C83 PUSH2 0x1983 JUMP JUMPDEST JUMPDEST PUSH2 0x1C90 DUP8 DUP3 DUP9 ADD PUSH2 0x1B34 JUMP JUMPDEST SWAP3 POP POP PUSH1 0x60 DUP6 ADD CALLDATALOAD PUSH8 0xFFFFFFFFFFFFFFFF DUP2 GT ISZERO PUSH2 0x1CB1 JUMPI PUSH2 0x1CB0 PUSH2 0x1983 JUMP JUMPDEST JUMPDEST PUSH2 0x1CBD DUP8 DUP3 DUP9 ADD PUSH2 0x1BFC JUMP JUMPDEST SWAP2 POP POP SWAP3 SWAP6 SWAP2 SWAP5 POP SWAP3 POP JUMP JUMPDEST PUSH1 0x0 DUP1 PUSH1 0x0 PUSH1 0x60 DUP5 DUP7 SUB SLT ISZERO PUSH2 0x1CE2 JUMPI PUSH2 0x1CE1 PUSH2 0x197E JUMP JUMPDEST JUMPDEST PUSH1 0x0 PUSH2 0x1CF0 DUP7 DUP3 DUP8 ADD PUSH2 0x1A07 JUMP JUMPDEST SWAP4 POP POP PUSH1 0x20 PUSH2 0x1D01 DUP7 DUP3 DUP8 ADD PUSH2 0x1A07 JUMP JUMPDEST SWAP3 POP POP PUSH1 0x40 DUP5 ADD CALLDATALOAD PUSH8 0xFFFFFFFFFFFFFFFF DUP2 GT ISZERO PUSH2 0x1D22 JUMPI PUSH2 0x1D21 PUSH2 0x1983 JUMP JUMPDEST JUMPDEST PUSH2 0x1D2E DUP7 DUP3 DUP8 ADD PUSH2 0x1BFC JUMP JUMPDEST SWAP2 POP POP SWAP3 POP SWAP3 POP SWAP3 JUMP JUMPDEST PUSH1 0x0 DUP1 PUSH1 0x40 DUP4 DUP6 SUB SLT ISZERO PUSH2 0x1D4F JUMPI PUSH2 0x1D4E PUSH2 0x197E JUMP JUMPDEST JUMPDEST PUSH1 0x0 PUSH2 0x1D5D DUP6 DUP3 DUP7 ADD PUSH2 0x1A07 JUMP JUMPDEST SWAP3 POP POP PUSH1 0x20 DUP4 ADD CALLDATALOAD PUSH8 0xFFFFFFFFFFFFFFFF DUP2 GT ISZERO PUSH2 0x1D7E JUMPI PUSH2 0x1D7D PUSH2 0x1983 JUMP JUMPDEST JUMPDEST PUSH2 0x1D8A DUP6 DUP3 DUP7 ADD PUSH2 0x1BFC JUMP JUMPDEST SWAP2 POP POP SWAP3 POP SWAP3 SWAP1 POP JUMP JUMPDEST PUSH1 0x0 DUP2 MLOAD SWAP1 POP SWAP2 SWAP1 POP JUMP JUMPDEST PUSH1 0x0 DUP3 DUP3 MSTORE PUSH1 0x20 DUP3 ADD SWAP1 POP SWAP3 SWAP2 POP POP JUMP JUMPDEST PUSH1 0x0 DUP2 SWAP1 POP PUSH1 0x20 DUP3 ADD SWAP1 POP SWAP2 SWAP1 POP JUMP JUMPDEST PUSH2 0x1DC9 DUP2 PUSH2 0x19E6 JUMP JUMPDEST DUP3 MSTORE POP POP JUMP JUMPDEST PUSH1 0x0 PUSH2 0x1DDB DUP4 DUP4 PUSH2 0x1DC0 JUMP JUMPDEST PUSH1 0x20 DUP4 ADD SWAP1 POP SWAP3 SWAP2 POP POP JUMP JUMPDEST PUSH1 0x0 PUSH1 0x20 DUP3 ADD SWAP1 POP SWAP2 SWAP1 POP JUMP JUMPDEST PUSH1 0x0 PUSH2 0x1DFF DUP3 PUSH2 0x1D94 JUMP JUMPDEST PUSH2 0x1E09 DUP2 DUP6 PUSH2 0x1D9F JUMP JUMPDEST SWAP4 POP PUSH2 0x1E14 DUP4 PUSH2 0x1DB0 JUMP JUMPDEST DUP1 PUSH1 0x0 JUMPDEST DUP4 DUP2 LT ISZERO PUSH2 0x1E45 JUMPI DUP2 MLOAD PUSH2 0x1E2C DUP9 DUP3 PUSH2 0x1DCF JUMP JUMPDEST SWAP8 POP PUSH2 0x1E37 DUP4 PUSH2 0x1DE7 JUMP JUMPDEST SWAP3 POP POP PUSH1 0x1 DUP2 ADD SWAP1 POP PUSH2 0x1E18 JUMP JUMPDEST POP DUP6 SWAP4 POP POP POP POP SWAP3 SWAP2 POP POP JUMP JUMPDEST PUSH1 0x0 DUP2 MLOAD SWAP1 POP SWAP2 SWAP1 POP JUMP JUMPDEST PUSH1 0x0 DUP3 DUP3 MSTORE PUSH1 0x20 DUP3 ADD SWAP1 POP SWAP3 SWAP2 POP POP JUMP JUMPDEST PUSH1 0x0 DUP2 SWAP1 POP PUSH1 0x20 DUP3 ADD SWAP1 POP SWAP2 SWAP1 POP JUMP JUMPDEST PUSH1 0x0 DUP2 MLOAD SWAP1 POP SWAP2 SWAP1 POP JUMP JUMPDEST PUSH1 0x0 DUP3 DUP3 MSTORE PUSH1 0x20 DUP3 ADD SWAP1 POP SWAP3 SWAP2 POP POP JUMP JUMPDEST PUSH1 0x0 JUMPDEST DUP4 DUP2 LT ISZERO PUSH2 0x1EB8 JUMPI DUP1 DUP3 ADD MLOAD DUP2 DUP5 ADD MSTORE PUSH1 0x20 DUP2 ADD SWAP1 POP PUSH2 0x1E9D JUMP JUMPDEST DUP4 DUP2 GT ISZERO PUSH2 0x1EC7 JUMPI PUSH1 0x0 DUP5 DUP5 ADD MSTORE JUMPDEST POP POP POP POP JUMP JUMPDEST PUSH1 0x0 PUSH2 0x1ED8 DUP3 PUSH2 0x1E7E JUMP JUMPDEST PUSH2 0x1EE2 DUP2 DUP6 PUSH2 0x1E89 JUMP JUMPDEST SWAP4 POP PUSH2 0x1EF2 DUP2 DUP6 PUSH1 0x20 DUP7 ADD PUSH2 0x1E9A JUMP JUMPDEST PUSH2 0x1EFB DUP2 PUSH2 0x1A26 JUMP JUMPDEST DUP5 ADD SWAP2 POP POP SWAP3 SWAP2 POP POP JUMP JUMPDEST PUSH1 0x0 PUSH2 0x1F12 DUP4 DUP4 PUSH2 0x1ECD JUMP JUMPDEST SWAP1 POP SWAP3 SWAP2 POP POP JUMP JUMPDEST PUSH1 0x0 PUSH1 0x20 DUP3 ADD SWAP1 POP SWAP2 SWAP1 POP JUMP JUMPDEST PUSH1 0x0 PUSH2 0x1F32 DUP3 PUSH2 0x1E52 JUMP JUMPDEST PUSH2 0x1F3C DUP2 DUP6 PUSH2 0x1E5D JUMP JUMPDEST SWAP4 POP DUP4 PUSH1 0x20 DUP3 MUL DUP6 ADD PUSH2 0x1F4E DUP6 PUSH2 0x1E6E JUMP JUMPDEST DUP1 PUSH1 0x0 JUMPDEST DUP6 DUP2 LT ISZERO PUSH2 0x1F8A JUMPI DUP5 DUP5 SUB DUP10 MSTORE DUP2 MLOAD PUSH2 0x1F6B DUP6 DUP3 PUSH2 0x1F06 JUMP JUMPDEST SWAP5 POP PUSH2 0x1F76 DUP4 PUSH2 0x1F1A JUMP JUMPDEST SWAP3 POP PUSH1 0x20 DUP11 ADD SWAP10 POP POP PUSH1 0x1 DUP2 ADD SWAP1 POP PUSH2 0x1F52 JUMP JUMPDEST POP DUP3 SWAP8 POP DUP8 SWAP6 POP POP POP POP POP POP SWAP3 SWAP2 POP POP JUMP JUMPDEST PUSH1 0x0 DUP2 MLOAD SWAP1 POP SWAP2 SWAP1 POP JUMP JUMPDEST PUSH1 0x0 DUP3 DUP3 MSTORE PUSH1 0x20 DUP3 ADD SWAP1 POP SWAP3 SWAP2 POP POP JUMP JUMPDEST PUSH1 0x0 DUP2 SWAP1 POP PUSH1 0x20 DUP3 ADD SWAP1 POP SWAP2 SWAP1 POP JUMP JUMPDEST PUSH2 0x1FD1 DUP2 PUSH2 0x19A8 JUMP JUMPDEST DUP3 MSTORE POP POP JUMP JUMPDEST PUSH1 0x0 PUSH2 0x1FE3 DUP4 DUP4 PUSH2 0x1FC8 JUMP JUMPDEST PUSH1 0x20 DUP4 ADD SWAP1 POP SWAP3 SWAP2 POP POP JUMP JUMPDEST PUSH1 0x0 PUSH1 0x20 DUP3 ADD SWAP1 POP SWAP2 SWAP1 POP JUMP JUMPDEST PUSH1 0x0 PUSH2 0x2007 DUP3 PUSH2 0x1F9C JUMP JUMPDEST PUSH2 0x2011 DUP2 DUP6 PUSH2 0x1FA7 JUMP JUMPDEST SWAP4 POP PUSH2 0x201C DUP4 PUSH2 0x1FB8 JUMP JUMPDEST DUP1 PUSH1 0x0 JUMPDEST DUP4 DUP2 LT ISZERO PUSH2 0x204D JUMPI DUP2 MLOAD PUSH2 0x2034 DUP9 DUP3 PUSH2 0x1FD7 JUMP JUMPDEST SWAP8 POP PUSH2 0x203F DUP4 PUSH2 0x1FEF JUMP JUMPDEST SWAP3 POP POP PUSH1 0x1 DUP2 ADD SWAP1 POP PUSH2 0x2020 JUMP JUMPDEST POP DUP6 SWAP4 POP POP POP POP SWAP3 SWAP2 POP POP JUMP JUMPDEST PUSH1 0x0 PUSH1 0xE0 DUP3 ADD SWAP1 POP DUP2 DUP2 SUB PUSH1 0x0 DUP4 ADD MSTORE PUSH2 0x2074 DUP2 DUP11 PUSH2 0x1DF4 JUMP JUMPDEST SWAP1 POP DUP2 DUP2 SUB PUSH1 0x20 DUP4 ADD MSTORE PUSH2 0x2088 DUP2 DUP10 PUSH2 0x1DF4 JUMP JUMPDEST SWAP1 POP DUP2 DUP2 SUB PUSH1 0x40 DUP4 ADD MSTORE PUSH2 0x209C DUP2 DUP9 PUSH2 0x1F27 JUMP JUMPDEST SWAP1 POP DUP2 DUP2 SUB PUSH1 0x60 DUP4 ADD MSTORE PUSH2 0x20B0 DUP2 DUP8 PUSH2 0x1F27 JUMP JUMPDEST SWAP1 POP DUP2 DUP2 SUB PUSH1 0x80 DUP4 ADD MSTORE PUSH2 0x20C4 DUP2 DUP7 PUSH2 0x1F27 JUMP JUMPDEST SWAP1 POP DUP2 DUP2 SUB PUSH1 0xA0 DUP4 ADD MSTORE PUSH2 0x20D8 DUP2 DUP6 PUSH2 0x1FFC JUMP JUMPDEST SWAP1 POP DUP2 DUP2 SUB PUSH1 0xC0 DUP4 ADD MSTORE PUSH2 0x20EC DUP2 DUP5 PUSH2 0x1DF4 JUMP JUMPDEST SWAP1 POP SWAP9 SWAP8 POP POP POP POP POP POP POP POP JUMP JUMPDEST PUSH1 0x0 DUP1 PUSH1 0x0 PUSH1 0x60 DUP5 DUP7 SUB SLT ISZERO PUSH2 0x2113 JUMPI PUSH2 0x2112 PUSH2 0x197E JUMP JUMPDEST JUMPDEST PUSH1 0x0 PUSH2 0x2121 DUP7 DUP3 DUP8 ADD PUSH2 0x1A07 JUMP JUMPDEST SWAP4 POP POP PUSH1 0x20 PUSH2 0x2132 DUP7 DUP3 DUP8 ADD PUSH2 0x19D1 JUMP JUMPDEST SWAP3 POP POP PUSH1 0x40 DUP5 ADD CALLDATALOAD PUSH8 0xFFFFFFFFFFFFFFFF DUP2 GT ISZERO PUSH2 0x2153 JUMPI PUSH2 0x2152 PUSH2 0x1983 JUMP JUMPDEST JUMPDEST PUSH2 0x215F DUP7 DUP3 DUP8 ADD PUSH2 0x1BFC JUMP JUMPDEST SWAP2 POP POP SWAP3 POP SWAP3 POP SWAP3 JUMP JUMPDEST PUSH1 0x0 DUP1 PUSH1 0x0 DUP1 PUSH1 0x80 DUP6 DUP8 SUB SLT ISZERO PUSH2 0x2183 JUMPI PUSH2 0x2182 PUSH2 0x197E JUMP JUMPDEST JUMPDEST PUSH1 0x0 PUSH2 0x2191 DUP8 DUP3 DUP9 ADD PUSH2 0x19D1 JUMP JUMPDEST SWAP5 POP POP PUSH1 0x20 DUP6 ADD CALLDATALOAD PUSH8 0xFFFFFFFFFFFFFFFF DUP2 GT ISZERO PUSH2 0x21B2 JUMPI PUSH2 0x21B1 PUSH2 0x1983 JUMP JUMPDEST JUMPDEST PUSH2 0x21BE DUP8 DUP3 DUP9 ADD PUSH2 0x1B34 JUMP JUMPDEST SWAP4 POP POP PUSH1 0x40 PUSH2 0x21CF DUP8 DUP3 DUP9 ADD PUSH2 0x1A07 JUMP JUMPDEST SWAP3 POP POP PUSH1 0x60 DUP6 ADD CALLDATALOAD PUSH8 0xFFFFFFFFFFFFFFFF DUP2 GT ISZERO PUSH2 0x21F0 JUMPI PUSH2 0x21EF PUSH2 0x1983 JUMP JUMPDEST JUMPDEST PUSH2 0x21FC DUP8 DUP3 DUP9 ADD PUSH2 0x1BFC JUMP JUMPDEST SWAP2 POP POP SWAP3 SWAP6 SWAP2 SWAP5 POP SWAP3 POP JUMP JUMPDEST PUSH2 0x2211 DUP2 PUSH2 0x19A8 JUMP JUMPDEST DUP3 MSTORE POP POP JUMP JUMPDEST PUSH1 0x0 PUSH1 0x20 DUP3 ADD SWAP1 POP PUSH2 0x222C PUSH1 0x0 DUP4 ADD DUP5 PUSH2 0x2208 JUMP JUMPDEST SWAP3 SWAP2 POP POP JUMP JUMPDEST PUSH1 0x0 DUP1 PUSH1 0x0 DUP1 PUSH1 0x0 DUP1 PUSH1 0x0 DUP1 PUSH2 0x100 DUP10 DUP12 SUB SLT ISZERO PUSH2 0x2253 JUMPI PUSH2 0x2252 PUSH2 0x197E JUMP JUMPDEST JUMPDEST PUSH1 0x0 PUSH2 0x2261 DUP12 DUP3 DUP13 ADD PUSH2 0x1A07 JUMP JUMPDEST SWAP9 POP POP PUSH1 0x20 PUSH2 0x2272 DUP12 DUP3 DUP13 ADD PUSH2 0x1A07 JUMP JUMPDEST SWAP8 POP POP PUSH1 0x40 PUSH2 0x2283 DUP12 DUP3 DUP13 ADD PUSH2 0x1A07 JUMP JUMPDEST SWAP7 POP POP PUSH1 0x60 PUSH2 0x2294 DUP12 DUP3 DUP13 ADD PUSH2 0x1A07 JUMP JUMPDEST SWAP6 POP POP PUSH1 0x80 DUP10 ADD CALLDATALOAD PUSH8 0xFFFFFFFFFFFFFFFF DUP2 GT ISZERO PUSH2 0x22B5 JUMPI PUSH2 0x22B4 PUSH2 0x1983 JUMP JUMPDEST JUMPDEST PUSH2 0x22C1 DUP12 DUP3 DUP13 ADD PUSH2 0x1B34 JUMP JUMPDEST SWAP5 POP POP PUSH1 0xA0 DUP10 ADD CALLDATALOAD PUSH8 0xFFFFFFFFFFFFFFFF DUP2 GT ISZERO PUSH2 0x22E2 JUMPI PUSH2 0x22E1 PUSH2 0x1983 JUMP JUMPDEST JUMPDEST PUSH2 0x22EE DUP12 DUP3 DUP13 ADD PUSH2 0x1B34 JUMP JUMPDEST SWAP4 POP POP PUSH1 0xC0 DUP10 ADD CALLDATALOAD PUSH8 0xFFFFFFFFFFFFFFFF DUP2 GT ISZERO PUSH2 0x230F JUMPI PUSH2 0x230E PUSH2 0x1983 JUMP JUMPDEST JUMPDEST PUSH2 0x231B DUP12 DUP3 DUP13 ADD PUSH2 0x1B34 JUMP JUMPDEST SWAP3 POP POP PUSH1 0xE0 DUP10 ADD CALLDATALOAD PUSH8 0xFFFFFFFFFFFFFFFF DUP2 GT ISZERO PUSH2 0x233C JUMPI PUSH2 0x233B PUSH2 0x1983 JUMP JUMPDEST JUMPDEST PUSH2 0x2348 DUP12 DUP3 DUP13 ADD PUSH2 0x1BFC JUMP JUMPDEST SWAP2 POP POP SWAP3 SWAP6 SWAP9 POP SWAP3 SWAP6 SWAP9 SWAP1 SWAP4 SWAP7 POP JUMP JUMPDEST PUSH1 0x0 PUSH1 0x20 DUP3 DUP5 SUB SLT ISZERO PUSH2 0x236E JUMPI PUSH2 0x236D PUSH2 0x197E JUMP JUMPDEST JUMPDEST PUSH1 0x0 DUP3 ADD CALLDATALOAD PUSH8 0xFFFFFFFFFFFFFFFF DUP2 GT ISZERO PUSH2 0x238C JUMPI PUSH2 0x238B PUSH2 0x1983 JUMP JUMPDEST JUMPDEST PUSH2 0x2398 DUP5 DUP3 DUP6 ADD PUSH2 0x1BFC JUMP JUMPDEST SWAP2 POP POP SWAP3 SWAP2 POP POP JUMP JUMPDEST PUSH1 0x0 PUSH1 0x60 DUP3 ADD SWAP1 POP DUP2 DUP2 SUB PUSH1 0x0 DUP4 ADD MSTORE PUSH2 0x23BB DUP2 DUP7 PUSH2 0x1FFC JUMP JUMPDEST SWAP1 POP DUP2 DUP2 SUB PUSH1 0x20 DUP4 ADD MSTORE PUSH2 0x23CF DUP2 DUP6 PUSH2 0x1F27 JUMP JUMPDEST SWAP1 POP DUP2 DUP2 SUB PUSH1 0x40 DUP4 ADD MSTORE PUSH2 0x23E3 DUP2 DUP5 PUSH2 0x1DF4 JUMP JUMPDEST SWAP1 POP SWAP5 SWAP4 POP POP POP POP JUMP JUMPDEST PUSH1 0x0 DUP3 DUP3 MSTORE PUSH1 0x20 DUP3 ADD SWAP1 POP SWAP3 SWAP2 POP POP JUMP JUMPDEST PUSH1 0x0 PUSH2 0x2409 DUP3 PUSH2 0x1E7E JUMP JUMPDEST PUSH2 0x2413 DUP2 DUP6 PUSH2 0x23ED JUMP JUMPDEST SWAP4 POP PUSH2 0x2423 DUP2 DUP6 PUSH1 0x20 DUP7 ADD PUSH2 0x1E9A JUMP JUMPDEST PUSH2 0x242C DUP2 PUSH2 0x1A26 JUMP JUMPDEST DUP5 ADD SWAP2 POP POP SWAP3 SWAP2 POP POP JUMP JUMPDEST PUSH1 0x0 PUSH1 0x20 DUP3 ADD SWAP1 POP DUP2 DUP2 SUB PUSH1 0x0 DUP4 ADD MSTORE PUSH2 0x2451 DUP2 DUP5 PUSH2 0x23FE JUMP JUMPDEST SWAP1 POP SWAP3 SWAP2 POP POP JUMP JUMPDEST PUSH1 0x0 DUP1 PUSH1 0x0 DUP1 PUSH1 0x0 DUP1 PUSH1 0x0 PUSH1 0xE0 DUP9 DUP11 SUB SLT ISZERO PUSH2 0x2478 JUMPI PUSH2 0x2477 PUSH2 0x197E JUMP JUMPDEST JUMPDEST PUSH1 0x0 PUSH2 0x2486 DUP11 DUP3 DUP12 ADD PUSH2 0x1A07 JUMP JUMPDEST SWAP8 POP POP PUSH1 0x20 PUSH2 0x2497 DUP11 DUP3 DUP12 ADD PUSH2 0x1A07 JUMP JUMPDEST SWAP7 POP POP PUSH1 0x40 PUSH2 0x24A8 DUP11 DUP3 DUP12 ADD PUSH2 0x1A07 JUMP JUMPDEST SWAP6 POP POP PUSH1 0x60 DUP9 ADD CALLDATALOAD PUSH8 0xFFFFFFFFFFFFFFFF DUP2 GT ISZERO PUSH2 0x24C9 JUMPI PUSH2 0x24C8 PUSH2 0x1983 JUMP JUMPDEST JUMPDEST PUSH2 0x24D5 DUP11 DUP3 DUP12 ADD PUSH2 0x1B34 JUMP JUMPDEST SWAP5 POP POP PUSH1 0x80 DUP9 ADD CALLDATALOAD PUSH8 0xFFFFFFFFFFFFFFFF DUP2 GT ISZERO PUSH2 0x24F6 JUMPI PUSH2 0x24F5 PUSH2 0x1983 JUMP JUMPDEST JUMPDEST PUSH2 0x2502 DUP11 DUP3 DUP12 ADD PUSH2 0x1B34 JUMP JUMPDEST SWAP4 POP POP PUSH1 0xA0 DUP9 ADD CALLDATALOAD PUSH8 0xFFFFFFFFFFFFFFFF DUP2 GT ISZERO PUSH2 0x2523 JUMPI PUSH2 0x2522 PUSH2 0x1983 JUMP JUMPDEST JUMPDEST PUSH2 0x252F DUP11 DUP3 DUP12 ADD PUSH2 0x1B34 JUMP JUMPDEST SWAP3 POP POP PUSH1 0xC0 DUP9 ADD CALLDATALOAD PUSH8 0xFFFFFFFFFFFFFFFF DUP2 GT ISZERO PUSH2 0x2550 JUMPI PUSH2 0x254F PUSH2 0x1983 JUMP JUMPDEST JUMPDEST PUSH2 0x255C DUP11 DUP3 DUP12 ADD PUSH2 0x1BFC JUMP JUMPDEST SWAP2 POP POP SWAP3 SWAP6 SWAP9 SWAP2 SWAP5 SWAP8 POP SWAP3 SWAP6 POP JUMP JUMPDEST PUSH1 0x0 PUSH1 0x20 DUP3 DUP5 SUB SLT ISZERO PUSH2 0x2581 JUMPI PUSH2 0x2580 PUSH2 0x197E JUMP JUMPDEST JUMPDEST PUSH1 0x0 PUSH2 0x258F DUP5 DUP3 DUP6 ADD PUSH2 0x19D1 JUMP JUMPDEST SWAP2 POP POP SWAP3 SWAP2 POP POP JUMP JUMPDEST PUSH1 0x0 DUP1 PUSH1 0x40 DUP4 DUP6 SUB SLT ISZERO PUSH2 0x25AF JUMPI PUSH2 0x25AE PUSH2 0x197E JUMP JUMPDEST JUMPDEST PUSH1 0x0 DUP4 ADD CALLDATALOAD PUSH8 0xFFFFFFFFFFFFFFFF DUP2 GT ISZERO PUSH2 0x25CD JUMPI PUSH2 0x25CC PUSH2 0x1983 JUMP JUMPDEST JUMPDEST PUSH2 0x25D9 DUP6 DUP3 DUP7 ADD PUSH2 0x1B34 JUMP JUMPDEST SWAP3 POP POP PUSH1 0x20 DUP4 ADD CALLDATALOAD PUSH8 0xFFFFFFFFFFFFFFFF DUP2 GT ISZERO PUSH2 0x25FA JUMPI PUSH2 0x25F9 PUSH2 0x1983 JUMP JUMPDEST JUMPDEST PUSH2 0x2606 DUP6 DUP3 DUP7 ADD PUSH2 0x1BFC JUMP JUMPDEST SWAP2 POP POP SWAP3 POP SWAP3 SWAP1 POP JUMP JUMPDEST PUSH32 0x4E487B7100000000000000000000000000000000000000000000000000000000 PUSH1 0x0 MSTORE PUSH1 0x21 PUSH1 0x4 MSTORE PUSH1 0x24 PUSH1 0x0 REVERT JUMPDEST PUSH32 0x4E487B7100000000000000000000000000000000000000000000000000000000 PUSH1 0x0 MSTORE PUSH1 0x11 PUSH1 0x4 MSTORE PUSH1 0x24 PUSH1 0x0 REVERT JUMPDEST PUSH1 0x0 PUSH2 0x2679 DUP3 PUSH2 0x19E6 JUMP JUMPDEST SWAP2 POP PUSH2 0x2684 DUP4 PUSH2 0x19E6 JUMP JUMPDEST SWAP3 POP DUP3 DUP3 LT ISZERO PUSH2 0x2697 JUMPI PUSH2 0x2696 PUSH2 0x263F JUMP JUMPDEST JUMPDEST DUP3 DUP3 SUB SWAP1 POP SWAP3 SWAP2 POP POP JUMP JUMPDEST PUSH32 0x4E487B7100000000000000000000000000000000000000000000000000000000 PUSH1 0x0 MSTORE PUSH1 0x32 PUSH1 0x4 MSTORE PUSH1 0x24 PUSH1 0x0 REVERT JUMPDEST PUSH32 0x4E487B7100000000000000000000000000000000000000000000000000000000 PUSH1 0x0 MSTORE PUSH1 0x22 PUSH1 0x4 MSTORE PUSH1 0x24 PUSH1 0x0 REVERT JUMPDEST PUSH1 0x0 PUSH1 0x2 DUP3 DIV SWAP1 POP PUSH1 0x1 DUP3 AND DUP1 PUSH2 0x2718 JUMPI PUSH1 0x7F DUP3 AND SWAP2 POP JUMPDEST PUSH1 0x20 DUP3 LT DUP2 SUB PUSH2 0x272B JUMPI PUSH2 0x272A PUSH2 0x26D1 JUMP JUMPDEST JUMPDEST POP SWAP2 SWAP1 POP JUMP JUMPDEST PUSH32 0x4E487B7100000000000000000000000000000000000000000000000000000000 PUSH1 0x0 MSTORE PUSH1 0x31 PUSH1 0x4 MSTORE PUSH1 0x24 PUSH1 0x0 REVERT JUMPDEST PUSH1 0x0 PUSH2 0x276B DUP3 PUSH2 0x19E6 JUMP JUMPDEST SWAP2 POP PUSH32 0xFFFFFFFFFFFFFFFFFFFFFFFFFFFFFFFFFFFFFFFFFFFFFFFFFFFFFFFFFFFFFFFF DUP3 SUB PUSH2 0x279D JUMPI PUSH2 0x279C PUSH2 0x263F JUMP JUMPDEST JUMPDEST PUSH1 0x1 DUP3 ADD SWAP1 POP SWAP2 SWAP1 POP JUMP INVALID LOG2 PUSH5 0x6970667358 0x22 SLT KECCAK256 NUMBER SWAP1 PUSH5 0x3BF6983949 0xFC 0xD0 BASEFEE CREATE2 0xDA 0xD7 STATICCALL SWAP3 DUP2 PUSH28 0xC3D5406D6251E42AE98D7D9E2EBB64736F6C634300080D0033000000 "},"gasEstimates":{"creation":{"codeDepositCost":"2041200","executionCost":"infinite","totalCost":"infinite"},"external":{"addCooperator(address,uint256,string,address[])":"infinite","addEvent(uint256,uint256,uint256,string,string,string,address[])":"infinite","changeManager(address)":"51357","deleteCooperator(uint256,address,address[])":"infinite","deleteEvent(uint256,uint256,address[])":"infinite","getCalendarTitle(address[])":"infinite","getCooperators(address[])":"infinite","getEvents(uint256,address[])":"infinite","manager()":"2625","updateCalendarTitle(string,address[])":"infinite","updateCooperator(address,string,uint256,address[])":"infinite","updateEvent(uint256,uint256,uint256,uint256,string,string,string,address[])":"infinite"},"internal":{"checkAccess(address[] memory,enum Calendar.Permission)":"infinite"}},"methodIdentifiers":{"addCooperator(address,uint256,string,address[])":"1480e09c","addEvent(uint256,uint256,uint256,string,string,string,address[])":"96a4bd5b","changeManager(address)":"a3fbbaae","deleteCooperator(uint256,address,address[])":"2c045b91","deleteEvent(uint256,uint256,address[])":"1603813e","getCalendarTitle(address[])":"8f88f476","getCooperators(address[])":"725c0376","getEvents(uint256,address[])":"198555ce","manager()":"481c6a75","updateCalendarTitle(string,address[])":"a880a644","updateCooperator(address,string,uint256,address[])":"458cf78a","updateEvent(uint256,uint256,uint256,uint256,string,string,string,address[])":"51e1cf27"}},"storageLayout":{"storage":[{"astId":25,"contract":"E-timetable.sol:Calendar","label":"events","offset":0,"slot":"0","type":"t_mapping(t_uint256,t_array(t_struct(Event)14_storage)dyn_storage)"},{"astId":27,"contract":"E-timetable.sol:Calendar","label":"manager","offset":0,"slot":"1","type":"t_address"},{"astId":29,"contract":"E-timetable.sol:Calendar","label":"calendarTitle","offset":0,"slot":"2","type":"t_string_storage"},{"astId":32,"contract":"E-timetable.sol:Calendar","label":"cooperators","offset":0,"slot":"3","type":"t_array(t_address)dyn_storage"},{"astId":37,"contract":"E-timetable.sol:Calendar","label":"cooperatorPermission","offset":0,"slot":"4","type":"t_mapping(t_address,t_enum(Permission)19)"},{"astId":41,"contract":"E-timetable.sol:Calendar","label":"cooperatorName","offset":0,"slot":"5","type":"t_mapping(t_address,t_string_storage)"}],"types":{"t_address":{"encoding":"inplace","label":"address","numberOfBytes":"20"},"t_array(t_address)dyn_storage":{"base":"t_address","encoding":"dynamic_array","label":"address[]","numberOfBytes":"32"},"t_array(t_struct(Event)14_storage)dyn_storage":{"base":"t_struct(Event)14_storage","encoding":"dynamic_array","label":"struct Calendar.Event[]","numberOfBytes":"32"},"t_enum(Permission)19":{"encoding":"inplace","label":"enum Calendar.Permission","numberOfBytes":"1"},"t_mapping(t_address,t_enum(Permission)19)":{"encoding":"mapping","key":"t_address","label":"mapping(address => enum Calendar.Permission)","numberOfBytes":"32","value":"t_enum(Permission)19"},"t_mapping(t_address,t_string_storage)":{"encoding":"mapping","key":"t_address","label":"mapping(address => string)","numberOfBytes":"32","value":"t_string_storage"},"t_mapping(t_uint256,t_array(t_struct(Event)14_storage)dyn_storage)":{"encoding":"mapping","key":"t_uint256","label":"mapping(uint256 => struct Calendar.Event[])","numberOfBytes":"32","value":"t_array(t_struct(Event)14_storage)dyn_storage"},"t_string_storage":{"encoding":"bytes","label":"string","numberOfBytes":"32"},"t_struct(Event)14_storage":{"encoding":"inplace","label":"struct Calendar.Event","members":[{"astId":3,"contract":"E-timetable.sol:Calendar","label":"startTimestamp","offset":0,"slot":"0","type":"t_uint256"},{"astId":5,"contract":"E-timetable.sol:Calendar","label":"endTimestamp","offset":0,"slot":"1","type":"t_uint256"},{"astId":7,"contract":"E-timetable.sol:Calendar","label":"title","offset":0,"slot":"2","type":"t_string_storage"},{"astId":9,"contract":"E-timetable.sol:Calendar","label":"color","offset":0,"slot":"3","type":"t_string_storage"},{"astId":11,"contract":"E-timetable.sol:Calendar","label":"description","offset":0,"slot":"4","type":"t_string_storage"},{"astId":13,"contract":"E-timetable.sol:Calendar","label":"createdBy","offset":0,"slot":"5","type":"t_address"}],"numberOfBytes":"192"},"t_uint256":{"encoding":"inplace","label":"uint256","numberOfBytes":"32"}}},"userdoc":{"kind":"user","methods":{},"version":1}}