{"abi":[{"inputs":[],"stateMutability":"nonpayable","type":"constructor"},{"inputs":[{"internalType":"address","name":"groupAddress","type":"address"}],"name":"addGroup","outputs":[],"stateMutability":"nonpayable","type":"function"},{"inputs":[{"internalType":"string","name":"gname","type":"string"},{"internalType":"string","name":"mname","type":"string"}],"name":"createGroup","outputs":[{"internalType":"address","name":"","type":"address"}],"stateMutability":"payable","type":"function"},{"inputs":[],"name":"getBalance","outputs":[{"internalType":"uint256","name":"","type":"uint256"}],"stateMutability":"view","type":"function"},{"inputs":[],"name":"getGroups","outputs":[{"internalType":"address[]","name":"","type":"address[]"}],"stateMutability":"view","type":"function"},{"inputs":[{"internalType":"uint256","name":"index","type":"uint256"}],"name":"leaveGroup","outputs":[],"stateMutability":"nonpayable","type":"function"},{"inputs":[],"name":"manager","outputs":[{"internalType":"address payable","name":"","type":"address"}],"stateMutability":"view","type":"function"},{"inputs":[],"name":"transferBalance","outputs":[],"stateMutability":"nonpayable","type":"function"}],"devdoc":{"kind":"dev","methods":{},"version":1},"evm":{"assembly":"    /* \"E-timetable.sol\":12660:14584  contract groupFactory{... */\n  mstore(0x40, 0x80)\n    /* \"E-timetable.sol\":12969:13030  constructor(){... */\n  callvalue\n  dup1\n  iszero\n  tag_1\n  jumpi\n  0x00\n  dup1\n  revert\ntag_1:\n  pop\n    /* \"E-timetable.sol\":13011:13021  msg.sender */\n  caller\n    /* \"E-timetable.sol\":12993:13000  manager */\n  0x01\n  0x00\n    /* \"E-timetable.sol\":12993:13022  manager = payable(msg.sender) */\n  0x0100\n  exp\n  dup2\n  sload\n  dup2\n  0xffffffffffffffffffffffffffffffffffffffff\n  mul\n  not\n  and\n  swap1\n  dup4\n  0xffffffffffffffffffffffffffffffffffffffff\n  and\n  mul\n  or\n  swap1\n  sstore\n  pop\n    /* \"E-timetable.sol\":12660:14584  contract groupFactory{... */\n  dataSize(sub_0)\n  dup1\n  dataOffset(sub_0)\n  0x00\n  codecopy\n  0x00\n  return\nstop\n\nsub_0: assembly {\n        /* \"E-timetable.sol\":12660:14584  contract groupFactory{... */\n      mstore(0x40, 0x80)\n      jumpi(tag_1, lt(calldatasize, 0x04))\n      shr(0xe0, calldataload(0x00))\n      dup1\n      0x481c6a75\n      gt\n      tag_9\n      jumpi\n      dup1\n      0x481c6a75\n      eq\n      tag_5\n      jumpi\n      dup1\n      0x66adeb8c\n      eq\n      tag_6\n      jumpi\n      dup1\n      0xc72b5176\n      eq\n      tag_7\n      jumpi\n      dup1\n      0xf9515f1b\n      eq\n      tag_8\n      jumpi\n      jump(tag_1)\n    tag_9:\n      dup1\n      0x12065fe0\n      eq\n      tag_2\n      jumpi\n      dup1\n      0x1e4a97dd\n      eq\n      tag_3\n      jumpi\n      dup1\n      0x33471df5\n      eq\n      tag_4\n      jumpi\n    tag_1:\n      0x00\n      dup1\n      revert\n        /* \"E-timetable.sol\":14148:14322  function getBalance() public view managerRestricted returns(uint){... */\n    tag_2:\n      callvalue\n      dup1\n      iszero\n      tag_10\n      jumpi\n      0x00\n      dup1\n      revert\n    tag_10:\n      pop\n      tag_11\n      tag_12\n      jump\t// in\n    tag_11:\n      mload(0x40)\n      tag_13\n      swap2\n      swap1\n      tag_14\n      jump\t// in\n    tag_13:\n      mload(0x40)\n      dup1\n      swap2\n      sub\n      swap1\n      return\n        /* \"E-timetable.sol\":13059:13518  function createGroup(string memory gname, string memory mname) public payable returns(address){... */\n    tag_3:\n      tag_15\n      0x04\n      dup1\n      calldatasize\n      sub\n      dup2\n      add\n      swap1\n      tag_16\n      swap2\n      swap1\n      tag_17\n      jump\t// in\n    tag_16:\n      tag_18\n      jump\t// in\n    tag_15:\n      mload(0x40)\n      tag_19\n      swap2\n      swap1\n      tag_20\n      jump\t// in\n    tag_19:\n      mload(0x40)\n      dup1\n      swap2\n      sub\n      swap1\n      return\n        /* \"E-timetable.sol\":13818:14093  function leaveGroup(uint index) public{... */\n    tag_4:\n      callvalue\n      dup1\n      iszero\n      tag_21\n      jumpi\n      0x00\n      dup1\n      revert\n    tag_21:\n      pop\n      tag_22\n      0x04\n      dup1\n      calldatasize\n      sub\n      dup2\n      add\n      swap1\n      tag_23\n      swap2\n      swap1\n      tag_24\n      jump\t// in\n    tag_23:\n      tag_25\n      jump\t// in\n    tag_22:\n      stop\n        /* \"E-timetable.sol\":12778:12808  address payable public manager */\n    tag_5:\n      callvalue\n      dup1\n      iszero\n      tag_26\n      jumpi\n      0x00\n      dup1\n      revert\n    tag_26:\n      pop\n      tag_27\n      tag_28\n      jump\t// in\n    tag_27:\n      mload(0x40)\n      tag_29\n      swap2\n      swap1\n      tag_30\n      jump\t// in\n    tag_29:\n      mload(0x40)\n      dup1\n      swap2\n      sub\n      swap1\n      return\n        /* \"E-timetable.sol\":14393:14581  function transferBalance() public managerRestricted{... */\n    tag_6:\n      callvalue\n      dup1\n      iszero\n      tag_31\n      jumpi\n      0x00\n      dup1\n      revert\n    tag_31:\n      pop\n      tag_32\n      tag_33\n      jump\t// in\n    tag_32:\n      stop\n        /* \"E-timetable.sol\":13552:13655  function getGroups() public view returns(address[] memory) {... */\n    tag_7:\n      callvalue\n      dup1\n      iszero\n      tag_34\n      jumpi\n      0x00\n      dup1\n      revert\n    tag_34:\n      pop\n      tag_35\n      tag_36\n      jump\t// in\n    tag_35:\n      mload(0x40)\n      tag_37\n      swap2\n      swap1\n      tag_38\n      jump\t// in\n    tag_37:\n      mload(0x40)\n      dup1\n      swap2\n      sub\n      swap1\n      return\n        /* \"E-timetable.sol\":13688:13790  function addGroup(address groupAddress) public{... */\n    tag_8:\n      callvalue\n      dup1\n      iszero\n      tag_39\n      jumpi\n      0x00\n      dup1\n      revert\n    tag_39:\n      pop\n      tag_40\n      0x04\n      dup1\n      calldatasize\n      sub\n      dup2\n      add\n      swap1\n      tag_41\n      swap2\n      swap1\n      tag_42\n      jump\t// in\n    tag_41:\n      tag_43\n      jump\t// in\n    tag_40:\n      stop\n        /* \"E-timetable.sol\":14148:14322  function getBalance() public view managerRestricted returns(uint){... */\n    tag_12:\n        /* \"E-timetable.sol\":14208:14212  uint */\n      0x00\n        /* \"E-timetable.sol\":12895:12902  manager */\n      0x01\n      0x00\n      swap1\n      sload\n      swap1\n      0x0100\n      exp\n      swap1\n      div\n      0xffffffffffffffffffffffffffffffffffffffff\n      and\n        /* \"E-timetable.sol\":12881:12902  msg.sender == manager */\n      0xffffffffffffffffffffffffffffffffffffffff\n      and\n        /* \"E-timetable.sol\":12881:12891  msg.sender */\n      caller\n        /* \"E-timetable.sol\":12881:12902  msg.sender == manager */\n      0xffffffffffffffffffffffffffffffffffffffff\n      and\n      eq\n        /* \"E-timetable.sol\":12873:12903  require(msg.sender == manager) */\n      tag_45\n      jumpi\n      0x00\n      dup1\n      revert\n    tag_45:\n        /* \"E-timetable.sol\":14293:14314  address(this).balance */\n      selfbalance\n        /* \"E-timetable.sol\":14286:14314  return address(this).balance */\n      swap1\n      pop\n        /* \"E-timetable.sol\":14148:14322  function getBalance() public view managerRestricted returns(uint){... */\n      swap1\n      jump\t// out\n        /* \"E-timetable.sol\":13059:13518  function createGroup(string memory gname, string memory mname) public payable returns(address){... */\n    tag_18:\n        /* \"E-timetable.sol\":13145:13152  address */\n      0x00\n        /* \"E-timetable.sol\":13202:13216  Group newGroup */\n      dup1\n        /* \"E-timetable.sol\":13250:13255  gname */\n      dup4\n        /* \"E-timetable.sol\":13311:13316  mname */\n      dup4\n        /* \"E-timetable.sol\":13279:13289  msg.sender */\n      caller\n        /* \"E-timetable.sol\":13219:13328  new Group({... */\n      mload(0x40)\n      tag_48\n      swap1\n      tag_49\n      jump\t// in\n    tag_48:\n      tag_50\n      swap4\n      swap3\n      swap2\n      swap1\n      tag_51\n      jump\t// in\n    tag_50:\n      mload(0x40)\n      dup1\n      swap2\n      sub\n      swap1\n      0x00\n      create\n      dup1\n      iszero\n      dup1\n      iszero\n      tag_52\n      jumpi\n      returndatasize\n      0x00\n      dup1\n      returndatacopy\n      revert(0x00, returndatasize)\n    tag_52:\n      pop\n        /* \"E-timetable.sol\":13202:13328  Group newGroup = new Group({... */\n      swap1\n      pop\n        /* \"E-timetable.sol\":13341:13364  address newGroupAddress */\n      0x00\n        /* \"E-timetable.sol\":13375:13383  newGroup */\n      dup2\n        /* \"E-timetable.sol\":13341:13384  address newGroupAddress = address(newGroup) */\n      swap1\n      pop\n        /* \"E-timetable.sol\":13435:13441  groups */\n      0x00\n        /* \"E-timetable.sol\":13435:13453  groups[msg.sender] */\n      dup1\n        /* \"E-timetable.sol\":13442:13452  msg.sender */\n      caller\n        /* \"E-timetable.sol\":13435:13453  groups[msg.sender] */\n      0xffffffffffffffffffffffffffffffffffffffff\n      and\n      0xffffffffffffffffffffffffffffffffffffffff\n      and\n      dup2\n      mstore\n      0x20\n      add\n      swap1\n      dup2\n      mstore\n      0x20\n      add\n      0x00\n      keccak256\n        /* \"E-timetable.sol\":13459:13474  newGroupAddress */\n      dup2\n        /* \"E-timetable.sol\":13435:13475  groups[msg.sender].push(newGroupAddress) */\n      swap1\n      dup1\n      0x01\n      dup2\n      sload\n      add\n      dup1\n      dup3\n      sstore\n      dup1\n      swap2\n      pop\n      pop\n      0x01\n      swap1\n      sub\n      swap1\n      0x00\n      mstore\n      keccak256(0x00, 0x20)\n      add\n      0x00\n      swap1\n      swap2\n      swap1\n      swap2\n      swap1\n      swap2\n      0x0100\n      exp\n      dup2\n      sload\n      dup2\n      0xffffffffffffffffffffffffffffffffffffffff\n      mul\n      not\n      and\n      swap1\n      dup4\n      0xffffffffffffffffffffffffffffffffffffffff\n      and\n      mul\n      or\n      swap1\n      sstore\n      pop\n        /* \"E-timetable.sol\":13495:13510  newGroupAddress */\n      dup1\n        /* \"E-timetable.sol\":13488:13510  return newGroupAddress */\n      swap3\n      pop\n      pop\n      pop\n        /* \"E-timetable.sol\":13059:13518  function createGroup(string memory gname, string memory mname) public payable returns(address){... */\n      swap3\n      swap2\n      pop\n      pop\n      jump\t// out\n        /* \"E-timetable.sol\":13818:14093  function leaveGroup(uint index) public{... */\n    tag_25:\n        /* \"E-timetable.sol\":13902:13932  address[] storage joinedGroups */\n      0x00\n        /* \"E-timetable.sol\":13935:13941  groups */\n      dup1\n        /* \"E-timetable.sol\":13935:13953  groups[msg.sender] */\n      0x00\n        /* \"E-timetable.sol\":13942:13952  msg.sender */\n      caller\n        /* \"E-timetable.sol\":13935:13953  groups[msg.sender] */\n      0xffffffffffffffffffffffffffffffffffffffff\n      and\n      0xffffffffffffffffffffffffffffffffffffffff\n      and\n      dup2\n      mstore\n      0x20\n      add\n      swap1\n      dup2\n      mstore\n      0x20\n      add\n      0x00\n      keccak256\n        /* \"E-timetable.sol\":13902:13953  address[] storage joinedGroups = groups[msg.sender] */\n      swap1\n      pop\n        /* \"E-timetable.sol\":14021:14033  joinedGroups */\n      dup1\n        /* \"E-timetable.sol\":14054:14055  1 */\n      0x01\n        /* \"E-timetable.sol\":14034:14046  joinedGroups */\n      dup3\n        /* \"E-timetable.sol\":14034:14053  joinedGroups.length */\n      dup1\n      sload\n      swap1\n      pop\n        /* \"E-timetable.sol\":14034:14055  joinedGroups.length-1 */\n      tag_55\n      swap2\n      swap1\n      tag_56\n      jump\t// in\n    tag_55:\n        /* \"E-timetable.sol\":14021:14056  joinedGroups[joinedGroups.length-1] */\n      dup2\n      sload\n      dup2\n      lt\n      tag_57\n      jumpi\n      tag_58\n      tag_59\n      jump\t// in\n    tag_58:\n    tag_57:\n      swap1\n      0x00\n      mstore\n      keccak256(0x00, 0x20)\n      add\n      0x00\n      swap1\n      sload\n      swap1\n      0x0100\n      exp\n      swap1\n      div\n      0xffffffffffffffffffffffffffffffffffffffff\n      and\n        /* \"E-timetable.sol\":13999:14011  joinedGroups */\n      dup2\n        /* \"E-timetable.sol\":14012:14017  index */\n      dup4\n        /* \"E-timetable.sol\":13999:14018  joinedGroups[index] */\n      dup2\n      sload\n      dup2\n      lt\n      tag_61\n      jumpi\n      tag_62\n      tag_59\n      jump\t// in\n    tag_62:\n    tag_61:\n      swap1\n      0x00\n      mstore\n      keccak256(0x00, 0x20)\n      add\n      0x00\n        /* \"E-timetable.sol\":13999:14056  joinedGroups[index] = joinedGroups[joinedGroups.length-1] */\n      0x0100\n      exp\n      dup2\n      sload\n      dup2\n      0xffffffffffffffffffffffffffffffffffffffff\n      mul\n      not\n      and\n      swap1\n      dup4\n      0xffffffffffffffffffffffffffffffffffffffff\n      and\n      mul\n      or\n      swap1\n      sstore\n      pop\n        /* \"E-timetable.sol\":14067:14079  joinedGroups */\n      dup1\n        /* \"E-timetable.sol\":14067:14085  joinedGroups.pop() */\n      dup1\n      sload\n      dup1\n      tag_64\n      jumpi\n      tag_65\n      tag_66\n      jump\t// in\n    tag_65:\n    tag_64:\n      0x01\n      swap1\n      sub\n      dup2\n      dup2\n      swap1\n      0x00\n      mstore\n      keccak256(0x00, 0x20)\n      add\n      exp(0x0100, 0x00)\n      dup2\n      sload\n      swap1\n      0xffffffffffffffffffffffffffffffffffffffff\n      mul\n      not\n      and\n      swap1\n      sstore\n      swap1\n      sstore\n        /* \"E-timetable.sol\":13856:14093  {... */\n      pop\n        /* \"E-timetable.sol\":13818:14093  function leaveGroup(uint index) public{... */\n      pop\n      jump\t// out\n        /* \"E-timetable.sol\":12778:12808  address payable public manager */\n    tag_28:\n      0x01\n      0x00\n      swap1\n      sload\n      swap1\n      0x0100\n      exp\n      swap1\n      div\n      0xffffffffffffffffffffffffffffffffffffffff\n      and\n      dup2\n      jump\t// out\n        /* \"E-timetable.sol\":14393:14581  function transferBalance() public managerRestricted{... */\n    tag_33:\n        /* \"E-timetable.sol\":12895:12902  manager */\n      0x01\n      0x00\n      swap1\n      sload\n      swap1\n      0x0100\n      exp\n      swap1\n      div\n      0xffffffffffffffffffffffffffffffffffffffff\n      and\n        /* \"E-timetable.sol\":12881:12902  msg.sender == manager */\n      0xffffffffffffffffffffffffffffffffffffffff\n      and\n        /* \"E-timetable.sol\":12881:12891  msg.sender */\n      caller\n        /* \"E-timetable.sol\":12881:12902  msg.sender == manager */\n      0xffffffffffffffffffffffffffffffffffffffff\n      and\n      eq\n        /* \"E-timetable.sol\":12873:12903  require(msg.sender == manager) */\n      tag_69\n      jumpi\n      0x00\n      dup1\n      revert\n    tag_69:\n        /* \"E-timetable.sol\":14534:14541  manager */\n      0x01\n      0x00\n      swap1\n      sload\n      swap1\n      0x0100\n      exp\n      swap1\n      div\n      0xffffffffffffffffffffffffffffffffffffffff\n      and\n        /* \"E-timetable.sol\":14534:14550  manager.transfer */\n      0xffffffffffffffffffffffffffffffffffffffff\n      and\n        /* \"E-timetable.sol\":14534:14573  manager.transfer(address(this).balance) */\n      0x08fc\n        /* \"E-timetable.sol\":14551:14572  address(this).balance */\n      selfbalance\n        /* \"E-timetable.sol\":14534:14573  manager.transfer(address(this).balance) */\n      swap1\n      dup2\n      iszero\n      mul\n      swap1\n      mload(0x40)\n      0x00\n      mload(0x40)\n      dup1\n      dup4\n      sub\n      dup2\n      dup6\n      dup9\n      dup9\n      call\n      swap4\n      pop\n      pop\n      pop\n      pop\n      iszero\n      dup1\n      iszero\n      tag_72\n      jumpi\n      returndatasize\n      0x00\n      dup1\n      returndatacopy\n      revert(0x00, returndatasize)\n    tag_72:\n      pop\n        /* \"E-timetable.sol\":14393:14581  function transferBalance() public managerRestricted{... */\n      jump\t// out\n        /* \"E-timetable.sol\":13552:13655  function getGroups() public view returns(address[] memory) {... */\n    tag_36:\n        /* \"E-timetable.sol\":13593:13609  address[] memory */\n      0x60\n        /* \"E-timetable.sol\":13629:13635  groups */\n      0x00\n        /* \"E-timetable.sol\":13629:13647  groups[msg.sender] */\n      dup1\n        /* \"E-timetable.sol\":13636:13646  msg.sender */\n      caller\n        /* \"E-timetable.sol\":13629:13647  groups[msg.sender] */\n      0xffffffffffffffffffffffffffffffffffffffff\n      and\n      0xffffffffffffffffffffffffffffffffffffffff\n      and\n      dup2\n      mstore\n      0x20\n      add\n      swap1\n      dup2\n      mstore\n      0x20\n      add\n      0x00\n      keccak256\n        /* \"E-timetable.sol\":13622:13647  return groups[msg.sender] */\n      dup1\n      sload\n      dup1\n      0x20\n      mul\n      0x20\n      add\n      mload(0x40)\n      swap1\n      dup2\n      add\n      0x40\n      mstore\n      dup1\n      swap3\n      swap2\n      swap1\n      dup2\n      dup2\n      mstore\n      0x20\n      add\n      dup3\n      dup1\n      sload\n      dup1\n      iszero\n      tag_74\n      jumpi\n      0x20\n      mul\n      dup3\n      add\n      swap2\n      swap1\n      0x00\n      mstore\n      keccak256(0x00, 0x20)\n      swap1\n    tag_75:\n      dup2\n      0x00\n      swap1\n      sload\n      swap1\n      0x0100\n      exp\n      swap1\n      div\n      0xffffffffffffffffffffffffffffffffffffffff\n      and\n      0xffffffffffffffffffffffffffffffffffffffff\n      and\n      dup2\n      mstore\n      0x20\n      add\n      swap1\n      0x01\n      add\n      swap1\n      dup1\n      dup4\n      gt\n      tag_75\n      jumpi\n    tag_74:\n      pop\n      pop\n      pop\n      pop\n      pop\n      swap1\n      pop\n        /* \"E-timetable.sol\":13552:13655  function getGroups() public view returns(address[] memory) {... */\n      swap1\n      jump\t// out\n        /* \"E-timetable.sol\":13688:13790  function addGroup(address groupAddress) public{... */\n    tag_43:\n        /* \"E-timetable.sol\":13745:13751  groups */\n      0x00\n        /* \"E-timetable.sol\":13745:13763  groups[msg.sender] */\n      dup1\n        /* \"E-timetable.sol\":13752:13762  msg.sender */\n      caller\n        /* \"E-timetable.sol\":13745:13763  groups[msg.sender] */\n      0xffffffffffffffffffffffffffffffffffffffff\n      and\n      0xffffffffffffffffffffffffffffffffffffffff\n      and\n      dup2\n      mstore\n      0x20\n      add\n      swap1\n      dup2\n      mstore\n      0x20\n      add\n      0x00\n      keccak256\n        /* \"E-timetable.sol\":13769:13781  groupAddress */\n      dup2\n        /* \"E-timetable.sol\":13745:13782  groups[msg.sender].push(groupAddress) */\n      swap1\n      dup1\n      0x01\n      dup2\n      sload\n      add\n      dup1\n      dup3\n      sstore\n      dup1\n      swap2\n      pop\n      pop\n      0x01\n      swap1\n      sub\n      swap1\n      0x00\n      mstore\n      keccak256(0x00, 0x20)\n      add\n      0x00\n      swap1\n      swap2\n      swap1\n      swap2\n      swap1\n      swap2\n      0x0100\n      exp\n      dup2\n      sload\n      dup2\n      0xffffffffffffffffffffffffffffffffffffffff\n      mul\n      not\n      and\n      swap1\n      dup4\n      0xffffffffffffffffffffffffffffffffffffffff\n      and\n      mul\n      or\n      swap1\n      sstore\n      pop\n        /* \"E-timetable.sol\":13688:13790  function addGroup(address groupAddress) public{... */\n      pop\n      jump\t// out\n    tag_49:\n      dataSize(sub_0)\n      dup1\n      dataOffset(sub_0)\n      dup4\n      codecopy\n      add\n      swap1\n      jump\t// out\n        /* \"#utility.yul\":7:84   */\n    tag_78:\n        /* \"#utility.yul\":44:51   */\n      0x00\n        /* \"#utility.yul\":73:78   */\n      dup2\n        /* \"#utility.yul\":62:78   */\n      swap1\n      pop\n        /* \"#utility.yul\":7:84   */\n      swap2\n      swap1\n      pop\n      jump\t// out\n        /* \"#utility.yul\":90:208   */\n    tag_79:\n        /* \"#utility.yul\":177:201   */\n      tag_117\n        /* \"#utility.yul\":195:200   */\n      dup2\n        /* \"#utility.yul\":177:201   */\n      tag_78\n      jump\t// in\n    tag_117:\n        /* \"#utility.yul\":172:175   */\n      dup3\n        /* \"#utility.yul\":165:202   */\n      mstore\n        /* \"#utility.yul\":90:208   */\n      pop\n      pop\n      jump\t// out\n        /* \"#utility.yul\":214:436   */\n    tag_14:\n        /* \"#utility.yul\":307:311   */\n      0x00\n        /* \"#utility.yul\":345:347   */\n      0x20\n        /* \"#utility.yul\":334:343   */\n      dup3\n        /* \"#utility.yul\":330:348   */\n      add\n        /* \"#utility.yul\":322:348   */\n      swap1\n      pop\n        /* \"#utility.yul\":358:429   */\n      tag_119\n        /* \"#utility.yul\":426:427   */\n      0x00\n        /* \"#utility.yul\":415:424   */\n      dup4\n        /* \"#utility.yul\":411:428   */\n      add\n        /* \"#utility.yul\":402:408   */\n      dup5\n        /* \"#utility.yul\":358:429   */\n      tag_79\n      jump\t// in\n    tag_119:\n        /* \"#utility.yul\":214:436   */\n      swap3\n      swap2\n      pop\n      pop\n      jump\t// out\n        /* \"#utility.yul\":442:517   */\n    tag_80:\n        /* \"#utility.yul\":475:481   */\n      0x00\n        /* \"#utility.yul\":508:510   */\n      0x40\n        /* \"#utility.yul\":502:511   */\n      mload\n        /* \"#utility.yul\":492:511   */\n      swap1\n      pop\n        /* \"#utility.yul\":442:517   */\n      swap1\n      jump\t// out\n        /* \"#utility.yul\":523:640   */\n    tag_81:\n        /* \"#utility.yul\":632:633   */\n      0x00\n        /* \"#utility.yul\":629:630   */\n      dup1\n        /* \"#utility.yul\":622:634   */\n      revert\n        /* \"#utility.yul\":646:763   */\n    tag_82:\n        /* \"#utility.yul\":755:756   */\n      0x00\n        /* \"#utility.yul\":752:753   */\n      dup1\n        /* \"#utility.yul\":745:757   */\n      revert\n        /* \"#utility.yul\":769:886   */\n    tag_83:\n        /* \"#utility.yul\":878:879   */\n      0x00\n        /* \"#utility.yul\":875:876   */\n      dup1\n        /* \"#utility.yul\":868:880   */\n      revert\n        /* \"#utility.yul\":892:1009   */\n    tag_84:\n        /* \"#utility.yul\":1001:1002   */\n      0x00\n        /* \"#utility.yul\":998:999   */\n      dup1\n        /* \"#utility.yul\":991:1003   */\n      revert\n        /* \"#utility.yul\":1015:1117   */\n    tag_85:\n        /* \"#utility.yul\":1056:1062   */\n      0x00\n        /* \"#utility.yul\":1107:1109   */\n      0x1f\n        /* \"#utility.yul\":1103:1110   */\n      not\n        /* \"#utility.yul\":1098:1100   */\n      0x1f\n        /* \"#utility.yul\":1091:1096   */\n      dup4\n        /* \"#utility.yul\":1087:1101   */\n      add\n        /* \"#utility.yul\":1083:1111   */\n      and\n        /* \"#utility.yul\":1073:1111   */\n      swap1\n      pop\n        /* \"#utility.yul\":1015:1117   */\n      swap2\n      swap1\n      pop\n      jump\t// out\n        /* \"#utility.yul\":1123:1303   */\n    tag_86:\n        /* \"#utility.yul\":1171:1248   */\n      0x4e487b7100000000000000000000000000000000000000000000000000000000\n        /* \"#utility.yul\":1168:1169   */\n      0x00\n        /* \"#utility.yul\":1161:1249   */\n      mstore\n        /* \"#utility.yul\":1268:1272   */\n      0x41\n        /* \"#utility.yul\":1265:1266   */\n      0x04\n        /* \"#utility.yul\":1258:1273   */\n      mstore\n        /* \"#utility.yul\":1292:1296   */\n      0x24\n        /* \"#utility.yul\":1289:1290   */\n      0x00\n        /* \"#utility.yul\":1282:1297   */\n      revert\n        /* \"#utility.yul\":1309:1590   */\n    tag_87:\n        /* \"#utility.yul\":1392:1419   */\n      tag_128\n        /* \"#utility.yul\":1414:1418   */\n      dup3\n        /* \"#utility.yul\":1392:1419   */\n      tag_85\n      jump\t// in\n    tag_128:\n        /* \"#utility.yul\":1384:1390   */\n      dup2\n        /* \"#utility.yul\":1380:1420   */\n      add\n        /* \"#utility.yul\":1522:1528   */\n      dup2\n        /* \"#utility.yul\":1510:1520   */\n      dup2\n        /* \"#utility.yul\":1507:1529   */\n      lt\n        /* \"#utility.yul\":1486:1504   */\n      0xffffffffffffffff\n        /* \"#utility.yul\":1474:1484   */\n      dup3\n        /* \"#utility.yul\":1471:1505   */\n      gt\n        /* \"#utility.yul\":1468:1530   */\n      or\n        /* \"#utility.yul\":1465:1553   */\n      iszero\n      tag_129\n      jumpi\n        /* \"#utility.yul\":1533:1551   */\n      tag_130\n      tag_86\n      jump\t// in\n    tag_130:\n        /* \"#utility.yul\":1465:1553   */\n    tag_129:\n        /* \"#utility.yul\":1573:1583   */\n      dup1\n        /* \"#utility.yul\":1569:1571   */\n      0x40\n        /* \"#utility.yul\":1562:1584   */\n      mstore\n        /* \"#utility.yul\":1352:1590   */\n      pop\n        /* \"#utility.yul\":1309:1590   */\n      pop\n      pop\n      jump\t// out\n        /* \"#utility.yul\":1596:1725   */\n    tag_88:\n        /* \"#utility.yul\":1630:1636   */\n      0x00\n        /* \"#utility.yul\":1657:1677   */\n      tag_132\n      tag_80\n      jump\t// in\n    tag_132:\n        /* \"#utility.yul\":1647:1677   */\n      swap1\n      pop\n        /* \"#utility.yul\":1686:1719   */\n      tag_133\n        /* \"#utility.yul\":1714:1718   */\n      dup3\n        /* \"#utility.yul\":1706:1712   */\n      dup3\n        /* \"#utility.yul\":1686:1719   */\n      tag_87\n      jump\t// in\n    tag_133:\n        /* \"#utility.yul\":1596:1725   */\n      swap2\n      swap1\n      pop\n      jump\t// out\n        /* \"#utility.yul\":1731:2039   */\n    tag_89:\n        /* \"#utility.yul\":1793:1797   */\n      0x00\n        /* \"#utility.yul\":1883:1901   */\n      0xffffffffffffffff\n        /* \"#utility.yul\":1875:1881   */\n      dup3\n        /* \"#utility.yul\":1872:1902   */\n      gt\n        /* \"#utility.yul\":1869:1925   */\n      iszero\n      tag_135\n      jumpi\n        /* \"#utility.yul\":1905:1923   */\n      tag_136\n      tag_86\n      jump\t// in\n    tag_136:\n        /* \"#utility.yul\":1869:1925   */\n    tag_135:\n        /* \"#utility.yul\":1943:1972   */\n      tag_137\n        /* \"#utility.yul\":1965:1971   */\n      dup3\n        /* \"#utility.yul\":1943:1972   */\n      tag_85\n      jump\t// in\n    tag_137:\n        /* \"#utility.yul\":1935:1972   */\n      swap1\n      pop\n        /* \"#utility.yul\":2027:2031   */\n      0x20\n        /* \"#utility.yul\":2021:2025   */\n      dup2\n        /* \"#utility.yul\":2017:2032   */\n      add\n        /* \"#utility.yul\":2009:2032   */\n      swap1\n      pop\n        /* \"#utility.yul\":1731:2039   */\n      swap2\n      swap1\n      pop\n      jump\t// out\n        /* \"#utility.yul\":2045:2199   */\n    tag_90:\n        /* \"#utility.yul\":2129:2135   */\n      dup3\n        /* \"#utility.yul\":2124:2127   */\n      dup2\n        /* \"#utility.yul\":2119:2122   */\n      dup4\n        /* \"#utility.yul\":2106:2136   */\n      calldatacopy\n        /* \"#utility.yul\":2191:2192   */\n      0x00\n        /* \"#utility.yul\":2182:2188   */\n      dup4\n        /* \"#utility.yul\":2177:2180   */\n      dup4\n        /* \"#utility.yul\":2173:2189   */\n      add\n        /* \"#utility.yul\":2166:2193   */\n      mstore\n        /* \"#utility.yul\":2045:2199   */\n      pop\n      pop\n      pop\n      jump\t// out\n        /* \"#utility.yul\":2205:2617   */\n    tag_91:\n        /* \"#utility.yul\":2283:2288   */\n      0x00\n        /* \"#utility.yul\":2308:2374   */\n      tag_140\n        /* \"#utility.yul\":2324:2373   */\n      tag_141\n        /* \"#utility.yul\":2366:2372   */\n      dup5\n        /* \"#utility.yul\":2324:2373   */\n      tag_89\n      jump\t// in\n    tag_141:\n        /* \"#utility.yul\":2308:2374   */\n      tag_88\n      jump\t// in\n    tag_140:\n        /* \"#utility.yul\":2299:2374   */\n      swap1\n      pop\n        /* \"#utility.yul\":2397:2403   */\n      dup3\n        /* \"#utility.yul\":2390:2395   */\n      dup2\n        /* \"#utility.yul\":2383:2404   */\n      mstore\n        /* \"#utility.yul\":2435:2439   */\n      0x20\n        /* \"#utility.yul\":2428:2433   */\n      dup2\n        /* \"#utility.yul\":2424:2440   */\n      add\n        /* \"#utility.yul\":2473:2476   */\n      dup5\n        /* \"#utility.yul\":2464:2470   */\n      dup5\n        /* \"#utility.yul\":2459:2462   */\n      dup5\n        /* \"#utility.yul\":2455:2471   */\n      add\n        /* \"#utility.yul\":2452:2477   */\n      gt\n        /* \"#utility.yul\":2449:2561   */\n      iszero\n      tag_142\n      jumpi\n        /* \"#utility.yul\":2480:2559   */\n      tag_143\n      tag_84\n      jump\t// in\n    tag_143:\n        /* \"#utility.yul\":2449:2561   */\n    tag_142:\n        /* \"#utility.yul\":2570:2611   */\n      tag_144\n        /* \"#utility.yul\":2604:2610   */\n      dup5\n        /* \"#utility.yul\":2599:2602   */\n      dup3\n        /* \"#utility.yul\":2594:2597   */\n      dup6\n        /* \"#utility.yul\":2570:2611   */\n      tag_90\n      jump\t// in\n    tag_144:\n        /* \"#utility.yul\":2289:2617   */\n      pop\n        /* \"#utility.yul\":2205:2617   */\n      swap4\n      swap3\n      pop\n      pop\n      pop\n      jump\t// out\n        /* \"#utility.yul\":2637:2977   */\n    tag_92:\n        /* \"#utility.yul\":2693:2698   */\n      0x00\n        /* \"#utility.yul\":2742:2745   */\n      dup3\n        /* \"#utility.yul\":2735:2739   */\n      0x1f\n        /* \"#utility.yul\":2727:2733   */\n      dup4\n        /* \"#utility.yul\":2723:2740   */\n      add\n        /* \"#utility.yul\":2719:2746   */\n      slt\n        /* \"#utility.yul\":2709:2831   */\n      tag_146\n      jumpi\n        /* \"#utility.yul\":2750:2829   */\n      tag_147\n      tag_83\n      jump\t// in\n    tag_147:\n        /* \"#utility.yul\":2709:2831   */\n    tag_146:\n        /* \"#utility.yul\":2867:2873   */\n      dup2\n        /* \"#utility.yul\":2854:2874   */\n      calldataload\n        /* \"#utility.yul\":2892:2971   */\n      tag_148\n        /* \"#utility.yul\":2967:2970   */\n      dup5\n        /* \"#utility.yul\":2959:2965   */\n      dup3\n        /* \"#utility.yul\":2952:2956   */\n      0x20\n        /* \"#utility.yul\":2944:2950   */\n      dup7\n        /* \"#utility.yul\":2940:2957   */\n      add\n        /* \"#utility.yul\":2892:2971   */\n      tag_91\n      jump\t// in\n    tag_148:\n        /* \"#utility.yul\":2883:2971   */\n      swap2\n      pop\n        /* \"#utility.yul\":2699:2977   */\n      pop\n        /* \"#utility.yul\":2637:2977   */\n      swap3\n      swap2\n      pop\n      pop\n      jump\t// out\n        /* \"#utility.yul\":2983:3817   */\n    tag_17:\n        /* \"#utility.yul\":3071:3077   */\n      0x00\n        /* \"#utility.yul\":3079:3085   */\n      dup1\n        /* \"#utility.yul\":3128:3130   */\n      0x40\n        /* \"#utility.yul\":3116:3125   */\n      dup4\n        /* \"#utility.yul\":3107:3114   */\n      dup6\n        /* \"#utility.yul\":3103:3126   */\n      sub\n        /* \"#utility.yul\":3099:3131   */\n      slt\n        /* \"#utility.yul\":3096:3215   */\n      iszero\n      tag_150\n      jumpi\n        /* \"#utility.yul\":3134:3213   */\n      tag_151\n      tag_81\n      jump\t// in\n    tag_151:\n        /* \"#utility.yul\":3096:3215   */\n    tag_150:\n        /* \"#utility.yul\":3282:3283   */\n      0x00\n        /* \"#utility.yul\":3271:3280   */\n      dup4\n        /* \"#utility.yul\":3267:3284   */\n      add\n        /* \"#utility.yul\":3254:3285   */\n      calldataload\n        /* \"#utility.yul\":3312:3330   */\n      0xffffffffffffffff\n        /* \"#utility.yul\":3304:3310   */\n      dup2\n        /* \"#utility.yul\":3301:3331   */\n      gt\n        /* \"#utility.yul\":3298:3415   */\n      iszero\n      tag_152\n      jumpi\n        /* \"#utility.yul\":3334:3413   */\n      tag_153\n      tag_82\n      jump\t// in\n    tag_153:\n        /* \"#utility.yul\":3298:3415   */\n    tag_152:\n        /* \"#utility.yul\":3439:3502   */\n      tag_154\n        /* \"#utility.yul\":3494:3501   */\n      dup6\n        /* \"#utility.yul\":3485:3491   */\n      dup3\n        /* \"#utility.yul\":3474:3483   */\n      dup7\n        /* \"#utility.yul\":3470:3492   */\n      add\n        /* \"#utility.yul\":3439:3502   */\n      tag_92\n      jump\t// in\n    tag_154:\n        /* \"#utility.yul\":3429:3502   */\n      swap3\n      pop\n        /* \"#utility.yul\":3225:3512   */\n      pop\n        /* \"#utility.yul\":3579:3581   */\n      0x20\n        /* \"#utility.yul\":3568:3577   */\n      dup4\n        /* \"#utility.yul\":3564:3582   */\n      add\n        /* \"#utility.yul\":3551:3583   */\n      calldataload\n        /* \"#utility.yul\":3610:3628   */\n      0xffffffffffffffff\n        /* \"#utility.yul\":3602:3608   */\n      dup2\n        /* \"#utility.yul\":3599:3629   */\n      gt\n        /* \"#utility.yul\":3596:3713   */\n      iszero\n      tag_155\n      jumpi\n        /* \"#utility.yul\":3632:3711   */\n      tag_156\n      tag_82\n      jump\t// in\n    tag_156:\n        /* \"#utility.yul\":3596:3713   */\n    tag_155:\n        /* \"#utility.yul\":3737:3800   */\n      tag_157\n        /* \"#utility.yul\":3792:3799   */\n      dup6\n        /* \"#utility.yul\":3783:3789   */\n      dup3\n        /* \"#utility.yul\":3772:3781   */\n      dup7\n        /* \"#utility.yul\":3768:3790   */\n      add\n        /* \"#utility.yul\":3737:3800   */\n      tag_92\n      jump\t// in\n    tag_157:\n        /* \"#utility.yul\":3727:3800   */\n      swap2\n      pop\n        /* \"#utility.yul\":3522:3810   */\n      pop\n        /* \"#utility.yul\":2983:3817   */\n      swap3\n      pop\n      swap3\n      swap1\n      pop\n      jump\t// out\n        /* \"#utility.yul\":3823:3949   */\n    tag_93:\n        /* \"#utility.yul\":3860:3867   */\n      0x00\n        /* \"#utility.yul\":3900:3942   */\n      0xffffffffffffffffffffffffffffffffffffffff\n        /* \"#utility.yul\":3893:3898   */\n      dup3\n        /* \"#utility.yul\":3889:3943   */\n      and\n        /* \"#utility.yul\":3878:3943   */\n      swap1\n      pop\n        /* \"#utility.yul\":3823:3949   */\n      swap2\n      swap1\n      pop\n      jump\t// out\n        /* \"#utility.yul\":3955:4051   */\n    tag_94:\n        /* \"#utility.yul\":3992:3999   */\n      0x00\n        /* \"#utility.yul\":4021:4045   */\n      tag_160\n        /* \"#utility.yul\":4039:4044   */\n      dup3\n        /* \"#utility.yul\":4021:4045   */\n      tag_93\n      jump\t// in\n    tag_160:\n        /* \"#utility.yul\":4010:4045   */\n      swap1\n      pop\n        /* \"#utility.yul\":3955:4051   */\n      swap2\n      swap1\n      pop\n      jump\t// out\n        /* \"#utility.yul\":4057:4175   */\n    tag_95:\n        /* \"#utility.yul\":4144:4168   */\n      tag_162\n        /* \"#utility.yul\":4162:4167   */\n      dup2\n        /* \"#utility.yul\":4144:4168   */\n      tag_94\n      jump\t// in\n    tag_162:\n        /* \"#utility.yul\":4139:4142   */\n      dup3\n        /* \"#utility.yul\":4132:4169   */\n      mstore\n        /* \"#utility.yul\":4057:4175   */\n      pop\n      pop\n      jump\t// out\n        /* \"#utility.yul\":4181:4403   */\n    tag_20:\n        /* \"#utility.yul\":4274:4278   */\n      0x00\n        /* \"#utility.yul\":4312:4314   */\n      0x20\n        /* \"#utility.yul\":4301:4310   */\n      dup3\n        /* \"#utility.yul\":4297:4315   */\n      add\n        /* \"#utility.yul\":4289:4315   */\n      swap1\n      pop\n        /* \"#utility.yul\":4325:4396   */\n      tag_164\n        /* \"#utility.yul\":4393:4394   */\n      0x00\n        /* \"#utility.yul\":4382:4391   */\n      dup4\n        /* \"#utility.yul\":4378:4395   */\n      add\n        /* \"#utility.yul\":4369:4375   */\n      dup5\n        /* \"#utility.yul\":4325:4396   */\n      tag_95\n      jump\t// in\n    tag_164:\n        /* \"#utility.yul\":4181:4403   */\n      swap3\n      swap2\n      pop\n      pop\n      jump\t// out\n        /* \"#utility.yul\":4409:4531   */\n    tag_96:\n        /* \"#utility.yul\":4482:4506   */\n      tag_166\n        /* \"#utility.yul\":4500:4505   */\n      dup2\n        /* \"#utility.yul\":4482:4506   */\n      tag_78\n      jump\t// in\n    tag_166:\n        /* \"#utility.yul\":4475:4480   */\n      dup2\n        /* \"#utility.yul\":4472:4507   */\n      eq\n        /* \"#utility.yul\":4462:4525   */\n      tag_167\n      jumpi\n        /* \"#utility.yul\":4521:4522   */\n      0x00\n        /* \"#utility.yul\":4518:4519   */\n      dup1\n        /* \"#utility.yul\":4511:4523   */\n      revert\n        /* \"#utility.yul\":4462:4525   */\n    tag_167:\n        /* \"#utility.yul\":4409:4531   */\n      pop\n      jump\t// out\n        /* \"#utility.yul\":4537:4676   */\n    tag_97:\n        /* \"#utility.yul\":4583:4588   */\n      0x00\n        /* \"#utility.yul\":4621:4627   */\n      dup2\n        /* \"#utility.yul\":4608:4628   */\n      calldataload\n        /* \"#utility.yul\":4599:4628   */\n      swap1\n      pop\n        /* \"#utility.yul\":4637:4670   */\n      tag_169\n        /* \"#utility.yul\":4664:4669   */\n      dup2\n        /* \"#utility.yul\":4637:4670   */\n      tag_96\n      jump\t// in\n    tag_169:\n        /* \"#utility.yul\":4537:4676   */\n      swap3\n      swap2\n      pop\n      pop\n      jump\t// out\n        /* \"#utility.yul\":4682:5011   */\n    tag_24:\n        /* \"#utility.yul\":4741:4747   */\n      0x00\n        /* \"#utility.yul\":4790:4792   */\n      0x20\n        /* \"#utility.yul\":4778:4787   */\n      dup3\n        /* \"#utility.yul\":4769:4776   */\n      dup5\n        /* \"#utility.yul\":4765:4788   */\n      sub\n        /* \"#utility.yul\":4761:4793   */\n      slt\n        /* \"#utility.yul\":4758:4877   */\n      iszero\n      tag_171\n      jumpi\n        /* \"#utility.yul\":4796:4875   */\n      tag_172\n      tag_81\n      jump\t// in\n    tag_172:\n        /* \"#utility.yul\":4758:4877   */\n    tag_171:\n        /* \"#utility.yul\":4916:4917   */\n      0x00\n        /* \"#utility.yul\":4941:4994   */\n      tag_173\n        /* \"#utility.yul\":4986:4993   */\n      dup5\n        /* \"#utility.yul\":4977:4983   */\n      dup3\n        /* \"#utility.yul\":4966:4975   */\n      dup6\n        /* \"#utility.yul\":4962:4984   */\n      add\n        /* \"#utility.yul\":4941:4994   */\n      tag_97\n      jump\t// in\n    tag_173:\n        /* \"#utility.yul\":4931:4994   */\n      swap2\n      pop\n        /* \"#utility.yul\":4887:5004   */\n      pop\n        /* \"#utility.yul\":4682:5011   */\n      swap3\n      swap2\n      pop\n      pop\n      jump\t// out\n        /* \"#utility.yul\":5017:5121   */\n    tag_98:\n        /* \"#utility.yul\":5062:5069   */\n      0x00\n        /* \"#utility.yul\":5091:5115   */\n      tag_175\n        /* \"#utility.yul\":5109:5114   */\n      dup3\n        /* \"#utility.yul\":5091:5115   */\n      tag_93\n      jump\t// in\n    tag_175:\n        /* \"#utility.yul\":5080:5115   */\n      swap1\n      pop\n        /* \"#utility.yul\":5017:5121   */\n      swap2\n      swap1\n      pop\n      jump\t// out\n        /* \"#utility.yul\":5127:5269   */\n    tag_99:\n        /* \"#utility.yul\":5230:5262   */\n      tag_177\n        /* \"#utility.yul\":5256:5261   */\n      dup2\n        /* \"#utility.yul\":5230:5262   */\n      tag_98\n      jump\t// in\n    tag_177:\n        /* \"#utility.yul\":5225:5228   */\n      dup3\n        /* \"#utility.yul\":5218:5263   */\n      mstore\n        /* \"#utility.yul\":5127:5269   */\n      pop\n      pop\n      jump\t// out\n        /* \"#utility.yul\":5275:5529   */\n    tag_30:\n        /* \"#utility.yul\":5384:5388   */\n      0x00\n        /* \"#utility.yul\":5422:5424   */\n      0x20\n        /* \"#utility.yul\":5411:5420   */\n      dup3\n        /* \"#utility.yul\":5407:5425   */\n      add\n        /* \"#utility.yul\":5399:5425   */\n      swap1\n      pop\n        /* \"#utility.yul\":5435:5522   */\n      tag_179\n        /* \"#utility.yul\":5519:5520   */\n      0x00\n        /* \"#utility.yul\":5508:5517   */\n      dup4\n        /* \"#utility.yul\":5504:5521   */\n      add\n        /* \"#utility.yul\":5495:5501   */\n      dup5\n        /* \"#utility.yul\":5435:5522   */\n      tag_99\n      jump\t// in\n    tag_179:\n        /* \"#utility.yul\":5275:5529   */\n      swap3\n      swap2\n      pop\n      pop\n      jump\t// out\n        /* \"#utility.yul\":5535:5649   */\n    tag_100:\n        /* \"#utility.yul\":5602:5608   */\n      0x00\n        /* \"#utility.yul\":5636:5641   */\n      dup2\n        /* \"#utility.yul\":5630:5642   */\n      mload\n        /* \"#utility.yul\":5620:5642   */\n      swap1\n      pop\n        /* \"#utility.yul\":5535:5649   */\n      swap2\n      swap1\n      pop\n      jump\t// out\n        /* \"#utility.yul\":5655:5839   */\n    tag_101:\n        /* \"#utility.yul\":5754:5765   */\n      0x00\n        /* \"#utility.yul\":5788:5794   */\n      dup3\n        /* \"#utility.yul\":5783:5786   */\n      dup3\n        /* \"#utility.yul\":5776:5795   */\n      mstore\n        /* \"#utility.yul\":5828:5832   */\n      0x20\n        /* \"#utility.yul\":5823:5826   */\n      dup3\n        /* \"#utility.yul\":5819:5833   */\n      add\n        /* \"#utility.yul\":5804:5833   */\n      swap1\n      pop\n        /* \"#utility.yul\":5655:5839   */\n      swap3\n      swap2\n      pop\n      pop\n      jump\t// out\n        /* \"#utility.yul\":5845:5977   */\n    tag_102:\n        /* \"#utility.yul\":5912:5916   */\n      0x00\n        /* \"#utility.yul\":5935:5938   */\n      dup2\n        /* \"#utility.yul\":5927:5938   */\n      swap1\n      pop\n        /* \"#utility.yul\":5965:5969   */\n      0x20\n        /* \"#utility.yul\":5960:5963   */\n      dup3\n        /* \"#utility.yul\":5956:5970   */\n      add\n        /* \"#utility.yul\":5948:5970   */\n      swap1\n      pop\n        /* \"#utility.yul\":5845:5977   */\n      swap2\n      swap1\n      pop\n      jump\t// out\n        /* \"#utility.yul\":5983:6091   */\n    tag_103:\n        /* \"#utility.yul\":6060:6084   */\n      tag_184\n        /* \"#utility.yul\":6078:6083   */\n      dup2\n        /* \"#utility.yul\":6060:6084   */\n      tag_94\n      jump\t// in\n    tag_184:\n        /* \"#utility.yul\":6055:6058   */\n      dup3\n        /* \"#utility.yul\":6048:6085   */\n      mstore\n        /* \"#utility.yul\":5983:6091   */\n      pop\n      pop\n      jump\t// out\n        /* \"#utility.yul\":6097:6276   */\n    tag_104:\n        /* \"#utility.yul\":6166:6176   */\n      0x00\n        /* \"#utility.yul\":6187:6233   */\n      tag_186\n        /* \"#utility.yul\":6229:6232   */\n      dup4\n        /* \"#utility.yul\":6221:6227   */\n      dup4\n        /* \"#utility.yul\":6187:6233   */\n      tag_103\n      jump\t// in\n    tag_186:\n        /* \"#utility.yul\":6265:6269   */\n      0x20\n        /* \"#utility.yul\":6260:6263   */\n      dup4\n        /* \"#utility.yul\":6256:6270   */\n      add\n        /* \"#utility.yul\":6242:6270   */\n      swap1\n      pop\n        /* \"#utility.yul\":6097:6276   */\n      swap3\n      swap2\n      pop\n      pop\n      jump\t// out\n        /* \"#utility.yul\":6282:6395   */\n    tag_105:\n        /* \"#utility.yul\":6352:6356   */\n      0x00\n        /* \"#utility.yul\":6384:6388   */\n      0x20\n        /* \"#utility.yul\":6379:6382   */\n      dup3\n        /* \"#utility.yul\":6375:6389   */\n      add\n        /* \"#utility.yul\":6367:6389   */\n      swap1\n      pop\n        /* \"#utility.yul\":6282:6395   */\n      swap2\n      swap1\n      pop\n      jump\t// out\n        /* \"#utility.yul\":6431:7163   */\n    tag_106:\n        /* \"#utility.yul\":6550:6553   */\n      0x00\n        /* \"#utility.yul\":6579:6633   */\n      tag_189\n        /* \"#utility.yul\":6627:6632   */\n      dup3\n        /* \"#utility.yul\":6579:6633   */\n      tag_100\n      jump\t// in\n    tag_189:\n        /* \"#utility.yul\":6649:6735   */\n      tag_190\n        /* \"#utility.yul\":6728:6734   */\n      dup2\n        /* \"#utility.yul\":6723:6726   */\n      dup6\n        /* \"#utility.yul\":6649:6735   */\n      tag_101\n      jump\t// in\n    tag_190:\n        /* \"#utility.yul\":6642:6735   */\n      swap4\n      pop\n        /* \"#utility.yul\":6759:6815   */\n      tag_191\n        /* \"#utility.yul\":6809:6814   */\n      dup4\n        /* \"#utility.yul\":6759:6815   */\n      tag_102\n      jump\t// in\n    tag_191:\n        /* \"#utility.yul\":6838:6845   */\n      dup1\n        /* \"#utility.yul\":6869:6870   */\n      0x00\n        /* \"#utility.yul\":6854:7138   */\n    tag_192:\n        /* \"#utility.yul\":6879:6885   */\n      dup4\n        /* \"#utility.yul\":6876:6877   */\n      dup2\n        /* \"#utility.yul\":6873:6886   */\n      lt\n        /* \"#utility.yul\":6854:7138   */\n      iszero\n      tag_194\n      jumpi\n        /* \"#utility.yul\":6955:6961   */\n      dup2\n        /* \"#utility.yul\":6949:6962   */\n      mload\n        /* \"#utility.yul\":6982:7045   */\n      tag_195\n        /* \"#utility.yul\":7041:7044   */\n      dup9\n        /* \"#utility.yul\":7026:7039   */\n      dup3\n        /* \"#utility.yul\":6982:7045   */\n      tag_104\n      jump\t// in\n    tag_195:\n        /* \"#utility.yul\":6975:7045   */\n      swap8\n      pop\n        /* \"#utility.yul\":7068:7128   */\n      tag_196\n        /* \"#utility.yul\":7121:7127   */\n      dup4\n        /* \"#utility.yul\":7068:7128   */\n      tag_105\n      jump\t// in\n    tag_196:\n        /* \"#utility.yul\":7058:7128   */\n      swap3\n      pop\n        /* \"#utility.yul\":6914:7138   */\n      pop\n        /* \"#utility.yul\":6901:6902   */\n      0x01\n        /* \"#utility.yul\":6898:6899   */\n      dup2\n        /* \"#utility.yul\":6894:6903   */\n      add\n        /* \"#utility.yul\":6889:6903   */\n      swap1\n      pop\n        /* \"#utility.yul\":6854:7138   */\n      jump(tag_192)\n    tag_194:\n        /* \"#utility.yul\":6858:6872   */\n      pop\n        /* \"#utility.yul\":7154:7157   */\n      dup6\n        /* \"#utility.yul\":7147:7157   */\n      swap4\n      pop\n        /* \"#utility.yul\":6555:7163   */\n      pop\n      pop\n      pop\n        /* \"#utility.yul\":6431:7163   */\n      swap3\n      swap2\n      pop\n      pop\n      jump\t// out\n        /* \"#utility.yul\":7169:7542   */\n    tag_38:\n        /* \"#utility.yul\":7312:7316   */\n      0x00\n        /* \"#utility.yul\":7350:7352   */\n      0x20\n        /* \"#utility.yul\":7339:7348   */\n      dup3\n        /* \"#utility.yul\":7335:7353   */\n      add\n        /* \"#utility.yul\":7327:7353   */\n      swap1\n      pop\n        /* \"#utility.yul\":7399:7408   */\n      dup2\n        /* \"#utility.yul\":7393:7397   */\n      dup2\n        /* \"#utility.yul\":7389:7409   */\n      sub\n        /* \"#utility.yul\":7385:7386   */\n      0x00\n        /* \"#utility.yul\":7374:7383   */\n      dup4\n        /* \"#utility.yul\":7370:7387   */\n      add\n        /* \"#utility.yul\":7363:7410   */\n      mstore\n        /* \"#utility.yul\":7427:7535   */\n      tag_198\n        /* \"#utility.yul\":7530:7534   */\n      dup2\n        /* \"#utility.yul\":7521:7527   */\n      dup5\n        /* \"#utility.yul\":7427:7535   */\n      tag_106\n      jump\t// in\n    tag_198:\n        /* \"#utility.yul\":7419:7535   */\n      swap1\n      pop\n        /* \"#utility.yul\":7169:7542   */\n      swap3\n      swap2\n      pop\n      pop\n      jump\t// out\n        /* \"#utility.yul\":7548:7670   */\n    tag_107:\n        /* \"#utility.yul\":7621:7645   */\n      tag_200\n        /* \"#utility.yul\":7639:7644   */\n      dup2\n        /* \"#utility.yul\":7621:7645   */\n      tag_94\n      jump\t// in\n    tag_200:\n        /* \"#utility.yul\":7614:7619   */\n      dup2\n        /* \"#utility.yul\":7611:7646   */\n      eq\n        /* \"#utility.yul\":7601:7664   */\n      tag_201\n      jumpi\n        /* \"#utility.yul\":7660:7661   */\n      0x00\n        /* \"#utility.yul\":7657:7658   */\n      dup1\n        /* \"#utility.yul\":7650:7662   */\n      revert\n        /* \"#utility.yul\":7601:7664   */\n    tag_201:\n        /* \"#utility.yul\":7548:7670   */\n      pop\n      jump\t// out\n        /* \"#utility.yul\":7676:7815   */\n    tag_108:\n        /* \"#utility.yul\":7722:7727   */\n      0x00\n        /* \"#utility.yul\":7760:7766   */\n      dup2\n        /* \"#utility.yul\":7747:7767   */\n      calldataload\n        /* \"#utility.yul\":7738:7767   */\n      swap1\n      pop\n        /* \"#utility.yul\":7776:7809   */\n      tag_203\n        /* \"#utility.yul\":7803:7808   */\n      dup2\n        /* \"#utility.yul\":7776:7809   */\n      tag_107\n      jump\t// in\n    tag_203:\n        /* \"#utility.yul\":7676:7815   */\n      swap3\n      swap2\n      pop\n      pop\n      jump\t// out\n        /* \"#utility.yul\":7821:8150   */\n    tag_42:\n        /* \"#utility.yul\":7880:7886   */\n      0x00\n        /* \"#utility.yul\":7929:7931   */\n      0x20\n        /* \"#utility.yul\":7917:7926   */\n      dup3\n        /* \"#utility.yul\":7908:7915   */\n      dup5\n        /* \"#utility.yul\":7904:7927   */\n      sub\n        /* \"#utility.yul\":7900:7932   */\n      slt\n        /* \"#utility.yul\":7897:8016   */\n      iszero\n      tag_205\n      jumpi\n        /* \"#utility.yul\":7935:8014   */\n      tag_206\n      tag_81\n      jump\t// in\n    tag_206:\n        /* \"#utility.yul\":7897:8016   */\n    tag_205:\n        /* \"#utility.yul\":8055:8056   */\n      0x00\n        /* \"#utility.yul\":8080:8133   */\n      tag_207\n        /* \"#utility.yul\":8125:8132   */\n      dup5\n        /* \"#utility.yul\":8116:8122   */\n      dup3\n        /* \"#utility.yul\":8105:8114   */\n      dup6\n        /* \"#utility.yul\":8101:8123   */\n      add\n        /* \"#utility.yul\":8080:8133   */\n      tag_108\n      jump\t// in\n    tag_207:\n        /* \"#utility.yul\":8070:8133   */\n      swap2\n      pop\n        /* \"#utility.yul\":8026:8143   */\n      pop\n        /* \"#utility.yul\":7821:8150   */\n      swap3\n      swap2\n      pop\n      pop\n      jump\t// out\n        /* \"#utility.yul\":8156:8255   */\n    tag_109:\n        /* \"#utility.yul\":8208:8214   */\n      0x00\n        /* \"#utility.yul\":8242:8247   */\n      dup2\n        /* \"#utility.yul\":8236:8248   */\n      mload\n        /* \"#utility.yul\":8226:8248   */\n      swap1\n      pop\n        /* \"#utility.yul\":8156:8255   */\n      swap2\n      swap1\n      pop\n      jump\t// out\n        /* \"#utility.yul\":8261:8430   */\n    tag_110:\n        /* \"#utility.yul\":8345:8356   */\n      0x00\n        /* \"#utility.yul\":8379:8385   */\n      dup3\n        /* \"#utility.yul\":8374:8377   */\n      dup3\n        /* \"#utility.yul\":8367:8386   */\n      mstore\n        /* \"#utility.yul\":8419:8423   */\n      0x20\n        /* \"#utility.yul\":8414:8417   */\n      dup3\n        /* \"#utility.yul\":8410:8424   */\n      add\n        /* \"#utility.yul\":8395:8424   */\n      swap1\n      pop\n        /* \"#utility.yul\":8261:8430   */\n      swap3\n      swap2\n      pop\n      pop\n      jump\t// out\n        /* \"#utility.yul\":8436:8743   */\n    tag_111:\n        /* \"#utility.yul\":8504:8505   */\n      0x00\n        /* \"#utility.yul\":8514:8627   */\n    tag_211:\n        /* \"#utility.yul\":8528:8534   */\n      dup4\n        /* \"#utility.yul\":8525:8526   */\n      dup2\n        /* \"#utility.yul\":8522:8535   */\n      lt\n        /* \"#utility.yul\":8514:8627   */\n      iszero\n      tag_213\n      jumpi\n        /* \"#utility.yul\":8613:8614   */\n      dup1\n        /* \"#utility.yul\":8608:8611   */\n      dup3\n        /* \"#utility.yul\":8604:8615   */\n      add\n        /* \"#utility.yul\":8598:8616   */\n      mload\n        /* \"#utility.yul\":8594:8595   */\n      dup2\n        /* \"#utility.yul\":8589:8592   */\n      dup5\n        /* \"#utility.yul\":8585:8596   */\n      add\n        /* \"#utility.yul\":8578:8617   */\n      mstore\n        /* \"#utility.yul\":8550:8552   */\n      0x20\n        /* \"#utility.yul\":8547:8548   */\n      dup2\n        /* \"#utility.yul\":8543:8553   */\n      add\n        /* \"#utility.yul\":8538:8553   */\n      swap1\n      pop\n        /* \"#utility.yul\":8514:8627   */\n      jump(tag_211)\n    tag_213:\n        /* \"#utility.yul\":8645:8651   */\n      dup4\n        /* \"#utility.yul\":8642:8643   */\n      dup2\n        /* \"#utility.yul\":8639:8652   */\n      gt\n        /* \"#utility.yul\":8636:8737   */\n      iszero\n      tag_214\n      jumpi\n        /* \"#utility.yul\":8725:8726   */\n      0x00\n        /* \"#utility.yul\":8716:8722   */\n      dup5\n        /* \"#utility.yul\":8711:8714   */\n      dup5\n        /* \"#utility.yul\":8707:8723   */\n      add\n        /* \"#utility.yul\":8700:8727   */\n      mstore\n        /* \"#utility.yul\":8636:8737   */\n    tag_214:\n        /* \"#utility.yul\":8485:8743   */\n      pop\n        /* \"#utility.yul\":8436:8743   */\n      pop\n      pop\n      pop\n      jump\t// out\n        /* \"#utility.yul\":8749:9113   */\n    tag_112:\n        /* \"#utility.yul\":8837:8840   */\n      0x00\n        /* \"#utility.yul\":8865:8904   */\n      tag_216\n        /* \"#utility.yul\":8898:8903   */\n      dup3\n        /* \"#utility.yul\":8865:8904   */\n      tag_109\n      jump\t// in\n    tag_216:\n        /* \"#utility.yul\":8920:8991   */\n      tag_217\n        /* \"#utility.yul\":8984:8990   */\n      dup2\n        /* \"#utility.yul\":8979:8982   */\n      dup6\n        /* \"#utility.yul\":8920:8991   */\n      tag_110\n      jump\t// in\n    tag_217:\n        /* \"#utility.yul\":8913:8991   */\n      swap4\n      pop\n        /* \"#utility.yul\":9000:9052   */\n      tag_218\n        /* \"#utility.yul\":9045:9051   */\n      dup2\n        /* \"#utility.yul\":9040:9043   */\n      dup6\n        /* \"#utility.yul\":9033:9037   */\n      0x20\n        /* \"#utility.yul\":9026:9031   */\n      dup7\n        /* \"#utility.yul\":9022:9038   */\n      add\n        /* \"#utility.yul\":9000:9052   */\n      tag_111\n      jump\t// in\n    tag_218:\n        /* \"#utility.yul\":9077:9106   */\n      tag_219\n        /* \"#utility.yul\":9099:9105   */\n      dup2\n        /* \"#utility.yul\":9077:9106   */\n      tag_85\n      jump\t// in\n    tag_219:\n        /* \"#utility.yul\":9072:9075   */\n      dup5\n        /* \"#utility.yul\":9068:9107   */\n      add\n        /* \"#utility.yul\":9061:9107   */\n      swap2\n      pop\n        /* \"#utility.yul\":8841:9113   */\n      pop\n        /* \"#utility.yul\":8749:9113   */\n      swap3\n      swap2\n      pop\n      pop\n      jump\t// out\n        /* \"#utility.yul\":9119:9743   */\n    tag_51:\n        /* \"#utility.yul\":9308:9312   */\n      0x00\n        /* \"#utility.yul\":9346:9348   */\n      0x60\n        /* \"#utility.yul\":9335:9344   */\n      dup3\n        /* \"#utility.yul\":9331:9349   */\n      add\n        /* \"#utility.yul\":9323:9349   */\n      swap1\n      pop\n        /* \"#utility.yul\":9395:9404   */\n      dup2\n        /* \"#utility.yul\":9389:9393   */\n      dup2\n        /* \"#utility.yul\":9385:9405   */\n      sub\n        /* \"#utility.yul\":9381:9382   */\n      0x00\n        /* \"#utility.yul\":9370:9379   */\n      dup4\n        /* \"#utility.yul\":9366:9383   */\n      add\n        /* \"#utility.yul\":9359:9406   */\n      mstore\n        /* \"#utility.yul\":9423:9501   */\n      tag_221\n        /* \"#utility.yul\":9496:9500   */\n      dup2\n        /* \"#utility.yul\":9487:9493   */\n      dup7\n        /* \"#utility.yul\":9423:9501   */\n      tag_112\n      jump\t// in\n    tag_221:\n        /* \"#utility.yul\":9415:9501   */\n      swap1\n      pop\n        /* \"#utility.yul\":9548:9557   */\n      dup2\n        /* \"#utility.yul\":9542:9546   */\n      dup2\n        /* \"#utility.yul\":9538:9558   */\n      sub\n        /* \"#utility.yul\":9533:9535   */\n      0x20\n        /* \"#utility.yul\":9522:9531   */\n      dup4\n        /* \"#utility.yul\":9518:9536   */\n      add\n        /* \"#utility.yul\":9511:9559   */\n      mstore\n        /* \"#utility.yul\":9576:9654   */\n      tag_222\n        /* \"#utility.yul\":9649:9653   */\n      dup2\n        /* \"#utility.yul\":9640:9646   */\n      dup6\n        /* \"#utility.yul\":9576:9654   */\n      tag_112\n      jump\t// in\n    tag_222:\n        /* \"#utility.yul\":9568:9654   */\n      swap1\n      pop\n        /* \"#utility.yul\":9664:9736   */\n      tag_223\n        /* \"#utility.yul\":9732:9734   */\n      0x40\n        /* \"#utility.yul\":9721:9730   */\n      dup4\n        /* \"#utility.yul\":9717:9735   */\n      add\n        /* \"#utility.yul\":9708:9714   */\n      dup5\n        /* \"#utility.yul\":9664:9736   */\n      tag_95\n      jump\t// in\n    tag_223:\n        /* \"#utility.yul\":9119:9743   */\n      swap5\n      swap4\n      pop\n      pop\n      pop\n      pop\n      jump\t// out\n        /* \"#utility.yul\":9749:9929   */\n    tag_113:\n        /* \"#utility.yul\":9797:9874   */\n      0x4e487b7100000000000000000000000000000000000000000000000000000000\n        /* \"#utility.yul\":9794:9795   */\n      0x00\n        /* \"#utility.yul\":9787:9875   */\n      mstore\n        /* \"#utility.yul\":9894:9898   */\n      0x11\n        /* \"#utility.yul\":9891:9892   */\n      0x04\n        /* \"#utility.yul\":9884:9899   */\n      mstore\n        /* \"#utility.yul\":9918:9922   */\n      0x24\n        /* \"#utility.yul\":9915:9916   */\n      0x00\n        /* \"#utility.yul\":9908:9923   */\n      revert\n        /* \"#utility.yul\":9935:10126   */\n    tag_56:\n        /* \"#utility.yul\":9975:9979   */\n      0x00\n        /* \"#utility.yul\":9995:10015   */\n      tag_226\n        /* \"#utility.yul\":10013:10014   */\n      dup3\n        /* \"#utility.yul\":9995:10015   */\n      tag_78\n      jump\t// in\n    tag_226:\n        /* \"#utility.yul\":9990:10015   */\n      swap2\n      pop\n        /* \"#utility.yul\":10029:10049   */\n      tag_227\n        /* \"#utility.yul\":10047:10048   */\n      dup4\n        /* \"#utility.yul\":10029:10049   */\n      tag_78\n      jump\t// in\n    tag_227:\n        /* \"#utility.yul\":10024:10049   */\n      swap3\n      pop\n        /* \"#utility.yul\":10068:10069   */\n      dup3\n        /* \"#utility.yul\":10065:10066   */\n      dup3\n        /* \"#utility.yul\":10062:10070   */\n      lt\n        /* \"#utility.yul\":10059:10093   */\n      iszero\n      tag_228\n      jumpi\n        /* \"#utility.yul\":10073:10091   */\n      tag_229\n      tag_113\n      jump\t// in\n    tag_229:\n        /* \"#utility.yul\":10059:10093   */\n    tag_228:\n        /* \"#utility.yul\":10118:10119   */\n      dup3\n        /* \"#utility.yul\":10115:10116   */\n      dup3\n        /* \"#utility.yul\":10111:10120   */\n      sub\n        /* \"#utility.yul\":10103:10120   */\n      swap1\n      pop\n        /* \"#utility.yul\":9935:10126   */\n      swap3\n      swap2\n      pop\n      pop\n      jump\t// out\n        /* \"#utility.yul\":10132:10312   */\n    tag_59:\n        /* \"#utility.yul\":10180:10257   */\n      0x4e487b7100000000000000000000000000000000000000000000000000000000\n        /* \"#utility.yul\":10177:10178   */\n      0x00\n        /* \"#utility.yul\":10170:10258   */\n      mstore\n        /* \"#utility.yul\":10277:10281   */\n      0x32\n        /* \"#utility.yul\":10274:10275   */\n      0x04\n        /* \"#utility.yul\":10267:10282   */\n      mstore\n        /* \"#utility.yul\":10301:10305   */\n      0x24\n        /* \"#utility.yul\":10298:10299   */\n      0x00\n        /* \"#utility.yul\":10291:10306   */\n      revert\n        /* \"#utility.yul\":10318:10498   */\n    tag_66:\n        /* \"#utility.yul\":10366:10443   */\n      0x4e487b7100000000000000000000000000000000000000000000000000000000\n        /* \"#utility.yul\":10363:10364   */\n      0x00\n        /* \"#utility.yul\":10356:10444   */\n      mstore\n        /* \"#utility.yul\":10463:10467   */\n      0x31\n        /* \"#utility.yul\":10460:10461   */\n      0x04\n        /* \"#utility.yul\":10453:10468   */\n      mstore\n        /* \"#utility.yul\":10487:10491   */\n      0x24\n        /* \"#utility.yul\":10484:10485   */\n      0x00\n        /* \"#utility.yul\":10477:10492   */\n      revert\n    stop\n\n    sub_0: assembly {\n            /* \"E-timetable.sol\":9596:12654  contract Group{... */\n          mstore(0x40, 0x80)\n            /* \"E-timetable.sol\":10196:10460  constructor(string memory gname, string memory mname, address _manager){... */\n          callvalue\n          dup1\n          iszero\n          tag_1\n          jumpi\n          0x00\n          dup1\n          revert\n        tag_1:\n          pop\n          mload(0x40)\n          sub(codesize, bytecodeSize)\n          dup1\n          bytecodeSize\n          dup4\n          codecopy\n          dup2\n          dup2\n          add\n          0x40\n          mstore\n          dup2\n          add\n          swap1\n          tag_2\n          swap2\n          swap1\n          tag_3\n          jump\t// in\n        tag_2:\n            /* \"E-timetable.sol\":10288:10296  _manager */\n          dup1\n            /* \"E-timetable.sol\":10278:10285  manager */\n          0x02\n          0x00\n            /* \"E-timetable.sol\":10278:10296  manager = _manager */\n          0x0100\n          exp\n          dup2\n          sload\n          dup2\n          0xffffffffffffffffffffffffffffffffffffffff\n          mul\n          not\n          and\n          swap1\n          dup4\n          0xffffffffffffffffffffffffffffffffffffffff\n          and\n          mul\n          or\n          swap1\n          sstore\n          pop\n            /* \"E-timetable.sol\":10319:10324  gname */\n          dup3\n            /* \"E-timetable.sol\":10307:10316  groupName */\n          0x00\n            /* \"E-timetable.sol\":10307:10324  groupName = gname */\n          swap1\n          dup1\n          mload\n          swap1\n          0x20\n          add\n          swap1\n          tag_6\n          swap3\n          swap2\n          swap1\n          tag_7\n          jump\t// in\n        tag_6:\n          pop\n            /* \"E-timetable.sol\":10335:10342  members */\n          0x01\n            /* \"E-timetable.sol\":10348:10356  _manager */\n          dup2\n            /* \"E-timetable.sol\":10335:10357  members.push(_manager) */\n          swap1\n          dup1\n          0x01\n          dup2\n          sload\n          add\n          dup1\n          dup3\n          sstore\n          dup1\n          swap2\n          pop\n          pop\n          0x01\n          swap1\n          sub\n          swap1\n          0x00\n          mstore\n          keccak256(0x00, 0x20)\n          add\n          0x00\n          swap1\n          swap2\n          swap1\n          swap2\n          swap1\n          swap2\n          0x0100\n          exp\n          dup2\n          sload\n          dup2\n          0xffffffffffffffffffffffffffffffffffffffff\n          mul\n          not\n          and\n          swap1\n          dup4\n          0xffffffffffffffffffffffffffffffffffffffff\n          and\n          mul\n          or\n          swap1\n          sstore\n          pop\n            /* \"E-timetable.sol\":10391:10396  mname */\n          dup2\n            /* \"E-timetable.sol\":10368:10378  memberName */\n          0x04\n            /* \"E-timetable.sol\":10368:10388  memberName[_manager] */\n          0x00\n            /* \"E-timetable.sol\":10379:10387  _manager */\n          dup4\n            /* \"E-timetable.sol\":10368:10388  memberName[_manager] */\n          0xffffffffffffffffffffffffffffffffffffffff\n          and\n          0xffffffffffffffffffffffffffffffffffffffff\n          and\n          dup2\n          mstore\n          0x20\n          add\n          swap1\n          dup2\n          mstore\n          0x20\n          add\n          0x00\n          keccak256\n            /* \"E-timetable.sol\":10368:10396  memberName[_manager] = mname */\n          swap1\n          dup1\n          mload\n          swap1\n          0x20\n          add\n          swap1\n          tag_9\n          swap3\n          swap2\n          swap1\n          tag_7\n          jump\t// in\n        tag_9:\n          pop\n            /* \"E-timetable.sol\":10436:10452  Permission.ADMIN */\n          0x02\n            /* \"E-timetable.sol\":10407:10423  memberPermission */\n          0x03\n            /* \"E-timetable.sol\":10407:10433  memberPermission[_manager] */\n          0x00\n            /* \"E-timetable.sol\":10424:10432  _manager */\n          dup4\n            /* \"E-timetable.sol\":10407:10433  memberPermission[_manager] */\n          0xffffffffffffffffffffffffffffffffffffffff\n          and\n          0xffffffffffffffffffffffffffffffffffffffff\n          and\n          dup2\n          mstore\n          0x20\n          add\n          swap1\n          dup2\n          mstore\n          0x20\n          add\n          0x00\n          keccak256\n          0x00\n            /* \"E-timetable.sol\":10407:10452  memberPermission[_manager] = Permission.ADMIN */\n          0x0100\n          exp\n          dup2\n          sload\n          dup2\n          0xff\n          mul\n          not\n          and\n          swap1\n          dup4\n          0x02\n          dup2\n          gt\n          iszero\n          tag_10\n          jumpi\n          tag_11\n          tag_12\n          jump\t// in\n        tag_11:\n        tag_10:\n          mul\n          or\n          swap1\n          sstore\n          pop\n            /* \"E-timetable.sol\":10196:10460  constructor(string memory gname, string memory mname, address _manager){... */\n          pop\n          pop\n          pop\n            /* \"E-timetable.sol\":9596:12654  contract Group{... */\n          jump(tag_13)\n        tag_7:\n          dup3\n          dup1\n          sload\n          tag_14\n          swap1\n          tag_15\n          jump\t// in\n        tag_14:\n          swap1\n          0x00\n          mstore\n          keccak256(0x00, 0x20)\n          swap1\n          0x1f\n          add\n          0x20\n          swap1\n          div\n          dup2\n          add\n          swap3\n          dup3\n          tag_17\n          jumpi\n          0x00\n          dup6\n          sstore\n          jump(tag_16)\n        tag_17:\n          dup3\n          0x1f\n          lt\n          tag_18\n          jumpi\n          dup1\n          mload\n          not(0xff)\n          and\n          dup4\n          dup1\n          add\n          or\n          dup6\n          sstore\n          jump(tag_16)\n        tag_18:\n          dup3\n          dup1\n          add\n          0x01\n          add\n          dup6\n          sstore\n          dup3\n          iszero\n          tag_16\n          jumpi\n          swap2\n          dup3\n          add\n        tag_19:\n          dup3\n          dup2\n          gt\n          iszero\n          tag_20\n          jumpi\n          dup3\n          mload\n          dup3\n          sstore\n          swap2\n          0x20\n          add\n          swap2\n          swap1\n          0x01\n          add\n          swap1\n          jump(tag_19)\n        tag_20:\n        tag_16:\n          pop\n          swap1\n          pop\n          tag_21\n          swap2\n          swap1\n          tag_22\n          jump\t// in\n        tag_21:\n          pop\n          swap1\n          jump\t// out\n        tag_22:\n        tag_23:\n          dup1\n          dup3\n          gt\n          iszero\n          tag_24\n          jumpi\n          0x00\n          dup2\n          0x00\n          swap1\n          sstore\n          pop\n          0x01\n          add\n          jump(tag_23)\n        tag_24:\n          pop\n          swap1\n          jump\t// out\n            /* \"#utility.yul\":7:82   */\n        tag_25:\n            /* \"#utility.yul\":40:46   */\n          0x00\n            /* \"#utility.yul\":73:75   */\n          0x40\n            /* \"#utility.yul\":67:76   */\n          mload\n            /* \"#utility.yul\":57:76   */\n          swap1\n          pop\n            /* \"#utility.yul\":7:82   */\n          swap1\n          jump\t// out\n            /* \"#utility.yul\":88:205   */\n        tag_26:\n            /* \"#utility.yul\":197:198   */\n          0x00\n            /* \"#utility.yul\":194:195   */\n          dup1\n            /* \"#utility.yul\":187:199   */\n          revert\n            /* \"#utility.yul\":211:328   */\n        tag_27:\n            /* \"#utility.yul\":320:321   */\n          0x00\n            /* \"#utility.yul\":317:318   */\n          dup1\n            /* \"#utility.yul\":310:322   */\n          revert\n            /* \"#utility.yul\":334:451   */\n        tag_28:\n            /* \"#utility.yul\":443:444   */\n          0x00\n            /* \"#utility.yul\":440:441   */\n          dup1\n            /* \"#utility.yul\":433:445   */\n          revert\n            /* \"#utility.yul\":457:574   */\n        tag_29:\n            /* \"#utility.yul\":566:567   */\n          0x00\n            /* \"#utility.yul\":563:564   */\n          dup1\n            /* \"#utility.yul\":556:568   */\n          revert\n            /* \"#utility.yul\":580:682   */\n        tag_30:\n            /* \"#utility.yul\":621:627   */\n          0x00\n            /* \"#utility.yul\":672:674   */\n          0x1f\n            /* \"#utility.yul\":668:675   */\n          not\n            /* \"#utility.yul\":663:665   */\n          0x1f\n            /* \"#utility.yul\":656:661   */\n          dup4\n            /* \"#utility.yul\":652:666   */\n          add\n            /* \"#utility.yul\":648:676   */\n          and\n            /* \"#utility.yul\":638:676   */\n          swap1\n          pop\n            /* \"#utility.yul\":580:682   */\n          swap2\n          swap1\n          pop\n          jump\t// out\n            /* \"#utility.yul\":688:868   */\n        tag_31:\n            /* \"#utility.yul\":736:813   */\n          0x4e487b7100000000000000000000000000000000000000000000000000000000\n            /* \"#utility.yul\":733:734   */\n          0x00\n            /* \"#utility.yul\":726:814   */\n          mstore\n            /* \"#utility.yul\":833:837   */\n          0x41\n            /* \"#utility.yul\":830:831   */\n          0x04\n            /* \"#utility.yul\":823:838   */\n          mstore\n            /* \"#utility.yul\":857:861   */\n          0x24\n            /* \"#utility.yul\":854:855   */\n          0x00\n            /* \"#utility.yul\":847:862   */\n          revert\n            /* \"#utility.yul\":874:1155   */\n        tag_32:\n            /* \"#utility.yul\":957:984   */\n          tag_52\n            /* \"#utility.yul\":979:983   */\n          dup3\n            /* \"#utility.yul\":957:984   */\n          tag_30\n          jump\t// in\n        tag_52:\n            /* \"#utility.yul\":949:955   */\n          dup2\n            /* \"#utility.yul\":945:985   */\n          add\n            /* \"#utility.yul\":1087:1093   */\n          dup2\n            /* \"#utility.yul\":1075:1085   */\n          dup2\n            /* \"#utility.yul\":1072:1094   */\n          lt\n            /* \"#utility.yul\":1051:1069   */\n          0xffffffffffffffff\n            /* \"#utility.yul\":1039:1049   */\n          dup3\n            /* \"#utility.yul\":1036:1070   */\n          gt\n            /* \"#utility.yul\":1033:1095   */\n          or\n            /* \"#utility.yul\":1030:1118   */\n          iszero\n          tag_53\n          jumpi\n            /* \"#utility.yul\":1098:1116   */\n          tag_54\n          tag_31\n          jump\t// in\n        tag_54:\n            /* \"#utility.yul\":1030:1118   */\n        tag_53:\n            /* \"#utility.yul\":1138:1148   */\n          dup1\n            /* \"#utility.yul\":1134:1136   */\n          0x40\n            /* \"#utility.yul\":1127:1149   */\n          mstore\n            /* \"#utility.yul\":917:1155   */\n          pop\n            /* \"#utility.yul\":874:1155   */\n          pop\n          pop\n          jump\t// out\n            /* \"#utility.yul\":1161:1290   */\n        tag_33:\n            /* \"#utility.yul\":1195:1201   */\n          0x00\n            /* \"#utility.yul\":1222:1242   */\n          tag_56\n          tag_25\n          jump\t// in\n        tag_56:\n            /* \"#utility.yul\":1212:1242   */\n          swap1\n          pop\n            /* \"#utility.yul\":1251:1284   */\n          tag_57\n            /* \"#utility.yul\":1279:1283   */\n          dup3\n            /* \"#utility.yul\":1271:1277   */\n          dup3\n            /* \"#utility.yul\":1251:1284   */\n          tag_32\n          jump\t// in\n        tag_57:\n            /* \"#utility.yul\":1161:1290   */\n          swap2\n          swap1\n          pop\n          jump\t// out\n            /* \"#utility.yul\":1296:1604   */\n        tag_34:\n            /* \"#utility.yul\":1358:1362   */\n          0x00\n            /* \"#utility.yul\":1448:1466   */\n          0xffffffffffffffff\n            /* \"#utility.yul\":1440:1446   */\n          dup3\n            /* \"#utility.yul\":1437:1467   */\n          gt\n            /* \"#utility.yul\":1434:1490   */\n          iszero\n          tag_59\n          jumpi\n            /* \"#utility.yul\":1470:1488   */\n          tag_60\n          tag_31\n          jump\t// in\n        tag_60:\n            /* \"#utility.yul\":1434:1490   */\n        tag_59:\n            /* \"#utility.yul\":1508:1537   */\n          tag_61\n            /* \"#utility.yul\":1530:1536   */\n          dup3\n            /* \"#utility.yul\":1508:1537   */\n          tag_30\n          jump\t// in\n        tag_61:\n            /* \"#utility.yul\":1500:1537   */\n          swap1\n          pop\n            /* \"#utility.yul\":1592:1596   */\n          0x20\n            /* \"#utility.yul\":1586:1590   */\n          dup2\n            /* \"#utility.yul\":1582:1597   */\n          add\n            /* \"#utility.yul\":1574:1597   */\n          swap1\n          pop\n            /* \"#utility.yul\":1296:1604   */\n          swap2\n          swap1\n          pop\n          jump\t// out\n            /* \"#utility.yul\":1610:1917   */\n        tag_35:\n            /* \"#utility.yul\":1678:1679   */\n          0x00\n            /* \"#utility.yul\":1688:1801   */\n        tag_63:\n            /* \"#utility.yul\":1702:1708   */\n          dup4\n            /* \"#utility.yul\":1699:1700   */\n          dup2\n            /* \"#utility.yul\":1696:1709   */\n          lt\n            /* \"#utility.yul\":1688:1801   */\n          iszero\n          tag_65\n          jumpi\n            /* \"#utility.yul\":1787:1788   */\n          dup1\n            /* \"#utility.yul\":1782:1785   */\n          dup3\n            /* \"#utility.yul\":1778:1789   */\n          add\n            /* \"#utility.yul\":1772:1790   */\n          mload\n            /* \"#utility.yul\":1768:1769   */\n          dup2\n            /* \"#utility.yul\":1763:1766   */\n          dup5\n            /* \"#utility.yul\":1759:1770   */\n          add\n            /* \"#utility.yul\":1752:1791   */\n          mstore\n            /* \"#utility.yul\":1724:1726   */\n          0x20\n            /* \"#utility.yul\":1721:1722   */\n          dup2\n            /* \"#utility.yul\":1717:1727   */\n          add\n            /* \"#utility.yul\":1712:1727   */\n          swap1\n          pop\n            /* \"#utility.yul\":1688:1801   */\n          jump(tag_63)\n        tag_65:\n            /* \"#utility.yul\":1819:1825   */\n          dup4\n            /* \"#utility.yul\":1816:1817   */\n          dup2\n            /* \"#utility.yul\":1813:1826   */\n          gt\n            /* \"#utility.yul\":1810:1911   */\n          iszero\n          tag_66\n          jumpi\n            /* \"#utility.yul\":1899:1900   */\n          0x00\n            /* \"#utility.yul\":1890:1896   */\n          dup5\n            /* \"#utility.yul\":1885:1888   */\n          dup5\n            /* \"#utility.yul\":1881:1897   */\n          add\n            /* \"#utility.yul\":1874:1901   */\n          mstore\n            /* \"#utility.yul\":1810:1911   */\n        tag_66:\n            /* \"#utility.yul\":1659:1917   */\n          pop\n            /* \"#utility.yul\":1610:1917   */\n          pop\n          pop\n          pop\n          jump\t// out\n            /* \"#utility.yul\":1923:2344   */\n        tag_36:\n            /* \"#utility.yul\":2012:2017   */\n          0x00\n            /* \"#utility.yul\":2037:2103   */\n          tag_68\n            /* \"#utility.yul\":2053:2102   */\n          tag_69\n            /* \"#utility.yul\":2095:2101   */\n          dup5\n            /* \"#utility.yul\":2053:2102   */\n          tag_34\n          jump\t// in\n        tag_69:\n            /* \"#utility.yul\":2037:2103   */\n          tag_33\n          jump\t// in\n        tag_68:\n            /* \"#utility.yul\":2028:2103   */\n          swap1\n          pop\n            /* \"#utility.yul\":2126:2132   */\n          dup3\n            /* \"#utility.yul\":2119:2124   */\n          dup2\n            /* \"#utility.yul\":2112:2133   */\n          mstore\n            /* \"#utility.yul\":2164:2168   */\n          0x20\n            /* \"#utility.yul\":2157:2162   */\n          dup2\n            /* \"#utility.yul\":2153:2169   */\n          add\n            /* \"#utility.yul\":2202:2205   */\n          dup5\n            /* \"#utility.yul\":2193:2199   */\n          dup5\n            /* \"#utility.yul\":2188:2191   */\n          dup5\n            /* \"#utility.yul\":2184:2200   */\n          add\n            /* \"#utility.yul\":2181:2206   */\n          gt\n            /* \"#utility.yul\":2178:2290   */\n          iszero\n          tag_70\n          jumpi\n            /* \"#utility.yul\":2209:2288   */\n          tag_71\n          tag_29\n          jump\t// in\n        tag_71:\n            /* \"#utility.yul\":2178:2290   */\n        tag_70:\n            /* \"#utility.yul\":2299:2338   */\n          tag_72\n            /* \"#utility.yul\":2331:2337   */\n          dup5\n            /* \"#utility.yul\":2326:2329   */\n          dup3\n            /* \"#utility.yul\":2321:2324   */\n          dup6\n            /* \"#utility.yul\":2299:2338   */\n          tag_35\n          jump\t// in\n        tag_72:\n            /* \"#utility.yul\":2018:2344   */\n          pop\n            /* \"#utility.yul\":1923:2344   */\n          swap4\n          swap3\n          pop\n          pop\n          pop\n          jump\t// out\n            /* \"#utility.yul\":2364:2719   */\n        tag_37:\n            /* \"#utility.yul\":2431:2436   */\n          0x00\n            /* \"#utility.yul\":2480:2483   */\n          dup3\n            /* \"#utility.yul\":2473:2477   */\n          0x1f\n            /* \"#utility.yul\":2465:2471   */\n          dup4\n            /* \"#utility.yul\":2461:2478   */\n          add\n            /* \"#utility.yul\":2457:2484   */\n          slt\n            /* \"#utility.yul\":2447:2569   */\n          tag_74\n          jumpi\n            /* \"#utility.yul\":2488:2567   */\n          tag_75\n          tag_28\n          jump\t// in\n        tag_75:\n            /* \"#utility.yul\":2447:2569   */\n        tag_74:\n            /* \"#utility.yul\":2598:2604   */\n          dup2\n            /* \"#utility.yul\":2592:2605   */\n          mload\n            /* \"#utility.yul\":2623:2713   */\n          tag_76\n            /* \"#utility.yul\":2709:2712   */\n          dup5\n            /* \"#utility.yul\":2701:2707   */\n          dup3\n            /* \"#utility.yul\":2694:2698   */\n          0x20\n            /* \"#utility.yul\":2686:2692   */\n          dup7\n            /* \"#utility.yul\":2682:2699   */\n          add\n            /* \"#utility.yul\":2623:2713   */\n          tag_36\n          jump\t// in\n        tag_76:\n            /* \"#utility.yul\":2614:2713   */\n          swap2\n          pop\n            /* \"#utility.yul\":2437:2719   */\n          pop\n            /* \"#utility.yul\":2364:2719   */\n          swap3\n          swap2\n          pop\n          pop\n          jump\t// out\n            /* \"#utility.yul\":2725:2851   */\n        tag_38:\n            /* \"#utility.yul\":2762:2769   */\n          0x00\n            /* \"#utility.yul\":2802:2844   */\n          0xffffffffffffffffffffffffffffffffffffffff\n            /* \"#utility.yul\":2795:2800   */\n          dup3\n            /* \"#utility.yul\":2791:2845   */\n          and\n            /* \"#utility.yul\":2780:2845   */\n          swap1\n          pop\n            /* \"#utility.yul\":2725:2851   */\n          swap2\n          swap1\n          pop\n          jump\t// out\n            /* \"#utility.yul\":2857:2953   */\n        tag_39:\n            /* \"#utility.yul\":2894:2901   */\n          0x00\n            /* \"#utility.yul\":2923:2947   */\n          tag_79\n            /* \"#utility.yul\":2941:2946   */\n          dup3\n            /* \"#utility.yul\":2923:2947   */\n          tag_38\n          jump\t// in\n        tag_79:\n            /* \"#utility.yul\":2912:2947   */\n          swap1\n          pop\n            /* \"#utility.yul\":2857:2953   */\n          swap2\n          swap1\n          pop\n          jump\t// out\n            /* \"#utility.yul\":2959:3081   */\n        tag_40:\n            /* \"#utility.yul\":3032:3056   */\n          tag_81\n            /* \"#utility.yul\":3050:3055   */\n          dup2\n            /* \"#utility.yul\":3032:3056   */\n          tag_39\n          jump\t// in\n        tag_81:\n            /* \"#utility.yul\":3025:3030   */\n          dup2\n            /* \"#utility.yul\":3022:3057   */\n          eq\n            /* \"#utility.yul\":3012:3075   */\n          tag_82\n          jumpi\n            /* \"#utility.yul\":3071:3072   */\n          0x00\n            /* \"#utility.yul\":3068:3069   */\n          dup1\n            /* \"#utility.yul\":3061:3073   */\n          revert\n            /* \"#utility.yul\":3012:3075   */\n        tag_82:\n            /* \"#utility.yul\":2959:3081   */\n          pop\n          jump\t// out\n            /* \"#utility.yul\":3087:3230   */\n        tag_41:\n            /* \"#utility.yul\":3144:3149   */\n          0x00\n            /* \"#utility.yul\":3175:3181   */\n          dup2\n            /* \"#utility.yul\":3169:3182   */\n          mload\n            /* \"#utility.yul\":3160:3182   */\n          swap1\n          pop\n            /* \"#utility.yul\":3191:3224   */\n          tag_84\n            /* \"#utility.yul\":3218:3223   */\n          dup2\n            /* \"#utility.yul\":3191:3224   */\n          tag_40\n          jump\t// in\n        tag_84:\n            /* \"#utility.yul\":3087:3230   */\n          swap3\n          swap2\n          pop\n          pop\n          jump\t// out\n            /* \"#utility.yul\":3236:4245   */\n        tag_3:\n            /* \"#utility.yul\":3344:3350   */\n          0x00\n            /* \"#utility.yul\":3352:3358   */\n          dup1\n            /* \"#utility.yul\":3360:3366   */\n          0x00\n            /* \"#utility.yul\":3409:3411   */\n          0x60\n            /* \"#utility.yul\":3397:3406   */\n          dup5\n            /* \"#utility.yul\":3388:3395   */\n          dup7\n            /* \"#utility.yul\":3384:3407   */\n          sub\n            /* \"#utility.yul\":3380:3412   */\n          slt\n            /* \"#utility.yul\":3377:3496   */\n          iszero\n          tag_86\n          jumpi\n            /* \"#utility.yul\":3415:3494   */\n          tag_87\n          tag_26\n          jump\t// in\n        tag_87:\n            /* \"#utility.yul\":3377:3496   */\n        tag_86:\n            /* \"#utility.yul\":3556:3557   */\n          0x00\n            /* \"#utility.yul\":3545:3554   */\n          dup5\n            /* \"#utility.yul\":3541:3558   */\n          add\n            /* \"#utility.yul\":3535:3559   */\n          mload\n            /* \"#utility.yul\":3586:3604   */\n          0xffffffffffffffff\n            /* \"#utility.yul\":3578:3584   */\n          dup2\n            /* \"#utility.yul\":3575:3605   */\n          gt\n            /* \"#utility.yul\":3572:3689   */\n          iszero\n          tag_88\n          jumpi\n            /* \"#utility.yul\":3608:3687   */\n          tag_89\n          tag_27\n          jump\t// in\n        tag_89:\n            /* \"#utility.yul\":3572:3689   */\n        tag_88:\n            /* \"#utility.yul\":3713:3787   */\n          tag_90\n            /* \"#utility.yul\":3779:3786   */\n          dup7\n            /* \"#utility.yul\":3770:3776   */\n          dup3\n            /* \"#utility.yul\":3759:3768   */\n          dup8\n            /* \"#utility.yul\":3755:3777   */\n          add\n            /* \"#utility.yul\":3713:3787   */\n          tag_37\n          jump\t// in\n        tag_90:\n            /* \"#utility.yul\":3703:3787   */\n          swap4\n          pop\n            /* \"#utility.yul\":3506:3797   */\n          pop\n            /* \"#utility.yul\":3857:3859   */\n          0x20\n            /* \"#utility.yul\":3846:3855   */\n          dup5\n            /* \"#utility.yul\":3842:3860   */\n          add\n            /* \"#utility.yul\":3836:3861   */\n          mload\n            /* \"#utility.yul\":3888:3906   */\n          0xffffffffffffffff\n            /* \"#utility.yul\":3880:3886   */\n          dup2\n            /* \"#utility.yul\":3877:3907   */\n          gt\n            /* \"#utility.yul\":3874:3991   */\n          iszero\n          tag_91\n          jumpi\n            /* \"#utility.yul\":3910:3989   */\n          tag_92\n          tag_27\n          jump\t// in\n        tag_92:\n            /* \"#utility.yul\":3874:3991   */\n        tag_91:\n            /* \"#utility.yul\":4015:4089   */\n          tag_93\n            /* \"#utility.yul\":4081:4088   */\n          dup7\n            /* \"#utility.yul\":4072:4078   */\n          dup3\n            /* \"#utility.yul\":4061:4070   */\n          dup8\n            /* \"#utility.yul\":4057:4079   */\n          add\n            /* \"#utility.yul\":4015:4089   */\n          tag_37\n          jump\t// in\n        tag_93:\n            /* \"#utility.yul\":4005:4089   */\n          swap3\n          pop\n            /* \"#utility.yul\":3807:4099   */\n          pop\n            /* \"#utility.yul\":4138:4140   */\n          0x40\n            /* \"#utility.yul\":4164:4228   */\n          tag_94\n            /* \"#utility.yul\":4220:4227   */\n          dup7\n            /* \"#utility.yul\":4211:4217   */\n          dup3\n            /* \"#utility.yul\":4200:4209   */\n          dup8\n            /* \"#utility.yul\":4196:4218   */\n          add\n            /* \"#utility.yul\":4164:4228   */\n          tag_41\n          jump\t// in\n        tag_94:\n            /* \"#utility.yul\":4154:4228   */\n          swap2\n          pop\n            /* \"#utility.yul\":4109:4238   */\n          pop\n            /* \"#utility.yul\":3236:4245   */\n          swap3\n          pop\n          swap3\n          pop\n          swap3\n          jump\t// out\n            /* \"#utility.yul\":4251:4431   */\n        tag_12:\n            /* \"#utility.yul\":4299:4376   */\n          0x4e487b7100000000000000000000000000000000000000000000000000000000\n            /* \"#utility.yul\":4296:4297   */\n          0x00\n            /* \"#utility.yul\":4289:4377   */\n          mstore\n            /* \"#utility.yul\":4396:4400   */\n          0x21\n            /* \"#utility.yul\":4393:4394   */\n          0x04\n            /* \"#utility.yul\":4386:4401   */\n          mstore\n            /* \"#utility.yul\":4420:4424   */\n          0x24\n            /* \"#utility.yul\":4417:4418   */\n          0x00\n            /* \"#utility.yul\":4410:4425   */\n          revert\n            /* \"#utility.yul\":4437:4617   */\n        tag_42:\n            /* \"#utility.yul\":4485:4562   */\n          0x4e487b7100000000000000000000000000000000000000000000000000000000\n            /* \"#utility.yul\":4482:4483   */\n          0x00\n            /* \"#utility.yul\":4475:4563   */\n          mstore\n            /* \"#utility.yul\":4582:4586   */\n          0x22\n            /* \"#utility.yul\":4579:4580   */\n          0x04\n            /* \"#utility.yul\":4572:4587   */\n          mstore\n            /* \"#utility.yul\":4606:4610   */\n          0x24\n            /* \"#utility.yul\":4603:4604   */\n          0x00\n            /* \"#utility.yul\":4596:4611   */\n          revert\n            /* \"#utility.yul\":4623:4943   */\n        tag_15:\n            /* \"#utility.yul\":4667:4673   */\n          0x00\n            /* \"#utility.yul\":4704:4705   */\n          0x02\n            /* \"#utility.yul\":4698:4702   */\n          dup3\n            /* \"#utility.yul\":4694:4706   */\n          div\n            /* \"#utility.yul\":4684:4706   */\n          swap1\n          pop\n            /* \"#utility.yul\":4751:4752   */\n          0x01\n            /* \"#utility.yul\":4745:4749   */\n          dup3\n            /* \"#utility.yul\":4741:4753   */\n          and\n            /* \"#utility.yul\":4772:4790   */\n          dup1\n            /* \"#utility.yul\":4762:4843   */\n          tag_98\n          jumpi\n            /* \"#utility.yul\":4828:4832   */\n          0x7f\n            /* \"#utility.yul\":4820:4826   */\n          dup3\n            /* \"#utility.yul\":4816:4833   */\n          and\n            /* \"#utility.yul\":4806:4833   */\n          swap2\n          pop\n            /* \"#utility.yul\":4762:4843   */\n        tag_98:\n            /* \"#utility.yul\":4890:4892   */\n          0x20\n            /* \"#utility.yul\":4882:4888   */\n          dup3\n            /* \"#utility.yul\":4879:4893   */\n          lt\n            /* \"#utility.yul\":4859:4877   */\n          dup2\n            /* \"#utility.yul\":4856:4894   */\n          sub\n            /* \"#utility.yul\":4853:4937   */\n          tag_99\n          jumpi\n            /* \"#utility.yul\":4909:4927   */\n          tag_100\n          tag_42\n          jump\t// in\n        tag_100:\n            /* \"#utility.yul\":4853:4937   */\n        tag_99:\n            /* \"#utility.yul\":4674:4943   */\n          pop\n            /* \"#utility.yul\":4623:4943   */\n          swap2\n          swap1\n          pop\n          jump\t// out\n            /* \"E-timetable.sol\":9596:12654  contract Group{... */\n        tag_13:\n          dataSize(sub_0)\n          dup1\n          dataOffset(sub_0)\n          0x00\n          codecopy\n          0x00\n          return\n        stop\n\n        sub_0: assembly {\n                /* \"E-timetable.sol\":9596:12654  contract Group{... */\n              mstore(0x40, 0x80)\n              callvalue\n              dup1\n              iszero\n              tag_1\n              jumpi\n              0x00\n              dup1\n              revert\n            tag_1:\n              pop\n              jumpi(tag_2, lt(calldatasize, 0x04))\n              shr(0xe0, calldataload(0x00))\n              dup1\n              0x9a8bf4e0\n              gt\n              tag_11\n              jumpi\n              dup1\n              0x9a8bf4e0\n              eq\n              tag_7\n              jumpi\n              dup1\n              0x9eab5253\n              eq\n              tag_8\n              jumpi\n              dup1\n              0xa3fbbaae\n              eq\n              tag_9\n              jumpi\n              dup1\n              0xae026d95\n              eq\n              tag_10\n              jumpi\n              jump(tag_2)\n            tag_11:\n              dup1\n              0x1b760719\n              eq\n              tag_3\n              jumpi\n              dup1\n              0x481c6a75\n              eq\n              tag_4\n              jumpi\n              dup1\n              0x7debf5c6\n              eq\n              tag_5\n              jumpi\n              dup1\n              0x843c608d\n              eq\n              tag_6\n              jumpi\n            tag_2:\n              0x00\n              dup1\n              revert\n                /* \"E-timetable.sol\":10487:10744  function addMember(address memberAddress, string memory name, uint permission) public adminRestricted{... */\n            tag_3:\n              tag_12\n              0x04\n              dup1\n              calldatasize\n              sub\n              dup2\n              add\n              swap1\n              tag_13\n              swap2\n              swap1\n              tag_14\n              jump\t// in\n            tag_13:\n              tag_15\n              jump\t// in\n            tag_12:\n              stop\n                /* \"E-timetable.sol\":9774:9796  address public manager */\n            tag_4:\n              tag_16\n              tag_17\n              jump\t// in\n            tag_16:\n              mload(0x40)\n              tag_18\n              swap2\n              swap1\n              tag_19\n              jump\t// in\n            tag_18:\n              mload(0x40)\n              dup1\n              swap2\n              sub\n              swap1\n              return\n                /* \"E-timetable.sol\":11345:11567  function updateMember(address memberAddress, string memory name, uint permission) public adminRestricted{... */\n            tag_5:\n              tag_20\n              0x04\n              dup1\n              calldatasize\n              sub\n              dup2\n              add\n              swap1\n              tag_21\n              swap2\n              swap1\n              tag_14\n              jump\t// in\n            tag_21:\n              tag_22\n              jump\t// in\n            tag_20:\n              stop\n                /* \"E-timetable.sol\":12016:12124  function getGroupName() public view viewRestricted returns(string memory){... */\n            tag_6:\n              tag_23\n              tag_24\n              jump\t// in\n            tag_23:\n              mload(0x40)\n              tag_25\n              swap2\n              swap1\n              tag_26\n              jump\t// in\n            tag_25:\n              mload(0x40)\n              dup1\n              swap2\n              sub\n              swap1\n              return\n                /* \"E-timetable.sol\":11617:11985  function deleteMember(uint index, address memberAddress) public adminRestricted{... */\n            tag_7:\n              tag_27\n              0x04\n              dup1\n              calldatasize\n              sub\n              dup2\n              add\n              swap1\n              tag_28\n              swap2\n              swap1\n              tag_29\n              jump\t// in\n            tag_28:\n              tag_30\n              jump\t// in\n            tag_27:\n              stop\n                /* \"E-timetable.sol\":10776:11303  function getMembers() public view viewRestricted returns(address[] memory membersAddress, string[] memory names, uint[] memory permissions){... */\n            tag_8:\n              tag_31\n              tag_32\n              jump\t// in\n            tag_31:\n              mload(0x40)\n              tag_33\n              swap4\n              swap3\n              swap2\n              swap1\n              tag_34\n              jump\t// in\n            tag_33:\n              mload(0x40)\n              dup1\n              swap2\n              sub\n              swap1\n              return\n                /* \"E-timetable.sol\":12302:12651  function changeManager(address newManager) public{... */\n            tag_9:\n              tag_35\n              0x04\n              dup1\n              calldatasize\n              sub\n              dup2\n              add\n              swap1\n              tag_36\n              swap2\n              swap1\n              tag_37\n              jump\t// in\n            tag_36:\n              tag_38\n              jump\t// in\n            tag_35:\n              stop\n                /* \"E-timetable.sol\":12158:12260  function updateGroupName(string memory name) public adminRestricted{... */\n            tag_10:\n              tag_39\n              0x04\n              dup1\n              calldatasize\n              sub\n              dup2\n              add\n              swap1\n              tag_40\n              swap2\n              swap1\n              tag_41\n              jump\t// in\n            tag_40:\n              tag_42\n              jump\t// in\n            tag_39:\n              stop\n                /* \"E-timetable.sol\":10487:10744  function addMember(address memberAddress, string memory name, uint permission) public adminRestricted{... */\n            tag_15:\n                /* \"E-timetable.sol\":9993:10009  Permission.ADMIN */\n              0x02\n                /* \"E-timetable.sol\":9961:10009  memberPermission[msg.sender] >= Permission.ADMIN */\n              dup1\n              dup2\n              gt\n              iszero\n              tag_44\n              jumpi\n              tag_45\n              tag_46\n              jump\t// in\n            tag_45:\n            tag_44:\n                /* \"E-timetable.sol\":9961:9977  memberPermission */\n              0x03\n                /* \"E-timetable.sol\":9961:9989  memberPermission[msg.sender] */\n              0x00\n                /* \"E-timetable.sol\":9978:9988  msg.sender */\n              caller\n                /* \"E-timetable.sol\":9961:9989  memberPermission[msg.sender] */\n              0xffffffffffffffffffffffffffffffffffffffff\n              and\n              0xffffffffffffffffffffffffffffffffffffffff\n              and\n              dup2\n              mstore\n              0x20\n              add\n              swap1\n              dup2\n              mstore\n              0x20\n              add\n              0x00\n              keccak256\n              0x00\n              swap1\n              sload\n              swap1\n              0x0100\n              exp\n              swap1\n              div\n              0xff\n              and\n                /* \"E-timetable.sol\":9961:10009  memberPermission[msg.sender] >= Permission.ADMIN */\n              0x02\n              dup2\n              gt\n              iszero\n              tag_47\n              jumpi\n              tag_48\n              tag_46\n              jump\t// in\n            tag_48:\n            tag_47:\n              lt\n              iszero\n                /* \"E-timetable.sol\":9953:10010  require(memberPermission[msg.sender] >= Permission.ADMIN) */\n              tag_49\n              jumpi\n              0x00\n              dup1\n              revert\n            tag_49:\n                /* \"E-timetable.sol\":10599:10606  members */\n              0x01\n                /* \"E-timetable.sol\":10612:10625  memberAddress */\n              dup4\n                /* \"E-timetable.sol\":10599:10626  members.push(memberAddress) */\n              swap1\n              dup1\n              0x01\n              dup2\n              sload\n              add\n              dup1\n              dup3\n              sstore\n              dup1\n              swap2\n              pop\n              pop\n              0x01\n              swap1\n              sub\n              swap1\n              0x00\n              mstore\n              keccak256(0x00, 0x20)\n              add\n              0x00\n              swap1\n              swap2\n              swap1\n              swap2\n              swap1\n              swap2\n              0x0100\n              exp\n              dup2\n              sload\n              dup2\n              0xffffffffffffffffffffffffffffffffffffffff\n              mul\n              not\n              and\n              swap1\n              dup4\n              0xffffffffffffffffffffffffffffffffffffffff\n              and\n              mul\n              or\n              swap1\n              sstore\n              pop\n                /* \"E-timetable.sol\":10682:10692  permission */\n              dup1\n                /* \"E-timetable.sol\":10671:10693  Permission(permission) */\n              0x02\n              dup2\n              gt\n              iszero\n              tag_52\n              jumpi\n              tag_53\n              tag_46\n              jump\t// in\n            tag_53:\n            tag_52:\n                /* \"E-timetable.sol\":10637:10653  memberPermission */\n              0x03\n                /* \"E-timetable.sol\":10637:10668  memberPermission[memberAddress] */\n              0x00\n                /* \"E-timetable.sol\":10654:10667  memberAddress */\n              dup6\n                /* \"E-timetable.sol\":10637:10668  memberPermission[memberAddress] */\n              0xffffffffffffffffffffffffffffffffffffffff\n              and\n              0xffffffffffffffffffffffffffffffffffffffff\n              and\n              dup2\n              mstore\n              0x20\n              add\n              swap1\n              dup2\n              mstore\n              0x20\n              add\n              0x00\n              keccak256\n              0x00\n                /* \"E-timetable.sol\":10637:10693  memberPermission[memberAddress] = Permission(permission) */\n              0x0100\n              exp\n              dup2\n              sload\n              dup2\n              0xff\n              mul\n              not\n              and\n              swap1\n              dup4\n              0x02\n              dup2\n              gt\n              iszero\n              tag_54\n              jumpi\n              tag_55\n              tag_46\n              jump\t// in\n            tag_55:\n            tag_54:\n              mul\n              or\n              swap1\n              sstore\n              pop\n                /* \"E-timetable.sol\":10732:10736  name */\n              dup2\n                /* \"E-timetable.sol\":10704:10714  memberName */\n              0x04\n                /* \"E-timetable.sol\":10704:10729  memberName[memberAddress] */\n              0x00\n                /* \"E-timetable.sol\":10715:10728  memberAddress */\n              dup6\n                /* \"E-timetable.sol\":10704:10729  memberName[memberAddress] */\n              0xffffffffffffffffffffffffffffffffffffffff\n              and\n              0xffffffffffffffffffffffffffffffffffffffff\n              and\n              dup2\n              mstore\n              0x20\n              add\n              swap1\n              dup2\n              mstore\n              0x20\n              add\n              0x00\n              keccak256\n                /* \"E-timetable.sol\":10704:10736  memberName[memberAddress] = name */\n              swap1\n              dup1\n              mload\n              swap1\n              0x20\n              add\n              swap1\n              tag_56\n              swap3\n              swap2\n              swap1\n              tag_57\n              jump\t// in\n            tag_56:\n              pop\n                /* \"E-timetable.sol\":10487:10744  function addMember(address memberAddress, string memory name, uint permission) public adminRestricted{... */\n              pop\n              pop\n              pop\n              jump\t// out\n                /* \"E-timetable.sol\":9774:9796  address public manager */\n            tag_17:\n              0x02\n              0x00\n              swap1\n              sload\n              swap1\n              0x0100\n              exp\n              swap1\n              div\n              0xffffffffffffffffffffffffffffffffffffffff\n              and\n              dup2\n              jump\t// out\n                /* \"E-timetable.sol\":11345:11567  function updateMember(address memberAddress, string memory name, uint permission) public adminRestricted{... */\n            tag_22:\n                /* \"E-timetable.sol\":9993:10009  Permission.ADMIN */\n              0x02\n                /* \"E-timetable.sol\":9961:10009  memberPermission[msg.sender] >= Permission.ADMIN */\n              dup1\n              dup2\n              gt\n              iszero\n              tag_59\n              jumpi\n              tag_60\n              tag_46\n              jump\t// in\n            tag_60:\n            tag_59:\n                /* \"E-timetable.sol\":9961:9977  memberPermission */\n              0x03\n                /* \"E-timetable.sol\":9961:9989  memberPermission[msg.sender] */\n              0x00\n                /* \"E-timetable.sol\":9978:9988  msg.sender */\n              caller\n                /* \"E-timetable.sol\":9961:9989  memberPermission[msg.sender] */\n              0xffffffffffffffffffffffffffffffffffffffff\n              and\n              0xffffffffffffffffffffffffffffffffffffffff\n              and\n              dup2\n              mstore\n              0x20\n              add\n              swap1\n              dup2\n              mstore\n              0x20\n              add\n              0x00\n              keccak256\n              0x00\n              swap1\n              sload\n              swap1\n              0x0100\n              exp\n              swap1\n              div\n              0xff\n              and\n                /* \"E-timetable.sol\":9961:10009  memberPermission[msg.sender] >= Permission.ADMIN */\n              0x02\n              dup2\n              gt\n              iszero\n              tag_61\n              jumpi\n              tag_62\n              tag_46\n              jump\t// in\n            tag_62:\n            tag_61:\n              lt\n              iszero\n                /* \"E-timetable.sol\":9953:10010  require(memberPermission[msg.sender] >= Permission.ADMIN) */\n              tag_63\n              jumpi\n              0x00\n              dup1\n              revert\n            tag_63:\n                /* \"E-timetable.sol\":11488:11492  name */\n              dup2\n                /* \"E-timetable.sol\":11460:11470  memberName */\n              0x04\n                /* \"E-timetable.sol\":11460:11485  memberName[memberAddress] */\n              0x00\n                /* \"E-timetable.sol\":11471:11484  memberAddress */\n              dup6\n                /* \"E-timetable.sol\":11460:11485  memberName[memberAddress] */\n              0xffffffffffffffffffffffffffffffffffffffff\n              and\n              0xffffffffffffffffffffffffffffffffffffffff\n              and\n              dup2\n              mstore\n              0x20\n              add\n              swap1\n              dup2\n              mstore\n              0x20\n              add\n              0x00\n              keccak256\n                /* \"E-timetable.sol\":11460:11492  memberName[memberAddress] = name */\n              swap1\n              dup1\n              mload\n              swap1\n              0x20\n              add\n              swap1\n              tag_65\n              swap3\n              swap2\n              swap1\n              tag_57\n              jump\t// in\n            tag_65:\n              pop\n                /* \"E-timetable.sol\":11548:11558  permission */\n              dup1\n                /* \"E-timetable.sol\":11537:11559  Permission(permission) */\n              0x02\n              dup2\n              gt\n              iszero\n              tag_66\n              jumpi\n              tag_67\n              tag_46\n              jump\t// in\n            tag_67:\n            tag_66:\n                /* \"E-timetable.sol\":11503:11519  memberPermission */\n              0x03\n                /* \"E-timetable.sol\":11503:11534  memberPermission[memberAddress] */\n              0x00\n                /* \"E-timetable.sol\":11520:11533  memberAddress */\n              dup6\n                /* \"E-timetable.sol\":11503:11534  memberPermission[memberAddress] */\n              0xffffffffffffffffffffffffffffffffffffffff\n              and\n              0xffffffffffffffffffffffffffffffffffffffff\n              and\n              dup2\n              mstore\n              0x20\n              add\n              swap1\n              dup2\n              mstore\n              0x20\n              add\n              0x00\n              keccak256\n              0x00\n                /* \"E-timetable.sol\":11503:11559  memberPermission[memberAddress] = Permission(permission) */\n              0x0100\n              exp\n              dup2\n              sload\n              dup2\n              0xff\n              mul\n              not\n              and\n              swap1\n              dup4\n              0x02\n              dup2\n              gt\n              iszero\n              tag_68\n              jumpi\n              tag_69\n              tag_46\n              jump\t// in\n            tag_69:\n            tag_68:\n              mul\n              or\n              swap1\n              sstore\n              pop\n                /* \"E-timetable.sol\":11345:11567  function updateMember(address memberAddress, string memory name, uint permission) public adminRestricted{... */\n              pop\n              pop\n              pop\n              jump\t// out\n                /* \"E-timetable.sol\":12016:12124  function getGroupName() public view viewRestricted returns(string memory){... */\n            tag_24:\n                /* \"E-timetable.sol\":12075:12088  string memory */\n              0x60\n                /* \"E-timetable.sol\":10114:10129  Permission.VIEW */\n              0x01\n                /* \"E-timetable.sol\":10082:10129  memberPermission[msg.sender] >= Permission.VIEW */\n              0x02\n              dup2\n              gt\n              iszero\n              tag_71\n              jumpi\n              tag_72\n              tag_46\n              jump\t// in\n            tag_72:\n            tag_71:\n                /* \"E-timetable.sol\":10082:10098  memberPermission */\n              0x03\n                /* \"E-timetable.sol\":10082:10110  memberPermission[msg.sender] */\n              0x00\n                /* \"E-timetable.sol\":10099:10109  msg.sender */\n              caller\n                /* \"E-timetable.sol\":10082:10110  memberPermission[msg.sender] */\n              0xffffffffffffffffffffffffffffffffffffffff\n              and\n              0xffffffffffffffffffffffffffffffffffffffff\n              and\n              dup2\n              mstore\n              0x20\n              add\n              swap1\n              dup2\n              mstore\n              0x20\n              add\n              0x00\n              keccak256\n              0x00\n              swap1\n              sload\n              swap1\n              0x0100\n              exp\n              swap1\n              div\n              0xff\n              and\n                /* \"E-timetable.sol\":10082:10129  memberPermission[msg.sender] >= Permission.VIEW */\n              0x02\n              dup2\n              gt\n              iszero\n              tag_73\n              jumpi\n              tag_74\n              tag_46\n              jump\t// in\n            tag_74:\n            tag_73:\n              lt\n              iszero\n                /* \"E-timetable.sol\":10074:10130  require(memberPermission[msg.sender] >= Permission.VIEW) */\n              tag_75\n              jumpi\n              0x00\n              dup1\n              revert\n            tag_75:\n                /* \"E-timetable.sol\":12107:12116  groupName */\n              0x00\n                /* \"E-timetable.sol\":12100:12116  return groupName */\n              dup1\n              sload\n              tag_77\n              swap1\n              tag_78\n              jump\t// in\n            tag_77:\n              dup1\n              0x1f\n              add\n              0x20\n              dup1\n              swap2\n              div\n              mul\n              0x20\n              add\n              mload(0x40)\n              swap1\n              dup2\n              add\n              0x40\n              mstore\n              dup1\n              swap3\n              swap2\n              swap1\n              dup2\n              dup2\n              mstore\n              0x20\n              add\n              dup3\n              dup1\n              sload\n              tag_79\n              swap1\n              tag_78\n              jump\t// in\n            tag_79:\n              dup1\n              iszero\n              tag_80\n              jumpi\n              dup1\n              0x1f\n              lt\n              tag_81\n              jumpi\n              0x0100\n              dup1\n              dup4\n              sload\n              div\n              mul\n              dup4\n              mstore\n              swap2\n              0x20\n              add\n              swap2\n              jump(tag_80)\n            tag_81:\n              dup3\n              add\n              swap2\n              swap1\n              0x00\n              mstore\n              keccak256(0x00, 0x20)\n              swap1\n            tag_82:\n              dup2\n              sload\n              dup2\n              mstore\n              swap1\n              0x01\n              add\n              swap1\n              0x20\n              add\n              dup1\n              dup4\n              gt\n              tag_82\n              jumpi\n              dup3\n              swap1\n              sub\n              0x1f\n              and\n              dup3\n              add\n              swap2\n            tag_80:\n              pop\n              pop\n              pop\n              pop\n              pop\n              swap1\n              pop\n                /* \"E-timetable.sol\":12016:12124  function getGroupName() public view viewRestricted returns(string memory){... */\n              swap1\n              jump\t// out\n                /* \"E-timetable.sol\":11617:11985  function deleteMember(uint index, address memberAddress) public adminRestricted{... */\n            tag_30:\n                /* \"E-timetable.sol\":9993:10009  Permission.ADMIN */\n              0x02\n                /* \"E-timetable.sol\":9961:10009  memberPermission[msg.sender] >= Permission.ADMIN */\n              dup1\n              dup2\n              gt\n              iszero\n              tag_84\n              jumpi\n              tag_85\n              tag_46\n              jump\t// in\n            tag_85:\n            tag_84:\n                /* \"E-timetable.sol\":9961:9977  memberPermission */\n              0x03\n                /* \"E-timetable.sol\":9961:9989  memberPermission[msg.sender] */\n              0x00\n                /* \"E-timetable.sol\":9978:9988  msg.sender */\n              caller\n                /* \"E-timetable.sol\":9961:9989  memberPermission[msg.sender] */\n              0xffffffffffffffffffffffffffffffffffffffff\n              and\n              0xffffffffffffffffffffffffffffffffffffffff\n              and\n              dup2\n              mstore\n              0x20\n              add\n              swap1\n              dup2\n              mstore\n              0x20\n              add\n              0x00\n              keccak256\n              0x00\n              swap1\n              sload\n              swap1\n              0x0100\n              exp\n              swap1\n              div\n              0xff\n              and\n                /* \"E-timetable.sol\":9961:10009  memberPermission[msg.sender] >= Permission.ADMIN */\n              0x02\n              dup2\n              gt\n              iszero\n              tag_86\n              jumpi\n              tag_87\n              tag_46\n              jump\t// in\n            tag_87:\n            tag_86:\n              lt\n              iszero\n                /* \"E-timetable.sol\":9953:10010  require(memberPermission[msg.sender] >= Permission.ADMIN) */\n              tag_88\n              jumpi\n              0x00\n              dup1\n              revert\n            tag_88:\n                /* \"E-timetable.sol\":11727:11734  manager */\n              0x02\n              0x00\n              swap1\n              sload\n              swap1\n              0x0100\n              exp\n              swap1\n              div\n              0xffffffffffffffffffffffffffffffffffffffff\n              and\n                /* \"E-timetable.sol\":11710:11734  memberAddress != manager */\n              0xffffffffffffffffffffffffffffffffffffffff\n              and\n                /* \"E-timetable.sol\":11710:11723  memberAddress */\n              dup2\n                /* \"E-timetable.sol\":11710:11734  memberAddress != manager */\n              0xffffffffffffffffffffffffffffffffffffffff\n              and\n              eq\n                /* \"E-timetable.sol\":11707:11978  if(memberAddress != manager){... */\n              tag_90\n              jumpi\n                /* \"E-timetable.sol\":11803:11819  memberPermission */\n              0x03\n                /* \"E-timetable.sol\":11803:11834  memberPermission[memberAddress] */\n              0x00\n                /* \"E-timetable.sol\":11820:11833  memberAddress */\n              dup3\n                /* \"E-timetable.sol\":11803:11834  memberPermission[memberAddress] */\n              0xffffffffffffffffffffffffffffffffffffffff\n              and\n              0xffffffffffffffffffffffffffffffffffffffff\n              and\n              dup2\n              mstore\n              0x20\n              add\n              swap1\n              dup2\n              mstore\n              0x20\n              add\n              0x00\n              keccak256\n              0x00\n                /* \"E-timetable.sol\":11796:11834  delete memberPermission[memberAddress] */\n              0x0100\n              exp\n              dup2\n              sload\n              swap1\n              0xff\n              mul\n              not\n              and\n              swap1\n              sstore\n                /* \"E-timetable.sol\":11856:11866  memberName */\n              0x04\n                /* \"E-timetable.sol\":11856:11881  memberName[memberAddress] */\n              0x00\n                /* \"E-timetable.sol\":11867:11880  memberAddress */\n              dup3\n                /* \"E-timetable.sol\":11856:11881  memberName[memberAddress] */\n              0xffffffffffffffffffffffffffffffffffffffff\n              and\n              0xffffffffffffffffffffffffffffffffffffffff\n              and\n              dup2\n              mstore\n              0x20\n              add\n              swap1\n              dup2\n              mstore\n              0x20\n              add\n              0x00\n              keccak256\n              0x00\n                /* \"E-timetable.sol\":11849:11881  delete memberName[memberAddress] */\n              tag_91\n              swap2\n              swap1\n              tag_92\n              jump\t// in\n            tag_91:\n                /* \"E-timetable.sol\":11913:11920  members */\n              0x01\n                /* \"E-timetable.sol\":11936:11937  1 */\n              dup1\n                /* \"E-timetable.sol\":11921:11928  members */\n              dup1\n                /* \"E-timetable.sol\":11921:11935  members.length */\n              dup1\n              sload\n              swap1\n              pop\n                /* \"E-timetable.sol\":11921:11937  members.length-1 */\n              tag_93\n              swap2\n              swap1\n              tag_94\n              jump\t// in\n            tag_93:\n                /* \"E-timetable.sol\":11913:11938  members[members.length-1] */\n              dup2\n              sload\n              dup2\n              lt\n              tag_95\n              jumpi\n              tag_96\n              tag_97\n              jump\t// in\n            tag_96:\n            tag_95:\n              swap1\n              0x00\n              mstore\n              keccak256(0x00, 0x20)\n              add\n              0x00\n              swap1\n              sload\n              swap1\n              0x0100\n              exp\n              swap1\n              div\n              0xffffffffffffffffffffffffffffffffffffffff\n              and\n                /* \"E-timetable.sol\":11896:11903  members */\n              0x01\n                /* \"E-timetable.sol\":11904:11909  index */\n              dup4\n                /* \"E-timetable.sol\":11896:11910  members[index] */\n              dup2\n              sload\n              dup2\n              lt\n              tag_99\n              jumpi\n              tag_100\n              tag_97\n              jump\t// in\n            tag_100:\n            tag_99:\n              swap1\n              0x00\n              mstore\n              keccak256(0x00, 0x20)\n              add\n              0x00\n                /* \"E-timetable.sol\":11896:11938  members[index] = members[members.length-1] */\n              0x0100\n              exp\n              dup2\n              sload\n              dup2\n              0xffffffffffffffffffffffffffffffffffffffff\n              mul\n              not\n              and\n              swap1\n              dup4\n              0xffffffffffffffffffffffffffffffffffffffff\n              and\n              mul\n              or\n              swap1\n              sstore\n              pop\n                /* \"E-timetable.sol\":11953:11960  members */\n              0x01\n                /* \"E-timetable.sol\":11953:11966  members.pop() */\n              dup1\n              sload\n              dup1\n              tag_102\n              jumpi\n              tag_103\n              tag_104\n              jump\t// in\n            tag_103:\n            tag_102:\n              0x01\n              swap1\n              sub\n              dup2\n              dup2\n              swap1\n              0x00\n              mstore\n              keccak256(0x00, 0x20)\n              add\n              exp(0x0100, 0x00)\n              dup2\n              sload\n              swap1\n              0xffffffffffffffffffffffffffffffffffffffff\n              mul\n              not\n              and\n              swap1\n              sstore\n              swap1\n              sstore\n                /* \"E-timetable.sol\":11707:11978  if(memberAddress != manager){... */\n            tag_90:\n                /* \"E-timetable.sol\":11617:11985  function deleteMember(uint index, address memberAddress) public adminRestricted{... */\n              pop\n              pop\n              jump\t// out\n                /* \"E-timetable.sol\":10776:11303  function getMembers() public view viewRestricted returns(address[] memory membersAddress, string[] memory names, uint[] memory permissions){... */\n            tag_32:\n                /* \"E-timetable.sol\":10833:10864  address[] memory membersAddress */\n              0x60\n                /* \"E-timetable.sol\":10866:10887  string[] memory names */\n              dup1\n                /* \"E-timetable.sol\":10889:10914  uint[] memory permissions */\n              0x60\n                /* \"E-timetable.sol\":10114:10129  Permission.VIEW */\n              0x01\n                /* \"E-timetable.sol\":10082:10129  memberPermission[msg.sender] >= Permission.VIEW */\n              0x02\n              dup2\n              gt\n              iszero\n              tag_107\n              jumpi\n              tag_108\n              tag_46\n              jump\t// in\n            tag_108:\n            tag_107:\n                /* \"E-timetable.sol\":10082:10098  memberPermission */\n              0x03\n                /* \"E-timetable.sol\":10082:10110  memberPermission[msg.sender] */\n              0x00\n                /* \"E-timetable.sol\":10099:10109  msg.sender */\n              caller\n                /* \"E-timetable.sol\":10082:10110  memberPermission[msg.sender] */\n              0xffffffffffffffffffffffffffffffffffffffff\n              and\n              0xffffffffffffffffffffffffffffffffffffffff\n              and\n              dup2\n              mstore\n              0x20\n              add\n              swap1\n              dup2\n              mstore\n              0x20\n              add\n              0x00\n              keccak256\n              0x00\n              swap1\n              sload\n              swap1\n              0x0100\n              exp\n              swap1\n              div\n              0xff\n              and\n                /* \"E-timetable.sol\":10082:10129  memberPermission[msg.sender] >= Permission.VIEW */\n              0x02\n              dup2\n              gt\n              iszero\n              tag_109\n              jumpi\n              tag_110\n              tag_46\n              jump\t// in\n            tag_110:\n            tag_109:\n              lt\n              iszero\n                /* \"E-timetable.sol\":10074:10130  require(memberPermission[msg.sender] >= Permission.VIEW) */\n              tag_111\n              jumpi\n              0x00\n              dup1\n              revert\n            tag_111:\n                /* \"E-timetable.sol\":10960:10969  uint size */\n              0x00\n                /* \"E-timetable.sol\":10972:10979  members */\n              0x01\n                /* \"E-timetable.sol\":10972:10986  members.length */\n              dup1\n              sload\n              swap1\n              pop\n                /* \"E-timetable.sol\":10960:10986  uint size = members.length */\n              swap1\n              pop\n                /* \"E-timetable.sol\":11014:11021  members */\n              0x01\n                /* \"E-timetable.sol\":10997:11021  membersAddress = members */\n              dup1\n              sload\n              dup1\n              0x20\n              mul\n              0x20\n              add\n              mload(0x40)\n              swap1\n              dup2\n              add\n              0x40\n              mstore\n              dup1\n              swap3\n              swap2\n              swap1\n              dup2\n              dup2\n              mstore\n              0x20\n              add\n              dup3\n              dup1\n              sload\n              dup1\n              iszero\n              tag_113\n              jumpi\n              0x20\n              mul\n              dup3\n              add\n              swap2\n              swap1\n              0x00\n              mstore\n              keccak256(0x00, 0x20)\n              swap1\n            tag_114:\n              dup2\n              0x00\n              swap1\n              sload\n              swap1\n              0x0100\n              exp\n              swap1\n              div\n              0xffffffffffffffffffffffffffffffffffffffff\n              and\n              0xffffffffffffffffffffffffffffffffffffffff\n              and\n              dup2\n              mstore\n              0x20\n              add\n              swap1\n              0x01\n              add\n              swap1\n              dup1\n              dup4\n              gt\n              tag_114\n              jumpi\n            tag_113:\n              pop\n              pop\n              pop\n              pop\n              pop\n              swap4\n              pop\n                /* \"E-timetable.sol\":11053:11057  size */\n              dup1\n                /* \"E-timetable.sol\":11040:11058  new string[](size) */\n              0xffffffffffffffff\n              dup2\n              gt\n              iszero\n              tag_115\n              jumpi\n              tag_116\n              tag_117\n              jump\t// in\n            tag_116:\n            tag_115:\n              mload(0x40)\n              swap1\n              dup1\n              dup3\n              mstore\n              dup1\n              0x20\n              mul\n              0x20\n              add\n              dup3\n              add\n              0x40\n              mstore\n              dup1\n              iszero\n              tag_118\n              jumpi\n              dup2\n              0x20\n              add\n            tag_119:\n              0x60\n              dup2\n              mstore\n              0x20\n              add\n              swap1\n              0x01\n              swap1\n              sub\n              swap1\n              dup2\n              tag_119\n              jumpi\n              swap1\n              pop\n            tag_118:\n              pop\n                /* \"E-timetable.sol\":11032:11058  names = new string[](size) */\n              swap3\n              pop\n                /* \"E-timetable.sol\":11094:11098  size */\n              dup1\n                /* \"E-timetable.sol\":11083:11099  new uint[](size) */\n              0xffffffffffffffff\n              dup2\n              gt\n              iszero\n              tag_120\n              jumpi\n              tag_121\n              tag_117\n              jump\t// in\n            tag_121:\n            tag_120:\n              mload(0x40)\n              swap1\n              dup1\n              dup3\n              mstore\n              dup1\n              0x20\n              mul\n              0x20\n              add\n              dup3\n              add\n              0x40\n              mstore\n              dup1\n              iszero\n              tag_122\n              jumpi\n              dup2\n              0x20\n              add\n              0x20\n              dup3\n              mul\n              dup1\n              calldatasize\n              dup4\n              calldatacopy\n              dup1\n              dup3\n              add\n              swap2\n              pop\n              pop\n              swap1\n              pop\n            tag_122:\n              pop\n                /* \"E-timetable.sol\":11069:11099  permissions = new uint[](size) */\n              swap2\n              pop\n                /* \"E-timetable.sol\":11150:11156  uint i */\n              0x00\n                /* \"E-timetable.sol\":11146:11296  for(uint i=0;i<size;i++){... */\n            tag_123:\n                /* \"E-timetable.sol\":11161:11165  size */\n              dup2\n                /* \"E-timetable.sol\":11159:11160  i */\n              dup2\n                /* \"E-timetable.sol\":11159:11165  i<size */\n              lt\n                /* \"E-timetable.sol\":11146:11296  for(uint i=0;i<size;i++){... */\n              iszero\n              tag_124\n              jumpi\n                /* \"E-timetable.sol\":11196:11206  memberName */\n              0x04\n                /* \"E-timetable.sol\":11196:11218  memberName[members[i]] */\n              0x00\n                /* \"E-timetable.sol\":11207:11214  members */\n              0x01\n                /* \"E-timetable.sol\":11215:11216  i */\n              dup4\n                /* \"E-timetable.sol\":11207:11217  members[i] */\n              dup2\n              sload\n              dup2\n              lt\n              tag_126\n              jumpi\n              tag_127\n              tag_97\n              jump\t// in\n            tag_127:\n            tag_126:\n              swap1\n              0x00\n              mstore\n              keccak256(0x00, 0x20)\n              add\n              0x00\n              swap1\n              sload\n              swap1\n              0x0100\n              exp\n              swap1\n              div\n              0xffffffffffffffffffffffffffffffffffffffff\n              and\n                /* \"E-timetable.sol\":11196:11218  memberName[members[i]] */\n              0xffffffffffffffffffffffffffffffffffffffff\n              and\n              0xffffffffffffffffffffffffffffffffffffffff\n              and\n              dup2\n              mstore\n              0x20\n              add\n              swap1\n              dup2\n              mstore\n              0x20\n              add\n              0x00\n              keccak256\n                /* \"E-timetable.sol\":11185:11218  names[i] = memberName[members[i]] */\n              dup1\n              sload\n              tag_129\n              swap1\n              tag_78\n              jump\t// in\n            tag_129:\n              dup1\n              0x1f\n              add\n              0x20\n              dup1\n              swap2\n              div\n              mul\n              0x20\n              add\n              mload(0x40)\n              swap1\n              dup2\n              add\n              0x40\n              mstore\n              dup1\n              swap3\n              swap2\n              swap1\n              dup2\n              dup2\n              mstore\n              0x20\n              add\n              dup3\n              dup1\n              sload\n              tag_130\n              swap1\n              tag_78\n              jump\t// in\n            tag_130:\n              dup1\n              iszero\n              tag_131\n              jumpi\n              dup1\n              0x1f\n              lt\n              tag_132\n              jumpi\n              0x0100\n              dup1\n              dup4\n              sload\n              div\n              mul\n              dup4\n              mstore\n              swap2\n              0x20\n              add\n              swap2\n              jump(tag_131)\n            tag_132:\n              dup3\n              add\n              swap2\n              swap1\n              0x00\n              mstore\n              keccak256(0x00, 0x20)\n              swap1\n            tag_133:\n              dup2\n              sload\n              dup2\n              mstore\n              swap1\n              0x01\n              add\n              swap1\n              0x20\n              add\n              dup1\n              dup4\n              gt\n              tag_133\n              jumpi\n              dup3\n              swap1\n              sub\n              0x1f\n              and\n              dup3\n              add\n              swap2\n            tag_131:\n              pop\n              pop\n              pop\n              pop\n              pop\n                /* \"E-timetable.sol\":11185:11190  names */\n              dup5\n                /* \"E-timetable.sol\":11191:11192  i */\n              dup3\n                /* \"E-timetable.sol\":11185:11193  names[i] */\n              dup2\n              mload\n              dup2\n              lt\n              tag_134\n              jumpi\n              tag_135\n              tag_97\n              jump\t// in\n            tag_135:\n            tag_134:\n              0x20\n              mul\n              0x20\n              add\n              add\n                /* \"E-timetable.sol\":11185:11218  names[i] = memberName[members[i]] */\n              dup2\n              swap1\n              mstore\n              pop\n                /* \"E-timetable.sol\":11255:11271  memberPermission */\n              0x03\n                /* \"E-timetable.sol\":11255:11283  memberPermission[members[i]] */\n              0x00\n                /* \"E-timetable.sol\":11272:11279  members */\n              0x01\n                /* \"E-timetable.sol\":11280:11281  i */\n              dup4\n                /* \"E-timetable.sol\":11272:11282  members[i] */\n              dup2\n              sload\n              dup2\n              lt\n              tag_136\n              jumpi\n              tag_137\n              tag_97\n              jump\t// in\n            tag_137:\n            tag_136:\n              swap1\n              0x00\n              mstore\n              keccak256(0x00, 0x20)\n              add\n              0x00\n              swap1\n              sload\n              swap1\n              0x0100\n              exp\n              swap1\n              div\n              0xffffffffffffffffffffffffffffffffffffffff\n              and\n                /* \"E-timetable.sol\":11255:11283  memberPermission[members[i]] */\n              0xffffffffffffffffffffffffffffffffffffffff\n              and\n              0xffffffffffffffffffffffffffffffffffffffff\n              and\n              dup2\n              mstore\n              0x20\n              add\n              swap1\n              dup2\n              mstore\n              0x20\n              add\n              0x00\n              keccak256\n              0x00\n              swap1\n              sload\n              swap1\n              0x0100\n              exp\n              swap1\n              div\n              0xff\n              and\n                /* \"E-timetable.sol\":11250:11284  uint(memberPermission[members[i]]) */\n              0x02\n              dup2\n              gt\n              iszero\n              tag_139\n              jumpi\n              tag_140\n              tag_46\n              jump\t// in\n            tag_140:\n            tag_139:\n                /* \"E-timetable.sol\":11233:11244  permissions */\n              dup4\n                /* \"E-timetable.sol\":11245:11246  i */\n              dup3\n                /* \"E-timetable.sol\":11233:11247  permissions[i] */\n              dup2\n              mload\n              dup2\n              lt\n              tag_141\n              jumpi\n              tag_142\n              tag_97\n              jump\t// in\n            tag_142:\n            tag_141:\n              0x20\n              mul\n              0x20\n              add\n              add\n                /* \"E-timetable.sol\":11233:11284  permissions[i] = uint(memberPermission[members[i]]) */\n              dup2\n              dup2\n              mstore\n              pop\n              pop\n                /* \"E-timetable.sol\":11166:11169  i++ */\n              dup1\n              dup1\n              tag_143\n              swap1\n              tag_144\n              jump\t// in\n            tag_143:\n              swap2\n              pop\n              pop\n                /* \"E-timetable.sol\":11146:11296  for(uint i=0;i<size;i++){... */\n              jump(tag_123)\n            tag_124:\n              pop\n                /* \"E-timetable.sol\":10915:11303  {... */\n              pop\n                /* \"E-timetable.sol\":10776:11303  function getMembers() public view viewRestricted returns(address[] memory membersAddress, string[] memory names, uint[] memory permissions){... */\n              swap1\n              swap2\n              swap3\n              jump\t// out\n                /* \"E-timetable.sol\":12302:12651  function changeManager(address newManager) public{... */\n            tag_38:\n                /* \"E-timetable.sol\":12420:12427  manager */\n              0x02\n              0x00\n              swap1\n              sload\n              swap1\n              0x0100\n              exp\n              swap1\n              div\n              0xffffffffffffffffffffffffffffffffffffffff\n              and\n                /* \"E-timetable.sol\":12406:12427  msg.sender == manager */\n              0xffffffffffffffffffffffffffffffffffffffff\n              and\n                /* \"E-timetable.sol\":12406:12416  msg.sender */\n              caller\n                /* \"E-timetable.sol\":12406:12427  msg.sender == manager */\n              0xffffffffffffffffffffffffffffffffffffffff\n              and\n              eq\n                /* \"E-timetable.sol\":12398:12428  require(msg.sender == manager) */\n              tag_146\n              jumpi\n              0x00\n              dup1\n              revert\n            tag_146:\n                /* \"E-timetable.sol\":12486:12496  newManager */\n              dup1\n                /* \"E-timetable.sol\":12476:12483  manager */\n              0x02\n              0x00\n                /* \"E-timetable.sol\":12476:12496  manager = newManager */\n              0x0100\n              exp\n              dup2\n              sload\n              dup2\n              0xffffffffffffffffffffffffffffffffffffffff\n              mul\n              not\n              and\n              swap1\n              dup4\n              0xffffffffffffffffffffffffffffffffffffffff\n              and\n              mul\n              or\n              swap1\n              sstore\n              pop\n                /* \"E-timetable.sol\":12580:12596  Permission.ADMIN */\n              0x02\n                /* \"E-timetable.sol\":12549:12565  memberPermission */\n              0x03\n                /* \"E-timetable.sol\":12549:12577  memberPermission[newManager] */\n              0x00\n                /* \"E-timetable.sol\":12566:12576  newManager */\n              dup4\n                /* \"E-timetable.sol\":12549:12577  memberPermission[newManager] */\n              0xffffffffffffffffffffffffffffffffffffffff\n              and\n              0xffffffffffffffffffffffffffffffffffffffff\n              and\n              dup2\n              mstore\n              0x20\n              add\n              swap1\n              dup2\n              mstore\n              0x20\n              add\n              0x00\n              keccak256\n              0x00\n                /* \"E-timetable.sol\":12549:12596  memberPermission[newManager] = Permission.ADMIN */\n              0x0100\n              exp\n              dup2\n              sload\n              dup2\n              0xff\n              mul\n              not\n              and\n              swap1\n              dup4\n              0x02\n              dup2\n              gt\n              iszero\n              tag_147\n              jumpi\n              tag_148\n              tag_46\n              jump\t// in\n            tag_148:\n            tag_147:\n              mul\n              or\n              swap1\n              sstore\n              pop\n                /* \"E-timetable.sol\":12302:12651  function changeManager(address newManager) public{... */\n              pop\n              jump\t// out\n                /* \"E-timetable.sol\":12158:12260  function updateGroupName(string memory name) public adminRestricted{... */\n            tag_42:\n                /* \"E-timetable.sol\":9993:10009  Permission.ADMIN */\n              0x02\n                /* \"E-timetable.sol\":9961:10009  memberPermission[msg.sender] >= Permission.ADMIN */\n              dup1\n              dup2\n              gt\n              iszero\n              tag_150\n              jumpi\n              tag_151\n              tag_46\n              jump\t// in\n            tag_151:\n            tag_150:\n                /* \"E-timetable.sol\":9961:9977  memberPermission */\n              0x03\n                /* \"E-timetable.sol\":9961:9989  memberPermission[msg.sender] */\n              0x00\n                /* \"E-timetable.sol\":9978:9988  msg.sender */\n              caller\n                /* \"E-timetable.sol\":9961:9989  memberPermission[msg.sender] */\n              0xffffffffffffffffffffffffffffffffffffffff\n              and\n              0xffffffffffffffffffffffffffffffffffffffff\n              and\n              dup2\n              mstore\n              0x20\n              add\n              swap1\n              dup2\n              mstore\n              0x20\n              add\n              0x00\n              keccak256\n              0x00\n              swap1\n              sload\n              swap1\n              0x0100\n              exp\n              swap1\n              div\n              0xff\n              and\n                /* \"E-timetable.sol\":9961:10009  memberPermission[msg.sender] >= Permission.ADMIN */\n              0x02\n              dup2\n              gt\n              iszero\n              tag_152\n              jumpi\n              tag_153\n              tag_46\n              jump\t// in\n            tag_153:\n            tag_152:\n              lt\n              iszero\n                /* \"E-timetable.sol\":9953:10010  require(memberPermission[msg.sender] >= Permission.ADMIN) */\n              tag_154\n              jumpi\n              0x00\n              dup1\n              revert\n            tag_154:\n                /* \"E-timetable.sol\":12248:12252  name */\n              dup1\n                /* \"E-timetable.sol\":12236:12245  groupName */\n              0x00\n                /* \"E-timetable.sol\":12236:12252  groupName = name */\n              swap1\n              dup1\n              mload\n              swap1\n              0x20\n              add\n              swap1\n              tag_156\n              swap3\n              swap2\n              swap1\n              tag_57\n              jump\t// in\n            tag_156:\n              pop\n                /* \"E-timetable.sol\":12158:12260  function updateGroupName(string memory name) public adminRestricted{... */\n              pop\n              jump\t// out\n            tag_57:\n              dup3\n              dup1\n              sload\n              tag_157\n              swap1\n              tag_78\n              jump\t// in\n            tag_157:\n              swap1\n              0x00\n              mstore\n              keccak256(0x00, 0x20)\n              swap1\n              0x1f\n              add\n              0x20\n              swap1\n              div\n              dup2\n              add\n              swap3\n              dup3\n              tag_159\n              jumpi\n              0x00\n              dup6\n              sstore\n              jump(tag_158)\n            tag_159:\n              dup3\n              0x1f\n              lt\n              tag_160\n              jumpi\n              dup1\n              mload\n              not(0xff)\n              and\n              dup4\n              dup1\n              add\n              or\n              dup6\n              sstore\n              jump(tag_158)\n            tag_160:\n              dup3\n              dup1\n              add\n              0x01\n              add\n              dup6\n              sstore\n              dup3\n              iszero\n              tag_158\n              jumpi\n              swap2\n              dup3\n              add\n            tag_161:\n              dup3\n              dup2\n              gt\n              iszero\n              tag_162\n              jumpi\n              dup3\n              mload\n              dup3\n              sstore\n              swap2\n              0x20\n              add\n              swap2\n              swap1\n              0x01\n              add\n              swap1\n              jump(tag_161)\n            tag_162:\n            tag_158:\n              pop\n              swap1\n              pop\n              tag_163\n              swap2\n              swap1\n              tag_164\n              jump\t// in\n            tag_163:\n              pop\n              swap1\n              jump\t// out\n            tag_92:\n              pop\n              dup1\n              sload\n              tag_165\n              swap1\n              tag_78\n              jump\t// in\n            tag_165:\n              0x00\n              dup3\n              sstore\n              dup1\n              0x1f\n              lt\n              tag_167\n              jumpi\n              pop\n              jump(tag_166)\n            tag_167:\n              0x1f\n              add\n              0x20\n              swap1\n              div\n              swap1\n              0x00\n              mstore\n              keccak256(0x00, 0x20)\n              swap1\n              dup2\n              add\n              swap1\n              tag_168\n              swap2\n              swap1\n              tag_164\n              jump\t// in\n            tag_168:\n            tag_166:\n              pop\n              jump\t// out\n            tag_164:\n            tag_169:\n              dup1\n              dup3\n              gt\n              iszero\n              tag_170\n              jumpi\n              0x00\n              dup2\n              0x00\n              swap1\n              sstore\n              pop\n              0x01\n              add\n              jump(tag_169)\n            tag_170:\n              pop\n              swap1\n              jump\t// out\n                /* \"#utility.yul\":7:82   */\n            tag_171:\n                /* \"#utility.yul\":40:46   */\n              0x00\n                /* \"#utility.yul\":73:75   */\n              0x40\n                /* \"#utility.yul\":67:76   */\n              mload\n                /* \"#utility.yul\":57:76   */\n              swap1\n              pop\n                /* \"#utility.yul\":7:82   */\n              swap1\n              jump\t// out\n                /* \"#utility.yul\":88:205   */\n            tag_172:\n                /* \"#utility.yul\":197:198   */\n              0x00\n                /* \"#utility.yul\":194:195   */\n              dup1\n                /* \"#utility.yul\":187:199   */\n              revert\n                /* \"#utility.yul\":211:328   */\n            tag_173:\n                /* \"#utility.yul\":320:321   */\n              0x00\n                /* \"#utility.yul\":317:318   */\n              dup1\n                /* \"#utility.yul\":310:322   */\n              revert\n                /* \"#utility.yul\":334:460   */\n            tag_174:\n                /* \"#utility.yul\":371:378   */\n              0x00\n                /* \"#utility.yul\":411:453   */\n              0xffffffffffffffffffffffffffffffffffffffff\n                /* \"#utility.yul\":404:409   */\n              dup3\n                /* \"#utility.yul\":400:454   */\n              and\n                /* \"#utility.yul\":389:454   */\n              swap1\n              pop\n                /* \"#utility.yul\":334:460   */\n              swap2\n              swap1\n              pop\n              jump\t// out\n                /* \"#utility.yul\":466:562   */\n            tag_175:\n                /* \"#utility.yul\":503:510   */\n              0x00\n                /* \"#utility.yul\":532:556   */\n              tag_225\n                /* \"#utility.yul\":550:555   */\n              dup3\n                /* \"#utility.yul\":532:556   */\n              tag_174\n              jump\t// in\n            tag_225:\n                /* \"#utility.yul\":521:556   */\n              swap1\n              pop\n                /* \"#utility.yul\":466:562   */\n              swap2\n              swap1\n              pop\n              jump\t// out\n                /* \"#utility.yul\":568:690   */\n            tag_176:\n                /* \"#utility.yul\":641:665   */\n              tag_227\n                /* \"#utility.yul\":659:664   */\n              dup2\n                /* \"#utility.yul\":641:665   */\n              tag_175\n              jump\t// in\n            tag_227:\n                /* \"#utility.yul\":634:639   */\n              dup2\n                /* \"#utility.yul\":631:666   */\n              eq\n                /* \"#utility.yul\":621:684   */\n              tag_228\n              jumpi\n                /* \"#utility.yul\":680:681   */\n              0x00\n                /* \"#utility.yul\":677:678   */\n              dup1\n                /* \"#utility.yul\":670:682   */\n              revert\n                /* \"#utility.yul\":621:684   */\n            tag_228:\n                /* \"#utility.yul\":568:690   */\n              pop\n              jump\t// out\n                /* \"#utility.yul\":696:835   */\n            tag_177:\n                /* \"#utility.yul\":742:747   */\n              0x00\n                /* \"#utility.yul\":780:786   */\n              dup2\n                /* \"#utility.yul\":767:787   */\n              calldataload\n                /* \"#utility.yul\":758:787   */\n              swap1\n              pop\n                /* \"#utility.yul\":796:829   */\n              tag_230\n                /* \"#utility.yul\":823:828   */\n              dup2\n                /* \"#utility.yul\":796:829   */\n              tag_176\n              jump\t// in\n            tag_230:\n                /* \"#utility.yul\":696:835   */\n              swap3\n              swap2\n              pop\n              pop\n              jump\t// out\n                /* \"#utility.yul\":841:958   */\n            tag_178:\n                /* \"#utility.yul\":950:951   */\n              0x00\n                /* \"#utility.yul\":947:948   */\n              dup1\n                /* \"#utility.yul\":940:952   */\n              revert\n                /* \"#utility.yul\":964:1081   */\n            tag_179:\n                /* \"#utility.yul\":1073:1074   */\n              0x00\n                /* \"#utility.yul\":1070:1071   */\n              dup1\n                /* \"#utility.yul\":1063:1075   */\n              revert\n                /* \"#utility.yul\":1087:1189   */\n            tag_180:\n                /* \"#utility.yul\":1128:1134   */\n              0x00\n                /* \"#utility.yul\":1179:1181   */\n              0x1f\n                /* \"#utility.yul\":1175:1182   */\n              not\n                /* \"#utility.yul\":1170:1172   */\n              0x1f\n                /* \"#utility.yul\":1163:1168   */\n              dup4\n                /* \"#utility.yul\":1159:1173   */\n              add\n                /* \"#utility.yul\":1155:1183   */\n              and\n                /* \"#utility.yul\":1145:1183   */\n              swap1\n              pop\n                /* \"#utility.yul\":1087:1189   */\n              swap2\n              swap1\n              pop\n              jump\t// out\n                /* \"#utility.yul\":1195:1375   */\n            tag_117:\n                /* \"#utility.yul\":1243:1320   */\n              0x4e487b7100000000000000000000000000000000000000000000000000000000\n                /* \"#utility.yul\":1240:1241   */\n              0x00\n                /* \"#utility.yul\":1233:1321   */\n              mstore\n                /* \"#utility.yul\":1340:1344   */\n              0x41\n                /* \"#utility.yul\":1337:1338   */\n              0x04\n                /* \"#utility.yul\":1330:1345   */\n              mstore\n                /* \"#utility.yul\":1364:1368   */\n              0x24\n                /* \"#utility.yul\":1361:1362   */\n              0x00\n                /* \"#utility.yul\":1354:1369   */\n              revert\n                /* \"#utility.yul\":1381:1662   */\n            tag_181:\n                /* \"#utility.yul\":1464:1491   */\n              tag_236\n                /* \"#utility.yul\":1486:1490   */\n              dup3\n                /* \"#utility.yul\":1464:1491   */\n              tag_180\n              jump\t// in\n            tag_236:\n                /* \"#utility.yul\":1456:1462   */\n              dup2\n                /* \"#utility.yul\":1452:1492   */\n              add\n                /* \"#utility.yul\":1594:1600   */\n              dup2\n                /* \"#utility.yul\":1582:1592   */\n              dup2\n                /* \"#utility.yul\":1579:1601   */\n              lt\n                /* \"#utility.yul\":1558:1576   */\n              0xffffffffffffffff\n                /* \"#utility.yul\":1546:1556   */\n              dup3\n                /* \"#utility.yul\":1543:1577   */\n              gt\n                /* \"#utility.yul\":1540:1602   */\n              or\n                /* \"#utility.yul\":1537:1625   */\n              iszero\n              tag_237\n              jumpi\n                /* \"#utility.yul\":1605:1623   */\n              tag_238\n              tag_117\n              jump\t// in\n            tag_238:\n                /* \"#utility.yul\":1537:1625   */\n            tag_237:\n                /* \"#utility.yul\":1645:1655   */\n              dup1\n                /* \"#utility.yul\":1641:1643   */\n              0x40\n                /* \"#utility.yul\":1634:1656   */\n              mstore\n                /* \"#utility.yul\":1424:1662   */\n              pop\n                /* \"#utility.yul\":1381:1662   */\n              pop\n              pop\n              jump\t// out\n                /* \"#utility.yul\":1668:1797   */\n            tag_182:\n                /* \"#utility.yul\":1702:1708   */\n              0x00\n                /* \"#utility.yul\":1729:1749   */\n              tag_240\n              tag_171\n              jump\t// in\n            tag_240:\n                /* \"#utility.yul\":1719:1749   */\n              swap1\n              pop\n                /* \"#utility.yul\":1758:1791   */\n              tag_241\n                /* \"#utility.yul\":1786:1790   */\n              dup3\n                /* \"#utility.yul\":1778:1784   */\n              dup3\n                /* \"#utility.yul\":1758:1791   */\n              tag_181\n              jump\t// in\n            tag_241:\n                /* \"#utility.yul\":1668:1797   */\n              swap2\n              swap1\n              pop\n              jump\t// out\n                /* \"#utility.yul\":1803:2111   */\n            tag_183:\n                /* \"#utility.yul\":1865:1869   */\n              0x00\n                /* \"#utility.yul\":1955:1973   */\n              0xffffffffffffffff\n                /* \"#utility.yul\":1947:1953   */\n              dup3\n                /* \"#utility.yul\":1944:1974   */\n              gt\n                /* \"#utility.yul\":1941:1997   */\n              iszero\n              tag_243\n              jumpi\n                /* \"#utility.yul\":1977:1995   */\n              tag_244\n              tag_117\n              jump\t// in\n            tag_244:\n                /* \"#utility.yul\":1941:1997   */\n            tag_243:\n                /* \"#utility.yul\":2015:2044   */\n              tag_245\n                /* \"#utility.yul\":2037:2043   */\n              dup3\n                /* \"#utility.yul\":2015:2044   */\n              tag_180\n              jump\t// in\n            tag_245:\n                /* \"#utility.yul\":2007:2044   */\n              swap1\n              pop\n                /* \"#utility.yul\":2099:2103   */\n              0x20\n                /* \"#utility.yul\":2093:2097   */\n              dup2\n                /* \"#utility.yul\":2089:2104   */\n              add\n                /* \"#utility.yul\":2081:2104   */\n              swap1\n              pop\n                /* \"#utility.yul\":1803:2111   */\n              swap2\n              swap1\n              pop\n              jump\t// out\n                /* \"#utility.yul\":2117:2271   */\n            tag_184:\n                /* \"#utility.yul\":2201:2207   */\n              dup3\n                /* \"#utility.yul\":2196:2199   */\n              dup2\n                /* \"#utility.yul\":2191:2194   */\n              dup4\n                /* \"#utility.yul\":2178:2208   */\n              calldatacopy\n                /* \"#utility.yul\":2263:2264   */\n              0x00\n                /* \"#utility.yul\":2254:2260   */\n              dup4\n                /* \"#utility.yul\":2249:2252   */\n              dup4\n                /* \"#utility.yul\":2245:2261   */\n              add\n                /* \"#utility.yul\":2238:2265   */\n              mstore\n                /* \"#utility.yul\":2117:2271   */\n              pop\n              pop\n              pop\n              jump\t// out\n                /* \"#utility.yul\":2277:2689   */\n            tag_185:\n                /* \"#utility.yul\":2355:2360   */\n              0x00\n                /* \"#utility.yul\":2380:2446   */\n              tag_248\n                /* \"#utility.yul\":2396:2445   */\n              tag_249\n                /* \"#utility.yul\":2438:2444   */\n              dup5\n                /* \"#utility.yul\":2396:2445   */\n              tag_183\n              jump\t// in\n            tag_249:\n                /* \"#utility.yul\":2380:2446   */\n              tag_182\n              jump\t// in\n            tag_248:\n                /* \"#utility.yul\":2371:2446   */\n              swap1\n              pop\n                /* \"#utility.yul\":2469:2475   */\n              dup3\n                /* \"#utility.yul\":2462:2467   */\n              dup2\n                /* \"#utility.yul\":2455:2476   */\n              mstore\n                /* \"#utility.yul\":2507:2511   */\n              0x20\n                /* \"#utility.yul\":2500:2505   */\n              dup2\n                /* \"#utility.yul\":2496:2512   */\n              add\n                /* \"#utility.yul\":2545:2548   */\n              dup5\n                /* \"#utility.yul\":2536:2542   */\n              dup5\n                /* \"#utility.yul\":2531:2534   */\n              dup5\n                /* \"#utility.yul\":2527:2543   */\n              add\n                /* \"#utility.yul\":2524:2549   */\n              gt\n                /* \"#utility.yul\":2521:2633   */\n              iszero\n              tag_250\n              jumpi\n                /* \"#utility.yul\":2552:2631   */\n              tag_251\n              tag_179\n              jump\t// in\n            tag_251:\n                /* \"#utility.yul\":2521:2633   */\n            tag_250:\n                /* \"#utility.yul\":2642:2683   */\n              tag_252\n                /* \"#utility.yul\":2676:2682   */\n              dup5\n                /* \"#utility.yul\":2671:2674   */\n              dup3\n                /* \"#utility.yul\":2666:2669   */\n              dup6\n                /* \"#utility.yul\":2642:2683   */\n              tag_184\n              jump\t// in\n            tag_252:\n                /* \"#utility.yul\":2361:2689   */\n              pop\n                /* \"#utility.yul\":2277:2689   */\n              swap4\n              swap3\n              pop\n              pop\n              pop\n              jump\t// out\n                /* \"#utility.yul\":2709:3049   */\n            tag_186:\n                /* \"#utility.yul\":2765:2770   */\n              0x00\n                /* \"#utility.yul\":2814:2817   */\n              dup3\n                /* \"#utility.yul\":2807:2811   */\n              0x1f\n                /* \"#utility.yul\":2799:2805   */\n              dup4\n                /* \"#utility.yul\":2795:2812   */\n              add\n                /* \"#utility.yul\":2791:2818   */\n              slt\n                /* \"#utility.yul\":2781:2903   */\n              tag_254\n              jumpi\n                /* \"#utility.yul\":2822:2901   */\n              tag_255\n              tag_178\n              jump\t// in\n            tag_255:\n                /* \"#utility.yul\":2781:2903   */\n            tag_254:\n                /* \"#utility.yul\":2939:2945   */\n              dup2\n                /* \"#utility.yul\":2926:2946   */\n              calldataload\n                /* \"#utility.yul\":2964:3043   */\n              tag_256\n                /* \"#utility.yul\":3039:3042   */\n              dup5\n                /* \"#utility.yul\":3031:3037   */\n              dup3\n                /* \"#utility.yul\":3024:3028   */\n              0x20\n                /* \"#utility.yul\":3016:3022   */\n              dup7\n                /* \"#utility.yul\":3012:3029   */\n              add\n                /* \"#utility.yul\":2964:3043   */\n              tag_185\n              jump\t// in\n            tag_256:\n                /* \"#utility.yul\":2955:3043   */\n              swap2\n              pop\n                /* \"#utility.yul\":2771:3049   */\n              pop\n                /* \"#utility.yul\":2709:3049   */\n              swap3\n              swap2\n              pop\n              pop\n              jump\t// out\n                /* \"#utility.yul\":3055:3132   */\n            tag_187:\n                /* \"#utility.yul\":3092:3099   */\n              0x00\n                /* \"#utility.yul\":3121:3126   */\n              dup2\n                /* \"#utility.yul\":3110:3126   */\n              swap1\n              pop\n                /* \"#utility.yul\":3055:3132   */\n              swap2\n              swap1\n              pop\n              jump\t// out\n                /* \"#utility.yul\":3138:3260   */\n            tag_188:\n                /* \"#utility.yul\":3211:3235   */\n              tag_259\n                /* \"#utility.yul\":3229:3234   */\n              dup2\n                /* \"#utility.yul\":3211:3235   */\n              tag_187\n              jump\t// in\n            tag_259:\n                /* \"#utility.yul\":3204:3209   */\n              dup2\n                /* \"#utility.yul\":3201:3236   */\n              eq\n                /* \"#utility.yul\":3191:3254   */\n              tag_260\n              jumpi\n                /* \"#utility.yul\":3250:3251   */\n              0x00\n                /* \"#utility.yul\":3247:3248   */\n              dup1\n                /* \"#utility.yul\":3240:3252   */\n              revert\n                /* \"#utility.yul\":3191:3254   */\n            tag_260:\n                /* \"#utility.yul\":3138:3260   */\n              pop\n              jump\t// out\n                /* \"#utility.yul\":3266:3405   */\n            tag_189:\n                /* \"#utility.yul\":3312:3317   */\n              0x00\n                /* \"#utility.yul\":3350:3356   */\n              dup2\n                /* \"#utility.yul\":3337:3357   */\n              calldataload\n                /* \"#utility.yul\":3328:3357   */\n              swap1\n              pop\n                /* \"#utility.yul\":3366:3399   */\n              tag_262\n                /* \"#utility.yul\":3393:3398   */\n              dup2\n                /* \"#utility.yul\":3366:3399   */\n              tag_188\n              jump\t// in\n            tag_262:\n                /* \"#utility.yul\":3266:3405   */\n              swap3\n              swap2\n              pop\n              pop\n              jump\t// out\n                /* \"#utility.yul\":3411:4210   */\n            tag_14:\n                /* \"#utility.yul\":3498:3504   */\n              0x00\n                /* \"#utility.yul\":3506:3512   */\n              dup1\n                /* \"#utility.yul\":3514:3520   */\n              0x00\n                /* \"#utility.yul\":3563:3565   */\n              0x60\n                /* \"#utility.yul\":3551:3560   */\n              dup5\n                /* \"#utility.yul\":3542:3549   */\n              dup7\n                /* \"#utility.yul\":3538:3561   */\n              sub\n                /* \"#utility.yul\":3534:3566   */\n              slt\n                /* \"#utility.yul\":3531:3650   */\n              iszero\n              tag_264\n              jumpi\n                /* \"#utility.yul\":3569:3648   */\n              tag_265\n              tag_172\n              jump\t// in\n            tag_265:\n                /* \"#utility.yul\":3531:3650   */\n            tag_264:\n                /* \"#utility.yul\":3689:3690   */\n              0x00\n                /* \"#utility.yul\":3714:3767   */\n              tag_266\n                /* \"#utility.yul\":3759:3766   */\n              dup7\n                /* \"#utility.yul\":3750:3756   */\n              dup3\n                /* \"#utility.yul\":3739:3748   */\n              dup8\n                /* \"#utility.yul\":3735:3757   */\n              add\n                /* \"#utility.yul\":3714:3767   */\n              tag_177\n              jump\t// in\n            tag_266:\n                /* \"#utility.yul\":3704:3767   */\n              swap4\n              pop\n                /* \"#utility.yul\":3660:3777   */\n              pop\n                /* \"#utility.yul\":3844:3846   */\n              0x20\n                /* \"#utility.yul\":3833:3842   */\n              dup5\n                /* \"#utility.yul\":3829:3847   */\n              add\n                /* \"#utility.yul\":3816:3848   */\n              calldataload\n                /* \"#utility.yul\":3875:3893   */\n              0xffffffffffffffff\n                /* \"#utility.yul\":3867:3873   */\n              dup2\n                /* \"#utility.yul\":3864:3894   */\n              gt\n                /* \"#utility.yul\":3861:3978   */\n              iszero\n              tag_267\n              jumpi\n                /* \"#utility.yul\":3897:3976   */\n              tag_268\n              tag_173\n              jump\t// in\n            tag_268:\n                /* \"#utility.yul\":3861:3978   */\n            tag_267:\n                /* \"#utility.yul\":4002:4065   */\n              tag_269\n                /* \"#utility.yul\":4057:4064   */\n              dup7\n                /* \"#utility.yul\":4048:4054   */\n              dup3\n                /* \"#utility.yul\":4037:4046   */\n              dup8\n                /* \"#utility.yul\":4033:4055   */\n              add\n                /* \"#utility.yul\":4002:4065   */\n              tag_186\n              jump\t// in\n            tag_269:\n                /* \"#utility.yul\":3992:4065   */\n              swap3\n              pop\n                /* \"#utility.yul\":3787:4075   */\n              pop\n                /* \"#utility.yul\":4114:4116   */\n              0x40\n                /* \"#utility.yul\":4140:4193   */\n              tag_270\n                /* \"#utility.yul\":4185:4192   */\n              dup7\n                /* \"#utility.yul\":4176:4182   */\n              dup3\n                /* \"#utility.yul\":4165:4174   */\n              dup8\n                /* \"#utility.yul\":4161:4183   */\n              add\n                /* \"#utility.yul\":4140:4193   */\n              tag_189\n              jump\t// in\n            tag_270:\n                /* \"#utility.yul\":4130:4193   */\n              swap2\n              pop\n                /* \"#utility.yul\":4085:4203   */\n              pop\n                /* \"#utility.yul\":3411:4210   */\n              swap3\n              pop\n              swap3\n              pop\n              swap3\n              jump\t// out\n                /* \"#utility.yul\":4216:4334   */\n            tag_190:\n                /* \"#utility.yul\":4303:4327   */\n              tag_272\n                /* \"#utility.yul\":4321:4326   */\n              dup2\n                /* \"#utility.yul\":4303:4327   */\n              tag_175\n              jump\t// in\n            tag_272:\n                /* \"#utility.yul\":4298:4301   */\n              dup3\n                /* \"#utility.yul\":4291:4328   */\n              mstore\n                /* \"#utility.yul\":4216:4334   */\n              pop\n              pop\n              jump\t// out\n                /* \"#utility.yul\":4340:4562   */\n            tag_19:\n                /* \"#utility.yul\":4433:4437   */\n              0x00\n                /* \"#utility.yul\":4471:4473   */\n              0x20\n                /* \"#utility.yul\":4460:4469   */\n              dup3\n                /* \"#utility.yul\":4456:4474   */\n              add\n                /* \"#utility.yul\":4448:4474   */\n              swap1\n              pop\n                /* \"#utility.yul\":4484:4555   */\n              tag_274\n                /* \"#utility.yul\":4552:4553   */\n              0x00\n                /* \"#utility.yul\":4541:4550   */\n              dup4\n                /* \"#utility.yul\":4537:4554   */\n              add\n                /* \"#utility.yul\":4528:4534   */\n              dup5\n                /* \"#utility.yul\":4484:4555   */\n              tag_190\n              jump\t// in\n            tag_274:\n                /* \"#utility.yul\":4340:4562   */\n              swap3\n              swap2\n              pop\n              pop\n              jump\t// out\n                /* \"#utility.yul\":4568:4667   */\n            tag_191:\n                /* \"#utility.yul\":4620:4626   */\n              0x00\n                /* \"#utility.yul\":4654:4659   */\n              dup2\n                /* \"#utility.yul\":4648:4660   */\n              mload\n                /* \"#utility.yul\":4638:4660   */\n              swap1\n              pop\n                /* \"#utility.yul\":4568:4667   */\n              swap2\n              swap1\n              pop\n              jump\t// out\n                /* \"#utility.yul\":4673:4842   */\n            tag_192:\n                /* \"#utility.yul\":4757:4768   */\n              0x00\n                /* \"#utility.yul\":4791:4797   */\n              dup3\n                /* \"#utility.yul\":4786:4789   */\n              dup3\n                /* \"#utility.yul\":4779:4798   */\n              mstore\n                /* \"#utility.yul\":4831:4835   */\n              0x20\n                /* \"#utility.yul\":4826:4829   */\n              dup3\n                /* \"#utility.yul\":4822:4836   */\n              add\n                /* \"#utility.yul\":4807:4836   */\n              swap1\n              pop\n                /* \"#utility.yul\":4673:4842   */\n              swap3\n              swap2\n              pop\n              pop\n              jump\t// out\n                /* \"#utility.yul\":4848:5155   */\n            tag_193:\n                /* \"#utility.yul\":4916:4917   */\n              0x00\n                /* \"#utility.yul\":4926:5039   */\n            tag_278:\n                /* \"#utility.yul\":4940:4946   */\n              dup4\n                /* \"#utility.yul\":4937:4938   */\n              dup2\n                /* \"#utility.yul\":4934:4947   */\n              lt\n                /* \"#utility.yul\":4926:5039   */\n              iszero\n              tag_280\n              jumpi\n                /* \"#utility.yul\":5025:5026   */\n              dup1\n                /* \"#utility.yul\":5020:5023   */\n              dup3\n                /* \"#utility.yul\":5016:5027   */\n              add\n                /* \"#utility.yul\":5010:5028   */\n              mload\n                /* \"#utility.yul\":5006:5007   */\n              dup2\n                /* \"#utility.yul\":5001:5004   */\n              dup5\n                /* \"#utility.yul\":4997:5008   */\n              add\n                /* \"#utility.yul\":4990:5029   */\n              mstore\n                /* \"#utility.yul\":4962:4964   */\n              0x20\n                /* \"#utility.yul\":4959:4960   */\n              dup2\n                /* \"#utility.yul\":4955:4965   */\n              add\n                /* \"#utility.yul\":4950:4965   */\n              swap1\n              pop\n                /* \"#utility.yul\":4926:5039   */\n              jump(tag_278)\n            tag_280:\n                /* \"#utility.yul\":5057:5063   */\n              dup4\n                /* \"#utility.yul\":5054:5055   */\n              dup2\n                /* \"#utility.yul\":5051:5064   */\n              gt\n                /* \"#utility.yul\":5048:5149   */\n              iszero\n              tag_281\n              jumpi\n                /* \"#utility.yul\":5137:5138   */\n              0x00\n                /* \"#utility.yul\":5128:5134   */\n              dup5\n                /* \"#utility.yul\":5123:5126   */\n              dup5\n                /* \"#utility.yul\":5119:5135   */\n              add\n                /* \"#utility.yul\":5112:5139   */\n              mstore\n                /* \"#utility.yul\":5048:5149   */\n            tag_281:\n                /* \"#utility.yul\":4897:5155   */\n              pop\n                /* \"#utility.yul\":4848:5155   */\n              pop\n              pop\n              pop\n              jump\t// out\n                /* \"#utility.yul\":5161:5525   */\n            tag_194:\n                /* \"#utility.yul\":5249:5252   */\n              0x00\n                /* \"#utility.yul\":5277:5316   */\n              tag_283\n                /* \"#utility.yul\":5310:5315   */\n              dup3\n                /* \"#utility.yul\":5277:5316   */\n              tag_191\n              jump\t// in\n            tag_283:\n                /* \"#utility.yul\":5332:5403   */\n              tag_284\n                /* \"#utility.yul\":5396:5402   */\n              dup2\n                /* \"#utility.yul\":5391:5394   */\n              dup6\n                /* \"#utility.yul\":5332:5403   */\n              tag_192\n              jump\t// in\n            tag_284:\n                /* \"#utility.yul\":5325:5403   */\n              swap4\n              pop\n                /* \"#utility.yul\":5412:5464   */\n              tag_285\n                /* \"#utility.yul\":5457:5463   */\n              dup2\n                /* \"#utility.yul\":5452:5455   */\n              dup6\n                /* \"#utility.yul\":5445:5449   */\n              0x20\n                /* \"#utility.yul\":5438:5443   */\n              dup7\n                /* \"#utility.yul\":5434:5450   */\n              add\n                /* \"#utility.yul\":5412:5464   */\n              tag_193\n              jump\t// in\n            tag_285:\n                /* \"#utility.yul\":5489:5518   */\n              tag_286\n                /* \"#utility.yul\":5511:5517   */\n              dup2\n                /* \"#utility.yul\":5489:5518   */\n              tag_180\n              jump\t// in\n            tag_286:\n                /* \"#utility.yul\":5484:5487   */\n              dup5\n                /* \"#utility.yul\":5480:5519   */\n              add\n                /* \"#utility.yul\":5473:5519   */\n              swap2\n              pop\n                /* \"#utility.yul\":5253:5525   */\n              pop\n                /* \"#utility.yul\":5161:5525   */\n              swap3\n              swap2\n              pop\n              pop\n              jump\t// out\n                /* \"#utility.yul\":5531:5844   */\n            tag_26:\n                /* \"#utility.yul\":5644:5648   */\n              0x00\n                /* \"#utility.yul\":5682:5684   */\n              0x20\n                /* \"#utility.yul\":5671:5680   */\n              dup3\n                /* \"#utility.yul\":5667:5685   */\n              add\n                /* \"#utility.yul\":5659:5685   */\n              swap1\n              pop\n                /* \"#utility.yul\":5731:5740   */\n              dup2\n                /* \"#utility.yul\":5725:5729   */\n              dup2\n                /* \"#utility.yul\":5721:5741   */\n              sub\n                /* \"#utility.yul\":5717:5718   */\n              0x00\n                /* \"#utility.yul\":5706:5715   */\n              dup4\n                /* \"#utility.yul\":5702:5719   */\n              add\n                /* \"#utility.yul\":5695:5742   */\n              mstore\n                /* \"#utility.yul\":5759:5837   */\n              tag_288\n                /* \"#utility.yul\":5832:5836   */\n              dup2\n                /* \"#utility.yul\":5823:5829   */\n              dup5\n                /* \"#utility.yul\":5759:5837   */\n              tag_194\n              jump\t// in\n            tag_288:\n                /* \"#utility.yul\":5751:5837   */\n              swap1\n              pop\n                /* \"#utility.yul\":5531:5844   */\n              swap3\n              swap2\n              pop\n              pop\n              jump\t// out\n                /* \"#utility.yul\":5850:6324   */\n            tag_29:\n                /* \"#utility.yul\":5918:5924   */\n              0x00\n                /* \"#utility.yul\":5926:5932   */\n              dup1\n                /* \"#utility.yul\":5975:5977   */\n              0x40\n                /* \"#utility.yul\":5963:5972   */\n              dup4\n                /* \"#utility.yul\":5954:5961   */\n              dup6\n                /* \"#utility.yul\":5950:5973   */\n              sub\n                /* \"#utility.yul\":5946:5978   */\n              slt\n                /* \"#utility.yul\":5943:6062   */\n              iszero\n              tag_290\n              jumpi\n                /* \"#utility.yul\":5981:6060   */\n              tag_291\n              tag_172\n              jump\t// in\n            tag_291:\n                /* \"#utility.yul\":5943:6062   */\n            tag_290:\n                /* \"#utility.yul\":6101:6102   */\n              0x00\n                /* \"#utility.yul\":6126:6179   */\n              tag_292\n                /* \"#utility.yul\":6171:6178   */\n              dup6\n                /* \"#utility.yul\":6162:6168   */\n              dup3\n                /* \"#utility.yul\":6151:6160   */\n              dup7\n                /* \"#utility.yul\":6147:6169   */\n              add\n                /* \"#utility.yul\":6126:6179   */\n              tag_189\n              jump\t// in\n            tag_292:\n                /* \"#utility.yul\":6116:6179   */\n              swap3\n              pop\n                /* \"#utility.yul\":6072:6189   */\n              pop\n                /* \"#utility.yul\":6228:6230   */\n              0x20\n                /* \"#utility.yul\":6254:6307   */\n              tag_293\n                /* \"#utility.yul\":6299:6306   */\n              dup6\n                /* \"#utility.yul\":6290:6296   */\n              dup3\n                /* \"#utility.yul\":6279:6288   */\n              dup7\n                /* \"#utility.yul\":6275:6297   */\n              add\n                /* \"#utility.yul\":6254:6307   */\n              tag_177\n              jump\t// in\n            tag_293:\n                /* \"#utility.yul\":6244:6307   */\n              swap2\n              pop\n                /* \"#utility.yul\":6199:6317   */\n              pop\n                /* \"#utility.yul\":5850:6324   */\n              swap3\n              pop\n              swap3\n              swap1\n              pop\n              jump\t// out\n                /* \"#utility.yul\":6330:6444   */\n            tag_195:\n                /* \"#utility.yul\":6397:6403   */\n              0x00\n                /* \"#utility.yul\":6431:6436   */\n              dup2\n                /* \"#utility.yul\":6425:6437   */\n              mload\n                /* \"#utility.yul\":6415:6437   */\n              swap1\n              pop\n                /* \"#utility.yul\":6330:6444   */\n              swap2\n              swap1\n              pop\n              jump\t// out\n                /* \"#utility.yul\":6450:6634   */\n            tag_196:\n                /* \"#utility.yul\":6549:6560   */\n              0x00\n                /* \"#utility.yul\":6583:6589   */\n              dup3\n                /* \"#utility.yul\":6578:6581   */\n              dup3\n                /* \"#utility.yul\":6571:6590   */\n              mstore\n                /* \"#utility.yul\":6623:6627   */\n              0x20\n                /* \"#utility.yul\":6618:6621   */\n              dup3\n                /* \"#utility.yul\":6614:6628   */\n              add\n                /* \"#utility.yul\":6599:6628   */\n              swap1\n              pop\n                /* \"#utility.yul\":6450:6634   */\n              swap3\n              swap2\n              pop\n              pop\n              jump\t// out\n                /* \"#utility.yul\":6640:6772   */\n            tag_197:\n                /* \"#utility.yul\":6707:6711   */\n              0x00\n                /* \"#utility.yul\":6730:6733   */\n              dup2\n                /* \"#utility.yul\":6722:6733   */\n              swap1\n              pop\n                /* \"#utility.yul\":6760:6764   */\n              0x20\n                /* \"#utility.yul\":6755:6758   */\n              dup3\n                /* \"#utility.yul\":6751:6765   */\n              add\n                /* \"#utility.yul\":6743:6765   */\n              swap1\n              pop\n                /* \"#utility.yul\":6640:6772   */\n              swap2\n              swap1\n              pop\n              jump\t// out\n                /* \"#utility.yul\":6778:6886   */\n            tag_198:\n                /* \"#utility.yul\":6855:6879   */\n              tag_298\n                /* \"#utility.yul\":6873:6878   */\n              dup2\n                /* \"#utility.yul\":6855:6879   */\n              tag_175\n              jump\t// in\n            tag_298:\n                /* \"#utility.yul\":6850:6853   */\n              dup3\n                /* \"#utility.yul\":6843:6880   */\n              mstore\n                /* \"#utility.yul\":6778:6886   */\n              pop\n              pop\n              jump\t// out\n                /* \"#utility.yul\":6892:7071   */\n            tag_199:\n                /* \"#utility.yul\":6961:6971   */\n              0x00\n                /* \"#utility.yul\":6982:7028   */\n              tag_300\n                /* \"#utility.yul\":7024:7027   */\n              dup4\n                /* \"#utility.yul\":7016:7022   */\n              dup4\n                /* \"#utility.yul\":6982:7028   */\n              tag_198\n              jump\t// in\n            tag_300:\n                /* \"#utility.yul\":7060:7064   */\n              0x20\n                /* \"#utility.yul\":7055:7058   */\n              dup4\n                /* \"#utility.yul\":7051:7065   */\n              add\n                /* \"#utility.yul\":7037:7065   */\n              swap1\n              pop\n                /* \"#utility.yul\":6892:7071   */\n              swap3\n              swap2\n              pop\n              pop\n              jump\t// out\n                /* \"#utility.yul\":7077:7190   */\n            tag_200:\n                /* \"#utility.yul\":7147:7151   */\n              0x00\n                /* \"#utility.yul\":7179:7183   */\n              0x20\n                /* \"#utility.yul\":7174:7177   */\n              dup3\n                /* \"#utility.yul\":7170:7184   */\n              add\n                /* \"#utility.yul\":7162:7184   */\n              swap1\n              pop\n                /* \"#utility.yul\":7077:7190   */\n              swap2\n              swap1\n              pop\n              jump\t// out\n                /* \"#utility.yul\":7226:7958   */\n            tag_201:\n                /* \"#utility.yul\":7345:7348   */\n              0x00\n                /* \"#utility.yul\":7374:7428   */\n              tag_303\n                /* \"#utility.yul\":7422:7427   */\n              dup3\n                /* \"#utility.yul\":7374:7428   */\n              tag_195\n              jump\t// in\n            tag_303:\n                /* \"#utility.yul\":7444:7530   */\n              tag_304\n                /* \"#utility.yul\":7523:7529   */\n              dup2\n                /* \"#utility.yul\":7518:7521   */\n              dup6\n                /* \"#utility.yul\":7444:7530   */\n              tag_196\n              jump\t// in\n            tag_304:\n                /* \"#utility.yul\":7437:7530   */\n              swap4\n              pop\n                /* \"#utility.yul\":7554:7610   */\n              tag_305\n                /* \"#utility.yul\":7604:7609   */\n              dup4\n                /* \"#utility.yul\":7554:7610   */\n              tag_197\n              jump\t// in\n            tag_305:\n                /* \"#utility.yul\":7633:7640   */\n              dup1\n                /* \"#utility.yul\":7664:7665   */\n              0x00\n                /* \"#utility.yul\":7649:7933   */\n            tag_306:\n                /* \"#utility.yul\":7674:7680   */\n              dup4\n                /* \"#utility.yul\":7671:7672   */\n              dup2\n                /* \"#utility.yul\":7668:7681   */\n              lt\n                /* \"#utility.yul\":7649:7933   */\n              iszero\n              tag_308\n              jumpi\n                /* \"#utility.yul\":7750:7756   */\n              dup2\n                /* \"#utility.yul\":7744:7757   */\n              mload\n                /* \"#utility.yul\":7777:7840   */\n              tag_309\n                /* \"#utility.yul\":7836:7839   */\n              dup9\n                /* \"#utility.yul\":7821:7834   */\n              dup3\n                /* \"#utility.yul\":7777:7840   */\n              tag_199\n              jump\t// in\n            tag_309:\n                /* \"#utility.yul\":7770:7840   */\n              swap8\n              pop\n                /* \"#utility.yul\":7863:7923   */\n              tag_310\n                /* \"#utility.yul\":7916:7922   */\n              dup4\n                /* \"#utility.yul\":7863:7923   */\n              tag_200\n              jump\t// in\n            tag_310:\n                /* \"#utility.yul\":7853:7923   */\n              swap3\n              pop\n                /* \"#utility.yul\":7709:7933   */\n              pop\n                /* \"#utility.yul\":7696:7697   */\n              0x01\n                /* \"#utility.yul\":7693:7694   */\n              dup2\n                /* \"#utility.yul\":7689:7698   */\n              add\n                /* \"#utility.yul\":7684:7698   */\n              swap1\n              pop\n                /* \"#utility.yul\":7649:7933   */\n              jump(tag_306)\n            tag_308:\n                /* \"#utility.yul\":7653:7667   */\n              pop\n                /* \"#utility.yul\":7949:7952   */\n              dup6\n                /* \"#utility.yul\":7942:7952   */\n              swap4\n              pop\n                /* \"#utility.yul\":7350:7958   */\n              pop\n              pop\n              pop\n                /* \"#utility.yul\":7226:7958   */\n              swap3\n              swap2\n              pop\n              pop\n              jump\t// out\n                /* \"#utility.yul\":7964:8088   */\n            tag_202:\n                /* \"#utility.yul\":8041:8047   */\n              0x00\n                /* \"#utility.yul\":8075:8080   */\n              dup2\n                /* \"#utility.yul\":8069:8081   */\n              mload\n                /* \"#utility.yul\":8059:8081   */\n              swap1\n              pop\n                /* \"#utility.yul\":7964:8088   */\n              swap2\n              swap1\n              pop\n              jump\t// out\n                /* \"#utility.yul\":8094:8288   */\n            tag_203:\n                /* \"#utility.yul\":8203:8214   */\n              0x00\n                /* \"#utility.yul\":8237:8243   */\n              dup3\n                /* \"#utility.yul\":8232:8235   */\n              dup3\n                /* \"#utility.yul\":8225:8244   */\n              mstore\n                /* \"#utility.yul\":8277:8281   */\n              0x20\n                /* \"#utility.yul\":8272:8275   */\n              dup3\n                /* \"#utility.yul\":8268:8282   */\n              add\n                /* \"#utility.yul\":8253:8282   */\n              swap1\n              pop\n                /* \"#utility.yul\":8094:8288   */\n              swap3\n              swap2\n              pop\n              pop\n              jump\t// out\n                /* \"#utility.yul\":8294:8436   */\n            tag_204:\n                /* \"#utility.yul\":8371:8375   */\n              0x00\n                /* \"#utility.yul\":8394:8397   */\n              dup2\n                /* \"#utility.yul\":8386:8397   */\n              swap1\n              pop\n                /* \"#utility.yul\":8424:8428   */\n              0x20\n                /* \"#utility.yul\":8419:8422   */\n              dup3\n                /* \"#utility.yul\":8415:8429   */\n              add\n                /* \"#utility.yul\":8407:8429   */\n              swap1\n              pop\n                /* \"#utility.yul\":8294:8436   */\n              swap2\n              swap1\n              pop\n              jump\t// out\n                /* \"#utility.yul\":8442:8601   */\n            tag_205:\n                /* \"#utility.yul\":8516:8527   */\n              0x00\n                /* \"#utility.yul\":8550:8556   */\n              dup3\n                /* \"#utility.yul\":8545:8548   */\n              dup3\n                /* \"#utility.yul\":8538:8557   */\n              mstore\n                /* \"#utility.yul\":8590:8594   */\n              0x20\n                /* \"#utility.yul\":8585:8588   */\n              dup3\n                /* \"#utility.yul\":8581:8595   */\n              add\n                /* \"#utility.yul\":8566:8595   */\n              swap1\n              pop\n                /* \"#utility.yul\":8442:8601   */\n              swap3\n              swap2\n              pop\n              pop\n              jump\t// out\n                /* \"#utility.yul\":8607:8951   */\n            tag_206:\n                /* \"#utility.yul\":8685:8688   */\n              0x00\n                /* \"#utility.yul\":8713:8752   */\n              tag_316\n                /* \"#utility.yul\":8746:8751   */\n              dup3\n                /* \"#utility.yul\":8713:8752   */\n              tag_191\n              jump\t// in\n            tag_316:\n                /* \"#utility.yul\":8768:8829   */\n              tag_317\n                /* \"#utility.yul\":8822:8828   */\n              dup2\n                /* \"#utility.yul\":8817:8820   */\n              dup6\n                /* \"#utility.yul\":8768:8829   */\n              tag_205\n              jump\t// in\n            tag_317:\n                /* \"#utility.yul\":8761:8829   */\n              swap4\n              pop\n                /* \"#utility.yul\":8838:8890   */\n              tag_318\n                /* \"#utility.yul\":8883:8889   */\n              dup2\n                /* \"#utility.yul\":8878:8881   */\n              dup6\n                /* \"#utility.yul\":8871:8875   */\n              0x20\n                /* \"#utility.yul\":8864:8869   */\n              dup7\n                /* \"#utility.yul\":8860:8876   */\n              add\n                /* \"#utility.yul\":8838:8890   */\n              tag_193\n              jump\t// in\n            tag_318:\n                /* \"#utility.yul\":8915:8944   */\n              tag_319\n                /* \"#utility.yul\":8937:8943   */\n              dup2\n                /* \"#utility.yul\":8915:8944   */\n              tag_180\n              jump\t// in\n            tag_319:\n                /* \"#utility.yul\":8910:8913   */\n              dup5\n                /* \"#utility.yul\":8906:8945   */\n              add\n                /* \"#utility.yul\":8899:8945   */\n              swap2\n              pop\n                /* \"#utility.yul\":8689:8951   */\n              pop\n                /* \"#utility.yul\":8607:8951   */\n              swap3\n              swap2\n              pop\n              pop\n              jump\t// out\n                /* \"#utility.yul\":8957:9153   */\n            tag_207:\n                /* \"#utility.yul\":9046:9056   */\n              0x00\n                /* \"#utility.yul\":9081:9147   */\n              tag_321\n                /* \"#utility.yul\":9143:9146   */\n              dup4\n                /* \"#utility.yul\":9135:9141   */\n              dup4\n                /* \"#utility.yul\":9081:9147   */\n              tag_206\n              jump\t// in\n            tag_321:\n                /* \"#utility.yul\":9067:9147   */\n              swap1\n              pop\n                /* \"#utility.yul\":8957:9153   */\n              swap3\n              swap2\n              pop\n              pop\n              jump\t// out\n                /* \"#utility.yul\":9159:9282   */\n            tag_208:\n                /* \"#utility.yul\":9239:9243   */\n              0x00\n                /* \"#utility.yul\":9271:9275   */\n              0x20\n                /* \"#utility.yul\":9266:9269   */\n              dup3\n                /* \"#utility.yul\":9262:9276   */\n              add\n                /* \"#utility.yul\":9254:9276   */\n              swap1\n              pop\n                /* \"#utility.yul\":9159:9282   */\n              swap2\n              swap1\n              pop\n              jump\t// out\n                /* \"#utility.yul\":9316:10307   */\n            tag_209:\n                /* \"#utility.yul\":9455:9458   */\n              0x00\n                /* \"#utility.yul\":9484:9548   */\n              tag_324\n                /* \"#utility.yul\":9542:9547   */\n              dup3\n                /* \"#utility.yul\":9484:9548   */\n              tag_202\n              jump\t// in\n            tag_324:\n                /* \"#utility.yul\":9564:9660   */\n              tag_325\n                /* \"#utility.yul\":9653:9659   */\n              dup2\n                /* \"#utility.yul\":9648:9651   */\n              dup6\n                /* \"#utility.yul\":9564:9660   */\n              tag_203\n              jump\t// in\n            tag_325:\n                /* \"#utility.yul\":9557:9660   */\n              swap4\n              pop\n                /* \"#utility.yul\":9686:9689   */\n              dup4\n                /* \"#utility.yul\":9731:9735   */\n              0x20\n                /* \"#utility.yul\":9723:9729   */\n              dup3\n                /* \"#utility.yul\":9719:9736   */\n              mul\n                /* \"#utility.yul\":9714:9717   */\n              dup6\n                /* \"#utility.yul\":9710:9737   */\n              add\n                /* \"#utility.yul\":9761:9827   */\n              tag_326\n                /* \"#utility.yul\":9821:9826   */\n              dup6\n                /* \"#utility.yul\":9761:9827   */\n              tag_204\n              jump\t// in\n            tag_326:\n                /* \"#utility.yul\":9850:9857   */\n              dup1\n                /* \"#utility.yul\":9881:9882   */\n              0x00\n                /* \"#utility.yul\":9866:10262   */\n            tag_327:\n                /* \"#utility.yul\":9891:9897   */\n              dup6\n                /* \"#utility.yul\":9888:9889   */\n              dup2\n                /* \"#utility.yul\":9885:9898   */\n              lt\n                /* \"#utility.yul\":9866:10262   */\n              iszero\n              tag_329\n              jumpi\n                /* \"#utility.yul\":9962:9971   */\n              dup5\n                /* \"#utility.yul\":9956:9960   */\n              dup5\n                /* \"#utility.yul\":9952:9972   */\n              sub\n                /* \"#utility.yul\":9947:9950   */\n              dup10\n                /* \"#utility.yul\":9940:9973   */\n              mstore\n                /* \"#utility.yul\":10013:10019   */\n              dup2\n                /* \"#utility.yul\":10007:10020   */\n              mload\n                /* \"#utility.yul\":10041:10125   */\n              tag_330\n                /* \"#utility.yul\":10120:10124   */\n              dup6\n                /* \"#utility.yul\":10105:10118   */\n              dup3\n                /* \"#utility.yul\":10041:10125   */\n              tag_207\n              jump\t// in\n            tag_330:\n                /* \"#utility.yul\":10033:10125   */\n              swap5\n              pop\n                /* \"#utility.yul\":10148:10218   */\n              tag_331\n                /* \"#utility.yul\":10211:10217   */\n              dup4\n                /* \"#utility.yul\":10148:10218   */\n              tag_208\n              jump\t// in\n            tag_331:\n                /* \"#utility.yul\":10138:10218   */\n              swap3\n              pop\n                /* \"#utility.yul\":10247:10251   */\n              0x20\n                /* \"#utility.yul\":10242:10245   */\n              dup11\n                /* \"#utility.yul\":10238:10252   */\n              add\n                /* \"#utility.yul\":10231:10252   */\n              swap10\n              pop\n                /* \"#utility.yul\":9926:10262   */\n              pop\n                /* \"#utility.yul\":9913:9914   */\n              0x01\n                /* \"#utility.yul\":9910:9911   */\n              dup2\n                /* \"#utility.yul\":9906:9915   */\n              add\n                /* \"#utility.yul\":9901:9915   */\n              swap1\n              pop\n                /* \"#utility.yul\":9866:10262   */\n              jump(tag_327)\n            tag_329:\n                /* \"#utility.yul\":9870:9884   */\n              pop\n                /* \"#utility.yul\":10278:10282   */\n              dup3\n                /* \"#utility.yul\":10271:10282   */\n              swap8\n              pop\n                /* \"#utility.yul\":10298:10301   */\n              dup8\n                /* \"#utility.yul\":10291:10301   */\n              swap6\n              pop\n                /* \"#utility.yul\":9460:10307   */\n              pop\n              pop\n              pop\n              pop\n              pop\n                /* \"#utility.yul\":9316:10307   */\n              swap3\n              swap2\n              pop\n              pop\n              jump\t// out\n                /* \"#utility.yul\":10313:10427   */\n            tag_210:\n                /* \"#utility.yul\":10380:10386   */\n              0x00\n                /* \"#utility.yul\":10414:10419   */\n              dup2\n                /* \"#utility.yul\":10408:10420   */\n              mload\n                /* \"#utility.yul\":10398:10420   */\n              swap1\n              pop\n                /* \"#utility.yul\":10313:10427   */\n              swap2\n              swap1\n              pop\n              jump\t// out\n                /* \"#utility.yul\":10433:10617   */\n            tag_211:\n                /* \"#utility.yul\":10532:10543   */\n              0x00\n                /* \"#utility.yul\":10566:10572   */\n              dup3\n                /* \"#utility.yul\":10561:10564   */\n              dup3\n                /* \"#utility.yul\":10554:10573   */\n              mstore\n                /* \"#utility.yul\":10606:10610   */\n              0x20\n                /* \"#utility.yul\":10601:10604   */\n              dup3\n                /* \"#utility.yul\":10597:10611   */\n              add\n                /* \"#utility.yul\":10582:10611   */\n              swap1\n              pop\n                /* \"#utility.yul\":10433:10617   */\n              swap3\n              swap2\n              pop\n              pop\n              jump\t// out\n                /* \"#utility.yul\":10623:10755   */\n            tag_212:\n                /* \"#utility.yul\":10690:10694   */\n              0x00\n                /* \"#utility.yul\":10713:10716   */\n              dup2\n                /* \"#utility.yul\":10705:10716   */\n              swap1\n              pop\n                /* \"#utility.yul\":10743:10747   */\n              0x20\n                /* \"#utility.yul\":10738:10741   */\n              dup3\n                /* \"#utility.yul\":10734:10748   */\n              add\n                /* \"#utility.yul\":10726:10748   */\n              swap1\n              pop\n                /* \"#utility.yul\":10623:10755   */\n              swap2\n              swap1\n              pop\n              jump\t// out\n                /* \"#utility.yul\":10761:10869   */\n            tag_213:\n                /* \"#utility.yul\":10838:10862   */\n              tag_336\n                /* \"#utility.yul\":10856:10861   */\n              dup2\n                /* \"#utility.yul\":10838:10862   */\n              tag_187\n              jump\t// in\n            tag_336:\n                /* \"#utility.yul\":10833:10836   */\n              dup3\n                /* \"#utility.yul\":10826:10863   */\n              mstore\n                /* \"#utility.yul\":10761:10869   */\n              pop\n              pop\n              jump\t// out\n                /* \"#utility.yul\":10875:11054   */\n            tag_214:\n                /* \"#utility.yul\":10944:10954   */\n              0x00\n                /* \"#utility.yul\":10965:11011   */\n              tag_338\n                /* \"#utility.yul\":11007:11010   */\n              dup4\n                /* \"#utility.yul\":10999:11005   */\n              dup4\n                /* \"#utility.yul\":10965:11011   */\n              tag_213\n              jump\t// in\n            tag_338:\n                /* \"#utility.yul\":11043:11047   */\n              0x20\n                /* \"#utility.yul\":11038:11041   */\n              dup4\n                /* \"#utility.yul\":11034:11048   */\n              add\n                /* \"#utility.yul\":11020:11048   */\n              swap1\n              pop\n                /* \"#utility.yul\":10875:11054   */\n              swap3\n              swap2\n              pop\n              pop\n              jump\t// out\n                /* \"#utility.yul\":11060:11173   */\n            tag_215:\n                /* \"#utility.yul\":11130:11134   */\n              0x00\n                /* \"#utility.yul\":11162:11166   */\n              0x20\n                /* \"#utility.yul\":11157:11160   */\n              dup3\n                /* \"#utility.yul\":11153:11167   */\n              add\n                /* \"#utility.yul\":11145:11167   */\n              swap1\n              pop\n                /* \"#utility.yul\":11060:11173   */\n              swap2\n              swap1\n              pop\n              jump\t// out\n                /* \"#utility.yul\":11209:11941   */\n            tag_216:\n                /* \"#utility.yul\":11328:11331   */\n              0x00\n                /* \"#utility.yul\":11357:11411   */\n              tag_341\n                /* \"#utility.yul\":11405:11410   */\n              dup3\n                /* \"#utility.yul\":11357:11411   */\n              tag_210\n              jump\t// in\n            tag_341:\n                /* \"#utility.yul\":11427:11513   */\n              tag_342\n                /* \"#utility.yul\":11506:11512   */\n              dup2\n                /* \"#utility.yul\":11501:11504   */\n              dup6\n                /* \"#utility.yul\":11427:11513   */\n              tag_211\n              jump\t// in\n            tag_342:\n                /* \"#utility.yul\":11420:11513   */\n              swap4\n              pop\n                /* \"#utility.yul\":11537:11593   */\n              tag_343\n                /* \"#utility.yul\":11587:11592   */\n              dup4\n                /* \"#utility.yul\":11537:11593   */\n              tag_212\n              jump\t// in\n            tag_343:\n                /* \"#utility.yul\":11616:11623   */\n              dup1\n                /* \"#utility.yul\":11647:11648   */\n              0x00\n                /* \"#utility.yul\":11632:11916   */\n            tag_344:\n                /* \"#utility.yul\":11657:11663   */\n              dup4\n                /* \"#utility.yul\":11654:11655   */\n              dup2\n                /* \"#utility.yul\":11651:11664   */\n              lt\n                /* \"#utility.yul\":11632:11916   */\n              iszero\n              tag_346\n              jumpi\n                /* \"#utility.yul\":11733:11739   */\n              dup2\n                /* \"#utility.yul\":11727:11740   */\n              mload\n                /* \"#utility.yul\":11760:11823   */\n              tag_347\n                /* \"#utility.yul\":11819:11822   */\n              dup9\n                /* \"#utility.yul\":11804:11817   */\n              dup3\n                /* \"#utility.yul\":11760:11823   */\n              tag_214\n              jump\t// in\n            tag_347:\n                /* \"#utility.yul\":11753:11823   */\n              swap8\n              pop\n                /* \"#utility.yul\":11846:11906   */\n              tag_348\n                /* \"#utility.yul\":11899:11905   */\n              dup4\n                /* \"#utility.yul\":11846:11906   */\n              tag_215\n              jump\t// in\n            tag_348:\n                /* \"#utility.yul\":11836:11906   */\n              swap3\n              pop\n                /* \"#utility.yul\":11692:11916   */\n              pop\n                /* \"#utility.yul\":11679:11680   */\n              0x01\n                /* \"#utility.yul\":11676:11677   */\n              dup2\n                /* \"#utility.yul\":11672:11681   */\n              add\n                /* \"#utility.yul\":11667:11681   */\n              swap1\n              pop\n                /* \"#utility.yul\":11632:11916   */\n              jump(tag_344)\n            tag_346:\n                /* \"#utility.yul\":11636:11650   */\n              pop\n                /* \"#utility.yul\":11932:11935   */\n              dup6\n                /* \"#utility.yul\":11925:11935   */\n              swap4\n              pop\n                /* \"#utility.yul\":11333:11941   */\n              pop\n              pop\n              pop\n                /* \"#utility.yul\":11209:11941   */\n              swap3\n              swap2\n              pop\n              pop\n              jump\t// out\n                /* \"#utility.yul\":11947:12882   */\n            tag_34:\n                /* \"#utility.yul\":12266:12270   */\n              0x00\n                /* \"#utility.yul\":12304:12306   */\n              0x60\n                /* \"#utility.yul\":12293:12302   */\n              dup3\n                /* \"#utility.yul\":12289:12307   */\n              add\n                /* \"#utility.yul\":12281:12307   */\n              swap1\n              pop\n                /* \"#utility.yul\":12353:12362   */\n              dup2\n                /* \"#utility.yul\":12347:12351   */\n              dup2\n                /* \"#utility.yul\":12343:12363   */\n              sub\n                /* \"#utility.yul\":12339:12340   */\n              0x00\n                /* \"#utility.yul\":12328:12337   */\n              dup4\n                /* \"#utility.yul\":12324:12341   */\n              add\n                /* \"#utility.yul\":12317:12364   */\n              mstore\n                /* \"#utility.yul\":12381:12489   */\n              tag_350\n                /* \"#utility.yul\":12484:12488   */\n              dup2\n                /* \"#utility.yul\":12475:12481   */\n              dup7\n                /* \"#utility.yul\":12381:12489   */\n              tag_201\n              jump\t// in\n            tag_350:\n                /* \"#utility.yul\":12373:12489   */\n              swap1\n              pop\n                /* \"#utility.yul\":12536:12545   */\n              dup2\n                /* \"#utility.yul\":12530:12534   */\n              dup2\n                /* \"#utility.yul\":12526:12546   */\n              sub\n                /* \"#utility.yul\":12521:12523   */\n              0x20\n                /* \"#utility.yul\":12510:12519   */\n              dup4\n                /* \"#utility.yul\":12506:12524   */\n              add\n                /* \"#utility.yul\":12499:12547   */\n              mstore\n                /* \"#utility.yul\":12564:12692   */\n              tag_351\n                /* \"#utility.yul\":12687:12691   */\n              dup2\n                /* \"#utility.yul\":12678:12684   */\n              dup6\n                /* \"#utility.yul\":12564:12692   */\n              tag_209\n              jump\t// in\n            tag_351:\n                /* \"#utility.yul\":12556:12692   */\n              swap1\n              pop\n                /* \"#utility.yul\":12739:12748   */\n              dup2\n                /* \"#utility.yul\":12733:12737   */\n              dup2\n                /* \"#utility.yul\":12729:12749   */\n              sub\n                /* \"#utility.yul\":12724:12726   */\n              0x40\n                /* \"#utility.yul\":12713:12722   */\n              dup4\n                /* \"#utility.yul\":12709:12727   */\n              add\n                /* \"#utility.yul\":12702:12750   */\n              mstore\n                /* \"#utility.yul\":12767:12875   */\n              tag_352\n                /* \"#utility.yul\":12870:12874   */\n              dup2\n                /* \"#utility.yul\":12861:12867   */\n              dup5\n                /* \"#utility.yul\":12767:12875   */\n              tag_216\n              jump\t// in\n            tag_352:\n                /* \"#utility.yul\":12759:12875   */\n              swap1\n              pop\n                /* \"#utility.yul\":11947:12882   */\n              swap5\n              swap4\n              pop\n              pop\n              pop\n              pop\n              jump\t// out\n                /* \"#utility.yul\":12888:13217   */\n            tag_37:\n                /* \"#utility.yul\":12947:12953   */\n              0x00\n                /* \"#utility.yul\":12996:12998   */\n              0x20\n                /* \"#utility.yul\":12984:12993   */\n              dup3\n                /* \"#utility.yul\":12975:12982   */\n              dup5\n                /* \"#utility.yul\":12971:12994   */\n              sub\n                /* \"#utility.yul\":12967:12999   */\n              slt\n                /* \"#utility.yul\":12964:13083   */\n              iszero\n              tag_354\n              jumpi\n                /* \"#utility.yul\":13002:13081   */\n              tag_355\n              tag_172\n              jump\t// in\n            tag_355:\n                /* \"#utility.yul\":12964:13083   */\n            tag_354:\n                /* \"#utility.yul\":13122:13123   */\n              0x00\n                /* \"#utility.yul\":13147:13200   */\n              tag_356\n                /* \"#utility.yul\":13192:13199   */\n              dup5\n                /* \"#utility.yul\":13183:13189   */\n              dup3\n                /* \"#utility.yul\":13172:13181   */\n              dup6\n                /* \"#utility.yul\":13168:13190   */\n              add\n                /* \"#utility.yul\":13147:13200   */\n              tag_177\n              jump\t// in\n            tag_356:\n                /* \"#utility.yul\":13137:13200   */\n              swap2\n              pop\n                /* \"#utility.yul\":13093:13210   */\n              pop\n                /* \"#utility.yul\":12888:13217   */\n              swap3\n              swap2\n              pop\n              pop\n              jump\t// out\n                /* \"#utility.yul\":13223:13732   */\n            tag_41:\n                /* \"#utility.yul\":13292:13298   */\n              0x00\n                /* \"#utility.yul\":13341:13343   */\n              0x20\n                /* \"#utility.yul\":13329:13338   */\n              dup3\n                /* \"#utility.yul\":13320:13327   */\n              dup5\n                /* \"#utility.yul\":13316:13339   */\n              sub\n                /* \"#utility.yul\":13312:13344   */\n              slt\n                /* \"#utility.yul\":13309:13428   */\n              iszero\n              tag_358\n              jumpi\n                /* \"#utility.yul\":13347:13426   */\n              tag_359\n              tag_172\n              jump\t// in\n            tag_359:\n                /* \"#utility.yul\":13309:13428   */\n            tag_358:\n                /* \"#utility.yul\":13495:13496   */\n              0x00\n                /* \"#utility.yul\":13484:13493   */\n              dup3\n                /* \"#utility.yul\":13480:13497   */\n              add\n                /* \"#utility.yul\":13467:13498   */\n              calldataload\n                /* \"#utility.yul\":13525:13543   */\n              0xffffffffffffffff\n                /* \"#utility.yul\":13517:13523   */\n              dup2\n                /* \"#utility.yul\":13514:13544   */\n              gt\n                /* \"#utility.yul\":13511:13628   */\n              iszero\n              tag_360\n              jumpi\n                /* \"#utility.yul\":13547:13626   */\n              tag_361\n              tag_173\n              jump\t// in\n            tag_361:\n                /* \"#utility.yul\":13511:13628   */\n            tag_360:\n                /* \"#utility.yul\":13652:13715   */\n              tag_362\n                /* \"#utility.yul\":13707:13714   */\n              dup5\n                /* \"#utility.yul\":13698:13704   */\n              dup3\n                /* \"#utility.yul\":13687:13696   */\n              dup6\n                /* \"#utility.yul\":13683:13705   */\n              add\n                /* \"#utility.yul\":13652:13715   */\n              tag_186\n              jump\t// in\n            tag_362:\n                /* \"#utility.yul\":13642:13715   */\n              swap2\n              pop\n                /* \"#utility.yul\":13438:13725   */\n              pop\n                /* \"#utility.yul\":13223:13732   */\n              swap3\n              swap2\n              pop\n              pop\n              jump\t// out\n                /* \"#utility.yul\":13738:13918   */\n            tag_46:\n                /* \"#utility.yul\":13786:13863   */\n              0x4e487b7100000000000000000000000000000000000000000000000000000000\n                /* \"#utility.yul\":13783:13784   */\n              0x00\n                /* \"#utility.yul\":13776:13864   */\n              mstore\n                /* \"#utility.yul\":13883:13887   */\n              0x21\n                /* \"#utility.yul\":13880:13881   */\n              0x04\n                /* \"#utility.yul\":13873:13888   */\n              mstore\n                /* \"#utility.yul\":13907:13911   */\n              0x24\n                /* \"#utility.yul\":13904:13905   */\n              0x00\n                /* \"#utility.yul\":13897:13912   */\n              revert\n                /* \"#utility.yul\":13924:14104   */\n            tag_217:\n                /* \"#utility.yul\":13972:14049   */\n              0x4e487b7100000000000000000000000000000000000000000000000000000000\n                /* \"#utility.yul\":13969:13970   */\n              0x00\n                /* \"#utility.yul\":13962:14050   */\n              mstore\n                /* \"#utility.yul\":14069:14073   */\n              0x22\n                /* \"#utility.yul\":14066:14067   */\n              0x04\n                /* \"#utility.yul\":14059:14074   */\n              mstore\n                /* \"#utility.yul\":14093:14097   */\n              0x24\n                /* \"#utility.yul\":14090:14091   */\n              0x00\n                /* \"#utility.yul\":14083:14098   */\n              revert\n                /* \"#utility.yul\":14110:14430   */\n            tag_78:\n                /* \"#utility.yul\":14154:14160   */\n              0x00\n                /* \"#utility.yul\":14191:14192   */\n              0x02\n                /* \"#utility.yul\":14185:14189   */\n              dup3\n                /* \"#utility.yul\":14181:14193   */\n              div\n                /* \"#utility.yul\":14171:14193   */\n              swap1\n              pop\n                /* \"#utility.yul\":14238:14239   */\n              0x01\n                /* \"#utility.yul\":14232:14236   */\n              dup3\n                /* \"#utility.yul\":14228:14240   */\n              and\n                /* \"#utility.yul\":14259:14277   */\n              dup1\n                /* \"#utility.yul\":14249:14330   */\n              tag_366\n              jumpi\n                /* \"#utility.yul\":14315:14319   */\n              0x7f\n                /* \"#utility.yul\":14307:14313   */\n              dup3\n                /* \"#utility.yul\":14303:14320   */\n              and\n                /* \"#utility.yul\":14293:14320   */\n              swap2\n              pop\n                /* \"#utility.yul\":14249:14330   */\n            tag_366:\n                /* \"#utility.yul\":14377:14379   */\n              0x20\n                /* \"#utility.yul\":14369:14375   */\n              dup3\n                /* \"#utility.yul\":14366:14380   */\n              lt\n                /* \"#utility.yul\":14346:14364   */\n              dup2\n                /* \"#utility.yul\":14343:14381   */\n              sub\n                /* \"#utility.yul\":14340:14424   */\n              tag_367\n              jumpi\n                /* \"#utility.yul\":14396:14414   */\n              tag_368\n              tag_217\n              jump\t// in\n            tag_368:\n                /* \"#utility.yul\":14340:14424   */\n            tag_367:\n                /* \"#utility.yul\":14161:14430   */\n              pop\n                /* \"#utility.yul\":14110:14430   */\n              swap2\n              swap1\n              pop\n              jump\t// out\n                /* \"#utility.yul\":14436:14616   */\n            tag_218:\n                /* \"#utility.yul\":14484:14561   */\n              0x4e487b7100000000000000000000000000000000000000000000000000000000\n                /* \"#utility.yul\":14481:14482   */\n              0x00\n                /* \"#utility.yul\":14474:14562   */\n              mstore\n                /* \"#utility.yul\":14581:14585   */\n              0x11\n                /* \"#utility.yul\":14578:14579   */\n              0x04\n                /* \"#utility.yul\":14571:14586   */\n              mstore\n                /* \"#utility.yul\":14605:14609   */\n              0x24\n                /* \"#utility.yul\":14602:14603   */\n              0x00\n                /* \"#utility.yul\":14595:14610   */\n              revert\n                /* \"#utility.yul\":14622:14813   */\n            tag_94:\n                /* \"#utility.yul\":14662:14666   */\n              0x00\n                /* \"#utility.yul\":14682:14702   */\n              tag_371\n                /* \"#utility.yul\":14700:14701   */\n              dup3\n                /* \"#utility.yul\":14682:14702   */\n              tag_187\n              jump\t// in\n            tag_371:\n                /* \"#utility.yul\":14677:14702   */\n              swap2\n              pop\n                /* \"#utility.yul\":14716:14736   */\n              tag_372\n                /* \"#utility.yul\":14734:14735   */\n              dup4\n                /* \"#utility.yul\":14716:14736   */\n              tag_187\n              jump\t// in\n            tag_372:\n                /* \"#utility.yul\":14711:14736   */\n              swap3\n              pop\n                /* \"#utility.yul\":14755:14756   */\n              dup3\n                /* \"#utility.yul\":14752:14753   */\n              dup3\n                /* \"#utility.yul\":14749:14757   */\n              lt\n                /* \"#utility.yul\":14746:14780   */\n              iszero\n              tag_373\n              jumpi\n                /* \"#utility.yul\":14760:14778   */\n              tag_374\n              tag_218\n              jump\t// in\n            tag_374:\n                /* \"#utility.yul\":14746:14780   */\n            tag_373:\n                /* \"#utility.yul\":14805:14806   */\n              dup3\n                /* \"#utility.yul\":14802:14803   */\n              dup3\n                /* \"#utility.yul\":14798:14807   */\n              sub\n                /* \"#utility.yul\":14790:14807   */\n              swap1\n              pop\n                /* \"#utility.yul\":14622:14813   */\n              swap3\n              swap2\n              pop\n              pop\n              jump\t// out\n                /* \"#utility.yul\":14819:14999   */\n            tag_97:\n                /* \"#utility.yul\":14867:14944   */\n              0x4e487b7100000000000000000000000000000000000000000000000000000000\n                /* \"#utility.yul\":14864:14865   */\n              0x00\n                /* \"#utility.yul\":14857:14945   */\n              mstore\n                /* \"#utility.yul\":14964:14968   */\n              0x32\n                /* \"#utility.yul\":14961:14962   */\n              0x04\n                /* \"#utility.yul\":14954:14969   */\n              mstore\n                /* \"#utility.yul\":14988:14992   */\n              0x24\n                /* \"#utility.yul\":14985:14986   */\n              0x00\n                /* \"#utility.yul\":14978:14993   */\n              revert\n                /* \"#utility.yul\":15005:15185   */\n            tag_104:\n                /* \"#utility.yul\":15053:15130   */\n              0x4e487b7100000000000000000000000000000000000000000000000000000000\n                /* \"#utility.yul\":15050:15051   */\n              0x00\n                /* \"#utility.yul\":15043:15131   */\n              mstore\n                /* \"#utility.yul\":15150:15154   */\n              0x31\n                /* \"#utility.yul\":15147:15148   */\n              0x04\n                /* \"#utility.yul\":15140:15155   */\n              mstore\n                /* \"#utility.yul\":15174:15178   */\n              0x24\n                /* \"#utility.yul\":15171:15172   */\n              0x00\n                /* \"#utility.yul\":15164:15179   */\n              revert\n                /* \"#utility.yul\":15191:15424   */\n            tag_144:\n                /* \"#utility.yul\":15230:15233   */\n              0x00\n                /* \"#utility.yul\":15253:15277   */\n              tag_378\n                /* \"#utility.yul\":15271:15276   */\n              dup3\n                /* \"#utility.yul\":15253:15277   */\n              tag_187\n              jump\t// in\n            tag_378:\n                /* \"#utility.yul\":15244:15277   */\n              swap2\n              pop\n                /* \"#utility.yul\":15299:15365   */\n              0xffffffffffffffffffffffffffffffffffffffffffffffffffffffffffffffff\n                /* \"#utility.yul\":15292:15297   */\n              dup3\n                /* \"#utility.yul\":15289:15366   */\n              sub\n                /* \"#utility.yul\":15286:15389   */\n              tag_379\n              jumpi\n                /* \"#utility.yul\":15369:15387   */\n              tag_380\n              tag_218\n              jump\t// in\n            tag_380:\n                /* \"#utility.yul\":15286:15389   */\n            tag_379:\n                /* \"#utility.yul\":15416:15417   */\n              0x01\n                /* \"#utility.yul\":15409:15414   */\n              dup3\n                /* \"#utility.yul\":15405:15418   */\n              add\n                /* \"#utility.yul\":15398:15418   */\n              swap1\n              pop\n                /* \"#utility.yul\":15191:15424   */\n              swap2\n              swap1\n              pop\n              jump\t// out\n\n            auxdata: 0xa2646970667358221220dd445f00f68ba63dd40f9a3bcd49f55d5ea8f2008e59687fba17cdbba8ad2b3964736f6c634300080d0033\n        }\n    }\n\n    auxdata: 0xa26469706673582212203cf0a72f6d513d7d7be61214b0972bf5e3def6a02eb88d9423b7ce296592f28c64736f6c634300080d0033\n}\n","bytecode":{"linkReferences":{},"object":"608060405234801561001057600080fd5b5033600160006101000a81548173ffffffffffffffffffffffffffffffffffffffff021916908373ffffffffffffffffffffffffffffffffffffffff16021790555061299d806100616000396000f3fe6080604052600436106200007a5760003560e01c8063481c6a751162000055578063481c6a75146200011357806366adeb8c1462000143578063c72b5176146200015d578063f9515f1b146200018d576200007a565b806312065fe0146200007f5780631e4a97dd14620000af57806333471df514620000e5575b600080fd5b3480156200008c57600080fd5b5062000097620001bb565b604051620000a69190620006d3565b60405180910390f35b620000cd6004803603810190620000c7919062000866565b6200021e565b604051620000dc919062000930565b60405180910390f35b348015620000f257600080fd5b506200011160048036038101906200010b91906200097e565b6200030f565b005b3480156200012057600080fd5b506200012b6200044f565b6040516200013a9190620009d5565b60405180910390f35b3480156200015057600080fd5b506200015b62000475565b005b3480156200016a57600080fd5b50620001756200053c565b60405162000184919062000ac0565b60405180910390f35b3480156200019a57600080fd5b50620001b96004803603810190620001b3919062000b15565b62000608565b005b6000600160009054906101000a900473ffffffffffffffffffffffffffffffffffffffff1673ffffffffffffffffffffffffffffffffffffffff163373ffffffffffffffffffffffffffffffffffffffff16146200021857600080fd5b47905090565b6000808383336040516200023290620006aa565b620002409392919062000bda565b604051809103906000f0801580156200025d573d6000803e3d6000fd5b50905060008190506000803373ffffffffffffffffffffffffffffffffffffffff1673ffffffffffffffffffffffffffffffffffffffff168152602001908152602001600020819080600181540180825580915050600190039060005260206000200160009091909190916101000a81548173ffffffffffffffffffffffffffffffffffffffff021916908373ffffffffffffffffffffffffffffffffffffffff160217905550809250505092915050565b60008060003373ffffffffffffffffffffffffffffffffffffffff1673ffffffffffffffffffffffffffffffffffffffff1681526020019081526020016000209050806001828054905062000365919062000c54565b8154811062000379576200037862000c8f565b5b9060005260206000200160009054906101000a900473ffffffffffffffffffffffffffffffffffffffff16818381548110620003ba57620003b962000c8f565b5b9060005260206000200160006101000a81548173ffffffffffffffffffffffffffffffffffffffff021916908373ffffffffffffffffffffffffffffffffffffffff1602179055508080548062000416576200041562000cbe565b5b6001900381819060005260206000200160006101000a81549073ffffffffffffffffffffffffffffffffffffffff021916905590555050565b600160009054906101000a900473ffffffffffffffffffffffffffffffffffffffff1681565b600160009054906101000a900473ffffffffffffffffffffffffffffffffffffffff1673ffffffffffffffffffffffffffffffffffffffff163373ffffffffffffffffffffffffffffffffffffffff1614620004d057600080fd5b600160009054906101000a900473ffffffffffffffffffffffffffffffffffffffff1673ffffffffffffffffffffffffffffffffffffffff166108fc479081150290604051600060405180830381858888f1935050505015801562000539573d6000803e3d6000fd5b50565b60606000803373ffffffffffffffffffffffffffffffffffffffff1673ffffffffffffffffffffffffffffffffffffffff168152602001908152602001600020805480602002602001604051908101604052809291908181526020018280548015620005fe57602002820191906000526020600020905b8160009054906101000a900473ffffffffffffffffffffffffffffffffffffffff1673ffffffffffffffffffffffffffffffffffffffff1681526020019060010190808311620005b3575b5050505050905090565b6000803373ffffffffffffffffffffffffffffffffffffffff1673ffffffffffffffffffffffffffffffffffffffff168152602001908152602001600020819080600181540180825580915050600190039060005260206000200160009091909190916101000a81548173ffffffffffffffffffffffffffffffffffffffff021916908373ffffffffffffffffffffffffffffffffffffffff16021790555050565b611c7a8062000cee83390190565b6000819050919050565b620006cd81620006b8565b82525050565b6000602082019050620006ea6000830184620006c2565b92915050565b6000604051905090565b600080fd5b600080fd5b600080fd5b600080fd5b6000601f19601f8301169050919050565b7f4e487b7100000000000000000000000000000000000000000000000000000000600052604160045260246000fd5b62000759826200070e565b810181811067ffffffffffffffff821117156200077b576200077a6200071f565b5b80604052505050565b600062000790620006f0565b90506200079e82826200074e565b919050565b600067ffffffffffffffff821115620007c157620007c06200071f565b5b620007cc826200070e565b9050602081019050919050565b82818337600083830152505050565b6000620007ff620007f984620007a3565b62000784565b9050828152602081018484840111156200081e576200081d62000709565b5b6200082b848285620007d9565b509392505050565b600082601f8301126200084b576200084a62000704565b5b81356200085d848260208601620007e8565b91505092915050565b6000806040838503121562000880576200087f620006fa565b5b600083013567ffffffffffffffff811115620008a157620008a0620006ff565b5b620008af8582860162000833565b925050602083013567ffffffffffffffff811115620008d357620008d2620006ff565b5b620008e18582860162000833565b9150509250929050565b600073ffffffffffffffffffffffffffffffffffffffff82169050919050565b60006200091882620008eb565b9050919050565b6200092a816200090b565b82525050565b60006020820190506200094760008301846200091f565b92915050565b6200095881620006b8565b81146200096457600080fd5b50565b60008135905062000978816200094d565b92915050565b600060208284031215620009975762000996620006fa565b5b6000620009a78482850162000967565b91505092915050565b6000620009bd82620008eb565b9050919050565b620009cf81620009b0565b82525050565b6000602082019050620009ec6000830184620009c4565b92915050565b600081519050919050565b600082825260208201905092915050565b6000819050602082019050919050565b62000a29816200090b565b82525050565b600062000a3d838362000a1e565b60208301905092915050565b6000602082019050919050565b600062000a6382620009f2565b62000a6f8185620009fd565b935062000a7c8362000a0e565b8060005b8381101562000ab357815162000a97888262000a2f565b975062000aa48362000a49565b92505060018101905062000a80565b5085935050505092915050565b6000602082019050818103600083015262000adc818462000a56565b905092915050565b62000aef816200090b565b811462000afb57600080fd5b50565b60008135905062000b0f8162000ae4565b92915050565b60006020828403121562000b2e5762000b2d620006fa565b5b600062000b3e8482850162000afe565b91505092915050565b600081519050919050565b600082825260208201905092915050565b60005b8381101562000b8357808201518184015260208101905062000b66565b8381111562000b93576000848401525b50505050565b600062000ba68262000b47565b62000bb2818562000b52565b935062000bc481856020860162000b63565b62000bcf816200070e565b840191505092915050565b6000606082019050818103600083015262000bf6818662000b99565b9050818103602083015262000c0c818562000b99565b905062000c1d60408301846200091f565b949350505050565b7f4e487b7100000000000000000000000000000000000000000000000000000000600052601160045260246000fd5b600062000c6182620006b8565b915062000c6e83620006b8565b92508282101562000c845762000c8362000c25565b5b828203905092915050565b7f4e487b7100000000000000000000000000000000000000000000000000000000600052603260045260246000fd5b7f4e487b7100000000000000000000000000000000000000000000000000000000600052603160045260246000fdfe60806040523480156200001157600080fd5b5060405162001c7a38038062001c7a833981810160405281019062000037919062000470565b80600260006101000a81548173ffffffffffffffffffffffffffffffffffffffff021916908373ffffffffffffffffffffffffffffffffffffffff160217905550826000908051906020019062000090929190620001be565b506001819080600181540180825580915050600190039060005260206000200160009091909190916101000a81548173ffffffffffffffffffffffffffffffffffffffff021916908373ffffffffffffffffffffffffffffffffffffffff16021790555081600460008373ffffffffffffffffffffffffffffffffffffffff1673ffffffffffffffffffffffffffffffffffffffff168152602001908152602001600020908051906020019062000149929190620001be565b506002600360008373ffffffffffffffffffffffffffffffffffffffff1673ffffffffffffffffffffffffffffffffffffffff16815260200190815260200160002060006101000a81548160ff02191690836002811115620001b057620001af6200050a565b5b02179055505050506200059d565b828054620001cc9062000568565b90600052602060002090601f016020900481019282620001f057600085556200023c565b82601f106200020b57805160ff19168380011785556200023c565b828001600101855582156200023c579182015b828111156200023b5782518255916020019190600101906200021e565b5b5090506200024b91906200024f565b5090565b5b808211156200026a57600081600090555060010162000250565b5090565b6000604051905090565b600080fd5b600080fd5b600080fd5b600080fd5b6000601f19601f8301169050919050565b7f4e487b7100000000000000000000000000000000000000000000000000000000600052604160045260246000fd5b620002d7826200028c565b810181811067ffffffffffffffff82111715620002f957620002f86200029d565b5b80604052505050565b60006200030e6200026e565b90506200031c8282620002cc565b919050565b600067ffffffffffffffff8211156200033f576200033e6200029d565b5b6200034a826200028c565b9050602081019050919050565b60005b83811015620003775780820151818401526020810190506200035a565b8381111562000387576000848401525b50505050565b6000620003a46200039e8462000321565b62000302565b905082815260208101848484011115620003c357620003c262000287565b5b620003d084828562000357565b509392505050565b600082601f830112620003f057620003ef62000282565b5b8151620004028482602086016200038d565b91505092915050565b600073ffffffffffffffffffffffffffffffffffffffff82169050919050565b600062000438826200040b565b9050919050565b6200044a816200042b565b81146200045657600080fd5b50565b6000815190506200046a816200043f565b92915050565b6000806000606084860312156200048c576200048b62000278565b5b600084015167ffffffffffffffff811115620004ad57620004ac6200027d565b5b620004bb86828701620003d8565b935050602084015167ffffffffffffffff811115620004df57620004de6200027d565b5b620004ed86828701620003d8565b9250506040620005008682870162000459565b9150509250925092565b7f4e487b7100000000000000000000000000000000000000000000000000000000600052602160045260246000fd5b7f4e487b7100000000000000000000000000000000000000000000000000000000600052602260045260246000fd5b600060028204905060018216806200058157607f821691505b60208210810362000597576200059662000539565b5b50919050565b6116cd80620005ad6000396000f3fe608060405234801561001057600080fd5b50600436106100885760003560e01c80639a8bf4e01161005b5780639a8bf4e0146101015780639eab52531461011d578063a3fbbaae1461013d578063ae026d951461015957610088565b80631b7607191461008d578063481c6a75146100a95780637debf5c6146100c7578063843c608d146100e3575b600080fd5b6100a760048036038101906100a29190611032565b610175565b005b6100b1610327565b6040516100be91906110b0565b60405180910390f35b6100e160048036038101906100dc9190611032565b61034d565b005b6100eb61049c565b6040516100f89190611153565b60405180910390f35b61011b60048036038101906101169190611175565b6105ac565b005b61012561080e565b6040516101349392919061143d565b60405180910390f35b61015760048036038101906101529190611489565b610bc4565b005b610173600480360381019061016e91906114b6565b610cca565b005b600280811115610188576101876114ff565b5b600360003373ffffffffffffffffffffffffffffffffffffffff1673ffffffffffffffffffffffffffffffffffffffff16815260200190815260200160002060009054906101000a900460ff1660028111156101e7576101e66114ff565b5b10156101f257600080fd5b6001839080600181540180825580915050600190039060005260206000200160009091909190916101000a81548173ffffffffffffffffffffffffffffffffffffffff021916908373ffffffffffffffffffffffffffffffffffffffff160217905550806002811115610268576102676114ff565b5b600360008573ffffffffffffffffffffffffffffffffffffffff1673ffffffffffffffffffffffffffffffffffffffff16815260200190815260200160002060006101000a81548160ff021916908360028111156102c9576102c86114ff565b5b021790555081600460008573ffffffffffffffffffffffffffffffffffffffff1673ffffffffffffffffffffffffffffffffffffffff1681526020019081526020016000209080519060200190610321929190610d61565b50505050565b600260009054906101000a900473ffffffffffffffffffffffffffffffffffffffff1681565b6002808111156103605761035f6114ff565b5b600360003373ffffffffffffffffffffffffffffffffffffffff1673ffffffffffffffffffffffffffffffffffffffff16815260200190815260200160002060009054906101000a900460ff1660028111156103bf576103be6114ff565b5b10156103ca57600080fd5b81600460008573ffffffffffffffffffffffffffffffffffffffff1673ffffffffffffffffffffffffffffffffffffffff168152602001908152602001600020908051906020019061041d929190610d61565b50806002811115610431576104306114ff565b5b600360008573ffffffffffffffffffffffffffffffffffffffff1673ffffffffffffffffffffffffffffffffffffffff16815260200190815260200160002060006101000a81548160ff02191690836002811115610492576104916114ff565b5b0217905550505050565b6060600160028111156104b2576104b16114ff565b5b600360003373ffffffffffffffffffffffffffffffffffffffff1673ffffffffffffffffffffffffffffffffffffffff16815260200190815260200160002060009054906101000a900460ff166002811115610511576105106114ff565b5b101561051c57600080fd5b600080546105299061155d565b80601f01602080910402602001604051908101604052809291908181526020018280546105559061155d565b80156105a25780601f10610577576101008083540402835291602001916105a2565b820191906000526020600020905b81548152906001019060200180831161058557829003601f168201915b5050505050905090565b6002808111156105bf576105be6114ff565b5b600360003373ffffffffffffffffffffffffffffffffffffffff1673ffffffffffffffffffffffffffffffffffffffff16815260200190815260200160002060009054906101000a900460ff16600281111561061e5761061d6114ff565b5b101561062957600080fd5b600260009054906101000a900473ffffffffffffffffffffffffffffffffffffffff1673ffffffffffffffffffffffffffffffffffffffff168173ffffffffffffffffffffffffffffffffffffffff161461080a57600360008273ffffffffffffffffffffffffffffffffffffffff1673ffffffffffffffffffffffffffffffffffffffff16815260200190815260200160002060006101000a81549060ff0219169055600460008273ffffffffffffffffffffffffffffffffffffffff1673ffffffffffffffffffffffffffffffffffffffff16815260200190815260200160002060006107189190610de7565b600180808054905061072a91906115bd565b8154811061073b5761073a6115f1565b5b9060005260206000200160009054906101000a900473ffffffffffffffffffffffffffffffffffffffff166001838154811061077a576107796115f1565b5b9060005260206000200160006101000a81548173ffffffffffffffffffffffffffffffffffffffff021916908373ffffffffffffffffffffffffffffffffffffffff16021790555060018054806107d4576107d3611620565b5b6001900381819060005260206000200160006101000a81549073ffffffffffffffffffffffffffffffffffffffff021916905590555b5050565b606080606060016002811115610827576108266114ff565b5b600360003373ffffffffffffffffffffffffffffffffffffffff1673ffffffffffffffffffffffffffffffffffffffff16815260200190815260200160002060009054906101000a900460ff166002811115610886576108856114ff565b5b101561089157600080fd5b60006001805490509050600180548060200260200160405190810160405280929190818152602001828054801561091d57602002820191906000526020600020905b8160009054906101000a900473ffffffffffffffffffffffffffffffffffffffff1673ffffffffffffffffffffffffffffffffffffffff16815260200190600101908083116108d3575b505050505093508067ffffffffffffffff81111561093e5761093d610ed1565b5b60405190808252806020026020018201604052801561097157816020015b606081526020019060019003908161095c5790505b5092508067ffffffffffffffff81111561098e5761098d610ed1565b5b6040519080825280602002602001820160405280156109bc5781602001602082028036833780820191505090505b50915060005b81811015610bbd5760046000600183815481106109e2576109e16115f1565b5b9060005260206000200160009054906101000a900473ffffffffffffffffffffffffffffffffffffffff1673ffffffffffffffffffffffffffffffffffffffff1673ffffffffffffffffffffffffffffffffffffffff1681526020019081526020016000208054610a529061155d565b80601f0160208091040260200160405190810160405280929190818152602001828054610a7e9061155d565b8015610acb5780601f10610aa057610100808354040283529160200191610acb565b820191906000526020600020905b815481529060010190602001808311610aae57829003601f168201915b5050505050848281518110610ae357610ae26115f1565b5b60200260200101819052506003600060018381548110610b0657610b056115f1565b5b9060005260206000200160009054906101000a900473ffffffffffffffffffffffffffffffffffffffff1673ffffffffffffffffffffffffffffffffffffffff1673ffffffffffffffffffffffffffffffffffffffff16815260200190815260200160002060009054906101000a900460ff166002811115610b8b57610b8a6114ff565b5b838281518110610b9e57610b9d6115f1565b5b6020026020010181815250508080610bb59061164f565b9150506109c2565b5050909192565b600260009054906101000a900473ffffffffffffffffffffffffffffffffffffffff1673ffffffffffffffffffffffffffffffffffffffff163373ffffffffffffffffffffffffffffffffffffffff1614610c1e57600080fd5b80600260006101000a81548173ffffffffffffffffffffffffffffffffffffffff021916908373ffffffffffffffffffffffffffffffffffffffff1602179055506002600360008373ffffffffffffffffffffffffffffffffffffffff1673ffffffffffffffffffffffffffffffffffffffff16815260200190815260200160002060006101000a81548160ff02191690836002811115610cc257610cc16114ff565b5b021790555050565b600280811115610cdd57610cdc6114ff565b5b600360003373ffffffffffffffffffffffffffffffffffffffff1673ffffffffffffffffffffffffffffffffffffffff16815260200190815260200160002060009054906101000a900460ff166002811115610d3c57610d3b6114ff565b5b1015610d4757600080fd5b8060009080519060200190610d5d929190610d61565b5050565b828054610d6d9061155d565b90600052602060002090601f016020900481019282610d8f5760008555610dd6565b82601f10610da857805160ff1916838001178555610dd6565b82800160010185558215610dd6579182015b82811115610dd5578251825591602001919060010190610dba565b5b509050610de39190610e27565b5090565b508054610df39061155d565b6000825580601f10610e055750610e24565b601f016020900490600052602060002090810190610e239190610e27565b5b50565b5b80821115610e40576000816000905550600101610e28565b5090565b6000604051905090565b600080fd5b600080fd5b600073ffffffffffffffffffffffffffffffffffffffff82169050919050565b6000610e8382610e58565b9050919050565b610e9381610e78565b8114610e9e57600080fd5b50565b600081359050610eb081610e8a565b92915050565b600080fd5b600080fd5b6000601f19601f8301169050919050565b7f4e487b7100000000000000000000000000000000000000000000000000000000600052604160045260246000fd5b610f0982610ec0565b810181811067ffffffffffffffff82111715610f2857610f27610ed1565b5b80604052505050565b6000610f3b610e44565b9050610f478282610f00565b919050565b600067ffffffffffffffff821115610f6757610f66610ed1565b5b610f7082610ec0565b9050602081019050919050565b82818337600083830152505050565b6000610f9f610f9a84610f4c565b610f31565b905082815260208101848484011115610fbb57610fba610ebb565b5b610fc6848285610f7d565b509392505050565b600082601f830112610fe357610fe2610eb6565b5b8135610ff3848260208601610f8c565b91505092915050565b6000819050919050565b61100f81610ffc565b811461101a57600080fd5b50565b60008135905061102c81611006565b92915050565b60008060006060848603121561104b5761104a610e4e565b5b600061105986828701610ea1565b935050602084013567ffffffffffffffff81111561107a57611079610e53565b5b61108686828701610fce565b92505060406110978682870161101d565b9150509250925092565b6110aa81610e78565b82525050565b60006020820190506110c560008301846110a1565b92915050565b600081519050919050565b600082825260208201905092915050565b60005b838110156111055780820151818401526020810190506110ea565b83811115611114576000848401525b50505050565b6000611125826110cb565b61112f81856110d6565b935061113f8185602086016110e7565b61114881610ec0565b840191505092915050565b6000602082019050818103600083015261116d818461111a565b905092915050565b6000806040838503121561118c5761118b610e4e565b5b600061119a8582860161101d565b92505060206111ab85828601610ea1565b9150509250929050565b600081519050919050565b600082825260208201905092915050565b6000819050602082019050919050565b6111ea81610e78565b82525050565b60006111fc83836111e1565b60208301905092915050565b6000602082019050919050565b6000611220826111b5565b61122a81856111c0565b9350611235836111d1565b8060005b8381101561126657815161124d88826111f0565b975061125883611208565b925050600181019050611239565b5085935050505092915050565b600081519050919050565b600082825260208201905092915050565b6000819050602082019050919050565b600082825260208201905092915050565b60006112bb826110cb565b6112c5818561129f565b93506112d58185602086016110e7565b6112de81610ec0565b840191505092915050565b60006112f583836112b0565b905092915050565b6000602082019050919050565b600061131582611273565b61131f818561127e565b9350836020820285016113318561128f565b8060005b8581101561136d578484038952815161134e85826112e9565b9450611359836112fd565b925060208a01995050600181019050611335565b50829750879550505050505092915050565b600081519050919050565b600082825260208201905092915050565b6000819050602082019050919050565b6113b481610ffc565b82525050565b60006113c683836113ab565b60208301905092915050565b6000602082019050919050565b60006113ea8261137f565b6113f4818561138a565b93506113ff8361139b565b8060005b8381101561143057815161141788826113ba565b9750611422836113d2565b925050600181019050611403565b5085935050505092915050565b600060608201905081810360008301526114578186611215565b9050818103602083015261146b818561130a565b9050818103604083015261147f81846113df565b9050949350505050565b60006020828403121561149f5761149e610e4e565b5b60006114ad84828501610ea1565b91505092915050565b6000602082840312156114cc576114cb610e4e565b5b600082013567ffffffffffffffff8111156114ea576114e9610e53565b5b6114f684828501610fce565b91505092915050565b7f4e487b7100000000000000000000000000000000000000000000000000000000600052602160045260246000fd5b7f4e487b7100000000000000000000000000000000000000000000000000000000600052602260045260246000fd5b6000600282049050600182168061157557607f821691505b6020821081036115885761158761152e565b5b50919050565b7f4e487b7100000000000000000000000000000000000000000000000000000000600052601160045260246000fd5b60006115c882610ffc565b91506115d383610ffc565b9250828210156115e6576115e561158e565b5b828203905092915050565b7f4e487b7100000000000000000000000000000000000000000000000000000000600052603260045260246000fd5b7f4e487b7100000000000000000000000000000000000000000000000000000000600052603160045260246000fd5b600061165a82610ffc565b91507fffffffffffffffffffffffffffffffffffffffffffffffffffffffffffffffff820361168c5761168b61158e565b5b60018201905091905056fea2646970667358221220dd445f00f68ba63dd40f9a3bcd49f55d5ea8f2008e59687fba17cdbba8ad2b3964736f6c634300080d0033a26469706673582212203cf0a72f6d513d7d7be61214b0972bf5e3def6a02eb88d9423b7ce296592f28c64736f6c634300080d0033","opcodes":"PUSH1 0x80 PUSH1 0x40 MSTORE CALLVALUE DUP1 ISZERO PUSH2 0x10 JUMPI PUSH1 0x0 DUP1 REVERT JUMPDEST POP CALLER PUSH1 0x1 PUSH1 0x0 PUSH2 0x100 EXP DUP2 SLOAD DUP2 PUSH20 0xFFFFFFFFFFFFFFFFFFFFFFFFFFFFFFFFFFFFFFFF MUL NOT AND SWAP1 DUP4 PUSH20 0xFFFFFFFFFFFFFFFFFFFFFFFFFFFFFFFFFFFFFFFF AND MUL OR SWAP1 SSTORE POP PUSH2 0x299D DUP1 PUSH2 0x61 PUSH1 0x0 CODECOPY PUSH1 0x0 RETURN INVALID PUSH1 0x80 PUSH1 0x40 MSTORE PUSH1 0x4 CALLDATASIZE LT PUSH3 0x7A JUMPI PUSH1 0x0 CALLDATALOAD PUSH1 0xE0 SHR DUP1 PUSH4 0x481C6A75 GT PUSH3 0x55 JUMPI DUP1 PUSH4 0x481C6A75 EQ PUSH3 0x113 JUMPI DUP1 PUSH4 0x66ADEB8C EQ PUSH3 0x143 JUMPI DUP1 PUSH4 0xC72B5176 EQ PUSH3 0x15D JUMPI DUP1 PUSH4 0xF9515F1B EQ PUSH3 0x18D JUMPI PUSH3 0x7A JUMP JUMPDEST DUP1 PUSH4 0x12065FE0 EQ PUSH3 0x7F JUMPI DUP1 PUSH4 0x1E4A97DD EQ PUSH3 0xAF JUMPI DUP1 PUSH4 0x33471DF5 EQ PUSH3 0xE5 JUMPI JUMPDEST PUSH1 0x0 DUP1 REVERT JUMPDEST CALLVALUE DUP1 ISZERO PUSH3 0x8C JUMPI PUSH1 0x0 DUP1 REVERT JUMPDEST POP PUSH3 0x97 PUSH3 0x1BB JUMP JUMPDEST PUSH1 0x40 MLOAD PUSH3 0xA6 SWAP2 SWAP1 PUSH3 0x6D3 JUMP JUMPDEST PUSH1 0x40 MLOAD DUP1 SWAP2 SUB SWAP1 RETURN JUMPDEST PUSH3 0xCD PUSH1 0x4 DUP1 CALLDATASIZE SUB DUP2 ADD SWAP1 PUSH3 0xC7 SWAP2 SWAP1 PUSH3 0x866 JUMP JUMPDEST PUSH3 0x21E JUMP JUMPDEST PUSH1 0x40 MLOAD PUSH3 0xDC SWAP2 SWAP1 PUSH3 0x930 JUMP JUMPDEST PUSH1 0x40 MLOAD DUP1 SWAP2 SUB SWAP1 RETURN JUMPDEST CALLVALUE DUP1 ISZERO PUSH3 0xF2 JUMPI PUSH1 0x0 DUP1 REVERT JUMPDEST POP PUSH3 0x111 PUSH1 0x4 DUP1 CALLDATASIZE SUB DUP2 ADD SWAP1 PUSH3 0x10B SWAP2 SWAP1 PUSH3 0x97E JUMP JUMPDEST PUSH3 0x30F JUMP JUMPDEST STOP JUMPDEST CALLVALUE DUP1 ISZERO PUSH3 0x120 JUMPI PUSH1 0x0 DUP1 REVERT JUMPDEST POP PUSH3 0x12B PUSH3 0x44F JUMP JUMPDEST PUSH1 0x40 MLOAD PUSH3 0x13A SWAP2 SWAP1 PUSH3 0x9D5 JUMP JUMPDEST PUSH1 0x40 MLOAD DUP1 SWAP2 SUB SWAP1 RETURN JUMPDEST CALLVALUE DUP1 ISZERO PUSH3 0x150 JUMPI PUSH1 0x0 DUP1 REVERT JUMPDEST POP PUSH3 0x15B PUSH3 0x475 JUMP JUMPDEST STOP JUMPDEST CALLVALUE DUP1 ISZERO PUSH3 0x16A JUMPI PUSH1 0x0 DUP1 REVERT JUMPDEST POP PUSH3 0x175 PUSH3 0x53C JUMP JUMPDEST PUSH1 0x40 MLOAD PUSH3 0x184 SWAP2 SWAP1 PUSH3 0xAC0 JUMP JUMPDEST PUSH1 0x40 MLOAD DUP1 SWAP2 SUB SWAP1 RETURN JUMPDEST CALLVALUE DUP1 ISZERO PUSH3 0x19A JUMPI PUSH1 0x0 DUP1 REVERT JUMPDEST POP PUSH3 0x1B9 PUSH1 0x4 DUP1 CALLDATASIZE SUB DUP2 ADD SWAP1 PUSH3 0x1B3 SWAP2 SWAP1 PUSH3 0xB15 JUMP JUMPDEST PUSH3 0x608 JUMP JUMPDEST STOP JUMPDEST PUSH1 0x0 PUSH1 0x1 PUSH1 0x0 SWAP1 SLOAD SWAP1 PUSH2 0x100 EXP SWAP1 DIV PUSH20 0xFFFFFFFFFFFFFFFFFFFFFFFFFFFFFFFFFFFFFFFF AND PUSH20 0xFFFFFFFFFFFFFFFFFFFFFFFFFFFFFFFFFFFFFFFF AND CALLER PUSH20 0xFFFFFFFFFFFFFFFFFFFFFFFFFFFFFFFFFFFFFFFF AND EQ PUSH3 0x218 JUMPI PUSH1 0x0 DUP1 REVERT JUMPDEST SELFBALANCE SWAP1 POP SWAP1 JUMP JUMPDEST PUSH1 0x0 DUP1 DUP4 DUP4 CALLER PUSH1 0x40 MLOAD PUSH3 0x232 SWAP1 PUSH3 0x6AA JUMP JUMPDEST PUSH3 0x240 SWAP4 SWAP3 SWAP2 SWAP1 PUSH3 0xBDA JUMP JUMPDEST PUSH1 0x40 MLOAD DUP1 SWAP2 SUB SWAP1 PUSH1 0x0 CREATE DUP1 ISZERO DUP1 ISZERO PUSH3 0x25D JUMPI RETURNDATASIZE PUSH1 0x0 DUP1 RETURNDATACOPY RETURNDATASIZE PUSH1 0x0 REVERT JUMPDEST POP SWAP1 POP PUSH1 0x0 DUP2 SWAP1 POP PUSH1 0x0 DUP1 CALLER PUSH20 0xFFFFFFFFFFFFFFFFFFFFFFFFFFFFFFFFFFFFFFFF AND PUSH20 0xFFFFFFFFFFFFFFFFFFFFFFFFFFFFFFFFFFFFFFFF AND DUP2 MSTORE PUSH1 0x20 ADD SWAP1 DUP2 MSTORE PUSH1 0x20 ADD PUSH1 0x0 KECCAK256 DUP2 SWAP1 DUP1 PUSH1 0x1 DUP2 SLOAD ADD DUP1 DUP3 SSTORE DUP1 SWAP2 POP POP PUSH1 0x1 SWAP1 SUB SWAP1 PUSH1 0x0 MSTORE PUSH1 0x20 PUSH1 0x0 KECCAK256 ADD PUSH1 0x0 SWAP1 SWAP2 SWAP1 SWAP2 SWAP1 SWAP2 PUSH2 0x100 EXP DUP2 SLOAD DUP2 PUSH20 0xFFFFFFFFFFFFFFFFFFFFFFFFFFFFFFFFFFFFFFFF MUL NOT AND SWAP1 DUP4 PUSH20 0xFFFFFFFFFFFFFFFFFFFFFFFFFFFFFFFFFFFFFFFF AND MUL OR SWAP1 SSTORE POP DUP1 SWAP3 POP POP POP SWAP3 SWAP2 POP POP JUMP JUMPDEST PUSH1 0x0 DUP1 PUSH1 0x0 CALLER PUSH20 0xFFFFFFFFFFFFFFFFFFFFFFFFFFFFFFFFFFFFFFFF AND PUSH20 0xFFFFFFFFFFFFFFFFFFFFFFFFFFFFFFFFFFFFFFFF AND DUP2 MSTORE PUSH1 0x20 ADD SWAP1 DUP2 MSTORE PUSH1 0x20 ADD PUSH1 0x0 KECCAK256 SWAP1 POP DUP1 PUSH1 0x1 DUP3 DUP1 SLOAD SWAP1 POP PUSH3 0x365 SWAP2 SWAP1 PUSH3 0xC54 JUMP JUMPDEST DUP2 SLOAD DUP2 LT PUSH3 0x379 JUMPI PUSH3 0x378 PUSH3 0xC8F JUMP JUMPDEST JUMPDEST SWAP1 PUSH1 0x0 MSTORE PUSH1 0x20 PUSH1 0x0 KECCAK256 ADD PUSH1 0x0 SWAP1 SLOAD SWAP1 PUSH2 0x100 EXP SWAP1 DIV PUSH20 0xFFFFFFFFFFFFFFFFFFFFFFFFFFFFFFFFFFFFFFFF AND DUP2 DUP4 DUP2 SLOAD DUP2 LT PUSH3 0x3BA JUMPI PUSH3 0x3B9 PUSH3 0xC8F JUMP JUMPDEST JUMPDEST SWAP1 PUSH1 0x0 MSTORE PUSH1 0x20 PUSH1 0x0 KECCAK256 ADD PUSH1 0x0 PUSH2 0x100 EXP DUP2 SLOAD DUP2 PUSH20 0xFFFFFFFFFFFFFFFFFFFFFFFFFFFFFFFFFFFFFFFF MUL NOT AND SWAP1 DUP4 PUSH20 0xFFFFFFFFFFFFFFFFFFFFFFFFFFFFFFFFFFFFFFFF AND MUL OR SWAP1 SSTORE POP DUP1 DUP1 SLOAD DUP1 PUSH3 0x416 JUMPI PUSH3 0x415 PUSH3 0xCBE JUMP JUMPDEST JUMPDEST PUSH1 0x1 SWAP1 SUB DUP2 DUP2 SWAP1 PUSH1 0x0 MSTORE PUSH1 0x20 PUSH1 0x0 KECCAK256 ADD PUSH1 0x0 PUSH2 0x100 EXP DUP2 SLOAD SWAP1 PUSH20 0xFFFFFFFFFFFFFFFFFFFFFFFFFFFFFFFFFFFFFFFF MUL NOT AND SWAP1 SSTORE SWAP1 SSTORE POP POP JUMP JUMPDEST PUSH1 0x1 PUSH1 0x0 SWAP1 SLOAD SWAP1 PUSH2 0x100 EXP SWAP1 DIV PUSH20 0xFFFFFFFFFFFFFFFFFFFFFFFFFFFFFFFFFFFFFFFF AND DUP2 JUMP JUMPDEST PUSH1 0x1 PUSH1 0x0 SWAP1 SLOAD SWAP1 PUSH2 0x100 EXP SWAP1 DIV PUSH20 0xFFFFFFFFFFFFFFFFFFFFFFFFFFFFFFFFFFFFFFFF AND PUSH20 0xFFFFFFFFFFFFFFFFFFFFFFFFFFFFFFFFFFFFFFFF AND CALLER PUSH20 0xFFFFFFFFFFFFFFFFFFFFFFFFFFFFFFFFFFFFFFFF AND EQ PUSH3 0x4D0 JUMPI PUSH1 0x0 DUP1 REVERT JUMPDEST PUSH1 0x1 PUSH1 0x0 SWAP1 SLOAD SWAP1 PUSH2 0x100 EXP SWAP1 DIV PUSH20 0xFFFFFFFFFFFFFFFFFFFFFFFFFFFFFFFFFFFFFFFF AND PUSH20 0xFFFFFFFFFFFFFFFFFFFFFFFFFFFFFFFFFFFFFFFF AND PUSH2 0x8FC SELFBALANCE SWAP1 DUP2 ISZERO MUL SWAP1 PUSH1 0x40 MLOAD PUSH1 0x0 PUSH1 0x40 MLOAD DUP1 DUP4 SUB DUP2 DUP6 DUP9 DUP9 CALL SWAP4 POP POP POP POP ISZERO DUP1 ISZERO PUSH3 0x539 JUMPI RETURNDATASIZE PUSH1 0x0 DUP1 RETURNDATACOPY RETURNDATASIZE PUSH1 0x0 REVERT JUMPDEST POP JUMP JUMPDEST PUSH1 0x60 PUSH1 0x0 DUP1 CALLER PUSH20 0xFFFFFFFFFFFFFFFFFFFFFFFFFFFFFFFFFFFFFFFF AND PUSH20 0xFFFFFFFFFFFFFFFFFFFFFFFFFFFFFFFFFFFFFFFF AND DUP2 MSTORE PUSH1 0x20 ADD SWAP1 DUP2 MSTORE PUSH1 0x20 ADD PUSH1 0x0 KECCAK256 DUP1 SLOAD DUP1 PUSH1 0x20 MUL PUSH1 0x20 ADD PUSH1 0x40 MLOAD SWAP1 DUP2 ADD PUSH1 0x40 MSTORE DUP1 SWAP3 SWAP2 SWAP1 DUP2 DUP2 MSTORE PUSH1 0x20 ADD DUP3 DUP1 SLOAD DUP1 ISZERO PUSH3 0x5FE JUMPI PUSH1 0x20 MUL DUP3 ADD SWAP2 SWAP1 PUSH1 0x0 MSTORE PUSH1 0x20 PUSH1 0x0 KECCAK256 SWAP1 JUMPDEST DUP2 PUSH1 0x0 SWAP1 SLOAD SWAP1 PUSH2 0x100 EXP SWAP1 DIV PUSH20 0xFFFFFFFFFFFFFFFFFFFFFFFFFFFFFFFFFFFFFFFF AND PUSH20 0xFFFFFFFFFFFFFFFFFFFFFFFFFFFFFFFFFFFFFFFF AND DUP2 MSTORE PUSH1 0x20 ADD SWAP1 PUSH1 0x1 ADD SWAP1 DUP1 DUP4 GT PUSH3 0x5B3 JUMPI JUMPDEST POP POP POP POP POP SWAP1 POP SWAP1 JUMP JUMPDEST PUSH1 0x0 DUP1 CALLER PUSH20 0xFFFFFFFFFFFFFFFFFFFFFFFFFFFFFFFFFFFFFFFF AND PUSH20 0xFFFFFFFFFFFFFFFFFFFFFFFFFFFFFFFFFFFFFFFF AND DUP2 MSTORE PUSH1 0x20 ADD SWAP1 DUP2 MSTORE PUSH1 0x20 ADD PUSH1 0x0 KECCAK256 DUP2 SWAP1 DUP1 PUSH1 0x1 DUP2 SLOAD ADD DUP1 DUP3 SSTORE DUP1 SWAP2 POP POP PUSH1 0x1 SWAP1 SUB SWAP1 PUSH1 0x0 MSTORE PUSH1 0x20 PUSH1 0x0 KECCAK256 ADD PUSH1 0x0 SWAP1 SWAP2 SWAP1 SWAP2 SWAP1 SWAP2 PUSH2 0x100 EXP DUP2 SLOAD DUP2 PUSH20 0xFFFFFFFFFFFFFFFFFFFFFFFFFFFFFFFFFFFFFFFF MUL NOT AND SWAP1 DUP4 PUSH20 0xFFFFFFFFFFFFFFFFFFFFFFFFFFFFFFFFFFFFFFFF AND MUL OR SWAP1 SSTORE POP POP JUMP JUMPDEST PUSH2 0x1C7A DUP1 PUSH3 0xCEE DUP4 CODECOPY ADD SWAP1 JUMP JUMPDEST PUSH1 0x0 DUP2 SWAP1 POP SWAP2 SWAP1 POP JUMP JUMPDEST PUSH3 0x6CD DUP2 PUSH3 0x6B8 JUMP JUMPDEST DUP3 MSTORE POP POP JUMP JUMPDEST PUSH1 0x0 PUSH1 0x20 DUP3 ADD SWAP1 POP PUSH3 0x6EA PUSH1 0x0 DUP4 ADD DUP5 PUSH3 0x6C2 JUMP JUMPDEST SWAP3 SWAP2 POP POP JUMP JUMPDEST PUSH1 0x0 PUSH1 0x40 MLOAD SWAP1 POP SWAP1 JUMP JUMPDEST PUSH1 0x0 DUP1 REVERT JUMPDEST PUSH1 0x0 DUP1 REVERT JUMPDEST PUSH1 0x0 DUP1 REVERT JUMPDEST PUSH1 0x0 DUP1 REVERT JUMPDEST PUSH1 0x0 PUSH1 0x1F NOT PUSH1 0x1F DUP4 ADD AND SWAP1 POP SWAP2 SWAP1 POP JUMP JUMPDEST PUSH32 0x4E487B7100000000000000000000000000000000000000000000000000000000 PUSH1 0x0 MSTORE PUSH1 0x41 PUSH1 0x4 MSTORE PUSH1 0x24 PUSH1 0x0 REVERT JUMPDEST PUSH3 0x759 DUP3 PUSH3 0x70E JUMP JUMPDEST DUP2 ADD DUP2 DUP2 LT PUSH8 0xFFFFFFFFFFFFFFFF DUP3 GT OR ISZERO PUSH3 0x77B JUMPI PUSH3 0x77A PUSH3 0x71F JUMP JUMPDEST JUMPDEST DUP1 PUSH1 0x40 MSTORE POP POP POP JUMP JUMPDEST PUSH1 0x0 PUSH3 0x790 PUSH3 0x6F0 JUMP JUMPDEST SWAP1 POP PUSH3 0x79E DUP3 DUP3 PUSH3 0x74E JUMP JUMPDEST SWAP2 SWAP1 POP JUMP JUMPDEST PUSH1 0x0 PUSH8 0xFFFFFFFFFFFFFFFF DUP3 GT ISZERO PUSH3 0x7C1 JUMPI PUSH3 0x7C0 PUSH3 0x71F JUMP JUMPDEST JUMPDEST PUSH3 0x7CC DUP3 PUSH3 0x70E JUMP JUMPDEST SWAP1 POP PUSH1 0x20 DUP2 ADD SWAP1 POP SWAP2 SWAP1 POP JUMP JUMPDEST DUP3 DUP2 DUP4 CALLDATACOPY PUSH1 0x0 DUP4 DUP4 ADD MSTORE POP POP POP JUMP JUMPDEST PUSH1 0x0 PUSH3 0x7FF PUSH3 0x7F9 DUP5 PUSH3 0x7A3 JUMP JUMPDEST PUSH3 0x784 JUMP JUMPDEST SWAP1 POP DUP3 DUP2 MSTORE PUSH1 0x20 DUP2 ADD DUP5 DUP5 DUP5 ADD GT ISZERO PUSH3 0x81E JUMPI PUSH3 0x81D PUSH3 0x709 JUMP JUMPDEST JUMPDEST PUSH3 0x82B DUP5 DUP3 DUP6 PUSH3 0x7D9 JUMP JUMPDEST POP SWAP4 SWAP3 POP POP POP JUMP JUMPDEST PUSH1 0x0 DUP3 PUSH1 0x1F DUP4 ADD SLT PUSH3 0x84B JUMPI PUSH3 0x84A PUSH3 0x704 JUMP JUMPDEST JUMPDEST DUP2 CALLDATALOAD PUSH3 0x85D DUP5 DUP3 PUSH1 0x20 DUP7 ADD PUSH3 0x7E8 JUMP JUMPDEST SWAP2 POP POP SWAP3 SWAP2 POP POP JUMP JUMPDEST PUSH1 0x0 DUP1 PUSH1 0x40 DUP4 DUP6 SUB SLT ISZERO PUSH3 0x880 JUMPI PUSH3 0x87F PUSH3 0x6FA JUMP JUMPDEST JUMPDEST PUSH1 0x0 DUP4 ADD CALLDATALOAD PUSH8 0xFFFFFFFFFFFFFFFF DUP2 GT ISZERO PUSH3 0x8A1 JUMPI PUSH3 0x8A0 PUSH3 0x6FF JUMP JUMPDEST JUMPDEST PUSH3 0x8AF DUP6 DUP3 DUP7 ADD PUSH3 0x833 JUMP JUMPDEST SWAP3 POP POP PUSH1 0x20 DUP4 ADD CALLDATALOAD PUSH8 0xFFFFFFFFFFFFFFFF DUP2 GT ISZERO PUSH3 0x8D3 JUMPI PUSH3 0x8D2 PUSH3 0x6FF JUMP JUMPDEST JUMPDEST PUSH3 0x8E1 DUP6 DUP3 DUP7 ADD PUSH3 0x833 JUMP JUMPDEST SWAP2 POP POP SWAP3 POP SWAP3 SWAP1 POP JUMP JUMPDEST PUSH1 0x0 PUSH20 0xFFFFFFFFFFFFFFFFFFFFFFFFFFFFFFFFFFFFFFFF DUP3 AND SWAP1 POP SWAP2 SWAP1 POP JUMP JUMPDEST PUSH1 0x0 PUSH3 0x918 DUP3 PUSH3 0x8EB JUMP JUMPDEST SWAP1 POP SWAP2 SWAP1 POP JUMP JUMPDEST PUSH3 0x92A DUP2 PUSH3 0x90B JUMP JUMPDEST DUP3 MSTORE POP POP JUMP JUMPDEST PUSH1 0x0 PUSH1 0x20 DUP3 ADD SWAP1 POP PUSH3 0x947 PUSH1 0x0 DUP4 ADD DUP5 PUSH3 0x91F JUMP JUMPDEST SWAP3 SWAP2 POP POP JUMP JUMPDEST PUSH3 0x958 DUP2 PUSH3 0x6B8 JUMP JUMPDEST DUP2 EQ PUSH3 0x964 JUMPI PUSH1 0x0 DUP1 REVERT JUMPDEST POP JUMP JUMPDEST PUSH1 0x0 DUP2 CALLDATALOAD SWAP1 POP PUSH3 0x978 DUP2 PUSH3 0x94D JUMP JUMPDEST SWAP3 SWAP2 POP POP JUMP JUMPDEST PUSH1 0x0 PUSH1 0x20 DUP3 DUP5 SUB SLT ISZERO PUSH3 0x997 JUMPI PUSH3 0x996 PUSH3 0x6FA JUMP JUMPDEST JUMPDEST PUSH1 0x0 PUSH3 0x9A7 DUP5 DUP3 DUP6 ADD PUSH3 0x967 JUMP JUMPDEST SWAP2 POP POP SWAP3 SWAP2 POP POP JUMP JUMPDEST PUSH1 0x0 PUSH3 0x9BD DUP3 PUSH3 0x8EB JUMP JUMPDEST SWAP1 POP SWAP2 SWAP1 POP JUMP JUMPDEST PUSH3 0x9CF DUP2 PUSH3 0x9B0 JUMP JUMPDEST DUP3 MSTORE POP POP JUMP JUMPDEST PUSH1 0x0 PUSH1 0x20 DUP3 ADD SWAP1 POP PUSH3 0x9EC PUSH1 0x0 DUP4 ADD DUP5 PUSH3 0x9C4 JUMP JUMPDEST SWAP3 SWAP2 POP POP JUMP JUMPDEST PUSH1 0x0 DUP2 MLOAD SWAP1 POP SWAP2 SWAP1 POP JUMP JUMPDEST PUSH1 0x0 DUP3 DUP3 MSTORE PUSH1 0x20 DUP3 ADD SWAP1 POP SWAP3 SWAP2 POP POP JUMP JUMPDEST PUSH1 0x0 DUP2 SWAP1 POP PUSH1 0x20 DUP3 ADD SWAP1 POP SWAP2 SWAP1 POP JUMP JUMPDEST PUSH3 0xA29 DUP2 PUSH3 0x90B JUMP JUMPDEST DUP3 MSTORE POP POP JUMP JUMPDEST PUSH1 0x0 PUSH3 0xA3D DUP4 DUP4 PUSH3 0xA1E JUMP JUMPDEST PUSH1 0x20 DUP4 ADD SWAP1 POP SWAP3 SWAP2 POP POP JUMP JUMPDEST PUSH1 0x0 PUSH1 0x20 DUP3 ADD SWAP1 POP SWAP2 SWAP1 POP JUMP JUMPDEST PUSH1 0x0 PUSH3 0xA63 DUP3 PUSH3 0x9F2 JUMP JUMPDEST PUSH3 0xA6F DUP2 DUP6 PUSH3 0x9FD JUMP JUMPDEST SWAP4 POP PUSH3 0xA7C DUP4 PUSH3 0xA0E JUMP JUMPDEST DUP1 PUSH1 0x0 JUMPDEST DUP4 DUP2 LT ISZERO PUSH3 0xAB3 JUMPI DUP2 MLOAD PUSH3 0xA97 DUP9 DUP3 PUSH3 0xA2F JUMP JUMPDEST SWAP8 POP PUSH3 0xAA4 DUP4 PUSH3 0xA49 JUMP JUMPDEST SWAP3 POP POP PUSH1 0x1 DUP2 ADD SWAP1 POP PUSH3 0xA80 JUMP JUMPDEST POP DUP6 SWAP4 POP POP POP POP SWAP3 SWAP2 POP POP JUMP JUMPDEST PUSH1 0x0 PUSH1 0x20 DUP3 ADD SWAP1 POP DUP2 DUP2 SUB PUSH1 0x0 DUP4 ADD MSTORE PUSH3 0xADC DUP2 DUP5 PUSH3 0xA56 JUMP JUMPDEST SWAP1 POP SWAP3 SWAP2 POP POP JUMP JUMPDEST PUSH3 0xAEF DUP2 PUSH3 0x90B JUMP JUMPDEST DUP2 EQ PUSH3 0xAFB JUMPI PUSH1 0x0 DUP1 REVERT JUMPDEST POP JUMP JUMPDEST PUSH1 0x0 DUP2 CALLDATALOAD SWAP1 POP PUSH3 0xB0F DUP2 PUSH3 0xAE4 JUMP JUMPDEST SWAP3 SWAP2 POP POP JUMP JUMPDEST PUSH1 0x0 PUSH1 0x20 DUP3 DUP5 SUB SLT ISZERO PUSH3 0xB2E JUMPI PUSH3 0xB2D PUSH3 0x6FA JUMP JUMPDEST JUMPDEST PUSH1 0x0 PUSH3 0xB3E DUP5 DUP3 DUP6 ADD PUSH3 0xAFE JUMP JUMPDEST SWAP2 POP POP SWAP3 SWAP2 POP POP JUMP JUMPDEST PUSH1 0x0 DUP2 MLOAD SWAP1 POP SWAP2 SWAP1 POP JUMP JUMPDEST PUSH1 0x0 DUP3 DUP3 MSTORE PUSH1 0x20 DUP3 ADD SWAP1 POP SWAP3 SWAP2 POP POP JUMP JUMPDEST PUSH1 0x0 JUMPDEST DUP4 DUP2 LT ISZERO PUSH3 0xB83 JUMPI DUP1 DUP3 ADD MLOAD DUP2 DUP5 ADD MSTORE PUSH1 0x20 DUP2 ADD SWAP1 POP PUSH3 0xB66 JUMP JUMPDEST DUP4 DUP2 GT ISZERO PUSH3 0xB93 JUMPI PUSH1 0x0 DUP5 DUP5 ADD MSTORE JUMPDEST POP POP POP POP JUMP JUMPDEST PUSH1 0x0 PUSH3 0xBA6 DUP3 PUSH3 0xB47 JUMP JUMPDEST PUSH3 0xBB2 DUP2 DUP6 PUSH3 0xB52 JUMP JUMPDEST SWAP4 POP PUSH3 0xBC4 DUP2 DUP6 PUSH1 0x20 DUP7 ADD PUSH3 0xB63 JUMP JUMPDEST PUSH3 0xBCF DUP2 PUSH3 0x70E JUMP JUMPDEST DUP5 ADD SWAP2 POP POP SWAP3 SWAP2 POP POP JUMP JUMPDEST PUSH1 0x0 PUSH1 0x60 DUP3 ADD SWAP1 POP DUP2 DUP2 SUB PUSH1 0x0 DUP4 ADD MSTORE PUSH3 0xBF6 DUP2 DUP7 PUSH3 0xB99 JUMP JUMPDEST SWAP1 POP DUP2 DUP2 SUB PUSH1 0x20 DUP4 ADD MSTORE PUSH3 0xC0C DUP2 DUP6 PUSH3 0xB99 JUMP JUMPDEST SWAP1 POP PUSH3 0xC1D PUSH1 0x40 DUP4 ADD DUP5 PUSH3 0x91F JUMP JUMPDEST SWAP5 SWAP4 POP POP POP POP JUMP JUMPDEST PUSH32 0x4E487B7100000000000000000000000000000000000000000000000000000000 PUSH1 0x0 MSTORE PUSH1 0x11 PUSH1 0x4 MSTORE PUSH1 0x24 PUSH1 0x0 REVERT JUMPDEST PUSH1 0x0 PUSH3 0xC61 DUP3 PUSH3 0x6B8 JUMP JUMPDEST SWAP2 POP PUSH3 0xC6E DUP4 PUSH3 0x6B8 JUMP JUMPDEST SWAP3 POP DUP3 DUP3 LT ISZERO PUSH3 0xC84 JUMPI PUSH3 0xC83 PUSH3 0xC25 JUMP JUMPDEST JUMPDEST DUP3 DUP3 SUB SWAP1 POP SWAP3 SWAP2 POP POP JUMP JUMPDEST PUSH32 0x4E487B7100000000000000000000000000000000000000000000000000000000 PUSH1 0x0 MSTORE PUSH1 0x32 PUSH1 0x4 MSTORE PUSH1 0x24 PUSH1 0x0 REVERT JUMPDEST PUSH32 0x4E487B7100000000000000000000000000000000000000000000000000000000 PUSH1 0x0 MSTORE PUSH1 0x31 PUSH1 0x4 MSTORE PUSH1 0x24 PUSH1 0x0 REVERT INVALID PUSH1 0x80 PUSH1 0x40 MSTORE CALLVALUE DUP1 ISZERO PUSH3 0x11 JUMPI PUSH1 0x0 DUP1 REVERT JUMPDEST POP PUSH1 0x40 MLOAD PUSH3 0x1C7A CODESIZE SUB DUP1 PUSH3 0x1C7A DUP4 CODECOPY DUP2 DUP2 ADD PUSH1 0x40 MSTORE DUP2 ADD SWAP1 PUSH3 0x37 SWAP2 SWAP1 PUSH3 0x470 JUMP JUMPDEST DUP1 PUSH1 0x2 PUSH1 0x0 PUSH2 0x100 EXP DUP2 SLOAD DUP2 PUSH20 0xFFFFFFFFFFFFFFFFFFFFFFFFFFFFFFFFFFFFFFFF MUL NOT AND SWAP1 DUP4 PUSH20 0xFFFFFFFFFFFFFFFFFFFFFFFFFFFFFFFFFFFFFFFF AND MUL OR SWAP1 SSTORE POP DUP3 PUSH1 0x0 SWAP1 DUP1 MLOAD SWAP1 PUSH1 0x20 ADD SWAP1 PUSH3 0x90 SWAP3 SWAP2 SWAP1 PUSH3 0x1BE JUMP JUMPDEST POP PUSH1 0x1 DUP2 SWAP1 DUP1 PUSH1 0x1 DUP2 SLOAD ADD DUP1 DUP3 SSTORE DUP1 SWAP2 POP POP PUSH1 0x1 SWAP1 SUB SWAP1 PUSH1 0x0 MSTORE PUSH1 0x20 PUSH1 0x0 KECCAK256 ADD PUSH1 0x0 SWAP1 SWAP2 SWAP1 SWAP2 SWAP1 SWAP2 PUSH2 0x100 EXP DUP2 SLOAD DUP2 PUSH20 0xFFFFFFFFFFFFFFFFFFFFFFFFFFFFFFFFFFFFFFFF MUL NOT AND SWAP1 DUP4 PUSH20 0xFFFFFFFFFFFFFFFFFFFFFFFFFFFFFFFFFFFFFFFF AND MUL OR SWAP1 SSTORE POP DUP2 PUSH1 0x4 PUSH1 0x0 DUP4 PUSH20 0xFFFFFFFFFFFFFFFFFFFFFFFFFFFFFFFFFFFFFFFF AND PUSH20 0xFFFFFFFFFFFFFFFFFFFFFFFFFFFFFFFFFFFFFFFF AND DUP2 MSTORE PUSH1 0x20 ADD SWAP1 DUP2 MSTORE PUSH1 0x20 ADD PUSH1 0x0 KECCAK256 SWAP1 DUP1 MLOAD SWAP1 PUSH1 0x20 ADD SWAP1 PUSH3 0x149 SWAP3 SWAP2 SWAP1 PUSH3 0x1BE JUMP JUMPDEST POP PUSH1 0x2 PUSH1 0x3 PUSH1 0x0 DUP4 PUSH20 0xFFFFFFFFFFFFFFFFFFFFFFFFFFFFFFFFFFFFFFFF AND PUSH20 0xFFFFFFFFFFFFFFFFFFFFFFFFFFFFFFFFFFFFFFFF AND DUP2 MSTORE PUSH1 0x20 ADD SWAP1 DUP2 MSTORE PUSH1 0x20 ADD PUSH1 0x0 KECCAK256 PUSH1 0x0 PUSH2 0x100 EXP DUP2 SLOAD DUP2 PUSH1 0xFF MUL NOT AND SWAP1 DUP4 PUSH1 0x2 DUP2 GT ISZERO PUSH3 0x1B0 JUMPI PUSH3 0x1AF PUSH3 0x50A JUMP JUMPDEST JUMPDEST MUL OR SWAP1 SSTORE POP POP POP POP PUSH3 0x59D JUMP JUMPDEST DUP3 DUP1 SLOAD PUSH3 0x1CC SWAP1 PUSH3 0x568 JUMP JUMPDEST SWAP1 PUSH1 0x0 MSTORE PUSH1 0x20 PUSH1 0x0 KECCAK256 SWAP1 PUSH1 0x1F ADD PUSH1 0x20 SWAP1 DIV DUP2 ADD SWAP3 DUP3 PUSH3 0x1F0 JUMPI PUSH1 0x0 DUP6 SSTORE PUSH3 0x23C JUMP JUMPDEST DUP3 PUSH1 0x1F LT PUSH3 0x20B JUMPI DUP1 MLOAD PUSH1 0xFF NOT AND DUP4 DUP1 ADD OR DUP6 SSTORE PUSH3 0x23C JUMP JUMPDEST DUP3 DUP1 ADD PUSH1 0x1 ADD DUP6 SSTORE DUP3 ISZERO PUSH3 0x23C JUMPI SWAP2 DUP3 ADD JUMPDEST DUP3 DUP2 GT ISZERO PUSH3 0x23B JUMPI DUP3 MLOAD DUP3 SSTORE SWAP2 PUSH1 0x20 ADD SWAP2 SWAP1 PUSH1 0x1 ADD SWAP1 PUSH3 0x21E JUMP JUMPDEST JUMPDEST POP SWAP1 POP PUSH3 0x24B SWAP2 SWAP1 PUSH3 0x24F JUMP JUMPDEST POP SWAP1 JUMP JUMPDEST JUMPDEST DUP1 DUP3 GT ISZERO PUSH3 0x26A JUMPI PUSH1 0x0 DUP2 PUSH1 0x0 SWAP1 SSTORE POP PUSH1 0x1 ADD PUSH3 0x250 JUMP JUMPDEST POP SWAP1 JUMP JUMPDEST PUSH1 0x0 PUSH1 0x40 MLOAD SWAP1 POP SWAP1 JUMP JUMPDEST PUSH1 0x0 DUP1 REVERT JUMPDEST PUSH1 0x0 DUP1 REVERT JUMPDEST PUSH1 0x0 DUP1 REVERT JUMPDEST PUSH1 0x0 DUP1 REVERT JUMPDEST PUSH1 0x0 PUSH1 0x1F NOT PUSH1 0x1F DUP4 ADD AND SWAP1 POP SWAP2 SWAP1 POP JUMP JUMPDEST PUSH32 0x4E487B7100000000000000000000000000000000000000000000000000000000 PUSH1 0x0 MSTORE PUSH1 0x41 PUSH1 0x4 MSTORE PUSH1 0x24 PUSH1 0x0 REVERT JUMPDEST PUSH3 0x2D7 DUP3 PUSH3 0x28C JUMP JUMPDEST DUP2 ADD DUP2 DUP2 LT PUSH8 0xFFFFFFFFFFFFFFFF DUP3 GT OR ISZERO PUSH3 0x2F9 JUMPI PUSH3 0x2F8 PUSH3 0x29D JUMP JUMPDEST JUMPDEST DUP1 PUSH1 0x40 MSTORE POP POP POP JUMP JUMPDEST PUSH1 0x0 PUSH3 0x30E PUSH3 0x26E JUMP JUMPDEST SWAP1 POP PUSH3 0x31C DUP3 DUP3 PUSH3 0x2CC JUMP JUMPDEST SWAP2 SWAP1 POP JUMP JUMPDEST PUSH1 0x0 PUSH8 0xFFFFFFFFFFFFFFFF DUP3 GT ISZERO PUSH3 0x33F JUMPI PUSH3 0x33E PUSH3 0x29D JUMP JUMPDEST JUMPDEST PUSH3 0x34A DUP3 PUSH3 0x28C JUMP JUMPDEST SWAP1 POP PUSH1 0x20 DUP2 ADD SWAP1 POP SWAP2 SWAP1 POP JUMP JUMPDEST PUSH1 0x0 JUMPDEST DUP4 DUP2 LT ISZERO PUSH3 0x377 JUMPI DUP1 DUP3 ADD MLOAD DUP2 DUP5 ADD MSTORE PUSH1 0x20 DUP2 ADD SWAP1 POP PUSH3 0x35A JUMP JUMPDEST DUP4 DUP2 GT ISZERO PUSH3 0x387 JUMPI PUSH1 0x0 DUP5 DUP5 ADD MSTORE JUMPDEST POP POP POP POP JUMP JUMPDEST PUSH1 0x0 PUSH3 0x3A4 PUSH3 0x39E DUP5 PUSH3 0x321 JUMP JUMPDEST PUSH3 0x302 JUMP JUMPDEST SWAP1 POP DUP3 DUP2 MSTORE PUSH1 0x20 DUP2 ADD DUP5 DUP5 DUP5 ADD GT ISZERO PUSH3 0x3C3 JUMPI PUSH3 0x3C2 PUSH3 0x287 JUMP JUMPDEST JUMPDEST PUSH3 0x3D0 DUP5 DUP3 DUP6 PUSH3 0x357 JUMP JUMPDEST POP SWAP4 SWAP3 POP POP POP JUMP JUMPDEST PUSH1 0x0 DUP3 PUSH1 0x1F DUP4 ADD SLT PUSH3 0x3F0 JUMPI PUSH3 0x3EF PUSH3 0x282 JUMP JUMPDEST JUMPDEST DUP2 MLOAD PUSH3 0x402 DUP5 DUP3 PUSH1 0x20 DUP7 ADD PUSH3 0x38D JUMP JUMPDEST SWAP2 POP POP SWAP3 SWAP2 POP POP JUMP JUMPDEST PUSH1 0x0 PUSH20 0xFFFFFFFFFFFFFFFFFFFFFFFFFFFFFFFFFFFFFFFF DUP3 AND SWAP1 POP SWAP2 SWAP1 POP JUMP JUMPDEST PUSH1 0x0 PUSH3 0x438 DUP3 PUSH3 0x40B JUMP JUMPDEST SWAP1 POP SWAP2 SWAP1 POP JUMP JUMPDEST PUSH3 0x44A DUP2 PUSH3 0x42B JUMP JUMPDEST DUP2 EQ PUSH3 0x456 JUMPI PUSH1 0x0 DUP1 REVERT JUMPDEST POP JUMP JUMPDEST PUSH1 0x0 DUP2 MLOAD SWAP1 POP PUSH3 0x46A DUP2 PUSH3 0x43F JUMP JUMPDEST SWAP3 SWAP2 POP POP JUMP JUMPDEST PUSH1 0x0 DUP1 PUSH1 0x0 PUSH1 0x60 DUP5 DUP7 SUB SLT ISZERO PUSH3 0x48C JUMPI PUSH3 0x48B PUSH3 0x278 JUMP JUMPDEST JUMPDEST PUSH1 0x0 DUP5 ADD MLOAD PUSH8 0xFFFFFFFFFFFFFFFF DUP2 GT ISZERO PUSH3 0x4AD JUMPI PUSH3 0x4AC PUSH3 0x27D JUMP JUMPDEST JUMPDEST PUSH3 0x4BB DUP7 DUP3 DUP8 ADD PUSH3 0x3D8 JUMP JUMPDEST SWAP4 POP POP PUSH1 0x20 DUP5 ADD MLOAD PUSH8 0xFFFFFFFFFFFFFFFF DUP2 GT ISZERO PUSH3 0x4DF JUMPI PUSH3 0x4DE PUSH3 0x27D JUMP JUMPDEST JUMPDEST PUSH3 0x4ED DUP7 DUP3 DUP8 ADD PUSH3 0x3D8 JUMP JUMPDEST SWAP3 POP POP PUSH1 0x40 PUSH3 0x500 DUP7 DUP3 DUP8 ADD PUSH3 0x459 JUMP JUMPDEST SWAP2 POP POP SWAP3 POP SWAP3 POP SWAP3 JUMP JUMPDEST PUSH32 0x4E487B7100000000000000000000000000000000000000000000000000000000 PUSH1 0x0 MSTORE PUSH1 0x21 PUSH1 0x4 MSTORE PUSH1 0x24 PUSH1 0x0 REVERT JUMPDEST PUSH32 0x4E487B7100000000000000000000000000000000000000000000000000000000 PUSH1 0x0 MSTORE PUSH1 0x22 PUSH1 0x4 MSTORE PUSH1 0x24 PUSH1 0x0 REVERT JUMPDEST PUSH1 0x0 PUSH1 0x2 DUP3 DIV SWAP1 POP PUSH1 0x1 DUP3 AND DUP1 PUSH3 0x581 JUMPI PUSH1 0x7F DUP3 AND SWAP2 POP JUMPDEST PUSH1 0x20 DUP3 LT DUP2 SUB PUSH3 0x597 JUMPI PUSH3 0x596 PUSH3 0x539 JUMP JUMPDEST JUMPDEST POP SWAP2 SWAP1 POP JUMP JUMPDEST PUSH2 0x16CD DUP1 PUSH3 0x5AD PUSH1 0x0 CODECOPY PUSH1 0x0 RETURN INVALID PUSH1 0x80 PUSH1 0x40 MSTORE CALLVALUE DUP1 ISZERO PUSH2 0x10 JUMPI PUSH1 0x0 DUP1 REVERT JUMPDEST POP PUSH1 0x4 CALLDATASIZE LT PUSH2 0x88 JUMPI PUSH1 0x0 CALLDATALOAD PUSH1 0xE0 SHR DUP1 PUSH4 0x9A8BF4E0 GT PUSH2 0x5B JUMPI DUP1 PUSH4 0x9A8BF4E0 EQ PUSH2 0x101 JUMPI DUP1 PUSH4 0x9EAB5253 EQ PUSH2 0x11D JUMPI DUP1 PUSH4 0xA3FBBAAE EQ PUSH2 0x13D JUMPI DUP1 PUSH4 0xAE026D95 EQ PUSH2 0x159 JUMPI PUSH2 0x88 JUMP JUMPDEST DUP1 PUSH4 0x1B760719 EQ PUSH2 0x8D JUMPI DUP1 PUSH4 0x481C6A75 EQ PUSH2 0xA9 JUMPI DUP1 PUSH4 0x7DEBF5C6 EQ PUSH2 0xC7 JUMPI DUP1 PUSH4 0x843C608D EQ PUSH2 0xE3 JUMPI JUMPDEST PUSH1 0x0 DUP1 REVERT JUMPDEST PUSH2 0xA7 PUSH1 0x4 DUP1 CALLDATASIZE SUB DUP2 ADD SWAP1 PUSH2 0xA2 SWAP2 SWAP1 PUSH2 0x1032 JUMP JUMPDEST PUSH2 0x175 JUMP JUMPDEST STOP JUMPDEST PUSH2 0xB1 PUSH2 0x327 JUMP JUMPDEST PUSH1 0x40 MLOAD PUSH2 0xBE SWAP2 SWAP1 PUSH2 0x10B0 JUMP JUMPDEST PUSH1 0x40 MLOAD DUP1 SWAP2 SUB SWAP1 RETURN JUMPDEST PUSH2 0xE1 PUSH1 0x4 DUP1 CALLDATASIZE SUB DUP2 ADD SWAP1 PUSH2 0xDC SWAP2 SWAP1 PUSH2 0x1032 JUMP JUMPDEST PUSH2 0x34D JUMP JUMPDEST STOP JUMPDEST PUSH2 0xEB PUSH2 0x49C JUMP JUMPDEST PUSH1 0x40 MLOAD PUSH2 0xF8 SWAP2 SWAP1 PUSH2 0x1153 JUMP JUMPDEST PUSH1 0x40 MLOAD DUP1 SWAP2 SUB SWAP1 RETURN JUMPDEST PUSH2 0x11B PUSH1 0x4 DUP1 CALLDATASIZE SUB DUP2 ADD SWAP1 PUSH2 0x116 SWAP2 SWAP1 PUSH2 0x1175 JUMP JUMPDEST PUSH2 0x5AC JUMP JUMPDEST STOP JUMPDEST PUSH2 0x125 PUSH2 0x80E JUMP JUMPDEST PUSH1 0x40 MLOAD PUSH2 0x134 SWAP4 SWAP3 SWAP2 SWAP1 PUSH2 0x143D JUMP JUMPDEST PUSH1 0x40 MLOAD DUP1 SWAP2 SUB SWAP1 RETURN JUMPDEST PUSH2 0x157 PUSH1 0x4 DUP1 CALLDATASIZE SUB DUP2 ADD SWAP1 PUSH2 0x152 SWAP2 SWAP1 PUSH2 0x1489 JUMP JUMPDEST PUSH2 0xBC4 JUMP JUMPDEST STOP JUMPDEST PUSH2 0x173 PUSH1 0x4 DUP1 CALLDATASIZE SUB DUP2 ADD SWAP1 PUSH2 0x16E SWAP2 SWAP1 PUSH2 0x14B6 JUMP JUMPDEST PUSH2 0xCCA JUMP JUMPDEST STOP JUMPDEST PUSH1 0x2 DUP1 DUP2 GT ISZERO PUSH2 0x188 JUMPI PUSH2 0x187 PUSH2 0x14FF JUMP JUMPDEST JUMPDEST PUSH1 0x3 PUSH1 0x0 CALLER PUSH20 0xFFFFFFFFFFFFFFFFFFFFFFFFFFFFFFFFFFFFFFFF AND PUSH20 0xFFFFFFFFFFFFFFFFFFFFFFFFFFFFFFFFFFFFFFFF AND DUP2 MSTORE PUSH1 0x20 ADD SWAP1 DUP2 MSTORE PUSH1 0x20 ADD PUSH1 0x0 KECCAK256 PUSH1 0x0 SWAP1 SLOAD SWAP1 PUSH2 0x100 EXP SWAP1 DIV PUSH1 0xFF AND PUSH1 0x2 DUP2 GT ISZERO PUSH2 0x1E7 JUMPI PUSH2 0x1E6 PUSH2 0x14FF JUMP JUMPDEST JUMPDEST LT ISZERO PUSH2 0x1F2 JUMPI PUSH1 0x0 DUP1 REVERT JUMPDEST PUSH1 0x1 DUP4 SWAP1 DUP1 PUSH1 0x1 DUP2 SLOAD ADD DUP1 DUP3 SSTORE DUP1 SWAP2 POP POP PUSH1 0x1 SWAP1 SUB SWAP1 PUSH1 0x0 MSTORE PUSH1 0x20 PUSH1 0x0 KECCAK256 ADD PUSH1 0x0 SWAP1 SWAP2 SWAP1 SWAP2 SWAP1 SWAP2 PUSH2 0x100 EXP DUP2 SLOAD DUP2 PUSH20 0xFFFFFFFFFFFFFFFFFFFFFFFFFFFFFFFFFFFFFFFF MUL NOT AND SWAP1 DUP4 PUSH20 0xFFFFFFFFFFFFFFFFFFFFFFFFFFFFFFFFFFFFFFFF AND MUL OR SWAP1 SSTORE POP DUP1 PUSH1 0x2 DUP2 GT ISZERO PUSH2 0x268 JUMPI PUSH2 0x267 PUSH2 0x14FF JUMP JUMPDEST JUMPDEST PUSH1 0x3 PUSH1 0x0 DUP6 PUSH20 0xFFFFFFFFFFFFFFFFFFFFFFFFFFFFFFFFFFFFFFFF AND PUSH20 0xFFFFFFFFFFFFFFFFFFFFFFFFFFFFFFFFFFFFFFFF AND DUP2 MSTORE PUSH1 0x20 ADD SWAP1 DUP2 MSTORE PUSH1 0x20 ADD PUSH1 0x0 KECCAK256 PUSH1 0x0 PUSH2 0x100 EXP DUP2 SLOAD DUP2 PUSH1 0xFF MUL NOT AND SWAP1 DUP4 PUSH1 0x2 DUP2 GT ISZERO PUSH2 0x2C9 JUMPI PUSH2 0x2C8 PUSH2 0x14FF JUMP JUMPDEST JUMPDEST MUL OR SWAP1 SSTORE POP DUP2 PUSH1 0x4 PUSH1 0x0 DUP6 PUSH20 0xFFFFFFFFFFFFFFFFFFFFFFFFFFFFFFFFFFFFFFFF AND PUSH20 0xFFFFFFFFFFFFFFFFFFFFFFFFFFFFFFFFFFFFFFFF AND DUP2 MSTORE PUSH1 0x20 ADD SWAP1 DUP2 MSTORE PUSH1 0x20 ADD PUSH1 0x0 KECCAK256 SWAP1 DUP1 MLOAD SWAP1 PUSH1 0x20 ADD SWAP1 PUSH2 0x321 SWAP3 SWAP2 SWAP1 PUSH2 0xD61 JUMP JUMPDEST POP POP POP POP JUMP JUMPDEST PUSH1 0x2 PUSH1 0x0 SWAP1 SLOAD SWAP1 PUSH2 0x100 EXP SWAP1 DIV PUSH20 0xFFFFFFFFFFFFFFFFFFFFFFFFFFFFFFFFFFFFFFFF AND DUP2 JUMP JUMPDEST PUSH1 0x2 DUP1 DUP2 GT ISZERO PUSH2 0x360 JUMPI PUSH2 0x35F PUSH2 0x14FF JUMP JUMPDEST JUMPDEST PUSH1 0x3 PUSH1 0x0 CALLER PUSH20 0xFFFFFFFFFFFFFFFFFFFFFFFFFFFFFFFFFFFFFFFF AND PUSH20 0xFFFFFFFFFFFFFFFFFFFFFFFFFFFFFFFFFFFFFFFF AND DUP2 MSTORE PUSH1 0x20 ADD SWAP1 DUP2 MSTORE PUSH1 0x20 ADD PUSH1 0x0 KECCAK256 PUSH1 0x0 SWAP1 SLOAD SWAP1 PUSH2 0x100 EXP SWAP1 DIV PUSH1 0xFF AND PUSH1 0x2 DUP2 GT ISZERO PUSH2 0x3BF JUMPI PUSH2 0x3BE PUSH2 0x14FF JUMP JUMPDEST JUMPDEST LT ISZERO PUSH2 0x3CA JUMPI PUSH1 0x0 DUP1 REVERT JUMPDEST DUP2 PUSH1 0x4 PUSH1 0x0 DUP6 PUSH20 0xFFFFFFFFFFFFFFFFFFFFFFFFFFFFFFFFFFFFFFFF AND PUSH20 0xFFFFFFFFFFFFFFFFFFFFFFFFFFFFFFFFFFFFFFFF AND DUP2 MSTORE PUSH1 0x20 ADD SWAP1 DUP2 MSTORE PUSH1 0x20 ADD PUSH1 0x0 KECCAK256 SWAP1 DUP1 MLOAD SWAP1 PUSH1 0x20 ADD SWAP1 PUSH2 0x41D SWAP3 SWAP2 SWAP1 PUSH2 0xD61 JUMP JUMPDEST POP DUP1 PUSH1 0x2 DUP2 GT ISZERO PUSH2 0x431 JUMPI PUSH2 0x430 PUSH2 0x14FF JUMP JUMPDEST JUMPDEST PUSH1 0x3 PUSH1 0x0 DUP6 PUSH20 0xFFFFFFFFFFFFFFFFFFFFFFFFFFFFFFFFFFFFFFFF AND PUSH20 0xFFFFFFFFFFFFFFFFFFFFFFFFFFFFFFFFFFFFFFFF AND DUP2 MSTORE PUSH1 0x20 ADD SWAP1 DUP2 MSTORE PUSH1 0x20 ADD PUSH1 0x0 KECCAK256 PUSH1 0x0 PUSH2 0x100 EXP DUP2 SLOAD DUP2 PUSH1 0xFF MUL NOT AND SWAP1 DUP4 PUSH1 0x2 DUP2 GT ISZERO PUSH2 0x492 JUMPI PUSH2 0x491 PUSH2 0x14FF JUMP JUMPDEST JUMPDEST MUL OR SWAP1 SSTORE POP POP POP POP JUMP JUMPDEST PUSH1 0x60 PUSH1 0x1 PUSH1 0x2 DUP2 GT ISZERO PUSH2 0x4B2 JUMPI PUSH2 0x4B1 PUSH2 0x14FF JUMP JUMPDEST JUMPDEST PUSH1 0x3 PUSH1 0x0 CALLER PUSH20 0xFFFFFFFFFFFFFFFFFFFFFFFFFFFFFFFFFFFFFFFF AND PUSH20 0xFFFFFFFFFFFFFFFFFFFFFFFFFFFFFFFFFFFFFFFF AND DUP2 MSTORE PUSH1 0x20 ADD SWAP1 DUP2 MSTORE PUSH1 0x20 ADD PUSH1 0x0 KECCAK256 PUSH1 0x0 SWAP1 SLOAD SWAP1 PUSH2 0x100 EXP SWAP1 DIV PUSH1 0xFF AND PUSH1 0x2 DUP2 GT ISZERO PUSH2 0x511 JUMPI PUSH2 0x510 PUSH2 0x14FF JUMP JUMPDEST JUMPDEST LT ISZERO PUSH2 0x51C JUMPI PUSH1 0x0 DUP1 REVERT JUMPDEST PUSH1 0x0 DUP1 SLOAD PUSH2 0x529 SWAP1 PUSH2 0x155D JUMP JUMPDEST DUP1 PUSH1 0x1F ADD PUSH1 0x20 DUP1 SWAP2 DIV MUL PUSH1 0x20 ADD PUSH1 0x40 MLOAD SWAP1 DUP2 ADD PUSH1 0x40 MSTORE DUP1 SWAP3 SWAP2 SWAP1 DUP2 DUP2 MSTORE PUSH1 0x20 ADD DUP3 DUP1 SLOAD PUSH2 0x555 SWAP1 PUSH2 0x155D JUMP JUMPDEST DUP1 ISZERO PUSH2 0x5A2 JUMPI DUP1 PUSH1 0x1F LT PUSH2 0x577 JUMPI PUSH2 0x100 DUP1 DUP4 SLOAD DIV MUL DUP4 MSTORE SWAP2 PUSH1 0x20 ADD SWAP2 PUSH2 0x5A2 JUMP JUMPDEST DUP3 ADD SWAP2 SWAP1 PUSH1 0x0 MSTORE PUSH1 0x20 PUSH1 0x0 KECCAK256 SWAP1 JUMPDEST DUP2 SLOAD DUP2 MSTORE SWAP1 PUSH1 0x1 ADD SWAP1 PUSH1 0x20 ADD DUP1 DUP4 GT PUSH2 0x585 JUMPI DUP3 SWAP1 SUB PUSH1 0x1F AND DUP3 ADD SWAP2 JUMPDEST POP POP POP POP POP SWAP1 POP SWAP1 JUMP JUMPDEST PUSH1 0x2 DUP1 DUP2 GT ISZERO PUSH2 0x5BF JUMPI PUSH2 0x5BE PUSH2 0x14FF JUMP JUMPDEST JUMPDEST PUSH1 0x3 PUSH1 0x0 CALLER PUSH20 0xFFFFFFFFFFFFFFFFFFFFFFFFFFFFFFFFFFFFFFFF AND PUSH20 0xFFFFFFFFFFFFFFFFFFFFFFFFFFFFFFFFFFFFFFFF AND DUP2 MSTORE PUSH1 0x20 ADD SWAP1 DUP2 MSTORE PUSH1 0x20 ADD PUSH1 0x0 KECCAK256 PUSH1 0x0 SWAP1 SLOAD SWAP1 PUSH2 0x100 EXP SWAP1 DIV PUSH1 0xFF AND PUSH1 0x2 DUP2 GT ISZERO PUSH2 0x61E JUMPI PUSH2 0x61D PUSH2 0x14FF JUMP JUMPDEST JUMPDEST LT ISZERO PUSH2 0x629 JUMPI PUSH1 0x0 DUP1 REVERT JUMPDEST PUSH1 0x2 PUSH1 0x0 SWAP1 SLOAD SWAP1 PUSH2 0x100 EXP SWAP1 DIV PUSH20 0xFFFFFFFFFFFFFFFFFFFFFFFFFFFFFFFFFFFFFFFF AND PUSH20 0xFFFFFFFFFFFFFFFFFFFFFFFFFFFFFFFFFFFFFFFF AND DUP2 PUSH20 0xFFFFFFFFFFFFFFFFFFFFFFFFFFFFFFFFFFFFFFFF AND EQ PUSH2 0x80A JUMPI PUSH1 0x3 PUSH1 0x0 DUP3 PUSH20 0xFFFFFFFFFFFFFFFFFFFFFFFFFFFFFFFFFFFFFFFF AND PUSH20 0xFFFFFFFFFFFFFFFFFFFFFFFFFFFFFFFFFFFFFFFF AND DUP2 MSTORE PUSH1 0x20 ADD SWAP1 DUP2 MSTORE PUSH1 0x20 ADD PUSH1 0x0 KECCAK256 PUSH1 0x0 PUSH2 0x100 EXP DUP2 SLOAD SWAP1 PUSH1 0xFF MUL NOT AND SWAP1 SSTORE PUSH1 0x4 PUSH1 0x0 DUP3 PUSH20 0xFFFFFFFFFFFFFFFFFFFFFFFFFFFFFFFFFFFFFFFF AND PUSH20 0xFFFFFFFFFFFFFFFFFFFFFFFFFFFFFFFFFFFFFFFF AND DUP2 MSTORE PUSH1 0x20 ADD SWAP1 DUP2 MSTORE PUSH1 0x20 ADD PUSH1 0x0 KECCAK256 PUSH1 0x0 PUSH2 0x718 SWAP2 SWAP1 PUSH2 0xDE7 JUMP JUMPDEST PUSH1 0x1 DUP1 DUP1 DUP1 SLOAD SWAP1 POP PUSH2 0x72A SWAP2 SWAP1 PUSH2 0x15BD JUMP JUMPDEST DUP2 SLOAD DUP2 LT PUSH2 0x73B JUMPI PUSH2 0x73A PUSH2 0x15F1 JUMP JUMPDEST JUMPDEST SWAP1 PUSH1 0x0 MSTORE PUSH1 0x20 PUSH1 0x0 KECCAK256 ADD PUSH1 0x0 SWAP1 SLOAD SWAP1 PUSH2 0x100 EXP SWAP1 DIV PUSH20 0xFFFFFFFFFFFFFFFFFFFFFFFFFFFFFFFFFFFFFFFF AND PUSH1 0x1 DUP4 DUP2 SLOAD DUP2 LT PUSH2 0x77A JUMPI PUSH2 0x779 PUSH2 0x15F1 JUMP JUMPDEST JUMPDEST SWAP1 PUSH1 0x0 MSTORE PUSH1 0x20 PUSH1 0x0 KECCAK256 ADD PUSH1 0x0 PUSH2 0x100 EXP DUP2 SLOAD DUP2 PUSH20 0xFFFFFFFFFFFFFFFFFFFFFFFFFFFFFFFFFFFFFFFF MUL NOT AND SWAP1 DUP4 PUSH20 0xFFFFFFFFFFFFFFFFFFFFFFFFFFFFFFFFFFFFFFFF AND MUL OR SWAP1 SSTORE POP PUSH1 0x1 DUP1 SLOAD DUP1 PUSH2 0x7D4 JUMPI PUSH2 0x7D3 PUSH2 0x1620 JUMP JUMPDEST JUMPDEST PUSH1 0x1 SWAP1 SUB DUP2 DUP2 SWAP1 PUSH1 0x0 MSTORE PUSH1 0x20 PUSH1 0x0 KECCAK256 ADD PUSH1 0x0 PUSH2 0x100 EXP DUP2 SLOAD SWAP1 PUSH20 0xFFFFFFFFFFFFFFFFFFFFFFFFFFFFFFFFFFFFFFFF MUL NOT AND SWAP1 SSTORE SWAP1 SSTORE JUMPDEST POP POP JUMP JUMPDEST PUSH1 0x60 DUP1 PUSH1 0x60 PUSH1 0x1 PUSH1 0x2 DUP2 GT ISZERO PUSH2 0x827 JUMPI PUSH2 0x826 PUSH2 0x14FF JUMP JUMPDEST JUMPDEST PUSH1 0x3 PUSH1 0x0 CALLER PUSH20 0xFFFFFFFFFFFFFFFFFFFFFFFFFFFFFFFFFFFFFFFF AND PUSH20 0xFFFFFFFFFFFFFFFFFFFFFFFFFFFFFFFFFFFFFFFF AND DUP2 MSTORE PUSH1 0x20 ADD SWAP1 DUP2 MSTORE PUSH1 0x20 ADD PUSH1 0x0 KECCAK256 PUSH1 0x0 SWAP1 SLOAD SWAP1 PUSH2 0x100 EXP SWAP1 DIV PUSH1 0xFF AND PUSH1 0x2 DUP2 GT ISZERO PUSH2 0x886 JUMPI PUSH2 0x885 PUSH2 0x14FF JUMP JUMPDEST JUMPDEST LT ISZERO PUSH2 0x891 JUMPI PUSH1 0x0 DUP1 REVERT JUMPDEST PUSH1 0x0 PUSH1 0x1 DUP1 SLOAD SWAP1 POP SWAP1 POP PUSH1 0x1 DUP1 SLOAD DUP1 PUSH1 0x20 MUL PUSH1 0x20 ADD PUSH1 0x40 MLOAD SWAP1 DUP2 ADD PUSH1 0x40 MSTORE DUP1 SWAP3 SWAP2 SWAP1 DUP2 DUP2 MSTORE PUSH1 0x20 ADD DUP3 DUP1 SLOAD DUP1 ISZERO PUSH2 0x91D JUMPI PUSH1 0x20 MUL DUP3 ADD SWAP2 SWAP1 PUSH1 0x0 MSTORE PUSH1 0x20 PUSH1 0x0 KECCAK256 SWAP1 JUMPDEST DUP2 PUSH1 0x0 SWAP1 SLOAD SWAP1 PUSH2 0x100 EXP SWAP1 DIV PUSH20 0xFFFFFFFFFFFFFFFFFFFFFFFFFFFFFFFFFFFFFFFF AND PUSH20 0xFFFFFFFFFFFFFFFFFFFFFFFFFFFFFFFFFFFFFFFF AND DUP2 MSTORE PUSH1 0x20 ADD SWAP1 PUSH1 0x1 ADD SWAP1 DUP1 DUP4 GT PUSH2 0x8D3 JUMPI JUMPDEST POP POP POP POP POP SWAP4 POP DUP1 PUSH8 0xFFFFFFFFFFFFFFFF DUP2 GT ISZERO PUSH2 0x93E JUMPI PUSH2 0x93D PUSH2 0xED1 JUMP JUMPDEST JUMPDEST PUSH1 0x40 MLOAD SWAP1 DUP1 DUP3 MSTORE DUP1 PUSH1 0x20 MUL PUSH1 0x20 ADD DUP3 ADD PUSH1 0x40 MSTORE DUP1 ISZERO PUSH2 0x971 JUMPI DUP2 PUSH1 0x20 ADD JUMPDEST PUSH1 0x60 DUP2 MSTORE PUSH1 0x20 ADD SWAP1 PUSH1 0x1 SWAP1 SUB SWAP1 DUP2 PUSH2 0x95C JUMPI SWAP1 POP JUMPDEST POP SWAP3 POP DUP1 PUSH8 0xFFFFFFFFFFFFFFFF DUP2 GT ISZERO PUSH2 0x98E JUMPI PUSH2 0x98D PUSH2 0xED1 JUMP JUMPDEST JUMPDEST PUSH1 0x40 MLOAD SWAP1 DUP1 DUP3 MSTORE DUP1 PUSH1 0x20 MUL PUSH1 0x20 ADD DUP3 ADD PUSH1 0x40 MSTORE DUP1 ISZERO PUSH2 0x9BC JUMPI DUP2 PUSH1 0x20 ADD PUSH1 0x20 DUP3 MUL DUP1 CALLDATASIZE DUP4 CALLDATACOPY DUP1 DUP3 ADD SWAP2 POP POP SWAP1 POP JUMPDEST POP SWAP2 POP PUSH1 0x0 JUMPDEST DUP2 DUP2 LT ISZERO PUSH2 0xBBD JUMPI PUSH1 0x4 PUSH1 0x0 PUSH1 0x1 DUP4 DUP2 SLOAD DUP2 LT PUSH2 0x9E2 JUMPI PUSH2 0x9E1 PUSH2 0x15F1 JUMP JUMPDEST JUMPDEST SWAP1 PUSH1 0x0 MSTORE PUSH1 0x20 PUSH1 0x0 KECCAK256 ADD PUSH1 0x0 SWAP1 SLOAD SWAP1 PUSH2 0x100 EXP SWAP1 DIV PUSH20 0xFFFFFFFFFFFFFFFFFFFFFFFFFFFFFFFFFFFFFFFF AND PUSH20 0xFFFFFFFFFFFFFFFFFFFFFFFFFFFFFFFFFFFFFFFF AND PUSH20 0xFFFFFFFFFFFFFFFFFFFFFFFFFFFFFFFFFFFFFFFF AND DUP2 MSTORE PUSH1 0x20 ADD SWAP1 DUP2 MSTORE PUSH1 0x20 ADD PUSH1 0x0 KECCAK256 DUP1 SLOAD PUSH2 0xA52 SWAP1 PUSH2 0x155D JUMP JUMPDEST DUP1 PUSH1 0x1F ADD PUSH1 0x20 DUP1 SWAP2 DIV MUL PUSH1 0x20 ADD PUSH1 0x40 MLOAD SWAP1 DUP2 ADD PUSH1 0x40 MSTORE DUP1 SWAP3 SWAP2 SWAP1 DUP2 DUP2 MSTORE PUSH1 0x20 ADD DUP3 DUP1 SLOAD PUSH2 0xA7E SWAP1 PUSH2 0x155D JUMP JUMPDEST DUP1 ISZERO PUSH2 0xACB JUMPI DUP1 PUSH1 0x1F LT PUSH2 0xAA0 JUMPI PUSH2 0x100 DUP1 DUP4 SLOAD DIV MUL DUP4 MSTORE SWAP2 PUSH1 0x20 ADD SWAP2 PUSH2 0xACB JUMP JUMPDEST DUP3 ADD SWAP2 SWAP1 PUSH1 0x0 MSTORE PUSH1 0x20 PUSH1 0x0 KECCAK256 SWAP1 JUMPDEST DUP2 SLOAD DUP2 MSTORE SWAP1 PUSH1 0x1 ADD SWAP1 PUSH1 0x20 ADD DUP1 DUP4 GT PUSH2 0xAAE JUMPI DUP3 SWAP1 SUB PUSH1 0x1F AND DUP3 ADD SWAP2 JUMPDEST POP POP POP POP POP DUP5 DUP3 DUP2 MLOAD DUP2 LT PUSH2 0xAE3 JUMPI PUSH2 0xAE2 PUSH2 0x15F1 JUMP JUMPDEST JUMPDEST PUSH1 0x20 MUL PUSH1 0x20 ADD ADD DUP2 SWAP1 MSTORE POP PUSH1 0x3 PUSH1 0x0 PUSH1 0x1 DUP4 DUP2 SLOAD DUP2 LT PUSH2 0xB06 JUMPI PUSH2 0xB05 PUSH2 0x15F1 JUMP JUMPDEST JUMPDEST SWAP1 PUSH1 0x0 MSTORE PUSH1 0x20 PUSH1 0x0 KECCAK256 ADD PUSH1 0x0 SWAP1 SLOAD SWAP1 PUSH2 0x100 EXP SWAP1 DIV PUSH20 0xFFFFFFFFFFFFFFFFFFFFFFFFFFFFFFFFFFFFFFFF AND PUSH20 0xFFFFFFFFFFFFFFFFFFFFFFFFFFFFFFFFFFFFFFFF AND PUSH20 0xFFFFFFFFFFFFFFFFFFFFFFFFFFFFFFFFFFFFFFFF AND DUP2 MSTORE PUSH1 0x20 ADD SWAP1 DUP2 MSTORE PUSH1 0x20 ADD PUSH1 0x0 KECCAK256 PUSH1 0x0 SWAP1 SLOAD SWAP1 PUSH2 0x100 EXP SWAP1 DIV PUSH1 0xFF AND PUSH1 0x2 DUP2 GT ISZERO PUSH2 0xB8B JUMPI PUSH2 0xB8A PUSH2 0x14FF JUMP JUMPDEST JUMPDEST DUP4 DUP3 DUP2 MLOAD DUP2 LT PUSH2 0xB9E JUMPI PUSH2 0xB9D PUSH2 0x15F1 JUMP JUMPDEST JUMPDEST PUSH1 0x20 MUL PUSH1 0x20 ADD ADD DUP2 DUP2 MSTORE POP POP DUP1 DUP1 PUSH2 0xBB5 SWAP1 PUSH2 0x164F JUMP JUMPDEST SWAP2 POP POP PUSH2 0x9C2 JUMP JUMPDEST POP POP SWAP1 SWAP2 SWAP3 JUMP JUMPDEST PUSH1 0x2 PUSH1 0x0 SWAP1 SLOAD SWAP1 PUSH2 0x100 EXP SWAP1 DIV PUSH20 0xFFFFFFFFFFFFFFFFFFFFFFFFFFFFFFFFFFFFFFFF AND PUSH20 0xFFFFFFFFFFFFFFFFFFFFFFFFFFFFFFFFFFFFFFFF AND CALLER PUSH20 0xFFFFFFFFFFFFFFFFFFFFFFFFFFFFFFFFFFFFFFFF AND EQ PUSH2 0xC1E JUMPI PUSH1 0x0 DUP1 REVERT JUMPDEST DUP1 PUSH1 0x2 PUSH1 0x0 PUSH2 0x100 EXP DUP2 SLOAD DUP2 PUSH20 0xFFFFFFFFFFFFFFFFFFFFFFFFFFFFFFFFFFFFFFFF MUL NOT AND SWAP1 DUP4 PUSH20 0xFFFFFFFFFFFFFFFFFFFFFFFFFFFFFFFFFFFFFFFF AND MUL OR SWAP1 SSTORE POP PUSH1 0x2 PUSH1 0x3 PUSH1 0x0 DUP4 PUSH20 0xFFFFFFFFFFFFFFFFFFFFFFFFFFFFFFFFFFFFFFFF AND PUSH20 0xFFFFFFFFFFFFFFFFFFFFFFFFFFFFFFFFFFFFFFFF AND DUP2 MSTORE PUSH1 0x20 ADD SWAP1 DUP2 MSTORE PUSH1 0x20 ADD PUSH1 0x0 KECCAK256 PUSH1 0x0 PUSH2 0x100 EXP DUP2 SLOAD DUP2 PUSH1 0xFF MUL NOT AND SWAP1 DUP4 PUSH1 0x2 DUP2 GT ISZERO PUSH2 0xCC2 JUMPI PUSH2 0xCC1 PUSH2 0x14FF JUMP JUMPDEST JUMPDEST MUL OR SWAP1 SSTORE POP POP JUMP JUMPDEST PUSH1 0x2 DUP1 DUP2 GT ISZERO PUSH2 0xCDD JUMPI PUSH2 0xCDC PUSH2 0x14FF JUMP JUMPDEST JUMPDEST PUSH1 0x3 PUSH1 0x0 CALLER PUSH20 0xFFFFFFFFFFFFFFFFFFFFFFFFFFFFFFFFFFFFFFFF AND PUSH20 0xFFFFFFFFFFFFFFFFFFFFFFFFFFFFFFFFFFFFFFFF AND DUP2 MSTORE PUSH1 0x20 ADD SWAP1 DUP2 MSTORE PUSH1 0x20 ADD PUSH1 0x0 KECCAK256 PUSH1 0x0 SWAP1 SLOAD SWAP1 PUSH2 0x100 EXP SWAP1 DIV PUSH1 0xFF AND PUSH1 0x2 DUP2 GT ISZERO PUSH2 0xD3C JUMPI PUSH2 0xD3B PUSH2 0x14FF JUMP JUMPDEST JUMPDEST LT ISZERO PUSH2 0xD47 JUMPI PUSH1 0x0 DUP1 REVERT JUMPDEST DUP1 PUSH1 0x0 SWAP1 DUP1 MLOAD SWAP1 PUSH1 0x20 ADD SWAP1 PUSH2 0xD5D SWAP3 SWAP2 SWAP1 PUSH2 0xD61 JUMP JUMPDEST POP POP JUMP JUMPDEST DUP3 DUP1 SLOAD PUSH2 0xD6D SWAP1 PUSH2 0x155D JUMP JUMPDEST SWAP1 PUSH1 0x0 MSTORE PUSH1 0x20 PUSH1 0x0 KECCAK256 SWAP1 PUSH1 0x1F ADD PUSH1 0x20 SWAP1 DIV DUP2 ADD SWAP3 DUP3 PUSH2 0xD8F JUMPI PUSH1 0x0 DUP6 SSTORE PUSH2 0xDD6 JUMP JUMPDEST DUP3 PUSH1 0x1F LT PUSH2 0xDA8 JUMPI DUP1 MLOAD PUSH1 0xFF NOT AND DUP4 DUP1 ADD OR DUP6 SSTORE PUSH2 0xDD6 JUMP JUMPDEST DUP3 DUP1 ADD PUSH1 0x1 ADD DUP6 SSTORE DUP3 ISZERO PUSH2 0xDD6 JUMPI SWAP2 DUP3 ADD JUMPDEST DUP3 DUP2 GT ISZERO PUSH2 0xDD5 JUMPI DUP3 MLOAD DUP3 SSTORE SWAP2 PUSH1 0x20 ADD SWAP2 SWAP1 PUSH1 0x1 ADD SWAP1 PUSH2 0xDBA JUMP JUMPDEST JUMPDEST POP SWAP1 POP PUSH2 0xDE3 SWAP2 SWAP1 PUSH2 0xE27 JUMP JUMPDEST POP SWAP1 JUMP JUMPDEST POP DUP1 SLOAD PUSH2 0xDF3 SWAP1 PUSH2 0x155D JUMP JUMPDEST PUSH1 0x0 DUP3 SSTORE DUP1 PUSH1 0x1F LT PUSH2 0xE05 JUMPI POP PUSH2 0xE24 JUMP JUMPDEST PUSH1 0x1F ADD PUSH1 0x20 SWAP1 DIV SWAP1 PUSH1 0x0 MSTORE PUSH1 0x20 PUSH1 0x0 KECCAK256 SWAP1 DUP2 ADD SWAP1 PUSH2 0xE23 SWAP2 SWAP1 PUSH2 0xE27 JUMP JUMPDEST JUMPDEST POP JUMP JUMPDEST JUMPDEST DUP1 DUP3 GT ISZERO PUSH2 0xE40 JUMPI PUSH1 0x0 DUP2 PUSH1 0x0 SWAP1 SSTORE POP PUSH1 0x1 ADD PUSH2 0xE28 JUMP JUMPDEST POP SWAP1 JUMP JUMPDEST PUSH1 0x0 PUSH1 0x40 MLOAD SWAP1 POP SWAP1 JUMP JUMPDEST PUSH1 0x0 DUP1 REVERT JUMPDEST PUSH1 0x0 DUP1 REVERT JUMPDEST PUSH1 0x0 PUSH20 0xFFFFFFFFFFFFFFFFFFFFFFFFFFFFFFFFFFFFFFFF DUP3 AND SWAP1 POP SWAP2 SWAP1 POP JUMP JUMPDEST PUSH1 0x0 PUSH2 0xE83 DUP3 PUSH2 0xE58 JUMP JUMPDEST SWAP1 POP SWAP2 SWAP1 POP JUMP JUMPDEST PUSH2 0xE93 DUP2 PUSH2 0xE78 JUMP JUMPDEST DUP2 EQ PUSH2 0xE9E JUMPI PUSH1 0x0 DUP1 REVERT JUMPDEST POP JUMP JUMPDEST PUSH1 0x0 DUP2 CALLDATALOAD SWAP1 POP PUSH2 0xEB0 DUP2 PUSH2 0xE8A JUMP JUMPDEST SWAP3 SWAP2 POP POP JUMP JUMPDEST PUSH1 0x0 DUP1 REVERT JUMPDEST PUSH1 0x0 DUP1 REVERT JUMPDEST PUSH1 0x0 PUSH1 0x1F NOT PUSH1 0x1F DUP4 ADD AND SWAP1 POP SWAP2 SWAP1 POP JUMP JUMPDEST PUSH32 0x4E487B7100000000000000000000000000000000000000000000000000000000 PUSH1 0x0 MSTORE PUSH1 0x41 PUSH1 0x4 MSTORE PUSH1 0x24 PUSH1 0x0 REVERT JUMPDEST PUSH2 0xF09 DUP3 PUSH2 0xEC0 JUMP JUMPDEST DUP2 ADD DUP2 DUP2 LT PUSH8 0xFFFFFFFFFFFFFFFF DUP3 GT OR ISZERO PUSH2 0xF28 JUMPI PUSH2 0xF27 PUSH2 0xED1 JUMP JUMPDEST JUMPDEST DUP1 PUSH1 0x40 MSTORE POP POP POP JUMP JUMPDEST PUSH1 0x0 PUSH2 0xF3B PUSH2 0xE44 JUMP JUMPDEST SWAP1 POP PUSH2 0xF47 DUP3 DUP3 PUSH2 0xF00 JUMP JUMPDEST SWAP2 SWAP1 POP JUMP JUMPDEST PUSH1 0x0 PUSH8 0xFFFFFFFFFFFFFFFF DUP3 GT ISZERO PUSH2 0xF67 JUMPI PUSH2 0xF66 PUSH2 0xED1 JUMP JUMPDEST JUMPDEST PUSH2 0xF70 DUP3 PUSH2 0xEC0 JUMP JUMPDEST SWAP1 POP PUSH1 0x20 DUP2 ADD SWAP1 POP SWAP2 SWAP1 POP JUMP JUMPDEST DUP3 DUP2 DUP4 CALLDATACOPY PUSH1 0x0 DUP4 DUP4 ADD MSTORE POP POP POP JUMP JUMPDEST PUSH1 0x0 PUSH2 0xF9F PUSH2 0xF9A DUP5 PUSH2 0xF4C JUMP JUMPDEST PUSH2 0xF31 JUMP JUMPDEST SWAP1 POP DUP3 DUP2 MSTORE PUSH1 0x20 DUP2 ADD DUP5 DUP5 DUP5 ADD GT ISZERO PUSH2 0xFBB JUMPI PUSH2 0xFBA PUSH2 0xEBB JUMP JUMPDEST JUMPDEST PUSH2 0xFC6 DUP5 DUP3 DUP6 PUSH2 0xF7D JUMP JUMPDEST POP SWAP4 SWAP3 POP POP POP JUMP JUMPDEST PUSH1 0x0 DUP3 PUSH1 0x1F DUP4 ADD SLT PUSH2 0xFE3 JUMPI PUSH2 0xFE2 PUSH2 0xEB6 JUMP JUMPDEST JUMPDEST DUP2 CALLDATALOAD PUSH2 0xFF3 DUP5 DUP3 PUSH1 0x20 DUP7 ADD PUSH2 0xF8C JUMP JUMPDEST SWAP2 POP POP SWAP3 SWAP2 POP POP JUMP JUMPDEST PUSH1 0x0 DUP2 SWAP1 POP SWAP2 SWAP1 POP JUMP JUMPDEST PUSH2 0x100F DUP2 PUSH2 0xFFC JUMP JUMPDEST DUP2 EQ PUSH2 0x101A JUMPI PUSH1 0x0 DUP1 REVERT JUMPDEST POP JUMP JUMPDEST PUSH1 0x0 DUP2 CALLDATALOAD SWAP1 POP PUSH2 0x102C DUP2 PUSH2 0x1006 JUMP JUMPDEST SWAP3 SWAP2 POP POP JUMP JUMPDEST PUSH1 0x0 DUP1 PUSH1 0x0 PUSH1 0x60 DUP5 DUP7 SUB SLT ISZERO PUSH2 0x104B JUMPI PUSH2 0x104A PUSH2 0xE4E JUMP JUMPDEST JUMPDEST PUSH1 0x0 PUSH2 0x1059 DUP7 DUP3 DUP8 ADD PUSH2 0xEA1 JUMP JUMPDEST SWAP4 POP POP PUSH1 0x20 DUP5 ADD CALLDATALOAD PUSH8 0xFFFFFFFFFFFFFFFF DUP2 GT ISZERO PUSH2 0x107A JUMPI PUSH2 0x1079 PUSH2 0xE53 JUMP JUMPDEST JUMPDEST PUSH2 0x1086 DUP7 DUP3 DUP8 ADD PUSH2 0xFCE JUMP JUMPDEST SWAP3 POP POP PUSH1 0x40 PUSH2 0x1097 DUP7 DUP3 DUP8 ADD PUSH2 0x101D JUMP JUMPDEST SWAP2 POP POP SWAP3 POP SWAP3 POP SWAP3 JUMP JUMPDEST PUSH2 0x10AA DUP2 PUSH2 0xE78 JUMP JUMPDEST DUP3 MSTORE POP POP JUMP JUMPDEST PUSH1 0x0 PUSH1 0x20 DUP3 ADD SWAP1 POP PUSH2 0x10C5 PUSH1 0x0 DUP4 ADD DUP5 PUSH2 0x10A1 JUMP JUMPDEST SWAP3 SWAP2 POP POP JUMP JUMPDEST PUSH1 0x0 DUP2 MLOAD SWAP1 POP SWAP2 SWAP1 POP JUMP JUMPDEST PUSH1 0x0 DUP3 DUP3 MSTORE PUSH1 0x20 DUP3 ADD SWAP1 POP SWAP3 SWAP2 POP POP JUMP JUMPDEST PUSH1 0x0 JUMPDEST DUP4 DUP2 LT ISZERO PUSH2 0x1105 JUMPI DUP1 DUP3 ADD MLOAD DUP2 DUP5 ADD MSTORE PUSH1 0x20 DUP2 ADD SWAP1 POP PUSH2 0x10EA JUMP JUMPDEST DUP4 DUP2 GT ISZERO PUSH2 0x1114 JUMPI PUSH1 0x0 DUP5 DUP5 ADD MSTORE JUMPDEST POP POP POP POP JUMP JUMPDEST PUSH1 0x0 PUSH2 0x1125 DUP3 PUSH2 0x10CB JUMP JUMPDEST PUSH2 0x112F DUP2 DUP6 PUSH2 0x10D6 JUMP JUMPDEST SWAP4 POP PUSH2 0x113F DUP2 DUP6 PUSH1 0x20 DUP7 ADD PUSH2 0x10E7 JUMP JUMPDEST PUSH2 0x1148 DUP2 PUSH2 0xEC0 JUMP JUMPDEST DUP5 ADD SWAP2 POP POP SWAP3 SWAP2 POP POP JUMP JUMPDEST PUSH1 0x0 PUSH1 0x20 DUP3 ADD SWAP1 POP DUP2 DUP2 SUB PUSH1 0x0 DUP4 ADD MSTORE PUSH2 0x116D DUP2 DUP5 PUSH2 0x111A JUMP JUMPDEST SWAP1 POP SWAP3 SWAP2 POP POP JUMP JUMPDEST PUSH1 0x0 DUP1 PUSH1 0x40 DUP4 DUP6 SUB SLT ISZERO PUSH2 0x118C JUMPI PUSH2 0x118B PUSH2 0xE4E JUMP JUMPDEST JUMPDEST PUSH1 0x0 PUSH2 0x119A DUP6 DUP3 DUP7 ADD PUSH2 0x101D JUMP JUMPDEST SWAP3 POP POP PUSH1 0x20 PUSH2 0x11AB DUP6 DUP3 DUP7 ADD PUSH2 0xEA1 JUMP JUMPDEST SWAP2 POP POP SWAP3 POP SWAP3 SWAP1 POP JUMP JUMPDEST PUSH1 0x0 DUP2 MLOAD SWAP1 POP SWAP2 SWAP1 POP JUMP JUMPDEST PUSH1 0x0 DUP3 DUP3 MSTORE PUSH1 0x20 DUP3 ADD SWAP1 POP SWAP3 SWAP2 POP POP JUMP JUMPDEST PUSH1 0x0 DUP2 SWAP1 POP PUSH1 0x20 DUP3 ADD SWAP1 POP SWAP2 SWAP1 POP JUMP JUMPDEST PUSH2 0x11EA DUP2 PUSH2 0xE78 JUMP JUMPDEST DUP3 MSTORE POP POP JUMP JUMPDEST PUSH1 0x0 PUSH2 0x11FC DUP4 DUP4 PUSH2 0x11E1 JUMP JUMPDEST PUSH1 0x20 DUP4 ADD SWAP1 POP SWAP3 SWAP2 POP POP JUMP JUMPDEST PUSH1 0x0 PUSH1 0x20 DUP3 ADD SWAP1 POP SWAP2 SWAP1 POP JUMP JUMPDEST PUSH1 0x0 PUSH2 0x1220 DUP3 PUSH2 0x11B5 JUMP JUMPDEST PUSH2 0x122A DUP2 DUP6 PUSH2 0x11C0 JUMP JUMPDEST SWAP4 POP PUSH2 0x1235 DUP4 PUSH2 0x11D1 JUMP JUMPDEST DUP1 PUSH1 0x0 JUMPDEST DUP4 DUP2 LT ISZERO PUSH2 0x1266 JUMPI DUP2 MLOAD PUSH2 0x124D DUP9 DUP3 PUSH2 0x11F0 JUMP JUMPDEST SWAP8 POP PUSH2 0x1258 DUP4 PUSH2 0x1208 JUMP JUMPDEST SWAP3 POP POP PUSH1 0x1 DUP2 ADD SWAP1 POP PUSH2 0x1239 JUMP JUMPDEST POP DUP6 SWAP4 POP POP POP POP SWAP3 SWAP2 POP POP JUMP JUMPDEST PUSH1 0x0 DUP2 MLOAD SWAP1 POP SWAP2 SWAP1 POP JUMP JUMPDEST PUSH1 0x0 DUP3 DUP3 MSTORE PUSH1 0x20 DUP3 ADD SWAP1 POP SWAP3 SWAP2 POP POP JUMP JUMPDEST PUSH1 0x0 DUP2 SWAP1 POP PUSH1 0x20 DUP3 ADD SWAP1 POP SWAP2 SWAP1 POP JUMP JUMPDEST PUSH1 0x0 DUP3 DUP3 MSTORE PUSH1 0x20 DUP3 ADD SWAP1 POP SWAP3 SWAP2 POP POP JUMP JUMPDEST PUSH1 0x0 PUSH2 0x12BB DUP3 PUSH2 0x10CB JUMP JUMPDEST PUSH2 0x12C5 DUP2 DUP6 PUSH2 0x129F JUMP JUMPDEST SWAP4 POP PUSH2 0x12D5 DUP2 DUP6 PUSH1 0x20 DUP7 ADD PUSH2 0x10E7 JUMP JUMPDEST PUSH2 0x12DE DUP2 PUSH2 0xEC0 JUMP JUMPDEST DUP5 ADD SWAP2 POP POP SWAP3 SWAP2 POP POP JUMP JUMPDEST PUSH1 0x0 PUSH2 0x12F5 DUP4 DUP4 PUSH2 0x12B0 JUMP JUMPDEST SWAP1 POP SWAP3 SWAP2 POP POP JUMP JUMPDEST PUSH1 0x0 PUSH1 0x20 DUP3 ADD SWAP1 POP SWAP2 SWAP1 POP JUMP JUMPDEST PUSH1 0x0 PUSH2 0x1315 DUP3 PUSH2 0x1273 JUMP JUMPDEST PUSH2 0x131F DUP2 DUP6 PUSH2 0x127E JUMP JUMPDEST SWAP4 POP DUP4 PUSH1 0x20 DUP3 MUL DUP6 ADD PUSH2 0x1331 DUP6 PUSH2 0x128F JUMP JUMPDEST DUP1 PUSH1 0x0 JUMPDEST DUP6 DUP2 LT ISZERO PUSH2 0x136D JUMPI DUP5 DUP5 SUB DUP10 MSTORE DUP2 MLOAD PUSH2 0x134E DUP6 DUP3 PUSH2 0x12E9 JUMP JUMPDEST SWAP5 POP PUSH2 0x1359 DUP4 PUSH2 0x12FD JUMP JUMPDEST SWAP3 POP PUSH1 0x20 DUP11 ADD SWAP10 POP POP PUSH1 0x1 DUP2 ADD SWAP1 POP PUSH2 0x1335 JUMP JUMPDEST POP DUP3 SWAP8 POP DUP8 SWAP6 POP POP POP POP POP POP SWAP3 SWAP2 POP POP JUMP JUMPDEST PUSH1 0x0 DUP2 MLOAD SWAP1 POP SWAP2 SWAP1 POP JUMP JUMPDEST PUSH1 0x0 DUP3 DUP3 MSTORE PUSH1 0x20 DUP3 ADD SWAP1 POP SWAP3 SWAP2 POP POP JUMP JUMPDEST PUSH1 0x0 DUP2 SWAP1 POP PUSH1 0x20 DUP3 ADD SWAP1 POP SWAP2 SWAP1 POP JUMP JUMPDEST PUSH2 0x13B4 DUP2 PUSH2 0xFFC JUMP JUMPDEST DUP3 MSTORE POP POP JUMP JUMPDEST PUSH1 0x0 PUSH2 0x13C6 DUP4 DUP4 PUSH2 0x13AB JUMP JUMPDEST PUSH1 0x20 DUP4 ADD SWAP1 POP SWAP3 SWAP2 POP POP JUMP JUMPDEST PUSH1 0x0 PUSH1 0x20 DUP3 ADD SWAP1 POP SWAP2 SWAP1 POP JUMP JUMPDEST PUSH1 0x0 PUSH2 0x13EA DUP3 PUSH2 0x137F JUMP JUMPDEST PUSH2 0x13F4 DUP2 DUP6 PUSH2 0x138A JUMP JUMPDEST SWAP4 POP PUSH2 0x13FF DUP4 PUSH2 0x139B JUMP JUMPDEST DUP1 PUSH1 0x0 JUMPDEST DUP4 DUP2 LT ISZERO PUSH2 0x1430 JUMPI DUP2 MLOAD PUSH2 0x1417 DUP9 DUP3 PUSH2 0x13BA JUMP JUMPDEST SWAP8 POP PUSH2 0x1422 DUP4 PUSH2 0x13D2 JUMP JUMPDEST SWAP3 POP POP PUSH1 0x1 DUP2 ADD SWAP1 POP PUSH2 0x1403 JUMP JUMPDEST POP DUP6 SWAP4 POP POP POP POP SWAP3 SWAP2 POP POP JUMP JUMPDEST PUSH1 0x0 PUSH1 0x60 DUP3 ADD SWAP1 POP DUP2 DUP2 SUB PUSH1 0x0 DUP4 ADD MSTORE PUSH2 0x1457 DUP2 DUP7 PUSH2 0x1215 JUMP JUMPDEST SWAP1 POP DUP2 DUP2 SUB PUSH1 0x20 DUP4 ADD MSTORE PUSH2 0x146B DUP2 DUP6 PUSH2 0x130A JUMP JUMPDEST SWAP1 POP DUP2 DUP2 SUB PUSH1 0x40 DUP4 ADD MSTORE PUSH2 0x147F DUP2 DUP5 PUSH2 0x13DF JUMP JUMPDEST SWAP1 POP SWAP5 SWAP4 POP POP POP POP JUMP JUMPDEST PUSH1 0x0 PUSH1 0x20 DUP3 DUP5 SUB SLT ISZERO PUSH2 0x149F JUMPI PUSH2 0x149E PUSH2 0xE4E JUMP JUMPDEST JUMPDEST PUSH1 0x0 PUSH2 0x14AD DUP5 DUP3 DUP6 ADD PUSH2 0xEA1 JUMP JUMPDEST SWAP2 POP POP SWAP3 SWAP2 POP POP JUMP JUMPDEST PUSH1 0x0 PUSH1 0x20 DUP3 DUP5 SUB SLT ISZERO PUSH2 0x14CC JUMPI PUSH2 0x14CB PUSH2 0xE4E JUMP JUMPDEST JUMPDEST PUSH1 0x0 DUP3 ADD CALLDATALOAD PUSH8 0xFFFFFFFFFFFFFFFF DUP2 GT ISZERO PUSH2 0x14EA JUMPI PUSH2 0x14E9 PUSH2 0xE53 JUMP JUMPDEST JUMPDEST PUSH2 0x14F6 DUP5 DUP3 DUP6 ADD PUSH2 0xFCE JUMP JUMPDEST SWAP2 POP POP SWAP3 SWAP2 POP POP JUMP JUMPDEST PUSH32 0x4E487B7100000000000000000000000000000000000000000000000000000000 PUSH1 0x0 MSTORE PUSH1 0x21 PUSH1 0x4 MSTORE PUSH1 0x24 PUSH1 0x0 REVERT JUMPDEST PUSH32 0x4E487B7100000000000000000000000000000000000000000000000000000000 PUSH1 0x0 MSTORE PUSH1 0x22 PUSH1 0x4 MSTORE PUSH1 0x24 PUSH1 0x0 REVERT JUMPDEST PUSH1 0x0 PUSH1 0x2 DUP3 DIV SWAP1 POP PUSH1 0x1 DUP3 AND DUP1 PUSH2 0x1575 JUMPI PUSH1 0x7F DUP3 AND SWAP2 POP JUMPDEST PUSH1 0x20 DUP3 LT DUP2 SUB PUSH2 0x1588 JUMPI PUSH2 0x1587 PUSH2 0x152E JUMP JUMPDEST JUMPDEST POP SWAP2 SWAP1 POP JUMP JUMPDEST PUSH32 0x4E487B7100000000000000000000000000000000000000000000000000000000 PUSH1 0x0 MSTORE PUSH1 0x11 PUSH1 0x4 MSTORE PUSH1 0x24 PUSH1 0x0 REVERT JUMPDEST PUSH1 0x0 PUSH2 0x15C8 DUP3 PUSH2 0xFFC JUMP JUMPDEST SWAP2 POP PUSH2 0x15D3 DUP4 PUSH2 0xFFC JUMP JUMPDEST SWAP3 POP DUP3 DUP3 LT ISZERO PUSH2 0x15E6 JUMPI PUSH2 0x15E5 PUSH2 0x158E JUMP JUMPDEST JUMPDEST DUP3 DUP3 SUB SWAP1 POP SWAP3 SWAP2 POP POP JUMP JUMPDEST PUSH32 0x4E487B7100000000000000000000000000000000000000000000000000000000 PUSH1 0x0 MSTORE PUSH1 0x32 PUSH1 0x4 MSTORE PUSH1 0x24 PUSH1 0x0 REVERT JUMPDEST PUSH32 0x4E487B7100000000000000000000000000000000000000000000000000000000 PUSH1 0x0 MSTORE PUSH1 0x31 PUSH1 0x4 MSTORE PUSH1 0x24 PUSH1 0x0 REVERT JUMPDEST PUSH1 0x0 PUSH2 0x165A DUP3 PUSH2 0xFFC JUMP JUMPDEST SWAP2 POP PUSH32 0xFFFFFFFFFFFFFFFFFFFFFFFFFFFFFFFFFFFFFFFFFFFFFFFFFFFFFFFFFFFFFFFF DUP3 SUB PUSH2 0x168C JUMPI PUSH2 0x168B PUSH2 0x158E JUMP JUMPDEST JUMPDEST PUSH1 0x1 DUP3 ADD SWAP1 POP SWAP2 SWAP1 POP JUMP INVALID LOG2 PUSH5 0x6970667358 0x22 SLT KECCAK256 0xDD DIFFICULTY 0x5F STOP 0xF6 DUP12 0xA6 RETURNDATASIZE 0xD4 0xF SWAP11 EXTCODESIZE 0xCD 0x49 CREATE2 0x5D 0x5E 0xA8 CALLCODE STOP DUP15 MSIZE PUSH9 0x7FBA17CDBBA8AD2B39 PUSH5 0x736F6C6343 STOP ADDMOD 0xD STOP CALLER LOG2 PUSH5 0x6970667358 0x22 SLT KECCAK256 EXTCODECOPY CREATE 0xA7 0x2F PUSH14 0x513D7D7BE61214B0972BF5E3DEF6 LOG0 0x2E 0xB8 DUP14 SWAP5 0x23 0xB7 0xCE 0x29 PUSH6 0x92F28C64736F PUSH13 0x634300080D0033000000000000 "},"gasEstimates":{"creation":{"codeDepositCost":"2130600","executionCost":"26531","totalCost":"2157131"},"external":{"addGroup(address)":"49189","createGroup(string,string)":"infinite","getBalance()":"2510","getGroups()":"infinite","leaveGroup(uint256)":"infinite","manager()":"2514","transferBalance()":"infinite"}},"methodIdentifiers":{"addGroup(address)":"f9515f1b","createGroup(string,string)":"1e4a97dd","getBalance()":"12065fe0","getGroups()":"c72b5176","leaveGroup(uint256)":"33471df5","manager()":"481c6a75","transferBalance()":"66adeb8c"}},"storageLayout":{"storage":[{"astId":1134,"contract":"E-timetable.sol:groupFactory","label":"groups","offset":0,"slot":"0","type":"t_mapping(t_address,t_array(t_address)dyn_storage)"},{"astId":1136,"contract":"E-timetable.sol:groupFactory","label":"manager","offset":0,"slot":"1","type":"t_address_payable"}],"types":{"t_address":{"encoding":"inplace","label":"address","numberOfBytes":"20"},"t_address_payable":{"encoding":"inplace","label":"address payable","numberOfBytes":"20"},"t_array(t_address)dyn_storage":{"base":"t_address","encoding":"dynamic_array","label":"address[]","numberOfBytes":"32"},"t_mapping(t_address,t_array(t_address)dyn_storage)":{"encoding":"mapping","key":"t_address","label":"mapping(address => address[])","numberOfBytes":"32","value":"t_array(t_address)dyn_storage"}}},"userdoc":{"kind":"user","methods":{},"version":1}}